{
  "_format": "hh-sol-artifact-1",
  "contractName": "AssetContract",
  "sourceName": "contracts/AssetContract.sol",
  "abi": [
    {
      "anonymous": false,
      "inputs": [
        {
          "indexed": true,
          "internalType": "address",
          "name": "account",
          "type": "address"
        },
        {
          "indexed": true,
          "internalType": "address",
          "name": "operator",
          "type": "address"
        },
        {
          "indexed": false,
          "internalType": "bool",
          "name": "approved",
          "type": "bool"
        }
      ],
      "name": "ApprovalForAll",
      "type": "event"
    },
    {
      "anonymous": false,
      "inputs": [
        {
          "indexed": false,
          "internalType": "uint8",
          "name": "version",
          "type": "uint8"
        }
      ],
      "name": "Initialized",
      "type": "event"
    },
    {
      "anonymous": false,
      "inputs": [
        {
          "indexed": false,
          "internalType": "address",
          "name": "userAddress",
          "type": "address"
        },
        {
          "indexed": false,
          "internalType": "address payable",
          "name": "relayerAddress",
          "type": "address"
        },
        {
          "indexed": false,
          "internalType": "bytes",
          "name": "functionSignature",
          "type": "bytes"
        }
      ],
      "name": "MetaTransactionExecuted",
      "type": "event"
    },
    {
      "anonymous": false,
      "inputs": [
        {
          "indexed": true,
          "internalType": "address",
          "name": "previousOwner",
          "type": "address"
        },
        {
          "indexed": true,
          "internalType": "address",
          "name": "newOwner",
          "type": "address"
        }
      ],
      "name": "OwnershipTransferred",
      "type": "event"
    },
    {
      "anonymous": false,
      "inputs": [
        {
          "indexed": false,
          "internalType": "address",
          "name": "account",
          "type": "address"
        }
      ],
      "name": "Paused",
      "type": "event"
    },
    {
      "anonymous": false,
      "inputs": [
        {
          "indexed": false,
          "internalType": "string",
          "name": "_value",
          "type": "string"
        },
        {
          "indexed": true,
          "internalType": "uint256",
          "name": "_id",
          "type": "uint256"
        }
      ],
      "name": "PermanentURI",
      "type": "event"
    },
    {
      "anonymous": false,
      "inputs": [
        {
          "indexed": true,
          "internalType": "address",
          "name": "operator",
          "type": "address"
        },
        {
          "indexed": true,
          "internalType": "address",
          "name": "from",
          "type": "address"
        },
        {
          "indexed": true,
          "internalType": "address",
          "name": "to",
          "type": "address"
        },
        {
          "indexed": false,
          "internalType": "uint256[]",
          "name": "ids",
          "type": "uint256[]"
        },
        {
          "indexed": false,
          "internalType": "uint256[]",
          "name": "values",
          "type": "uint256[]"
        }
      ],
      "name": "TransferBatch",
      "type": "event"
    },
    {
      "anonymous": false,
      "inputs": [
        {
          "indexed": true,
          "internalType": "address",
          "name": "operator",
          "type": "address"
        },
        {
          "indexed": true,
          "internalType": "address",
          "name": "from",
          "type": "address"
        },
        {
          "indexed": true,
          "internalType": "address",
          "name": "to",
          "type": "address"
        },
        {
          "indexed": false,
          "internalType": "uint256",
          "name": "id",
          "type": "uint256"
        },
        {
          "indexed": false,
          "internalType": "uint256",
          "name": "value",
          "type": "uint256"
        }
      ],
      "name": "TransferSingle",
      "type": "event"
    },
    {
      "anonymous": false,
      "inputs": [
        {
          "indexed": false,
          "internalType": "string",
          "name": "value",
          "type": "string"
        },
        {
          "indexed": true,
          "internalType": "uint256",
          "name": "id",
          "type": "uint256"
        }
      ],
      "name": "URI",
      "type": "event"
    },
    {
      "anonymous": false,
      "inputs": [
        {
          "indexed": false,
          "internalType": "address",
          "name": "account",
          "type": "address"
        }
      ],
      "name": "Unpaused",
      "type": "event"
    },
    {
      "inputs": [],
      "name": "ERC712_VERSION",
      "outputs": [
        {
          "internalType": "string",
          "name": "",
          "type": "string"
        }
      ],
      "stateMutability": "view",
      "type": "function"
    },
    {
      "inputs": [
        {
          "internalType": "address",
          "name": "_owner",
          "type": "address"
        },
        {
          "internalType": "uint256",
          "name": "_id",
          "type": "uint256"
        }
      ],
      "name": "balanceOf",
      "outputs": [
        {
          "internalType": "uint256",
          "name": "",
          "type": "uint256"
        }
      ],
      "stateMutability": "view",
      "type": "function"
    },
    {
      "inputs": [
        {
          "internalType": "address[]",
          "name": "accounts",
          "type": "address[]"
        },
        {
          "internalType": "uint256[]",
          "name": "ids",
          "type": "uint256[]"
        }
      ],
      "name": "balanceOfBatch",
      "outputs": [
        {
          "internalType": "uint256[]",
          "name": "",
          "type": "uint256[]"
        }
      ],
      "stateMutability": "view",
      "type": "function"
    },
    {
      "inputs": [
        {
          "internalType": "address",
          "name": "_from",
          "type": "address"
        },
        {
          "internalType": "uint256[]",
          "name": "_ids",
          "type": "uint256[]"
        },
        {
          "internalType": "uint256[]",
          "name": "_quantities",
          "type": "uint256[]"
        }
      ],
      "name": "batchBurn",
      "outputs": [],
      "stateMutability": "nonpayable",
      "type": "function"
    },
    {
      "inputs": [
        {
          "internalType": "address",
          "name": "_to",
          "type": "address"
        },
        {
          "internalType": "uint256[]",
          "name": "_ids",
          "type": "uint256[]"
        },
        {
          "internalType": "uint256[]",
          "name": "_quantities",
          "type": "uint256[]"
        },
        {
          "internalType": "bytes",
          "name": "_data",
          "type": "bytes"
        }
      ],
      "name": "batchMint",
      "outputs": [],
      "stateMutability": "nonpayable",
      "type": "function"
    },
    {
      "inputs": [
        {
          "internalType": "address",
          "name": "_from",
          "type": "address"
        },
        {
          "internalType": "uint256",
          "name": "_id",
          "type": "uint256"
        },
        {
          "internalType": "uint256",
          "name": "_quantity",
          "type": "uint256"
        }
      ],
      "name": "burn",
      "outputs": [],
      "stateMutability": "nonpayable",
      "type": "function"
    },
    {
      "inputs": [
        {
          "internalType": "address",
          "name": "userAddress",
          "type": "address"
        },
        {
          "internalType": "bytes",
          "name": "functionSignature",
          "type": "bytes"
        },
        {
          "internalType": "bytes32",
          "name": "sigR",
          "type": "bytes32"
        },
        {
          "internalType": "bytes32",
          "name": "sigS",
          "type": "bytes32"
        },
        {
          "internalType": "uint8",
          "name": "sigV",
          "type": "uint8"
        }
      ],
      "name": "executeMetaTransaction",
      "outputs": [
        {
          "internalType": "bytes",
          "name": "",
          "type": "bytes"
        }
      ],
      "stateMutability": "payable",
      "type": "function"
    },
    {
      "inputs": [
        {
          "internalType": "uint256",
          "name": "_id",
          "type": "uint256"
        }
      ],
      "name": "exists",
      "outputs": [
        {
          "internalType": "bool",
          "name": "",
          "type": "bool"
        }
      ],
      "stateMutability": "view",
      "type": "function"
    },
    {
      "inputs": [],
      "name": "getChainId",
      "outputs": [
        {
          "internalType": "uint256",
          "name": "",
          "type": "uint256"
        }
      ],
      "stateMutability": "view",
      "type": "function"
    },
    {
      "inputs": [],
      "name": "getDomainSeperator",
      "outputs": [
        {
          "internalType": "bytes32",
          "name": "",
          "type": "bytes32"
        }
      ],
      "stateMutability": "view",
      "type": "function"
    },
    {
      "inputs": [
        {
          "internalType": "address",
          "name": "user",
          "type": "address"
        }
      ],
      "name": "getNonce",
      "outputs": [
        {
          "internalType": "uint256",
          "name": "nonce",
          "type": "uint256"
        }
      ],
      "stateMutability": "view",
      "type": "function"
    },
    {
      "inputs": [
        {
          "internalType": "address",
          "name": "_owner",
          "type": "address"
        },
        {
          "internalType": "address",
          "name": "_operator",
          "type": "address"
        }
      ],
      "name": "isApprovedForAll",
      "outputs": [
        {
          "internalType": "bool",
          "name": "isOperator",
          "type": "bool"
        }
      ],
      "stateMutability": "view",
      "type": "function"
    },
    {
      "inputs": [
        {
          "internalType": "uint256",
          "name": "_id",
          "type": "uint256"
        }
      ],
      "name": "isPermanentURI",
      "outputs": [
        {
          "internalType": "bool",
          "name": "",
          "type": "bool"
        }
      ],
      "stateMutability": "view",
      "type": "function"
    },
    {
      "inputs": [
        {
          "internalType": "address",
          "name": "_to",
          "type": "address"
        },
        {
          "internalType": "uint256",
          "name": "_id",
          "type": "uint256"
        },
        {
          "internalType": "uint256",
          "name": "_quantity",
          "type": "uint256"
        },
        {
          "internalType": "bytes",
          "name": "_data",
          "type": "bytes"
        }
      ],
      "name": "mint",
      "outputs": [],
      "stateMutability": "nonpayable",
      "type": "function"
    },
    {
      "inputs": [],
      "name": "name",
      "outputs": [
        {
          "internalType": "string",
          "name": "",
          "type": "string"
        }
      ],
      "stateMutability": "view",
      "type": "function"
    },
    {
      "inputs": [],
      "name": "owner",
      "outputs": [
        {
          "internalType": "address",
          "name": "",
          "type": "address"
        }
      ],
      "stateMutability": "view",
      "type": "function"
    },
    {
      "inputs": [],
      "name": "pause",
      "outputs": [],
      "stateMutability": "nonpayable",
      "type": "function"
    },
    {
      "inputs": [],
      "name": "paused",
      "outputs": [
        {
          "internalType": "bool",
          "name": "",
          "type": "bool"
        }
      ],
      "stateMutability": "view",
      "type": "function"
    },
    {
      "inputs": [],
      "name": "proxyRegistryAddress",
      "outputs": [
        {
          "internalType": "address",
          "name": "",
          "type": "address"
        }
      ],
      "stateMutability": "view",
      "type": "function"
    },
    {
      "inputs": [],
      "name": "renounceOwnership",
      "outputs": [],
      "stateMutability": "nonpayable",
      "type": "function"
    },
    {
      "inputs": [
        {
          "internalType": "address",
          "name": "_from",
          "type": "address"
        },
        {
          "internalType": "address",
          "name": "_to",
          "type": "address"
        },
        {
          "internalType": "uint256[]",
          "name": "_ids",
          "type": "uint256[]"
        },
        {
          "internalType": "uint256[]",
          "name": "_amounts",
          "type": "uint256[]"
        },
        {
          "internalType": "bytes",
          "name": "_data",
          "type": "bytes"
        }
      ],
      "name": "safeBatchTransferFrom",
      "outputs": [],
      "stateMutability": "nonpayable",
      "type": "function"
    },
    {
      "inputs": [
        {
          "internalType": "address",
          "name": "_from",
          "type": "address"
        },
        {
          "internalType": "address",
          "name": "_to",
          "type": "address"
        },
        {
          "internalType": "uint256",
          "name": "_id",
          "type": "uint256"
        },
        {
          "internalType": "uint256",
          "name": "_amount",
          "type": "uint256"
        },
        {
          "internalType": "bytes",
          "name": "_data",
          "type": "bytes"
        }
      ],
      "name": "safeTransferFrom",
      "outputs": [],
      "stateMutability": "nonpayable",
      "type": "function"
    },
    {
      "inputs": [
        {
          "internalType": "address",
          "name": "operator",
          "type": "address"
        },
        {
          "internalType": "bool",
          "name": "approved",
          "type": "bool"
        }
      ],
      "name": "setApprovalForAll",
      "outputs": [],
      "stateMutability": "nonpayable",
      "type": "function"
    },
    {
      "inputs": [
        {
          "internalType": "uint256",
          "name": "_id",
          "type": "uint256"
        },
        {
          "internalType": "string",
          "name": "_uri",
          "type": "string"
        }
      ],
      "name": "setPermanentURI",
      "outputs": [],
      "stateMutability": "nonpayable",
      "type": "function"
    },
    {
      "inputs": [
        {
          "internalType": "string",
          "name": "_uri",
          "type": "string"
        }
      ],
      "name": "setTemplateURI",
      "outputs": [],
      "stateMutability": "nonpayable",
      "type": "function"
    },
    {
      "inputs": [
        {
          "internalType": "uint256",
          "name": "_id",
          "type": "uint256"
        },
        {
          "internalType": "string",
          "name": "_uri",
          "type": "string"
        }
      ],
      "name": "setURI",
      "outputs": [],
      "stateMutability": "nonpayable",
      "type": "function"
    },
    {
      "inputs": [],
      "name": "supportsFactoryInterface",
      "outputs": [
        {
          "internalType": "bool",
          "name": "",
          "type": "bool"
        }
      ],
      "stateMutability": "pure",
      "type": "function"
    },
    {
      "inputs": [
        {
          "internalType": "bytes4",
          "name": "interfaceId",
          "type": "bytes4"
        }
      ],
      "name": "supportsInterface",
      "outputs": [
        {
          "internalType": "bool",
          "name": "",
          "type": "bool"
        }
      ],
      "stateMutability": "view",
      "type": "function"
    },
    {
      "inputs": [],
      "name": "symbol",
      "outputs": [
        {
          "internalType": "string",
          "name": "",
          "type": "string"
        }
      ],
      "stateMutability": "view",
      "type": "function"
    },
    {
      "inputs": [],
      "name": "templateURI",
      "outputs": [
        {
          "internalType": "string",
          "name": "",
          "type": "string"
        }
      ],
      "stateMutability": "view",
      "type": "function"
    },
    {
      "inputs": [
        {
          "internalType": "uint256",
          "name": "_id",
          "type": "uint256"
        }
      ],
      "name": "totalSupply",
      "outputs": [
        {
          "internalType": "uint256",
          "name": "",
          "type": "uint256"
        }
      ],
      "stateMutability": "view",
      "type": "function"
    },
    {
      "inputs": [
        {
          "internalType": "address",
          "name": "newOwner",
          "type": "address"
        }
      ],
      "name": "transferOwnership",
      "outputs": [],
      "stateMutability": "nonpayable",
      "type": "function"
    },
    {
      "inputs": [],
      "name": "unpause",
      "outputs": [],
      "stateMutability": "nonpayable",
      "type": "function"
    },
    {
      "inputs": [
        {
          "internalType": "uint256",
          "name": "_id",
          "type": "uint256"
        }
      ],
      "name": "uri",
      "outputs": [
        {
          "internalType": "string",
          "name": "",
          "type": "string"
        }
      ],
      "stateMutability": "view",
      "type": "function"
    }
  ],
  "bytecode": "0x608060405234801561001057600080fd5b5061333c806100206000396000f3fe6080604052600436106101f85760003560e01c8063715018a61161010d578063bd85b039116100a0578063f242432a1161006f578063f242432a146105d1578063f2fde38b146105f1578063f5298aca14610611578063f6eb127a14610631578063f923e8c31461065157600080fd5b8063bd85b0391461054e578063c311c5231461057c578063cd7c032614610590578063e985e9c5146105b157600080fd5b80638da5cb5b116100dc5780638da5cb5b146104c757806395d89b41146104f9578063a22cb4651461050e578063b48ab8b61461052e57600080fd5b8063715018a61461045d578063731133e9146104725780638456cb5914610492578063862440e2146104a757600080fd5b806324d88785116101905780633588ad7c1161015f5780633588ad7c146103b35780633f4ba83a146103d35780634e1273f4146103e85780634f558e79146104155780635c975abb1461044557600080fd5b806324d88785146103285780632d0335ab1461034a5780632eb2c2d6146103805780633408e470146103a057600080fd5b80630e89341c116101cc5780630e89341c146102955780630f7e5970146102b55780631e7d9dbb146102e257806320379ee51461031357600080fd5b8062fdd58e146101fd57806301ffc9a71461023057806306fdde03146102605780630c53c51c14610282575b600080fd5b34801561020957600080fd5b5061021d610218366004612683565b610666565b6040519081526020015b60405180910390f35b34801561023c57600080fd5b5061025061024b3660046126c3565b6106a6565b6040519015158152602001610227565b34801561026c57600080fd5b506102756106f6565b6040516102279190612730565b6102756102903660046127f8565b610784565b3480156102a157600080fd5b506102756102b0366004612873565b610961565b3480156102c157600080fd5b50610275604051806040016040528060018152602001603160f81b81525081565b3480156102ee57600080fd5b506102506102fd366004612873565b6000908152610104602052604090205460ff1690565b34801561031f57600080fd5b5060975461021d565b34801561033457600080fd5b5061034861034336600461288c565b610aa3565b005b34801561035657600080fd5b5061021d6103653660046128c0565b6001600160a01b031660009081526098602052604090205490565b34801561038c57600080fd5b5061034861039b36600461296f565b610ae0565b3480156103ac57600080fd5b504661021d565b3480156103bf57600080fd5b506103486103ce366004612a18565b610bbc565b3480156103df57600080fd5b50610348610c24565b3480156103f457600080fd5b50610408610403366004612a5e565b610c55565b6040516102279190612b59565b34801561042157600080fd5b50610250610430366004612873565b60009081526101006020526040902054151590565b34801561045157600080fd5b5060cb5460ff16610250565b34801561046957600080fd5b50610348610d7e565b34801561047e57600080fd5b5061034861048d366004612b6c565b610d90565b34801561049e57600080fd5b50610348610dc9565b3480156104b357600080fd5b506103486104c2366004612a18565b610df8565b3480156104d357600080fd5b506099546001600160a01b03165b6040516001600160a01b039091168152602001610227565b34801561050557600080fd5b50610275610e5b565b34801561051a57600080fd5b50610348610529366004612bcc565b610e68565b34801561053a57600080fd5b50610348610549366004612c08565b610e7a565b34801561055a57600080fd5b5061021d610569366004612873565b6000908152610100602052604090205490565b34801561058857600080fd5b506001610250565b34801561059c57600080fd5b50610101546104e1906001600160a01b031681565b3480156105bd57600080fd5b506102506105cc366004612c94565b610ead565b3480156105dd57600080fd5b506103486105ec366004612cc7565b610f00565b3480156105fd57600080fd5b5061034861060c3660046128c0565b610f50565b34801561061d57600080fd5b5061034861062c366004612d2b565b610fc9565b34801561063d57600080fd5b5061034861064c366004612d5e565b611060565b34801561065d57600080fd5b50610275611139565b6000806106738484611147565b905061067f83856111db565b610689578061069c565b610692836111e6565b61069c9082612de7565b9150505b92915050565b60006001600160e01b03198216636cdb3d1360e11b14806106d757506001600160e01b031982166303a24d0760e21b145b806106a057506301ffc9a760e01b6001600160e01b03198316146106a0565b60fd805461070390612dfa565b80601f016020809104026020016040519081016040528092919081815260200182805461072f90612dfa565b801561077c5780601f106107515761010080835404028352916020019161077c565b820191906000526020600020905b81548152906001019060200180831161075f57829003601f168201915b505050505081565b60408051606081810183526001600160a01b038816600081815260986020908152908590205484528301529181018690526107c28782878787611201565b61081d5760405162461bcd60e51b815260206004820152602160248201527f5369676e657220616e64207369676e617475726520646f206e6f74206d6174636044820152600d60fb1b60648201526084015b60405180910390fd5b6001600160a01b0387166000908152609860205260408120805460019290610846908490612de7565b90915550506040517f5845892132946850460bff5a0083f71031bc5bf9aadcd40f1de79423eac9b10b9061087f90899033908a90612e34565b60405180910390a1600080306001600160a01b0316888a6040516020016108a7929190612e69565b60408051601f19818403018152908290526108c191612ea0565b6000604051808303816000865af19150503d80600081146108fe576040519150601f19603f3d011682016040523d82523d6000602084013e610903565b606091505b5091509150816109555760405162461bcd60e51b815260206004820152601c60248201527f46756e6374696f6e2063616c6c206e6f74207375636365737366756c000000006044820152606401610814565b98975050505050505050565b6000818152610103602052604081208054606092919061098090612dfa565b80601f01602080910402602001604051908101604052809291908181526020018280546109ac90612dfa565b80156109f95780601f106109ce576101008083540402835291602001916109f9565b820191906000526020600020905b8154815290600101906020018083116109dc57829003601f168201915b505050505090508051600014610a0f5792915050565b6101028054610a1d90612dfa565b80601f0160208091040260200160405190810160405280929190818152602001828054610a4990612dfa565b8015610a965780601f10610a6b57610100808354040283529160200191610a96565b820191906000526020600020905b815481529060010190602001808311610a7957829003601f168201915b5050505050915050919050565b610ab3610aae6112f1565b611300565b610acf5760405162461bcd60e51b815260040161081490612ebc565b610102610adc8282612f50565b5050565b8151835114610b575760405162461bcd60e51b815260206004820152603a60248201527f4173736574436f6e7472616374237361666542617463685472616e736665724660448201527f726f6d3a20494e56414c49445f4152524159535f4c454e4754480000000000006064820152608401610814565b60005b8351811015610bb457610ba28686868481518110610b7a57610b7a61300f565b6020026020010151868581518110610b9457610b9461300f565b602002602001015186610f00565b80610bac81613025565b915050610b5a565b505050505050565b610bc7610aae6112f1565b610be35760405162461bcd60e51b815260040161081490612ebc565b60008281526101046020526040902054829060ff1615610c155760405162461bcd60e51b81526004016108149061303e565b610c1f838361132e565b505050565b610c2f610aae6112f1565b610c4b5760405162461bcd60e51b815260040161081490612ebc565b610c536113f5565b565b60608151835114610cba5760405162461bcd60e51b815260206004820152602960248201527f455243313135353a206163636f756e747320616e6420696473206c656e677468604482015268040dad2e6dac2e8c6d60bb1b6064820152608401610814565b600083516001600160401b03811115610cd557610cd5612743565b604051908082528060200260200182016040528015610cfe578160200160208202803683370190505b50905060005b8451811015610d7657610d49858281518110610d2257610d2261300f565b6020026020010151858381518110610d3c57610d3c61300f565b6020026020010151610666565b828281518110610d5b57610d5b61300f565b6020908102919091010152610d6f81613025565b9050610d04565b509392505050565b610d8661144d565b610c5360006114c6565b610d9b610aae6112f1565b610db75760405162461bcd60e51b815260040161081490612ebc565b610dc384848484611518565b50505050565b610dd4610aae6112f1565b610df05760405162461bcd60e51b815260040161081490612ebc565b610c53611538565b610e03610aae6112f1565b610e1f5760405162461bcd60e51b815260040161081490612ebc565b60008281526101046020526040902054829060ff1615610e515760405162461bcd60e51b81526004016108149061303e565b610c1f8383611576565b60fe805461070390612dfa565b610adc610e736112f1565b83836115c0565b610e85610aae6112f1565b610ea15760405162461bcd60e51b815260040161081490612ebc565b610dc3848484846116a0565b610101546000906001600160a01b0390811690831603610ecf575060016106a0565b6001600160a01b0380841660009081526066602090815260408083209386168352929052205460ff165b9392505050565b6000610f0c8685611147565b905082811015610f4357610f2b8585610f25848761309b565b85610d90565b8015610f3e57610f3e86868684866116fe565b610bb4565b610bb486868686866116fe565b610f5861144d565b6001600160a01b038116610fbd5760405162461bcd60e51b815260206004820152602660248201527f4f776e61626c653a206e6577206f776e657220697320746865207a65726f206160448201526564647265737360d01b6064820152608401610814565b610fc6816114c6565b50565b828282610fd7838383611911565b6110555760405162461bcd60e51b815260206004820152604360248201527f4173736574436f6e7472616374236f6e6c79546f6b656e416d6f756e744f776e60448201527f65643a204f4e4c595f544f4b454e5f414d4f554e545f4f574e45445f414c4c4f60648201526215d15160ea1b608482015260a401610814565b610bb4868686611928565b60005b825181101561112d576110a9848483815181106110825761108261300f565b602002602001015184848151811061109c5761109c61300f565b6020026020010151611911565b61111b5760405162461bcd60e51b815260206004820152603860248201527f4173736574436f6e74726163742362617463684275726e3a204f4e4c595f544f60448201527f4b454e5f414d4f554e545f4f574e45445f414c4c4f57454400000000000000006064820152608401610814565b8061112581613025565b915050611063565b50610c1f83838361197e565b610102805461070390612dfa565b60006001600160a01b0383166111b35760405162461bcd60e51b815260206004820152602b60248201527f455243313135353a2062616c616e636520717565727920666f7220746865207a60448201526a65726f206164647265737360a81b6064820152608401610814565b50600090815260ff602090815260408083206001600160a01b03949094168352929052205490565b6000610ef982611300565b600081815261010060205260408120546106a090600161309b565b60006001600160a01b0386166112675760405162461bcd60e51b815260206004820152602560248201527f4e61746976654d6574615472616e73616374696f6e3a20494e56414c49445f5360448201526424a3a722a960d91b6064820152608401610814565b600161127a611275876119d4565b611a51565b6040805160008152602081018083529290925260ff851690820152606081018690526080810185905260a0016020604051602081039080840390855afa1580156112c8573d6000803e3d6000fd5b505050602060405103516001600160a01b0316866001600160a01b031614905095945050505050565b60006112fb611a81565b905090565b6000816001600160a01b031661131e6099546001600160a01b031690565b6001600160a01b03161492915050565b60008151116113955760405162461bcd60e51b815260206004820152602d60248201527f4173736574436f6e7472616374237365745065726d616e656e745552493a204f60448201526c4e4c595f56414c49445f55524960981b6064820152608401610814565b600082815261010460205260409020805460ff191660011790556113b98282611576565b817fa109ba539900bf1b633f956d63c96fc89b814c7287f7aa50a9216d0b55657207826040516113e99190612730565b60405180910390a25050565b6113fd611add565b60cb805460ff191690557f5db9ee0a495bf2e6ff9c91a7834c1ba4fdd244a5e8aa4e537bd38aeae4b073aa6114306112f1565b6040516001600160a01b03909116815260200160405180910390a1565b6114556112f1565b6001600160a01b03166114706099546001600160a01b031690565b6001600160a01b031614610c535760405162461bcd60e51b815260206004820181905260248201527f4f776e61626c653a2063616c6c6572206973206e6f7420746865206f776e65726044820152606401610814565b609980546001600160a01b038381166001600160a01b0319831681179093556040519116919082907f8be0079c531659141344cd1fd0a4f28419497f9722a3daafe3b4186f6b6457e090600090a35050565b61152484848484611b26565b600181511115610dc357610dc38382610df8565b611540611c34565b60cb805460ff191660011790557f62e78cea01bee320cd4e420270b5ea74000d11b0c9f74754ebdbfc544b05a2586114306112f1565b60008281526101036020526040902061158f8282612f50565b50817f6bb7ff708619ba0610cba295a58592e0451dee2622938c8755667688daf3529b826040516113e99190612730565b816001600160a01b0316836001600160a01b0316036116335760405162461bcd60e51b815260206004820152602960248201527f455243313135353a2073657474696e6720617070726f76616c20737461747573604482015268103337b91039b2b63360b91b6064820152608401610814565b6001600160a01b03838116600081815260666020908152604080832094871680845294825291829020805460ff191686151590811790915591519182527f17307eab39ab6107e8899845ad3d59bd9653f200f220920489ca2b5937696c31910160405180910390a3505050565b6116ac84848484611c7a565b600181511115610dc35760005b83518110156116f7576116e58482815181106116d7576116d761300f565b602002602001015183610df8565b806116ef81613025565b9150506116b9565b5050505050565b611706611c34565b8461170f6112f1565b6001600160a01b0316816001600160a01b031614806117355750611735816105cc6112f1565b6117515760405162461bcd60e51b8152600401610814906130ae565b6001600160a01b0385166117b55760405162461bcd60e51b815260206004820152602560248201527f455243313135353a207472616e7366657220746f20746865207a65726f206164604482015264647265737360d81b6064820152608401610814565b60006117bf6112f1565b90506117d98188886117d089611ede565b6116f789611ede565b600085815260ff602090815260408083206001600160a01b038b1684529091529020548481101561185f5760405162461bcd60e51b815260206004820152602a60248201527f455243313135353a20696e73756666696369656e742062616c616e636520666f60448201526939103a3930b739b332b960b11b6064820152608401610814565b611869858261309b565b600087815260ff602090815260408083206001600160a01b038d811685529252808320939093558916815290812080548792906118a7908490612de7565b909155505060408051878152602081018790526001600160a01b03808a16928b821692918616917fc3d58168c5ae7397731d063d5bbf3d657854427343f4c083240f7aacaa2d0f62910160405180910390a4611907828989898989611f29565b5050505050505050565b60008161191e8585610666565b1015949350505050565b826119316112f1565b6001600160a01b0316816001600160a01b031614806119575750611957816105cc6112f1565b6119735760405162461bcd60e51b8152600401610814906130ae565b610dc3848484612084565b826119876112f1565b6001600160a01b0316816001600160a01b031614806119ad57506119ad816105cc6112f1565b6119c95760405162461bcd60e51b8152600401610814906130ae565b610dc38484846122ab565b60006040518060800160405280604381526020016132c46043913980516020918201208351848301516040808701518051908601209051611a34950193845260208401929092526001600160a01b03166040830152606082015260800190565b604051602081830303815290604052805190602001209050919050565b6000611a5c60975490565b60405161190160f01b6020820152602281019190915260428101839052606201611a34565b6000303303611ad757600080368080601f0160208091040260200160405190810160405280939291908181526020018383808284376000920191909152505050503601516001600160a01b03169150611ada9050565b50335b90565b60cb5460ff16610c535760405162461bcd60e51b815260206004820152601460248201527314185d5cd8589b194e881b9bdd081c185d5cd95960621b6044820152606401610814565b611b2e611c34565b6000611b386112f1565b9050611b5381600087611b4a88611ede565b6116f788611ede565b611b5d848461251a565b600084815260ff602090815260408083206001600160a01b038916845290915281208054859290611b8f908490612de7565b90915550506000848152610100602052604081208054859290611bb3908490612de7565b9091555060009050611bc485612598565b9050856001600160a01b0316816001600160a01b0316836001600160a01b03167fc3d58168c5ae7397731d063d5bbf3d657854427343f4c083240f7aacaa2d0f628888604051611c1e929190918252602082015260400190565b60405180910390a4610bb4828288888888611f29565b60cb5460ff1615610c535760405162461bcd60e51b815260206004820152601060248201526f14185d5cd8589b194e881c185d5cd95960821b6044820152606401610814565b611c82611c34565b8151835114611cec5760405162461bcd60e51b815260206004820152603060248201527f455243313135355472616461626c652362617463684d696e743a20494e56414c60448201526f09288be82a4a482b2a6be988a9c8ea8960831b6064820152608401610814565b82516000611d0f858284611d0257611d0261300f565b6020026020010151612598565b90506000611d1b6112f1565b905060005b83811015611e6f576000878281518110611d3c57611d3c61300f565b602002602001015190506000878381518110611d5a57611d5a61300f565b60200260200101519050611d6e828261251a565b846001600160a01b0316611d8183612598565b6001600160a01b031614611dfd5760405162461bcd60e51b815260206004820152603760248201527f455243313135355472616461626c652362617463684d696e743a204d554c544960448201527f504c455f4f524947494e535f4e4f545f414c4c4f5745440000000000000000006064820152608401610814565b600082815260ff602090815260408083206001600160a01b038e16845290915281208054839290611e2f908490612de7565b90915550506000828152610100602052604081208054839290611e53908490612de7565b9250508190555050508080611e6790613025565b915050611d20565b50866001600160a01b0316826001600160a01b0316826001600160a01b03167f4a39dc06d4c0dbc64b70af90fd698a233a518aa5d07e595d983b8c0526c8f7fb8989604051611ebf9291906130fe565b60405180910390a4611ed58183898989896125ac565b50505050505050565b60408051600180825281830190925260609160009190602080830190803683370190505090508281600081518110611f1857611f1861300f565b602090810291909101015292915050565b6001600160a01b0384163b15610bb45760405163f23a6e6160e01b81526001600160a01b0385169063f23a6e6190611f6d9089908990889088908890600401613123565b6020604051808303816000875af1925050508015611fa8575060408051601f3d908101601f19168201909252611fa591810190613168565b60015b61205457611fb4613185565b806308c379a003611fed5750611fc86131a0565b80611fd35750611fef565b8060405162461bcd60e51b81526004016108149190612730565b505b60405162461bcd60e51b815260206004820152603460248201527f455243313135353a207472616e7366657220746f206e6f6e20455243313135356044820152732932b1b2b4bb32b91034b6b83632b6b2b73a32b960611b6064820152608401610814565b6001600160e01b0319811663f23a6e6160e01b14611ed55760405162461bcd60e51b815260040161081490613229565b61208c611c34565b6001600160a01b0383166120f05760405162461bcd60e51b815260206004820152602560248201527f45524331313535235f6275726e3a204255524e5f46524f4d5f5a45524f5f4144604482015264445245535360d81b6064820152608401610814565b6000811161214c5760405162461bcd60e51b815260206004820152602360248201527f45524331313535235f6275726e3a20414d4f554e545f4c4553535f5448414e5f6044820152624f4e4560e81b6064820152608401610814565b60006121566112f1565b90506121878185600061216887611ede565b61217187611ede565b5050604080516020810190915260009052505050565b600083815260ff602090815260408083206001600160a01b0388168452909152902054828110156122085760405162461bcd60e51b815260206004820152602560248201527f45524331313535235f6275726e3a20414d4f554e545f455843454544535f42416044820152644c414e434560d81b6064820152608401610814565b612212838261309b565b600085815260ff602090815260408083206001600160a01b038a1684528252808320939093558682526101009052908120805485929061225390849061309b565b909155505060408051858152602081018590526000916001600160a01b0388811692908616917fc3d58168c5ae7397731d063d5bbf3d657854427343f4c083240f7aacaa2d0f62910160405180910390a45050505050565b6122b3611c34565b6001600160a01b0383166123095760405162461bcd60e51b815260206004820152601f60248201527f455243313135353a204255524e5f46524f4d5f5a45524f5f41444452455353006044820152606401610814565b80518251146123665760405162461bcd60e51b8152602060048201526024808201527f455243313135353a204944535f414d4f554e54535f4c454e4754485f4d49534d604482015263082a886960e31b6064820152608401610814565b60006123706112f1565b604080516020810190915260009052905060005b83518110156124bb5760008482815181106123a1576123a161300f565b6020026020010151905060008483815181106123bf576123bf61300f565b602090810291909101810151600084815260ff835260408082206001600160a01b038c1683529093529190912054909150818110156124535760405162461bcd60e51b815260206004820152602a60248201527f45524331313535235f6275726e42617463683a20414d4f554e545f455843454560448201526944535f42414c414e434560b01b6064820152608401610814565b61245d828261309b565b600084815260ff602090815260408083206001600160a01b038d1684528252808320939093558582526101009052908120805484929061249e90849061309b565b9250508190555050505080806124b390613025565b915050612384565b5060006001600160a01b0316846001600160a01b0316826001600160a01b03167f4a39dc06d4c0dbc64b70af90fd698a233a518aa5d07e595d983b8c0526c8f7fb868660405161250c9291906130fe565b60405180910390a450505050565b612523826111e6565b811115610adc5760405162461bcd60e51b815260206004820152603c60248201527f4173736574436f6e7472616374235f6265666f72654d696e743a205155414e5460448201527f4954595f455843454544535f544f4b454e5f535550504c595f434150000000006064820152608401610814565b60006106a06099546001600160a01b031690565b6001600160a01b0384163b15610bb45760405163bc197c8160e01b81526001600160a01b0385169063bc197c81906125f09089908990889088908890600401613271565b6020604051808303816000875af192505050801561262b575060408051601f3d908101601f1916820190925261262891810190613168565b60015b61263757611fb4613185565b6001600160e01b0319811663bc197c8160e01b14611ed55760405162461bcd60e51b815260040161081490613229565b80356001600160a01b038116811461267e57600080fd5b919050565b6000806040838503121561269657600080fd5b61269f83612667565b946020939093013593505050565b6001600160e01b031981168114610fc657600080fd5b6000602082840312156126d557600080fd5b8135610ef9816126ad565b60005b838110156126fb5781810151838201526020016126e3565b50506000910152565b6000815180845261271c8160208601602086016126e0565b601f01601f19169290920160200192915050565b602081526000610ef96020830184612704565b634e487b7160e01b600052604160045260246000fd5b601f8201601f191681016001600160401b038111828210171561277e5761277e612743565b6040525050565b600082601f83011261279657600080fd5b81356001600160401b038111156127af576127af612743565b6040516127c6601f8301601f191660200182612759565b8181528460208386010111156127db57600080fd5b816020850160208301376000918101602001919091529392505050565b600080600080600060a0868803121561281057600080fd5b61281986612667565b945060208601356001600160401b0381111561283457600080fd5b61284088828901612785565b9450506040860135925060608601359150608086013560ff8116811461286557600080fd5b809150509295509295909350565b60006020828403121561288557600080fd5b5035919050565b60006020828403121561289e57600080fd5b81356001600160401b038111156128b457600080fd5b61069c84828501612785565b6000602082840312156128d257600080fd5b610ef982612667565b60006001600160401b038211156128f4576128f4612743565b5060051b60200190565b600082601f83011261290f57600080fd5b8135602061291c826128db565b6040516129298282612759565b83815260059390931b850182019282810191508684111561294957600080fd5b8286015b84811015612964578035835291830191830161294d565b509695505050505050565b600080600080600060a0868803121561298757600080fd5b61299086612667565b945061299e60208701612667565b935060408601356001600160401b03808211156129ba57600080fd5b6129c689838a016128fe565b945060608801359150808211156129dc57600080fd5b6129e889838a016128fe565b935060808801359150808211156129fe57600080fd5b50612a0b88828901612785565b9150509295509295909350565b60008060408385031215612a2b57600080fd5b8235915060208301356001600160401b03811115612a4857600080fd5b612a5485828601612785565b9150509250929050565b60008060408385031215612a7157600080fd5b82356001600160401b0380821115612a8857600080fd5b818501915085601f830112612a9c57600080fd5b81356020612aa9826128db565b604051612ab68282612759565b83815260059390931b8501820192828101915089841115612ad657600080fd5b948201945b83861015612afb57612aec86612667565b82529482019490820190612adb565b96505086013592505080821115612b1157600080fd5b50612a54858286016128fe565b600081518084526020808501945080840160005b83811015612b4e57815187529582019590820190600101612b32565b509495945050505050565b602081526000610ef96020830184612b1e565b60008060008060808587031215612b8257600080fd5b612b8b85612667565b9350602085013592506040850135915060608501356001600160401b03811115612bb457600080fd5b612bc087828801612785565b91505092959194509250565b60008060408385031215612bdf57600080fd5b612be883612667565b915060208301358015158114612bfd57600080fd5b809150509250929050565b60008060008060808587031215612c1e57600080fd5b612c2785612667565b935060208501356001600160401b0380821115612c4357600080fd5b612c4f888389016128fe565b94506040870135915080821115612c6557600080fd5b612c71888389016128fe565b93506060870135915080821115612c8757600080fd5b50612bc087828801612785565b60008060408385031215612ca757600080fd5b612cb083612667565b9150612cbe60208401612667565b90509250929050565b600080600080600060a08688031215612cdf57600080fd5b612ce886612667565b9450612cf660208701612667565b9350604086013592506060860135915060808601356001600160401b03811115612d1f57600080fd5b612a0b88828901612785565b600080600060608486031215612d4057600080fd5b612d4984612667565b95602085013595506040909401359392505050565b600080600060608486031215612d7357600080fd5b612d7c84612667565b925060208401356001600160401b0380821115612d9857600080fd5b612da4878388016128fe565b93506040860135915080821115612dba57600080fd5b50612dc7868287016128fe565b9150509250925092565b634e487b7160e01b600052601160045260246000fd5b808201808211156106a0576106a0612dd1565b600181811c90821680612e0e57607f821691505b602082108103612e2e57634e487b7160e01b600052602260045260246000fd5b50919050565b6001600160a01b03848116825283166020820152606060408201819052600090612e6090830184612704565b95945050505050565b60008351612e7b8184602088016126e0565b60609390931b6bffffffffffffffffffffffff19169190920190815260140192915050565b60008251612eb28184602087016126e0565b9190910192915050565b6020808252602e908201527f455243313135355472616461626c65236f6e6c794f776e65723a2043414c4c4560408201526d292fa4a9afa727aa2fa7aba722a960911b606082015260800190565b601f821115610c1f57600081815260208120601f850160051c81016020861015612f315750805b601f850160051c820191505b81811015610bb457828155600101612f3d565b81516001600160401b03811115612f6957612f69612743565b612f7d81612f778454612dfa565b84612f0a565b602080601f831160018114612fb25760008415612f9a5750858301515b600019600386901b1c1916600185901b178555610bb4565b600085815260208120601f198616915b82811015612fe157888601518255948401946001909101908401612fc2565b5085821015612fff5787850151600019600388901b60f8161c191681555b5050505050600190811b01905550565b634e487b7160e01b600052603260045260246000fd5b60006001820161303757613037612dd1565b5060010190565b60208082526037908201527f4173736574436f6e7472616374236f6e6c79496d7065726d616e656e7455524960408201527f3a205552495f43414e4e4f545f42455f4348414e474544000000000000000000606082015260800190565b818103818111156106a0576106a0612dd1565b60208082526030908201527f455243313135355472616461626c65236f6e6c79417070726f7665643a20434160408201526f1313115497d393d517d0531313d5d15160821b606082015260800190565b6040815260006131116040830185612b1e565b8281036020840152612e608185612b1e565b6001600160a01b03868116825285166020820152604081018490526060810183905260a06080820181905260009061315d90830184612704565b979650505050505050565b60006020828403121561317a57600080fd5b8151610ef9816126ad565b600060033d1115611ada5760046000803e5060005160e01c90565b600060443d10156131ae5790565b6040516003193d81016004833e81513d6001600160401b0381602484011181841117156131dd57505050505090565b82850191508151818111156131f55750505050505090565b843d870101602082850101111561320f5750505050505090565b61321e60208286010187612759565b509095945050505050565b60208082526028908201527f455243313135353a204552433131353552656365697665722072656a656374656040820152676420746f6b656e7360c01b606082015260800190565b6001600160a01b0386811682528516602082015260a06040820181905260009061329d90830186612b1e565b82810360608401526132af8186612b1e565b90508281036080840152610955818561270456fe4d6574615472616e73616374696f6e2875696e74323536206e6f6e63652c616464726573732066726f6d2c62797465732066756e6374696f6e5369676e617475726529a2646970667358221220b8bedc4bfc6dfe547a0f8d528681edbf94523559f60aee1266702006f3d6ea9764736f6c63430008110033",
  "linkReferences": {},
  "deployedLinkReferences": {}
}