{
  "_format": "hh-sol-artifact-1",
  "contractName": "AssetContract",
  "sourceName": "contracts/AssetContract.sol",
  "abi": [
    {
      "inputs": [
        {
          "internalType": "string",
          "name": "_name",
          "type": "string"
        },
        {
          "internalType": "string",
          "name": "_symbol",
          "type": "string"
        },
        {
          "internalType": "string",
          "name": "_templateURI",
          "type": "string"
        },
        {
          "internalType": "address",
          "name": "_proxyRegistryAddress",
          "type": "address"
        }
      ],
      "stateMutability": "nonpayable",
      "type": "constructor"
    },
    {
      "anonymous": false,
      "inputs": [
        {
          "indexed": true,
          "internalType": "address",
          "name": "account",
          "type": "address"
        },
        {
          "indexed": true,
          "internalType": "address",
          "name": "operator",
          "type": "address"
        },
        {
          "indexed": false,
          "internalType": "bool",
          "name": "approved",
          "type": "bool"
        }
      ],
      "name": "ApprovalForAll",
      "type": "event"
    },
    {
      "anonymous": false,
      "inputs": [
        {
          "indexed": false,
          "internalType": "address",
          "name": "userAddress",
          "type": "address"
        },
        {
          "indexed": false,
          "internalType": "address payable",
          "name": "relayerAddress",
          "type": "address"
        },
        {
          "indexed": false,
          "internalType": "bytes",
          "name": "functionSignature",
          "type": "bytes"
        }
      ],
      "name": "MetaTransactionExecuted",
      "type": "event"
    },
    {
      "anonymous": false,
      "inputs": [
        {
          "indexed": true,
          "internalType": "address",
          "name": "previousOwner",
          "type": "address"
        },
        {
          "indexed": true,
          "internalType": "address",
          "name": "newOwner",
          "type": "address"
        }
      ],
      "name": "OwnershipTransferred",
      "type": "event"
    },
    {
      "anonymous": false,
      "inputs": [
        {
          "indexed": false,
          "internalType": "address",
          "name": "account",
          "type": "address"
        }
      ],
      "name": "Paused",
      "type": "event"
    },
    {
      "anonymous": false,
      "inputs": [
        {
          "indexed": false,
          "internalType": "string",
          "name": "_value",
          "type": "string"
        },
        {
          "indexed": true,
          "internalType": "uint256",
          "name": "_id",
          "type": "uint256"
        }
      ],
      "name": "PermanentURI",
      "type": "event"
    },
    {
      "anonymous": false,
      "inputs": [
        {
          "indexed": true,
          "internalType": "address",
          "name": "operator",
          "type": "address"
        },
        {
          "indexed": true,
          "internalType": "address",
          "name": "from",
          "type": "address"
        },
        {
          "indexed": true,
          "internalType": "address",
          "name": "to",
          "type": "address"
        },
        {
          "indexed": false,
          "internalType": "uint256[]",
          "name": "ids",
          "type": "uint256[]"
        },
        {
          "indexed": false,
          "internalType": "uint256[]",
          "name": "values",
          "type": "uint256[]"
        }
      ],
      "name": "TransferBatch",
      "type": "event"
    },
    {
      "anonymous": false,
      "inputs": [
        {
          "indexed": true,
          "internalType": "address",
          "name": "operator",
          "type": "address"
        },
        {
          "indexed": true,
          "internalType": "address",
          "name": "from",
          "type": "address"
        },
        {
          "indexed": true,
          "internalType": "address",
          "name": "to",
          "type": "address"
        },
        {
          "indexed": false,
          "internalType": "uint256",
          "name": "id",
          "type": "uint256"
        },
        {
          "indexed": false,
          "internalType": "uint256",
          "name": "value",
          "type": "uint256"
        }
      ],
      "name": "TransferSingle",
      "type": "event"
    },
    {
      "anonymous": false,
      "inputs": [
        {
          "indexed": false,
          "internalType": "string",
          "name": "value",
          "type": "string"
        },
        {
          "indexed": true,
          "internalType": "uint256",
          "name": "id",
          "type": "uint256"
        }
      ],
      "name": "URI",
      "type": "event"
    },
    {
      "anonymous": false,
      "inputs": [
        {
          "indexed": false,
          "internalType": "address",
          "name": "account",
          "type": "address"
        }
      ],
      "name": "Unpaused",
      "type": "event"
    },
    {
      "inputs": [],
      "name": "ERC712_VERSION",
      "outputs": [
        {
          "internalType": "string",
          "name": "",
          "type": "string"
        }
      ],
      "stateMutability": "view",
      "type": "function"
    },
    {
      "inputs": [
        {
          "internalType": "address",
          "name": "_owner",
          "type": "address"
        },
        {
          "internalType": "uint256",
          "name": "_id",
          "type": "uint256"
        }
      ],
      "name": "balanceOf",
      "outputs": [
        {
          "internalType": "uint256",
          "name": "",
          "type": "uint256"
        }
      ],
      "stateMutability": "view",
      "type": "function"
    },
    {
      "inputs": [
        {
          "internalType": "address[]",
          "name": "accounts",
          "type": "address[]"
        },
        {
          "internalType": "uint256[]",
          "name": "ids",
          "type": "uint256[]"
        }
      ],
      "name": "balanceOfBatch",
      "outputs": [
        {
          "internalType": "uint256[]",
          "name": "",
          "type": "uint256[]"
        }
      ],
      "stateMutability": "view",
      "type": "function"
    },
    {
      "inputs": [
        {
          "internalType": "address",
          "name": "_from",
          "type": "address"
        },
        {
          "internalType": "uint256[]",
          "name": "_ids",
          "type": "uint256[]"
        },
        {
          "internalType": "uint256[]",
          "name": "_quantities",
          "type": "uint256[]"
        }
      ],
      "name": "batchBurn",
      "outputs": [],
      "stateMutability": "nonpayable",
      "type": "function"
    },
    {
      "inputs": [
        {
          "internalType": "address",
          "name": "_to",
          "type": "address"
        },
        {
          "internalType": "uint256[]",
          "name": "_ids",
          "type": "uint256[]"
        },
        {
          "internalType": "uint256[]",
          "name": "_quantities",
          "type": "uint256[]"
        },
        {
          "internalType": "bytes",
          "name": "_data",
          "type": "bytes"
        }
      ],
      "name": "batchMint",
      "outputs": [],
      "stateMutability": "nonpayable",
      "type": "function"
    },
    {
      "inputs": [
        {
          "internalType": "address",
          "name": "_from",
          "type": "address"
        },
        {
          "internalType": "uint256",
          "name": "_id",
          "type": "uint256"
        },
        {
          "internalType": "uint256",
          "name": "_quantity",
          "type": "uint256"
        }
      ],
      "name": "burn",
      "outputs": [],
      "stateMutability": "nonpayable",
      "type": "function"
    },
    {
      "inputs": [
        {
          "internalType": "address",
          "name": "userAddress",
          "type": "address"
        },
        {
          "internalType": "bytes",
          "name": "functionSignature",
          "type": "bytes"
        },
        {
          "internalType": "bytes32",
          "name": "sigR",
          "type": "bytes32"
        },
        {
          "internalType": "bytes32",
          "name": "sigS",
          "type": "bytes32"
        },
        {
          "internalType": "uint8",
          "name": "sigV",
          "type": "uint8"
        }
      ],
      "name": "executeMetaTransaction",
      "outputs": [
        {
          "internalType": "bytes",
          "name": "",
          "type": "bytes"
        }
      ],
      "stateMutability": "payable",
      "type": "function"
    },
    {
      "inputs": [
        {
          "internalType": "uint256",
          "name": "_id",
          "type": "uint256"
        }
      ],
      "name": "exists",
      "outputs": [
        {
          "internalType": "bool",
          "name": "",
          "type": "bool"
        }
      ],
      "stateMutability": "view",
      "type": "function"
    },
    {
      "inputs": [],
      "name": "getChainId",
      "outputs": [
        {
          "internalType": "uint256",
          "name": "",
          "type": "uint256"
        }
      ],
      "stateMutability": "view",
      "type": "function"
    },
    {
      "inputs": [],
      "name": "getDomainSeperator",
      "outputs": [
        {
          "internalType": "bytes32",
          "name": "",
          "type": "bytes32"
        }
      ],
      "stateMutability": "view",
      "type": "function"
    },
    {
      "inputs": [
        {
          "internalType": "address",
          "name": "user",
          "type": "address"
        }
      ],
      "name": "getNonce",
      "outputs": [
        {
          "internalType": "uint256",
          "name": "nonce",
          "type": "uint256"
        }
      ],
      "stateMutability": "view",
      "type": "function"
    },
    {
      "inputs": [
        {
          "internalType": "address",
          "name": "_owner",
          "type": "address"
        },
        {
          "internalType": "address",
          "name": "_operator",
          "type": "address"
        }
      ],
      "name": "isApprovedForAll",
      "outputs": [
        {
          "internalType": "bool",
          "name": "isOperator",
          "type": "bool"
        }
      ],
      "stateMutability": "view",
      "type": "function"
    },
    {
      "inputs": [
        {
          "internalType": "uint256",
          "name": "_id",
          "type": "uint256"
        }
      ],
      "name": "isPermanentURI",
      "outputs": [
        {
          "internalType": "bool",
          "name": "",
          "type": "bool"
        }
      ],
      "stateMutability": "view",
      "type": "function"
    },
    {
      "inputs": [
        {
          "internalType": "address",
          "name": "_to",
          "type": "address"
        },
        {
          "internalType": "uint256",
          "name": "_id",
          "type": "uint256"
        },
        {
          "internalType": "uint256",
          "name": "_quantity",
          "type": "uint256"
        },
        {
          "internalType": "bytes",
          "name": "_data",
          "type": "bytes"
        }
      ],
      "name": "mint",
      "outputs": [],
      "stateMutability": "nonpayable",
      "type": "function"
    },
    {
      "inputs": [],
      "name": "name",
      "outputs": [
        {
          "internalType": "string",
          "name": "",
          "type": "string"
        }
      ],
      "stateMutability": "view",
      "type": "function"
    },
    {
      "inputs": [],
      "name": "owner",
      "outputs": [
        {
          "internalType": "address",
          "name": "",
          "type": "address"
        }
      ],
      "stateMutability": "view",
      "type": "function"
    },
    {
      "inputs": [],
      "name": "pause",
      "outputs": [],
      "stateMutability": "nonpayable",
      "type": "function"
    },
    {
      "inputs": [],
      "name": "paused",
      "outputs": [
        {
          "internalType": "bool",
          "name": "",
          "type": "bool"
        }
      ],
      "stateMutability": "view",
      "type": "function"
    },
    {
      "inputs": [],
      "name": "proxyRegistryAddress",
      "outputs": [
        {
          "internalType": "address",
          "name": "",
          "type": "address"
        }
      ],
      "stateMutability": "view",
      "type": "function"
    },
    {
      "inputs": [],
      "name": "renounceOwnership",
      "outputs": [],
      "stateMutability": "nonpayable",
      "type": "function"
    },
    {
      "inputs": [
        {
          "internalType": "address",
          "name": "_from",
          "type": "address"
        },
        {
          "internalType": "address",
          "name": "_to",
          "type": "address"
        },
        {
          "internalType": "uint256[]",
          "name": "_ids",
          "type": "uint256[]"
        },
        {
          "internalType": "uint256[]",
          "name": "_amounts",
          "type": "uint256[]"
        },
        {
          "internalType": "bytes",
          "name": "_data",
          "type": "bytes"
        }
      ],
      "name": "safeBatchTransferFrom",
      "outputs": [],
      "stateMutability": "nonpayable",
      "type": "function"
    },
    {
      "inputs": [
        {
          "internalType": "address",
          "name": "_from",
          "type": "address"
        },
        {
          "internalType": "address",
          "name": "_to",
          "type": "address"
        },
        {
          "internalType": "uint256",
          "name": "_id",
          "type": "uint256"
        },
        {
          "internalType": "uint256",
          "name": "_amount",
          "type": "uint256"
        },
        {
          "internalType": "bytes",
          "name": "_data",
          "type": "bytes"
        }
      ],
      "name": "safeTransferFrom",
      "outputs": [],
      "stateMutability": "nonpayable",
      "type": "function"
    },
    {
      "inputs": [
        {
          "internalType": "address",
          "name": "operator",
          "type": "address"
        },
        {
          "internalType": "bool",
          "name": "approved",
          "type": "bool"
        }
      ],
      "name": "setApprovalForAll",
      "outputs": [],
      "stateMutability": "nonpayable",
      "type": "function"
    },
    {
      "inputs": [
        {
          "internalType": "uint256",
          "name": "_id",
          "type": "uint256"
        },
        {
          "internalType": "string",
          "name": "_uri",
          "type": "string"
        }
      ],
      "name": "setPermanentURI",
      "outputs": [],
      "stateMutability": "nonpayable",
      "type": "function"
    },
    {
      "inputs": [
        {
          "internalType": "string",
          "name": "_uri",
          "type": "string"
        }
      ],
      "name": "setTemplateURI",
      "outputs": [],
      "stateMutability": "nonpayable",
      "type": "function"
    },
    {
      "inputs": [
        {
          "internalType": "uint256",
          "name": "_id",
          "type": "uint256"
        },
        {
          "internalType": "string",
          "name": "_uri",
          "type": "string"
        }
      ],
      "name": "setURI",
      "outputs": [],
      "stateMutability": "nonpayable",
      "type": "function"
    },
    {
      "inputs": [],
      "name": "supportsFactoryInterface",
      "outputs": [
        {
          "internalType": "bool",
          "name": "",
          "type": "bool"
        }
      ],
      "stateMutability": "pure",
      "type": "function"
    },
    {
      "inputs": [
        {
          "internalType": "bytes4",
          "name": "interfaceId",
          "type": "bytes4"
        }
      ],
      "name": "supportsInterface",
      "outputs": [
        {
          "internalType": "bool",
          "name": "",
          "type": "bool"
        }
      ],
      "stateMutability": "view",
      "type": "function"
    },
    {
      "inputs": [],
      "name": "symbol",
      "outputs": [
        {
          "internalType": "string",
          "name": "",
          "type": "string"
        }
      ],
      "stateMutability": "view",
      "type": "function"
    },
    {
      "inputs": [],
      "name": "templateURI",
      "outputs": [
        {
          "internalType": "string",
          "name": "",
          "type": "string"
        }
      ],
      "stateMutability": "view",
      "type": "function"
    },
    {
      "inputs": [
        {
          "internalType": "uint256",
          "name": "_id",
          "type": "uint256"
        }
      ],
      "name": "totalSupply",
      "outputs": [
        {
          "internalType": "uint256",
          "name": "",
          "type": "uint256"
        }
      ],
      "stateMutability": "view",
      "type": "function"
    },
    {
      "inputs": [
        {
          "internalType": "address",
          "name": "newOwner",
          "type": "address"
        }
      ],
      "name": "transferOwnership",
      "outputs": [],
      "stateMutability": "nonpayable",
      "type": "function"
    },
    {
      "inputs": [],
      "name": "unpause",
      "outputs": [],
      "stateMutability": "nonpayable",
      "type": "function"
    },
    {
      "inputs": [
        {
          "internalType": "uint256",
          "name": "_id",
          "type": "uint256"
        }
      ],
      "name": "uri",
      "outputs": [
        {
          "internalType": "string",
          "name": "",
          "type": "string"
        }
      ],
      "stateMutability": "view",
      "type": "function"
    }
  ],
  "bytecode": "0x60806040526003805460ff191690553480156200001b57600080fd5b5060405162003a9338038062003a938339810160408190526200003e91620004de565b8383826040518060200160405280600081525062000062816200017e60201b60201c565b50620000776200007162000190565b620001ac565b6006805460ff60a01b19169055600762000092848262000620565b506008620000a1838262000620565b50600b80546001600160a01b0319166001600160a01b038316179055600780546200015d9190620000d29062000591565b80601f0160208091040260200160405190810160405280929190818152602001828054620001009062000591565b8015620001515780601f10620001255761010080835404028352916020019162000151565b820191906000526020600020905b8154815290600101906020018083116200013357829003601f168201915b5050620001fe92505050565b505082511590506200017457620001748262000263565b50505050620006ec565b60026200018c828262000620565b5050565b6000620001a7620002ea60201b620011431760201c565b905090565b600680546001600160a01b038381166001600160a01b0319831681179093556040519116919082907f8be0079c531659141344cd1fd0a4f28419497f9722a3daafe3b4186f6b6457e090600090a35050565b60035460ff1615620002485760405162461bcd60e51b815260206004820152600e60248201526d185b1c9958591e481a5b9a5d195960921b60448201526064015b60405180910390fd5b620002538162000348565b506003805460ff19166001179055565b620002776200027162000190565b620003ea565b620002dc5760405162461bcd60e51b815260206004820152602e60248201527f455243313135355472616461626c65236f6e6c794f776e65723a2043414c4c4560448201526d292fa4a9afa727aa2fa7aba722a960911b60648201526084016200023f565b600c6200018c828262000620565b60003033036200034257600080368080601f0160208091040260200160405190810160405280939291908181526020018383808284376000920191909152505050503601516001600160a01b03169150620003459050565b50335b90565b6040518060800160405280604f815260200162003a44604f9139805160209182012082519282019290922060408051808201825260018152603160f81b90840152805180840194909452838101919091527fc89efdaa54c0f20c7adf612882df0950f5a951637e0307cdcb4c672f298b8bc660608401523060808401524660a0808501919091528151808503909101815260c090930190528151910120600455565b60006001600160a01b038216620004096006546001600160a01b031690565b6001600160a01b03161492915050565b634e487b7160e01b600052604160045260246000fd5b600082601f8301126200044157600080fd5b81516001600160401b03808211156200045e576200045e62000419565b604051601f8301601f19908116603f0116810190828211818310171562000489576200048962000419565b81604052838152602092508683858801011115620004a657600080fd5b600091505b83821015620004ca5785820183015181830184015290820190620004ab565b600093810190920192909252949350505050565b60008060008060808587031215620004f557600080fd5b84516001600160401b03808211156200050d57600080fd5b6200051b888389016200042f565b955060208701519150808211156200053257600080fd5b62000540888389016200042f565b945060408701519150808211156200055757600080fd5b5062000566878288016200042f565b606087015190935090506001600160a01b03811681146200058657600080fd5b939692955090935050565b600181811c90821680620005a657607f821691505b602082108103620005c757634e487b7160e01b600052602260045260246000fd5b50919050565b601f8211156200061b57600081815260208120601f850160051c81016020861015620005f65750805b601f850160051c820191505b81811015620006175782815560010162000602565b5050505b505050565b81516001600160401b038111156200063c576200063c62000419565b62000654816200064d845462000591565b84620005cd565b602080601f8311600181146200068c5760008415620006735750858301515b600019600386901b1c1916600185901b17855562000617565b600085815260208120601f198616915b82811015620006bd578886015182559484019460019091019084016200069c565b5085821015620006dc5787850151600019600388901b60f8161c191681555b5050505050600190811b01905550565b61334880620006fc6000396000f3fe6080604052600436106101f85760003560e01c8063715018a61161010d578063bd85b039116100a0578063f242432a1161006f578063f242432a146105d4578063f2fde38b146105f4578063f5298aca14610614578063f6eb127a14610634578063f923e8c31461065457600080fd5b8063bd85b03914610553578063c311c52314610580578063cd7c032614610594578063e985e9c5146105b457600080fd5b80638da5cb5b116100dc5780638da5cb5b146104cc57806395d89b41146104fe578063a22cb46514610513578063b48ab8b61461053357600080fd5b8063715018a614610462578063731133e9146104775780638456cb5914610497578063862440e2146104ac57600080fd5b806324d88785116101905780633588ad7c1161015f5780633588ad7c146103b25780633f4ba83a146103d25780634e1273f4146103e75780634f558e79146104145780635c975abb1461044357600080fd5b806324d88785146103275780632d0335ab146103495780632eb2c2d61461037f5780633408e4701461039f57600080fd5b80630e89341c116101cc5780630e89341c146102955780630f7e5970146102b55780631e7d9dbb146102e257806320379ee51461031257600080fd5b8062fdd58e146101fd57806301ffc9a71461023057806306fdde03146102605780630c53c51c14610282575b600080fd5b34801561020957600080fd5b5061021d61021836600461268f565b610669565b6040519081526020015b60405180910390f35b34801561023c57600080fd5b5061025061024b3660046126cf565b6106a9565b6040519015158152602001610227565b34801561026c57600080fd5b506102756106f9565b604051610227919061273c565b610275610290366004612804565b610787565b3480156102a157600080fd5b506102756102b036600461287f565b610964565b3480156102c157600080fd5b50610275604051806040016040528060018152602001603160f81b81525081565b3480156102ee57600080fd5b506102506102fd36600461287f565b6000908152600e602052604090205460ff1690565b34801561031e57600080fd5b5060045461021d565b34801561033357600080fd5b50610347610342366004612898565b610aa4565b005b34801561035557600080fd5b5061021d6103643660046128cc565b6001600160a01b031660009081526005602052604090205490565b34801561038b57600080fd5b5061034761039a36600461297b565b610ae0565b3480156103ab57600080fd5b504661021d565b3480156103be57600080fd5b506103476103cd366004612a24565b610bbc565b3480156103de57600080fd5b50610347610c23565b3480156103f357600080fd5b50610407610402366004612a6a565b610c54565b6040516102279190612b65565b34801561042057600080fd5b5061025061042f36600461287f565b6000908152600a6020526040902054151590565b34801561044f57600080fd5b50600654600160a01b900460ff16610250565b34801561046e57600080fd5b50610347610d7d565b34801561048357600080fd5b50610347610492366004612b78565b610d8f565b3480156104a357600080fd5b50610347610dc8565b3480156104b857600080fd5b506103476104c7366004612a24565b610df7565b3480156104d857600080fd5b506006546001600160a01b03165b6040516001600160a01b039091168152602001610227565b34801561050a57600080fd5b50610275610e59565b34801561051f57600080fd5b5061034761052e366004612bd8565b610e66565b34801561053f57600080fd5b5061034761054e366004612c14565b610e78565b34801561055f57600080fd5b5061021d61056e36600461287f565b6000908152600a602052604090205490565b34801561058c57600080fd5b506001610250565b3480156105a057600080fd5b50600b546104e6906001600160a01b031681565b3480156105c057600080fd5b506102506105cf366004612ca0565b610eab565b3480156105e057600080fd5b506103476105ef366004612cd3565b610efd565b34801561060057600080fd5b5061034761060f3660046128cc565b610f4d565b34801561062057600080fd5b5061034761062f366004612d37565b610fc6565b34801561064057600080fd5b5061034761064f366004612d6a565b61105d565b34801561066057600080fd5b50610275611136565b600080610676848461119f565b90506106828385611233565b61068c578061069f565b6106958361123e565b61069f9082612df3565b9150505b92915050565b60006001600160e01b03198216636cdb3d1360e11b14806106da57506001600160e01b031982166303a24d0760e21b145b806106a357506301ffc9a760e01b6001600160e01b03198316146106a3565b6007805461070690612e06565b80601f016020809104026020016040519081016040528092919081815260200182805461073290612e06565b801561077f5780601f106107545761010080835404028352916020019161077f565b820191906000526020600020905b81548152906001019060200180831161076257829003601f168201915b505050505081565b60408051606081810183526001600160a01b038816600081815260056020908152908590205484528301529181018690526107c58782878787611258565b6108205760405162461bcd60e51b815260206004820152602160248201527f5369676e657220616e64207369676e617475726520646f206e6f74206d6174636044820152600d60fb1b60648201526084015b60405180910390fd5b6001600160a01b0387166000908152600560205260408120805460019290610849908490612df3565b90915550506040517f5845892132946850460bff5a0083f71031bc5bf9aadcd40f1de79423eac9b10b9061088290899033908a90612e40565b60405180910390a1600080306001600160a01b0316888a6040516020016108aa929190612e75565b60408051601f19818403018152908290526108c491612eac565b6000604051808303816000865af19150503d8060008114610901576040519150601f19603f3d011682016040523d82523d6000602084013e610906565b606091505b5091509150816109585760405162461bcd60e51b815260206004820152601c60248201527f46756e6374696f6e2063616c6c206e6f74207375636365737366756c000000006044820152606401610817565b98975050505050505050565b6000818152600d602052604081208054606092919061098290612e06565b80601f01602080910402602001604051908101604052809291908181526020018280546109ae90612e06565b80156109fb5780601f106109d0576101008083540402835291602001916109fb565b820191906000526020600020905b8154815290600101906020018083116109de57829003601f168201915b505050505090508051600014610a115792915050565b600c8054610a1e90612e06565b80601f0160208091040260200160405190810160405280929190818152602001828054610a4a90612e06565b8015610a975780601f10610a6c57610100808354040283529160200191610a97565b820191906000526020600020905b815481529060010190602001808311610a7a57829003601f168201915b5050505050915050919050565b610ab4610aaf611348565b611357565b610ad05760405162461bcd60e51b815260040161081790612ec8565b600c610adc8282612f5c565b5050565b8151835114610b575760405162461bcd60e51b815260206004820152603a60248201527f4173736574436f6e7472616374237361666542617463685472616e736665724660448201527f726f6d3a20494e56414c49445f4152524159535f4c454e4754480000000000006064820152608401610817565b60005b8351811015610bb457610ba28686868481518110610b7a57610b7a61301b565b6020026020010151868581518110610b9457610b9461301b565b602002602001015186610efd565b80610bac81613031565b915050610b5a565b505050505050565b610bc7610aaf611348565b610be35760405162461bcd60e51b815260040161081790612ec8565b6000828152600e6020526040902054829060ff1615610c145760405162461bcd60e51b81526004016108179061304a565b610c1e8383611385565b505050565b610c2e610aaf611348565b610c4a5760405162461bcd60e51b815260040161081790612ec8565b610c5261144b565b565b60608151835114610cb95760405162461bcd60e51b815260206004820152602960248201527f455243313135353a206163636f756e747320616e6420696473206c656e677468604482015268040dad2e6dac2e8c6d60bb1b6064820152608401610817565b600083516001600160401b03811115610cd457610cd461274f565b604051908082528060200260200182016040528015610cfd578160200160208202803683370190505b50905060005b8451811015610d7557610d48858281518110610d2157610d2161301b565b6020026020010151858381518110610d3b57610d3b61301b565b6020026020010151610669565b828281518110610d5a57610d5a61301b565b6020908102919091010152610d6e81613031565b9050610d03565b509392505050565b610d856114a6565b610c52600061151f565b610d9a610aaf611348565b610db65760405162461bcd60e51b815260040161081790612ec8565b610dc284848484611571565b50505050565b610dd3610aaf611348565b610def5760405162461bcd60e51b815260040161081790612ec8565b610c52611591565b610e02610aaf611348565b610e1e5760405162461bcd60e51b815260040161081790612ec8565b6000828152600e6020526040902054829060ff1615610e4f5760405162461bcd60e51b81526004016108179061304a565b610c1e83836115d5565b6008805461070690612e06565b610adc610e71611348565b838361161e565b610e83610aaf611348565b610e9f5760405162461bcd60e51b815260040161081790612ec8565b610dc2848484846116fe565b600b546000906001600160a01b0390811690831603610ecc575060016106a3565b6001600160a01b0380841660009081526001602090815260408083209386168352929052205460ff165b9392505050565b6000610f09868561119f565b905082811015610f4057610f288585610f2284876130a7565b85610d8f565b8015610f3b57610f3b868686848661175c565b610bb4565b610bb4868686868661175c565b610f556114a6565b6001600160a01b038116610fba5760405162461bcd60e51b815260206004820152602660248201527f4f776e61626c653a206e6577206f776e657220697320746865207a65726f206160448201526564647265737360d01b6064820152608401610817565b610fc38161151f565b50565b828282610fd483838361196f565b6110525760405162461bcd60e51b815260206004820152604360248201527f4173736574436f6e7472616374236f6e6c79546f6b656e416d6f756e744f776e60448201527f65643a204f4e4c595f544f4b454e5f414d4f554e545f4f574e45445f414c4c4f60648201526215d15160ea1b608482015260a401610817565b610bb4868686611986565b60005b825181101561112a576110a68484838151811061107f5761107f61301b565b60200260200101518484815181106110995761109961301b565b602002602001015161196f565b6111185760405162461bcd60e51b815260206004820152603860248201527f4173736574436f6e74726163742362617463684275726e3a204f4e4c595f544f60448201527f4b454e5f414d4f554e545f4f574e45445f414c4c4f57454400000000000000006064820152608401610817565b8061112281613031565b915050611060565b50610c1e8383836119dc565b600c805461070690612e06565b600030330361119957600080368080601f0160208091040260200160405190810160405280939291908181526020018383808284376000920191909152505050503601516001600160a01b0316915061119c9050565b50335b90565b60006001600160a01b03831661120b5760405162461bcd60e51b815260206004820152602b60248201527f455243313135353a2062616c616e636520717565727920666f7220746865207a60448201526a65726f206164647265737360a81b6064820152608401610817565b5060009081526009602090815260408083206001600160a01b03949094168352929052205490565b6000610ef682611357565b6000818152600a60205260408120546106a39060016130a7565b60006001600160a01b0386166112be5760405162461bcd60e51b815260206004820152602560248201527f4e61746976654d6574615472616e73616374696f6e3a20494e56414c49445f5360448201526424a3a722a960d91b6064820152608401610817565b60016112d16112cc87611a32565b611aaf565b6040805160008152602081018083529290925260ff851690820152606081018690526080810185905260a0016020604051602081039080840390855afa15801561131f573d6000803e3d6000fd5b505050602060405103516001600160a01b0316866001600160a01b031614905095945050505050565b6000611352611143565b905090565b6000816001600160a01b03166113756006546001600160a01b031690565b6001600160a01b03161492915050565b60008151116113ec5760405162461bcd60e51b815260206004820152602d60248201527f4173736574436f6e7472616374237365745065726d616e656e745552493a204f60448201526c4e4c595f56414c49445f55524960981b6064820152608401610817565b6000828152600e60205260409020805460ff1916600117905561140f82826115d5565b817fa109ba539900bf1b633f956d63c96fc89b814c7287f7aa50a9216d0b556572078260405161143f919061273c565b60405180910390a25050565b611453611adf565b6006805460ff60a01b191690557f5db9ee0a495bf2e6ff9c91a7834c1ba4fdd244a5e8aa4e537bd38aeae4b073aa611489611348565b6040516001600160a01b03909116815260200160405180910390a1565b6114ae611348565b6001600160a01b03166114c96006546001600160a01b031690565b6001600160a01b031614610c525760405162461bcd60e51b815260206004820181905260248201527f4f776e61626c653a2063616c6c6572206973206e6f7420746865206f776e65726044820152606401610817565b600680546001600160a01b038381166001600160a01b0319831681179093556040519116919082907f8be0079c531659141344cd1fd0a4f28419497f9722a3daafe3b4186f6b6457e090600090a35050565b61157d84848484611b2f565b600181511115610dc257610dc28382610df7565b611599611c3c565b6006805460ff60a01b1916600160a01b1790557f62e78cea01bee320cd4e420270b5ea74000d11b0c9f74754ebdbfc544b05a258611489611348565b6000828152600d602052604090206115ed8282612f5c565b50817f6bb7ff708619ba0610cba295a58592e0451dee2622938c8755667688daf3529b8260405161143f919061273c565b816001600160a01b0316836001600160a01b0316036116915760405162461bcd60e51b815260206004820152602960248201527f455243313135353a2073657474696e6720617070726f76616c20737461747573604482015268103337b91039b2b63360b91b6064820152608401610817565b6001600160a01b03838116600081815260016020908152604080832094871680845294825291829020805460ff191686151590811790915591519182527f17307eab39ab6107e8899845ad3d59bd9653f200f220920489ca2b5937696c31910160405180910390a3505050565b61170a84848484611c89565b600181511115610dc25760005b8351811015611755576117438482815181106117355761173561301b565b602002602001015183610df7565b8061174d81613031565b915050611717565b5050505050565b611764611c3c565b8461176d611348565b6001600160a01b0316816001600160a01b031614806117935750611793816105cf611348565b6117af5760405162461bcd60e51b8152600401610817906130ba565b6001600160a01b0385166118135760405162461bcd60e51b815260206004820152602560248201527f455243313135353a207472616e7366657220746f20746865207a65726f206164604482015264647265737360d81b6064820152608401610817565b600061181d611348565b905061183781888861182e89611eec565b61175589611eec565b60008581526009602090815260408083206001600160a01b038b168452909152902054848110156118bd5760405162461bcd60e51b815260206004820152602a60248201527f455243313135353a20696e73756666696369656e742062616c616e636520666f60448201526939103a3930b739b332b960b11b6064820152608401610817565b6118c785826130a7565b60008781526009602090815260408083206001600160a01b038d81168552925280832093909355891681529081208054879290611905908490612df3565b909155505060408051878152602081018790526001600160a01b03808a16928b821692918616917fc3d58168c5ae7397731d063d5bbf3d657854427343f4c083240f7aacaa2d0f62910160405180910390a4611965828989898989611f37565b5050505050505050565b60008161197c8585610669565b1015949350505050565b8261198f611348565b6001600160a01b0316816001600160a01b031614806119b557506119b5816105cf611348565b6119d15760405162461bcd60e51b8152600401610817906130ba565b610dc2848484612092565b826119e5611348565b6001600160a01b0316816001600160a01b03161480611a0b5750611a0b816105cf611348565b611a275760405162461bcd60e51b8152600401610817906130ba565b610dc28484846122b8565b60006040518060800160405280604381526020016132d06043913980516020918201208351848301516040808701518051908601209051611a92950193845260208401929092526001600160a01b03166040830152606082015260800190565b604051602081830303815290604052805190602001209050919050565b6000611aba60045490565b60405161190160f01b6020820152602281019190915260428101839052606201611a92565b600654600160a01b900460ff16610c525760405162461bcd60e51b815260206004820152601460248201527314185d5cd8589b194e881b9bdd081c185d5cd95960621b6044820152606401610817565b611b37611c3c565b6000611b41611348565b9050611b5c81600087611b5388611eec565b61175588611eec565b611b668484612526565b60008481526009602090815260408083206001600160a01b038916845290915281208054859290611b98908490612df3565b90915550506000848152600a602052604081208054859290611bbb908490612df3565b9091555060009050611bcc856125a4565b9050856001600160a01b0316816001600160a01b0316836001600160a01b03167fc3d58168c5ae7397731d063d5bbf3d657854427343f4c083240f7aacaa2d0f628888604051611c26929190918252602082015260400190565b60405180910390a4610bb4828288888888611f37565b600654600160a01b900460ff1615610c525760405162461bcd60e51b815260206004820152601060248201526f14185d5cd8589b194e881c185d5cd95960821b6044820152606401610817565b611c91611c3c565b8151835114611cfb5760405162461bcd60e51b815260206004820152603060248201527f455243313135355472616461626c652362617463684d696e743a20494e56414c60448201526f09288be82a4a482b2a6be988a9c8ea8960831b6064820152608401610817565b82516000611d1e858284611d1157611d1161301b565b60200260200101516125a4565b90506000611d2a611348565b905060005b83811015611e7d576000878281518110611d4b57611d4b61301b565b602002602001015190506000878381518110611d6957611d6961301b565b60200260200101519050611d7d8282612526565b846001600160a01b0316611d90836125a4565b6001600160a01b031614611e0c5760405162461bcd60e51b815260206004820152603760248201527f455243313135355472616461626c652362617463684d696e743a204d554c544960448201527f504c455f4f524947494e535f4e4f545f414c4c4f5745440000000000000000006064820152608401610817565b60008281526009602090815260408083206001600160a01b038e16845290915281208054839290611e3e908490612df3565b90915550506000828152600a602052604081208054839290611e61908490612df3565b9250508190555050508080611e7590613031565b915050611d2f565b50866001600160a01b0316826001600160a01b0316826001600160a01b03167f4a39dc06d4c0dbc64b70af90fd698a233a518aa5d07e595d983b8c0526c8f7fb8989604051611ecd92919061310a565b60405180910390a4611ee38183898989896125b8565b50505050505050565b60408051600180825281830190925260609160009190602080830190803683370190505090508281600081518110611f2657611f2661301b565b602090810291909101015292915050565b6001600160a01b0384163b15610bb45760405163f23a6e6160e01b81526001600160a01b0385169063f23a6e6190611f7b908990899088908890889060040161312f565b6020604051808303816000875af1925050508015611fb6575060408051601f3d908101601f19168201909252611fb391810190613174565b60015b61206257611fc2613191565b806308c379a003611ffb5750611fd66131ac565b80611fe15750611ffd565b8060405162461bcd60e51b8152600401610817919061273c565b505b60405162461bcd60e51b815260206004820152603460248201527f455243313135353a207472616e7366657220746f206e6f6e20455243313135356044820152732932b1b2b4bb32b91034b6b83632b6b2b73a32b960611b6064820152608401610817565b6001600160e01b0319811663f23a6e6160e01b14611ee35760405162461bcd60e51b815260040161081790613235565b61209a611c3c565b6001600160a01b0383166120fe5760405162461bcd60e51b815260206004820152602560248201527f45524331313535235f6275726e3a204255524e5f46524f4d5f5a45524f5f4144604482015264445245535360d81b6064820152608401610817565b6000811161215a5760405162461bcd60e51b815260206004820152602360248201527f45524331313535235f6275726e3a20414d4f554e545f4c4553535f5448414e5f6044820152624f4e4560e81b6064820152608401610817565b6000612164611348565b90506121958185600061217687611eec565b61217f87611eec565b5050604080516020810190915260009052505050565b60008381526009602090815260408083206001600160a01b0388168452909152902054828110156122165760405162461bcd60e51b815260206004820152602560248201527f45524331313535235f6275726e3a20414d4f554e545f455843454544535f42416044820152644c414e434560d81b6064820152608401610817565b61222083826130a7565b60008581526009602090815260408083206001600160a01b038a168452825280832093909355868252600a905290812080548592906122609084906130a7565b909155505060408051858152602081018590526000916001600160a01b0388811692908616917fc3d58168c5ae7397731d063d5bbf3d657854427343f4c083240f7aacaa2d0f62910160405180910390a45050505050565b6122c0611c3c565b6001600160a01b0383166123165760405162461bcd60e51b815260206004820152601f60248201527f455243313135353a204255524e5f46524f4d5f5a45524f5f41444452455353006044820152606401610817565b80518251146123735760405162461bcd60e51b8152602060048201526024808201527f455243313135353a204944535f414d4f554e54535f4c454e4754485f4d49534d604482015263082a886960e31b6064820152608401610817565b600061237d611348565b604080516020810190915260009052905060005b83518110156124c75760008482815181106123ae576123ae61301b565b6020026020010151905060008483815181106123cc576123cc61301b565b60209081029190910181015160008481526009835260408082206001600160a01b038c1683529093529190912054909150818110156124605760405162461bcd60e51b815260206004820152602a60248201527f45524331313535235f6275726e42617463683a20414d4f554e545f455843454560448201526944535f42414c414e434560b01b6064820152608401610817565b61246a82826130a7565b60008481526009602090815260408083206001600160a01b038d168452825280832093909355858252600a905290812080548492906124aa9084906130a7565b9250508190555050505080806124bf90613031565b915050612391565b5060006001600160a01b0316846001600160a01b0316826001600160a01b03167f4a39dc06d4c0dbc64b70af90fd698a233a518aa5d07e595d983b8c0526c8f7fb868660405161251892919061310a565b60405180910390a450505050565b61252f8261123e565b811115610adc5760405162461bcd60e51b815260206004820152603c60248201527f4173736574436f6e7472616374235f6265666f72654d696e743a205155414e5460448201527f4954595f455843454544535f544f4b454e5f535550504c595f434150000000006064820152608401610817565b60006106a36006546001600160a01b031690565b6001600160a01b0384163b15610bb45760405163bc197c8160e01b81526001600160a01b0385169063bc197c81906125fc908990899088908890889060040161327d565b6020604051808303816000875af1925050508015612637575060408051601f3d908101601f1916820190925261263491810190613174565b60015b61264357611fc2613191565b6001600160e01b0319811663bc197c8160e01b14611ee35760405162461bcd60e51b815260040161081790613235565b80356001600160a01b038116811461268a57600080fd5b919050565b600080604083850312156126a257600080fd5b6126ab83612673565b946020939093013593505050565b6001600160e01b031981168114610fc357600080fd5b6000602082840312156126e157600080fd5b8135610ef6816126b9565b60005b838110156127075781810151838201526020016126ef565b50506000910152565b600081518084526127288160208601602086016126ec565b601f01601f19169290920160200192915050565b602081526000610ef66020830184612710565b634e487b7160e01b600052604160045260246000fd5b601f8201601f191681016001600160401b038111828210171561278a5761278a61274f565b6040525050565b600082601f8301126127a257600080fd5b81356001600160401b038111156127bb576127bb61274f565b6040516127d2601f8301601f191660200182612765565b8181528460208386010111156127e757600080fd5b816020850160208301376000918101602001919091529392505050565b600080600080600060a0868803121561281c57600080fd5b61282586612673565b945060208601356001600160401b0381111561284057600080fd5b61284c88828901612791565b9450506040860135925060608601359150608086013560ff8116811461287157600080fd5b809150509295509295909350565b60006020828403121561289157600080fd5b5035919050565b6000602082840312156128aa57600080fd5b81356001600160401b038111156128c057600080fd5b61069f84828501612791565b6000602082840312156128de57600080fd5b610ef682612673565b60006001600160401b038211156129005761290061274f565b5060051b60200190565b600082601f83011261291b57600080fd5b81356020612928826128e7565b6040516129358282612765565b83815260059390931b850182019282810191508684111561295557600080fd5b8286015b848110156129705780358352918301918301612959565b509695505050505050565b600080600080600060a0868803121561299357600080fd5b61299c86612673565b94506129aa60208701612673565b935060408601356001600160401b03808211156129c657600080fd5b6129d289838a0161290a565b945060608801359150808211156129e857600080fd5b6129f489838a0161290a565b93506080880135915080821115612a0a57600080fd5b50612a1788828901612791565b9150509295509295909350565b60008060408385031215612a3757600080fd5b8235915060208301356001600160401b03811115612a5457600080fd5b612a6085828601612791565b9150509250929050565b60008060408385031215612a7d57600080fd5b82356001600160401b0380821115612a9457600080fd5b818501915085601f830112612aa857600080fd5b81356020612ab5826128e7565b604051612ac28282612765565b83815260059390931b8501820192828101915089841115612ae257600080fd5b948201945b83861015612b0757612af886612673565b82529482019490820190612ae7565b96505086013592505080821115612b1d57600080fd5b50612a608582860161290a565b600081518084526020808501945080840160005b83811015612b5a57815187529582019590820190600101612b3e565b509495945050505050565b602081526000610ef66020830184612b2a565b60008060008060808587031215612b8e57600080fd5b612b9785612673565b9350602085013592506040850135915060608501356001600160401b03811115612bc057600080fd5b612bcc87828801612791565b91505092959194509250565b60008060408385031215612beb57600080fd5b612bf483612673565b915060208301358015158114612c0957600080fd5b809150509250929050565b60008060008060808587031215612c2a57600080fd5b612c3385612673565b935060208501356001600160401b0380821115612c4f57600080fd5b612c5b8883890161290a565b94506040870135915080821115612c7157600080fd5b612c7d8883890161290a565b93506060870135915080821115612c9357600080fd5b50612bcc87828801612791565b60008060408385031215612cb357600080fd5b612cbc83612673565b9150612cca60208401612673565b90509250929050565b600080600080600060a08688031215612ceb57600080fd5b612cf486612673565b9450612d0260208701612673565b9350604086013592506060860135915060808601356001600160401b03811115612d2b57600080fd5b612a1788828901612791565b600080600060608486031215612d4c57600080fd5b612d5584612673565b95602085013595506040909401359392505050565b600080600060608486031215612d7f57600080fd5b612d8884612673565b925060208401356001600160401b0380821115612da457600080fd5b612db08783880161290a565b93506040860135915080821115612dc657600080fd5b50612dd38682870161290a565b9150509250925092565b634e487b7160e01b600052601160045260246000fd5b808201808211156106a3576106a3612ddd565b600181811c90821680612e1a57607f821691505b602082108103612e3a57634e487b7160e01b600052602260045260246000fd5b50919050565b6001600160a01b03848116825283166020820152606060408201819052600090612e6c90830184612710565b95945050505050565b60008351612e878184602088016126ec565b60609390931b6bffffffffffffffffffffffff19169190920190815260140192915050565b60008251612ebe8184602087016126ec565b9190910192915050565b6020808252602e908201527f455243313135355472616461626c65236f6e6c794f776e65723a2043414c4c4560408201526d292fa4a9afa727aa2fa7aba722a960911b606082015260800190565b601f821115610c1e57600081815260208120601f850160051c81016020861015612f3d5750805b601f850160051c820191505b81811015610bb457828155600101612f49565b81516001600160401b03811115612f7557612f7561274f565b612f8981612f838454612e06565b84612f16565b602080601f831160018114612fbe5760008415612fa65750858301515b600019600386901b1c1916600185901b178555610bb4565b600085815260208120601f198616915b82811015612fed57888601518255948401946001909101908401612fce565b508582101561300b5787850151600019600388901b60f8161c191681555b5050505050600190811b01905550565b634e487b7160e01b600052603260045260246000fd5b60006001820161304357613043612ddd565b5060010190565b60208082526037908201527f4173736574436f6e7472616374236f6e6c79496d7065726d616e656e7455524960408201527f3a205552495f43414e4e4f545f42455f4348414e474544000000000000000000606082015260800190565b818103818111156106a3576106a3612ddd565b60208082526030908201527f455243313135355472616461626c65236f6e6c79417070726f7665643a20434160408201526f1313115497d393d517d0531313d5d15160821b606082015260800190565b60408152600061311d6040830185612b2a565b8281036020840152612e6c8185612b2a565b6001600160a01b03868116825285166020820152604081018490526060810183905260a06080820181905260009061316990830184612710565b979650505050505050565b60006020828403121561318657600080fd5b8151610ef6816126b9565b600060033d111561119c5760046000803e5060005160e01c90565b600060443d10156131ba5790565b6040516003193d81016004833e81513d6001600160401b0381602484011181841117156131e957505050505090565b82850191508151818111156132015750505050505090565b843d870101602082850101111561321b5750505050505090565b61322a60208286010187612765565b509095945050505050565b60208082526028908201527f455243313135353a204552433131353552656365697665722072656a656374656040820152676420746f6b656e7360c01b606082015260800190565b6001600160a01b0386811682528516602082015260a0604082018190526000906132a990830186612b2a565b82810360608401526132bb8186612b2a565b90508281036080840152610958818561271056fe4d6574615472616e73616374696f6e2875696e74323536206e6f6e63652c616464726573732066726f6d2c62797465732066756e6374696f6e5369676e617475726529a26469706673582212201fd39f9612b0cca28a5fba700c144cfd1acaaffed88ed1b1de52bbd1a040d32664736f6c63430008110033454950373132446f6d61696e28737472696e67206e616d652c737472696e672076657273696f6e2c6164647265737320766572696679696e67436f6e74726163742c627974657333322073616c7429",
  "linkReferences": {},
  "deployedLinkReferences": {}
}