{"contracts/common/meta-transactions/EIP712Base.sol":{"EIP712Base":{"abi":[{"anonymous":false,"inputs":[{"indexed":false,"internalType":"uint8","name":"version","type":"uint8"}],"name":"Initialized","type":"event"},{"inputs":[],"name":"ERC712_VERSION","outputs":[{"internalType":"string","name":"","type":"string"}],"stateMutability":"view","type":"function"},{"inputs":[],"name":"getChainId","outputs":[{"internalType":"uint256","name":"","type":"uint256"}],"stateMutability":"view","type":"function"},{"inputs":[],"name":"getDomainSeperator","outputs":[{"internalType":"bytes32","name":"","type":"bytes32"}],"stateMutability":"view","type":"function"}],"evm":{"bytecode":{"linkReferences":{},"object":"608060405234801561001057600080fd5b5061010c806100206000396000f3fe6080604052348015600f57600080fd5b5060043610603c5760003560e01c80630f7e597014604157806320379ee51460745780633408e470146085575b600080fd5b6060604051806040016040528060018152602001603160f81b81525081565b604051606b9190608a565b60405180910390f35b6001545b604051908152602001606b565b466078565b600060208083528351808285015260005b8181101560b557858101830151858201604001528201609b565b506000604082860101526040601f19601f830116850101925050509291505056fea26469706673582212205cf73d03155a781278667d67512b3922838299869c38e87588e2d9e3053aae2564736f6c63430008110033","opcodes":"PUSH1 0x80 PUSH1 0x40 MSTORE CALLVALUE DUP1 ISZERO PUSH2 0x10 JUMPI PUSH1 0x0 DUP1 REVERT JUMPDEST POP PUSH2 0x10C DUP1 PUSH2 0x20 PUSH1 0x0 CODECOPY PUSH1 0x0 RETURN INVALID PUSH1 0x80 PUSH1 0x40 MSTORE CALLVALUE DUP1 ISZERO PUSH1 0xF JUMPI PUSH1 0x0 DUP1 REVERT JUMPDEST POP PUSH1 0x4 CALLDATASIZE LT PUSH1 0x3C JUMPI PUSH1 0x0 CALLDATALOAD PUSH1 0xE0 SHR DUP1 PUSH4 0xF7E5970 EQ PUSH1 0x41 JUMPI DUP1 PUSH4 0x20379EE5 EQ PUSH1 0x74 JUMPI DUP1 PUSH4 0x3408E470 EQ PUSH1 0x85 JUMPI JUMPDEST PUSH1 0x0 DUP1 REVERT JUMPDEST PUSH1 0x60 PUSH1 0x40 MLOAD DUP1 PUSH1 0x40 ADD PUSH1 0x40 MSTORE DUP1 PUSH1 0x1 DUP2 MSTORE PUSH1 0x20 ADD PUSH1 0x31 PUSH1 0xF8 SHL DUP2 MSTORE POP DUP2 JUMP JUMPDEST PUSH1 0x40 MLOAD PUSH1 0x6B SWAP2 SWAP1 PUSH1 0x8A JUMP JUMPDEST PUSH1 0x40 MLOAD DUP1 SWAP2 SUB SWAP1 RETURN JUMPDEST PUSH1 0x1 SLOAD JUMPDEST PUSH1 0x40 MLOAD SWAP1 DUP2 MSTORE PUSH1 0x20 ADD PUSH1 0x6B JUMP JUMPDEST CHAINID PUSH1 0x78 JUMP JUMPDEST PUSH1 0x0 PUSH1 0x20 DUP1 DUP4 MSTORE DUP4 MLOAD DUP1 DUP3 DUP6 ADD MSTORE PUSH1 0x0 JUMPDEST DUP2 DUP2 LT ISZERO PUSH1 0xB5 JUMPI DUP6 DUP2 ADD DUP4 ADD MLOAD DUP6 DUP3 ADD PUSH1 0x40 ADD MSTORE DUP3 ADD PUSH1 0x9B JUMP JUMPDEST POP PUSH1 0x0 PUSH1 0x40 DUP3 DUP7 ADD ADD MSTORE PUSH1 0x40 PUSH1 0x1F NOT PUSH1 0x1F DUP4 ADD AND DUP6 ADD ADD SWAP3 POP POP POP SWAP3 SWAP2 POP POP JUMP INVALID LOG2 PUSH5 0x6970667358 0x22 SLT KECCAK256 0x5C 0xF7 RETURNDATASIZE SUB ISZERO GAS PUSH25 0x1278667D67512B3922838299869C38E87588E2D9E3053AAE25 PUSH5 0x736F6C6343 STOP ADDMOD GT STOP CALLER "},"methodIdentifiers":{"ERC712_VERSION()":"0f7e5970","getChainId()":"3408e470","getDomainSeperator()":"20379ee5"}},"storageLayout":{"storage":[{"astId":157,"contract":"contracts/common/meta-transactions/EIP712Base.sol:EIP712Base","label":"_initialized","offset":0,"slot":"0","type":"t_uint8"},{"astId":160,"contract":"contracts/common/meta-transactions/EIP712Base.sol:EIP712Base","label":"_initializing","offset":1,"slot":"0","type":"t_bool"},{"astId":5288,"contract":"contracts/common/meta-transactions/EIP712Base.sol:EIP712Base","label":"domainSeperator","offset":0,"slot":"1","type":"t_bytes32"}],"types":{"t_bool":{"encoding":"inplace","label":"bool","numberOfBytes":"1"},"t_bytes32":{"encoding":"inplace","label":"bytes32","numberOfBytes":"32"},"t_uint8":{"encoding":"inplace","label":"uint8","numberOfBytes":"1"}}}}}}