{"contracts/AssetContractShared.sol":{"AssetContractShared":{"abi":[{"anonymous":false,"inputs":[{"indexed":true,"internalType":"address","name":"account","type":"address"},{"indexed":true,"internalType":"address","name":"operator","type":"address"},{"indexed":false,"internalType":"bool","name":"approved","type":"bool"}],"name":"ApprovalForAll","type":"event"},{"anonymous":false,"inputs":[{"indexed":true,"internalType":"uint256","name":"_id","type":"uint256"},{"indexed":true,"internalType":"address","name":"_creator","type":"address"}],"name":"CreatorChanged","type":"event"},{"anonymous":false,"inputs":[{"indexed":false,"internalType":"uint8","name":"version","type":"uint8"}],"name":"Initialized","type":"event"},{"anonymous":false,"inputs":[{"indexed":false,"internalType":"address","name":"userAddress","type":"address"},{"indexed":false,"internalType":"address payable","name":"relayerAddress","type":"address"},{"indexed":false,"internalType":"bytes","name":"functionSignature","type":"bytes"}],"name":"MetaTransactionExecuted","type":"event"},{"anonymous":false,"inputs":[{"indexed":true,"internalType":"address","name":"previousOwner","type":"address"},{"indexed":true,"internalType":"address","name":"newOwner","type":"address"}],"name":"OwnershipTransferred","type":"event"},{"anonymous":false,"inputs":[{"indexed":false,"internalType":"address","name":"account","type":"address"}],"name":"Paused","type":"event"},{"anonymous":false,"inputs":[{"indexed":false,"internalType":"string","name":"_value","type":"string"},{"indexed":true,"internalType":"uint256","name":"_id","type":"uint256"}],"name":"PermanentURI","type":"event"},{"anonymous":false,"inputs":[{"indexed":true,"internalType":"address","name":"operator","type":"address"},{"indexed":true,"internalType":"address","name":"from","type":"address"},{"indexed":true,"internalType":"address","name":"to","type":"address"},{"indexed":false,"internalType":"uint256[]","name":"ids","type":"uint256[]"},{"indexed":false,"internalType":"uint256[]","name":"values","type":"uint256[]"}],"name":"TransferBatch","type":"event"},{"anonymous":false,"inputs":[{"indexed":true,"internalType":"address","name":"operator","type":"address"},{"indexed":true,"internalType":"address","name":"from","type":"address"},{"indexed":true,"internalType":"address","name":"to","type":"address"},{"indexed":false,"internalType":"uint256","name":"id","type":"uint256"},{"indexed":false,"internalType":"uint256","name":"value","type":"uint256"}],"name":"TransferSingle","type":"event"},{"anonymous":false,"inputs":[{"indexed":false,"internalType":"string","name":"value","type":"string"},{"indexed":true,"internalType":"uint256","name":"id","type":"uint256"}],"name":"URI","type":"event"},{"anonymous":false,"inputs":[{"indexed":false,"internalType":"address","name":"account","type":"address"}],"name":"Unpaused","type":"event"},{"inputs":[],"name":"ERC712_VERSION","outputs":[{"internalType":"string","name":"","type":"string"}],"stateMutability":"view","type":"function"},{"inputs":[{"internalType":"address","name":"_owner","type":"address"},{"internalType":"uint256","name":"_id","type":"uint256"}],"name":"balanceOf","outputs":[{"internalType":"uint256","name":"","type":"uint256"}],"stateMutability":"view","type":"function"},{"inputs":[{"internalType":"address[]","name":"accounts","type":"address[]"},{"internalType":"uint256[]","name":"ids","type":"uint256[]"}],"name":"balanceOfBatch","outputs":[{"internalType":"uint256[]","name":"","type":"uint256[]"}],"stateMutability":"view","type":"function"},{"inputs":[{"internalType":"address","name":"_from","type":"address"},{"internalType":"uint256[]","name":"_ids","type":"uint256[]"},{"internalType":"uint256[]","name":"_quantities","type":"uint256[]"}],"name":"batchBurn","outputs":[],"stateMutability":"nonpayable","type":"function"},{"inputs":[{"internalType":"address","name":"_to","type":"address"},{"internalType":"uint256[]","name":"_ids","type":"uint256[]"},{"internalType":"uint256[]","name":"_quantities","type":"uint256[]"},{"internalType":"bytes","name":"_data","type":"bytes"}],"name":"batchMint","outputs":[],"stateMutability":"nonpayable","type":"function"},{"inputs":[{"internalType":"address","name":"_from","type":"address"},{"internalType":"uint256","name":"_id","type":"uint256"},{"internalType":"uint256","name":"_quantity","type":"uint256"}],"name":"burn","outputs":[],"stateMutability":"nonpayable","type":"function"},{"inputs":[{"internalType":"uint256","name":"_id","type":"uint256"}],"name":"createMintEvent","outputs":[],"stateMutability":"nonpayable","type":"function"},{"inputs":[{"internalType":"uint256","name":"_id","type":"uint256"}],"name":"creator","outputs":[{"internalType":"address","name":"","type":"address"}],"stateMutability":"view","type":"function"},{"inputs":[],"name":"defaultRoyaltyFraction","outputs":[{"internalType":"uint96","name":"","type":"uint96"}],"stateMutability":"view","type":"function"},{"inputs":[{"internalType":"address","name":"userAddress","type":"address"},{"internalType":"bytes","name":"functionSignature","type":"bytes"},{"internalType":"bytes32","name":"sigR","type":"bytes32"},{"internalType":"bytes32","name":"sigS","type":"bytes32"},{"internalType":"uint8","name":"sigV","type":"uint8"}],"name":"executeMetaTransaction","outputs":[{"internalType":"bytes","name":"","type":"bytes"}],"stateMutability":"payable","type":"function"},{"inputs":[{"internalType":"uint256","name":"_id","type":"uint256"}],"name":"exists","outputs":[{"internalType":"bool","name":"","type":"bool"}],"stateMutability":"view","type":"function"},{"inputs":[],"name":"getChainId","outputs":[{"internalType":"uint256","name":"","type":"uint256"}],"stateMutability":"view","type":"function"},{"inputs":[],"name":"getDomainSeperator","outputs":[{"internalType":"bytes32","name":"","type":"bytes32"}],"stateMutability":"view","type":"function"},{"inputs":[{"internalType":"address","name":"user","type":"address"}],"name":"getNonce","outputs":[{"internalType":"uint256","name":"nonce","type":"uint256"}],"stateMutability":"view","type":"function"},{"inputs":[{"internalType":"string","name":"_name","type":"string"},{"internalType":"string","name":"_symbol","type":"string"},{"internalType":"string","name":"_templateURI","type":"string"},{"internalType":"uint96","name":"_royaltyFraction","type":"uint96"},{"internalType":"address","name":"_proxyRegistryAddress","type":"address"}],"name":"initialize","outputs":[],"stateMutability":"nonpayable","type":"function"},{"inputs":[{"internalType":"address","name":"_owner","type":"address"},{"internalType":"address","name":"_operator","type":"address"}],"name":"isApprovedForAll","outputs":[{"internalType":"bool","name":"isOperator","type":"bool"}],"stateMutability":"view","type":"function"},{"inputs":[{"internalType":"uint256","name":"_id","type":"uint256"}],"name":"isPermanentURI","outputs":[{"internalType":"bool","name":"","type":"bool"}],"stateMutability":"view","type":"function"},{"inputs":[{"internalType":"uint256","name":"_id","type":"uint256"}],"name":"maxSupply","outputs":[{"internalType":"uint256","name":"","type":"uint256"}],"stateMutability":"pure","type":"function"},{"inputs":[{"internalType":"address","name":"_to","type":"address"},{"internalType":"uint256","name":"_id","type":"uint256"},{"internalType":"uint256","name":"_quantity","type":"uint256"},{"internalType":"bytes","name":"_data","type":"bytes"}],"name":"mint","outputs":[],"stateMutability":"nonpayable","type":"function"},{"inputs":[{"internalType":"address","name":"_to","type":"address"},{"internalType":"uint256","name":"_id","type":"uint256"},{"internalType":"uint256","name":"_quantity","type":"uint256"},{"internalType":"bytes","name":"_data","type":"bytes"},{"internalType":"uint96","name":"_feeNumerator","type":"uint96"}],"name":"mint","outputs":[],"stateMutability":"nonpayable","type":"function"},{"inputs":[],"name":"name","outputs":[{"internalType":"string","name":"","type":"string"}],"stateMutability":"view","type":"function"},{"inputs":[],"name":"owner","outputs":[{"internalType":"address","name":"","type":"address"}],"stateMutability":"view","type":"function"},{"inputs":[],"name":"pause","outputs":[],"stateMutability":"nonpayable","type":"function"},{"inputs":[],"name":"paused","outputs":[{"internalType":"bool","name":"","type":"bool"}],"stateMutability":"view","type":"function"},{"inputs":[],"name":"proxyRegistryAddress","outputs":[{"internalType":"address","name":"","type":"address"}],"stateMutability":"view","type":"function"},{"inputs":[],"name":"renounceOwnership","outputs":[],"stateMutability":"nonpayable","type":"function"},{"inputs":[{"internalType":"uint256","name":"_tokenId","type":"uint256"},{"internalType":"uint256","name":"_salePrice","type":"uint256"}],"name":"royaltyInfo","outputs":[{"internalType":"address","name":"","type":"address"},{"internalType":"uint256","name":"","type":"uint256"}],"stateMutability":"view","type":"function"},{"inputs":[{"internalType":"address","name":"_from","type":"address"},{"internalType":"address","name":"_to","type":"address"},{"internalType":"uint256[]","name":"_ids","type":"uint256[]"},{"internalType":"uint256[]","name":"_amounts","type":"uint256[]"},{"internalType":"bytes","name":"_data","type":"bytes"}],"name":"safeBatchTransferFrom","outputs":[],"stateMutability":"nonpayable","type":"function"},{"inputs":[{"internalType":"address","name":"_from","type":"address"},{"internalType":"address","name":"_to","type":"address"},{"internalType":"uint256","name":"_id","type":"uint256"},{"internalType":"uint256","name":"_amount","type":"uint256"},{"internalType":"bytes","name":"_data","type":"bytes"}],"name":"safeTransferFrom","outputs":[],"stateMutability":"nonpayable","type":"function"},{"inputs":[{"internalType":"address","name":"operator","type":"address"},{"internalType":"bool","name":"approved","type":"bool"}],"name":"setApprovalForAll","outputs":[],"stateMutability":"nonpayable","type":"function"},{"inputs":[{"internalType":"uint256","name":"_id","type":"uint256"},{"internalType":"address","name":"_to","type":"address"}],"name":"setCreator","outputs":[],"stateMutability":"nonpayable","type":"function"},{"inputs":[{"internalType":"uint96","name":"_royaltyFraction","type":"uint96"}],"name":"setDefaultRoyaltyFraciton","outputs":[],"stateMutability":"nonpayable","type":"function"},{"inputs":[{"internalType":"uint256","name":"_id","type":"uint256"},{"internalType":"string","name":"_uri","type":"string"}],"name":"setPermanentURI","outputs":[],"stateMutability":"nonpayable","type":"function"},{"inputs":[{"internalType":"address","name":"_address","type":"address"}],"name":"setProxyRegistryAddress","outputs":[],"stateMutability":"nonpayable","type":"function"},{"inputs":[{"internalType":"string","name":"_uri","type":"string"}],"name":"setTemplateURI","outputs":[],"stateMutability":"nonpayable","type":"function"},{"inputs":[{"internalType":"uint256","name":"_id","type":"uint256"},{"internalType":"string","name":"_uri","type":"string"}],"name":"setURI","outputs":[],"stateMutability":"nonpayable","type":"function"},{"inputs":[],"name":"supportsFactoryInterface","outputs":[{"internalType":"bool","name":"","type":"bool"}],"stateMutability":"pure","type":"function"},{"inputs":[{"internalType":"bytes4","name":"interfaceId","type":"bytes4"}],"name":"supportsInterface","outputs":[{"internalType":"bool","name":"","type":"bool"}],"stateMutability":"view","type":"function"},{"inputs":[],"name":"symbol","outputs":[{"internalType":"string","name":"","type":"string"}],"stateMutability":"view","type":"function"},{"inputs":[],"name":"templateURI","outputs":[{"internalType":"string","name":"","type":"string"}],"stateMutability":"view","type":"function"},{"inputs":[{"internalType":"uint256","name":"_id","type":"uint256"}],"name":"totalSupply","outputs":[{"internalType":"uint256","name":"","type":"uint256"}],"stateMutability":"view","type":"function"},{"inputs":[{"internalType":"address","name":"newOwner","type":"address"}],"name":"transferOwnership","outputs":[],"stateMutability":"nonpayable","type":"function"},{"inputs":[],"name":"unpause","outputs":[],"stateMutability":"nonpayable","type":"function"},{"inputs":[{"internalType":"uint256","name":"_id","type":"uint256"}],"name":"uri","outputs":[{"internalType":"string","name":"","type":"string"}],"stateMutability":"view","type":"function"}],"evm":{"bytecode":{"linkReferences":{},"object":"608060405234801561001057600080fd5b5061437a806100206000396000f3fe6080604052600436106102665760003560e01c8063715018a611610144578063c06b91c3116100b6578063e985e9c51161007a578063e985e9c51461079b578063f242432a146107bb578063f2fde38b146107db578063f5298aca146107fb578063f6eb127a1461081b578063f923e8c31461083b57600080fd5b8063c06b91c314610706578063c311c52314610726578063cd7c03261461073a578063d26ea6c01461075b578063d3b9ff7f1461077b57600080fd5b80638da5cb5b116101085780638da5cb5b1461064557806391686f531461066357806395d89b4114610683578063a22cb46514610698578063b48ab8b6146106b8578063bd85b039146106d857600080fd5b8063715018a6146105bb578063731133e9146105d05780638456cb59146105f0578063862440e214610605578063869f75941461062557600080fd5b80632a55205a116101dd5780633f4ba83a116101a15780633f4ba83a146104c05780634e1273f4146104d55780634f558e7914610502578063510b5158146105325780635c975abb1461056a5780636d0042b81461058257600080fd5b80632a55205a146103f85780632d0335ab146104375780632eb2c2d61461046d5780633408e4701461048d5780633588ad7c146104a057600080fd5b80630e89341c1161022f5780630e89341c146103255780630f7e597014610345578063143045b5146103725780631e7d9dbb1461039257806320379ee5146103c357806324d88785146103d857600080fd5b8062fdd58e1461026b57806301ffc9a71461029e57806306fdde03146102ce57806307291f8f146102f05780630c53c51c14610312575b600080fd5b34801561027757600080fd5b5061028b610286366004613375565b610850565b6040519081526020015b60405180910390f35b3480156102aa57600080fd5b506102be6102b93660046133b5565b610890565b6040519015158152602001610295565b3480156102da57600080fd5b506102e36108eb565b6040516102959190613422565b3480156102fc57600080fd5b5061031061030b366004613435565b610979565b005b6102e3610320366004613503565b6109d2565b34801561033157600080fd5b506102e3610340366004613435565b610baf565b34801561035157600080fd5b506102e3604051806040016040528060018152602001603160f81b81525081565b34801561037e57600080fd5b5061031061038d366004613595565b610cf1565b34801561039e57600080fd5b506102be6103ad366004613435565b6000908152610104602052604090205460ff1690565b3480156103cf57600080fd5b5060975461028b565b3480156103e457600080fd5b506103106103f336600461363e565b610e0c565b34801561040457600080fd5b50610418610413366004613672565b610e49565b604080516001600160a01b039093168352602083019190915201610295565b34801561044357600080fd5b5061028b610452366004613694565b6001600160a01b031660009081526098602052604090205490565b34801561047957600080fd5b50610310610488366004613743565b610ef7565b34801561049957600080fd5b504661028b565b3480156104ac57600080fd5b506103106104bb3660046137ec565b610fcb565b3480156104cc57600080fd5b50610310611073565b3480156104e157600080fd5b506104f56104f0366004613832565b6110a4565b604051610295919061392d565b34801561050e57600080fd5b506102be61051d366004613435565b60009081526101006020526040902054151590565b34801561053e57600080fd5b5061055261054d366004613435565b6111cd565b6040516001600160a01b039091168152602001610295565b34801561057657600080fd5b5060cb5460ff166102be565b34801561058e57600080fd5b5061016a546105a3906001600160601b031681565b6040516001600160601b039091168152602001610295565b3480156105c757600080fd5b50610310611216565b3480156105dc57600080fd5b506103106105eb366004613940565b611228565b3480156105fc57600080fd5b50610310611261565b34801561061157600080fd5b506103106106203660046137ec565b611290565b34801561063157600080fd5b5061028b610640366004613435565b61131d565b34801561065157600080fd5b506099546001600160a01b0316610552565b34801561066f57600080fd5b5061031061067e3660046139a0565b611328565b34801561068f57600080fd5b506102e361141b565b3480156106a457600080fd5b506103106106b33660046139cc565b611428565b3480156106c457600080fd5b506103106106d3366004613a08565b61143a565b3480156106e457600080fd5b5061028b6106f3366004613435565b6000908152610100602052604090205490565b34801561071257600080fd5b50610310610721366004613a94565b611506565b34801561073257600080fd5b5060016102be565b34801561074657600080fd5b5061010154610552906001600160a01b031681565b34801561076757600080fd5b50610310610776366004613694565b611550565b34801561078757600080fd5b50610310610796366004613aaf565b61159a565b3480156107a757600080fd5b506102be6107b6366004613b14565b611615565b3480156107c757600080fd5b506103106107d6366004613b3e565b611668565b3480156107e757600080fd5b506103106107f6366004613694565b6116b8565b34801561080757600080fd5b50610310610816366004613ba2565b611731565b34801561082757600080fd5b50610310610836366004613bd5565b6117c8565b34801561084757600080fd5b506102e36118a6565b60008061085d84846118b4565b90506108698385611948565b6108735780610886565b61087c8361198d565b6108869082613c5e565b9150505b92915050565b60006001600160e01b03198216636cdb3d1360e11b14806108c157506001600160e01b031982166303a24d0760e21b145b806108dc57506001600160e01b0319821663152a902d60e11b145b8061088a575061088a826119b0565b60fd80546108f890613c71565b80601f016020809104026020016040519081016040528092919081815260200182805461092490613c71565b80156109715780601f1061094657610100808354040283529160200191610971565b820191906000526020600020905b81548152906001019060200180831161095457829003601f168201915b505050505081565b610982816119d5565b6001600160a01b031660006109956119ef565b6001600160a01b0316600080516020614293833981519152846109b7866119fe565b6040805192835260208301919091520160405180910390a450565b60408051606081810183526001600160a01b03881660008181526098602090815290859020548452830152918101869052610a108782878787611a19565b610a6b5760405162461bcd60e51b815260206004820152602160248201527f5369676e657220616e64207369676e617475726520646f206e6f74206d6174636044820152600d60fb1b60648201526084015b60405180910390fd5b6001600160a01b0387166000908152609860205260408120805460019290610a94908490613c5e565b90915550506040517f5845892132946850460bff5a0083f71031bc5bf9aadcd40f1de79423eac9b10b90610acd90899033908a90613cab565b60405180910390a1600080306001600160a01b0316888a604051602001610af5929190613ce0565b60408051601f1981840301815290829052610b0f91613d12565b6000604051808303816000865af19150503d8060008114610b4c576040519150601f19603f3d011682016040523d82523d6000602084013e610b51565b606091505b509150915081610ba35760405162461bcd60e51b815260206004820152601c60248201527f46756e6374696f6e2063616c6c206e6f74207375636365737366756c000000006044820152606401610a62565b98975050505050505050565b60008181526101036020526040812080546060929190610bce90613c71565b80601f0160208091040260200160405190810160405280929190818152602001828054610bfa90613c71565b8015610c475780601f10610c1c57610100808354040283529160200191610c47565b820191906000526020600020905b815481529060010190602001808311610c2a57829003601f168201915b505050505090508051600014610c5d5792915050565b6101028054610c6b90613c71565b80601f0160208091040260200160405190810160405280929190818152602001828054610c9790613c71565b8015610ce45780601f10610cb957610100808354040283529160200191610ce4565b820191906000526020600020905b815481529060010190602001808311610cc757829003601f168201915b5050505050915050919050565b600054610100900460ff1615808015610d115750600054600160ff909116105b80610d2b5750303b158015610d2b575060005460ff166001145b610d8e5760405162461bcd60e51b815260206004820152602e60248201527f496e697469616c697a61626c653a20636f6e747261637420697320616c72656160448201526d191e481a5b9a5d1a585b1a5e995960921b6064820152608401610a62565b6000805460ff191660011790558015610db1576000805461ff0019166101001790555b610dbe8686868686611b09565b8015610e04576000805461ff0019169055604051600181527f7f26b83ff96e1f2b6a682f133852f6798a09c465da95921460cefb38474024989060200160405180910390a15b505050505050565b610e1c610e176119ef565b611b63565b610e385760405162461bcd60e51b8152600401610a6290613d2e565b610102610e458282613dc2565b5050565b6000828152610138602090815260408083208151808301909252546001600160a01b038116808352600160a01b9091046001600160601b0316928201929092528291610ec0575060408051808201909152610137546001600160a01b0381168252600160a01b90046001600160601b031660208201525b602081015160009061271090610edf906001600160601b031687613e81565b610ee99190613e98565b915196919550909350505050565b8151835114610f6e5760405162461bcd60e51b815260206004820152603a60248201527f4173736574436f6e7472616374237361666542617463685472616e736665724660448201527f726f6d3a20494e56414c49445f4152524159535f4c454e4754480000000000006064820152608401610a62565b60005b8351811015610e0457610fb98686868481518110610f9157610f91613eba565b6020026020010151868581518110610fab57610fab613eba565b602002602001015186611668565b80610fc381613ed0565b915050610f71565b81610fdd81610fd86119ef565b611948565b610ff95760405162461bcd60e51b8152600401610a6290613ee9565b60008381526101046020526040902054839060ff161561102b5760405162461bcd60e51b8152600401610a6290613f3e565b836110466110376119ef565b82611041846119fe565b611b91565b6110625760405162461bcd60e51b8152600401610a6290613f9b565b61106c8585611ba8565b5050505050565b61107e610e176119ef565b61109a5760405162461bcd60e51b8152600401610a6290613d2e565b6110a2611c6f565b565b606081518351146111095760405162461bcd60e51b815260206004820152602960248201527f455243313135353a206163636f756e747320616e6420696473206c656e677468604482015268040dad2e6dac2e8c6d60bb1b6064820152608401610a62565b600083516001600160401b038111156111245761112461344e565b60405190808252806020026020018201604052801561114d578160200160208202803683370190505b50905060005b84518110156111c55761119885828151811061117157611171613eba565b602002602001015185838151811061118b5761118b613eba565b6020026020010151610850565b8282815181106111aa576111aa613eba565b60209081029190910101526111be81613ed0565b9050611153565b509392505050565b600081815261016960205260408120546001600160a01b0316156112085750600090815261016960205260409020546001600160a01b031690565b61088a826119d5565b919050565b61121e611cc7565b6110a26000611d40565b611233610e176119ef565b61124f5760405162461bcd60e51b8152600401610a6290613d2e565b61125b84848484611d92565b50505050565b61126c610e176119ef565b6112885760405162461bcd60e51b8152600401610a6290613d2e565b6110a2611db2565b8161129d81610fd86119ef565b6112b95760405162461bcd60e51b8152600401610a6290613ee9565b60008381526101046020526040902054839060ff16156112eb5760405162461bcd60e51b8152600401610a6290613f3e565b836112f76110376119ef565b6113135760405162461bcd60e51b8152600401610a6290613f9b565b61106c8585611df0565b600061088a826119fe565b8161133581610fd86119ef565b6113515760405162461bcd60e51b8152600401610a6290613ee9565b6001600160a01b0382166113c05760405162461bcd60e51b815260206004820152603060248201527f4173736574436f6e74726163745368617265642373657443726561746f723a2060448201526f24a72b20a624a22fa0a2222922a9a99760811b6064820152608401610a62565b6000838152610169602052604080822080546001600160a01b0319166001600160a01b0386169081179091559051909185917f39071c63e44267bfdefc7b625c0df99d3ce2e6ff98d9f5e9e8a7ab43cdf5000d9190a3505050565b60fe80546108f890613c71565b610e456114336119ef565b8383611e3a565b611442611f1a565b60005b83518110156114ee5761147384828151811061146357611463613eba565b6020026020010151610fd86119ef565b6114dc5760405162461bcd60e51b815260206004820152603460248201527f4173736574436f6e7472616374536861726564235f62617463684d696e743a2060448201527313d3931657d0d491505513d497d0531313d5d15160621b6064820152608401610a62565b806114e681613ed0565b915050611445565b506114fb84848484611f75565b61125b600161010555565b611511610e176119ef565b61152d5760405162461bcd60e51b8152600401610a6290613d2e565b61016a80546001600160601b0319166001600160601b0392909216919091179055565b61155b610e176119ef565b6115775760405162461bcd60e51b8152600401610a6290613d2e565b61010180546001600160a01b0319166001600160a01b0392909216919091179055565b6115a2611f1a565b836115af81610fd86119ef565b6115cb5760405162461bcd60e51b8152600401610a6290613ee9565b6115d786868686611d92565b60006115e4866001610e49565b5090506001600160a01b0381166116085761160886611602886119d5565b85611fcc565b505061106c600161010555565b610101546000906001600160a01b03908116908316036116375750600161088a565b6001600160a01b0380841660009081526066602090815260408083209386168352929052205460ff165b9392505050565b600061167486856118b4565b9050828110156116ab57611693858561168d8487614006565b85611228565b80156116a6576116a686868684866120db565b610e04565b610e0486868686866120db565b6116c0611cc7565b6001600160a01b0381166117255760405162461bcd60e51b815260206004820152602660248201527f4f776e61626c653a206e6577206f776e657220697320746865207a65726f206160448201526564647265737360d01b6064820152608401610a62565b61172e81611d40565b50565b82828261173f838383611b91565b6117bd5760405162461bcd60e51b815260206004820152604360248201527f4173736574436f6e7472616374236f6e6c79546f6b656e416d6f756e744f776e60448201527f65643a204f4e4c595f544f4b454e5f414d4f554e545f4f574e45445f414c4c4f60648201526215d15160ea1b608482015260a401610a62565b610e048686866122dc565b60005b825181101561189557611811848483815181106117ea576117ea613eba565b602002602001015184848151811061180457611804613eba565b6020026020010151611b91565b6118835760405162461bcd60e51b815260206004820152603860248201527f4173736574436f6e74726163742362617463684275726e3a204f4e4c595f544f60448201527f4b454e5f414d4f554e545f4f574e45445f414c4c4f57454400000000000000006064820152608401610a62565b8061188d81613ed0565b9150506117cb565b506118a1838383612332565b505050565b61010280546108f890613c71565b60006001600160a01b0383166119205760405162461bcd60e51b815260206004820152602b60248201527f455243313135353a2062616c616e636520717565727920666f7220746865207a60448201526a65726f206164647265737360a81b6064820152608401610a62565b50600090815260ff602090815260408083206001600160a01b03949094168352929052205490565b600080611954846111cd565b9050826001600160a01b0316816001600160a01b031614806108865750610101546001600160a01b039081169084161491505092915050565b600081815261010060205260408120546119a68361131d565b61088a9190614006565b60006001600160e01b0319821663152a902d60e11b148061088a575061088a82612388565b60006119e360286038614019565b60ff169190911c919050565b60006119f96123d8565b905090565b6000611a11600165010000000000614006565b909116919050565b60006001600160a01b038616611a7f5760405162461bcd60e51b815260206004820152602560248201527f4e61746976654d6574615472616e73616374696f6e3a20494e56414c49445f5360448201526424a3a722a960d91b6064820152608401610a62565b6001611a92611a8d87612434565b6124b1565b6040805160008152602081018083529290925260ff851690820152606081018690526080810185905260a0016020604051602081039080840390855afa158015611ae0573d6000803e3d6000fd5b505050602060405103516001600160a01b0316866001600160a01b031614905095945050505050565b600054610100900460ff16611b305760405162461bcd60e51b8152600401610a6290614032565b611b3c858585846124e1565b5061016a80546001600160601b0319166001600160601b0392909216919091179055505050565b6000816001600160a01b0316611b816099546001600160a01b031690565b6001600160a01b03161492915050565b600081611b9e8585610850565b1015949350505050565b6000815111611c0f5760405162461bcd60e51b815260206004820152602d60248201527f4173736574436f6e7472616374237365745065726d616e656e745552493a204f60448201526c4e4c595f56414c49445f55524960981b6064820152608401610a62565b600082815261010460205260409020805460ff19166001179055611c338282611df0565b817fa109ba539900bf1b633f956d63c96fc89b814c7287f7aa50a9216d0b5565720782604051611c639190613422565b60405180910390a25050565b611c7761251c565b60cb805460ff191690557f5db9ee0a495bf2e6ff9c91a7834c1ba4fdd244a5e8aa4e537bd38aeae4b073aa611caa6119ef565b6040516001600160a01b03909116815260200160405180910390a1565b611ccf6119ef565b6001600160a01b0316611cea6099546001600160a01b031690565b6001600160a01b0316146110a25760405162461bcd60e51b815260206004820181905260248201527f4f776e61626c653a2063616c6c6572206973206e6f7420746865206f776e65726044820152606401610a62565b609980546001600160a01b038381166001600160a01b0319831681179093556040519116919082907f8be0079c531659141344cd1fd0a4f28419497f9722a3daafe3b4186f6b6457e090600090a35050565b611d9e84848484612565565b60018151111561125b5761125b8382611290565b611dba612661565b60cb805460ff191660011790557f62e78cea01bee320cd4e420270b5ea74000d11b0c9f74754ebdbfc544b05a258611caa6119ef565b600082815261010360205260409020611e098282613dc2565b50817f6bb7ff708619ba0610cba295a58592e0451dee2622938c8755667688daf3529b82604051611c639190613422565b816001600160a01b0316836001600160a01b031603611ead5760405162461bcd60e51b815260206004820152602960248201527f455243313135353a2073657474696e6720617070726f76616c20737461747573604482015268103337b91039b2b63360b91b6064820152608401610a62565b6001600160a01b03838116600081815260666020908152604080832094871680845294825291829020805460ff191686151590811790915591519182527f17307eab39ab6107e8899845ad3d59bd9653f200f220920489ca2b5937696c31910160405180910390a3505050565b60026101055403611f6d5760405162461bcd60e51b815260206004820152601f60248201527f5265656e7472616e637947756172643a207265656e7472616e742063616c6c006044820152606401610a62565b600261010555565b611f81848484846126a7565b60018151111561125b5760005b835181101561106c57611fba848281518110611fac57611fac613eba565b602002602001015183611290565b80611fc481613ed0565b915050611f8e565b6127106001600160601b038216111561203a5760405162461bcd60e51b815260206004820152602a60248201527f455243323938313a20726f79616c7479206665652077696c6c206578636565646044820152692073616c65507269636560b01b6064820152608401610a62565b6001600160a01b0382166120905760405162461bcd60e51b815260206004820152601b60248201527f455243323938313a20496e76616c696420706172616d657465727300000000006044820152606401610a62565b6040805180820182526001600160a01b0393841681526001600160601b039283166020808301918252600096875261013890529190942093519051909116600160a01b029116179055565b6120e3612661565b846120ec6119ef565b6001600160a01b0316816001600160a01b031614806121125750612112816107b66119ef565b61212e5760405162461bcd60e51b8152600401610a629061407d565b6001600160a01b0385166121925760405162461bcd60e51b815260206004820152602560248201527f455243313135353a207472616e7366657220746f20746865207a65726f206164604482015264647265737360d81b6064820152608401610a62565b600061219c6119ef565b90506121b68188886121ad8961290b565b61106c8961290b565b600085815260ff602090815260408083206001600160a01b038b1684529091529020548481101561223c5760405162461bcd60e51b815260206004820152602a60248201527f455243313135353a20696e73756666696369656e742062616c616e636520666f60448201526939103a3930b739b332b960b11b6064820152608401610a62565b6122468582614006565b600087815260ff602090815260408083206001600160a01b038d81168552925280832093909355891681529081208054879290612284908490613c5e565b909155505060408051878152602081018790526001600160a01b03808a16928b82169291861691600080516020614293833981519152910160405180910390a46122d2828989898989612956565b5050505050505050565b826122e56119ef565b6001600160a01b0316816001600160a01b0316148061230b575061230b816107b66119ef565b6123275760405162461bcd60e51b8152600401610a629061407d565b61125b848484612ab1565b8261233b6119ef565b6001600160a01b0316816001600160a01b031614806123615750612361816107b66119ef565b61237d5760405162461bcd60e51b8152600401610a629061407d565b61125b848484612cc6565b60006001600160e01b03198216636cdb3d1360e11b14806123b957506001600160e01b031982166303a24d0760e21b145b8061088a57506301ffc9a760e01b6001600160e01b031983161461088a565b600030330361242e57600080368080601f0160208091040260200160405190810160405280939291908181526020018383808284376000920191909152505050503601516001600160a01b031691506124319050565b50335b90565b60006040518060800160405280604381526020016142b36043913980516020918201208351848301516040808701518051908601209051612494950193845260208401929092526001600160a01b03166040830152606082015260800190565b604051602081830303815290604052805190602001209050919050565b60006124bc60975490565b60405161190160f01b6020820152602281019190915260428101839052606201612494565b600054610100900460ff166125085760405162461bcd60e51b8152600401610a6290614032565b612513848483612f35565b61125b82612f87565b60cb5460ff166110a25760405162461bcd60e51b815260206004820152601460248201527314185d5cd8589b194e881b9bdd081c185d5cd95960621b6044820152606401610a62565b61256d612661565b60006125776119ef565b9050612592816000876125898861290b565b61106c8861290b565b61259c8484612fbe565b600084815260ff602090815260408083206001600160a01b0389168452909152812080548592906125ce908490613c5e565b909155505060008481526101006020526040812080548592906125f2908490613c5e565b90915550600090506126038561303c565b9050856001600160a01b0316816001600160a01b0316836001600160a01b0316600080516020614293833981519152888860405161264b929190918252602082015260400190565b60405180910390a4610e04828288888888612956565b60cb5460ff16156110a25760405162461bcd60e51b815260206004820152601060248201526f14185d5cd8589b194e881c185d5cd95960821b6044820152606401610a62565b6126af612661565b81518351146127195760405162461bcd60e51b815260206004820152603060248201527f455243313135355472616461626c652362617463684d696e743a20494e56414c60448201526f09288be82a4a482b2a6be988a9c8ea8960831b6064820152608401610a62565b8251600061273c85828461272f5761272f613eba565b602002602001015161303c565b905060006127486119ef565b905060005b8381101561289c57600087828151811061276957612769613eba565b60200260200101519050600087838151811061278757612787613eba565b6020026020010151905061279b8282612fbe565b846001600160a01b03166127ae8361303c565b6001600160a01b03161461282a5760405162461bcd60e51b815260206004820152603760248201527f455243313135355472616461626c652362617463684d696e743a204d554c544960448201527f504c455f4f524947494e535f4e4f545f414c4c4f5745440000000000000000006064820152608401610a62565b600082815260ff602090815260408083206001600160a01b038e1684529091528120805483929061285c908490613c5e565b90915550506000828152610100602052604081208054839290612880908490613c5e565b925050819055505050808061289490613ed0565b91505061274d565b50866001600160a01b0316826001600160a01b0316826001600160a01b03167f4a39dc06d4c0dbc64b70af90fd698a233a518aa5d07e595d983b8c0526c8f7fb89896040516128ec9291906140cd565b60405180910390a4612902818389898989613047565b50505050505050565b6040805160018082528183019092526060916000919060208083019080368337019050509050828160008151811061294557612945613eba565b602090810291909101015292915050565b6001600160a01b0384163b15610e045760405163f23a6e6160e01b81526001600160a01b0385169063f23a6e619061299a90899089908890889088906004016140f2565b6020604051808303816000875af19250505080156129d5575060408051601f3d908101601f191682019092526129d291810190614137565b60015b612a81576129e1614154565b806308c379a003612a1a57506129f561416f565b80612a005750612a1c565b8060405162461bcd60e51b8152600401610a629190613422565b505b60405162461bcd60e51b815260206004820152603460248201527f455243313135353a207472616e7366657220746f206e6f6e20455243313135356044820152732932b1b2b4bb32b91034b6b83632b6b2b73a32b960611b6064820152608401610a62565b6001600160e01b0319811663f23a6e6160e01b146129025760405162461bcd60e51b8152600401610a62906141f8565b612ab9612661565b6001600160a01b038316612b1d5760405162461bcd60e51b815260206004820152602560248201527f45524331313535235f6275726e3a204255524e5f46524f4d5f5a45524f5f4144604482015264445245535360d81b6064820152608401610a62565b60008111612b795760405162461bcd60e51b815260206004820152602360248201527f45524331313535235f6275726e3a20414d4f554e545f4c4553535f5448414e5f6044820152624f4e4560e81b6064820152608401610a62565b6000612b836119ef565b9050612bb481856000612b958761290b565b612b9e8761290b565b5050604080516020810190915260009052505050565b600083815260ff602090815260408083206001600160a01b038816845290915290205482811015612c355760405162461bcd60e51b815260206004820152602560248201527f45524331313535235f6275726e3a20414d4f554e545f455843454544535f42416044820152644c414e434560d81b6064820152608401610a62565b612c3f8382614006565b600085815260ff602090815260408083206001600160a01b038a16845282528083209390935586825261010090529081208054859290612c80908490614006565b909155505060408051858152602081018590526000916001600160a01b038881169290861691600080516020614293833981519152910160405180910390a45050505050565b612cce612661565b6001600160a01b038316612d245760405162461bcd60e51b815260206004820152601f60248201527f455243313135353a204255524e5f46524f4d5f5a45524f5f41444452455353006044820152606401610a62565b8051825114612d815760405162461bcd60e51b8152602060048201526024808201527f455243313135353a204944535f414d4f554e54535f4c454e4754485f4d49534d604482015263082a886960e31b6064820152608401610a62565b6000612d8b6119ef565b604080516020810190915260009052905060005b8351811015612ed6576000848281518110612dbc57612dbc613eba565b602002602001015190506000848381518110612dda57612dda613eba565b602090810291909101810151600084815260ff835260408082206001600160a01b038c168352909352919091205490915081811015612e6e5760405162461bcd60e51b815260206004820152602a60248201527f45524331313535235f6275726e42617463683a20414d4f554e545f455843454560448201526944535f42414c414e434560b01b6064820152608401610a62565b612e788282614006565b600084815260ff602090815260408083206001600160a01b038d16845282528083209390935585825261010090529081208054849290612eb9908490614006565b925050819055505050508080612ece90613ed0565b915050612d9f565b5060006001600160a01b0316846001600160a01b0316826001600160a01b03167f4a39dc06d4c0dbc64b70af90fd698a233a518aa5d07e595d983b8c0526c8f7fb8686604051612f279291906140cd565b60405180910390a450505050565b600054610100900460ff16612f5c5760405162461bcd60e51b8152600401610a6290614032565b612f64613102565b612f7c60405180602001604052806000815250613139565b6118a1838383613169565b600054610100900460ff16612fae5760405162461bcd60e51b8152600401610a6290614032565b80511561172e5761172e81610e0c565b612fc78261198d565b811115610e455760405162461bcd60e51b815260206004820152603c60248201527f4173736574436f6e7472616374235f6265666f72654d696e743a205155414e5460448201527f4954595f455843454544535f544f4b454e5f535550504c595f434150000000006064820152608401610a62565b600061088a826119d5565b6001600160a01b0384163b15610e045760405163bc197c8160e01b81526001600160a01b0385169063bc197c819061308b9089908990889088908890600401614240565b6020604051808303816000875af19250505080156130c6575060408051601f3d908101601f191682019092526130c391810190614137565b60015b6130d2576129e1614154565b6001600160e01b0319811663bc197c8160e01b146129025760405162461bcd60e51b8152600401610a62906141f8565b600054610100900460ff166131295760405162461bcd60e51b8152600401610a6290614032565b6110a26131346119ef565b611d40565b600054610100900460ff166131605760405162461bcd60e51b8152600401610a6290614032565b61172e8161325b565b600054610100900460ff166131905760405162461bcd60e51b8152600401610a6290614032565b60fd61319c8482613dc2565b5060fe6131a98382613dc2565b5061010180546001600160a01b0319166001600160a01b03831617905560fd80546118a191906131d890613c71565b80601f016020809104026020016040519081016040528092919081815260200182805461320490613c71565b80156132515780601f1061322657610100808354040283529160200191613251565b820191906000526020600020905b81548152906001019060200180831161323457829003601f168201915b5050505050613267565b6067610e458282613dc2565b600054610100900460ff1661328e5760405162461bcd60e51b8152600401610a6290614032565b61172e81600054610100900460ff166132b95760405162461bcd60e51b8152600401610a6290614032565b61172e816040518060800160405280604f81526020016142f6604f9139805160209182012082519282019290922060408051808201825260018152603160f81b90840152805180840194909452838101919091527fc89efdaa54c0f20c7adf612882df0950f5a951637e0307cdcb4c672f298b8bc660608401523060808401524660a0808501919091528151808503909101815260c090930190528151910120609755565b80356001600160a01b038116811461121157600080fd5b6000806040838503121561338857600080fd5b6133918361335e565b946020939093013593505050565b6001600160e01b03198116811461172e57600080fd5b6000602082840312156133c757600080fd5b81356116618161339f565b60005b838110156133ed5781810151838201526020016133d5565b50506000910152565b6000815180845261340e8160208601602086016133d2565b601f01601f19169290920160200192915050565b60208152600061166160208301846133f6565b60006020828403121561344757600080fd5b5035919050565b634e487b7160e01b600052604160045260246000fd5b601f8201601f191681016001600160401b03811182821017156134895761348961344e565b6040525050565b600082601f8301126134a157600080fd5b81356001600160401b038111156134ba576134ba61344e565b6040516134d1601f8301601f191660200182613464565b8181528460208386010111156134e657600080fd5b816020850160208301376000918101602001919091529392505050565b600080600080600060a0868803121561351b57600080fd5b6135248661335e565b945060208601356001600160401b0381111561353f57600080fd5b61354b88828901613490565b9450506040860135925060608601359150608086013560ff8116811461357057600080fd5b809150509295509295909350565b80356001600160601b038116811461121157600080fd5b600080600080600060a086880312156135ad57600080fd5b85356001600160401b03808211156135c457600080fd5b6135d089838a01613490565b965060208801359150808211156135e657600080fd5b6135f289838a01613490565b9550604088013591508082111561360857600080fd5b5061361588828901613490565b9350506136246060870161357e565b91506136326080870161335e565b90509295509295909350565b60006020828403121561365057600080fd5b81356001600160401b0381111561366657600080fd5b61088684828501613490565b6000806040838503121561368557600080fd5b50508035926020909101359150565b6000602082840312156136a657600080fd5b6116618261335e565b60006001600160401b038211156136c8576136c861344e565b5060051b60200190565b600082601f8301126136e357600080fd5b813560206136f0826136af565b6040516136fd8282613464565b83815260059390931b850182019282810191508684111561371d57600080fd5b8286015b848110156137385780358352918301918301613721565b509695505050505050565b600080600080600060a0868803121561375b57600080fd5b6137648661335e565b94506137726020870161335e565b935060408601356001600160401b038082111561378e57600080fd5b61379a89838a016136d2565b945060608801359150808211156137b057600080fd5b6137bc89838a016136d2565b935060808801359150808211156137d257600080fd5b506137df88828901613490565b9150509295509295909350565b600080604083850312156137ff57600080fd5b8235915060208301356001600160401b0381111561381c57600080fd5b61382885828601613490565b9150509250929050565b6000806040838503121561384557600080fd5b82356001600160401b038082111561385c57600080fd5b818501915085601f83011261387057600080fd5b8135602061387d826136af565b60405161388a8282613464565b83815260059390931b85018201928281019150898411156138aa57600080fd5b948201945b838610156138cf576138c08661335e565b825294820194908201906138af565b965050860135925050808211156138e557600080fd5b50613828858286016136d2565b600081518084526020808501945080840160005b8381101561392257815187529582019590820190600101613906565b509495945050505050565b60208152600061166160208301846138f2565b6000806000806080858703121561395657600080fd5b61395f8561335e565b9350602085013592506040850135915060608501356001600160401b0381111561398857600080fd5b61399487828801613490565b91505092959194509250565b600080604083850312156139b357600080fd5b823591506139c36020840161335e565b90509250929050565b600080604083850312156139df57600080fd5b6139e88361335e565b9150602083013580151581146139fd57600080fd5b809150509250929050565b60008060008060808587031215613a1e57600080fd5b613a278561335e565b935060208501356001600160401b0380821115613a4357600080fd5b613a4f888389016136d2565b94506040870135915080821115613a6557600080fd5b613a71888389016136d2565b93506060870135915080821115613a8757600080fd5b5061399487828801613490565b600060208284031215613aa657600080fd5b6116618261357e565b600080600080600060a08688031215613ac757600080fd5b613ad08661335e565b9450602086013593506040860135925060608601356001600160401b03811115613af957600080fd5b613b0588828901613490565b9250506136326080870161357e565b60008060408385031215613b2757600080fd5b613b308361335e565b91506139c36020840161335e565b600080600080600060a08688031215613b5657600080fd5b613b5f8661335e565b9450613b6d6020870161335e565b9350604086013592506060860135915060808601356001600160401b03811115613b9657600080fd5b6137df88828901613490565b600080600060608486031215613bb757600080fd5b613bc08461335e565b95602085013595506040909401359392505050565b600080600060608486031215613bea57600080fd5b613bf38461335e565b925060208401356001600160401b0380821115613c0f57600080fd5b613c1b878388016136d2565b93506040860135915080821115613c3157600080fd5b50613c3e868287016136d2565b9150509250925092565b634e487b7160e01b600052601160045260246000fd5b8082018082111561088a5761088a613c48565b600181811c90821680613c8557607f821691505b602082108103613ca557634e487b7160e01b600052602260045260246000fd5b50919050565b6001600160a01b03848116825283166020820152606060408201819052600090613cd7908301846133f6565b95945050505050565b60008351613cf28184602088016133d2565b60609390931b6001600160601b0319169190920190815260140192915050565b60008251613d248184602087016133d2565b9190910192915050565b6020808252602e908201527f455243313135355472616461626c65236f6e6c794f776e65723a2043414c4c4560408201526d292fa4a9afa727aa2fa7aba722a960911b606082015260800190565b601f8211156118a157600081815260208120601f850160051c81016020861015613da35750805b601f850160051c820191505b81811015610e0457828155600101613daf565b81516001600160401b03811115613ddb57613ddb61344e565b613def81613de98454613c71565b84613d7c565b602080601f831160018114613e245760008415613e0c5750858301515b600019600386901b1c1916600185901b178555610e04565b600085815260208120601f198616915b82811015613e5357888601518255948401946001909101908401613e34565b5085821015613e715787850151600019600388901b60f8161c191681555b5050505050600190811b01905550565b808202811582820484141761088a5761088a613c48565b600082613eb557634e487b7160e01b600052601260045260246000fd5b500490565b634e487b7160e01b600052603260045260246000fd5b600060018201613ee257613ee2613c48565b5060010190565b60208082526035908201527f4173736574436f6e74726163745368617265642363726561746f724f6e6c793a6040820152740813d3931657d0d491505513d497d0531313d5d151605a1b606082015260800190565b60208082526037908201527f4173736574436f6e7472616374236f6e6c79496d7065726d616e656e7455524960408201527f3a205552495f43414e4e4f545f42455f4348414e474544000000000000000000606082015260800190565b60208082526045908201527f4173736574436f6e7472616374536861726564236f6e6c7946756c6c546f6b6560408201527f6e4f776e65723a204f4e4c595f46554c4c5f544f4b454e5f4f574e45525f414c6060820152641313d5d15160da1b608082015260a00190565b8181038181111561088a5761088a613c48565b60ff818116838216019081111561088a5761088a613c48565b6020808252602b908201527f496e697469616c697a61626c653a20636f6e7472616374206973206e6f74206960408201526a6e697469616c697a696e6760a81b606082015260800190565b60208082526030908201527f455243313135355472616461626c65236f6e6c79417070726f7665643a20434160408201526f1313115497d393d517d0531313d5d15160821b606082015260800190565b6040815260006140e060408301856138f2565b8281036020840152613cd781856138f2565b6001600160a01b03868116825285166020820152604081018490526060810183905260a06080820181905260009061412c908301846133f6565b979650505050505050565b60006020828403121561414957600080fd5b81516116618161339f565b600060033d11156124315760046000803e5060005160e01c90565b600060443d101561417d5790565b6040516003193d81016004833e81513d6001600160401b0381602484011181841117156141ac57505050505090565b82850191508151818111156141c45750505050505090565b843d87010160208285010111156141de5750505050505090565b6141ed60208286010187613464565b509095945050505050565b60208082526028908201527f455243313135353a204552433131353552656365697665722072656a656374656040820152676420746f6b656e7360c01b606082015260800190565b6001600160a01b0386811682528516602082015260a06040820181905260009061426c908301866138f2565b828103606084015261427e81866138f2565b90508281036080840152610ba381856133f656fec3d58168c5ae7397731d063d5bbf3d657854427343f4c083240f7aacaa2d0f624d6574615472616e73616374696f6e2875696e74323536206e6f6e63652c616464726573732066726f6d2c62797465732066756e6374696f6e5369676e617475726529454950373132446f6d61696e28737472696e67206e616d652c737472696e672076657273696f6e2c6164647265737320766572696679696e67436f6e74726163742c627974657333322073616c7429a2646970667358221220fb2cfa526a8705533f631fc59414a9317a532043043d16b7a47929cc93ae9dbb64736f6c63430008110033","opcodes":"PUSH1 0x80 PUSH1 0x40 MSTORE CALLVALUE DUP1 ISZERO PUSH2 0x10 JUMPI PUSH1 0x0 DUP1 REVERT JUMPDEST POP PUSH2 0x437A DUP1 PUSH2 0x20 PUSH1 0x0 CODECOPY PUSH1 0x0 RETURN INVALID PUSH1 0x80 PUSH1 0x40 MSTORE PUSH1 0x4 CALLDATASIZE LT PUSH2 0x266 JUMPI PUSH1 0x0 CALLDATALOAD PUSH1 0xE0 SHR DUP1 PUSH4 0x715018A6 GT PUSH2 0x144 JUMPI DUP1 PUSH4 0xC06B91C3 GT PUSH2 0xB6 JUMPI DUP1 PUSH4 0xE985E9C5 GT PUSH2 0x7A JUMPI DUP1 PUSH4 0xE985E9C5 EQ PUSH2 0x79B JUMPI DUP1 PUSH4 0xF242432A EQ PUSH2 0x7BB JUMPI DUP1 PUSH4 0xF2FDE38B EQ PUSH2 0x7DB JUMPI DUP1 PUSH4 0xF5298ACA EQ PUSH2 0x7FB JUMPI DUP1 PUSH4 0xF6EB127A EQ PUSH2 0x81B JUMPI DUP1 PUSH4 0xF923E8C3 EQ PUSH2 0x83B JUMPI PUSH1 0x0 DUP1 REVERT JUMPDEST DUP1 PUSH4 0xC06B91C3 EQ PUSH2 0x706 JUMPI DUP1 PUSH4 0xC311C523 EQ PUSH2 0x726 JUMPI DUP1 PUSH4 0xCD7C0326 EQ PUSH2 0x73A JUMPI DUP1 PUSH4 0xD26EA6C0 EQ PUSH2 0x75B JUMPI DUP1 PUSH4 0xD3B9FF7F EQ PUSH2 0x77B JUMPI PUSH1 0x0 DUP1 REVERT JUMPDEST DUP1 PUSH4 0x8DA5CB5B GT PUSH2 0x108 JUMPI DUP1 PUSH4 0x8DA5CB5B EQ PUSH2 0x645 JUMPI DUP1 PUSH4 0x91686F53 EQ PUSH2 0x663 JUMPI DUP1 PUSH4 0x95D89B41 EQ PUSH2 0x683 JUMPI DUP1 PUSH4 0xA22CB465 EQ PUSH2 0x698 JUMPI DUP1 PUSH4 0xB48AB8B6 EQ PUSH2 0x6B8 JUMPI DUP1 PUSH4 0xBD85B039 EQ PUSH2 0x6D8 JUMPI PUSH1 0x0 DUP1 REVERT JUMPDEST DUP1 PUSH4 0x715018A6 EQ PUSH2 0x5BB JUMPI DUP1 PUSH4 0x731133E9 EQ PUSH2 0x5D0 JUMPI DUP1 PUSH4 0x8456CB59 EQ PUSH2 0x5F0 JUMPI DUP1 PUSH4 0x862440E2 EQ PUSH2 0x605 JUMPI DUP1 PUSH4 0x869F7594 EQ PUSH2 0x625 JUMPI PUSH1 0x0 DUP1 REVERT JUMPDEST DUP1 PUSH4 0x2A55205A GT PUSH2 0x1DD JUMPI DUP1 PUSH4 0x3F4BA83A GT PUSH2 0x1A1 JUMPI DUP1 PUSH4 0x3F4BA83A EQ PUSH2 0x4C0 JUMPI DUP1 PUSH4 0x4E1273F4 EQ PUSH2 0x4D5 JUMPI DUP1 PUSH4 0x4F558E79 EQ PUSH2 0x502 JUMPI DUP1 PUSH4 0x510B5158 EQ PUSH2 0x532 JUMPI DUP1 PUSH4 0x5C975ABB EQ PUSH2 0x56A JUMPI DUP1 PUSH4 0x6D0042B8 EQ PUSH2 0x582 JUMPI PUSH1 0x0 DUP1 REVERT JUMPDEST DUP1 PUSH4 0x2A55205A EQ PUSH2 0x3F8 JUMPI DUP1 PUSH4 0x2D0335AB EQ PUSH2 0x437 JUMPI DUP1 PUSH4 0x2EB2C2D6 EQ PUSH2 0x46D JUMPI DUP1 PUSH4 0x3408E470 EQ PUSH2 0x48D JUMPI DUP1 PUSH4 0x3588AD7C EQ PUSH2 0x4A0 JUMPI PUSH1 0x0 DUP1 REVERT JUMPDEST DUP1 PUSH4 0xE89341C GT PUSH2 0x22F JUMPI DUP1 PUSH4 0xE89341C EQ PUSH2 0x325 JUMPI DUP1 PUSH4 0xF7E5970 EQ PUSH2 0x345 JUMPI DUP1 PUSH4 0x143045B5 EQ PUSH2 0x372 JUMPI DUP1 PUSH4 0x1E7D9DBB EQ PUSH2 0x392 JUMPI DUP1 PUSH4 0x20379EE5 EQ PUSH2 0x3C3 JUMPI DUP1 PUSH4 0x24D88785 EQ PUSH2 0x3D8 JUMPI PUSH1 0x0 DUP1 REVERT JUMPDEST DUP1 PUSH3 0xFDD58E EQ PUSH2 0x26B JUMPI DUP1 PUSH4 0x1FFC9A7 EQ PUSH2 0x29E JUMPI DUP1 PUSH4 0x6FDDE03 EQ PUSH2 0x2CE JUMPI DUP1 PUSH4 0x7291F8F EQ PUSH2 0x2F0 JUMPI DUP1 PUSH4 0xC53C51C EQ PUSH2 0x312 JUMPI JUMPDEST PUSH1 0x0 DUP1 REVERT JUMPDEST CALLVALUE DUP1 ISZERO PUSH2 0x277 JUMPI PUSH1 0x0 DUP1 REVERT JUMPDEST POP PUSH2 0x28B PUSH2 0x286 CALLDATASIZE PUSH1 0x4 PUSH2 0x3375 JUMP JUMPDEST PUSH2 0x850 JUMP JUMPDEST PUSH1 0x40 MLOAD SWAP1 DUP2 MSTORE PUSH1 0x20 ADD JUMPDEST PUSH1 0x40 MLOAD DUP1 SWAP2 SUB SWAP1 RETURN JUMPDEST CALLVALUE DUP1 ISZERO PUSH2 0x2AA JUMPI PUSH1 0x0 DUP1 REVERT JUMPDEST POP PUSH2 0x2BE PUSH2 0x2B9 CALLDATASIZE PUSH1 0x4 PUSH2 0x33B5 JUMP JUMPDEST PUSH2 0x890 JUMP JUMPDEST PUSH1 0x40 MLOAD SWAP1 ISZERO ISZERO DUP2 MSTORE PUSH1 0x20 ADD PUSH2 0x295 JUMP JUMPDEST CALLVALUE DUP1 ISZERO PUSH2 0x2DA JUMPI PUSH1 0x0 DUP1 REVERT JUMPDEST POP PUSH2 0x2E3 PUSH2 0x8EB JUMP JUMPDEST PUSH1 0x40 MLOAD PUSH2 0x295 SWAP2 SWAP1 PUSH2 0x3422 JUMP JUMPDEST CALLVALUE DUP1 ISZERO PUSH2 0x2FC JUMPI PUSH1 0x0 DUP1 REVERT JUMPDEST POP PUSH2 0x310 PUSH2 0x30B CALLDATASIZE PUSH1 0x4 PUSH2 0x3435 JUMP JUMPDEST PUSH2 0x979 JUMP JUMPDEST STOP JUMPDEST PUSH2 0x2E3 PUSH2 0x320 CALLDATASIZE PUSH1 0x4 PUSH2 0x3503 JUMP JUMPDEST PUSH2 0x9D2 JUMP JUMPDEST CALLVALUE DUP1 ISZERO PUSH2 0x331 JUMPI PUSH1 0x0 DUP1 REVERT JUMPDEST POP PUSH2 0x2E3 PUSH2 0x340 CALLDATASIZE PUSH1 0x4 PUSH2 0x3435 JUMP JUMPDEST PUSH2 0xBAF JUMP JUMPDEST CALLVALUE DUP1 ISZERO PUSH2 0x351 JUMPI PUSH1 0x0 DUP1 REVERT JUMPDEST POP PUSH2 0x2E3 PUSH1 0x40 MLOAD DUP1 PUSH1 0x40 ADD PUSH1 0x40 MSTORE DUP1 PUSH1 0x1 DUP2 MSTORE PUSH1 0x20 ADD PUSH1 0x31 PUSH1 0xF8 SHL DUP2 MSTORE POP DUP2 JUMP JUMPDEST CALLVALUE DUP1 ISZERO PUSH2 0x37E JUMPI PUSH1 0x0 DUP1 REVERT JUMPDEST POP PUSH2 0x310 PUSH2 0x38D CALLDATASIZE PUSH1 0x4 PUSH2 0x3595 JUMP JUMPDEST PUSH2 0xCF1 JUMP JUMPDEST CALLVALUE DUP1 ISZERO PUSH2 0x39E JUMPI PUSH1 0x0 DUP1 REVERT JUMPDEST POP PUSH2 0x2BE PUSH2 0x3AD CALLDATASIZE PUSH1 0x4 PUSH2 0x3435 JUMP JUMPDEST PUSH1 0x0 SWAP1 DUP2 MSTORE PUSH2 0x104 PUSH1 0x20 MSTORE PUSH1 0x40 SWAP1 KECCAK256 SLOAD PUSH1 0xFF AND SWAP1 JUMP JUMPDEST CALLVALUE DUP1 ISZERO PUSH2 0x3CF JUMPI PUSH1 0x0 DUP1 REVERT JUMPDEST POP PUSH1 0x97 SLOAD PUSH2 0x28B JUMP JUMPDEST CALLVALUE DUP1 ISZERO PUSH2 0x3E4 JUMPI PUSH1 0x0 DUP1 REVERT JUMPDEST POP PUSH2 0x310 PUSH2 0x3F3 CALLDATASIZE PUSH1 0x4 PUSH2 0x363E JUMP JUMPDEST PUSH2 0xE0C JUMP JUMPDEST CALLVALUE DUP1 ISZERO PUSH2 0x404 JUMPI PUSH1 0x0 DUP1 REVERT JUMPDEST POP PUSH2 0x418 PUSH2 0x413 CALLDATASIZE PUSH1 0x4 PUSH2 0x3672 JUMP JUMPDEST PUSH2 0xE49 JUMP JUMPDEST PUSH1 0x40 DUP1 MLOAD PUSH1 0x1 PUSH1 0x1 PUSH1 0xA0 SHL SUB SWAP1 SWAP4 AND DUP4 MSTORE PUSH1 0x20 DUP4 ADD SWAP2 SWAP1 SWAP2 MSTORE ADD PUSH2 0x295 JUMP JUMPDEST CALLVALUE DUP1 ISZERO PUSH2 0x443 JUMPI PUSH1 0x0 DUP1 REVERT JUMPDEST POP PUSH2 0x28B PUSH2 0x452 CALLDATASIZE PUSH1 0x4 PUSH2 0x3694 JUMP JUMPDEST PUSH1 0x1 PUSH1 0x1 PUSH1 0xA0 SHL SUB AND PUSH1 0x0 SWAP1 DUP2 MSTORE PUSH1 0x98 PUSH1 0x20 MSTORE PUSH1 0x40 SWAP1 KECCAK256 SLOAD SWAP1 JUMP JUMPDEST CALLVALUE DUP1 ISZERO PUSH2 0x479 JUMPI PUSH1 0x0 DUP1 REVERT JUMPDEST POP PUSH2 0x310 PUSH2 0x488 CALLDATASIZE PUSH1 0x4 PUSH2 0x3743 JUMP JUMPDEST PUSH2 0xEF7 JUMP JUMPDEST CALLVALUE DUP1 ISZERO PUSH2 0x499 JUMPI PUSH1 0x0 DUP1 REVERT JUMPDEST POP CHAINID PUSH2 0x28B JUMP JUMPDEST CALLVALUE DUP1 ISZERO PUSH2 0x4AC JUMPI PUSH1 0x0 DUP1 REVERT JUMPDEST POP PUSH2 0x310 PUSH2 0x4BB CALLDATASIZE PUSH1 0x4 PUSH2 0x37EC JUMP JUMPDEST PUSH2 0xFCB JUMP JUMPDEST CALLVALUE DUP1 ISZERO PUSH2 0x4CC JUMPI PUSH1 0x0 DUP1 REVERT JUMPDEST POP PUSH2 0x310 PUSH2 0x1073 JUMP JUMPDEST CALLVALUE DUP1 ISZERO PUSH2 0x4E1 JUMPI PUSH1 0x0 DUP1 REVERT JUMPDEST POP PUSH2 0x4F5 PUSH2 0x4F0 CALLDATASIZE PUSH1 0x4 PUSH2 0x3832 JUMP JUMPDEST PUSH2 0x10A4 JUMP JUMPDEST PUSH1 0x40 MLOAD PUSH2 0x295 SWAP2 SWAP1 PUSH2 0x392D JUMP JUMPDEST CALLVALUE DUP1 ISZERO PUSH2 0x50E JUMPI PUSH1 0x0 DUP1 REVERT JUMPDEST POP PUSH2 0x2BE PUSH2 0x51D CALLDATASIZE PUSH1 0x4 PUSH2 0x3435 JUMP JUMPDEST PUSH1 0x0 SWAP1 DUP2 MSTORE PUSH2 0x100 PUSH1 0x20 MSTORE PUSH1 0x40 SWAP1 KECCAK256 SLOAD ISZERO ISZERO SWAP1 JUMP JUMPDEST CALLVALUE DUP1 ISZERO PUSH2 0x53E JUMPI PUSH1 0x0 DUP1 REVERT JUMPDEST POP PUSH2 0x552 PUSH2 0x54D CALLDATASIZE PUSH1 0x4 PUSH2 0x3435 JUMP JUMPDEST PUSH2 0x11CD JUMP JUMPDEST PUSH1 0x40 MLOAD PUSH1 0x1 PUSH1 0x1 PUSH1 0xA0 SHL SUB SWAP1 SWAP2 AND DUP2 MSTORE PUSH1 0x20 ADD PUSH2 0x295 JUMP JUMPDEST CALLVALUE DUP1 ISZERO PUSH2 0x576 JUMPI PUSH1 0x0 DUP1 REVERT JUMPDEST POP PUSH1 0xCB SLOAD PUSH1 0xFF AND PUSH2 0x2BE JUMP JUMPDEST CALLVALUE DUP1 ISZERO PUSH2 0x58E JUMPI PUSH1 0x0 DUP1 REVERT JUMPDEST POP PUSH2 0x16A SLOAD PUSH2 0x5A3 SWAP1 PUSH1 0x1 PUSH1 0x1 PUSH1 0x60 SHL SUB AND DUP2 JUMP JUMPDEST PUSH1 0x40 MLOAD PUSH1 0x1 PUSH1 0x1 PUSH1 0x60 SHL SUB SWAP1 SWAP2 AND DUP2 MSTORE PUSH1 0x20 ADD PUSH2 0x295 JUMP JUMPDEST CALLVALUE DUP1 ISZERO PUSH2 0x5C7 JUMPI PUSH1 0x0 DUP1 REVERT JUMPDEST POP PUSH2 0x310 PUSH2 0x1216 JUMP JUMPDEST CALLVALUE DUP1 ISZERO PUSH2 0x5DC JUMPI PUSH1 0x0 DUP1 REVERT JUMPDEST POP PUSH2 0x310 PUSH2 0x5EB CALLDATASIZE PUSH1 0x4 PUSH2 0x3940 JUMP JUMPDEST PUSH2 0x1228 JUMP JUMPDEST CALLVALUE DUP1 ISZERO PUSH2 0x5FC JUMPI PUSH1 0x0 DUP1 REVERT JUMPDEST POP PUSH2 0x310 PUSH2 0x1261 JUMP JUMPDEST CALLVALUE DUP1 ISZERO PUSH2 0x611 JUMPI PUSH1 0x0 DUP1 REVERT JUMPDEST POP PUSH2 0x310 PUSH2 0x620 CALLDATASIZE PUSH1 0x4 PUSH2 0x37EC JUMP JUMPDEST PUSH2 0x1290 JUMP JUMPDEST CALLVALUE DUP1 ISZERO PUSH2 0x631 JUMPI PUSH1 0x0 DUP1 REVERT JUMPDEST POP PUSH2 0x28B PUSH2 0x640 CALLDATASIZE PUSH1 0x4 PUSH2 0x3435 JUMP JUMPDEST PUSH2 0x131D JUMP JUMPDEST CALLVALUE DUP1 ISZERO PUSH2 0x651 JUMPI PUSH1 0x0 DUP1 REVERT JUMPDEST POP PUSH1 0x99 SLOAD PUSH1 0x1 PUSH1 0x1 PUSH1 0xA0 SHL SUB AND PUSH2 0x552 JUMP JUMPDEST CALLVALUE DUP1 ISZERO PUSH2 0x66F JUMPI PUSH1 0x0 DUP1 REVERT JUMPDEST POP PUSH2 0x310 PUSH2 0x67E CALLDATASIZE PUSH1 0x4 PUSH2 0x39A0 JUMP JUMPDEST PUSH2 0x1328 JUMP JUMPDEST CALLVALUE DUP1 ISZERO PUSH2 0x68F JUMPI PUSH1 0x0 DUP1 REVERT JUMPDEST POP PUSH2 0x2E3 PUSH2 0x141B JUMP JUMPDEST CALLVALUE DUP1 ISZERO PUSH2 0x6A4 JUMPI PUSH1 0x0 DUP1 REVERT JUMPDEST POP PUSH2 0x310 PUSH2 0x6B3 CALLDATASIZE PUSH1 0x4 PUSH2 0x39CC JUMP JUMPDEST PUSH2 0x1428 JUMP JUMPDEST CALLVALUE DUP1 ISZERO PUSH2 0x6C4 JUMPI PUSH1 0x0 DUP1 REVERT JUMPDEST POP PUSH2 0x310 PUSH2 0x6D3 CALLDATASIZE PUSH1 0x4 PUSH2 0x3A08 JUMP JUMPDEST PUSH2 0x143A JUMP JUMPDEST CALLVALUE DUP1 ISZERO PUSH2 0x6E4 JUMPI PUSH1 0x0 DUP1 REVERT JUMPDEST POP PUSH2 0x28B PUSH2 0x6F3 CALLDATASIZE PUSH1 0x4 PUSH2 0x3435 JUMP JUMPDEST PUSH1 0x0 SWAP1 DUP2 MSTORE PUSH2 0x100 PUSH1 0x20 MSTORE PUSH1 0x40 SWAP1 KECCAK256 SLOAD SWAP1 JUMP JUMPDEST CALLVALUE DUP1 ISZERO PUSH2 0x712 JUMPI PUSH1 0x0 DUP1 REVERT JUMPDEST POP PUSH2 0x310 PUSH2 0x721 CALLDATASIZE PUSH1 0x4 PUSH2 0x3A94 JUMP JUMPDEST PUSH2 0x1506 JUMP JUMPDEST CALLVALUE DUP1 ISZERO PUSH2 0x732 JUMPI PUSH1 0x0 DUP1 REVERT JUMPDEST POP PUSH1 0x1 PUSH2 0x2BE JUMP JUMPDEST CALLVALUE DUP1 ISZERO PUSH2 0x746 JUMPI PUSH1 0x0 DUP1 REVERT JUMPDEST POP PUSH2 0x101 SLOAD PUSH2 0x552 SWAP1 PUSH1 0x1 PUSH1 0x1 PUSH1 0xA0 SHL SUB AND DUP2 JUMP JUMPDEST CALLVALUE DUP1 ISZERO PUSH2 0x767 JUMPI PUSH1 0x0 DUP1 REVERT JUMPDEST POP PUSH2 0x310 PUSH2 0x776 CALLDATASIZE PUSH1 0x4 PUSH2 0x3694 JUMP JUMPDEST PUSH2 0x1550 JUMP JUMPDEST CALLVALUE DUP1 ISZERO PUSH2 0x787 JUMPI PUSH1 0x0 DUP1 REVERT JUMPDEST POP PUSH2 0x310 PUSH2 0x796 CALLDATASIZE PUSH1 0x4 PUSH2 0x3AAF JUMP JUMPDEST PUSH2 0x159A JUMP JUMPDEST CALLVALUE DUP1 ISZERO PUSH2 0x7A7 JUMPI PUSH1 0x0 DUP1 REVERT JUMPDEST POP PUSH2 0x2BE PUSH2 0x7B6 CALLDATASIZE PUSH1 0x4 PUSH2 0x3B14 JUMP JUMPDEST PUSH2 0x1615 JUMP JUMPDEST CALLVALUE DUP1 ISZERO PUSH2 0x7C7 JUMPI PUSH1 0x0 DUP1 REVERT JUMPDEST POP PUSH2 0x310 PUSH2 0x7D6 CALLDATASIZE PUSH1 0x4 PUSH2 0x3B3E JUMP JUMPDEST PUSH2 0x1668 JUMP JUMPDEST CALLVALUE DUP1 ISZERO PUSH2 0x7E7 JUMPI PUSH1 0x0 DUP1 REVERT JUMPDEST POP PUSH2 0x310 PUSH2 0x7F6 CALLDATASIZE PUSH1 0x4 PUSH2 0x3694 JUMP JUMPDEST PUSH2 0x16B8 JUMP JUMPDEST CALLVALUE DUP1 ISZERO PUSH2 0x807 JUMPI PUSH1 0x0 DUP1 REVERT JUMPDEST POP PUSH2 0x310 PUSH2 0x816 CALLDATASIZE PUSH1 0x4 PUSH2 0x3BA2 JUMP JUMPDEST PUSH2 0x1731 JUMP JUMPDEST CALLVALUE DUP1 ISZERO PUSH2 0x827 JUMPI PUSH1 0x0 DUP1 REVERT JUMPDEST POP PUSH2 0x310 PUSH2 0x836 CALLDATASIZE PUSH1 0x4 PUSH2 0x3BD5 JUMP JUMPDEST PUSH2 0x17C8 JUMP JUMPDEST CALLVALUE DUP1 ISZERO PUSH2 0x847 JUMPI PUSH1 0x0 DUP1 REVERT JUMPDEST POP PUSH2 0x2E3 PUSH2 0x18A6 JUMP JUMPDEST PUSH1 0x0 DUP1 PUSH2 0x85D DUP5 DUP5 PUSH2 0x18B4 JUMP JUMPDEST SWAP1 POP PUSH2 0x869 DUP4 DUP6 PUSH2 0x1948 JUMP JUMPDEST PUSH2 0x873 JUMPI DUP1 PUSH2 0x886 JUMP JUMPDEST PUSH2 0x87C DUP4 PUSH2 0x198D JUMP JUMPDEST PUSH2 0x886 SWAP1 DUP3 PUSH2 0x3C5E JUMP JUMPDEST SWAP2 POP POP JUMPDEST SWAP3 SWAP2 POP POP JUMP JUMPDEST PUSH1 0x0 PUSH1 0x1 PUSH1 0x1 PUSH1 0xE0 SHL SUB NOT DUP3 AND PUSH4 0x6CDB3D13 PUSH1 0xE1 SHL EQ DUP1 PUSH2 0x8C1 JUMPI POP PUSH1 0x1 PUSH1 0x1 PUSH1 0xE0 SHL SUB NOT DUP3 AND PUSH4 0x3A24D07 PUSH1 0xE2 SHL EQ JUMPDEST DUP1 PUSH2 0x8DC JUMPI POP PUSH1 0x1 PUSH1 0x1 PUSH1 0xE0 SHL SUB NOT DUP3 AND PUSH4 0x152A902D PUSH1 0xE1 SHL EQ JUMPDEST DUP1 PUSH2 0x88A JUMPI POP PUSH2 0x88A DUP3 PUSH2 0x19B0 JUMP JUMPDEST PUSH1 0xFD DUP1 SLOAD PUSH2 0x8F8 SWAP1 PUSH2 0x3C71 JUMP JUMPDEST DUP1 PUSH1 0x1F ADD PUSH1 0x20 DUP1 SWAP2 DIV MUL PUSH1 0x20 ADD PUSH1 0x40 MLOAD SWAP1 DUP2 ADD PUSH1 0x40 MSTORE DUP1 SWAP3 SWAP2 SWAP1 DUP2 DUP2 MSTORE PUSH1 0x20 ADD DUP3 DUP1 SLOAD PUSH2 0x924 SWAP1 PUSH2 0x3C71 JUMP JUMPDEST DUP1 ISZERO PUSH2 0x971 JUMPI DUP1 PUSH1 0x1F LT PUSH2 0x946 JUMPI PUSH2 0x100 DUP1 DUP4 SLOAD DIV MUL DUP4 MSTORE SWAP2 PUSH1 0x20 ADD SWAP2 PUSH2 0x971 JUMP JUMPDEST DUP3 ADD SWAP2 SWAP1 PUSH1 0x0 MSTORE PUSH1 0x20 PUSH1 0x0 KECCAK256 SWAP1 JUMPDEST DUP2 SLOAD DUP2 MSTORE SWAP1 PUSH1 0x1 ADD SWAP1 PUSH1 0x20 ADD DUP1 DUP4 GT PUSH2 0x954 JUMPI DUP3 SWAP1 SUB PUSH1 0x1F AND DUP3 ADD SWAP2 JUMPDEST POP POP POP POP POP DUP2 JUMP JUMPDEST PUSH2 0x982 DUP2 PUSH2 0x19D5 JUMP JUMPDEST PUSH1 0x1 PUSH1 0x1 PUSH1 0xA0 SHL SUB AND PUSH1 0x0 PUSH2 0x995 PUSH2 0x19EF JUMP JUMPDEST PUSH1 0x1 PUSH1 0x1 PUSH1 0xA0 SHL SUB AND PUSH1 0x0 DUP1 MLOAD PUSH1 0x20 PUSH2 0x4293 DUP4 CODECOPY DUP2 MLOAD SWAP2 MSTORE DUP5 PUSH2 0x9B7 DUP7 PUSH2 0x19FE JUMP JUMPDEST PUSH1 0x40 DUP1 MLOAD SWAP3 DUP4 MSTORE PUSH1 0x20 DUP4 ADD SWAP2 SWAP1 SWAP2 MSTORE ADD PUSH1 0x40 MLOAD DUP1 SWAP2 SUB SWAP1 LOG4 POP JUMP JUMPDEST PUSH1 0x40 DUP1 MLOAD PUSH1 0x60 DUP2 DUP2 ADD DUP4 MSTORE PUSH1 0x1 PUSH1 0x1 PUSH1 0xA0 SHL SUB DUP9 AND PUSH1 0x0 DUP2 DUP2 MSTORE PUSH1 0x98 PUSH1 0x20 SWAP1 DUP2 MSTORE SWAP1 DUP6 SWAP1 KECCAK256 SLOAD DUP5 MSTORE DUP4 ADD MSTORE SWAP2 DUP2 ADD DUP7 SWAP1 MSTORE PUSH2 0xA10 DUP8 DUP3 DUP8 DUP8 DUP8 PUSH2 0x1A19 JUMP JUMPDEST PUSH2 0xA6B JUMPI PUSH1 0x40 MLOAD PUSH3 0x461BCD PUSH1 0xE5 SHL DUP2 MSTORE PUSH1 0x20 PUSH1 0x4 DUP3 ADD MSTORE PUSH1 0x21 PUSH1 0x24 DUP3 ADD MSTORE PUSH32 0x5369676E657220616E64207369676E617475726520646F206E6F74206D617463 PUSH1 0x44 DUP3 ADD MSTORE PUSH1 0xD PUSH1 0xFB SHL PUSH1 0x64 DUP3 ADD MSTORE PUSH1 0x84 ADD JUMPDEST PUSH1 0x40 MLOAD DUP1 SWAP2 SUB SWAP1 REVERT JUMPDEST PUSH1 0x1 PUSH1 0x1 PUSH1 0xA0 SHL SUB DUP8 AND PUSH1 0x0 SWAP1 DUP2 MSTORE PUSH1 0x98 PUSH1 0x20 MSTORE PUSH1 0x40 DUP2 KECCAK256 DUP1 SLOAD PUSH1 0x1 SWAP3 SWAP1 PUSH2 0xA94 SWAP1 DUP5 SWAP1 PUSH2 0x3C5E JUMP JUMPDEST SWAP1 SWAP2 SSTORE POP POP PUSH1 0x40 MLOAD PUSH32 0x5845892132946850460BFF5A0083F71031BC5BF9AADCD40F1DE79423EAC9B10B SWAP1 PUSH2 0xACD SWAP1 DUP10 SWAP1 CALLER SWAP1 DUP11 SWAP1 PUSH2 0x3CAB JUMP JUMPDEST PUSH1 0x40 MLOAD DUP1 SWAP2 SUB SWAP1 LOG1 PUSH1 0x0 DUP1 ADDRESS PUSH1 0x1 PUSH1 0x1 PUSH1 0xA0 SHL SUB AND DUP9 DUP11 PUSH1 0x40 MLOAD PUSH1 0x20 ADD PUSH2 0xAF5 SWAP3 SWAP2 SWAP1 PUSH2 0x3CE0 JUMP JUMPDEST PUSH1 0x40 DUP1 MLOAD PUSH1 0x1F NOT DUP2 DUP5 SUB ADD DUP2 MSTORE SWAP1 DUP3 SWAP1 MSTORE PUSH2 0xB0F SWAP2 PUSH2 0x3D12 JUMP JUMPDEST PUSH1 0x0 PUSH1 0x40 MLOAD DUP1 DUP4 SUB DUP2 PUSH1 0x0 DUP7 GAS CALL SWAP2 POP POP RETURNDATASIZE DUP1 PUSH1 0x0 DUP2 EQ PUSH2 0xB4C JUMPI PUSH1 0x40 MLOAD SWAP2 POP PUSH1 0x1F NOT PUSH1 0x3F RETURNDATASIZE ADD AND DUP3 ADD PUSH1 0x40 MSTORE RETURNDATASIZE DUP3 MSTORE RETURNDATASIZE PUSH1 0x0 PUSH1 0x20 DUP5 ADD RETURNDATACOPY PUSH2 0xB51 JUMP JUMPDEST PUSH1 0x60 SWAP2 POP JUMPDEST POP SWAP2 POP SWAP2 POP DUP2 PUSH2 0xBA3 JUMPI PUSH1 0x40 MLOAD PUSH3 0x461BCD PUSH1 0xE5 SHL DUP2 MSTORE PUSH1 0x20 PUSH1 0x4 DUP3 ADD MSTORE PUSH1 0x1C PUSH1 0x24 DUP3 ADD MSTORE PUSH32 0x46756E6374696F6E2063616C6C206E6F74207375636365737366756C00000000 PUSH1 0x44 DUP3 ADD MSTORE PUSH1 0x64 ADD PUSH2 0xA62 JUMP JUMPDEST SWAP9 SWAP8 POP POP POP POP POP POP POP POP JUMP JUMPDEST PUSH1 0x0 DUP2 DUP2 MSTORE PUSH2 0x103 PUSH1 0x20 MSTORE PUSH1 0x40 DUP2 KECCAK256 DUP1 SLOAD PUSH1 0x60 SWAP3 SWAP2 SWAP1 PUSH2 0xBCE SWAP1 PUSH2 0x3C71 JUMP JUMPDEST DUP1 PUSH1 0x1F ADD PUSH1 0x20 DUP1 SWAP2 DIV MUL PUSH1 0x20 ADD PUSH1 0x40 MLOAD SWAP1 DUP2 ADD PUSH1 0x40 MSTORE DUP1 SWAP3 SWAP2 SWAP1 DUP2 DUP2 MSTORE PUSH1 0x20 ADD DUP3 DUP1 SLOAD PUSH2 0xBFA SWAP1 PUSH2 0x3C71 JUMP JUMPDEST DUP1 ISZERO PUSH2 0xC47 JUMPI DUP1 PUSH1 0x1F LT PUSH2 0xC1C JUMPI PUSH2 0x100 DUP1 DUP4 SLOAD DIV MUL DUP4 MSTORE SWAP2 PUSH1 0x20 ADD SWAP2 PUSH2 0xC47 JUMP JUMPDEST DUP3 ADD SWAP2 SWAP1 PUSH1 0x0 MSTORE PUSH1 0x20 PUSH1 0x0 KECCAK256 SWAP1 JUMPDEST DUP2 SLOAD DUP2 MSTORE SWAP1 PUSH1 0x1 ADD SWAP1 PUSH1 0x20 ADD DUP1 DUP4 GT PUSH2 0xC2A JUMPI DUP3 SWAP1 SUB PUSH1 0x1F AND DUP3 ADD SWAP2 JUMPDEST POP POP POP POP POP SWAP1 POP DUP1 MLOAD PUSH1 0x0 EQ PUSH2 0xC5D JUMPI SWAP3 SWAP2 POP POP JUMP JUMPDEST PUSH2 0x102 DUP1 SLOAD PUSH2 0xC6B SWAP1 PUSH2 0x3C71 JUMP JUMPDEST DUP1 PUSH1 0x1F ADD PUSH1 0x20 DUP1 SWAP2 DIV MUL PUSH1 0x20 ADD PUSH1 0x40 MLOAD SWAP1 DUP2 ADD PUSH1 0x40 MSTORE DUP1 SWAP3 SWAP2 SWAP1 DUP2 DUP2 MSTORE PUSH1 0x20 ADD DUP3 DUP1 SLOAD PUSH2 0xC97 SWAP1 PUSH2 0x3C71 JUMP JUMPDEST DUP1 ISZERO PUSH2 0xCE4 JUMPI DUP1 PUSH1 0x1F LT PUSH2 0xCB9 JUMPI PUSH2 0x100 DUP1 DUP4 SLOAD DIV MUL DUP4 MSTORE SWAP2 PUSH1 0x20 ADD SWAP2 PUSH2 0xCE4 JUMP JUMPDEST DUP3 ADD SWAP2 SWAP1 PUSH1 0x0 MSTORE PUSH1 0x20 PUSH1 0x0 KECCAK256 SWAP1 JUMPDEST DUP2 SLOAD DUP2 MSTORE SWAP1 PUSH1 0x1 ADD SWAP1 PUSH1 0x20 ADD DUP1 DUP4 GT PUSH2 0xCC7 JUMPI DUP3 SWAP1 SUB PUSH1 0x1F AND DUP3 ADD SWAP2 JUMPDEST POP POP POP POP POP SWAP2 POP POP SWAP2 SWAP1 POP JUMP JUMPDEST PUSH1 0x0 SLOAD PUSH2 0x100 SWAP1 DIV PUSH1 0xFF AND ISZERO DUP1 DUP1 ISZERO PUSH2 0xD11 JUMPI POP PUSH1 0x0 SLOAD PUSH1 0x1 PUSH1 0xFF SWAP1 SWAP2 AND LT JUMPDEST DUP1 PUSH2 0xD2B JUMPI POP ADDRESS EXTCODESIZE ISZERO DUP1 ISZERO PUSH2 0xD2B JUMPI POP PUSH1 0x0 SLOAD PUSH1 0xFF AND PUSH1 0x1 EQ JUMPDEST PUSH2 0xD8E JUMPI PUSH1 0x40 MLOAD PUSH3 0x461BCD PUSH1 0xE5 SHL DUP2 MSTORE PUSH1 0x20 PUSH1 0x4 DUP3 ADD MSTORE PUSH1 0x2E PUSH1 0x24 DUP3 ADD MSTORE PUSH32 0x496E697469616C697A61626C653A20636F6E747261637420697320616C726561 PUSH1 0x44 DUP3 ADD MSTORE PUSH14 0x191E481A5B9A5D1A585B1A5E9959 PUSH1 0x92 SHL PUSH1 0x64 DUP3 ADD MSTORE PUSH1 0x84 ADD PUSH2 0xA62 JUMP JUMPDEST PUSH1 0x0 DUP1 SLOAD PUSH1 0xFF NOT AND PUSH1 0x1 OR SWAP1 SSTORE DUP1 ISZERO PUSH2 0xDB1 JUMPI PUSH1 0x0 DUP1 SLOAD PUSH2 0xFF00 NOT AND PUSH2 0x100 OR SWAP1 SSTORE JUMPDEST PUSH2 0xDBE DUP7 DUP7 DUP7 DUP7 DUP7 PUSH2 0x1B09 JUMP JUMPDEST DUP1 ISZERO PUSH2 0xE04 JUMPI PUSH1 0x0 DUP1 SLOAD PUSH2 0xFF00 NOT AND SWAP1 SSTORE PUSH1 0x40 MLOAD PUSH1 0x1 DUP2 MSTORE PUSH32 0x7F26B83FF96E1F2B6A682F133852F6798A09C465DA95921460CEFB3847402498 SWAP1 PUSH1 0x20 ADD PUSH1 0x40 MLOAD DUP1 SWAP2 SUB SWAP1 LOG1 JUMPDEST POP POP POP POP POP POP JUMP JUMPDEST PUSH2 0xE1C PUSH2 0xE17 PUSH2 0x19EF JUMP JUMPDEST PUSH2 0x1B63 JUMP JUMPDEST PUSH2 0xE38 JUMPI PUSH1 0x40 MLOAD PUSH3 0x461BCD PUSH1 0xE5 SHL DUP2 MSTORE PUSH1 0x4 ADD PUSH2 0xA62 SWAP1 PUSH2 0x3D2E JUMP JUMPDEST PUSH2 0x102 PUSH2 0xE45 DUP3 DUP3 PUSH2 0x3DC2 JUMP JUMPDEST POP POP JUMP JUMPDEST PUSH1 0x0 DUP3 DUP2 MSTORE PUSH2 0x138 PUSH1 0x20 SWAP1 DUP2 MSTORE PUSH1 0x40 DUP1 DUP4 KECCAK256 DUP2 MLOAD DUP1 DUP4 ADD SWAP1 SWAP3 MSTORE SLOAD PUSH1 0x1 PUSH1 0x1 PUSH1 0xA0 SHL SUB DUP2 AND DUP1 DUP4 MSTORE PUSH1 0x1 PUSH1 0xA0 SHL SWAP1 SWAP2 DIV PUSH1 0x1 PUSH1 0x1 PUSH1 0x60 SHL SUB AND SWAP3 DUP3 ADD SWAP3 SWAP1 SWAP3 MSTORE DUP3 SWAP2 PUSH2 0xEC0 JUMPI POP PUSH1 0x40 DUP1 MLOAD DUP1 DUP3 ADD SWAP1 SWAP2 MSTORE PUSH2 0x137 SLOAD PUSH1 0x1 PUSH1 0x1 PUSH1 0xA0 SHL SUB DUP2 AND DUP3 MSTORE PUSH1 0x1 PUSH1 0xA0 SHL SWAP1 DIV PUSH1 0x1 PUSH1 0x1 PUSH1 0x60 SHL SUB AND PUSH1 0x20 DUP3 ADD MSTORE JUMPDEST PUSH1 0x20 DUP2 ADD MLOAD PUSH1 0x0 SWAP1 PUSH2 0x2710 SWAP1 PUSH2 0xEDF SWAP1 PUSH1 0x1 PUSH1 0x1 PUSH1 0x60 SHL SUB AND DUP8 PUSH2 0x3E81 JUMP JUMPDEST PUSH2 0xEE9 SWAP2 SWAP1 PUSH2 0x3E98 JUMP JUMPDEST SWAP2 MLOAD SWAP7 SWAP2 SWAP6 POP SWAP1 SWAP4 POP POP POP POP JUMP JUMPDEST DUP2 MLOAD DUP4 MLOAD EQ PUSH2 0xF6E JUMPI PUSH1 0x40 MLOAD PUSH3 0x461BCD PUSH1 0xE5 SHL DUP2 MSTORE PUSH1 0x20 PUSH1 0x4 DUP3 ADD MSTORE PUSH1 0x3A PUSH1 0x24 DUP3 ADD MSTORE PUSH32 0x4173736574436F6E7472616374237361666542617463685472616E7366657246 PUSH1 0x44 DUP3 ADD MSTORE PUSH32 0x726F6D3A20494E56414C49445F4152524159535F4C454E475448000000000000 PUSH1 0x64 DUP3 ADD MSTORE PUSH1 0x84 ADD PUSH2 0xA62 JUMP JUMPDEST PUSH1 0x0 JUMPDEST DUP4 MLOAD DUP2 LT ISZERO PUSH2 0xE04 JUMPI PUSH2 0xFB9 DUP7 DUP7 DUP7 DUP5 DUP2 MLOAD DUP2 LT PUSH2 0xF91 JUMPI PUSH2 0xF91 PUSH2 0x3EBA JUMP JUMPDEST PUSH1 0x20 MUL PUSH1 0x20 ADD ADD MLOAD DUP7 DUP6 DUP2 MLOAD DUP2 LT PUSH2 0xFAB JUMPI PUSH2 0xFAB PUSH2 0x3EBA JUMP JUMPDEST PUSH1 0x20 MUL PUSH1 0x20 ADD ADD MLOAD DUP7 PUSH2 0x1668 JUMP JUMPDEST DUP1 PUSH2 0xFC3 DUP2 PUSH2 0x3ED0 JUMP JUMPDEST SWAP2 POP POP PUSH2 0xF71 JUMP JUMPDEST DUP2 PUSH2 0xFDD DUP2 PUSH2 0xFD8 PUSH2 0x19EF JUMP JUMPDEST PUSH2 0x1948 JUMP JUMPDEST PUSH2 0xFF9 JUMPI PUSH1 0x40 MLOAD PUSH3 0x461BCD PUSH1 0xE5 SHL DUP2 MSTORE PUSH1 0x4 ADD PUSH2 0xA62 SWAP1 PUSH2 0x3EE9 JUMP JUMPDEST PUSH1 0x0 DUP4 DUP2 MSTORE PUSH2 0x104 PUSH1 0x20 MSTORE PUSH1 0x40 SWAP1 KECCAK256 SLOAD DUP4 SWAP1 PUSH1 0xFF AND ISZERO PUSH2 0x102B JUMPI PUSH1 0x40 MLOAD PUSH3 0x461BCD PUSH1 0xE5 SHL DUP2 MSTORE PUSH1 0x4 ADD PUSH2 0xA62 SWAP1 PUSH2 0x3F3E JUMP JUMPDEST DUP4 PUSH2 0x1046 PUSH2 0x1037 PUSH2 0x19EF JUMP JUMPDEST DUP3 PUSH2 0x1041 DUP5 PUSH2 0x19FE JUMP JUMPDEST PUSH2 0x1B91 JUMP JUMPDEST PUSH2 0x1062 JUMPI PUSH1 0x40 MLOAD PUSH3 0x461BCD PUSH1 0xE5 SHL DUP2 MSTORE PUSH1 0x4 ADD PUSH2 0xA62 SWAP1 PUSH2 0x3F9B JUMP JUMPDEST PUSH2 0x106C DUP6 DUP6 PUSH2 0x1BA8 JUMP JUMPDEST POP POP POP POP POP JUMP JUMPDEST PUSH2 0x107E PUSH2 0xE17 PUSH2 0x19EF JUMP JUMPDEST PUSH2 0x109A JUMPI PUSH1 0x40 MLOAD PUSH3 0x461BCD PUSH1 0xE5 SHL DUP2 MSTORE PUSH1 0x4 ADD PUSH2 0xA62 SWAP1 PUSH2 0x3D2E JUMP JUMPDEST PUSH2 0x10A2 PUSH2 0x1C6F JUMP JUMPDEST JUMP JUMPDEST PUSH1 0x60 DUP2 MLOAD DUP4 MLOAD EQ PUSH2 0x1109 JUMPI PUSH1 0x40 MLOAD PUSH3 0x461BCD PUSH1 0xE5 SHL DUP2 MSTORE PUSH1 0x20 PUSH1 0x4 DUP3 ADD MSTORE PUSH1 0x29 PUSH1 0x24 DUP3 ADD MSTORE PUSH32 0x455243313135353A206163636F756E747320616E6420696473206C656E677468 PUSH1 0x44 DUP3 ADD MSTORE PUSH9 0x40DAD2E6DAC2E8C6D PUSH1 0xBB SHL PUSH1 0x64 DUP3 ADD MSTORE PUSH1 0x84 ADD PUSH2 0xA62 JUMP JUMPDEST PUSH1 0x0 DUP4 MLOAD PUSH1 0x1 PUSH1 0x1 PUSH1 0x40 SHL SUB DUP2 GT ISZERO PUSH2 0x1124 JUMPI PUSH2 0x1124 PUSH2 0x344E JUMP JUMPDEST PUSH1 0x40 MLOAD SWAP1 DUP1 DUP3 MSTORE DUP1 PUSH1 0x20 MUL PUSH1 0x20 ADD DUP3 ADD PUSH1 0x40 MSTORE DUP1 ISZERO PUSH2 0x114D JUMPI DUP2 PUSH1 0x20 ADD PUSH1 0x20 DUP3 MUL DUP1 CALLDATASIZE DUP4 CALLDATACOPY ADD SWAP1 POP JUMPDEST POP SWAP1 POP PUSH1 0x0 JUMPDEST DUP5 MLOAD DUP2 LT ISZERO PUSH2 0x11C5 JUMPI PUSH2 0x1198 DUP6 DUP3 DUP2 MLOAD DUP2 LT PUSH2 0x1171 JUMPI PUSH2 0x1171 PUSH2 0x3EBA JUMP JUMPDEST PUSH1 0x20 MUL PUSH1 0x20 ADD ADD MLOAD DUP6 DUP4 DUP2 MLOAD DUP2 LT PUSH2 0x118B JUMPI PUSH2 0x118B PUSH2 0x3EBA JUMP JUMPDEST PUSH1 0x20 MUL PUSH1 0x20 ADD ADD MLOAD PUSH2 0x850 JUMP JUMPDEST DUP3 DUP3 DUP2 MLOAD DUP2 LT PUSH2 0x11AA JUMPI PUSH2 0x11AA PUSH2 0x3EBA JUMP JUMPDEST PUSH1 0x20 SWAP1 DUP2 MUL SWAP2 SWAP1 SWAP2 ADD ADD MSTORE PUSH2 0x11BE DUP2 PUSH2 0x3ED0 JUMP JUMPDEST SWAP1 POP PUSH2 0x1153 JUMP JUMPDEST POP SWAP4 SWAP3 POP POP POP JUMP JUMPDEST PUSH1 0x0 DUP2 DUP2 MSTORE PUSH2 0x169 PUSH1 0x20 MSTORE PUSH1 0x40 DUP2 KECCAK256 SLOAD PUSH1 0x1 PUSH1 0x1 PUSH1 0xA0 SHL SUB AND ISZERO PUSH2 0x1208 JUMPI POP PUSH1 0x0 SWAP1 DUP2 MSTORE PUSH2 0x169 PUSH1 0x20 MSTORE PUSH1 0x40 SWAP1 KECCAK256 SLOAD PUSH1 0x1 PUSH1 0x1 PUSH1 0xA0 SHL SUB AND SWAP1 JUMP JUMPDEST PUSH2 0x88A DUP3 PUSH2 0x19D5 JUMP JUMPDEST SWAP2 SWAP1 POP JUMP JUMPDEST PUSH2 0x121E PUSH2 0x1CC7 JUMP JUMPDEST PUSH2 0x10A2 PUSH1 0x0 PUSH2 0x1D40 JUMP JUMPDEST PUSH2 0x1233 PUSH2 0xE17 PUSH2 0x19EF JUMP JUMPDEST PUSH2 0x124F JUMPI PUSH1 0x40 MLOAD PUSH3 0x461BCD PUSH1 0xE5 SHL DUP2 MSTORE PUSH1 0x4 ADD PUSH2 0xA62 SWAP1 PUSH2 0x3D2E JUMP JUMPDEST PUSH2 0x125B DUP5 DUP5 DUP5 DUP5 PUSH2 0x1D92 JUMP JUMPDEST POP POP POP POP JUMP JUMPDEST PUSH2 0x126C PUSH2 0xE17 PUSH2 0x19EF JUMP JUMPDEST PUSH2 0x1288 JUMPI PUSH1 0x40 MLOAD PUSH3 0x461BCD PUSH1 0xE5 SHL DUP2 MSTORE PUSH1 0x4 ADD PUSH2 0xA62 SWAP1 PUSH2 0x3D2E JUMP JUMPDEST PUSH2 0x10A2 PUSH2 0x1DB2 JUMP JUMPDEST DUP2 PUSH2 0x129D DUP2 PUSH2 0xFD8 PUSH2 0x19EF JUMP JUMPDEST PUSH2 0x12B9 JUMPI PUSH1 0x40 MLOAD PUSH3 0x461BCD PUSH1 0xE5 SHL DUP2 MSTORE PUSH1 0x4 ADD PUSH2 0xA62 SWAP1 PUSH2 0x3EE9 JUMP JUMPDEST PUSH1 0x0 DUP4 DUP2 MSTORE PUSH2 0x104 PUSH1 0x20 MSTORE PUSH1 0x40 SWAP1 KECCAK256 SLOAD DUP4 SWAP1 PUSH1 0xFF AND ISZERO PUSH2 0x12EB JUMPI PUSH1 0x40 MLOAD PUSH3 0x461BCD PUSH1 0xE5 SHL DUP2 MSTORE PUSH1 0x4 ADD PUSH2 0xA62 SWAP1 PUSH2 0x3F3E JUMP JUMPDEST DUP4 PUSH2 0x12F7 PUSH2 0x1037 PUSH2 0x19EF JUMP JUMPDEST PUSH2 0x1313 JUMPI PUSH1 0x40 MLOAD PUSH3 0x461BCD PUSH1 0xE5 SHL DUP2 MSTORE PUSH1 0x4 ADD PUSH2 0xA62 SWAP1 PUSH2 0x3F9B JUMP JUMPDEST PUSH2 0x106C DUP6 DUP6 PUSH2 0x1DF0 JUMP JUMPDEST PUSH1 0x0 PUSH2 0x88A DUP3 PUSH2 0x19FE JUMP JUMPDEST DUP2 PUSH2 0x1335 DUP2 PUSH2 0xFD8 PUSH2 0x19EF JUMP JUMPDEST PUSH2 0x1351 JUMPI PUSH1 0x40 MLOAD PUSH3 0x461BCD PUSH1 0xE5 SHL DUP2 MSTORE PUSH1 0x4 ADD PUSH2 0xA62 SWAP1 PUSH2 0x3EE9 JUMP JUMPDEST PUSH1 0x1 PUSH1 0x1 PUSH1 0xA0 SHL SUB DUP3 AND PUSH2 0x13C0 JUMPI PUSH1 0x40 MLOAD PUSH3 0x461BCD PUSH1 0xE5 SHL DUP2 MSTORE PUSH1 0x20 PUSH1 0x4 DUP3 ADD MSTORE PUSH1 0x30 PUSH1 0x24 DUP3 ADD MSTORE PUSH32 0x4173736574436F6E74726163745368617265642373657443726561746F723A20 PUSH1 0x44 DUP3 ADD MSTORE PUSH16 0x24A72B20A624A22FA0A2222922A9A997 PUSH1 0x81 SHL PUSH1 0x64 DUP3 ADD MSTORE PUSH1 0x84 ADD PUSH2 0xA62 JUMP JUMPDEST PUSH1 0x0 DUP4 DUP2 MSTORE PUSH2 0x169 PUSH1 0x20 MSTORE PUSH1 0x40 DUP1 DUP3 KECCAK256 DUP1 SLOAD PUSH1 0x1 PUSH1 0x1 PUSH1 0xA0 SHL SUB NOT AND PUSH1 0x1 PUSH1 0x1 PUSH1 0xA0 SHL SUB DUP7 AND SWAP1 DUP2 OR SWAP1 SWAP2 SSTORE SWAP1 MLOAD SWAP1 SWAP2 DUP6 SWAP2 PUSH32 0x39071C63E44267BFDEFC7B625C0DF99D3CE2E6FF98D9F5E9E8A7AB43CDF5000D SWAP2 SWAP1 LOG3 POP POP POP JUMP JUMPDEST PUSH1 0xFE DUP1 SLOAD PUSH2 0x8F8 SWAP1 PUSH2 0x3C71 JUMP JUMPDEST PUSH2 0xE45 PUSH2 0x1433 PUSH2 0x19EF JUMP JUMPDEST DUP4 DUP4 PUSH2 0x1E3A JUMP JUMPDEST PUSH2 0x1442 PUSH2 0x1F1A JUMP JUMPDEST PUSH1 0x0 JUMPDEST DUP4 MLOAD DUP2 LT ISZERO PUSH2 0x14EE JUMPI PUSH2 0x1473 DUP5 DUP3 DUP2 MLOAD DUP2 LT PUSH2 0x1463 JUMPI PUSH2 0x1463 PUSH2 0x3EBA JUMP JUMPDEST PUSH1 0x20 MUL PUSH1 0x20 ADD ADD MLOAD PUSH2 0xFD8 PUSH2 0x19EF JUMP JUMPDEST PUSH2 0x14DC JUMPI PUSH1 0x40 MLOAD PUSH3 0x461BCD PUSH1 0xE5 SHL DUP2 MSTORE PUSH1 0x20 PUSH1 0x4 DUP3 ADD MSTORE PUSH1 0x34 PUSH1 0x24 DUP3 ADD MSTORE PUSH32 0x4173736574436F6E7472616374536861726564235F62617463684D696E743A20 PUSH1 0x44 DUP3 ADD MSTORE PUSH20 0x13D3931657D0D491505513D497D0531313D5D151 PUSH1 0x62 SHL PUSH1 0x64 DUP3 ADD MSTORE PUSH1 0x84 ADD PUSH2 0xA62 JUMP JUMPDEST DUP1 PUSH2 0x14E6 DUP2 PUSH2 0x3ED0 JUMP JUMPDEST SWAP2 POP POP PUSH2 0x1445 JUMP JUMPDEST POP PUSH2 0x14FB DUP5 DUP5 DUP5 DUP5 PUSH2 0x1F75 JUMP JUMPDEST PUSH2 0x125B PUSH1 0x1 PUSH2 0x105 SSTORE JUMP JUMPDEST PUSH2 0x1511 PUSH2 0xE17 PUSH2 0x19EF JUMP JUMPDEST PUSH2 0x152D JUMPI PUSH1 0x40 MLOAD PUSH3 0x461BCD PUSH1 0xE5 SHL DUP2 MSTORE PUSH1 0x4 ADD PUSH2 0xA62 SWAP1 PUSH2 0x3D2E JUMP JUMPDEST PUSH2 0x16A DUP1 SLOAD PUSH1 0x1 PUSH1 0x1 PUSH1 0x60 SHL SUB NOT AND PUSH1 0x1 PUSH1 0x1 PUSH1 0x60 SHL SUB SWAP3 SWAP1 SWAP3 AND SWAP2 SWAP1 SWAP2 OR SWAP1 SSTORE JUMP JUMPDEST PUSH2 0x155B PUSH2 0xE17 PUSH2 0x19EF JUMP JUMPDEST PUSH2 0x1577 JUMPI PUSH1 0x40 MLOAD PUSH3 0x461BCD PUSH1 0xE5 SHL DUP2 MSTORE PUSH1 0x4 ADD PUSH2 0xA62 SWAP1 PUSH2 0x3D2E JUMP JUMPDEST PUSH2 0x101 DUP1 SLOAD PUSH1 0x1 PUSH1 0x1 PUSH1 0xA0 SHL SUB NOT AND PUSH1 0x1 PUSH1 0x1 PUSH1 0xA0 SHL SUB SWAP3 SWAP1 SWAP3 AND SWAP2 SWAP1 SWAP2 OR SWAP1 SSTORE JUMP JUMPDEST PUSH2 0x15A2 PUSH2 0x1F1A JUMP JUMPDEST DUP4 PUSH2 0x15AF DUP2 PUSH2 0xFD8 PUSH2 0x19EF JUMP JUMPDEST PUSH2 0x15CB JUMPI PUSH1 0x40 MLOAD PUSH3 0x461BCD PUSH1 0xE5 SHL DUP2 MSTORE PUSH1 0x4 ADD PUSH2 0xA62 SWAP1 PUSH2 0x3EE9 JUMP JUMPDEST PUSH2 0x15D7 DUP7 DUP7 DUP7 DUP7 PUSH2 0x1D92 JUMP JUMPDEST PUSH1 0x0 PUSH2 0x15E4 DUP7 PUSH1 0x1 PUSH2 0xE49 JUMP JUMPDEST POP SWAP1 POP PUSH1 0x1 PUSH1 0x1 PUSH1 0xA0 SHL SUB DUP2 AND PUSH2 0x1608 JUMPI PUSH2 0x1608 DUP7 PUSH2 0x1602 DUP9 PUSH2 0x19D5 JUMP JUMPDEST DUP6 PUSH2 0x1FCC JUMP JUMPDEST POP POP PUSH2 0x106C PUSH1 0x1 PUSH2 0x105 SSTORE JUMP JUMPDEST PUSH2 0x101 SLOAD PUSH1 0x0 SWAP1 PUSH1 0x1 PUSH1 0x1 PUSH1 0xA0 SHL SUB SWAP1 DUP2 AND SWAP1 DUP4 AND SUB PUSH2 0x1637 JUMPI POP PUSH1 0x1 PUSH2 0x88A JUMP JUMPDEST PUSH1 0x1 PUSH1 0x1 PUSH1 0xA0 SHL SUB DUP1 DUP5 AND PUSH1 0x0 SWAP1 DUP2 MSTORE PUSH1 0x66 PUSH1 0x20 SWAP1 DUP2 MSTORE PUSH1 0x40 DUP1 DUP4 KECCAK256 SWAP4 DUP7 AND DUP4 MSTORE SWAP3 SWAP1 MSTORE KECCAK256 SLOAD PUSH1 0xFF AND JUMPDEST SWAP4 SWAP3 POP POP POP JUMP JUMPDEST PUSH1 0x0 PUSH2 0x1674 DUP7 DUP6 PUSH2 0x18B4 JUMP JUMPDEST SWAP1 POP DUP3 DUP2 LT ISZERO PUSH2 0x16AB JUMPI PUSH2 0x1693 DUP6 DUP6 PUSH2 0x168D DUP5 DUP8 PUSH2 0x4006 JUMP JUMPDEST DUP6 PUSH2 0x1228 JUMP JUMPDEST DUP1 ISZERO PUSH2 0x16A6 JUMPI PUSH2 0x16A6 DUP7 DUP7 DUP7 DUP5 DUP7 PUSH2 0x20DB JUMP JUMPDEST PUSH2 0xE04 JUMP JUMPDEST PUSH2 0xE04 DUP7 DUP7 DUP7 DUP7 DUP7 PUSH2 0x20DB JUMP JUMPDEST PUSH2 0x16C0 PUSH2 0x1CC7 JUMP JUMPDEST PUSH1 0x1 PUSH1 0x1 PUSH1 0xA0 SHL SUB DUP2 AND PUSH2 0x1725 JUMPI PUSH1 0x40 MLOAD PUSH3 0x461BCD PUSH1 0xE5 SHL DUP2 MSTORE PUSH1 0x20 PUSH1 0x4 DUP3 ADD MSTORE PUSH1 0x26 PUSH1 0x24 DUP3 ADD MSTORE PUSH32 0x4F776E61626C653A206E6577206F776E657220697320746865207A65726F2061 PUSH1 0x44 DUP3 ADD MSTORE PUSH6 0x646472657373 PUSH1 0xD0 SHL PUSH1 0x64 DUP3 ADD MSTORE PUSH1 0x84 ADD PUSH2 0xA62 JUMP JUMPDEST PUSH2 0x172E DUP2 PUSH2 0x1D40 JUMP JUMPDEST POP JUMP JUMPDEST DUP3 DUP3 DUP3 PUSH2 0x173F DUP4 DUP4 DUP4 PUSH2 0x1B91 JUMP JUMPDEST PUSH2 0x17BD JUMPI PUSH1 0x40 MLOAD PUSH3 0x461BCD PUSH1 0xE5 SHL DUP2 MSTORE PUSH1 0x20 PUSH1 0x4 DUP3 ADD MSTORE PUSH1 0x43 PUSH1 0x24 DUP3 ADD MSTORE PUSH32 0x4173736574436F6E7472616374236F6E6C79546F6B656E416D6F756E744F776E PUSH1 0x44 DUP3 ADD MSTORE PUSH32 0x65643A204F4E4C595F544F4B454E5F414D4F554E545F4F574E45445F414C4C4F PUSH1 0x64 DUP3 ADD MSTORE PUSH3 0x15D151 PUSH1 0xEA SHL PUSH1 0x84 DUP3 ADD MSTORE PUSH1 0xA4 ADD PUSH2 0xA62 JUMP JUMPDEST PUSH2 0xE04 DUP7 DUP7 DUP7 PUSH2 0x22DC JUMP JUMPDEST PUSH1 0x0 JUMPDEST DUP3 MLOAD DUP2 LT ISZERO PUSH2 0x1895 JUMPI PUSH2 0x1811 DUP5 DUP5 DUP4 DUP2 MLOAD DUP2 LT PUSH2 0x17EA JUMPI PUSH2 0x17EA PUSH2 0x3EBA JUMP JUMPDEST PUSH1 0x20 MUL PUSH1 0x20 ADD ADD MLOAD DUP5 DUP5 DUP2 MLOAD DUP2 LT PUSH2 0x1804 JUMPI PUSH2 0x1804 PUSH2 0x3EBA JUMP JUMPDEST PUSH1 0x20 MUL PUSH1 0x20 ADD ADD MLOAD PUSH2 0x1B91 JUMP JUMPDEST PUSH2 0x1883 JUMPI PUSH1 0x40 MLOAD PUSH3 0x461BCD PUSH1 0xE5 SHL DUP2 MSTORE PUSH1 0x20 PUSH1 0x4 DUP3 ADD MSTORE PUSH1 0x38 PUSH1 0x24 DUP3 ADD MSTORE PUSH32 0x4173736574436F6E74726163742362617463684275726E3A204F4E4C595F544F PUSH1 0x44 DUP3 ADD MSTORE PUSH32 0x4B454E5F414D4F554E545F4F574E45445F414C4C4F5745440000000000000000 PUSH1 0x64 DUP3 ADD MSTORE PUSH1 0x84 ADD PUSH2 0xA62 JUMP JUMPDEST DUP1 PUSH2 0x188D DUP2 PUSH2 0x3ED0 JUMP JUMPDEST SWAP2 POP POP PUSH2 0x17CB JUMP JUMPDEST POP PUSH2 0x18A1 DUP4 DUP4 DUP4 PUSH2 0x2332 JUMP JUMPDEST POP POP POP JUMP JUMPDEST PUSH2 0x102 DUP1 SLOAD PUSH2 0x8F8 SWAP1 PUSH2 0x3C71 JUMP JUMPDEST PUSH1 0x0 PUSH1 0x1 PUSH1 0x1 PUSH1 0xA0 SHL SUB DUP4 AND PUSH2 0x1920 JUMPI PUSH1 0x40 MLOAD PUSH3 0x461BCD PUSH1 0xE5 SHL DUP2 MSTORE PUSH1 0x20 PUSH1 0x4 DUP3 ADD MSTORE PUSH1 0x2B PUSH1 0x24 DUP3 ADD MSTORE PUSH32 0x455243313135353A2062616C616E636520717565727920666F7220746865207A PUSH1 0x44 DUP3 ADD MSTORE PUSH11 0x65726F2061646472657373 PUSH1 0xA8 SHL PUSH1 0x64 DUP3 ADD MSTORE PUSH1 0x84 ADD PUSH2 0xA62 JUMP JUMPDEST POP PUSH1 0x0 SWAP1 DUP2 MSTORE PUSH1 0xFF PUSH1 0x20 SWAP1 DUP2 MSTORE PUSH1 0x40 DUP1 DUP4 KECCAK256 PUSH1 0x1 PUSH1 0x1 PUSH1 0xA0 SHL SUB SWAP5 SWAP1 SWAP5 AND DUP4 MSTORE SWAP3 SWAP1 MSTORE KECCAK256 SLOAD SWAP1 JUMP JUMPDEST PUSH1 0x0 DUP1 PUSH2 0x1954 DUP5 PUSH2 0x11CD JUMP JUMPDEST SWAP1 POP DUP3 PUSH1 0x1 PUSH1 0x1 PUSH1 0xA0 SHL SUB AND DUP2 PUSH1 0x1 PUSH1 0x1 PUSH1 0xA0 SHL SUB AND EQ DUP1 PUSH2 0x886 JUMPI POP PUSH2 0x101 SLOAD PUSH1 0x1 PUSH1 0x1 PUSH1 0xA0 SHL SUB SWAP1 DUP2 AND SWAP1 DUP5 AND EQ SWAP2 POP POP SWAP3 SWAP2 POP POP JUMP JUMPDEST PUSH1 0x0 DUP2 DUP2 MSTORE PUSH2 0x100 PUSH1 0x20 MSTORE PUSH1 0x40 DUP2 KECCAK256 SLOAD PUSH2 0x19A6 DUP4 PUSH2 0x131D JUMP JUMPDEST PUSH2 0x88A SWAP2 SWAP1 PUSH2 0x4006 JUMP JUMPDEST PUSH1 0x0 PUSH1 0x1 PUSH1 0x1 PUSH1 0xE0 SHL SUB NOT DUP3 AND PUSH4 0x152A902D PUSH1 0xE1 SHL EQ DUP1 PUSH2 0x88A JUMPI POP PUSH2 0x88A DUP3 PUSH2 0x2388 JUMP JUMPDEST PUSH1 0x0 PUSH2 0x19E3 PUSH1 0x28 PUSH1 0x38 PUSH2 0x4019 JUMP JUMPDEST PUSH1 0xFF AND SWAP2 SWAP1 SWAP2 SHR SWAP2 SWAP1 POP JUMP JUMPDEST PUSH1 0x0 PUSH2 0x19F9 PUSH2 0x23D8 JUMP JUMPDEST SWAP1 POP SWAP1 JUMP JUMPDEST PUSH1 0x0 PUSH2 0x1A11 PUSH1 0x1 PUSH6 0x10000000000 PUSH2 0x4006 JUMP JUMPDEST SWAP1 SWAP2 AND SWAP2 SWAP1 POP JUMP JUMPDEST PUSH1 0x0 PUSH1 0x1 PUSH1 0x1 PUSH1 0xA0 SHL SUB DUP7 AND PUSH2 0x1A7F JUMPI PUSH1 0x40 MLOAD PUSH3 0x461BCD PUSH1 0xE5 SHL DUP2 MSTORE PUSH1 0x20 PUSH1 0x4 DUP3 ADD MSTORE PUSH1 0x25 PUSH1 0x24 DUP3 ADD MSTORE PUSH32 0x4E61746976654D6574615472616E73616374696F6E3A20494E56414C49445F53 PUSH1 0x44 DUP3 ADD MSTORE PUSH5 0x24A3A722A9 PUSH1 0xD9 SHL PUSH1 0x64 DUP3 ADD MSTORE PUSH1 0x84 ADD PUSH2 0xA62 JUMP JUMPDEST PUSH1 0x1 PUSH2 0x1A92 PUSH2 0x1A8D DUP8 PUSH2 0x2434 JUMP JUMPDEST PUSH2 0x24B1 JUMP JUMPDEST PUSH1 0x40 DUP1 MLOAD PUSH1 0x0 DUP2 MSTORE PUSH1 0x20 DUP2 ADD DUP1 DUP4 MSTORE SWAP3 SWAP1 SWAP3 MSTORE PUSH1 0xFF DUP6 AND SWAP1 DUP3 ADD MSTORE PUSH1 0x60 DUP2 ADD DUP7 SWAP1 MSTORE PUSH1 0x80 DUP2 ADD DUP6 SWAP1 MSTORE PUSH1 0xA0 ADD PUSH1 0x20 PUSH1 0x40 MLOAD PUSH1 0x20 DUP2 SUB SWAP1 DUP1 DUP5 SUB SWAP1 DUP6 GAS STATICCALL ISZERO DUP1 ISZERO PUSH2 0x1AE0 JUMPI RETURNDATASIZE PUSH1 0x0 DUP1 RETURNDATACOPY RETURNDATASIZE PUSH1 0x0 REVERT JUMPDEST POP POP POP PUSH1 0x20 PUSH1 0x40 MLOAD SUB MLOAD PUSH1 0x1 PUSH1 0x1 PUSH1 0xA0 SHL SUB AND DUP7 PUSH1 0x1 PUSH1 0x1 PUSH1 0xA0 SHL SUB AND EQ SWAP1 POP SWAP6 SWAP5 POP POP POP POP POP JUMP JUMPDEST PUSH1 0x0 SLOAD PUSH2 0x100 SWAP1 DIV PUSH1 0xFF AND PUSH2 0x1B30 JUMPI PUSH1 0x40 MLOAD PUSH3 0x461BCD PUSH1 0xE5 SHL DUP2 MSTORE PUSH1 0x4 ADD PUSH2 0xA62 SWAP1 PUSH2 0x4032 JUMP JUMPDEST PUSH2 0x1B3C DUP6 DUP6 DUP6 DUP5 PUSH2 0x24E1 JUMP JUMPDEST POP PUSH2 0x16A DUP1 SLOAD PUSH1 0x1 PUSH1 0x1 PUSH1 0x60 SHL SUB NOT AND PUSH1 0x1 PUSH1 0x1 PUSH1 0x60 SHL SUB SWAP3 SWAP1 SWAP3 AND SWAP2 SWAP1 SWAP2 OR SWAP1 SSTORE POP POP POP JUMP JUMPDEST PUSH1 0x0 DUP2 PUSH1 0x1 PUSH1 0x1 PUSH1 0xA0 SHL SUB AND PUSH2 0x1B81 PUSH1 0x99 SLOAD PUSH1 0x1 PUSH1 0x1 PUSH1 0xA0 SHL SUB AND SWAP1 JUMP JUMPDEST PUSH1 0x1 PUSH1 0x1 PUSH1 0xA0 SHL SUB AND EQ SWAP3 SWAP2 POP POP JUMP JUMPDEST PUSH1 0x0 DUP2 PUSH2 0x1B9E DUP6 DUP6 PUSH2 0x850 JUMP JUMPDEST LT ISZERO SWAP5 SWAP4 POP POP POP POP JUMP JUMPDEST PUSH1 0x0 DUP2 MLOAD GT PUSH2 0x1C0F JUMPI PUSH1 0x40 MLOAD PUSH3 0x461BCD PUSH1 0xE5 SHL DUP2 MSTORE PUSH1 0x20 PUSH1 0x4 DUP3 ADD MSTORE PUSH1 0x2D PUSH1 0x24 DUP3 ADD MSTORE PUSH32 0x4173736574436F6E7472616374237365745065726D616E656E745552493A204F PUSH1 0x44 DUP3 ADD MSTORE PUSH13 0x4E4C595F56414C49445F555249 PUSH1 0x98 SHL PUSH1 0x64 DUP3 ADD MSTORE PUSH1 0x84 ADD PUSH2 0xA62 JUMP JUMPDEST PUSH1 0x0 DUP3 DUP2 MSTORE PUSH2 0x104 PUSH1 0x20 MSTORE PUSH1 0x40 SWAP1 KECCAK256 DUP1 SLOAD PUSH1 0xFF NOT AND PUSH1 0x1 OR SWAP1 SSTORE PUSH2 0x1C33 DUP3 DUP3 PUSH2 0x1DF0 JUMP JUMPDEST DUP2 PUSH32 0xA109BA539900BF1B633F956D63C96FC89B814C7287F7AA50A9216D0B55657207 DUP3 PUSH1 0x40 MLOAD PUSH2 0x1C63 SWAP2 SWAP1 PUSH2 0x3422 JUMP JUMPDEST PUSH1 0x40 MLOAD DUP1 SWAP2 SUB SWAP1 LOG2 POP POP JUMP JUMPDEST PUSH2 0x1C77 PUSH2 0x251C JUMP JUMPDEST PUSH1 0xCB DUP1 SLOAD PUSH1 0xFF NOT AND SWAP1 SSTORE PUSH32 0x5DB9EE0A495BF2E6FF9C91A7834C1BA4FDD244A5E8AA4E537BD38AEAE4B073AA PUSH2 0x1CAA PUSH2 0x19EF JUMP JUMPDEST PUSH1 0x40 MLOAD PUSH1 0x1 PUSH1 0x1 PUSH1 0xA0 SHL SUB SWAP1 SWAP2 AND DUP2 MSTORE PUSH1 0x20 ADD PUSH1 0x40 MLOAD DUP1 SWAP2 SUB SWAP1 LOG1 JUMP JUMPDEST PUSH2 0x1CCF PUSH2 0x19EF JUMP JUMPDEST PUSH1 0x1 PUSH1 0x1 PUSH1 0xA0 SHL SUB AND PUSH2 0x1CEA PUSH1 0x99 SLOAD PUSH1 0x1 PUSH1 0x1 PUSH1 0xA0 SHL SUB AND SWAP1 JUMP JUMPDEST PUSH1 0x1 PUSH1 0x1 PUSH1 0xA0 SHL SUB AND EQ PUSH2 0x10A2 JUMPI PUSH1 0x40 MLOAD PUSH3 0x461BCD PUSH1 0xE5 SHL DUP2 MSTORE PUSH1 0x20 PUSH1 0x4 DUP3 ADD DUP2 SWAP1 MSTORE PUSH1 0x24 DUP3 ADD MSTORE PUSH32 0x4F776E61626C653A2063616C6C6572206973206E6F7420746865206F776E6572 PUSH1 0x44 DUP3 ADD MSTORE PUSH1 0x64 ADD PUSH2 0xA62 JUMP JUMPDEST PUSH1 0x99 DUP1 SLOAD PUSH1 0x1 PUSH1 0x1 PUSH1 0xA0 SHL SUB DUP4 DUP2 AND PUSH1 0x1 PUSH1 0x1 PUSH1 0xA0 SHL SUB NOT DUP4 AND DUP2 OR SWAP1 SWAP4 SSTORE PUSH1 0x40 MLOAD SWAP2 AND SWAP2 SWAP1 DUP3 SWAP1 PUSH32 0x8BE0079C531659141344CD1FD0A4F28419497F9722A3DAAFE3B4186F6B6457E0 SWAP1 PUSH1 0x0 SWAP1 LOG3 POP POP JUMP JUMPDEST PUSH2 0x1D9E DUP5 DUP5 DUP5 DUP5 PUSH2 0x2565 JUMP JUMPDEST PUSH1 0x1 DUP2 MLOAD GT ISZERO PUSH2 0x125B JUMPI PUSH2 0x125B DUP4 DUP3 PUSH2 0x1290 JUMP JUMPDEST PUSH2 0x1DBA PUSH2 0x2661 JUMP JUMPDEST PUSH1 0xCB DUP1 SLOAD PUSH1 0xFF NOT AND PUSH1 0x1 OR SWAP1 SSTORE PUSH32 0x62E78CEA01BEE320CD4E420270B5EA74000D11B0C9F74754EBDBFC544B05A258 PUSH2 0x1CAA PUSH2 0x19EF JUMP JUMPDEST PUSH1 0x0 DUP3 DUP2 MSTORE PUSH2 0x103 PUSH1 0x20 MSTORE PUSH1 0x40 SWAP1 KECCAK256 PUSH2 0x1E09 DUP3 DUP3 PUSH2 0x3DC2 JUMP JUMPDEST POP DUP2 PUSH32 0x6BB7FF708619BA0610CBA295A58592E0451DEE2622938C8755667688DAF3529B DUP3 PUSH1 0x40 MLOAD PUSH2 0x1C63 SWAP2 SWAP1 PUSH2 0x3422 JUMP JUMPDEST DUP2 PUSH1 0x1 PUSH1 0x1 PUSH1 0xA0 SHL SUB AND DUP4 PUSH1 0x1 PUSH1 0x1 PUSH1 0xA0 SHL SUB AND SUB PUSH2 0x1EAD JUMPI PUSH1 0x40 MLOAD PUSH3 0x461BCD PUSH1 0xE5 SHL DUP2 MSTORE PUSH1 0x20 PUSH1 0x4 DUP3 ADD MSTORE PUSH1 0x29 PUSH1 0x24 DUP3 ADD MSTORE PUSH32 0x455243313135353A2073657474696E6720617070726F76616C20737461747573 PUSH1 0x44 DUP3 ADD MSTORE PUSH9 0x103337B91039B2B633 PUSH1 0xB9 SHL PUSH1 0x64 DUP3 ADD MSTORE PUSH1 0x84 ADD PUSH2 0xA62 JUMP JUMPDEST PUSH1 0x1 PUSH1 0x1 PUSH1 0xA0 SHL SUB DUP4 DUP2 AND PUSH1 0x0 DUP2 DUP2 MSTORE PUSH1 0x66 PUSH1 0x20 SWAP1 DUP2 MSTORE PUSH1 0x40 DUP1 DUP4 KECCAK256 SWAP5 DUP8 AND DUP1 DUP5 MSTORE SWAP5 DUP3 MSTORE SWAP2 DUP3 SWAP1 KECCAK256 DUP1 SLOAD PUSH1 0xFF NOT AND DUP7 ISZERO ISZERO SWAP1 DUP2 OR SWAP1 SWAP2 SSTORE SWAP2 MLOAD SWAP2 DUP3 MSTORE PUSH32 0x17307EAB39AB6107E8899845AD3D59BD9653F200F220920489CA2B5937696C31 SWAP2 ADD PUSH1 0x40 MLOAD DUP1 SWAP2 SUB SWAP1 LOG3 POP POP POP JUMP JUMPDEST PUSH1 0x2 PUSH2 0x105 SLOAD SUB PUSH2 0x1F6D JUMPI PUSH1 0x40 MLOAD PUSH3 0x461BCD PUSH1 0xE5 SHL DUP2 MSTORE PUSH1 0x20 PUSH1 0x4 DUP3 ADD MSTORE PUSH1 0x1F PUSH1 0x24 DUP3 ADD MSTORE PUSH32 0x5265656E7472616E637947756172643A207265656E7472616E742063616C6C00 PUSH1 0x44 DUP3 ADD MSTORE PUSH1 0x64 ADD PUSH2 0xA62 JUMP JUMPDEST PUSH1 0x2 PUSH2 0x105 SSTORE JUMP JUMPDEST PUSH2 0x1F81 DUP5 DUP5 DUP5 DUP5 PUSH2 0x26A7 JUMP JUMPDEST PUSH1 0x1 DUP2 MLOAD GT ISZERO PUSH2 0x125B JUMPI PUSH1 0x0 JUMPDEST DUP4 MLOAD DUP2 LT ISZERO PUSH2 0x106C JUMPI PUSH2 0x1FBA DUP5 DUP3 DUP2 MLOAD DUP2 LT PUSH2 0x1FAC JUMPI PUSH2 0x1FAC PUSH2 0x3EBA JUMP JUMPDEST PUSH1 0x20 MUL PUSH1 0x20 ADD ADD MLOAD DUP4 PUSH2 0x1290 JUMP JUMPDEST DUP1 PUSH2 0x1FC4 DUP2 PUSH2 0x3ED0 JUMP JUMPDEST SWAP2 POP POP PUSH2 0x1F8E JUMP JUMPDEST PUSH2 0x2710 PUSH1 0x1 PUSH1 0x1 PUSH1 0x60 SHL SUB DUP3 AND GT ISZERO PUSH2 0x203A JUMPI PUSH1 0x40 MLOAD PUSH3 0x461BCD PUSH1 0xE5 SHL DUP2 MSTORE PUSH1 0x20 PUSH1 0x4 DUP3 ADD MSTORE PUSH1 0x2A PUSH1 0x24 DUP3 ADD MSTORE PUSH32 0x455243323938313A20726F79616C7479206665652077696C6C20657863656564 PUSH1 0x44 DUP3 ADD MSTORE PUSH10 0x2073616C655072696365 PUSH1 0xB0 SHL PUSH1 0x64 DUP3 ADD MSTORE PUSH1 0x84 ADD PUSH2 0xA62 JUMP JUMPDEST PUSH1 0x1 PUSH1 0x1 PUSH1 0xA0 SHL SUB DUP3 AND PUSH2 0x2090 JUMPI PUSH1 0x40 MLOAD PUSH3 0x461BCD PUSH1 0xE5 SHL DUP2 MSTORE PUSH1 0x20 PUSH1 0x4 DUP3 ADD MSTORE PUSH1 0x1B PUSH1 0x24 DUP3 ADD MSTORE PUSH32 0x455243323938313A20496E76616C696420706172616D65746572730000000000 PUSH1 0x44 DUP3 ADD MSTORE PUSH1 0x64 ADD PUSH2 0xA62 JUMP JUMPDEST PUSH1 0x40 DUP1 MLOAD DUP1 DUP3 ADD DUP3 MSTORE PUSH1 0x1 PUSH1 0x1 PUSH1 0xA0 SHL SUB SWAP4 DUP5 AND DUP2 MSTORE PUSH1 0x1 PUSH1 0x1 PUSH1 0x60 SHL SUB SWAP3 DUP4 AND PUSH1 0x20 DUP1 DUP4 ADD SWAP2 DUP3 MSTORE PUSH1 0x0 SWAP7 DUP8 MSTORE PUSH2 0x138 SWAP1 MSTORE SWAP2 SWAP1 SWAP5 KECCAK256 SWAP4 MLOAD SWAP1 MLOAD SWAP1 SWAP2 AND PUSH1 0x1 PUSH1 0xA0 SHL MUL SWAP2 AND OR SWAP1 SSTORE JUMP JUMPDEST PUSH2 0x20E3 PUSH2 0x2661 JUMP JUMPDEST DUP5 PUSH2 0x20EC PUSH2 0x19EF JUMP JUMPDEST PUSH1 0x1 PUSH1 0x1 PUSH1 0xA0 SHL SUB AND DUP2 PUSH1 0x1 PUSH1 0x1 PUSH1 0xA0 SHL SUB AND EQ DUP1 PUSH2 0x2112 JUMPI POP PUSH2 0x2112 DUP2 PUSH2 0x7B6 PUSH2 0x19EF JUMP JUMPDEST PUSH2 0x212E JUMPI PUSH1 0x40 MLOAD PUSH3 0x461BCD PUSH1 0xE5 SHL DUP2 MSTORE PUSH1 0x4 ADD PUSH2 0xA62 SWAP1 PUSH2 0x407D JUMP JUMPDEST PUSH1 0x1 PUSH1 0x1 PUSH1 0xA0 SHL SUB DUP6 AND PUSH2 0x2192 JUMPI PUSH1 0x40 MLOAD PUSH3 0x461BCD PUSH1 0xE5 SHL DUP2 MSTORE PUSH1 0x20 PUSH1 0x4 DUP3 ADD MSTORE PUSH1 0x25 PUSH1 0x24 DUP3 ADD MSTORE PUSH32 0x455243313135353A207472616E7366657220746F20746865207A65726F206164 PUSH1 0x44 DUP3 ADD MSTORE PUSH5 0x6472657373 PUSH1 0xD8 SHL PUSH1 0x64 DUP3 ADD MSTORE PUSH1 0x84 ADD PUSH2 0xA62 JUMP JUMPDEST PUSH1 0x0 PUSH2 0x219C PUSH2 0x19EF JUMP JUMPDEST SWAP1 POP PUSH2 0x21B6 DUP2 DUP9 DUP9 PUSH2 0x21AD DUP10 PUSH2 0x290B JUMP JUMPDEST PUSH2 0x106C DUP10 PUSH2 0x290B JUMP JUMPDEST PUSH1 0x0 DUP6 DUP2 MSTORE PUSH1 0xFF PUSH1 0x20 SWAP1 DUP2 MSTORE PUSH1 0x40 DUP1 DUP4 KECCAK256 PUSH1 0x1 PUSH1 0x1 PUSH1 0xA0 SHL SUB DUP12 AND DUP5 MSTORE SWAP1 SWAP2 MSTORE SWAP1 KECCAK256 SLOAD DUP5 DUP2 LT ISZERO PUSH2 0x223C JUMPI PUSH1 0x40 MLOAD PUSH3 0x461BCD PUSH1 0xE5 SHL DUP2 MSTORE PUSH1 0x20 PUSH1 0x4 DUP3 ADD MSTORE PUSH1 0x2A PUSH1 0x24 DUP3 ADD MSTORE PUSH32 0x455243313135353A20696E73756666696369656E742062616C616E636520666F PUSH1 0x44 DUP3 ADD MSTORE PUSH10 0x39103A3930B739B332B9 PUSH1 0xB1 SHL PUSH1 0x64 DUP3 ADD MSTORE PUSH1 0x84 ADD PUSH2 0xA62 JUMP JUMPDEST PUSH2 0x2246 DUP6 DUP3 PUSH2 0x4006 JUMP JUMPDEST PUSH1 0x0 DUP8 DUP2 MSTORE PUSH1 0xFF PUSH1 0x20 SWAP1 DUP2 MSTORE PUSH1 0x40 DUP1 DUP4 KECCAK256 PUSH1 0x1 PUSH1 0x1 PUSH1 0xA0 SHL SUB DUP14 DUP2 AND DUP6 MSTORE SWAP3 MSTORE DUP1 DUP4 KECCAK256 SWAP4 SWAP1 SWAP4 SSTORE DUP10 AND DUP2 MSTORE SWAP1 DUP2 KECCAK256 DUP1 SLOAD DUP8 SWAP3 SWAP1 PUSH2 0x2284 SWAP1 DUP5 SWAP1 PUSH2 0x3C5E JUMP JUMPDEST SWAP1 SWAP2 SSTORE POP POP PUSH1 0x40 DUP1 MLOAD DUP8 DUP2 MSTORE PUSH1 0x20 DUP2 ADD DUP8 SWAP1 MSTORE PUSH1 0x1 PUSH1 0x1 PUSH1 0xA0 SHL SUB DUP1 DUP11 AND SWAP3 DUP12 DUP3 AND SWAP3 SWAP2 DUP7 AND SWAP2 PUSH1 0x0 DUP1 MLOAD PUSH1 0x20 PUSH2 0x4293 DUP4 CODECOPY DUP2 MLOAD SWAP2 MSTORE SWAP2 ADD PUSH1 0x40 MLOAD DUP1 SWAP2 SUB SWAP1 LOG4 PUSH2 0x22D2 DUP3 DUP10 DUP10 DUP10 DUP10 DUP10 PUSH2 0x2956 JUMP JUMPDEST POP POP POP POP POP POP POP POP JUMP JUMPDEST DUP3 PUSH2 0x22E5 PUSH2 0x19EF JUMP JUMPDEST PUSH1 0x1 PUSH1 0x1 PUSH1 0xA0 SHL SUB AND DUP2 PUSH1 0x1 PUSH1 0x1 PUSH1 0xA0 SHL SUB AND EQ DUP1 PUSH2 0x230B JUMPI POP PUSH2 0x230B DUP2 PUSH2 0x7B6 PUSH2 0x19EF JUMP JUMPDEST PUSH2 0x2327 JUMPI PUSH1 0x40 MLOAD PUSH3 0x461BCD PUSH1 0xE5 SHL DUP2 MSTORE PUSH1 0x4 ADD PUSH2 0xA62 SWAP1 PUSH2 0x407D JUMP JUMPDEST PUSH2 0x125B DUP5 DUP5 DUP5 PUSH2 0x2AB1 JUMP JUMPDEST DUP3 PUSH2 0x233B PUSH2 0x19EF JUMP JUMPDEST PUSH1 0x1 PUSH1 0x1 PUSH1 0xA0 SHL SUB AND DUP2 PUSH1 0x1 PUSH1 0x1 PUSH1 0xA0 SHL SUB AND EQ DUP1 PUSH2 0x2361 JUMPI POP PUSH2 0x2361 DUP2 PUSH2 0x7B6 PUSH2 0x19EF JUMP JUMPDEST PUSH2 0x237D JUMPI PUSH1 0x40 MLOAD PUSH3 0x461BCD PUSH1 0xE5 SHL DUP2 MSTORE PUSH1 0x4 ADD PUSH2 0xA62 SWAP1 PUSH2 0x407D JUMP JUMPDEST PUSH2 0x125B DUP5 DUP5 DUP5 PUSH2 0x2CC6 JUMP JUMPDEST PUSH1 0x0 PUSH1 0x1 PUSH1 0x1 PUSH1 0xE0 SHL SUB NOT DUP3 AND PUSH4 0x6CDB3D13 PUSH1 0xE1 SHL EQ DUP1 PUSH2 0x23B9 JUMPI POP PUSH1 0x1 PUSH1 0x1 PUSH1 0xE0 SHL SUB NOT DUP3 AND PUSH4 0x3A24D07 PUSH1 0xE2 SHL EQ JUMPDEST DUP1 PUSH2 0x88A JUMPI POP PUSH4 0x1FFC9A7 PUSH1 0xE0 SHL PUSH1 0x1 PUSH1 0x1 PUSH1 0xE0 SHL SUB NOT DUP4 AND EQ PUSH2 0x88A JUMP JUMPDEST PUSH1 0x0 ADDRESS CALLER SUB PUSH2 0x242E JUMPI PUSH1 0x0 DUP1 CALLDATASIZE DUP1 DUP1 PUSH1 0x1F ADD PUSH1 0x20 DUP1 SWAP2 DIV MUL PUSH1 0x20 ADD PUSH1 0x40 MLOAD SWAP1 DUP2 ADD PUSH1 0x40 MSTORE DUP1 SWAP4 SWAP3 SWAP2 SWAP1 DUP2 DUP2 MSTORE PUSH1 0x20 ADD DUP4 DUP4 DUP1 DUP3 DUP5 CALLDATACOPY PUSH1 0x0 SWAP3 ADD SWAP2 SWAP1 SWAP2 MSTORE POP POP POP POP CALLDATASIZE ADD MLOAD PUSH1 0x1 PUSH1 0x1 PUSH1 0xA0 SHL SUB AND SWAP2 POP PUSH2 0x2431 SWAP1 POP JUMP JUMPDEST POP CALLER JUMPDEST SWAP1 JUMP JUMPDEST PUSH1 0x0 PUSH1 0x40 MLOAD DUP1 PUSH1 0x80 ADD PUSH1 0x40 MSTORE DUP1 PUSH1 0x43 DUP2 MSTORE PUSH1 0x20 ADD PUSH2 0x42B3 PUSH1 0x43 SWAP2 CODECOPY DUP1 MLOAD PUSH1 0x20 SWAP2 DUP3 ADD KECCAK256 DUP4 MLOAD DUP5 DUP4 ADD MLOAD PUSH1 0x40 DUP1 DUP8 ADD MLOAD DUP1 MLOAD SWAP1 DUP7 ADD KECCAK256 SWAP1 MLOAD PUSH2 0x2494 SWAP6 ADD SWAP4 DUP5 MSTORE PUSH1 0x20 DUP5 ADD SWAP3 SWAP1 SWAP3 MSTORE PUSH1 0x1 PUSH1 0x1 PUSH1 0xA0 SHL SUB AND PUSH1 0x40 DUP4 ADD MSTORE PUSH1 0x60 DUP3 ADD MSTORE PUSH1 0x80 ADD SWAP1 JUMP JUMPDEST PUSH1 0x40 MLOAD PUSH1 0x20 DUP2 DUP4 SUB SUB DUP2 MSTORE SWAP1 PUSH1 0x40 MSTORE DUP1 MLOAD SWAP1 PUSH1 0x20 ADD KECCAK256 SWAP1 POP SWAP2 SWAP1 POP JUMP JUMPDEST PUSH1 0x0 PUSH2 0x24BC PUSH1 0x97 SLOAD SWAP1 JUMP JUMPDEST PUSH1 0x40 MLOAD PUSH2 0x1901 PUSH1 0xF0 SHL PUSH1 0x20 DUP3 ADD MSTORE PUSH1 0x22 DUP2 ADD SWAP2 SWAP1 SWAP2 MSTORE PUSH1 0x42 DUP2 ADD DUP4 SWAP1 MSTORE PUSH1 0x62 ADD PUSH2 0x2494 JUMP JUMPDEST PUSH1 0x0 SLOAD PUSH2 0x100 SWAP1 DIV PUSH1 0xFF AND PUSH2 0x2508 JUMPI PUSH1 0x40 MLOAD PUSH3 0x461BCD PUSH1 0xE5 SHL DUP2 MSTORE PUSH1 0x4 ADD PUSH2 0xA62 SWAP1 PUSH2 0x4032 JUMP JUMPDEST PUSH2 0x2513 DUP5 DUP5 DUP4 PUSH2 0x2F35 JUMP JUMPDEST PUSH2 0x125B DUP3 PUSH2 0x2F87 JUMP JUMPDEST PUSH1 0xCB SLOAD PUSH1 0xFF AND PUSH2 0x10A2 JUMPI PUSH1 0x40 MLOAD PUSH3 0x461BCD PUSH1 0xE5 SHL DUP2 MSTORE PUSH1 0x20 PUSH1 0x4 DUP3 ADD MSTORE PUSH1 0x14 PUSH1 0x24 DUP3 ADD MSTORE PUSH20 0x14185D5CD8589B194E881B9BDD081C185D5CD959 PUSH1 0x62 SHL PUSH1 0x44 DUP3 ADD MSTORE PUSH1 0x64 ADD PUSH2 0xA62 JUMP JUMPDEST PUSH2 0x256D PUSH2 0x2661 JUMP JUMPDEST PUSH1 0x0 PUSH2 0x2577 PUSH2 0x19EF JUMP JUMPDEST SWAP1 POP PUSH2 0x2592 DUP2 PUSH1 0x0 DUP8 PUSH2 0x2589 DUP9 PUSH2 0x290B JUMP JUMPDEST PUSH2 0x106C DUP9 PUSH2 0x290B JUMP JUMPDEST PUSH2 0x259C DUP5 DUP5 PUSH2 0x2FBE JUMP JUMPDEST PUSH1 0x0 DUP5 DUP2 MSTORE PUSH1 0xFF PUSH1 0x20 SWAP1 DUP2 MSTORE PUSH1 0x40 DUP1 DUP4 KECCAK256 PUSH1 0x1 PUSH1 0x1 PUSH1 0xA0 SHL SUB DUP10 AND DUP5 MSTORE SWAP1 SWAP2 MSTORE DUP2 KECCAK256 DUP1 SLOAD DUP6 SWAP3 SWAP1 PUSH2 0x25CE SWAP1 DUP5 SWAP1 PUSH2 0x3C5E JUMP JUMPDEST SWAP1 SWAP2 SSTORE POP POP PUSH1 0x0 DUP5 DUP2 MSTORE PUSH2 0x100 PUSH1 0x20 MSTORE PUSH1 0x40 DUP2 KECCAK256 DUP1 SLOAD DUP6 SWAP3 SWAP1 PUSH2 0x25F2 SWAP1 DUP5 SWAP1 PUSH2 0x3C5E JUMP JUMPDEST SWAP1 SWAP2 SSTORE POP PUSH1 0x0 SWAP1 POP PUSH2 0x2603 DUP6 PUSH2 0x303C JUMP JUMPDEST SWAP1 POP DUP6 PUSH1 0x1 PUSH1 0x1 PUSH1 0xA0 SHL SUB AND DUP2 PUSH1 0x1 PUSH1 0x1 PUSH1 0xA0 SHL SUB AND DUP4 PUSH1 0x1 PUSH1 0x1 PUSH1 0xA0 SHL SUB AND PUSH1 0x0 DUP1 MLOAD PUSH1 0x20 PUSH2 0x4293 DUP4 CODECOPY DUP2 MLOAD SWAP2 MSTORE DUP9 DUP9 PUSH1 0x40 MLOAD PUSH2 0x264B SWAP3 SWAP2 SWAP1 SWAP2 DUP3 MSTORE PUSH1 0x20 DUP3 ADD MSTORE PUSH1 0x40 ADD SWAP1 JUMP JUMPDEST PUSH1 0x40 MLOAD DUP1 SWAP2 SUB SWAP1 LOG4 PUSH2 0xE04 DUP3 DUP3 DUP9 DUP9 DUP9 DUP9 PUSH2 0x2956 JUMP JUMPDEST PUSH1 0xCB SLOAD PUSH1 0xFF AND ISZERO PUSH2 0x10A2 JUMPI PUSH1 0x40 MLOAD PUSH3 0x461BCD PUSH1 0xE5 SHL DUP2 MSTORE PUSH1 0x20 PUSH1 0x4 DUP3 ADD MSTORE PUSH1 0x10 PUSH1 0x24 DUP3 ADD MSTORE PUSH16 0x14185D5CD8589B194E881C185D5CD959 PUSH1 0x82 SHL PUSH1 0x44 DUP3 ADD MSTORE PUSH1 0x64 ADD PUSH2 0xA62 JUMP JUMPDEST PUSH2 0x26AF PUSH2 0x2661 JUMP JUMPDEST DUP2 MLOAD DUP4 MLOAD EQ PUSH2 0x2719 JUMPI PUSH1 0x40 MLOAD PUSH3 0x461BCD PUSH1 0xE5 SHL DUP2 MSTORE PUSH1 0x20 PUSH1 0x4 DUP3 ADD MSTORE PUSH1 0x30 PUSH1 0x24 DUP3 ADD MSTORE PUSH32 0x455243313135355472616461626C652362617463684D696E743A20494E56414C PUSH1 0x44 DUP3 ADD MSTORE PUSH16 0x9288BE82A4A482B2A6BE988A9C8EA89 PUSH1 0x83 SHL PUSH1 0x64 DUP3 ADD MSTORE PUSH1 0x84 ADD PUSH2 0xA62 JUMP JUMPDEST DUP3 MLOAD PUSH1 0x0 PUSH2 0x273C DUP6 DUP3 DUP5 PUSH2 0x272F JUMPI PUSH2 0x272F PUSH2 0x3EBA JUMP JUMPDEST PUSH1 0x20 MUL PUSH1 0x20 ADD ADD MLOAD PUSH2 0x303C JUMP JUMPDEST SWAP1 POP PUSH1 0x0 PUSH2 0x2748 PUSH2 0x19EF JUMP JUMPDEST SWAP1 POP PUSH1 0x0 JUMPDEST DUP4 DUP2 LT ISZERO PUSH2 0x289C JUMPI PUSH1 0x0 DUP8 DUP3 DUP2 MLOAD DUP2 LT PUSH2 0x2769 JUMPI PUSH2 0x2769 PUSH2 0x3EBA JUMP JUMPDEST PUSH1 0x20 MUL PUSH1 0x20 ADD ADD MLOAD SWAP1 POP PUSH1 0x0 DUP8 DUP4 DUP2 MLOAD DUP2 LT PUSH2 0x2787 JUMPI PUSH2 0x2787 PUSH2 0x3EBA JUMP JUMPDEST PUSH1 0x20 MUL PUSH1 0x20 ADD ADD MLOAD SWAP1 POP PUSH2 0x279B DUP3 DUP3 PUSH2 0x2FBE JUMP JUMPDEST DUP5 PUSH1 0x1 PUSH1 0x1 PUSH1 0xA0 SHL SUB AND PUSH2 0x27AE DUP4 PUSH2 0x303C JUMP JUMPDEST PUSH1 0x1 PUSH1 0x1 PUSH1 0xA0 SHL SUB AND EQ PUSH2 0x282A JUMPI PUSH1 0x40 MLOAD PUSH3 0x461BCD PUSH1 0xE5 SHL DUP2 MSTORE PUSH1 0x20 PUSH1 0x4 DUP3 ADD MSTORE PUSH1 0x37 PUSH1 0x24 DUP3 ADD MSTORE PUSH32 0x455243313135355472616461626C652362617463684D696E743A204D554C5449 PUSH1 0x44 DUP3 ADD MSTORE PUSH32 0x504C455F4F524947494E535F4E4F545F414C4C4F574544000000000000000000 PUSH1 0x64 DUP3 ADD MSTORE PUSH1 0x84 ADD PUSH2 0xA62 JUMP JUMPDEST PUSH1 0x0 DUP3 DUP2 MSTORE PUSH1 0xFF PUSH1 0x20 SWAP1 DUP2 MSTORE PUSH1 0x40 DUP1 DUP4 KECCAK256 PUSH1 0x1 PUSH1 0x1 PUSH1 0xA0 SHL SUB DUP15 AND DUP5 MSTORE SWAP1 SWAP2 MSTORE DUP2 KECCAK256 DUP1 SLOAD DUP4 SWAP3 SWAP1 PUSH2 0x285C SWAP1 DUP5 SWAP1 PUSH2 0x3C5E JUMP JUMPDEST SWAP1 SWAP2 SSTORE POP POP PUSH1 0x0 DUP3 DUP2 MSTORE PUSH2 0x100 PUSH1 0x20 MSTORE PUSH1 0x40 DUP2 KECCAK256 DUP1 SLOAD DUP4 SWAP3 SWAP1 PUSH2 0x2880 SWAP1 DUP5 SWAP1 PUSH2 0x3C5E JUMP JUMPDEST SWAP3 POP POP DUP2 SWAP1 SSTORE POP POP POP DUP1 DUP1 PUSH2 0x2894 SWAP1 PUSH2 0x3ED0 JUMP JUMPDEST SWAP2 POP POP PUSH2 0x274D JUMP JUMPDEST POP DUP7 PUSH1 0x1 PUSH1 0x1 PUSH1 0xA0 SHL SUB AND DUP3 PUSH1 0x1 PUSH1 0x1 PUSH1 0xA0 SHL SUB AND DUP3 PUSH1 0x1 PUSH1 0x1 PUSH1 0xA0 SHL SUB AND PUSH32 0x4A39DC06D4C0DBC64B70AF90FD698A233A518AA5D07E595D983B8C0526C8F7FB DUP10 DUP10 PUSH1 0x40 MLOAD PUSH2 0x28EC SWAP3 SWAP2 SWAP1 PUSH2 0x40CD JUMP JUMPDEST PUSH1 0x40 MLOAD DUP1 SWAP2 SUB SWAP1 LOG4 PUSH2 0x2902 DUP2 DUP4 DUP10 DUP10 DUP10 DUP10 PUSH2 0x3047 JUMP JUMPDEST POP POP POP POP POP POP POP JUMP JUMPDEST PUSH1 0x40 DUP1 MLOAD PUSH1 0x1 DUP1 DUP3 MSTORE DUP2 DUP4 ADD SWAP1 SWAP3 MSTORE PUSH1 0x60 SWAP2 PUSH1 0x0 SWAP2 SWAP1 PUSH1 0x20 DUP1 DUP4 ADD SWAP1 DUP1 CALLDATASIZE DUP4 CALLDATACOPY ADD SWAP1 POP POP SWAP1 POP DUP3 DUP2 PUSH1 0x0 DUP2 MLOAD DUP2 LT PUSH2 0x2945 JUMPI PUSH2 0x2945 PUSH2 0x3EBA JUMP JUMPDEST PUSH1 0x20 SWAP1 DUP2 MUL SWAP2 SWAP1 SWAP2 ADD ADD MSTORE SWAP3 SWAP2 POP POP JUMP JUMPDEST PUSH1 0x1 PUSH1 0x1 PUSH1 0xA0 SHL SUB DUP5 AND EXTCODESIZE ISZERO PUSH2 0xE04 JUMPI PUSH1 0x40 MLOAD PUSH4 0xF23A6E61 PUSH1 0xE0 SHL DUP2 MSTORE PUSH1 0x1 PUSH1 0x1 PUSH1 0xA0 SHL SUB DUP6 AND SWAP1 PUSH4 0xF23A6E61 SWAP1 PUSH2 0x299A SWAP1 DUP10 SWAP1 DUP10 SWAP1 DUP9 SWAP1 DUP9 SWAP1 DUP9 SWAP1 PUSH1 0x4 ADD PUSH2 0x40F2 JUMP JUMPDEST PUSH1 0x20 PUSH1 0x40 MLOAD DUP1 DUP4 SUB DUP2 PUSH1 0x0 DUP8 GAS CALL SWAP3 POP POP POP DUP1 ISZERO PUSH2 0x29D5 JUMPI POP PUSH1 0x40 DUP1 MLOAD PUSH1 0x1F RETURNDATASIZE SWAP1 DUP2 ADD PUSH1 0x1F NOT AND DUP3 ADD SWAP1 SWAP3 MSTORE PUSH2 0x29D2 SWAP2 DUP2 ADD SWAP1 PUSH2 0x4137 JUMP JUMPDEST PUSH1 0x1 JUMPDEST PUSH2 0x2A81 JUMPI PUSH2 0x29E1 PUSH2 0x4154 JUMP JUMPDEST DUP1 PUSH4 0x8C379A0 SUB PUSH2 0x2A1A JUMPI POP PUSH2 0x29F5 PUSH2 0x416F JUMP JUMPDEST DUP1 PUSH2 0x2A00 JUMPI POP PUSH2 0x2A1C JUMP JUMPDEST DUP1 PUSH1 0x40 MLOAD PUSH3 0x461BCD PUSH1 0xE5 SHL DUP2 MSTORE PUSH1 0x4 ADD PUSH2 0xA62 SWAP2 SWAP1 PUSH2 0x3422 JUMP JUMPDEST POP JUMPDEST PUSH1 0x40 MLOAD PUSH3 0x461BCD PUSH1 0xE5 SHL DUP2 MSTORE PUSH1 0x20 PUSH1 0x4 DUP3 ADD MSTORE PUSH1 0x34 PUSH1 0x24 DUP3 ADD MSTORE PUSH32 0x455243313135353A207472616E7366657220746F206E6F6E2045524331313535 PUSH1 0x44 DUP3 ADD MSTORE PUSH20 0x2932B1B2B4BB32B91034B6B83632B6B2B73A32B9 PUSH1 0x61 SHL PUSH1 0x64 DUP3 ADD MSTORE PUSH1 0x84 ADD PUSH2 0xA62 JUMP JUMPDEST PUSH1 0x1 PUSH1 0x1 PUSH1 0xE0 SHL SUB NOT DUP2 AND PUSH4 0xF23A6E61 PUSH1 0xE0 SHL EQ PUSH2 0x2902 JUMPI PUSH1 0x40 MLOAD PUSH3 0x461BCD PUSH1 0xE5 SHL DUP2 MSTORE PUSH1 0x4 ADD PUSH2 0xA62 SWAP1 PUSH2 0x41F8 JUMP JUMPDEST PUSH2 0x2AB9 PUSH2 0x2661 JUMP JUMPDEST PUSH1 0x1 PUSH1 0x1 PUSH1 0xA0 SHL SUB DUP4 AND PUSH2 0x2B1D JUMPI PUSH1 0x40 MLOAD PUSH3 0x461BCD PUSH1 0xE5 SHL DUP2 MSTORE PUSH1 0x20 PUSH1 0x4 DUP3 ADD MSTORE PUSH1 0x25 PUSH1 0x24 DUP3 ADD MSTORE PUSH32 0x45524331313535235F6275726E3A204255524E5F46524F4D5F5A45524F5F4144 PUSH1 0x44 DUP3 ADD MSTORE PUSH5 0x4452455353 PUSH1 0xD8 SHL PUSH1 0x64 DUP3 ADD MSTORE PUSH1 0x84 ADD PUSH2 0xA62 JUMP JUMPDEST PUSH1 0x0 DUP2 GT PUSH2 0x2B79 JUMPI PUSH1 0x40 MLOAD PUSH3 0x461BCD PUSH1 0xE5 SHL DUP2 MSTORE PUSH1 0x20 PUSH1 0x4 DUP3 ADD MSTORE PUSH1 0x23 PUSH1 0x24 DUP3 ADD MSTORE PUSH32 0x45524331313535235F6275726E3A20414D4F554E545F4C4553535F5448414E5F PUSH1 0x44 DUP3 ADD MSTORE PUSH3 0x4F4E45 PUSH1 0xE8 SHL PUSH1 0x64 DUP3 ADD MSTORE PUSH1 0x84 ADD PUSH2 0xA62 JUMP JUMPDEST PUSH1 0x0 PUSH2 0x2B83 PUSH2 0x19EF JUMP JUMPDEST SWAP1 POP PUSH2 0x2BB4 DUP2 DUP6 PUSH1 0x0 PUSH2 0x2B95 DUP8 PUSH2 0x290B JUMP JUMPDEST PUSH2 0x2B9E DUP8 PUSH2 0x290B JUMP JUMPDEST POP POP PUSH1 0x40 DUP1 MLOAD PUSH1 0x20 DUP2 ADD SWAP1 SWAP2 MSTORE PUSH1 0x0 SWAP1 MSTORE POP POP POP JUMP JUMPDEST PUSH1 0x0 DUP4 DUP2 MSTORE PUSH1 0xFF PUSH1 0x20 SWAP1 DUP2 MSTORE PUSH1 0x40 DUP1 DUP4 KECCAK256 PUSH1 0x1 PUSH1 0x1 PUSH1 0xA0 SHL SUB DUP9 AND DUP5 MSTORE SWAP1 SWAP2 MSTORE SWAP1 KECCAK256 SLOAD DUP3 DUP2 LT ISZERO PUSH2 0x2C35 JUMPI PUSH1 0x40 MLOAD PUSH3 0x461BCD PUSH1 0xE5 SHL DUP2 MSTORE PUSH1 0x20 PUSH1 0x4 DUP3 ADD MSTORE PUSH1 0x25 PUSH1 0x24 DUP3 ADD MSTORE PUSH32 0x45524331313535235F6275726E3A20414D4F554E545F455843454544535F4241 PUSH1 0x44 DUP3 ADD MSTORE PUSH5 0x4C414E4345 PUSH1 0xD8 SHL PUSH1 0x64 DUP3 ADD MSTORE PUSH1 0x84 ADD PUSH2 0xA62 JUMP JUMPDEST PUSH2 0x2C3F DUP4 DUP3 PUSH2 0x4006 JUMP JUMPDEST PUSH1 0x0 DUP6 DUP2 MSTORE PUSH1 0xFF PUSH1 0x20 SWAP1 DUP2 MSTORE PUSH1 0x40 DUP1 DUP4 KECCAK256 PUSH1 0x1 PUSH1 0x1 PUSH1 0xA0 SHL SUB DUP11 AND DUP5 MSTORE DUP3 MSTORE DUP1 DUP4 KECCAK256 SWAP4 SWAP1 SWAP4 SSTORE DUP7 DUP3 MSTORE PUSH2 0x100 SWAP1 MSTORE SWAP1 DUP2 KECCAK256 DUP1 SLOAD DUP6 SWAP3 SWAP1 PUSH2 0x2C80 SWAP1 DUP5 SWAP1 PUSH2 0x4006 JUMP JUMPDEST SWAP1 SWAP2 SSTORE POP POP PUSH1 0x40 DUP1 MLOAD DUP6 DUP2 MSTORE PUSH1 0x20 DUP2 ADD DUP6 SWAP1 MSTORE PUSH1 0x0 SWAP2 PUSH1 0x1 PUSH1 0x1 PUSH1 0xA0 SHL SUB DUP9 DUP2 AND SWAP3 SWAP1 DUP7 AND SWAP2 PUSH1 0x0 DUP1 MLOAD PUSH1 0x20 PUSH2 0x4293 DUP4 CODECOPY DUP2 MLOAD SWAP2 MSTORE SWAP2 ADD PUSH1 0x40 MLOAD DUP1 SWAP2 SUB SWAP1 LOG4 POP POP POP POP POP JUMP JUMPDEST PUSH2 0x2CCE PUSH2 0x2661 JUMP JUMPDEST PUSH1 0x1 PUSH1 0x1 PUSH1 0xA0 SHL SUB DUP4 AND PUSH2 0x2D24 JUMPI PUSH1 0x40 MLOAD PUSH3 0x461BCD PUSH1 0xE5 SHL DUP2 MSTORE PUSH1 0x20 PUSH1 0x4 DUP3 ADD MSTORE PUSH1 0x1F PUSH1 0x24 DUP3 ADD MSTORE PUSH32 0x455243313135353A204255524E5F46524F4D5F5A45524F5F4144445245535300 PUSH1 0x44 DUP3 ADD MSTORE PUSH1 0x64 ADD PUSH2 0xA62 JUMP JUMPDEST DUP1 MLOAD DUP3 MLOAD EQ PUSH2 0x2D81 JUMPI PUSH1 0x40 MLOAD PUSH3 0x461BCD PUSH1 0xE5 SHL DUP2 MSTORE PUSH1 0x20 PUSH1 0x4 DUP3 ADD MSTORE PUSH1 0x24 DUP1 DUP3 ADD MSTORE PUSH32 0x455243313135353A204944535F414D4F554E54535F4C454E4754485F4D49534D PUSH1 0x44 DUP3 ADD MSTORE PUSH4 0x82A8869 PUSH1 0xE3 SHL PUSH1 0x64 DUP3 ADD MSTORE PUSH1 0x84 ADD PUSH2 0xA62 JUMP JUMPDEST PUSH1 0x0 PUSH2 0x2D8B PUSH2 0x19EF JUMP JUMPDEST PUSH1 0x40 DUP1 MLOAD PUSH1 0x20 DUP2 ADD SWAP1 SWAP2 MSTORE PUSH1 0x0 SWAP1 MSTORE SWAP1 POP PUSH1 0x0 JUMPDEST DUP4 MLOAD DUP2 LT ISZERO PUSH2 0x2ED6 JUMPI PUSH1 0x0 DUP5 DUP3 DUP2 MLOAD DUP2 LT PUSH2 0x2DBC JUMPI PUSH2 0x2DBC PUSH2 0x3EBA JUMP JUMPDEST PUSH1 0x20 MUL PUSH1 0x20 ADD ADD MLOAD SWAP1 POP PUSH1 0x0 DUP5 DUP4 DUP2 MLOAD DUP2 LT PUSH2 0x2DDA JUMPI PUSH2 0x2DDA PUSH2 0x3EBA JUMP JUMPDEST PUSH1 0x20 SWAP1 DUP2 MUL SWAP2 SWAP1 SWAP2 ADD DUP2 ADD MLOAD PUSH1 0x0 DUP5 DUP2 MSTORE PUSH1 0xFF DUP4 MSTORE PUSH1 0x40 DUP1 DUP3 KECCAK256 PUSH1 0x1 PUSH1 0x1 PUSH1 0xA0 SHL SUB DUP13 AND DUP4 MSTORE SWAP1 SWAP4 MSTORE SWAP2 SWAP1 SWAP2 KECCAK256 SLOAD SWAP1 SWAP2 POP DUP2 DUP2 LT ISZERO PUSH2 0x2E6E JUMPI PUSH1 0x40 MLOAD PUSH3 0x461BCD PUSH1 0xE5 SHL DUP2 MSTORE PUSH1 0x20 PUSH1 0x4 DUP3 ADD MSTORE PUSH1 0x2A PUSH1 0x24 DUP3 ADD MSTORE PUSH32 0x45524331313535235F6275726E42617463683A20414D4F554E545F4558434545 PUSH1 0x44 DUP3 ADD MSTORE PUSH10 0x44535F42414C414E4345 PUSH1 0xB0 SHL PUSH1 0x64 DUP3 ADD MSTORE PUSH1 0x84 ADD PUSH2 0xA62 JUMP JUMPDEST PUSH2 0x2E78 DUP3 DUP3 PUSH2 0x4006 JUMP JUMPDEST PUSH1 0x0 DUP5 DUP2 MSTORE PUSH1 0xFF PUSH1 0x20 SWAP1 DUP2 MSTORE PUSH1 0x40 DUP1 DUP4 KECCAK256 PUSH1 0x1 PUSH1 0x1 PUSH1 0xA0 SHL SUB DUP14 AND DUP5 MSTORE DUP3 MSTORE DUP1 DUP4 KECCAK256 SWAP4 SWAP1 SWAP4 SSTORE DUP6 DUP3 MSTORE PUSH2 0x100 SWAP1 MSTORE SWAP1 DUP2 KECCAK256 DUP1 SLOAD DUP5 SWAP3 SWAP1 PUSH2 0x2EB9 SWAP1 DUP5 SWAP1 PUSH2 0x4006 JUMP JUMPDEST SWAP3 POP POP DUP2 SWAP1 SSTORE POP POP POP POP DUP1 DUP1 PUSH2 0x2ECE SWAP1 PUSH2 0x3ED0 JUMP JUMPDEST SWAP2 POP POP PUSH2 0x2D9F JUMP JUMPDEST POP PUSH1 0x0 PUSH1 0x1 PUSH1 0x1 PUSH1 0xA0 SHL SUB AND DUP5 PUSH1 0x1 PUSH1 0x1 PUSH1 0xA0 SHL SUB AND DUP3 PUSH1 0x1 PUSH1 0x1 PUSH1 0xA0 SHL SUB AND PUSH32 0x4A39DC06D4C0DBC64B70AF90FD698A233A518AA5D07E595D983B8C0526C8F7FB DUP7 DUP7 PUSH1 0x40 MLOAD PUSH2 0x2F27 SWAP3 SWAP2 SWAP1 PUSH2 0x40CD JUMP JUMPDEST PUSH1 0x40 MLOAD DUP1 SWAP2 SUB SWAP1 LOG4 POP POP POP POP JUMP JUMPDEST PUSH1 0x0 SLOAD PUSH2 0x100 SWAP1 DIV PUSH1 0xFF AND PUSH2 0x2F5C JUMPI PUSH1 0x40 MLOAD PUSH3 0x461BCD PUSH1 0xE5 SHL DUP2 MSTORE PUSH1 0x4 ADD PUSH2 0xA62 SWAP1 PUSH2 0x4032 JUMP JUMPDEST PUSH2 0x2F64 PUSH2 0x3102 JUMP JUMPDEST PUSH2 0x2F7C PUSH1 0x40 MLOAD DUP1 PUSH1 0x20 ADD PUSH1 0x40 MSTORE DUP1 PUSH1 0x0 DUP2 MSTORE POP PUSH2 0x3139 JUMP JUMPDEST PUSH2 0x18A1 DUP4 DUP4 DUP4 PUSH2 0x3169 JUMP JUMPDEST PUSH1 0x0 SLOAD PUSH2 0x100 SWAP1 DIV PUSH1 0xFF AND PUSH2 0x2FAE JUMPI PUSH1 0x40 MLOAD PUSH3 0x461BCD PUSH1 0xE5 SHL DUP2 MSTORE PUSH1 0x4 ADD PUSH2 0xA62 SWAP1 PUSH2 0x4032 JUMP JUMPDEST DUP1 MLOAD ISZERO PUSH2 0x172E JUMPI PUSH2 0x172E DUP2 PUSH2 0xE0C JUMP JUMPDEST PUSH2 0x2FC7 DUP3 PUSH2 0x198D JUMP JUMPDEST DUP2 GT ISZERO PUSH2 0xE45 JUMPI PUSH1 0x40 MLOAD PUSH3 0x461BCD PUSH1 0xE5 SHL DUP2 MSTORE PUSH1 0x20 PUSH1 0x4 DUP3 ADD MSTORE PUSH1 0x3C PUSH1 0x24 DUP3 ADD MSTORE PUSH32 0x4173736574436F6E7472616374235F6265666F72654D696E743A205155414E54 PUSH1 0x44 DUP3 ADD MSTORE PUSH32 0x4954595F455843454544535F544F4B454E5F535550504C595F43415000000000 PUSH1 0x64 DUP3 ADD MSTORE PUSH1 0x84 ADD PUSH2 0xA62 JUMP JUMPDEST PUSH1 0x0 PUSH2 0x88A DUP3 PUSH2 0x19D5 JUMP JUMPDEST PUSH1 0x1 PUSH1 0x1 PUSH1 0xA0 SHL SUB DUP5 AND EXTCODESIZE ISZERO PUSH2 0xE04 JUMPI PUSH1 0x40 MLOAD PUSH4 0xBC197C81 PUSH1 0xE0 SHL DUP2 MSTORE PUSH1 0x1 PUSH1 0x1 PUSH1 0xA0 SHL SUB DUP6 AND SWAP1 PUSH4 0xBC197C81 SWAP1 PUSH2 0x308B SWAP1 DUP10 SWAP1 DUP10 SWAP1 DUP9 SWAP1 DUP9 SWAP1 DUP9 SWAP1 PUSH1 0x4 ADD PUSH2 0x4240 JUMP JUMPDEST PUSH1 0x20 PUSH1 0x40 MLOAD DUP1 DUP4 SUB DUP2 PUSH1 0x0 DUP8 GAS CALL SWAP3 POP POP POP DUP1 ISZERO PUSH2 0x30C6 JUMPI POP PUSH1 0x40 DUP1 MLOAD PUSH1 0x1F RETURNDATASIZE SWAP1 DUP2 ADD PUSH1 0x1F NOT AND DUP3 ADD SWAP1 SWAP3 MSTORE PUSH2 0x30C3 SWAP2 DUP2 ADD SWAP1 PUSH2 0x4137 JUMP JUMPDEST PUSH1 0x1 JUMPDEST PUSH2 0x30D2 JUMPI PUSH2 0x29E1 PUSH2 0x4154 JUMP JUMPDEST PUSH1 0x1 PUSH1 0x1 PUSH1 0xE0 SHL SUB NOT DUP2 AND PUSH4 0xBC197C81 PUSH1 0xE0 SHL EQ PUSH2 0x2902 JUMPI PUSH1 0x40 MLOAD PUSH3 0x461BCD PUSH1 0xE5 SHL DUP2 MSTORE PUSH1 0x4 ADD PUSH2 0xA62 SWAP1 PUSH2 0x41F8 JUMP JUMPDEST PUSH1 0x0 SLOAD PUSH2 0x100 SWAP1 DIV PUSH1 0xFF AND PUSH2 0x3129 JUMPI PUSH1 0x40 MLOAD PUSH3 0x461BCD PUSH1 0xE5 SHL DUP2 MSTORE PUSH1 0x4 ADD PUSH2 0xA62 SWAP1 PUSH2 0x4032 JUMP JUMPDEST PUSH2 0x10A2 PUSH2 0x3134 PUSH2 0x19EF JUMP JUMPDEST PUSH2 0x1D40 JUMP JUMPDEST PUSH1 0x0 SLOAD PUSH2 0x100 SWAP1 DIV PUSH1 0xFF AND PUSH2 0x3160 JUMPI PUSH1 0x40 MLOAD PUSH3 0x461BCD PUSH1 0xE5 SHL DUP2 MSTORE PUSH1 0x4 ADD PUSH2 0xA62 SWAP1 PUSH2 0x4032 JUMP JUMPDEST PUSH2 0x172E DUP2 PUSH2 0x325B JUMP JUMPDEST PUSH1 0x0 SLOAD PUSH2 0x100 SWAP1 DIV PUSH1 0xFF AND PUSH2 0x3190 JUMPI PUSH1 0x40 MLOAD PUSH3 0x461BCD PUSH1 0xE5 SHL DUP2 MSTORE PUSH1 0x4 ADD PUSH2 0xA62 SWAP1 PUSH2 0x4032 JUMP JUMPDEST PUSH1 0xFD PUSH2 0x319C DUP5 DUP3 PUSH2 0x3DC2 JUMP JUMPDEST POP PUSH1 0xFE PUSH2 0x31A9 DUP4 DUP3 PUSH2 0x3DC2 JUMP JUMPDEST POP PUSH2 0x101 DUP1 SLOAD PUSH1 0x1 PUSH1 0x1 PUSH1 0xA0 SHL SUB NOT AND PUSH1 0x1 PUSH1 0x1 PUSH1 0xA0 SHL SUB DUP4 AND OR SWAP1 SSTORE PUSH1 0xFD DUP1 SLOAD PUSH2 0x18A1 SWAP2 SWAP1 PUSH2 0x31D8 SWAP1 PUSH2 0x3C71 JUMP JUMPDEST DUP1 PUSH1 0x1F ADD PUSH1 0x20 DUP1 SWAP2 DIV MUL PUSH1 0x20 ADD PUSH1 0x40 MLOAD SWAP1 DUP2 ADD PUSH1 0x40 MSTORE DUP1 SWAP3 SWAP2 SWAP1 DUP2 DUP2 MSTORE PUSH1 0x20 ADD DUP3 DUP1 SLOAD PUSH2 0x3204 SWAP1 PUSH2 0x3C71 JUMP JUMPDEST DUP1 ISZERO PUSH2 0x3251 JUMPI DUP1 PUSH1 0x1F LT PUSH2 0x3226 JUMPI PUSH2 0x100 DUP1 DUP4 SLOAD DIV MUL DUP4 MSTORE SWAP2 PUSH1 0x20 ADD SWAP2 PUSH2 0x3251 JUMP JUMPDEST DUP3 ADD SWAP2 SWAP1 PUSH1 0x0 MSTORE PUSH1 0x20 PUSH1 0x0 KECCAK256 SWAP1 JUMPDEST DUP2 SLOAD DUP2 MSTORE SWAP1 PUSH1 0x1 ADD SWAP1 PUSH1 0x20 ADD DUP1 DUP4 GT PUSH2 0x3234 JUMPI DUP3 SWAP1 SUB PUSH1 0x1F AND DUP3 ADD SWAP2 JUMPDEST POP POP POP POP POP PUSH2 0x3267 JUMP JUMPDEST PUSH1 0x67 PUSH2 0xE45 DUP3 DUP3 PUSH2 0x3DC2 JUMP JUMPDEST PUSH1 0x0 SLOAD PUSH2 0x100 SWAP1 DIV PUSH1 0xFF AND PUSH2 0x328E JUMPI PUSH1 0x40 MLOAD PUSH3 0x461BCD PUSH1 0xE5 SHL DUP2 MSTORE PUSH1 0x4 ADD PUSH2 0xA62 SWAP1 PUSH2 0x4032 JUMP JUMPDEST PUSH2 0x172E DUP2 PUSH1 0x0 SLOAD PUSH2 0x100 SWAP1 DIV PUSH1 0xFF AND PUSH2 0x32B9 JUMPI PUSH1 0x40 MLOAD PUSH3 0x461BCD PUSH1 0xE5 SHL DUP2 MSTORE PUSH1 0x4 ADD PUSH2 0xA62 SWAP1 PUSH2 0x4032 JUMP JUMPDEST PUSH2 0x172E DUP2 PUSH1 0x40 MLOAD DUP1 PUSH1 0x80 ADD PUSH1 0x40 MSTORE DUP1 PUSH1 0x4F DUP2 MSTORE PUSH1 0x20 ADD PUSH2 0x42F6 PUSH1 0x4F SWAP2 CODECOPY DUP1 MLOAD PUSH1 0x20 SWAP2 DUP3 ADD KECCAK256 DUP3 MLOAD SWAP3 DUP3 ADD SWAP3 SWAP1 SWAP3 KECCAK256 PUSH1 0x40 DUP1 MLOAD DUP1 DUP3 ADD DUP3 MSTORE PUSH1 0x1 DUP2 MSTORE PUSH1 0x31 PUSH1 0xF8 SHL SWAP1 DUP5 ADD MSTORE DUP1 MLOAD DUP1 DUP5 ADD SWAP5 SWAP1 SWAP5 MSTORE DUP4 DUP2 ADD SWAP2 SWAP1 SWAP2 MSTORE PUSH32 0xC89EFDAA54C0F20C7ADF612882DF0950F5A951637E0307CDCB4C672F298B8BC6 PUSH1 0x60 DUP5 ADD MSTORE ADDRESS PUSH1 0x80 DUP5 ADD MSTORE CHAINID PUSH1 0xA0 DUP1 DUP6 ADD SWAP2 SWAP1 SWAP2 MSTORE DUP2 MLOAD DUP1 DUP6 SUB SWAP1 SWAP2 ADD DUP2 MSTORE PUSH1 0xC0 SWAP1 SWAP4 ADD SWAP1 MSTORE DUP2 MLOAD SWAP2 ADD KECCAK256 PUSH1 0x97 SSTORE JUMP JUMPDEST DUP1 CALLDATALOAD PUSH1 0x1 PUSH1 0x1 PUSH1 0xA0 SHL SUB DUP2 AND DUP2 EQ PUSH2 0x1211 JUMPI PUSH1 0x0 DUP1 REVERT JUMPDEST PUSH1 0x0 DUP1 PUSH1 0x40 DUP4 DUP6 SUB SLT ISZERO PUSH2 0x3388 JUMPI PUSH1 0x0 DUP1 REVERT JUMPDEST PUSH2 0x3391 DUP4 PUSH2 0x335E JUMP JUMPDEST SWAP5 PUSH1 0x20 SWAP4 SWAP1 SWAP4 ADD CALLDATALOAD SWAP4 POP POP POP JUMP JUMPDEST PUSH1 0x1 PUSH1 0x1 PUSH1 0xE0 SHL SUB NOT DUP2 AND DUP2 EQ PUSH2 0x172E JUMPI PUSH1 0x0 DUP1 REVERT JUMPDEST PUSH1 0x0 PUSH1 0x20 DUP3 DUP5 SUB SLT ISZERO PUSH2 0x33C7 JUMPI PUSH1 0x0 DUP1 REVERT JUMPDEST DUP2 CALLDATALOAD PUSH2 0x1661 DUP2 PUSH2 0x339F JUMP JUMPDEST PUSH1 0x0 JUMPDEST DUP4 DUP2 LT ISZERO PUSH2 0x33ED JUMPI DUP2 DUP2 ADD MLOAD DUP4 DUP3 ADD MSTORE PUSH1 0x20 ADD PUSH2 0x33D5 JUMP JUMPDEST POP POP PUSH1 0x0 SWAP2 ADD MSTORE JUMP JUMPDEST PUSH1 0x0 DUP2 MLOAD DUP1 DUP5 MSTORE PUSH2 0x340E DUP2 PUSH1 0x20 DUP7 ADD PUSH1 0x20 DUP7 ADD PUSH2 0x33D2 JUMP JUMPDEST PUSH1 0x1F ADD PUSH1 0x1F NOT AND SWAP3 SWAP1 SWAP3 ADD PUSH1 0x20 ADD SWAP3 SWAP2 POP POP JUMP JUMPDEST PUSH1 0x20 DUP2 MSTORE PUSH1 0x0 PUSH2 0x1661 PUSH1 0x20 DUP4 ADD DUP5 PUSH2 0x33F6 JUMP JUMPDEST PUSH1 0x0 PUSH1 0x20 DUP3 DUP5 SUB SLT ISZERO PUSH2 0x3447 JUMPI PUSH1 0x0 DUP1 REVERT JUMPDEST POP CALLDATALOAD SWAP2 SWAP1 POP JUMP JUMPDEST PUSH4 0x4E487B71 PUSH1 0xE0 SHL PUSH1 0x0 MSTORE PUSH1 0x41 PUSH1 0x4 MSTORE PUSH1 0x24 PUSH1 0x0 REVERT JUMPDEST PUSH1 0x1F DUP3 ADD PUSH1 0x1F NOT AND DUP2 ADD PUSH1 0x1 PUSH1 0x1 PUSH1 0x40 SHL SUB DUP2 GT DUP3 DUP3 LT OR ISZERO PUSH2 0x3489 JUMPI PUSH2 0x3489 PUSH2 0x344E JUMP JUMPDEST PUSH1 0x40 MSTORE POP POP JUMP JUMPDEST PUSH1 0x0 DUP3 PUSH1 0x1F DUP4 ADD SLT PUSH2 0x34A1 JUMPI PUSH1 0x0 DUP1 REVERT JUMPDEST DUP2 CALLDATALOAD PUSH1 0x1 PUSH1 0x1 PUSH1 0x40 SHL SUB DUP2 GT ISZERO PUSH2 0x34BA JUMPI PUSH2 0x34BA PUSH2 0x344E JUMP JUMPDEST PUSH1 0x40 MLOAD PUSH2 0x34D1 PUSH1 0x1F DUP4 ADD PUSH1 0x1F NOT AND PUSH1 0x20 ADD DUP3 PUSH2 0x3464 JUMP JUMPDEST DUP2 DUP2 MSTORE DUP5 PUSH1 0x20 DUP4 DUP7 ADD ADD GT ISZERO PUSH2 0x34E6 JUMPI PUSH1 0x0 DUP1 REVERT JUMPDEST DUP2 PUSH1 0x20 DUP6 ADD PUSH1 0x20 DUP4 ADD CALLDATACOPY PUSH1 0x0 SWAP2 DUP2 ADD PUSH1 0x20 ADD SWAP2 SWAP1 SWAP2 MSTORE SWAP4 SWAP3 POP POP POP JUMP JUMPDEST PUSH1 0x0 DUP1 PUSH1 0x0 DUP1 PUSH1 0x0 PUSH1 0xA0 DUP7 DUP9 SUB SLT ISZERO PUSH2 0x351B JUMPI PUSH1 0x0 DUP1 REVERT JUMPDEST PUSH2 0x3524 DUP7 PUSH2 0x335E JUMP JUMPDEST SWAP5 POP PUSH1 0x20 DUP7 ADD CALLDATALOAD PUSH1 0x1 PUSH1 0x1 PUSH1 0x40 SHL SUB DUP2 GT ISZERO PUSH2 0x353F JUMPI PUSH1 0x0 DUP1 REVERT JUMPDEST PUSH2 0x354B DUP9 DUP3 DUP10 ADD PUSH2 0x3490 JUMP JUMPDEST SWAP5 POP POP PUSH1 0x40 DUP7 ADD CALLDATALOAD SWAP3 POP PUSH1 0x60 DUP7 ADD CALLDATALOAD SWAP2 POP PUSH1 0x80 DUP7 ADD CALLDATALOAD PUSH1 0xFF DUP2 AND DUP2 EQ PUSH2 0x3570 JUMPI PUSH1 0x0 DUP1 REVERT JUMPDEST DUP1 SWAP2 POP POP SWAP3 SWAP6 POP SWAP3 SWAP6 SWAP1 SWAP4 POP JUMP JUMPDEST DUP1 CALLDATALOAD PUSH1 0x1 PUSH1 0x1 PUSH1 0x60 SHL SUB DUP2 AND DUP2 EQ PUSH2 0x1211 JUMPI PUSH1 0x0 DUP1 REVERT JUMPDEST PUSH1 0x0 DUP1 PUSH1 0x0 DUP1 PUSH1 0x0 PUSH1 0xA0 DUP7 DUP9 SUB SLT ISZERO PUSH2 0x35AD JUMPI PUSH1 0x0 DUP1 REVERT JUMPDEST DUP6 CALLDATALOAD PUSH1 0x1 PUSH1 0x1 PUSH1 0x40 SHL SUB DUP1 DUP3 GT ISZERO PUSH2 0x35C4 JUMPI PUSH1 0x0 DUP1 REVERT JUMPDEST PUSH2 0x35D0 DUP10 DUP4 DUP11 ADD PUSH2 0x3490 JUMP JUMPDEST SWAP7 POP PUSH1 0x20 DUP9 ADD CALLDATALOAD SWAP2 POP DUP1 DUP3 GT ISZERO PUSH2 0x35E6 JUMPI PUSH1 0x0 DUP1 REVERT JUMPDEST PUSH2 0x35F2 DUP10 DUP4 DUP11 ADD PUSH2 0x3490 JUMP JUMPDEST SWAP6 POP PUSH1 0x40 DUP9 ADD CALLDATALOAD SWAP2 POP DUP1 DUP3 GT ISZERO PUSH2 0x3608 JUMPI PUSH1 0x0 DUP1 REVERT JUMPDEST POP PUSH2 0x3615 DUP9 DUP3 DUP10 ADD PUSH2 0x3490 JUMP JUMPDEST SWAP4 POP POP PUSH2 0x3624 PUSH1 0x60 DUP8 ADD PUSH2 0x357E JUMP JUMPDEST SWAP2 POP PUSH2 0x3632 PUSH1 0x80 DUP8 ADD PUSH2 0x335E JUMP JUMPDEST SWAP1 POP SWAP3 SWAP6 POP SWAP3 SWAP6 SWAP1 SWAP4 POP JUMP JUMPDEST PUSH1 0x0 PUSH1 0x20 DUP3 DUP5 SUB SLT ISZERO PUSH2 0x3650 JUMPI PUSH1 0x0 DUP1 REVERT JUMPDEST DUP2 CALLDATALOAD PUSH1 0x1 PUSH1 0x1 PUSH1 0x40 SHL SUB DUP2 GT ISZERO PUSH2 0x3666 JUMPI PUSH1 0x0 DUP1 REVERT JUMPDEST PUSH2 0x886 DUP5 DUP3 DUP6 ADD PUSH2 0x3490 JUMP JUMPDEST PUSH1 0x0 DUP1 PUSH1 0x40 DUP4 DUP6 SUB SLT ISZERO PUSH2 0x3685 JUMPI PUSH1 0x0 DUP1 REVERT JUMPDEST POP POP DUP1 CALLDATALOAD SWAP3 PUSH1 0x20 SWAP1 SWAP2 ADD CALLDATALOAD SWAP2 POP JUMP JUMPDEST PUSH1 0x0 PUSH1 0x20 DUP3 DUP5 SUB SLT ISZERO PUSH2 0x36A6 JUMPI PUSH1 0x0 DUP1 REVERT JUMPDEST PUSH2 0x1661 DUP3 PUSH2 0x335E JUMP JUMPDEST PUSH1 0x0 PUSH1 0x1 PUSH1 0x1 PUSH1 0x40 SHL SUB DUP3 GT ISZERO PUSH2 0x36C8 JUMPI PUSH2 0x36C8 PUSH2 0x344E JUMP JUMPDEST POP PUSH1 0x5 SHL PUSH1 0x20 ADD SWAP1 JUMP JUMPDEST PUSH1 0x0 DUP3 PUSH1 0x1F DUP4 ADD SLT PUSH2 0x36E3 JUMPI PUSH1 0x0 DUP1 REVERT JUMPDEST DUP2 CALLDATALOAD PUSH1 0x20 PUSH2 0x36F0 DUP3 PUSH2 0x36AF JUMP JUMPDEST PUSH1 0x40 MLOAD PUSH2 0x36FD DUP3 DUP3 PUSH2 0x3464 JUMP JUMPDEST DUP4 DUP2 MSTORE PUSH1 0x5 SWAP4 SWAP1 SWAP4 SHL DUP6 ADD DUP3 ADD SWAP3 DUP3 DUP2 ADD SWAP2 POP DUP7 DUP5 GT ISZERO PUSH2 0x371D JUMPI PUSH1 0x0 DUP1 REVERT JUMPDEST DUP3 DUP7 ADD JUMPDEST DUP5 DUP2 LT ISZERO PUSH2 0x3738 JUMPI DUP1 CALLDATALOAD DUP4 MSTORE SWAP2 DUP4 ADD SWAP2 DUP4 ADD PUSH2 0x3721 JUMP JUMPDEST POP SWAP7 SWAP6 POP POP POP POP POP POP JUMP JUMPDEST PUSH1 0x0 DUP1 PUSH1 0x0 DUP1 PUSH1 0x0 PUSH1 0xA0 DUP7 DUP9 SUB SLT ISZERO PUSH2 0x375B JUMPI PUSH1 0x0 DUP1 REVERT JUMPDEST PUSH2 0x3764 DUP7 PUSH2 0x335E JUMP JUMPDEST SWAP5 POP PUSH2 0x3772 PUSH1 0x20 DUP8 ADD PUSH2 0x335E JUMP JUMPDEST SWAP4 POP PUSH1 0x40 DUP7 ADD CALLDATALOAD PUSH1 0x1 PUSH1 0x1 PUSH1 0x40 SHL SUB DUP1 DUP3 GT ISZERO PUSH2 0x378E JUMPI PUSH1 0x0 DUP1 REVERT JUMPDEST PUSH2 0x379A DUP10 DUP4 DUP11 ADD PUSH2 0x36D2 JUMP JUMPDEST SWAP5 POP PUSH1 0x60 DUP9 ADD CALLDATALOAD SWAP2 POP DUP1 DUP3 GT ISZERO PUSH2 0x37B0 JUMPI PUSH1 0x0 DUP1 REVERT JUMPDEST PUSH2 0x37BC DUP10 DUP4 DUP11 ADD PUSH2 0x36D2 JUMP JUMPDEST SWAP4 POP PUSH1 0x80 DUP9 ADD CALLDATALOAD SWAP2 POP DUP1 DUP3 GT ISZERO PUSH2 0x37D2 JUMPI PUSH1 0x0 DUP1 REVERT JUMPDEST POP PUSH2 0x37DF DUP9 DUP3 DUP10 ADD PUSH2 0x3490 JUMP JUMPDEST SWAP2 POP POP SWAP3 SWAP6 POP SWAP3 SWAP6 SWAP1 SWAP4 POP JUMP JUMPDEST PUSH1 0x0 DUP1 PUSH1 0x40 DUP4 DUP6 SUB SLT ISZERO PUSH2 0x37FF JUMPI PUSH1 0x0 DUP1 REVERT JUMPDEST DUP3 CALLDATALOAD SWAP2 POP PUSH1 0x20 DUP4 ADD CALLDATALOAD PUSH1 0x1 PUSH1 0x1 PUSH1 0x40 SHL SUB DUP2 GT ISZERO PUSH2 0x381C JUMPI PUSH1 0x0 DUP1 REVERT JUMPDEST PUSH2 0x3828 DUP6 DUP3 DUP7 ADD PUSH2 0x3490 JUMP JUMPDEST SWAP2 POP POP SWAP3 POP SWAP3 SWAP1 POP JUMP JUMPDEST PUSH1 0x0 DUP1 PUSH1 0x40 DUP4 DUP6 SUB SLT ISZERO PUSH2 0x3845 JUMPI PUSH1 0x0 DUP1 REVERT JUMPDEST DUP3 CALLDATALOAD PUSH1 0x1 PUSH1 0x1 PUSH1 0x40 SHL SUB DUP1 DUP3 GT ISZERO PUSH2 0x385C JUMPI PUSH1 0x0 DUP1 REVERT JUMPDEST DUP2 DUP6 ADD SWAP2 POP DUP6 PUSH1 0x1F DUP4 ADD SLT PUSH2 0x3870 JUMPI PUSH1 0x0 DUP1 REVERT JUMPDEST DUP2 CALLDATALOAD PUSH1 0x20 PUSH2 0x387D DUP3 PUSH2 0x36AF JUMP JUMPDEST PUSH1 0x40 MLOAD PUSH2 0x388A DUP3 DUP3 PUSH2 0x3464 JUMP JUMPDEST DUP4 DUP2 MSTORE PUSH1 0x5 SWAP4 SWAP1 SWAP4 SHL DUP6 ADD DUP3 ADD SWAP3 DUP3 DUP2 ADD SWAP2 POP DUP10 DUP5 GT ISZERO PUSH2 0x38AA JUMPI PUSH1 0x0 DUP1 REVERT JUMPDEST SWAP5 DUP3 ADD SWAP5 JUMPDEST DUP4 DUP7 LT ISZERO PUSH2 0x38CF JUMPI PUSH2 0x38C0 DUP7 PUSH2 0x335E JUMP JUMPDEST DUP3 MSTORE SWAP5 DUP3 ADD SWAP5 SWAP1 DUP3 ADD SWAP1 PUSH2 0x38AF JUMP JUMPDEST SWAP7 POP POP DUP7 ADD CALLDATALOAD SWAP3 POP POP DUP1 DUP3 GT ISZERO PUSH2 0x38E5 JUMPI PUSH1 0x0 DUP1 REVERT JUMPDEST POP PUSH2 0x3828 DUP6 DUP3 DUP7 ADD PUSH2 0x36D2 JUMP JUMPDEST PUSH1 0x0 DUP2 MLOAD DUP1 DUP5 MSTORE PUSH1 0x20 DUP1 DUP6 ADD SWAP5 POP DUP1 DUP5 ADD PUSH1 0x0 JUMPDEST DUP4 DUP2 LT ISZERO PUSH2 0x3922 JUMPI DUP2 MLOAD DUP8 MSTORE SWAP6 DUP3 ADD SWAP6 SWAP1 DUP3 ADD SWAP1 PUSH1 0x1 ADD PUSH2 0x3906 JUMP JUMPDEST POP SWAP5 SWAP6 SWAP5 POP POP POP POP POP JUMP JUMPDEST PUSH1 0x20 DUP2 MSTORE PUSH1 0x0 PUSH2 0x1661 PUSH1 0x20 DUP4 ADD DUP5 PUSH2 0x38F2 JUMP JUMPDEST PUSH1 0x0 DUP1 PUSH1 0x0 DUP1 PUSH1 0x80 DUP6 DUP8 SUB SLT ISZERO PUSH2 0x3956 JUMPI PUSH1 0x0 DUP1 REVERT JUMPDEST PUSH2 0x395F DUP6 PUSH2 0x335E JUMP JUMPDEST SWAP4 POP PUSH1 0x20 DUP6 ADD CALLDATALOAD SWAP3 POP PUSH1 0x40 DUP6 ADD CALLDATALOAD SWAP2 POP PUSH1 0x60 DUP6 ADD CALLDATALOAD PUSH1 0x1 PUSH1 0x1 PUSH1 0x40 SHL SUB DUP2 GT ISZERO PUSH2 0x3988 JUMPI PUSH1 0x0 DUP1 REVERT JUMPDEST PUSH2 0x3994 DUP8 DUP3 DUP9 ADD PUSH2 0x3490 JUMP JUMPDEST SWAP2 POP POP SWAP3 SWAP6 SWAP2 SWAP5 POP SWAP3 POP JUMP JUMPDEST PUSH1 0x0 DUP1 PUSH1 0x40 DUP4 DUP6 SUB SLT ISZERO PUSH2 0x39B3 JUMPI PUSH1 0x0 DUP1 REVERT JUMPDEST DUP3 CALLDATALOAD SWAP2 POP PUSH2 0x39C3 PUSH1 0x20 DUP5 ADD PUSH2 0x335E JUMP JUMPDEST SWAP1 POP SWAP3 POP SWAP3 SWAP1 POP JUMP JUMPDEST PUSH1 0x0 DUP1 PUSH1 0x40 DUP4 DUP6 SUB SLT ISZERO PUSH2 0x39DF JUMPI PUSH1 0x0 DUP1 REVERT JUMPDEST PUSH2 0x39E8 DUP4 PUSH2 0x335E JUMP JUMPDEST SWAP2 POP PUSH1 0x20 DUP4 ADD CALLDATALOAD DUP1 ISZERO ISZERO DUP2 EQ PUSH2 0x39FD JUMPI PUSH1 0x0 DUP1 REVERT JUMPDEST DUP1 SWAP2 POP POP SWAP3 POP SWAP3 SWAP1 POP JUMP JUMPDEST PUSH1 0x0 DUP1 PUSH1 0x0 DUP1 PUSH1 0x80 DUP6 DUP8 SUB SLT ISZERO PUSH2 0x3A1E JUMPI PUSH1 0x0 DUP1 REVERT JUMPDEST PUSH2 0x3A27 DUP6 PUSH2 0x335E JUMP JUMPDEST SWAP4 POP PUSH1 0x20 DUP6 ADD CALLDATALOAD PUSH1 0x1 PUSH1 0x1 PUSH1 0x40 SHL SUB DUP1 DUP3 GT ISZERO PUSH2 0x3A43 JUMPI PUSH1 0x0 DUP1 REVERT JUMPDEST PUSH2 0x3A4F DUP9 DUP4 DUP10 ADD PUSH2 0x36D2 JUMP JUMPDEST SWAP5 POP PUSH1 0x40 DUP8 ADD CALLDATALOAD SWAP2 POP DUP1 DUP3 GT ISZERO PUSH2 0x3A65 JUMPI PUSH1 0x0 DUP1 REVERT JUMPDEST PUSH2 0x3A71 DUP9 DUP4 DUP10 ADD PUSH2 0x36D2 JUMP JUMPDEST SWAP4 POP PUSH1 0x60 DUP8 ADD CALLDATALOAD SWAP2 POP DUP1 DUP3 GT ISZERO PUSH2 0x3A87 JUMPI PUSH1 0x0 DUP1 REVERT JUMPDEST POP PUSH2 0x3994 DUP8 DUP3 DUP9 ADD PUSH2 0x3490 JUMP JUMPDEST PUSH1 0x0 PUSH1 0x20 DUP3 DUP5 SUB SLT ISZERO PUSH2 0x3AA6 JUMPI PUSH1 0x0 DUP1 REVERT JUMPDEST PUSH2 0x1661 DUP3 PUSH2 0x357E JUMP JUMPDEST PUSH1 0x0 DUP1 PUSH1 0x0 DUP1 PUSH1 0x0 PUSH1 0xA0 DUP7 DUP9 SUB SLT ISZERO PUSH2 0x3AC7 JUMPI PUSH1 0x0 DUP1 REVERT JUMPDEST PUSH2 0x3AD0 DUP7 PUSH2 0x335E JUMP JUMPDEST SWAP5 POP PUSH1 0x20 DUP7 ADD CALLDATALOAD SWAP4 POP PUSH1 0x40 DUP7 ADD CALLDATALOAD SWAP3 POP PUSH1 0x60 DUP7 ADD CALLDATALOAD PUSH1 0x1 PUSH1 0x1 PUSH1 0x40 SHL SUB DUP2 GT ISZERO PUSH2 0x3AF9 JUMPI PUSH1 0x0 DUP1 REVERT JUMPDEST PUSH2 0x3B05 DUP9 DUP3 DUP10 ADD PUSH2 0x3490 JUMP JUMPDEST SWAP3 POP POP PUSH2 0x3632 PUSH1 0x80 DUP8 ADD PUSH2 0x357E JUMP JUMPDEST PUSH1 0x0 DUP1 PUSH1 0x40 DUP4 DUP6 SUB SLT ISZERO PUSH2 0x3B27 JUMPI PUSH1 0x0 DUP1 REVERT JUMPDEST PUSH2 0x3B30 DUP4 PUSH2 0x335E JUMP JUMPDEST SWAP2 POP PUSH2 0x39C3 PUSH1 0x20 DUP5 ADD PUSH2 0x335E JUMP JUMPDEST PUSH1 0x0 DUP1 PUSH1 0x0 DUP1 PUSH1 0x0 PUSH1 0xA0 DUP7 DUP9 SUB SLT ISZERO PUSH2 0x3B56 JUMPI PUSH1 0x0 DUP1 REVERT JUMPDEST PUSH2 0x3B5F DUP7 PUSH2 0x335E JUMP JUMPDEST SWAP5 POP PUSH2 0x3B6D PUSH1 0x20 DUP8 ADD PUSH2 0x335E JUMP JUMPDEST SWAP4 POP PUSH1 0x40 DUP7 ADD CALLDATALOAD SWAP3 POP PUSH1 0x60 DUP7 ADD CALLDATALOAD SWAP2 POP PUSH1 0x80 DUP7 ADD CALLDATALOAD PUSH1 0x1 PUSH1 0x1 PUSH1 0x40 SHL SUB DUP2 GT ISZERO PUSH2 0x3B96 JUMPI PUSH1 0x0 DUP1 REVERT JUMPDEST PUSH2 0x37DF DUP9 DUP3 DUP10 ADD PUSH2 0x3490 JUMP JUMPDEST PUSH1 0x0 DUP1 PUSH1 0x0 PUSH1 0x60 DUP5 DUP7 SUB SLT ISZERO PUSH2 0x3BB7 JUMPI PUSH1 0x0 DUP1 REVERT JUMPDEST PUSH2 0x3BC0 DUP5 PUSH2 0x335E JUMP JUMPDEST SWAP6 PUSH1 0x20 DUP6 ADD CALLDATALOAD SWAP6 POP PUSH1 0x40 SWAP1 SWAP5 ADD CALLDATALOAD SWAP4 SWAP3 POP POP POP JUMP JUMPDEST PUSH1 0x0 DUP1 PUSH1 0x0 PUSH1 0x60 DUP5 DUP7 SUB SLT ISZERO PUSH2 0x3BEA JUMPI PUSH1 0x0 DUP1 REVERT JUMPDEST PUSH2 0x3BF3 DUP5 PUSH2 0x335E JUMP JUMPDEST SWAP3 POP PUSH1 0x20 DUP5 ADD CALLDATALOAD PUSH1 0x1 PUSH1 0x1 PUSH1 0x40 SHL SUB DUP1 DUP3 GT ISZERO PUSH2 0x3C0F JUMPI PUSH1 0x0 DUP1 REVERT JUMPDEST PUSH2 0x3C1B DUP8 DUP4 DUP9 ADD PUSH2 0x36D2 JUMP JUMPDEST SWAP4 POP PUSH1 0x40 DUP7 ADD CALLDATALOAD SWAP2 POP DUP1 DUP3 GT ISZERO PUSH2 0x3C31 JUMPI PUSH1 0x0 DUP1 REVERT JUMPDEST POP PUSH2 0x3C3E DUP7 DUP3 DUP8 ADD PUSH2 0x36D2 JUMP JUMPDEST SWAP2 POP POP SWAP3 POP SWAP3 POP SWAP3 JUMP JUMPDEST PUSH4 0x4E487B71 PUSH1 0xE0 SHL PUSH1 0x0 MSTORE PUSH1 0x11 PUSH1 0x4 MSTORE PUSH1 0x24 PUSH1 0x0 REVERT JUMPDEST DUP1 DUP3 ADD DUP1 DUP3 GT ISZERO PUSH2 0x88A JUMPI PUSH2 0x88A PUSH2 0x3C48 JUMP JUMPDEST PUSH1 0x1 DUP2 DUP2 SHR SWAP1 DUP3 AND DUP1 PUSH2 0x3C85 JUMPI PUSH1 0x7F DUP3 AND SWAP2 POP JUMPDEST PUSH1 0x20 DUP3 LT DUP2 SUB PUSH2 0x3CA5 JUMPI PUSH4 0x4E487B71 PUSH1 0xE0 SHL PUSH1 0x0 MSTORE PUSH1 0x22 PUSH1 0x4 MSTORE PUSH1 0x24 PUSH1 0x0 REVERT JUMPDEST POP SWAP2 SWAP1 POP JUMP JUMPDEST PUSH1 0x1 PUSH1 0x1 PUSH1 0xA0 SHL SUB DUP5 DUP2 AND DUP3 MSTORE DUP4 AND PUSH1 0x20 DUP3 ADD MSTORE PUSH1 0x60 PUSH1 0x40 DUP3 ADD DUP2 SWAP1 MSTORE PUSH1 0x0 SWAP1 PUSH2 0x3CD7 SWAP1 DUP4 ADD DUP5 PUSH2 0x33F6 JUMP JUMPDEST SWAP6 SWAP5 POP POP POP POP POP JUMP JUMPDEST PUSH1 0x0 DUP4 MLOAD PUSH2 0x3CF2 DUP2 DUP5 PUSH1 0x20 DUP9 ADD PUSH2 0x33D2 JUMP JUMPDEST PUSH1 0x60 SWAP4 SWAP1 SWAP4 SHL PUSH1 0x1 PUSH1 0x1 PUSH1 0x60 SHL SUB NOT AND SWAP2 SWAP1 SWAP3 ADD SWAP1 DUP2 MSTORE PUSH1 0x14 ADD SWAP3 SWAP2 POP POP JUMP JUMPDEST PUSH1 0x0 DUP3 MLOAD PUSH2 0x3D24 DUP2 DUP5 PUSH1 0x20 DUP8 ADD PUSH2 0x33D2 JUMP JUMPDEST SWAP2 SWAP1 SWAP2 ADD SWAP3 SWAP2 POP POP JUMP JUMPDEST PUSH1 0x20 DUP1 DUP3 MSTORE PUSH1 0x2E SWAP1 DUP3 ADD MSTORE PUSH32 0x455243313135355472616461626C65236F6E6C794F776E65723A2043414C4C45 PUSH1 0x40 DUP3 ADD MSTORE PUSH14 0x292FA4A9AFA727AA2FA7ABA722A9 PUSH1 0x91 SHL PUSH1 0x60 DUP3 ADD MSTORE PUSH1 0x80 ADD SWAP1 JUMP JUMPDEST PUSH1 0x1F DUP3 GT ISZERO PUSH2 0x18A1 JUMPI PUSH1 0x0 DUP2 DUP2 MSTORE PUSH1 0x20 DUP2 KECCAK256 PUSH1 0x1F DUP6 ADD PUSH1 0x5 SHR DUP2 ADD PUSH1 0x20 DUP7 LT ISZERO PUSH2 0x3DA3 JUMPI POP DUP1 JUMPDEST PUSH1 0x1F DUP6 ADD PUSH1 0x5 SHR DUP3 ADD SWAP2 POP JUMPDEST DUP2 DUP2 LT ISZERO PUSH2 0xE04 JUMPI DUP3 DUP2 SSTORE PUSH1 0x1 ADD PUSH2 0x3DAF JUMP JUMPDEST DUP2 MLOAD PUSH1 0x1 PUSH1 0x1 PUSH1 0x40 SHL SUB DUP2 GT ISZERO PUSH2 0x3DDB JUMPI PUSH2 0x3DDB PUSH2 0x344E JUMP JUMPDEST PUSH2 0x3DEF DUP2 PUSH2 0x3DE9 DUP5 SLOAD PUSH2 0x3C71 JUMP JUMPDEST DUP5 PUSH2 0x3D7C JUMP JUMPDEST PUSH1 0x20 DUP1 PUSH1 0x1F DUP4 GT PUSH1 0x1 DUP2 EQ PUSH2 0x3E24 JUMPI PUSH1 0x0 DUP5 ISZERO PUSH2 0x3E0C JUMPI POP DUP6 DUP4 ADD MLOAD JUMPDEST PUSH1 0x0 NOT PUSH1 0x3 DUP7 SWAP1 SHL SHR NOT AND PUSH1 0x1 DUP6 SWAP1 SHL OR DUP6 SSTORE PUSH2 0xE04 JUMP JUMPDEST PUSH1 0x0 DUP6 DUP2 MSTORE PUSH1 0x20 DUP2 KECCAK256 PUSH1 0x1F NOT DUP7 AND SWAP2 JUMPDEST DUP3 DUP2 LT ISZERO PUSH2 0x3E53 JUMPI DUP9 DUP7 ADD MLOAD DUP3 SSTORE SWAP5 DUP5 ADD SWAP5 PUSH1 0x1 SWAP1 SWAP2 ADD SWAP1 DUP5 ADD PUSH2 0x3E34 JUMP JUMPDEST POP DUP6 DUP3 LT ISZERO PUSH2 0x3E71 JUMPI DUP8 DUP6 ADD MLOAD PUSH1 0x0 NOT PUSH1 0x3 DUP9 SWAP1 SHL PUSH1 0xF8 AND SHR NOT AND DUP2 SSTORE JUMPDEST POP POP POP POP POP PUSH1 0x1 SWAP1 DUP2 SHL ADD SWAP1 SSTORE POP JUMP JUMPDEST DUP1 DUP3 MUL DUP2 ISZERO DUP3 DUP3 DIV DUP5 EQ OR PUSH2 0x88A JUMPI PUSH2 0x88A PUSH2 0x3C48 JUMP JUMPDEST PUSH1 0x0 DUP3 PUSH2 0x3EB5 JUMPI PUSH4 0x4E487B71 PUSH1 0xE0 SHL PUSH1 0x0 MSTORE PUSH1 0x12 PUSH1 0x4 MSTORE PUSH1 0x24 PUSH1 0x0 REVERT JUMPDEST POP DIV SWAP1 JUMP JUMPDEST PUSH4 0x4E487B71 PUSH1 0xE0 SHL PUSH1 0x0 MSTORE PUSH1 0x32 PUSH1 0x4 MSTORE PUSH1 0x24 PUSH1 0x0 REVERT JUMPDEST PUSH1 0x0 PUSH1 0x1 DUP3 ADD PUSH2 0x3EE2 JUMPI PUSH2 0x3EE2 PUSH2 0x3C48 JUMP JUMPDEST POP PUSH1 0x1 ADD SWAP1 JUMP JUMPDEST PUSH1 0x20 DUP1 DUP3 MSTORE PUSH1 0x35 SWAP1 DUP3 ADD MSTORE PUSH32 0x4173736574436F6E74726163745368617265642363726561746F724F6E6C793A PUSH1 0x40 DUP3 ADD MSTORE PUSH21 0x813D3931657D0D491505513D497D0531313D5D151 PUSH1 0x5A SHL PUSH1 0x60 DUP3 ADD MSTORE PUSH1 0x80 ADD SWAP1 JUMP JUMPDEST PUSH1 0x20 DUP1 DUP3 MSTORE PUSH1 0x37 SWAP1 DUP3 ADD MSTORE PUSH32 0x4173736574436F6E7472616374236F6E6C79496D7065726D616E656E74555249 PUSH1 0x40 DUP3 ADD MSTORE PUSH32 0x3A205552495F43414E4E4F545F42455F4348414E474544000000000000000000 PUSH1 0x60 DUP3 ADD MSTORE PUSH1 0x80 ADD SWAP1 JUMP JUMPDEST PUSH1 0x20 DUP1 DUP3 MSTORE PUSH1 0x45 SWAP1 DUP3 ADD MSTORE PUSH32 0x4173736574436F6E7472616374536861726564236F6E6C7946756C6C546F6B65 PUSH1 0x40 DUP3 ADD MSTORE PUSH32 0x6E4F776E65723A204F4E4C595F46554C4C5F544F4B454E5F4F574E45525F414C PUSH1 0x60 DUP3 ADD MSTORE PUSH5 0x1313D5D151 PUSH1 0xDA SHL PUSH1 0x80 DUP3 ADD MSTORE PUSH1 0xA0 ADD SWAP1 JUMP JUMPDEST DUP2 DUP2 SUB DUP2 DUP2 GT ISZERO PUSH2 0x88A JUMPI PUSH2 0x88A PUSH2 0x3C48 JUMP JUMPDEST PUSH1 0xFF DUP2 DUP2 AND DUP4 DUP3 AND ADD SWAP1 DUP2 GT ISZERO PUSH2 0x88A JUMPI PUSH2 0x88A PUSH2 0x3C48 JUMP JUMPDEST PUSH1 0x20 DUP1 DUP3 MSTORE PUSH1 0x2B SWAP1 DUP3 ADD MSTORE PUSH32 0x496E697469616C697A61626C653A20636F6E7472616374206973206E6F742069 PUSH1 0x40 DUP3 ADD MSTORE PUSH11 0x6E697469616C697A696E67 PUSH1 0xA8 SHL PUSH1 0x60 DUP3 ADD MSTORE PUSH1 0x80 ADD SWAP1 JUMP JUMPDEST PUSH1 0x20 DUP1 DUP3 MSTORE PUSH1 0x30 SWAP1 DUP3 ADD MSTORE PUSH32 0x455243313135355472616461626C65236F6E6C79417070726F7665643A204341 PUSH1 0x40 DUP3 ADD MSTORE PUSH16 0x1313115497D393D517D0531313D5D151 PUSH1 0x82 SHL PUSH1 0x60 DUP3 ADD MSTORE PUSH1 0x80 ADD SWAP1 JUMP JUMPDEST PUSH1 0x40 DUP2 MSTORE PUSH1 0x0 PUSH2 0x40E0 PUSH1 0x40 DUP4 ADD DUP6 PUSH2 0x38F2 JUMP JUMPDEST DUP3 DUP2 SUB PUSH1 0x20 DUP5 ADD MSTORE PUSH2 0x3CD7 DUP2 DUP6 PUSH2 0x38F2 JUMP JUMPDEST PUSH1 0x1 PUSH1 0x1 PUSH1 0xA0 SHL SUB DUP7 DUP2 AND DUP3 MSTORE DUP6 AND PUSH1 0x20 DUP3 ADD MSTORE PUSH1 0x40 DUP2 ADD DUP5 SWAP1 MSTORE PUSH1 0x60 DUP2 ADD DUP4 SWAP1 MSTORE PUSH1 0xA0 PUSH1 0x80 DUP3 ADD DUP2 SWAP1 MSTORE PUSH1 0x0 SWAP1 PUSH2 0x412C SWAP1 DUP4 ADD DUP5 PUSH2 0x33F6 JUMP JUMPDEST SWAP8 SWAP7 POP POP POP POP POP POP POP JUMP JUMPDEST PUSH1 0x0 PUSH1 0x20 DUP3 DUP5 SUB SLT ISZERO PUSH2 0x4149 JUMPI PUSH1 0x0 DUP1 REVERT JUMPDEST DUP2 MLOAD PUSH2 0x1661 DUP2 PUSH2 0x339F JUMP JUMPDEST PUSH1 0x0 PUSH1 0x3 RETURNDATASIZE GT ISZERO PUSH2 0x2431 JUMPI PUSH1 0x4 PUSH1 0x0 DUP1 RETURNDATACOPY POP PUSH1 0x0 MLOAD PUSH1 0xE0 SHR SWAP1 JUMP JUMPDEST PUSH1 0x0 PUSH1 0x44 RETURNDATASIZE LT ISZERO PUSH2 0x417D JUMPI SWAP1 JUMP JUMPDEST PUSH1 0x40 MLOAD PUSH1 0x3 NOT RETURNDATASIZE DUP2 ADD PUSH1 0x4 DUP4 RETURNDATACOPY DUP2 MLOAD RETURNDATASIZE PUSH1 0x1 PUSH1 0x1 PUSH1 0x40 SHL SUB DUP2 PUSH1 0x24 DUP5 ADD GT DUP2 DUP5 GT OR ISZERO PUSH2 0x41AC JUMPI POP POP POP POP POP SWAP1 JUMP JUMPDEST DUP3 DUP6 ADD SWAP2 POP DUP2 MLOAD DUP2 DUP2 GT ISZERO PUSH2 0x41C4 JUMPI POP POP POP POP POP POP SWAP1 JUMP JUMPDEST DUP5 RETURNDATASIZE DUP8 ADD ADD PUSH1 0x20 DUP3 DUP6 ADD ADD GT ISZERO PUSH2 0x41DE JUMPI POP POP POP POP POP POP SWAP1 JUMP JUMPDEST PUSH2 0x41ED PUSH1 0x20 DUP3 DUP7 ADD ADD DUP8 PUSH2 0x3464 JUMP JUMPDEST POP SWAP1 SWAP6 SWAP5 POP POP POP POP POP JUMP JUMPDEST PUSH1 0x20 DUP1 DUP3 MSTORE PUSH1 0x28 SWAP1 DUP3 ADD MSTORE PUSH32 0x455243313135353A204552433131353552656365697665722072656A65637465 PUSH1 0x40 DUP3 ADD MSTORE PUSH8 0x6420746F6B656E73 PUSH1 0xC0 SHL PUSH1 0x60 DUP3 ADD MSTORE PUSH1 0x80 ADD SWAP1 JUMP JUMPDEST PUSH1 0x1 PUSH1 0x1 PUSH1 0xA0 SHL SUB DUP7 DUP2 AND DUP3 MSTORE DUP6 AND PUSH1 0x20 DUP3 ADD MSTORE PUSH1 0xA0 PUSH1 0x40 DUP3 ADD DUP2 SWAP1 MSTORE PUSH1 0x0 SWAP1 PUSH2 0x426C SWAP1 DUP4 ADD DUP7 PUSH2 0x38F2 JUMP JUMPDEST DUP3 DUP2 SUB PUSH1 0x60 DUP5 ADD MSTORE PUSH2 0x427E DUP2 DUP7 PUSH2 0x38F2 JUMP JUMPDEST SWAP1 POP DUP3 DUP2 SUB PUSH1 0x80 DUP5 ADD MSTORE PUSH2 0xBA3 DUP2 DUP6 PUSH2 0x33F6 JUMP INVALID 0xC3 0xD5 DUP2 PUSH9 0xC5AE7397731D063D5B 0xBF RETURNDATASIZE PUSH6 0x7854427343F4 0xC0 DUP4 0x24 0xF PUSH27 0xACAA2D0F624D6574615472616E73616374696F6E2875696E743235 CALLDATASIZE KECCAK256 PUSH15 0x6F6E63652C61646472657373206672 PUSH16 0x6D2C62797465732066756E6374696F6E MSTORE8 PUSH10 0x676E6174757265294549 POP CALLDATACOPY BALANCE ORIGIN DIFFICULTY PUSH16 0x6D61696E28737472696E67206E616D65 0x2C PUSH20 0x7472696E672076657273696F6E2C616464726573 PUSH20 0x20766572696679696E67436F6E74726163742C62 PUSH26 0x74657333322073616C7429A2646970667358221220FB2CFA526A DUP8 SDIV MSTORE8 EXTCODEHASH PUSH4 0x1FC59414 0xA9 BALANCE PUSH27 0x532043043D16B7A47929CC93AE9DBB64736F6C6343000811003300 "},"methodIdentifiers":{"ERC712_VERSION()":"0f7e5970","balanceOf(address,uint256)":"00fdd58e","balanceOfBatch(address[],uint256[])":"4e1273f4","batchBurn(address,uint256[],uint256[])":"f6eb127a","batchMint(address,uint256[],uint256[],bytes)":"b48ab8b6","burn(address,uint256,uint256)":"f5298aca","createMintEvent(uint256)":"07291f8f","creator(uint256)":"510b5158","defaultRoyaltyFraction()":"6d0042b8","executeMetaTransaction(address,bytes,bytes32,bytes32,uint8)":"0c53c51c","exists(uint256)":"4f558e79","getChainId()":"3408e470","getDomainSeperator()":"20379ee5","getNonce(address)":"2d0335ab","initialize(string,string,string,uint96,address)":"143045b5","isApprovedForAll(address,address)":"e985e9c5","isPermanentURI(uint256)":"1e7d9dbb","maxSupply(uint256)":"869f7594","mint(address,uint256,uint256,bytes)":"731133e9","mint(address,uint256,uint256,bytes,uint96)":"d3b9ff7f","name()":"06fdde03","owner()":"8da5cb5b","pause()":"8456cb59","paused()":"5c975abb","proxyRegistryAddress()":"cd7c0326","renounceOwnership()":"715018a6","royaltyInfo(uint256,uint256)":"2a55205a","safeBatchTransferFrom(address,address,uint256[],uint256[],bytes)":"2eb2c2d6","safeTransferFrom(address,address,uint256,uint256,bytes)":"f242432a","setApprovalForAll(address,bool)":"a22cb465","setCreator(uint256,address)":"91686f53","setDefaultRoyaltyFraciton(uint96)":"c06b91c3","setPermanentURI(uint256,string)":"3588ad7c","setProxyRegistryAddress(address)":"d26ea6c0","setTemplateURI(string)":"24d88785","setURI(uint256,string)":"862440e2","supportsFactoryInterface()":"c311c523","supportsInterface(bytes4)":"01ffc9a7","symbol()":"95d89b41","templateURI()":"f923e8c3","totalSupply(uint256)":"bd85b039","transferOwnership(address)":"f2fde38b","unpause()":"3f4ba83a","uri(uint256)":"0e89341c"}},"storageLayout":{"storage":[{"astId":157,"contract":"contracts/AssetContractShared.sol:AssetContractShared","label":"_initialized","offset":0,"slot":"0","type":"t_uint8"},{"astId":160,"contract":"contracts/AssetContractShared.sol:AssetContractShared","label":"_initializing","offset":1,"slot":"0","type":"t_bool"},{"astId":2485,"contract":"contracts/AssetContractShared.sol:AssetContractShared","label":"__gap","offset":0,"slot":"1","type":"t_array(t_uint256)50_storage"},{"astId":2529,"contract":"contracts/AssetContractShared.sol:AssetContractShared","label":"__gap","offset":0,"slot":"51","type":"t_array(t_uint256)50_storage"},{"astId":548,"contract":"contracts/AssetContractShared.sol:AssetContractShared","label":"_balances","offset":0,"slot":"101","type":"t_mapping(t_uint256,t_mapping(t_address,t_uint256))"},{"astId":554,"contract":"contracts/AssetContractShared.sol:AssetContractShared","label":"_operatorApprovals","offset":0,"slot":"102","type":"t_mapping(t_address,t_mapping(t_address,t_bool))"},{"astId":556,"contract":"contracts/AssetContractShared.sol:AssetContractShared","label":"_uri","offset":0,"slot":"103","type":"t_string_storage"},{"astId":1763,"contract":"contracts/AssetContractShared.sol:AssetContractShared","label":"__gap","offset":0,"slot":"104","type":"t_array(t_uint256)47_storage"},{"astId":5288,"contract":"contracts/AssetContractShared.sol:AssetContractShared","label":"domainSeperator","offset":0,"slot":"151","type":"t_bytes32"},{"astId":5414,"contract":"contracts/AssetContractShared.sol:AssetContractShared","label":"nonces","offset":0,"slot":"152","type":"t_mapping(t_address,t_uint256)"},{"astId":10,"contract":"contracts/AssetContractShared.sol:AssetContractShared","label":"_owner","offset":0,"slot":"153","type":"t_address"},{"astId":130,"contract":"contracts/AssetContractShared.sol:AssetContractShared","label":"__gap","offset":0,"slot":"154","type":"t_array(t_uint256)49_storage"},{"astId":340,"contract":"contracts/AssetContractShared.sol:AssetContractShared","label":"_paused","offset":0,"slot":"203","type":"t_bool"},{"astId":445,"contract":"contracts/AssetContractShared.sol:AssetContractShared","label":"__gap","offset":0,"slot":"204","type":"t_array(t_uint256)49_storage"},{"astId":3931,"contract":"contracts/AssetContractShared.sol:AssetContractShared","label":"name","offset":0,"slot":"253","type":"t_string_storage"},{"astId":3933,"contract":"contracts/AssetContractShared.sol:AssetContractShared","label":"symbol","offset":0,"slot":"254","type":"t_string_storage"},{"astId":3939,"contract":"contracts/AssetContractShared.sol:AssetContractShared","label":"balances","offset":0,"slot":"255","type":"t_mapping(t_uint256,t_mapping(t_address,t_uint256))"},{"astId":3943,"contract":"contracts/AssetContractShared.sol:AssetContractShared","label":"_supply","offset":0,"slot":"256","type":"t_mapping(t_uint256,t_uint256)"},{"astId":3945,"contract":"contracts/AssetContractShared.sol:AssetContractShared","label":"proxyRegistryAddress","offset":0,"slot":"257","type":"t_address"},{"astId":2785,"contract":"contracts/AssetContractShared.sol:AssetContractShared","label":"templateURI","offset":0,"slot":"258","type":"t_string_storage"},{"astId":2789,"contract":"contracts/AssetContractShared.sol:AssetContractShared","label":"_tokenURI","offset":0,"slot":"259","type":"t_mapping(t_uint256,t_string_storage)"},{"astId":2793,"contract":"contracts/AssetContractShared.sol:AssetContractShared","label":"_isPermanentURI","offset":0,"slot":"260","type":"t_mapping(t_uint256,t_bool)"},{"astId":460,"contract":"contracts/AssetContractShared.sol:AssetContractShared","label":"_status","offset":0,"slot":"261","type":"t_uint256"},{"astId":518,"contract":"contracts/AssetContractShared.sol:AssetContractShared","label":"__gap","offset":0,"slot":"262","type":"t_array(t_uint256)49_storage"},{"astId":1974,"contract":"contracts/AssetContractShared.sol:AssetContractShared","label":"_defaultRoyaltyInfo","offset":0,"slot":"311","type":"t_struct(RoyaltyInfo)1971_storage"},{"astId":1979,"contract":"contracts/AssetContractShared.sol:AssetContractShared","label":"_tokenRoyaltyInfo","offset":0,"slot":"312","type":"t_mapping(t_uint256,t_struct(RoyaltyInfo)1971_storage)"},{"astId":2159,"contract":"contracts/AssetContractShared.sol:AssetContractShared","label":"__gap","offset":0,"slot":"313","type":"t_array(t_uint256)48_storage"},{"astId":3458,"contract":"contracts/AssetContractShared.sol:AssetContractShared","label":"_creatorOverride","offset":0,"slot":"361","type":"t_mapping(t_uint256,t_address)"},{"astId":3460,"contract":"contracts/AssetContractShared.sol:AssetContractShared","label":"defaultRoyaltyFraction","offset":0,"slot":"362","type":"t_uint96"}],"types":{"t_address":{"encoding":"inplace","label":"address","numberOfBytes":"20"},"t_array(t_uint256)47_storage":{"base":"t_uint256","encoding":"inplace","label":"uint256[47]","numberOfBytes":"1504"},"t_array(t_uint256)48_storage":{"base":"t_uint256","encoding":"inplace","label":"uint256[48]","numberOfBytes":"1536"},"t_array(t_uint256)49_storage":{"base":"t_uint256","encoding":"inplace","label":"uint256[49]","numberOfBytes":"1568"},"t_array(t_uint256)50_storage":{"base":"t_uint256","encoding":"inplace","label":"uint256[50]","numberOfBytes":"1600"},"t_bool":{"encoding":"inplace","label":"bool","numberOfBytes":"1"},"t_bytes32":{"encoding":"inplace","label":"bytes32","numberOfBytes":"32"},"t_mapping(t_address,t_bool)":{"encoding":"mapping","key":"t_address","label":"mapping(address => bool)","numberOfBytes":"32","value":"t_bool"},"t_mapping(t_address,t_mapping(t_address,t_bool))":{"encoding":"mapping","key":"t_address","label":"mapping(address => mapping(address => bool))","numberOfBytes":"32","value":"t_mapping(t_address,t_bool)"},"t_mapping(t_address,t_uint256)":{"encoding":"mapping","key":"t_address","label":"mapping(address => uint256)","numberOfBytes":"32","value":"t_uint256"},"t_mapping(t_uint256,t_address)":{"encoding":"mapping","key":"t_uint256","label":"mapping(uint256 => address)","numberOfBytes":"32","value":"t_address"},"t_mapping(t_uint256,t_bool)":{"encoding":"mapping","key":"t_uint256","label":"mapping(uint256 => bool)","numberOfBytes":"32","value":"t_bool"},"t_mapping(t_uint256,t_mapping(t_address,t_uint256))":{"encoding":"mapping","key":"t_uint256","label":"mapping(uint256 => mapping(address => uint256))","numberOfBytes":"32","value":"t_mapping(t_address,t_uint256)"},"t_mapping(t_uint256,t_string_storage)":{"encoding":"mapping","key":"t_uint256","label":"mapping(uint256 => string)","numberOfBytes":"32","value":"t_string_storage"},"t_mapping(t_uint256,t_struct(RoyaltyInfo)1971_storage)":{"encoding":"mapping","key":"t_uint256","label":"mapping(uint256 => struct ERC2981Upgradeable.RoyaltyInfo)","numberOfBytes":"32","value":"t_struct(RoyaltyInfo)1971_storage"},"t_mapping(t_uint256,t_uint256)":{"encoding":"mapping","key":"t_uint256","label":"mapping(uint256 => uint256)","numberOfBytes":"32","value":"t_uint256"},"t_string_storage":{"encoding":"bytes","label":"string","numberOfBytes":"32"},"t_struct(RoyaltyInfo)1971_storage":{"encoding":"inplace","label":"struct ERC2981Upgradeable.RoyaltyInfo","members":[{"astId":1968,"contract":"contracts/AssetContractShared.sol:AssetContractShared","label":"receiver","offset":0,"slot":"0","type":"t_address"},{"astId":1970,"contract":"contracts/AssetContractShared.sol:AssetContractShared","label":"royaltyFraction","offset":20,"slot":"0","type":"t_uint96"}],"numberOfBytes":"32"},"t_uint256":{"encoding":"inplace","label":"uint256","numberOfBytes":"32"},"t_uint8":{"encoding":"inplace","label":"uint8","numberOfBytes":"1"},"t_uint96":{"encoding":"inplace","label":"uint96","numberOfBytes":"12"}}}}}}