{"contracts/common/meta-transactions/NativeMetaTransaction.sol":{"NativeMetaTransaction":{"abi":[{"anonymous":false,"inputs":[{"indexed":false,"internalType":"uint8","name":"version","type":"uint8"}],"name":"Initialized","type":"event"},{"anonymous":false,"inputs":[{"indexed":false,"internalType":"address","name":"userAddress","type":"address"},{"indexed":false,"internalType":"address payable","name":"relayerAddress","type":"address"},{"indexed":false,"internalType":"bytes","name":"functionSignature","type":"bytes"}],"name":"MetaTransactionExecuted","type":"event"},{"inputs":[],"name":"ERC712_VERSION","outputs":[{"internalType":"string","name":"","type":"string"}],"stateMutability":"view","type":"function"},{"inputs":[{"internalType":"address","name":"userAddress","type":"address"},{"internalType":"bytes","name":"functionSignature","type":"bytes"},{"internalType":"bytes32","name":"sigR","type":"bytes32"},{"internalType":"bytes32","name":"sigS","type":"bytes32"},{"internalType":"uint8","name":"sigV","type":"uint8"}],"name":"executeMetaTransaction","outputs":[{"internalType":"bytes","name":"","type":"bytes"}],"stateMutability":"payable","type":"function"},{"inputs":[],"name":"getChainId","outputs":[{"internalType":"uint256","name":"","type":"uint256"}],"stateMutability":"view","type":"function"},{"inputs":[],"name":"getDomainSeperator","outputs":[{"internalType":"bytes32","name":"","type":"bytes32"}],"stateMutability":"view","type":"function"},{"inputs":[{"internalType":"address","name":"user","type":"address"}],"name":"getNonce","outputs":[{"internalType":"uint256","name":"nonce","type":"uint256"}],"stateMutability":"view","type":"function"}],"evm":{"bytecode":{"linkReferences":{},"object":"608060405234801561001057600080fd5b5061075d806100206000396000f3fe60806040526004361061004a5760003560e01c80630c53c51c1461004f5780630f7e59701461007857806320379ee5146100a55780632d0335ab146100c45780633408e470146100fa575b600080fd5b61006261005d3660046104ca565b61010d565b60405161006f9190610600565b60405180910390f35b34801561008457600080fd5b50610062604051806040016040528060018152602001603160f81b81525081565b3480156100b157600080fd5b506001545b60405190815260200161006f565b3480156100d057600080fd5b506100b66100df36600461061a565b6001600160a01b031660009081526002602052604090205490565b34801561010657600080fd5b50466100b6565b60408051606081810183526001600160a01b0388166000818152600260209081529085902054845283015291810186905261014b87828787876102ea565b6101a65760405162461bcd60e51b815260206004820152602160248201527f5369676e657220616e64207369676e617475726520646f206e6f74206d6174636044820152600d60fb1b60648201526084015b60405180910390fd5b6001600160a01b03871660009081526002602052604081208054600192906101cf908490610635565b90915550506040517f5845892132946850460bff5a0083f71031bc5bf9aadcd40f1de79423eac9b10b9061020890899033908a9061065c565b60405180910390a1600080306001600160a01b0316888a604051602001610230929190610691565b60408051601f198184030181529082905261024a916106c8565b6000604051808303816000865af19150503d8060008114610287576040519150601f19603f3d011682016040523d82523d6000602084013e61028c565b606091505b5091509150816102de5760405162461bcd60e51b815260206004820152601c60248201527f46756e6374696f6e2063616c6c206e6f74207375636365737366756c00000000604482015260640161019d565b98975050505050505050565b60006001600160a01b0386166103505760405162461bcd60e51b815260206004820152602560248201527f4e61746976654d6574615472616e73616374696f6e3a20494e56414c49445f5360448201526424a3a722a960d91b606482015260840161019d565b600161036361035e876103da565b610457565b6040805160008152602081018083529290925260ff851690820152606081018690526080810185905260a0016020604051602081039080840390855afa1580156103b1573d6000803e3d6000fd5b505050602060405103516001600160a01b0316866001600160a01b031614905095945050505050565b60006040518060800160405280604381526020016106e5604391398051602091820120835184830151604080870151805190860120905161043a950193845260208401929092526001600160a01b03166040830152606082015260800190565b604051602081830303815290604052805190602001209050919050565b600061046260015490565b60405161190160f01b602082015260228101919091526042810183905260620161043a565b80356001600160a01b038116811461049e57600080fd5b919050565b634e487b7160e01b600052604160045260246000fd5b803560ff8116811461049e57600080fd5b600080600080600060a086880312156104e257600080fd5b6104eb86610487565b9450602086013567ffffffffffffffff8082111561050857600080fd5b818801915088601f83011261051c57600080fd5b81358181111561052e5761052e6104a3565b604051601f8201601f19908116603f01168101908382118183101715610556576105566104a3565b816040528281528b602084870101111561056f57600080fd5b82602086016020830137600060208483010152809850505050505060408601359250606086013591506105a4608087016104b9565b90509295509295909350565b60005b838110156105cb5781810151838201526020016105b3565b50506000910152565b600081518084526105ec8160208601602086016105b0565b601f01601f19169290920160200192915050565b60208152600061061360208301846105d4565b9392505050565b60006020828403121561062c57600080fd5b61061382610487565b8082018082111561065657634e487b7160e01b600052601160045260246000fd5b92915050565b6001600160a01b03848116825283166020820152606060408201819052600090610688908301846105d4565b95945050505050565b600083516106a38184602088016105b0565b60609390931b6bffffffffffffffffffffffff19169190920190815260140192915050565b600082516106da8184602087016105b0565b919091019291505056fe4d6574615472616e73616374696f6e2875696e74323536206e6f6e63652c616464726573732066726f6d2c62797465732066756e6374696f6e5369676e617475726529a2646970667358221220d1be9f22ac54c965cde086b0613b67865e4fec038323048e7586383c4104362564736f6c63430008110033","opcodes":"PUSH1 0x80 PUSH1 0x40 MSTORE CALLVALUE DUP1 ISZERO PUSH2 0x10 JUMPI PUSH1 0x0 DUP1 REVERT JUMPDEST POP PUSH2 0x75D DUP1 PUSH2 0x20 PUSH1 0x0 CODECOPY PUSH1 0x0 RETURN INVALID PUSH1 0x80 PUSH1 0x40 MSTORE PUSH1 0x4 CALLDATASIZE LT PUSH2 0x4A JUMPI PUSH1 0x0 CALLDATALOAD PUSH1 0xE0 SHR DUP1 PUSH4 0xC53C51C EQ PUSH2 0x4F JUMPI DUP1 PUSH4 0xF7E5970 EQ PUSH2 0x78 JUMPI DUP1 PUSH4 0x20379EE5 EQ PUSH2 0xA5 JUMPI DUP1 PUSH4 0x2D0335AB EQ PUSH2 0xC4 JUMPI DUP1 PUSH4 0x3408E470 EQ PUSH2 0xFA JUMPI JUMPDEST PUSH1 0x0 DUP1 REVERT JUMPDEST PUSH2 0x62 PUSH2 0x5D CALLDATASIZE PUSH1 0x4 PUSH2 0x4CA JUMP JUMPDEST PUSH2 0x10D JUMP JUMPDEST PUSH1 0x40 MLOAD PUSH2 0x6F SWAP2 SWAP1 PUSH2 0x600 JUMP JUMPDEST PUSH1 0x40 MLOAD DUP1 SWAP2 SUB SWAP1 RETURN JUMPDEST CALLVALUE DUP1 ISZERO PUSH2 0x84 JUMPI PUSH1 0x0 DUP1 REVERT JUMPDEST POP PUSH2 0x62 PUSH1 0x40 MLOAD DUP1 PUSH1 0x40 ADD PUSH1 0x40 MSTORE DUP1 PUSH1 0x1 DUP2 MSTORE PUSH1 0x20 ADD PUSH1 0x31 PUSH1 0xF8 SHL DUP2 MSTORE POP DUP2 JUMP JUMPDEST CALLVALUE DUP1 ISZERO PUSH2 0xB1 JUMPI PUSH1 0x0 DUP1 REVERT JUMPDEST POP PUSH1 0x1 SLOAD JUMPDEST PUSH1 0x40 MLOAD SWAP1 DUP2 MSTORE PUSH1 0x20 ADD PUSH2 0x6F JUMP JUMPDEST CALLVALUE DUP1 ISZERO PUSH2 0xD0 JUMPI PUSH1 0x0 DUP1 REVERT JUMPDEST POP PUSH2 0xB6 PUSH2 0xDF CALLDATASIZE PUSH1 0x4 PUSH2 0x61A JUMP JUMPDEST PUSH1 0x1 PUSH1 0x1 PUSH1 0xA0 SHL SUB AND PUSH1 0x0 SWAP1 DUP2 MSTORE PUSH1 0x2 PUSH1 0x20 MSTORE PUSH1 0x40 SWAP1 KECCAK256 SLOAD SWAP1 JUMP JUMPDEST CALLVALUE DUP1 ISZERO PUSH2 0x106 JUMPI PUSH1 0x0 DUP1 REVERT JUMPDEST POP CHAINID PUSH2 0xB6 JUMP JUMPDEST PUSH1 0x40 DUP1 MLOAD PUSH1 0x60 DUP2 DUP2 ADD DUP4 MSTORE PUSH1 0x1 PUSH1 0x1 PUSH1 0xA0 SHL SUB DUP9 AND PUSH1 0x0 DUP2 DUP2 MSTORE PUSH1 0x2 PUSH1 0x20 SWAP1 DUP2 MSTORE SWAP1 DUP6 SWAP1 KECCAK256 SLOAD DUP5 MSTORE DUP4 ADD MSTORE SWAP2 DUP2 ADD DUP7 SWAP1 MSTORE PUSH2 0x14B DUP8 DUP3 DUP8 DUP8 DUP8 PUSH2 0x2EA JUMP JUMPDEST PUSH2 0x1A6 JUMPI PUSH1 0x40 MLOAD PUSH3 0x461BCD PUSH1 0xE5 SHL DUP2 MSTORE PUSH1 0x20 PUSH1 0x4 DUP3 ADD MSTORE PUSH1 0x21 PUSH1 0x24 DUP3 ADD MSTORE PUSH32 0x5369676E657220616E64207369676E617475726520646F206E6F74206D617463 PUSH1 0x44 DUP3 ADD MSTORE PUSH1 0xD PUSH1 0xFB SHL PUSH1 0x64 DUP3 ADD MSTORE PUSH1 0x84 ADD JUMPDEST PUSH1 0x40 MLOAD DUP1 SWAP2 SUB SWAP1 REVERT JUMPDEST PUSH1 0x1 PUSH1 0x1 PUSH1 0xA0 SHL SUB DUP8 AND PUSH1 0x0 SWAP1 DUP2 MSTORE PUSH1 0x2 PUSH1 0x20 MSTORE PUSH1 0x40 DUP2 KECCAK256 DUP1 SLOAD PUSH1 0x1 SWAP3 SWAP1 PUSH2 0x1CF SWAP1 DUP5 SWAP1 PUSH2 0x635 JUMP JUMPDEST SWAP1 SWAP2 SSTORE POP POP PUSH1 0x40 MLOAD PUSH32 0x5845892132946850460BFF5A0083F71031BC5BF9AADCD40F1DE79423EAC9B10B SWAP1 PUSH2 0x208 SWAP1 DUP10 SWAP1 CALLER SWAP1 DUP11 SWAP1 PUSH2 0x65C JUMP JUMPDEST PUSH1 0x40 MLOAD DUP1 SWAP2 SUB SWAP1 LOG1 PUSH1 0x0 DUP1 ADDRESS PUSH1 0x1 PUSH1 0x1 PUSH1 0xA0 SHL SUB AND DUP9 DUP11 PUSH1 0x40 MLOAD PUSH1 0x20 ADD PUSH2 0x230 SWAP3 SWAP2 SWAP1 PUSH2 0x691 JUMP JUMPDEST PUSH1 0x40 DUP1 MLOAD PUSH1 0x1F NOT DUP2 DUP5 SUB ADD DUP2 MSTORE SWAP1 DUP3 SWAP1 MSTORE PUSH2 0x24A SWAP2 PUSH2 0x6C8 JUMP JUMPDEST PUSH1 0x0 PUSH1 0x40 MLOAD DUP1 DUP4 SUB DUP2 PUSH1 0x0 DUP7 GAS CALL SWAP2 POP POP RETURNDATASIZE DUP1 PUSH1 0x0 DUP2 EQ PUSH2 0x287 JUMPI PUSH1 0x40 MLOAD SWAP2 POP PUSH1 0x1F NOT PUSH1 0x3F RETURNDATASIZE ADD AND DUP3 ADD PUSH1 0x40 MSTORE RETURNDATASIZE DUP3 MSTORE RETURNDATASIZE PUSH1 0x0 PUSH1 0x20 DUP5 ADD RETURNDATACOPY PUSH2 0x28C JUMP JUMPDEST PUSH1 0x60 SWAP2 POP JUMPDEST POP SWAP2 POP SWAP2 POP DUP2 PUSH2 0x2DE JUMPI PUSH1 0x40 MLOAD PUSH3 0x461BCD PUSH1 0xE5 SHL DUP2 MSTORE PUSH1 0x20 PUSH1 0x4 DUP3 ADD MSTORE PUSH1 0x1C PUSH1 0x24 DUP3 ADD MSTORE PUSH32 0x46756E6374696F6E2063616C6C206E6F74207375636365737366756C00000000 PUSH1 0x44 DUP3 ADD MSTORE PUSH1 0x64 ADD PUSH2 0x19D JUMP JUMPDEST SWAP9 SWAP8 POP POP POP POP POP POP POP POP JUMP JUMPDEST PUSH1 0x0 PUSH1 0x1 PUSH1 0x1 PUSH1 0xA0 SHL SUB DUP7 AND PUSH2 0x350 JUMPI PUSH1 0x40 MLOAD PUSH3 0x461BCD PUSH1 0xE5 SHL DUP2 MSTORE PUSH1 0x20 PUSH1 0x4 DUP3 ADD MSTORE PUSH1 0x25 PUSH1 0x24 DUP3 ADD MSTORE PUSH32 0x4E61746976654D6574615472616E73616374696F6E3A20494E56414C49445F53 PUSH1 0x44 DUP3 ADD MSTORE PUSH5 0x24A3A722A9 PUSH1 0xD9 SHL PUSH1 0x64 DUP3 ADD MSTORE PUSH1 0x84 ADD PUSH2 0x19D JUMP JUMPDEST PUSH1 0x1 PUSH2 0x363 PUSH2 0x35E DUP8 PUSH2 0x3DA JUMP JUMPDEST PUSH2 0x457 JUMP JUMPDEST PUSH1 0x40 DUP1 MLOAD PUSH1 0x0 DUP2 MSTORE PUSH1 0x20 DUP2 ADD DUP1 DUP4 MSTORE SWAP3 SWAP1 SWAP3 MSTORE PUSH1 0xFF DUP6 AND SWAP1 DUP3 ADD MSTORE PUSH1 0x60 DUP2 ADD DUP7 SWAP1 MSTORE PUSH1 0x80 DUP2 ADD DUP6 SWAP1 MSTORE PUSH1 0xA0 ADD PUSH1 0x20 PUSH1 0x40 MLOAD PUSH1 0x20 DUP2 SUB SWAP1 DUP1 DUP5 SUB SWAP1 DUP6 GAS STATICCALL ISZERO DUP1 ISZERO PUSH2 0x3B1 JUMPI RETURNDATASIZE PUSH1 0x0 DUP1 RETURNDATACOPY RETURNDATASIZE PUSH1 0x0 REVERT JUMPDEST POP POP POP PUSH1 0x20 PUSH1 0x40 MLOAD SUB MLOAD PUSH1 0x1 PUSH1 0x1 PUSH1 0xA0 SHL SUB AND DUP7 PUSH1 0x1 PUSH1 0x1 PUSH1 0xA0 SHL SUB AND EQ SWAP1 POP SWAP6 SWAP5 POP POP POP POP POP JUMP JUMPDEST PUSH1 0x0 PUSH1 0x40 MLOAD DUP1 PUSH1 0x80 ADD PUSH1 0x40 MSTORE DUP1 PUSH1 0x43 DUP2 MSTORE PUSH1 0x20 ADD PUSH2 0x6E5 PUSH1 0x43 SWAP2 CODECOPY DUP1 MLOAD PUSH1 0x20 SWAP2 DUP3 ADD KECCAK256 DUP4 MLOAD DUP5 DUP4 ADD MLOAD PUSH1 0x40 DUP1 DUP8 ADD MLOAD DUP1 MLOAD SWAP1 DUP7 ADD KECCAK256 SWAP1 MLOAD PUSH2 0x43A SWAP6 ADD SWAP4 DUP5 MSTORE PUSH1 0x20 DUP5 ADD SWAP3 SWAP1 SWAP3 MSTORE PUSH1 0x1 PUSH1 0x1 PUSH1 0xA0 SHL SUB AND PUSH1 0x40 DUP4 ADD MSTORE PUSH1 0x60 DUP3 ADD MSTORE PUSH1 0x80 ADD SWAP1 JUMP JUMPDEST PUSH1 0x40 MLOAD PUSH1 0x20 DUP2 DUP4 SUB SUB DUP2 MSTORE SWAP1 PUSH1 0x40 MSTORE DUP1 MLOAD SWAP1 PUSH1 0x20 ADD KECCAK256 SWAP1 POP SWAP2 SWAP1 POP JUMP JUMPDEST PUSH1 0x0 PUSH2 0x462 PUSH1 0x1 SLOAD SWAP1 JUMP JUMPDEST PUSH1 0x40 MLOAD PUSH2 0x1901 PUSH1 0xF0 SHL PUSH1 0x20 DUP3 ADD MSTORE PUSH1 0x22 DUP2 ADD SWAP2 SWAP1 SWAP2 MSTORE PUSH1 0x42 DUP2 ADD DUP4 SWAP1 MSTORE PUSH1 0x62 ADD PUSH2 0x43A JUMP JUMPDEST DUP1 CALLDATALOAD PUSH1 0x1 PUSH1 0x1 PUSH1 0xA0 SHL SUB DUP2 AND DUP2 EQ PUSH2 0x49E JUMPI PUSH1 0x0 DUP1 REVERT JUMPDEST SWAP2 SWAP1 POP JUMP JUMPDEST PUSH4 0x4E487B71 PUSH1 0xE0 SHL PUSH1 0x0 MSTORE PUSH1 0x41 PUSH1 0x4 MSTORE PUSH1 0x24 PUSH1 0x0 REVERT JUMPDEST DUP1 CALLDATALOAD PUSH1 0xFF DUP2 AND DUP2 EQ PUSH2 0x49E JUMPI PUSH1 0x0 DUP1 REVERT JUMPDEST PUSH1 0x0 DUP1 PUSH1 0x0 DUP1 PUSH1 0x0 PUSH1 0xA0 DUP7 DUP9 SUB SLT ISZERO PUSH2 0x4E2 JUMPI PUSH1 0x0 DUP1 REVERT JUMPDEST PUSH2 0x4EB DUP7 PUSH2 0x487 JUMP JUMPDEST SWAP5 POP PUSH1 0x20 DUP7 ADD CALLDATALOAD PUSH8 0xFFFFFFFFFFFFFFFF DUP1 DUP3 GT ISZERO PUSH2 0x508 JUMPI PUSH1 0x0 DUP1 REVERT JUMPDEST DUP2 DUP9 ADD SWAP2 POP DUP9 PUSH1 0x1F DUP4 ADD SLT PUSH2 0x51C JUMPI PUSH1 0x0 DUP1 REVERT JUMPDEST DUP2 CALLDATALOAD DUP2 DUP2 GT ISZERO PUSH2 0x52E JUMPI PUSH2 0x52E PUSH2 0x4A3 JUMP JUMPDEST PUSH1 0x40 MLOAD PUSH1 0x1F DUP3 ADD PUSH1 0x1F NOT SWAP1 DUP2 AND PUSH1 0x3F ADD AND DUP2 ADD SWAP1 DUP4 DUP3 GT DUP2 DUP4 LT OR ISZERO PUSH2 0x556 JUMPI PUSH2 0x556 PUSH2 0x4A3 JUMP JUMPDEST DUP2 PUSH1 0x40 MSTORE DUP3 DUP2 MSTORE DUP12 PUSH1 0x20 DUP5 DUP8 ADD ADD GT ISZERO PUSH2 0x56F JUMPI PUSH1 0x0 DUP1 REVERT JUMPDEST DUP3 PUSH1 0x20 DUP7 ADD PUSH1 0x20 DUP4 ADD CALLDATACOPY PUSH1 0x0 PUSH1 0x20 DUP5 DUP4 ADD ADD MSTORE DUP1 SWAP9 POP POP POP POP POP POP PUSH1 0x40 DUP7 ADD CALLDATALOAD SWAP3 POP PUSH1 0x60 DUP7 ADD CALLDATALOAD SWAP2 POP PUSH2 0x5A4 PUSH1 0x80 DUP8 ADD PUSH2 0x4B9 JUMP JUMPDEST SWAP1 POP SWAP3 SWAP6 POP SWAP3 SWAP6 SWAP1 SWAP4 POP JUMP JUMPDEST PUSH1 0x0 JUMPDEST DUP4 DUP2 LT ISZERO PUSH2 0x5CB JUMPI DUP2 DUP2 ADD MLOAD DUP4 DUP3 ADD MSTORE PUSH1 0x20 ADD PUSH2 0x5B3 JUMP JUMPDEST POP POP PUSH1 0x0 SWAP2 ADD MSTORE JUMP JUMPDEST PUSH1 0x0 DUP2 MLOAD DUP1 DUP5 MSTORE PUSH2 0x5EC DUP2 PUSH1 0x20 DUP7 ADD PUSH1 0x20 DUP7 ADD PUSH2 0x5B0 JUMP JUMPDEST PUSH1 0x1F ADD PUSH1 0x1F NOT AND SWAP3 SWAP1 SWAP3 ADD PUSH1 0x20 ADD SWAP3 SWAP2 POP POP JUMP JUMPDEST PUSH1 0x20 DUP2 MSTORE PUSH1 0x0 PUSH2 0x613 PUSH1 0x20 DUP4 ADD DUP5 PUSH2 0x5D4 JUMP JUMPDEST SWAP4 SWAP3 POP POP POP JUMP JUMPDEST PUSH1 0x0 PUSH1 0x20 DUP3 DUP5 SUB SLT ISZERO PUSH2 0x62C JUMPI PUSH1 0x0 DUP1 REVERT JUMPDEST PUSH2 0x613 DUP3 PUSH2 0x487 JUMP JUMPDEST DUP1 DUP3 ADD DUP1 DUP3 GT ISZERO PUSH2 0x656 JUMPI PUSH4 0x4E487B71 PUSH1 0xE0 SHL PUSH1 0x0 MSTORE PUSH1 0x11 PUSH1 0x4 MSTORE PUSH1 0x24 PUSH1 0x0 REVERT JUMPDEST SWAP3 SWAP2 POP POP JUMP JUMPDEST PUSH1 0x1 PUSH1 0x1 PUSH1 0xA0 SHL SUB DUP5 DUP2 AND DUP3 MSTORE DUP4 AND PUSH1 0x20 DUP3 ADD MSTORE PUSH1 0x60 PUSH1 0x40 DUP3 ADD DUP2 SWAP1 MSTORE PUSH1 0x0 SWAP1 PUSH2 0x688 SWAP1 DUP4 ADD DUP5 PUSH2 0x5D4 JUMP JUMPDEST SWAP6 SWAP5 POP POP POP POP POP JUMP JUMPDEST PUSH1 0x0 DUP4 MLOAD PUSH2 0x6A3 DUP2 DUP5 PUSH1 0x20 DUP9 ADD PUSH2 0x5B0 JUMP JUMPDEST PUSH1 0x60 SWAP4 SWAP1 SWAP4 SHL PUSH12 0xFFFFFFFFFFFFFFFFFFFFFFFF NOT AND SWAP2 SWAP1 SWAP3 ADD SWAP1 DUP2 MSTORE PUSH1 0x14 ADD SWAP3 SWAP2 POP POP JUMP JUMPDEST PUSH1 0x0 DUP3 MLOAD PUSH2 0x6DA DUP2 DUP5 PUSH1 0x20 DUP8 ADD PUSH2 0x5B0 JUMP JUMPDEST SWAP2 SWAP1 SWAP2 ADD SWAP3 SWAP2 POP POP JUMP INVALID 0x4D PUSH6 0x74615472616E PUSH20 0x616374696F6E2875696E74323536206E6F6E6365 0x2C PUSH2 0x6464 PUSH19 0x6573732066726F6D2C62797465732066756E63 PUSH21 0x696F6E5369676E617475726529A264697066735822 SLT KECCAK256 0xD1 0xBE SWAP16 0x22 0xAC SLOAD 0xC9 PUSH6 0xCDE086B0613B PUSH8 0x865E4FEC03832304 DUP15 PUSH22 0x86383C4104362564736F6C6343000811003300000000 "},"methodIdentifiers":{"ERC712_VERSION()":"0f7e5970","executeMetaTransaction(address,bytes,bytes32,bytes32,uint8)":"0c53c51c","getChainId()":"3408e470","getDomainSeperator()":"20379ee5","getNonce(address)":"2d0335ab"}},"storageLayout":{"storage":[{"astId":157,"contract":"contracts/common/meta-transactions/NativeMetaTransaction.sol:NativeMetaTransaction","label":"_initialized","offset":0,"slot":"0","type":"t_uint8"},{"astId":160,"contract":"contracts/common/meta-transactions/NativeMetaTransaction.sol:NativeMetaTransaction","label":"_initializing","offset":1,"slot":"0","type":"t_bool"},{"astId":5288,"contract":"contracts/common/meta-transactions/NativeMetaTransaction.sol:NativeMetaTransaction","label":"domainSeperator","offset":0,"slot":"1","type":"t_bytes32"},{"astId":5414,"contract":"contracts/common/meta-transactions/NativeMetaTransaction.sol:NativeMetaTransaction","label":"nonces","offset":0,"slot":"2","type":"t_mapping(t_address,t_uint256)"}],"types":{"t_address":{"encoding":"inplace","label":"address","numberOfBytes":"20"},"t_bool":{"encoding":"inplace","label":"bool","numberOfBytes":"1"},"t_bytes32":{"encoding":"inplace","label":"bytes32","numberOfBytes":"32"},"t_mapping(t_address,t_uint256)":{"encoding":"mapping","key":"t_address","label":"mapping(address => uint256)","numberOfBytes":"32","value":"t_uint256"},"t_uint256":{"encoding":"inplace","label":"uint256","numberOfBytes":"32"},"t_uint8":{"encoding":"inplace","label":"uint8","numberOfBytes":"1"}}}}}}