{"contracts/ERC1155Tradable.sol":{"ERC1155Tradable":{"abi":[{"anonymous":false,"inputs":[{"indexed":true,"internalType":"address","name":"account","type":"address"},{"indexed":true,"internalType":"address","name":"operator","type":"address"},{"indexed":false,"internalType":"bool","name":"approved","type":"bool"}],"name":"ApprovalForAll","type":"event"},{"anonymous":false,"inputs":[{"indexed":false,"internalType":"uint8","name":"version","type":"uint8"}],"name":"Initialized","type":"event"},{"anonymous":false,"inputs":[{"indexed":false,"internalType":"address","name":"userAddress","type":"address"},{"indexed":false,"internalType":"address payable","name":"relayerAddress","type":"address"},{"indexed":false,"internalType":"bytes","name":"functionSignature","type":"bytes"}],"name":"MetaTransactionExecuted","type":"event"},{"anonymous":false,"inputs":[{"indexed":true,"internalType":"address","name":"previousOwner","type":"address"},{"indexed":true,"internalType":"address","name":"newOwner","type":"address"}],"name":"OwnershipTransferred","type":"event"},{"anonymous":false,"inputs":[{"indexed":false,"internalType":"address","name":"account","type":"address"}],"name":"Paused","type":"event"},{"anonymous":false,"inputs":[{"indexed":true,"internalType":"address","name":"operator","type":"address"},{"indexed":true,"internalType":"address","name":"from","type":"address"},{"indexed":true,"internalType":"address","name":"to","type":"address"},{"indexed":false,"internalType":"uint256[]","name":"ids","type":"uint256[]"},{"indexed":false,"internalType":"uint256[]","name":"values","type":"uint256[]"}],"name":"TransferBatch","type":"event"},{"anonymous":false,"inputs":[{"indexed":true,"internalType":"address","name":"operator","type":"address"},{"indexed":true,"internalType":"address","name":"from","type":"address"},{"indexed":true,"internalType":"address","name":"to","type":"address"},{"indexed":false,"internalType":"uint256","name":"id","type":"uint256"},{"indexed":false,"internalType":"uint256","name":"value","type":"uint256"}],"name":"TransferSingle","type":"event"},{"anonymous":false,"inputs":[{"indexed":false,"internalType":"string","name":"value","type":"string"},{"indexed":true,"internalType":"uint256","name":"id","type":"uint256"}],"name":"URI","type":"event"},{"anonymous":false,"inputs":[{"indexed":false,"internalType":"address","name":"account","type":"address"}],"name":"Unpaused","type":"event"},{"inputs":[],"name":"ERC712_VERSION","outputs":[{"internalType":"string","name":"","type":"string"}],"stateMutability":"view","type":"function"},{"inputs":[{"internalType":"address","name":"account","type":"address"},{"internalType":"uint256","name":"id","type":"uint256"}],"name":"balanceOf","outputs":[{"internalType":"uint256","name":"","type":"uint256"}],"stateMutability":"view","type":"function"},{"inputs":[{"internalType":"address[]","name":"accounts","type":"address[]"},{"internalType":"uint256[]","name":"ids","type":"uint256[]"}],"name":"balanceOfBatch","outputs":[{"internalType":"uint256[]","name":"","type":"uint256[]"}],"stateMutability":"view","type":"function"},{"inputs":[{"internalType":"address","name":"_from","type":"address"},{"internalType":"uint256[]","name":"_ids","type":"uint256[]"},{"internalType":"uint256[]","name":"_quantities","type":"uint256[]"}],"name":"batchBurn","outputs":[],"stateMutability":"nonpayable","type":"function"},{"inputs":[{"internalType":"address","name":"_to","type":"address"},{"internalType":"uint256[]","name":"_ids","type":"uint256[]"},{"internalType":"uint256[]","name":"_quantities","type":"uint256[]"},{"internalType":"bytes","name":"_data","type":"bytes"}],"name":"batchMint","outputs":[],"stateMutability":"nonpayable","type":"function"},{"inputs":[{"internalType":"address","name":"_from","type":"address"},{"internalType":"uint256","name":"_id","type":"uint256"},{"internalType":"uint256","name":"_quantity","type":"uint256"}],"name":"burn","outputs":[],"stateMutability":"nonpayable","type":"function"},{"inputs":[{"internalType":"address","name":"userAddress","type":"address"},{"internalType":"bytes","name":"functionSignature","type":"bytes"},{"internalType":"bytes32","name":"sigR","type":"bytes32"},{"internalType":"bytes32","name":"sigS","type":"bytes32"},{"internalType":"uint8","name":"sigV","type":"uint8"}],"name":"executeMetaTransaction","outputs":[{"internalType":"bytes","name":"","type":"bytes"}],"stateMutability":"payable","type":"function"},{"inputs":[{"internalType":"uint256","name":"_id","type":"uint256"}],"name":"exists","outputs":[{"internalType":"bool","name":"","type":"bool"}],"stateMutability":"view","type":"function"},{"inputs":[],"name":"getChainId","outputs":[{"internalType":"uint256","name":"","type":"uint256"}],"stateMutability":"view","type":"function"},{"inputs":[],"name":"getDomainSeperator","outputs":[{"internalType":"bytes32","name":"","type":"bytes32"}],"stateMutability":"view","type":"function"},{"inputs":[{"internalType":"address","name":"user","type":"address"}],"name":"getNonce","outputs":[{"internalType":"uint256","name":"nonce","type":"uint256"}],"stateMutability":"view","type":"function"},{"inputs":[{"internalType":"address","name":"_owner","type":"address"},{"internalType":"address","name":"_operator","type":"address"}],"name":"isApprovedForAll","outputs":[{"internalType":"bool","name":"isOperator","type":"bool"}],"stateMutability":"view","type":"function"},{"inputs":[{"internalType":"address","name":"_to","type":"address"},{"internalType":"uint256","name":"_id","type":"uint256"},{"internalType":"uint256","name":"_quantity","type":"uint256"},{"internalType":"bytes","name":"_data","type":"bytes"}],"name":"mint","outputs":[],"stateMutability":"nonpayable","type":"function"},{"inputs":[],"name":"name","outputs":[{"internalType":"string","name":"","type":"string"}],"stateMutability":"view","type":"function"},{"inputs":[],"name":"owner","outputs":[{"internalType":"address","name":"","type":"address"}],"stateMutability":"view","type":"function"},{"inputs":[],"name":"pause","outputs":[],"stateMutability":"nonpayable","type":"function"},{"inputs":[],"name":"paused","outputs":[{"internalType":"bool","name":"","type":"bool"}],"stateMutability":"view","type":"function"},{"inputs":[],"name":"proxyRegistryAddress","outputs":[{"internalType":"address","name":"","type":"address"}],"stateMutability":"view","type":"function"},{"inputs":[],"name":"renounceOwnership","outputs":[],"stateMutability":"nonpayable","type":"function"},{"inputs":[{"internalType":"address","name":"from","type":"address"},{"internalType":"address","name":"to","type":"address"},{"internalType":"uint256[]","name":"ids","type":"uint256[]"},{"internalType":"uint256[]","name":"amounts","type":"uint256[]"},{"internalType":"bytes","name":"data","type":"bytes"}],"name":"safeBatchTransferFrom","outputs":[],"stateMutability":"nonpayable","type":"function"},{"inputs":[{"internalType":"address","name":"from","type":"address"},{"internalType":"address","name":"to","type":"address"},{"internalType":"uint256","name":"id","type":"uint256"},{"internalType":"uint256","name":"amount","type":"uint256"},{"internalType":"bytes","name":"data","type":"bytes"}],"name":"safeTransferFrom","outputs":[],"stateMutability":"nonpayable","type":"function"},{"inputs":[{"internalType":"address","name":"operator","type":"address"},{"internalType":"bool","name":"approved","type":"bool"}],"name":"setApprovalForAll","outputs":[],"stateMutability":"nonpayable","type":"function"},{"inputs":[{"internalType":"bytes4","name":"interfaceId","type":"bytes4"}],"name":"supportsInterface","outputs":[{"internalType":"bool","name":"","type":"bool"}],"stateMutability":"view","type":"function"},{"inputs":[],"name":"symbol","outputs":[{"internalType":"string","name":"","type":"string"}],"stateMutability":"view","type":"function"},{"inputs":[{"internalType":"uint256","name":"_id","type":"uint256"}],"name":"totalSupply","outputs":[{"internalType":"uint256","name":"","type":"uint256"}],"stateMutability":"view","type":"function"},{"inputs":[{"internalType":"address","name":"newOwner","type":"address"}],"name":"transferOwnership","outputs":[],"stateMutability":"nonpayable","type":"function"},{"inputs":[],"name":"unpause","outputs":[],"stateMutability":"nonpayable","type":"function"},{"inputs":[{"internalType":"uint256","name":"","type":"uint256"}],"name":"uri","outputs":[{"internalType":"string","name":"","type":"string"}],"stateMutability":"view","type":"function"}],"evm":{"bytecode":{"linkReferences":{},"object":"608060405234801561001057600080fd5b50612bad806100206000396000f3fe6080604052600436106101b65760003560e01c8063715018a6116100ec578063bd85b0391161008a578063f242432a11610064578063f242432a146104ea578063f2fde38b1461050a578063f5298aca1461052a578063f6eb127a1461054a57600080fd5b8063bd85b0391461047b578063cd7c0326146104a9578063e985e9c5146104ca57600080fd5b80638da5cb5b116100c65780638da5cb5b146103f457806395d89b4114610426578063a22cb4651461043b578063b48ab8b61461045b57600080fd5b8063715018a6146103aa578063731133e9146103bf5780638456cb59146103df57600080fd5b80632d0335ab116101595780633f4ba83a116101335780633f4ba83a146103205780634e1273f4146103355780634f558e79146103625780635c975abb1461039257600080fd5b80632d0335ab146102b55780632eb2c2d6146102eb5780633408e4701461030d57600080fd5b80630c53c51c116101955780630c53c51c146102405780630e89341c146102535780630f7e59701461027357806320379ee5146102a057600080fd5b8062fdd58e146101bb57806301ffc9a7146101ee57806306fdde031461021e575b600080fd5b3480156101c757600080fd5b506101db6101d6366004611fe8565b61056a565b6040519081526020015b60405180910390f35b3480156101fa57600080fd5b5061020e610209366004612028565b610606565b60405190151581526020016101e5565b34801561022a57600080fd5b50610233610656565b6040516101e59190612095565b61023361024e36600461215f565b6106e4565b34801561025f57600080fd5b5061023361026e3660046121db565b6108bc565b34801561027f57600080fd5b50610233604051806040016040528060018152602001603160f81b81525081565b3480156102ac57600080fd5b506097546101db565b3480156102c157600080fd5b506101db6102d03660046121f4565b6001600160a01b031660009081526098602052604090205490565b3480156102f757600080fd5b5061030b6103063660046122a4565b610950565b005b34801561031957600080fd5b50466101db565b34801561032c57600080fd5b5061030b610b99565b34801561034157600080fd5b5061035561035036600461234e565b610bcf565b6040516101e59190612454565b34801561036e57600080fd5b5061020e61037d3660046121db565b60009081526101006020526040902054151590565b34801561039e57600080fd5b5060cb5460ff1661020e565b3480156103b657600080fd5b5061030b610cf9565b3480156103cb57600080fd5b5061030b6103da366004612467565b610d0b565b3480156103eb57600080fd5b5061030b610d44565b34801561040057600080fd5b506099546001600160a01b03165b6040516001600160a01b0390911681526020016101e5565b34801561043257600080fd5b50610233610d73565b34801561044757600080fd5b5061030b6104563660046124c8565b610d80565b34801561046757600080fd5b5061030b610476366004612504565b610d96565b34801561048757600080fd5b506101db6104963660046121db565b6000908152610100602052604090205490565b3480156104b557600080fd5b506101015461040e906001600160a01b031681565b3480156104d657600080fd5b5061020e6104e5366004612591565b610dc9565b3480156104f657600080fd5b5061030b6105053660046125c4565b610e1c565b34801561051657600080fd5b5061030b6105253660046121f4565b610fb5565b34801561053657600080fd5b5061030b610545366004612629565b61102e565b34801561055657600080fd5b5061030b61056536600461265c565b611084565b60006001600160a01b0383166105db5760405162461bcd60e51b815260206004820152602b60248201527f455243313135353a2062616c616e636520717565727920666f7220746865207a60448201526a65726f206164647265737360a81b60648201526084015b60405180910390fd5b50600081815260ff602090815260408083206001600160a01b03861684529091529020545b92915050565b60006001600160e01b03198216636cdb3d1360e11b148061063757506001600160e01b031982166303a24d0760e21b145b8061060057506301ffc9a760e01b6001600160e01b0319831614610600565b60fd8054610663906126d0565b80601f016020809104026020016040519081016040528092919081815260200182805461068f906126d0565b80156106dc5780601f106106b1576101008083540402835291602001916106dc565b820191906000526020600020905b8154815290600101906020018083116106bf57829003601f168201915b505050505081565b60408051606081810183526001600160a01b0388166000818152609860209081529085902054845283015291810186905261072287828787876110da565b6107785760405162461bcd60e51b815260206004820152602160248201527f5369676e657220616e64207369676e617475726520646f206e6f74206d6174636044820152600d60fb1b60648201526084016105d2565b6001600160a01b03871660009081526098602052604081208054600192906107a1908490612720565b90915550506040517f5845892132946850460bff5a0083f71031bc5bf9aadcd40f1de79423eac9b10b906107da90899033908a90612733565b60405180910390a1600080306001600160a01b0316888a604051602001610802929190612768565b60408051601f198184030181529082905261081c9161279f565b6000604051808303816000865af19150503d8060008114610859576040519150601f19603f3d011682016040523d82523d6000602084013e61085e565b606091505b5091509150816108b05760405162461bcd60e51b815260206004820152601c60248201527f46756e6374696f6e2063616c6c206e6f74207375636365737366756c0000000060448201526064016105d2565b98975050505050505050565b6060606780546108cb906126d0565b80601f01602080910402602001604051908101604052809291908181526020018280546108f7906126d0565b80156109445780601f1061091957610100808354040283529160200191610944565b820191906000526020600020905b81548152906001019060200180831161092757829003601f168201915b50505050509050919050565b6109586111ca565b84610961611210565b6001600160a01b0316816001600160a01b031614806109875750610987816104e5611210565b6109a35760405162461bcd60e51b81526004016105d2906127bb565b82518451146109c45760405162461bcd60e51b81526004016105d29061280b565b6001600160a01b0385166109ea5760405162461bcd60e51b81526004016105d29061284f565b60006109f4611210565b905060005b8551811015610b2a576000868281518110610a1657610a16612894565b602002602001015190506000868381518110610a3457610a34612894565b602090810291909101810151600084815260ff835260408082206001600160a01b038f168352909352919091205490915081811015610a855760405162461bcd60e51b81526004016105d2906128aa565b610a8f82826128f4565b60ff600085815260200190815260200160002060008d6001600160a01b03166001600160a01b03168152602001908152602001600020819055508160ff600085815260200190815260200160002060008c6001600160a01b03166001600160a01b031681526020019081526020016000206000828254610b0f9190612720565b9250508190555050505080610b2390612907565b90506109f9565b50856001600160a01b0316876001600160a01b0316826001600160a01b03167f4a39dc06d4c0dbc64b70af90fd698a233a518aa5d07e595d983b8c0526c8f7fb8888604051610b7a929190612920565b60405180910390a4610b90818888888888611227565b50505050505050565b610ba9610ba4611210565b611382565b610bc55760405162461bcd60e51b81526004016105d290612945565b610bcd6113b0565b565b60608151835114610c345760405162461bcd60e51b815260206004820152602960248201527f455243313135353a206163636f756e747320616e6420696473206c656e677468604482015268040dad2e6dac2e8c6d60bb1b60648201526084016105d2565b6000835167ffffffffffffffff811115610c5057610c506120a8565b604051908082528060200260200182016040528015610c79578160200160208202803683370190505b50905060005b8451811015610cf157610cc4858281518110610c9d57610c9d612894565b6020026020010151858381518110610cb757610cb7612894565b602002602001015161056a565b828281518110610cd657610cd6612894565b6020908102919091010152610cea81612907565b9050610c7f565b509392505050565b610d01611408565b610bcd6000611481565b610d16610ba4611210565b610d325760405162461bcd60e51b81526004016105d290612945565b610d3e848484846114d3565b50505050565b610d4f610ba4611210565b610d6b5760405162461bcd60e51b81526004016105d290612945565b610bcd6115b7565b60fe8054610663906126d0565b610d92610d8b611210565b83836115f5565b5050565b610da1610ba4611210565b610dbd5760405162461bcd60e51b81526004016105d290612945565b610d3e848484846116d5565b610101546000906001600160a01b0390811690831603610deb57506001610600565b6001600160a01b0380841660009081526066602090815260408083209386168352929052205460ff165b9392505050565b610e246111ca565b84610e2d611210565b6001600160a01b0316816001600160a01b03161480610e535750610e53816104e5611210565b610e6f5760405162461bcd60e51b81526004016105d2906127bb565b6001600160a01b038516610e955760405162461bcd60e51b81526004016105d29061284f565b6000610e9f611210565b9050610ec0818888610eb08961191a565b610eb98961191a565b5050505050565b600085815260ff602090815260408083206001600160a01b038b16845290915290205484811015610f035760405162461bcd60e51b81526004016105d2906128aa565b610f0d85826128f4565b600087815260ff602090815260408083206001600160a01b038d81168552925280832093909355891681529081208054879290610f4b908490612720565b909155505060408051878152602081018790526001600160a01b03808a16928b821692918616917fc3d58168c5ae7397731d063d5bbf3d657854427343f4c083240f7aacaa2d0f62910160405180910390a4610fab828989898989611965565b5050505050505050565b610fbd611408565b6001600160a01b0381166110225760405162461bcd60e51b815260206004820152602660248201527f4f776e61626c653a206e6577206f776e657220697320746865207a65726f206160448201526564647265737360d01b60648201526084016105d2565b61102b81611481565b50565b82611037611210565b6001600160a01b0316816001600160a01b0316148061105d575061105d816104e5611210565b6110795760405162461bcd60e51b81526004016105d2906127bb565b610d3e848484611a20565b8261108d611210565b6001600160a01b0316816001600160a01b031614806110b357506110b3816104e5611210565b6110cf5760405162461bcd60e51b81526004016105d2906127bb565b610d3e848484611c47565b60006001600160a01b0386166111405760405162461bcd60e51b815260206004820152602560248201527f4e61746976654d6574615472616e73616374696f6e3a20494e56414c49445f5360448201526424a3a722a960d91b60648201526084016105d2565b600161115361114e87611e7a565b611ef7565b6040805160008152602081018083529290925260ff851690820152606081018690526080810185905260a0016020604051602081039080840390855afa1580156111a1573d6000803e3d6000fd5b505050602060405103516001600160a01b0316866001600160a01b031614905095945050505050565b60cb5460ff1615610bcd5760405162461bcd60e51b815260206004820152601060248201526f14185d5cd8589b194e881c185d5cd95960821b60448201526064016105d2565b600061121a611f27565b905090565b505050505050565b6001600160a01b0384163b1561121f5760405163bc197c8160e01b81526001600160a01b0385169063bc197c819061126b9089908990889088908890600401612993565b6020604051808303816000875af19250505080156112a6575060408051601f3d908101601f191682019092526112a3918101906129e5565b60015b611352576112b2612a02565b806308c379a0036112eb57506112c6612a1d565b806112d157506112ed565b8060405162461bcd60e51b81526004016105d29190612095565b505b60405162461bcd60e51b815260206004820152603460248201527f455243313135353a207472616e7366657220746f206e6f6e20455243313135356044820152732932b1b2b4bb32b91034b6b83632b6b2b73a32b960611b60648201526084016105d2565b6001600160e01b0319811663bc197c8160e01b14610b905760405162461bcd60e51b81526004016105d290612aa7565b6000816001600160a01b03166113a06099546001600160a01b031690565b6001600160a01b03161492915050565b6113b8611f83565b60cb805460ff191690557f5db9ee0a495bf2e6ff9c91a7834c1ba4fdd244a5e8aa4e537bd38aeae4b073aa6113eb611210565b6040516001600160a01b03909116815260200160405180910390a1565b611410611210565b6001600160a01b031661142b6099546001600160a01b031690565b6001600160a01b031614610bcd5760405162461bcd60e51b815260206004820181905260248201527f4f776e61626c653a2063616c6c6572206973206e6f7420746865206f776e657260448201526064016105d2565b609980546001600160a01b038381166001600160a01b0319831681179093556040519116919082907f8be0079c531659141344cd1fd0a4f28419497f9722a3daafe3b4186f6b6457e090600090a35050565b6114db6111ca565b60006114e5611210565b9050611500816000876114f78861191a565b610eb98861191a565b600084815260ff602090815260408083206001600160a01b038916845290915281208054859290611532908490612720565b90915550506000848152610100602052604081208054859290611556908490612720565b909155505060408051858152602081018590526000916001600160a01b03808916928492918616917fc3d58168c5ae7397731d063d5bbf3d657854427343f4c083240f7aacaa2d0f62910160405180910390a461121f828288888888611965565b6115bf6111ca565b60cb805460ff191660011790557f62e78cea01bee320cd4e420270b5ea74000d11b0c9f74754ebdbfc544b05a2586113eb611210565b816001600160a01b0316836001600160a01b0316036116685760405162461bcd60e51b815260206004820152602960248201527f455243313135353a2073657474696e6720617070726f76616c20737461747573604482015268103337b91039b2b63360b91b60648201526084016105d2565b6001600160a01b03838116600081815260666020908152604080832094871680845294825291829020805460ff191686151590811790915591519182527f17307eab39ab6107e8899845ad3d59bd9653f200f220920489ca2b5937696c31910160405180910390a3505050565b6116dd6111ca565b81518351146117475760405162461bcd60e51b815260206004820152603060248201527f455243313135355472616461626c652362617463684d696e743a20494e56414c60448201526f09288be82a4a482b2a6be988a9c8ea8960831b60648201526084016105d2565b8251600061176585828461175d5761175d612894565b506000919050565b90506000611771611210565b905060005b838110156118b457600087828151811061179257611792612894565b6020026020010151905060008783815181106117b0576117b0612894565b602002602001015190506001600160a01b03851660006001600160a01b0316146118425760405162461bcd60e51b815260206004820152603760248201527f455243313135355472616461626c652362617463684d696e743a204d554c544960448201527f504c455f4f524947494e535f4e4f545f414c4c4f57454400000000000000000060648201526084016105d2565b600082815260ff602090815260408083206001600160a01b038e16845290915281208054839290611874908490612720565b90915550506000828152610100602052604081208054839290611898908490612720565b92505081905550505080806118ac90612907565b915050611776565b50866001600160a01b0316826001600160a01b0316826001600160a01b03167f4a39dc06d4c0dbc64b70af90fd698a233a518aa5d07e595d983b8c0526c8f7fb8989604051611904929190612920565b60405180910390a4610b90818389898989611227565b6040805160018082528183019092526060916000919060208083019080368337019050509050828160008151811061195457611954612894565b602090810291909101015292915050565b6001600160a01b0384163b1561121f5760405163f23a6e6160e01b81526001600160a01b0385169063f23a6e61906119a99089908990889088908890600401612aef565b6020604051808303816000875af19250505080156119e4575060408051601f3d908101601f191682019092526119e1918101906129e5565b60015b6119f0576112b2612a02565b6001600160e01b0319811663f23a6e6160e01b14610b905760405162461bcd60e51b81526004016105d290612aa7565b611a286111ca565b6001600160a01b038316611a8c5760405162461bcd60e51b815260206004820152602560248201527f45524331313535235f6275726e3a204255524e5f46524f4d5f5a45524f5f4144604482015264445245535360d81b60648201526084016105d2565b60008111611ae85760405162461bcd60e51b815260206004820152602360248201527f45524331313535235f6275726e3a20414d4f554e545f4c4553535f5448414e5f6044820152624f4e4560e81b60648201526084016105d2565b6000611af2611210565b9050611b2381856000611b048761191a565b611b0d8761191a565b5050604080516020810190915260009052505050565b600083815260ff602090815260408083206001600160a01b038816845290915290205482811015611ba45760405162461bcd60e51b815260206004820152602560248201527f45524331313535235f6275726e3a20414d4f554e545f455843454544535f42416044820152644c414e434560d81b60648201526084016105d2565b611bae83826128f4565b600085815260ff602090815260408083206001600160a01b038a16845282528083209390935586825261010090529081208054859290611bef9084906128f4565b909155505060408051858152602081018590526000916001600160a01b0388811692908616917fc3d58168c5ae7397731d063d5bbf3d657854427343f4c083240f7aacaa2d0f62910160405180910390a45050505050565b611c4f6111ca565b6001600160a01b038316611ca55760405162461bcd60e51b815260206004820152601f60248201527f455243313135353a204255524e5f46524f4d5f5a45524f5f414444524553530060448201526064016105d2565b8051825114611cc65760405162461bcd60e51b81526004016105d29061280b565b6000611cd0611210565b604080516020810190915260009052905060005b8351811015611e1b576000848281518110611d0157611d01612894565b602002602001015190506000848381518110611d1f57611d1f612894565b602090810291909101810151600084815260ff835260408082206001600160a01b038c168352909352919091205490915081811015611db35760405162461bcd60e51b815260206004820152602a60248201527f45524331313535235f6275726e42617463683a20414d4f554e545f455843454560448201526944535f42414c414e434560b01b60648201526084016105d2565b611dbd82826128f4565b600084815260ff602090815260408083206001600160a01b038d16845282528083209390935585825261010090529081208054849290611dfe9084906128f4565b925050819055505050508080611e1390612907565b915050611ce4565b5060006001600160a01b0316846001600160a01b0316826001600160a01b03167f4a39dc06d4c0dbc64b70af90fd698a233a518aa5d07e595d983b8c0526c8f7fb8686604051611e6c929190612920565b60405180910390a450505050565b6000604051806080016040528060438152602001612b356043913980516020918201208351848301516040808701518051908601209051611eda950193845260208401929092526001600160a01b03166040830152606082015260800190565b604051602081830303815290604052805190602001209050919050565b6000611f0260975490565b60405161190160f01b6020820152602281019190915260428101839052606201611eda565b6000303303611f7d57600080368080601f0160208091040260200160405190810160405280939291908181526020018383808284376000920191909152505050503601516001600160a01b03169150611f809050565b50335b90565b60cb5460ff16610bcd5760405162461bcd60e51b815260206004820152601460248201527314185d5cd8589b194e881b9bdd081c185d5cd95960621b60448201526064016105d2565b80356001600160a01b0381168114611fe357600080fd5b919050565b60008060408385031215611ffb57600080fd5b61200483611fcc565b946020939093013593505050565b6001600160e01b03198116811461102b57600080fd5b60006020828403121561203a57600080fd5b8135610e1581612012565b60005b83811015612060578181015183820152602001612048565b50506000910152565b60008151808452612081816020860160208601612045565b601f01601f19169290920160200192915050565b602081526000610e156020830184612069565b634e487b7160e01b600052604160045260246000fd5b601f8201601f1916810167ffffffffffffffff811182821017156120e4576120e46120a8565b6040525050565b600082601f8301126120fc57600080fd5b813567ffffffffffffffff811115612116576121166120a8565b60405161212d601f8301601f1916602001826120be565b81815284602083860101111561214257600080fd5b816020850160208301376000918101602001919091529392505050565b600080600080600060a0868803121561217757600080fd5b61218086611fcc565b9450602086013567ffffffffffffffff81111561219c57600080fd5b6121a8888289016120eb565b9450506040860135925060608601359150608086013560ff811681146121cd57600080fd5b809150509295509295909350565b6000602082840312156121ed57600080fd5b5035919050565b60006020828403121561220657600080fd5b610e1582611fcc565b600067ffffffffffffffff821115612229576122296120a8565b5060051b60200190565b600082601f83011261224457600080fd5b813560206122518261220f565b60405161225e82826120be565b83815260059390931b850182019282810191508684111561227e57600080fd5b8286015b848110156122995780358352918301918301612282565b509695505050505050565b600080600080600060a086880312156122bc57600080fd5b6122c586611fcc565b94506122d360208701611fcc565b9350604086013567ffffffffffffffff808211156122f057600080fd5b6122fc89838a01612233565b9450606088013591508082111561231257600080fd5b61231e89838a01612233565b9350608088013591508082111561233457600080fd5b50612341888289016120eb565b9150509295509295909350565b6000806040838503121561236157600080fd5b823567ffffffffffffffff8082111561237957600080fd5b818501915085601f83011261238d57600080fd5b8135602061239a8261220f565b6040516123a782826120be565b83815260059390931b85018201928281019150898411156123c757600080fd5b948201945b838610156123ec576123dd86611fcc565b825294820194908201906123cc565b9650508601359250508082111561240257600080fd5b5061240f85828601612233565b9150509250929050565b600081518084526020808501945080840160005b838110156124495781518752958201959082019060010161242d565b509495945050505050565b602081526000610e156020830184612419565b6000806000806080858703121561247d57600080fd5b61248685611fcc565b93506020850135925060408501359150606085013567ffffffffffffffff8111156124b057600080fd5b6124bc878288016120eb565b91505092959194509250565b600080604083850312156124db57600080fd5b6124e483611fcc565b9150602083013580151581146124f957600080fd5b809150509250929050565b6000806000806080858703121561251a57600080fd5b61252385611fcc565b9350602085013567ffffffffffffffff8082111561254057600080fd5b61254c88838901612233565b9450604087013591508082111561256257600080fd5b61256e88838901612233565b9350606087013591508082111561258457600080fd5b506124bc878288016120eb565b600080604083850312156125a457600080fd5b6125ad83611fcc565b91506125bb60208401611fcc565b90509250929050565b600080600080600060a086880312156125dc57600080fd5b6125e586611fcc565b94506125f360208701611fcc565b93506040860135925060608601359150608086013567ffffffffffffffff81111561261d57600080fd5b612341888289016120eb565b60008060006060848603121561263e57600080fd5b61264784611fcc565b95602085013595506040909401359392505050565b60008060006060848603121561267157600080fd5b61267a84611fcc565b9250602084013567ffffffffffffffff8082111561269757600080fd5b6126a387838801612233565b935060408601359150808211156126b957600080fd5b506126c686828701612233565b9150509250925092565b600181811c908216806126e457607f821691505b60208210810361270457634e487b7160e01b600052602260045260246000fd5b50919050565b634e487b7160e01b600052601160045260246000fd5b808201808211156106005761060061270a565b6001600160a01b0384811682528316602082015260606040820181905260009061275f90830184612069565b95945050505050565b6000835161277a818460208801612045565b60609390931b6bffffffffffffffffffffffff19169190920190815260140192915050565b600082516127b1818460208701612045565b9190910192915050565b60208082526030908201527f455243313135355472616461626c65236f6e6c79417070726f7665643a20434160408201526f1313115497d393d517d0531313d5d15160821b606082015260800190565b60208082526024908201527f455243313135353a204944535f414d4f554e54535f4c454e4754485f4d49534d604082015263082a886960e31b606082015260800190565b60208082526025908201527f455243313135353a207472616e7366657220746f20746865207a65726f206164604082015264647265737360d81b606082015260800190565b634e487b7160e01b600052603260045260246000fd5b6020808252602a908201527f455243313135353a20696e73756666696369656e742062616c616e636520666f60408201526939103a3930b739b332b960b11b606082015260800190565b818103818111156106005761060061270a565b6000600182016129195761291961270a565b5060010190565b6040815260006129336040830185612419565b828103602084015261275f8185612419565b6020808252602e908201527f455243313135355472616461626c65236f6e6c794f776e65723a2043414c4c4560408201526d292fa4a9afa727aa2fa7aba722a960911b606082015260800190565b6001600160a01b0386811682528516602082015260a0604082018190526000906129bf90830186612419565b82810360608401526129d18186612419565b905082810360808401526108b08185612069565b6000602082840312156129f757600080fd5b8151610e1581612012565b600060033d1115611f805760046000803e5060005160e01c90565b600060443d1015612a2b5790565b6040516003193d81016004833e81513d67ffffffffffffffff8160248401118184111715612a5b57505050505090565b8285019150815181811115612a735750505050505090565b843d8701016020828501011115612a8d5750505050505090565b612a9c602082860101876120be565b509095945050505050565b60208082526028908201527f455243313135353a204552433131353552656365697665722072656a656374656040820152676420746f6b656e7360c01b606082015260800190565b6001600160a01b03868116825285166020820152604081018490526060810183905260a060808201819052600090612b2990830184612069565b97965050505050505056fe4d6574615472616e73616374696f6e2875696e74323536206e6f6e63652c616464726573732066726f6d2c62797465732066756e6374696f6e5369676e617475726529a26469706673582212209ec583adc9eb98fbc28ce2c8ffbcb2df0c1bd3442d3c44a5f1207ac95f9dd04964736f6c63430008110033","opcodes":"PUSH1 0x80 PUSH1 0x40 MSTORE CALLVALUE DUP1 ISZERO PUSH2 0x10 JUMPI PUSH1 0x0 DUP1 REVERT JUMPDEST POP PUSH2 0x2BAD DUP1 PUSH2 0x20 PUSH1 0x0 CODECOPY PUSH1 0x0 RETURN INVALID PUSH1 0x80 PUSH1 0x40 MSTORE PUSH1 0x4 CALLDATASIZE LT PUSH2 0x1B6 JUMPI PUSH1 0x0 CALLDATALOAD PUSH1 0xE0 SHR DUP1 PUSH4 0x715018A6 GT PUSH2 0xEC JUMPI DUP1 PUSH4 0xBD85B039 GT PUSH2 0x8A JUMPI DUP1 PUSH4 0xF242432A GT PUSH2 0x64 JUMPI DUP1 PUSH4 0xF242432A EQ PUSH2 0x4EA JUMPI DUP1 PUSH4 0xF2FDE38B EQ PUSH2 0x50A JUMPI DUP1 PUSH4 0xF5298ACA EQ PUSH2 0x52A JUMPI DUP1 PUSH4 0xF6EB127A EQ PUSH2 0x54A JUMPI PUSH1 0x0 DUP1 REVERT JUMPDEST DUP1 PUSH4 0xBD85B039 EQ PUSH2 0x47B JUMPI DUP1 PUSH4 0xCD7C0326 EQ PUSH2 0x4A9 JUMPI DUP1 PUSH4 0xE985E9C5 EQ PUSH2 0x4CA JUMPI PUSH1 0x0 DUP1 REVERT JUMPDEST DUP1 PUSH4 0x8DA5CB5B GT PUSH2 0xC6 JUMPI DUP1 PUSH4 0x8DA5CB5B EQ PUSH2 0x3F4 JUMPI DUP1 PUSH4 0x95D89B41 EQ PUSH2 0x426 JUMPI DUP1 PUSH4 0xA22CB465 EQ PUSH2 0x43B JUMPI DUP1 PUSH4 0xB48AB8B6 EQ PUSH2 0x45B JUMPI PUSH1 0x0 DUP1 REVERT JUMPDEST DUP1 PUSH4 0x715018A6 EQ PUSH2 0x3AA JUMPI DUP1 PUSH4 0x731133E9 EQ PUSH2 0x3BF JUMPI DUP1 PUSH4 0x8456CB59 EQ PUSH2 0x3DF JUMPI PUSH1 0x0 DUP1 REVERT JUMPDEST DUP1 PUSH4 0x2D0335AB GT PUSH2 0x159 JUMPI DUP1 PUSH4 0x3F4BA83A GT PUSH2 0x133 JUMPI DUP1 PUSH4 0x3F4BA83A EQ PUSH2 0x320 JUMPI DUP1 PUSH4 0x4E1273F4 EQ PUSH2 0x335 JUMPI DUP1 PUSH4 0x4F558E79 EQ PUSH2 0x362 JUMPI DUP1 PUSH4 0x5C975ABB EQ PUSH2 0x392 JUMPI PUSH1 0x0 DUP1 REVERT JUMPDEST DUP1 PUSH4 0x2D0335AB EQ PUSH2 0x2B5 JUMPI DUP1 PUSH4 0x2EB2C2D6 EQ PUSH2 0x2EB JUMPI DUP1 PUSH4 0x3408E470 EQ PUSH2 0x30D JUMPI PUSH1 0x0 DUP1 REVERT JUMPDEST DUP1 PUSH4 0xC53C51C GT PUSH2 0x195 JUMPI DUP1 PUSH4 0xC53C51C EQ PUSH2 0x240 JUMPI DUP1 PUSH4 0xE89341C EQ PUSH2 0x253 JUMPI DUP1 PUSH4 0xF7E5970 EQ PUSH2 0x273 JUMPI DUP1 PUSH4 0x20379EE5 EQ PUSH2 0x2A0 JUMPI PUSH1 0x0 DUP1 REVERT JUMPDEST DUP1 PUSH3 0xFDD58E EQ PUSH2 0x1BB JUMPI DUP1 PUSH4 0x1FFC9A7 EQ PUSH2 0x1EE JUMPI DUP1 PUSH4 0x6FDDE03 EQ PUSH2 0x21E JUMPI JUMPDEST PUSH1 0x0 DUP1 REVERT JUMPDEST CALLVALUE DUP1 ISZERO PUSH2 0x1C7 JUMPI PUSH1 0x0 DUP1 REVERT JUMPDEST POP PUSH2 0x1DB PUSH2 0x1D6 CALLDATASIZE PUSH1 0x4 PUSH2 0x1FE8 JUMP JUMPDEST PUSH2 0x56A JUMP JUMPDEST PUSH1 0x40 MLOAD SWAP1 DUP2 MSTORE PUSH1 0x20 ADD JUMPDEST PUSH1 0x40 MLOAD DUP1 SWAP2 SUB SWAP1 RETURN JUMPDEST CALLVALUE DUP1 ISZERO PUSH2 0x1FA JUMPI PUSH1 0x0 DUP1 REVERT JUMPDEST POP PUSH2 0x20E PUSH2 0x209 CALLDATASIZE PUSH1 0x4 PUSH2 0x2028 JUMP JUMPDEST PUSH2 0x606 JUMP JUMPDEST PUSH1 0x40 MLOAD SWAP1 ISZERO ISZERO DUP2 MSTORE PUSH1 0x20 ADD PUSH2 0x1E5 JUMP JUMPDEST CALLVALUE DUP1 ISZERO PUSH2 0x22A JUMPI PUSH1 0x0 DUP1 REVERT JUMPDEST POP PUSH2 0x233 PUSH2 0x656 JUMP JUMPDEST PUSH1 0x40 MLOAD PUSH2 0x1E5 SWAP2 SWAP1 PUSH2 0x2095 JUMP JUMPDEST PUSH2 0x233 PUSH2 0x24E CALLDATASIZE PUSH1 0x4 PUSH2 0x215F JUMP JUMPDEST PUSH2 0x6E4 JUMP JUMPDEST CALLVALUE DUP1 ISZERO PUSH2 0x25F JUMPI PUSH1 0x0 DUP1 REVERT JUMPDEST POP PUSH2 0x233 PUSH2 0x26E CALLDATASIZE PUSH1 0x4 PUSH2 0x21DB JUMP JUMPDEST PUSH2 0x8BC JUMP JUMPDEST CALLVALUE DUP1 ISZERO PUSH2 0x27F JUMPI PUSH1 0x0 DUP1 REVERT JUMPDEST POP PUSH2 0x233 PUSH1 0x40 MLOAD DUP1 PUSH1 0x40 ADD PUSH1 0x40 MSTORE DUP1 PUSH1 0x1 DUP2 MSTORE PUSH1 0x20 ADD PUSH1 0x31 PUSH1 0xF8 SHL DUP2 MSTORE POP DUP2 JUMP JUMPDEST CALLVALUE DUP1 ISZERO PUSH2 0x2AC JUMPI PUSH1 0x0 DUP1 REVERT JUMPDEST POP PUSH1 0x97 SLOAD PUSH2 0x1DB JUMP JUMPDEST CALLVALUE DUP1 ISZERO PUSH2 0x2C1 JUMPI PUSH1 0x0 DUP1 REVERT JUMPDEST POP PUSH2 0x1DB PUSH2 0x2D0 CALLDATASIZE PUSH1 0x4 PUSH2 0x21F4 JUMP JUMPDEST PUSH1 0x1 PUSH1 0x1 PUSH1 0xA0 SHL SUB AND PUSH1 0x0 SWAP1 DUP2 MSTORE PUSH1 0x98 PUSH1 0x20 MSTORE PUSH1 0x40 SWAP1 KECCAK256 SLOAD SWAP1 JUMP JUMPDEST CALLVALUE DUP1 ISZERO PUSH2 0x2F7 JUMPI PUSH1 0x0 DUP1 REVERT JUMPDEST POP PUSH2 0x30B PUSH2 0x306 CALLDATASIZE PUSH1 0x4 PUSH2 0x22A4 JUMP JUMPDEST PUSH2 0x950 JUMP JUMPDEST STOP JUMPDEST CALLVALUE DUP1 ISZERO PUSH2 0x319 JUMPI PUSH1 0x0 DUP1 REVERT JUMPDEST POP CHAINID PUSH2 0x1DB JUMP JUMPDEST CALLVALUE DUP1 ISZERO PUSH2 0x32C JUMPI PUSH1 0x0 DUP1 REVERT JUMPDEST POP PUSH2 0x30B PUSH2 0xB99 JUMP JUMPDEST CALLVALUE DUP1 ISZERO PUSH2 0x341 JUMPI PUSH1 0x0 DUP1 REVERT JUMPDEST POP PUSH2 0x355 PUSH2 0x350 CALLDATASIZE PUSH1 0x4 PUSH2 0x234E JUMP JUMPDEST PUSH2 0xBCF JUMP JUMPDEST PUSH1 0x40 MLOAD PUSH2 0x1E5 SWAP2 SWAP1 PUSH2 0x2454 JUMP JUMPDEST CALLVALUE DUP1 ISZERO PUSH2 0x36E JUMPI PUSH1 0x0 DUP1 REVERT JUMPDEST POP PUSH2 0x20E PUSH2 0x37D CALLDATASIZE PUSH1 0x4 PUSH2 0x21DB JUMP JUMPDEST PUSH1 0x0 SWAP1 DUP2 MSTORE PUSH2 0x100 PUSH1 0x20 MSTORE PUSH1 0x40 SWAP1 KECCAK256 SLOAD ISZERO ISZERO SWAP1 JUMP JUMPDEST CALLVALUE DUP1 ISZERO PUSH2 0x39E JUMPI PUSH1 0x0 DUP1 REVERT JUMPDEST POP PUSH1 0xCB SLOAD PUSH1 0xFF AND PUSH2 0x20E JUMP JUMPDEST CALLVALUE DUP1 ISZERO PUSH2 0x3B6 JUMPI PUSH1 0x0 DUP1 REVERT JUMPDEST POP PUSH2 0x30B PUSH2 0xCF9 JUMP JUMPDEST CALLVALUE DUP1 ISZERO PUSH2 0x3CB JUMPI PUSH1 0x0 DUP1 REVERT JUMPDEST POP PUSH2 0x30B PUSH2 0x3DA CALLDATASIZE PUSH1 0x4 PUSH2 0x2467 JUMP JUMPDEST PUSH2 0xD0B JUMP JUMPDEST CALLVALUE DUP1 ISZERO PUSH2 0x3EB JUMPI PUSH1 0x0 DUP1 REVERT JUMPDEST POP PUSH2 0x30B PUSH2 0xD44 JUMP JUMPDEST CALLVALUE DUP1 ISZERO PUSH2 0x400 JUMPI PUSH1 0x0 DUP1 REVERT JUMPDEST POP PUSH1 0x99 SLOAD PUSH1 0x1 PUSH1 0x1 PUSH1 0xA0 SHL SUB AND JUMPDEST PUSH1 0x40 MLOAD PUSH1 0x1 PUSH1 0x1 PUSH1 0xA0 SHL SUB SWAP1 SWAP2 AND DUP2 MSTORE PUSH1 0x20 ADD PUSH2 0x1E5 JUMP JUMPDEST CALLVALUE DUP1 ISZERO PUSH2 0x432 JUMPI PUSH1 0x0 DUP1 REVERT JUMPDEST POP PUSH2 0x233 PUSH2 0xD73 JUMP JUMPDEST CALLVALUE DUP1 ISZERO PUSH2 0x447 JUMPI PUSH1 0x0 DUP1 REVERT JUMPDEST POP PUSH2 0x30B PUSH2 0x456 CALLDATASIZE PUSH1 0x4 PUSH2 0x24C8 JUMP JUMPDEST PUSH2 0xD80 JUMP JUMPDEST CALLVALUE DUP1 ISZERO PUSH2 0x467 JUMPI PUSH1 0x0 DUP1 REVERT JUMPDEST POP PUSH2 0x30B PUSH2 0x476 CALLDATASIZE PUSH1 0x4 PUSH2 0x2504 JUMP JUMPDEST PUSH2 0xD96 JUMP JUMPDEST CALLVALUE DUP1 ISZERO PUSH2 0x487 JUMPI PUSH1 0x0 DUP1 REVERT JUMPDEST POP PUSH2 0x1DB PUSH2 0x496 CALLDATASIZE PUSH1 0x4 PUSH2 0x21DB JUMP JUMPDEST PUSH1 0x0 SWAP1 DUP2 MSTORE PUSH2 0x100 PUSH1 0x20 MSTORE PUSH1 0x40 SWAP1 KECCAK256 SLOAD SWAP1 JUMP JUMPDEST CALLVALUE DUP1 ISZERO PUSH2 0x4B5 JUMPI PUSH1 0x0 DUP1 REVERT JUMPDEST POP PUSH2 0x101 SLOAD PUSH2 0x40E SWAP1 PUSH1 0x1 PUSH1 0x1 PUSH1 0xA0 SHL SUB AND DUP2 JUMP JUMPDEST CALLVALUE DUP1 ISZERO PUSH2 0x4D6 JUMPI PUSH1 0x0 DUP1 REVERT JUMPDEST POP PUSH2 0x20E PUSH2 0x4E5 CALLDATASIZE PUSH1 0x4 PUSH2 0x2591 JUMP JUMPDEST PUSH2 0xDC9 JUMP JUMPDEST CALLVALUE DUP1 ISZERO PUSH2 0x4F6 JUMPI PUSH1 0x0 DUP1 REVERT JUMPDEST POP PUSH2 0x30B PUSH2 0x505 CALLDATASIZE PUSH1 0x4 PUSH2 0x25C4 JUMP JUMPDEST PUSH2 0xE1C JUMP JUMPDEST CALLVALUE DUP1 ISZERO PUSH2 0x516 JUMPI PUSH1 0x0 DUP1 REVERT JUMPDEST POP PUSH2 0x30B PUSH2 0x525 CALLDATASIZE PUSH1 0x4 PUSH2 0x21F4 JUMP JUMPDEST PUSH2 0xFB5 JUMP JUMPDEST CALLVALUE DUP1 ISZERO PUSH2 0x536 JUMPI PUSH1 0x0 DUP1 REVERT JUMPDEST POP PUSH2 0x30B PUSH2 0x545 CALLDATASIZE PUSH1 0x4 PUSH2 0x2629 JUMP JUMPDEST PUSH2 0x102E JUMP JUMPDEST CALLVALUE DUP1 ISZERO PUSH2 0x556 JUMPI PUSH1 0x0 DUP1 REVERT JUMPDEST POP PUSH2 0x30B PUSH2 0x565 CALLDATASIZE PUSH1 0x4 PUSH2 0x265C JUMP JUMPDEST PUSH2 0x1084 JUMP JUMPDEST PUSH1 0x0 PUSH1 0x1 PUSH1 0x1 PUSH1 0xA0 SHL SUB DUP4 AND PUSH2 0x5DB JUMPI PUSH1 0x40 MLOAD PUSH3 0x461BCD PUSH1 0xE5 SHL DUP2 MSTORE PUSH1 0x20 PUSH1 0x4 DUP3 ADD MSTORE PUSH1 0x2B PUSH1 0x24 DUP3 ADD MSTORE PUSH32 0x455243313135353A2062616C616E636520717565727920666F7220746865207A PUSH1 0x44 DUP3 ADD MSTORE PUSH11 0x65726F2061646472657373 PUSH1 0xA8 SHL PUSH1 0x64 DUP3 ADD MSTORE PUSH1 0x84 ADD JUMPDEST PUSH1 0x40 MLOAD DUP1 SWAP2 SUB SWAP1 REVERT JUMPDEST POP PUSH1 0x0 DUP2 DUP2 MSTORE PUSH1 0xFF PUSH1 0x20 SWAP1 DUP2 MSTORE PUSH1 0x40 DUP1 DUP4 KECCAK256 PUSH1 0x1 PUSH1 0x1 PUSH1 0xA0 SHL SUB DUP7 AND DUP5 MSTORE SWAP1 SWAP2 MSTORE SWAP1 KECCAK256 SLOAD JUMPDEST SWAP3 SWAP2 POP POP JUMP JUMPDEST PUSH1 0x0 PUSH1 0x1 PUSH1 0x1 PUSH1 0xE0 SHL SUB NOT DUP3 AND PUSH4 0x6CDB3D13 PUSH1 0xE1 SHL EQ DUP1 PUSH2 0x637 JUMPI POP PUSH1 0x1 PUSH1 0x1 PUSH1 0xE0 SHL SUB NOT DUP3 AND PUSH4 0x3A24D07 PUSH1 0xE2 SHL EQ JUMPDEST DUP1 PUSH2 0x600 JUMPI POP PUSH4 0x1FFC9A7 PUSH1 0xE0 SHL PUSH1 0x1 PUSH1 0x1 PUSH1 0xE0 SHL SUB NOT DUP4 AND EQ PUSH2 0x600 JUMP JUMPDEST PUSH1 0xFD DUP1 SLOAD PUSH2 0x663 SWAP1 PUSH2 0x26D0 JUMP JUMPDEST DUP1 PUSH1 0x1F ADD PUSH1 0x20 DUP1 SWAP2 DIV MUL PUSH1 0x20 ADD PUSH1 0x40 MLOAD SWAP1 DUP2 ADD PUSH1 0x40 MSTORE DUP1 SWAP3 SWAP2 SWAP1 DUP2 DUP2 MSTORE PUSH1 0x20 ADD DUP3 DUP1 SLOAD PUSH2 0x68F SWAP1 PUSH2 0x26D0 JUMP JUMPDEST DUP1 ISZERO PUSH2 0x6DC JUMPI DUP1 PUSH1 0x1F LT PUSH2 0x6B1 JUMPI PUSH2 0x100 DUP1 DUP4 SLOAD DIV MUL DUP4 MSTORE SWAP2 PUSH1 0x20 ADD SWAP2 PUSH2 0x6DC JUMP JUMPDEST DUP3 ADD SWAP2 SWAP1 PUSH1 0x0 MSTORE PUSH1 0x20 PUSH1 0x0 KECCAK256 SWAP1 JUMPDEST DUP2 SLOAD DUP2 MSTORE SWAP1 PUSH1 0x1 ADD SWAP1 PUSH1 0x20 ADD DUP1 DUP4 GT PUSH2 0x6BF JUMPI DUP3 SWAP1 SUB PUSH1 0x1F AND DUP3 ADD SWAP2 JUMPDEST POP POP POP POP POP DUP2 JUMP JUMPDEST PUSH1 0x40 DUP1 MLOAD PUSH1 0x60 DUP2 DUP2 ADD DUP4 MSTORE PUSH1 0x1 PUSH1 0x1 PUSH1 0xA0 SHL SUB DUP9 AND PUSH1 0x0 DUP2 DUP2 MSTORE PUSH1 0x98 PUSH1 0x20 SWAP1 DUP2 MSTORE SWAP1 DUP6 SWAP1 KECCAK256 SLOAD DUP5 MSTORE DUP4 ADD MSTORE SWAP2 DUP2 ADD DUP7 SWAP1 MSTORE PUSH2 0x722 DUP8 DUP3 DUP8 DUP8 DUP8 PUSH2 0x10DA JUMP JUMPDEST PUSH2 0x778 JUMPI PUSH1 0x40 MLOAD PUSH3 0x461BCD PUSH1 0xE5 SHL DUP2 MSTORE PUSH1 0x20 PUSH1 0x4 DUP3 ADD MSTORE PUSH1 0x21 PUSH1 0x24 DUP3 ADD MSTORE PUSH32 0x5369676E657220616E64207369676E617475726520646F206E6F74206D617463 PUSH1 0x44 DUP3 ADD MSTORE PUSH1 0xD PUSH1 0xFB SHL PUSH1 0x64 DUP3 ADD MSTORE PUSH1 0x84 ADD PUSH2 0x5D2 JUMP JUMPDEST PUSH1 0x1 PUSH1 0x1 PUSH1 0xA0 SHL SUB DUP8 AND PUSH1 0x0 SWAP1 DUP2 MSTORE PUSH1 0x98 PUSH1 0x20 MSTORE PUSH1 0x40 DUP2 KECCAK256 DUP1 SLOAD PUSH1 0x1 SWAP3 SWAP1 PUSH2 0x7A1 SWAP1 DUP5 SWAP1 PUSH2 0x2720 JUMP JUMPDEST SWAP1 SWAP2 SSTORE POP POP PUSH1 0x40 MLOAD PUSH32 0x5845892132946850460BFF5A0083F71031BC5BF9AADCD40F1DE79423EAC9B10B SWAP1 PUSH2 0x7DA SWAP1 DUP10 SWAP1 CALLER SWAP1 DUP11 SWAP1 PUSH2 0x2733 JUMP JUMPDEST PUSH1 0x40 MLOAD DUP1 SWAP2 SUB SWAP1 LOG1 PUSH1 0x0 DUP1 ADDRESS PUSH1 0x1 PUSH1 0x1 PUSH1 0xA0 SHL SUB AND DUP9 DUP11 PUSH1 0x40 MLOAD PUSH1 0x20 ADD PUSH2 0x802 SWAP3 SWAP2 SWAP1 PUSH2 0x2768 JUMP JUMPDEST PUSH1 0x40 DUP1 MLOAD PUSH1 0x1F NOT DUP2 DUP5 SUB ADD DUP2 MSTORE SWAP1 DUP3 SWAP1 MSTORE PUSH2 0x81C SWAP2 PUSH2 0x279F JUMP JUMPDEST PUSH1 0x0 PUSH1 0x40 MLOAD DUP1 DUP4 SUB DUP2 PUSH1 0x0 DUP7 GAS CALL SWAP2 POP POP RETURNDATASIZE DUP1 PUSH1 0x0 DUP2 EQ PUSH2 0x859 JUMPI PUSH1 0x40 MLOAD SWAP2 POP PUSH1 0x1F NOT PUSH1 0x3F RETURNDATASIZE ADD AND DUP3 ADD PUSH1 0x40 MSTORE RETURNDATASIZE DUP3 MSTORE RETURNDATASIZE PUSH1 0x0 PUSH1 0x20 DUP5 ADD RETURNDATACOPY PUSH2 0x85E JUMP JUMPDEST PUSH1 0x60 SWAP2 POP JUMPDEST POP SWAP2 POP SWAP2 POP DUP2 PUSH2 0x8B0 JUMPI PUSH1 0x40 MLOAD PUSH3 0x461BCD PUSH1 0xE5 SHL DUP2 MSTORE PUSH1 0x20 PUSH1 0x4 DUP3 ADD MSTORE PUSH1 0x1C PUSH1 0x24 DUP3 ADD MSTORE PUSH32 0x46756E6374696F6E2063616C6C206E6F74207375636365737366756C00000000 PUSH1 0x44 DUP3 ADD MSTORE PUSH1 0x64 ADD PUSH2 0x5D2 JUMP JUMPDEST SWAP9 SWAP8 POP POP POP POP POP POP POP POP JUMP JUMPDEST PUSH1 0x60 PUSH1 0x67 DUP1 SLOAD PUSH2 0x8CB SWAP1 PUSH2 0x26D0 JUMP JUMPDEST DUP1 PUSH1 0x1F ADD PUSH1 0x20 DUP1 SWAP2 DIV MUL PUSH1 0x20 ADD PUSH1 0x40 MLOAD SWAP1 DUP2 ADD PUSH1 0x40 MSTORE DUP1 SWAP3 SWAP2 SWAP1 DUP2 DUP2 MSTORE PUSH1 0x20 ADD DUP3 DUP1 SLOAD PUSH2 0x8F7 SWAP1 PUSH2 0x26D0 JUMP JUMPDEST DUP1 ISZERO PUSH2 0x944 JUMPI DUP1 PUSH1 0x1F LT PUSH2 0x919 JUMPI PUSH2 0x100 DUP1 DUP4 SLOAD DIV MUL DUP4 MSTORE SWAP2 PUSH1 0x20 ADD SWAP2 PUSH2 0x944 JUMP JUMPDEST DUP3 ADD SWAP2 SWAP1 PUSH1 0x0 MSTORE PUSH1 0x20 PUSH1 0x0 KECCAK256 SWAP1 JUMPDEST DUP2 SLOAD DUP2 MSTORE SWAP1 PUSH1 0x1 ADD SWAP1 PUSH1 0x20 ADD DUP1 DUP4 GT PUSH2 0x927 JUMPI DUP3 SWAP1 SUB PUSH1 0x1F AND DUP3 ADD SWAP2 JUMPDEST POP POP POP POP POP SWAP1 POP SWAP2 SWAP1 POP JUMP JUMPDEST PUSH2 0x958 PUSH2 0x11CA JUMP JUMPDEST DUP5 PUSH2 0x961 PUSH2 0x1210 JUMP JUMPDEST PUSH1 0x1 PUSH1 0x1 PUSH1 0xA0 SHL SUB AND DUP2 PUSH1 0x1 PUSH1 0x1 PUSH1 0xA0 SHL SUB AND EQ DUP1 PUSH2 0x987 JUMPI POP PUSH2 0x987 DUP2 PUSH2 0x4E5 PUSH2 0x1210 JUMP JUMPDEST PUSH2 0x9A3 JUMPI PUSH1 0x40 MLOAD PUSH3 0x461BCD PUSH1 0xE5 SHL DUP2 MSTORE PUSH1 0x4 ADD PUSH2 0x5D2 SWAP1 PUSH2 0x27BB JUMP JUMPDEST DUP3 MLOAD DUP5 MLOAD EQ PUSH2 0x9C4 JUMPI PUSH1 0x40 MLOAD PUSH3 0x461BCD PUSH1 0xE5 SHL DUP2 MSTORE PUSH1 0x4 ADD PUSH2 0x5D2 SWAP1 PUSH2 0x280B JUMP JUMPDEST PUSH1 0x1 PUSH1 0x1 PUSH1 0xA0 SHL SUB DUP6 AND PUSH2 0x9EA JUMPI PUSH1 0x40 MLOAD PUSH3 0x461BCD PUSH1 0xE5 SHL DUP2 MSTORE PUSH1 0x4 ADD PUSH2 0x5D2 SWAP1 PUSH2 0x284F JUMP JUMPDEST PUSH1 0x0 PUSH2 0x9F4 PUSH2 0x1210 JUMP JUMPDEST SWAP1 POP PUSH1 0x0 JUMPDEST DUP6 MLOAD DUP2 LT ISZERO PUSH2 0xB2A JUMPI PUSH1 0x0 DUP7 DUP3 DUP2 MLOAD DUP2 LT PUSH2 0xA16 JUMPI PUSH2 0xA16 PUSH2 0x2894 JUMP JUMPDEST PUSH1 0x20 MUL PUSH1 0x20 ADD ADD MLOAD SWAP1 POP PUSH1 0x0 DUP7 DUP4 DUP2 MLOAD DUP2 LT PUSH2 0xA34 JUMPI PUSH2 0xA34 PUSH2 0x2894 JUMP JUMPDEST PUSH1 0x20 SWAP1 DUP2 MUL SWAP2 SWAP1 SWAP2 ADD DUP2 ADD MLOAD PUSH1 0x0 DUP5 DUP2 MSTORE PUSH1 0xFF DUP4 MSTORE PUSH1 0x40 DUP1 DUP3 KECCAK256 PUSH1 0x1 PUSH1 0x1 PUSH1 0xA0 SHL SUB DUP16 AND DUP4 MSTORE SWAP1 SWAP4 MSTORE SWAP2 SWAP1 SWAP2 KECCAK256 SLOAD SWAP1 SWAP2 POP DUP2 DUP2 LT ISZERO PUSH2 0xA85 JUMPI PUSH1 0x40 MLOAD PUSH3 0x461BCD PUSH1 0xE5 SHL DUP2 MSTORE PUSH1 0x4 ADD PUSH2 0x5D2 SWAP1 PUSH2 0x28AA JUMP JUMPDEST PUSH2 0xA8F DUP3 DUP3 PUSH2 0x28F4 JUMP JUMPDEST PUSH1 0xFF PUSH1 0x0 DUP6 DUP2 MSTORE PUSH1 0x20 ADD SWAP1 DUP2 MSTORE PUSH1 0x20 ADD PUSH1 0x0 KECCAK256 PUSH1 0x0 DUP14 PUSH1 0x1 PUSH1 0x1 PUSH1 0xA0 SHL SUB AND PUSH1 0x1 PUSH1 0x1 PUSH1 0xA0 SHL SUB AND DUP2 MSTORE PUSH1 0x20 ADD SWAP1 DUP2 MSTORE PUSH1 0x20 ADD PUSH1 0x0 KECCAK256 DUP2 SWAP1 SSTORE POP DUP2 PUSH1 0xFF PUSH1 0x0 DUP6 DUP2 MSTORE PUSH1 0x20 ADD SWAP1 DUP2 MSTORE PUSH1 0x20 ADD PUSH1 0x0 KECCAK256 PUSH1 0x0 DUP13 PUSH1 0x1 PUSH1 0x1 PUSH1 0xA0 SHL SUB AND PUSH1 0x1 PUSH1 0x1 PUSH1 0xA0 SHL SUB AND DUP2 MSTORE PUSH1 0x20 ADD SWAP1 DUP2 MSTORE PUSH1 0x20 ADD PUSH1 0x0 KECCAK256 PUSH1 0x0 DUP3 DUP3 SLOAD PUSH2 0xB0F SWAP2 SWAP1 PUSH2 0x2720 JUMP JUMPDEST SWAP3 POP POP DUP2 SWAP1 SSTORE POP POP POP POP DUP1 PUSH2 0xB23 SWAP1 PUSH2 0x2907 JUMP JUMPDEST SWAP1 POP PUSH2 0x9F9 JUMP JUMPDEST POP DUP6 PUSH1 0x1 PUSH1 0x1 PUSH1 0xA0 SHL SUB AND DUP8 PUSH1 0x1 PUSH1 0x1 PUSH1 0xA0 SHL SUB AND DUP3 PUSH1 0x1 PUSH1 0x1 PUSH1 0xA0 SHL SUB AND PUSH32 0x4A39DC06D4C0DBC64B70AF90FD698A233A518AA5D07E595D983B8C0526C8F7FB DUP9 DUP9 PUSH1 0x40 MLOAD PUSH2 0xB7A SWAP3 SWAP2 SWAP1 PUSH2 0x2920 JUMP JUMPDEST PUSH1 0x40 MLOAD DUP1 SWAP2 SUB SWAP1 LOG4 PUSH2 0xB90 DUP2 DUP9 DUP9 DUP9 DUP9 DUP9 PUSH2 0x1227 JUMP JUMPDEST POP POP POP POP POP POP POP JUMP JUMPDEST PUSH2 0xBA9 PUSH2 0xBA4 PUSH2 0x1210 JUMP JUMPDEST PUSH2 0x1382 JUMP JUMPDEST PUSH2 0xBC5 JUMPI PUSH1 0x40 MLOAD PUSH3 0x461BCD PUSH1 0xE5 SHL DUP2 MSTORE PUSH1 0x4 ADD PUSH2 0x5D2 SWAP1 PUSH2 0x2945 JUMP JUMPDEST PUSH2 0xBCD PUSH2 0x13B0 JUMP JUMPDEST JUMP JUMPDEST PUSH1 0x60 DUP2 MLOAD DUP4 MLOAD EQ PUSH2 0xC34 JUMPI PUSH1 0x40 MLOAD PUSH3 0x461BCD PUSH1 0xE5 SHL DUP2 MSTORE PUSH1 0x20 PUSH1 0x4 DUP3 ADD MSTORE PUSH1 0x29 PUSH1 0x24 DUP3 ADD MSTORE PUSH32 0x455243313135353A206163636F756E747320616E6420696473206C656E677468 PUSH1 0x44 DUP3 ADD MSTORE PUSH9 0x40DAD2E6DAC2E8C6D PUSH1 0xBB SHL PUSH1 0x64 DUP3 ADD MSTORE PUSH1 0x84 ADD PUSH2 0x5D2 JUMP JUMPDEST PUSH1 0x0 DUP4 MLOAD PUSH8 0xFFFFFFFFFFFFFFFF DUP2 GT ISZERO PUSH2 0xC50 JUMPI PUSH2 0xC50 PUSH2 0x20A8 JUMP JUMPDEST PUSH1 0x40 MLOAD SWAP1 DUP1 DUP3 MSTORE DUP1 PUSH1 0x20 MUL PUSH1 0x20 ADD DUP3 ADD PUSH1 0x40 MSTORE DUP1 ISZERO PUSH2 0xC79 JUMPI DUP2 PUSH1 0x20 ADD PUSH1 0x20 DUP3 MUL DUP1 CALLDATASIZE DUP4 CALLDATACOPY ADD SWAP1 POP JUMPDEST POP SWAP1 POP PUSH1 0x0 JUMPDEST DUP5 MLOAD DUP2 LT ISZERO PUSH2 0xCF1 JUMPI PUSH2 0xCC4 DUP6 DUP3 DUP2 MLOAD DUP2 LT PUSH2 0xC9D JUMPI PUSH2 0xC9D PUSH2 0x2894 JUMP JUMPDEST PUSH1 0x20 MUL PUSH1 0x20 ADD ADD MLOAD DUP6 DUP4 DUP2 MLOAD DUP2 LT PUSH2 0xCB7 JUMPI PUSH2 0xCB7 PUSH2 0x2894 JUMP JUMPDEST PUSH1 0x20 MUL PUSH1 0x20 ADD ADD MLOAD PUSH2 0x56A JUMP JUMPDEST DUP3 DUP3 DUP2 MLOAD DUP2 LT PUSH2 0xCD6 JUMPI PUSH2 0xCD6 PUSH2 0x2894 JUMP JUMPDEST PUSH1 0x20 SWAP1 DUP2 MUL SWAP2 SWAP1 SWAP2 ADD ADD MSTORE PUSH2 0xCEA DUP2 PUSH2 0x2907 JUMP JUMPDEST SWAP1 POP PUSH2 0xC7F JUMP JUMPDEST POP SWAP4 SWAP3 POP POP POP JUMP JUMPDEST PUSH2 0xD01 PUSH2 0x1408 JUMP JUMPDEST PUSH2 0xBCD PUSH1 0x0 PUSH2 0x1481 JUMP JUMPDEST PUSH2 0xD16 PUSH2 0xBA4 PUSH2 0x1210 JUMP JUMPDEST PUSH2 0xD32 JUMPI PUSH1 0x40 MLOAD PUSH3 0x461BCD PUSH1 0xE5 SHL DUP2 MSTORE PUSH1 0x4 ADD PUSH2 0x5D2 SWAP1 PUSH2 0x2945 JUMP JUMPDEST PUSH2 0xD3E DUP5 DUP5 DUP5 DUP5 PUSH2 0x14D3 JUMP JUMPDEST POP POP POP POP JUMP JUMPDEST PUSH2 0xD4F PUSH2 0xBA4 PUSH2 0x1210 JUMP JUMPDEST PUSH2 0xD6B JUMPI PUSH1 0x40 MLOAD PUSH3 0x461BCD PUSH1 0xE5 SHL DUP2 MSTORE PUSH1 0x4 ADD PUSH2 0x5D2 SWAP1 PUSH2 0x2945 JUMP JUMPDEST PUSH2 0xBCD PUSH2 0x15B7 JUMP JUMPDEST PUSH1 0xFE DUP1 SLOAD PUSH2 0x663 SWAP1 PUSH2 0x26D0 JUMP JUMPDEST PUSH2 0xD92 PUSH2 0xD8B PUSH2 0x1210 JUMP JUMPDEST DUP4 DUP4 PUSH2 0x15F5 JUMP JUMPDEST POP POP JUMP JUMPDEST PUSH2 0xDA1 PUSH2 0xBA4 PUSH2 0x1210 JUMP JUMPDEST PUSH2 0xDBD JUMPI PUSH1 0x40 MLOAD PUSH3 0x461BCD PUSH1 0xE5 SHL DUP2 MSTORE PUSH1 0x4 ADD PUSH2 0x5D2 SWAP1 PUSH2 0x2945 JUMP JUMPDEST PUSH2 0xD3E DUP5 DUP5 DUP5 DUP5 PUSH2 0x16D5 JUMP JUMPDEST PUSH2 0x101 SLOAD PUSH1 0x0 SWAP1 PUSH1 0x1 PUSH1 0x1 PUSH1 0xA0 SHL SUB SWAP1 DUP2 AND SWAP1 DUP4 AND SUB PUSH2 0xDEB JUMPI POP PUSH1 0x1 PUSH2 0x600 JUMP JUMPDEST PUSH1 0x1 PUSH1 0x1 PUSH1 0xA0 SHL SUB DUP1 DUP5 AND PUSH1 0x0 SWAP1 DUP2 MSTORE PUSH1 0x66 PUSH1 0x20 SWAP1 DUP2 MSTORE PUSH1 0x40 DUP1 DUP4 KECCAK256 SWAP4 DUP7 AND DUP4 MSTORE SWAP3 SWAP1 MSTORE KECCAK256 SLOAD PUSH1 0xFF AND JUMPDEST SWAP4 SWAP3 POP POP POP JUMP JUMPDEST PUSH2 0xE24 PUSH2 0x11CA JUMP JUMPDEST DUP5 PUSH2 0xE2D PUSH2 0x1210 JUMP JUMPDEST PUSH1 0x1 PUSH1 0x1 PUSH1 0xA0 SHL SUB AND DUP2 PUSH1 0x1 PUSH1 0x1 PUSH1 0xA0 SHL SUB AND EQ DUP1 PUSH2 0xE53 JUMPI POP PUSH2 0xE53 DUP2 PUSH2 0x4E5 PUSH2 0x1210 JUMP JUMPDEST PUSH2 0xE6F JUMPI PUSH1 0x40 MLOAD PUSH3 0x461BCD PUSH1 0xE5 SHL DUP2 MSTORE PUSH1 0x4 ADD PUSH2 0x5D2 SWAP1 PUSH2 0x27BB JUMP JUMPDEST PUSH1 0x1 PUSH1 0x1 PUSH1 0xA0 SHL SUB DUP6 AND PUSH2 0xE95 JUMPI PUSH1 0x40 MLOAD PUSH3 0x461BCD PUSH1 0xE5 SHL DUP2 MSTORE PUSH1 0x4 ADD PUSH2 0x5D2 SWAP1 PUSH2 0x284F JUMP JUMPDEST PUSH1 0x0 PUSH2 0xE9F PUSH2 0x1210 JUMP JUMPDEST SWAP1 POP PUSH2 0xEC0 DUP2 DUP9 DUP9 PUSH2 0xEB0 DUP10 PUSH2 0x191A JUMP JUMPDEST PUSH2 0xEB9 DUP10 PUSH2 0x191A JUMP JUMPDEST POP POP POP POP POP JUMP JUMPDEST PUSH1 0x0 DUP6 DUP2 MSTORE PUSH1 0xFF PUSH1 0x20 SWAP1 DUP2 MSTORE PUSH1 0x40 DUP1 DUP4 KECCAK256 PUSH1 0x1 PUSH1 0x1 PUSH1 0xA0 SHL SUB DUP12 AND DUP5 MSTORE SWAP1 SWAP2 MSTORE SWAP1 KECCAK256 SLOAD DUP5 DUP2 LT ISZERO PUSH2 0xF03 JUMPI PUSH1 0x40 MLOAD PUSH3 0x461BCD PUSH1 0xE5 SHL DUP2 MSTORE PUSH1 0x4 ADD PUSH2 0x5D2 SWAP1 PUSH2 0x28AA JUMP JUMPDEST PUSH2 0xF0D DUP6 DUP3 PUSH2 0x28F4 JUMP JUMPDEST PUSH1 0x0 DUP8 DUP2 MSTORE PUSH1 0xFF PUSH1 0x20 SWAP1 DUP2 MSTORE PUSH1 0x40 DUP1 DUP4 KECCAK256 PUSH1 0x1 PUSH1 0x1 PUSH1 0xA0 SHL SUB DUP14 DUP2 AND DUP6 MSTORE SWAP3 MSTORE DUP1 DUP4 KECCAK256 SWAP4 SWAP1 SWAP4 SSTORE DUP10 AND DUP2 MSTORE SWAP1 DUP2 KECCAK256 DUP1 SLOAD DUP8 SWAP3 SWAP1 PUSH2 0xF4B SWAP1 DUP5 SWAP1 PUSH2 0x2720 JUMP JUMPDEST SWAP1 SWAP2 SSTORE POP POP PUSH1 0x40 DUP1 MLOAD DUP8 DUP2 MSTORE PUSH1 0x20 DUP2 ADD DUP8 SWAP1 MSTORE PUSH1 0x1 PUSH1 0x1 PUSH1 0xA0 SHL SUB DUP1 DUP11 AND SWAP3 DUP12 DUP3 AND SWAP3 SWAP2 DUP7 AND SWAP2 PUSH32 0xC3D58168C5AE7397731D063D5BBF3D657854427343F4C083240F7AACAA2D0F62 SWAP2 ADD PUSH1 0x40 MLOAD DUP1 SWAP2 SUB SWAP1 LOG4 PUSH2 0xFAB DUP3 DUP10 DUP10 DUP10 DUP10 DUP10 PUSH2 0x1965 JUMP JUMPDEST POP POP POP POP POP POP POP POP JUMP JUMPDEST PUSH2 0xFBD PUSH2 0x1408 JUMP JUMPDEST PUSH1 0x1 PUSH1 0x1 PUSH1 0xA0 SHL SUB DUP2 AND PUSH2 0x1022 JUMPI PUSH1 0x40 MLOAD PUSH3 0x461BCD PUSH1 0xE5 SHL DUP2 MSTORE PUSH1 0x20 PUSH1 0x4 DUP3 ADD MSTORE PUSH1 0x26 PUSH1 0x24 DUP3 ADD MSTORE PUSH32 0x4F776E61626C653A206E6577206F776E657220697320746865207A65726F2061 PUSH1 0x44 DUP3 ADD MSTORE PUSH6 0x646472657373 PUSH1 0xD0 SHL PUSH1 0x64 DUP3 ADD MSTORE PUSH1 0x84 ADD PUSH2 0x5D2 JUMP JUMPDEST PUSH2 0x102B DUP2 PUSH2 0x1481 JUMP JUMPDEST POP JUMP JUMPDEST DUP3 PUSH2 0x1037 PUSH2 0x1210 JUMP JUMPDEST PUSH1 0x1 PUSH1 0x1 PUSH1 0xA0 SHL SUB AND DUP2 PUSH1 0x1 PUSH1 0x1 PUSH1 0xA0 SHL SUB AND EQ DUP1 PUSH2 0x105D JUMPI POP PUSH2 0x105D DUP2 PUSH2 0x4E5 PUSH2 0x1210 JUMP JUMPDEST PUSH2 0x1079 JUMPI PUSH1 0x40 MLOAD PUSH3 0x461BCD PUSH1 0xE5 SHL DUP2 MSTORE PUSH1 0x4 ADD PUSH2 0x5D2 SWAP1 PUSH2 0x27BB JUMP JUMPDEST PUSH2 0xD3E DUP5 DUP5 DUP5 PUSH2 0x1A20 JUMP JUMPDEST DUP3 PUSH2 0x108D PUSH2 0x1210 JUMP JUMPDEST PUSH1 0x1 PUSH1 0x1 PUSH1 0xA0 SHL SUB AND DUP2 PUSH1 0x1 PUSH1 0x1 PUSH1 0xA0 SHL SUB AND EQ DUP1 PUSH2 0x10B3 JUMPI POP PUSH2 0x10B3 DUP2 PUSH2 0x4E5 PUSH2 0x1210 JUMP JUMPDEST PUSH2 0x10CF JUMPI PUSH1 0x40 MLOAD PUSH3 0x461BCD PUSH1 0xE5 SHL DUP2 MSTORE PUSH1 0x4 ADD PUSH2 0x5D2 SWAP1 PUSH2 0x27BB JUMP JUMPDEST PUSH2 0xD3E DUP5 DUP5 DUP5 PUSH2 0x1C47 JUMP JUMPDEST PUSH1 0x0 PUSH1 0x1 PUSH1 0x1 PUSH1 0xA0 SHL SUB DUP7 AND PUSH2 0x1140 JUMPI PUSH1 0x40 MLOAD PUSH3 0x461BCD PUSH1 0xE5 SHL DUP2 MSTORE PUSH1 0x20 PUSH1 0x4 DUP3 ADD MSTORE PUSH1 0x25 PUSH1 0x24 DUP3 ADD MSTORE PUSH32 0x4E61746976654D6574615472616E73616374696F6E3A20494E56414C49445F53 PUSH1 0x44 DUP3 ADD MSTORE PUSH5 0x24A3A722A9 PUSH1 0xD9 SHL PUSH1 0x64 DUP3 ADD MSTORE PUSH1 0x84 ADD PUSH2 0x5D2 JUMP JUMPDEST PUSH1 0x1 PUSH2 0x1153 PUSH2 0x114E DUP8 PUSH2 0x1E7A JUMP JUMPDEST PUSH2 0x1EF7 JUMP JUMPDEST PUSH1 0x40 DUP1 MLOAD PUSH1 0x0 DUP2 MSTORE PUSH1 0x20 DUP2 ADD DUP1 DUP4 MSTORE SWAP3 SWAP1 SWAP3 MSTORE PUSH1 0xFF DUP6 AND SWAP1 DUP3 ADD MSTORE PUSH1 0x60 DUP2 ADD DUP7 SWAP1 MSTORE PUSH1 0x80 DUP2 ADD DUP6 SWAP1 MSTORE PUSH1 0xA0 ADD PUSH1 0x20 PUSH1 0x40 MLOAD PUSH1 0x20 DUP2 SUB SWAP1 DUP1 DUP5 SUB SWAP1 DUP6 GAS STATICCALL ISZERO DUP1 ISZERO PUSH2 0x11A1 JUMPI RETURNDATASIZE PUSH1 0x0 DUP1 RETURNDATACOPY RETURNDATASIZE PUSH1 0x0 REVERT JUMPDEST POP POP POP PUSH1 0x20 PUSH1 0x40 MLOAD SUB MLOAD PUSH1 0x1 PUSH1 0x1 PUSH1 0xA0 SHL SUB AND DUP7 PUSH1 0x1 PUSH1 0x1 PUSH1 0xA0 SHL SUB AND EQ SWAP1 POP SWAP6 SWAP5 POP POP POP POP POP JUMP JUMPDEST PUSH1 0xCB SLOAD PUSH1 0xFF AND ISZERO PUSH2 0xBCD JUMPI PUSH1 0x40 MLOAD PUSH3 0x461BCD PUSH1 0xE5 SHL DUP2 MSTORE PUSH1 0x20 PUSH1 0x4 DUP3 ADD MSTORE PUSH1 0x10 PUSH1 0x24 DUP3 ADD MSTORE PUSH16 0x14185D5CD8589B194E881C185D5CD959 PUSH1 0x82 SHL PUSH1 0x44 DUP3 ADD MSTORE PUSH1 0x64 ADD PUSH2 0x5D2 JUMP JUMPDEST PUSH1 0x0 PUSH2 0x121A PUSH2 0x1F27 JUMP JUMPDEST SWAP1 POP SWAP1 JUMP JUMPDEST POP POP POP POP POP POP JUMP JUMPDEST PUSH1 0x1 PUSH1 0x1 PUSH1 0xA0 SHL SUB DUP5 AND EXTCODESIZE ISZERO PUSH2 0x121F JUMPI PUSH1 0x40 MLOAD PUSH4 0xBC197C81 PUSH1 0xE0 SHL DUP2 MSTORE PUSH1 0x1 PUSH1 0x1 PUSH1 0xA0 SHL SUB DUP6 AND SWAP1 PUSH4 0xBC197C81 SWAP1 PUSH2 0x126B SWAP1 DUP10 SWAP1 DUP10 SWAP1 DUP9 SWAP1 DUP9 SWAP1 DUP9 SWAP1 PUSH1 0x4 ADD PUSH2 0x2993 JUMP JUMPDEST PUSH1 0x20 PUSH1 0x40 MLOAD DUP1 DUP4 SUB DUP2 PUSH1 0x0 DUP8 GAS CALL SWAP3 POP POP POP DUP1 ISZERO PUSH2 0x12A6 JUMPI POP PUSH1 0x40 DUP1 MLOAD PUSH1 0x1F RETURNDATASIZE SWAP1 DUP2 ADD PUSH1 0x1F NOT AND DUP3 ADD SWAP1 SWAP3 MSTORE PUSH2 0x12A3 SWAP2 DUP2 ADD SWAP1 PUSH2 0x29E5 JUMP JUMPDEST PUSH1 0x1 JUMPDEST PUSH2 0x1352 JUMPI PUSH2 0x12B2 PUSH2 0x2A02 JUMP JUMPDEST DUP1 PUSH4 0x8C379A0 SUB PUSH2 0x12EB JUMPI POP PUSH2 0x12C6 PUSH2 0x2A1D JUMP JUMPDEST DUP1 PUSH2 0x12D1 JUMPI POP PUSH2 0x12ED JUMP JUMPDEST DUP1 PUSH1 0x40 MLOAD PUSH3 0x461BCD PUSH1 0xE5 SHL DUP2 MSTORE PUSH1 0x4 ADD PUSH2 0x5D2 SWAP2 SWAP1 PUSH2 0x2095 JUMP JUMPDEST POP JUMPDEST PUSH1 0x40 MLOAD PUSH3 0x461BCD PUSH1 0xE5 SHL DUP2 MSTORE PUSH1 0x20 PUSH1 0x4 DUP3 ADD MSTORE PUSH1 0x34 PUSH1 0x24 DUP3 ADD MSTORE PUSH32 0x455243313135353A207472616E7366657220746F206E6F6E2045524331313535 PUSH1 0x44 DUP3 ADD MSTORE PUSH20 0x2932B1B2B4BB32B91034B6B83632B6B2B73A32B9 PUSH1 0x61 SHL PUSH1 0x64 DUP3 ADD MSTORE PUSH1 0x84 ADD PUSH2 0x5D2 JUMP JUMPDEST PUSH1 0x1 PUSH1 0x1 PUSH1 0xE0 SHL SUB NOT DUP2 AND PUSH4 0xBC197C81 PUSH1 0xE0 SHL EQ PUSH2 0xB90 JUMPI PUSH1 0x40 MLOAD PUSH3 0x461BCD PUSH1 0xE5 SHL DUP2 MSTORE PUSH1 0x4 ADD PUSH2 0x5D2 SWAP1 PUSH2 0x2AA7 JUMP JUMPDEST PUSH1 0x0 DUP2 PUSH1 0x1 PUSH1 0x1 PUSH1 0xA0 SHL SUB AND PUSH2 0x13A0 PUSH1 0x99 SLOAD PUSH1 0x1 PUSH1 0x1 PUSH1 0xA0 SHL SUB AND SWAP1 JUMP JUMPDEST PUSH1 0x1 PUSH1 0x1 PUSH1 0xA0 SHL SUB AND EQ SWAP3 SWAP2 POP POP JUMP JUMPDEST PUSH2 0x13B8 PUSH2 0x1F83 JUMP JUMPDEST PUSH1 0xCB DUP1 SLOAD PUSH1 0xFF NOT AND SWAP1 SSTORE PUSH32 0x5DB9EE0A495BF2E6FF9C91A7834C1BA4FDD244A5E8AA4E537BD38AEAE4B073AA PUSH2 0x13EB PUSH2 0x1210 JUMP JUMPDEST PUSH1 0x40 MLOAD PUSH1 0x1 PUSH1 0x1 PUSH1 0xA0 SHL SUB SWAP1 SWAP2 AND DUP2 MSTORE PUSH1 0x20 ADD PUSH1 0x40 MLOAD DUP1 SWAP2 SUB SWAP1 LOG1 JUMP JUMPDEST PUSH2 0x1410 PUSH2 0x1210 JUMP JUMPDEST PUSH1 0x1 PUSH1 0x1 PUSH1 0xA0 SHL SUB AND PUSH2 0x142B PUSH1 0x99 SLOAD PUSH1 0x1 PUSH1 0x1 PUSH1 0xA0 SHL SUB AND SWAP1 JUMP JUMPDEST PUSH1 0x1 PUSH1 0x1 PUSH1 0xA0 SHL SUB AND EQ PUSH2 0xBCD JUMPI PUSH1 0x40 MLOAD PUSH3 0x461BCD PUSH1 0xE5 SHL DUP2 MSTORE PUSH1 0x20 PUSH1 0x4 DUP3 ADD DUP2 SWAP1 MSTORE PUSH1 0x24 DUP3 ADD MSTORE PUSH32 0x4F776E61626C653A2063616C6C6572206973206E6F7420746865206F776E6572 PUSH1 0x44 DUP3 ADD MSTORE PUSH1 0x64 ADD PUSH2 0x5D2 JUMP JUMPDEST PUSH1 0x99 DUP1 SLOAD PUSH1 0x1 PUSH1 0x1 PUSH1 0xA0 SHL SUB DUP4 DUP2 AND PUSH1 0x1 PUSH1 0x1 PUSH1 0xA0 SHL SUB NOT DUP4 AND DUP2 OR SWAP1 SWAP4 SSTORE PUSH1 0x40 MLOAD SWAP2 AND SWAP2 SWAP1 DUP3 SWAP1 PUSH32 0x8BE0079C531659141344CD1FD0A4F28419497F9722A3DAAFE3B4186F6B6457E0 SWAP1 PUSH1 0x0 SWAP1 LOG3 POP POP JUMP JUMPDEST PUSH2 0x14DB PUSH2 0x11CA JUMP JUMPDEST PUSH1 0x0 PUSH2 0x14E5 PUSH2 0x1210 JUMP JUMPDEST SWAP1 POP PUSH2 0x1500 DUP2 PUSH1 0x0 DUP8 PUSH2 0x14F7 DUP9 PUSH2 0x191A JUMP JUMPDEST PUSH2 0xEB9 DUP9 PUSH2 0x191A JUMP JUMPDEST PUSH1 0x0 DUP5 DUP2 MSTORE PUSH1 0xFF PUSH1 0x20 SWAP1 DUP2 MSTORE PUSH1 0x40 DUP1 DUP4 KECCAK256 PUSH1 0x1 PUSH1 0x1 PUSH1 0xA0 SHL SUB DUP10 AND DUP5 MSTORE SWAP1 SWAP2 MSTORE DUP2 KECCAK256 DUP1 SLOAD DUP6 SWAP3 SWAP1 PUSH2 0x1532 SWAP1 DUP5 SWAP1 PUSH2 0x2720 JUMP JUMPDEST SWAP1 SWAP2 SSTORE POP POP PUSH1 0x0 DUP5 DUP2 MSTORE PUSH2 0x100 PUSH1 0x20 MSTORE PUSH1 0x40 DUP2 KECCAK256 DUP1 SLOAD DUP6 SWAP3 SWAP1 PUSH2 0x1556 SWAP1 DUP5 SWAP1 PUSH2 0x2720 JUMP JUMPDEST SWAP1 SWAP2 SSTORE POP POP PUSH1 0x40 DUP1 MLOAD DUP6 DUP2 MSTORE PUSH1 0x20 DUP2 ADD DUP6 SWAP1 MSTORE PUSH1 0x0 SWAP2 PUSH1 0x1 PUSH1 0x1 PUSH1 0xA0 SHL SUB DUP1 DUP10 AND SWAP3 DUP5 SWAP3 SWAP2 DUP7 AND SWAP2 PUSH32 0xC3D58168C5AE7397731D063D5BBF3D657854427343F4C083240F7AACAA2D0F62 SWAP2 ADD PUSH1 0x40 MLOAD DUP1 SWAP2 SUB SWAP1 LOG4 PUSH2 0x121F DUP3 DUP3 DUP9 DUP9 DUP9 DUP9 PUSH2 0x1965 JUMP JUMPDEST PUSH2 0x15BF PUSH2 0x11CA JUMP JUMPDEST PUSH1 0xCB DUP1 SLOAD PUSH1 0xFF NOT AND PUSH1 0x1 OR SWAP1 SSTORE PUSH32 0x62E78CEA01BEE320CD4E420270B5EA74000D11B0C9F74754EBDBFC544B05A258 PUSH2 0x13EB PUSH2 0x1210 JUMP JUMPDEST DUP2 PUSH1 0x1 PUSH1 0x1 PUSH1 0xA0 SHL SUB AND DUP4 PUSH1 0x1 PUSH1 0x1 PUSH1 0xA0 SHL SUB AND SUB PUSH2 0x1668 JUMPI PUSH1 0x40 MLOAD PUSH3 0x461BCD PUSH1 0xE5 SHL DUP2 MSTORE PUSH1 0x20 PUSH1 0x4 DUP3 ADD MSTORE PUSH1 0x29 PUSH1 0x24 DUP3 ADD MSTORE PUSH32 0x455243313135353A2073657474696E6720617070726F76616C20737461747573 PUSH1 0x44 DUP3 ADD MSTORE PUSH9 0x103337B91039B2B633 PUSH1 0xB9 SHL PUSH1 0x64 DUP3 ADD MSTORE PUSH1 0x84 ADD PUSH2 0x5D2 JUMP JUMPDEST PUSH1 0x1 PUSH1 0x1 PUSH1 0xA0 SHL SUB DUP4 DUP2 AND PUSH1 0x0 DUP2 DUP2 MSTORE PUSH1 0x66 PUSH1 0x20 SWAP1 DUP2 MSTORE PUSH1 0x40 DUP1 DUP4 KECCAK256 SWAP5 DUP8 AND DUP1 DUP5 MSTORE SWAP5 DUP3 MSTORE SWAP2 DUP3 SWAP1 KECCAK256 DUP1 SLOAD PUSH1 0xFF NOT AND DUP7 ISZERO ISZERO SWAP1 DUP2 OR SWAP1 SWAP2 SSTORE SWAP2 MLOAD SWAP2 DUP3 MSTORE PUSH32 0x17307EAB39AB6107E8899845AD3D59BD9653F200F220920489CA2B5937696C31 SWAP2 ADD PUSH1 0x40 MLOAD DUP1 SWAP2 SUB SWAP1 LOG3 POP POP POP JUMP JUMPDEST PUSH2 0x16DD PUSH2 0x11CA JUMP JUMPDEST DUP2 MLOAD DUP4 MLOAD EQ PUSH2 0x1747 JUMPI PUSH1 0x40 MLOAD PUSH3 0x461BCD PUSH1 0xE5 SHL DUP2 MSTORE PUSH1 0x20 PUSH1 0x4 DUP3 ADD MSTORE PUSH1 0x30 PUSH1 0x24 DUP3 ADD MSTORE PUSH32 0x455243313135355472616461626C652362617463684D696E743A20494E56414C PUSH1 0x44 DUP3 ADD MSTORE PUSH16 0x9288BE82A4A482B2A6BE988A9C8EA89 PUSH1 0x83 SHL PUSH1 0x64 DUP3 ADD MSTORE PUSH1 0x84 ADD PUSH2 0x5D2 JUMP JUMPDEST DUP3 MLOAD PUSH1 0x0 PUSH2 0x1765 DUP6 DUP3 DUP5 PUSH2 0x175D JUMPI PUSH2 0x175D PUSH2 0x2894 JUMP JUMPDEST POP PUSH1 0x0 SWAP2 SWAP1 POP JUMP JUMPDEST SWAP1 POP PUSH1 0x0 PUSH2 0x1771 PUSH2 0x1210 JUMP JUMPDEST SWAP1 POP PUSH1 0x0 JUMPDEST DUP4 DUP2 LT ISZERO PUSH2 0x18B4 JUMPI PUSH1 0x0 DUP8 DUP3 DUP2 MLOAD DUP2 LT PUSH2 0x1792 JUMPI PUSH2 0x1792 PUSH2 0x2894 JUMP JUMPDEST PUSH1 0x20 MUL PUSH1 0x20 ADD ADD MLOAD SWAP1 POP PUSH1 0x0 DUP8 DUP4 DUP2 MLOAD DUP2 LT PUSH2 0x17B0 JUMPI PUSH2 0x17B0 PUSH2 0x2894 JUMP JUMPDEST PUSH1 0x20 MUL PUSH1 0x20 ADD ADD MLOAD SWAP1 POP PUSH1 0x1 PUSH1 0x1 PUSH1 0xA0 SHL SUB DUP6 AND PUSH1 0x0 PUSH1 0x1 PUSH1 0x1 PUSH1 0xA0 SHL SUB AND EQ PUSH2 0x1842 JUMPI PUSH1 0x40 MLOAD PUSH3 0x461BCD PUSH1 0xE5 SHL DUP2 MSTORE PUSH1 0x20 PUSH1 0x4 DUP3 ADD MSTORE PUSH1 0x37 PUSH1 0x24 DUP3 ADD MSTORE PUSH32 0x455243313135355472616461626C652362617463684D696E743A204D554C5449 PUSH1 0x44 DUP3 ADD MSTORE PUSH32 0x504C455F4F524947494E535F4E4F545F414C4C4F574544000000000000000000 PUSH1 0x64 DUP3 ADD MSTORE PUSH1 0x84 ADD PUSH2 0x5D2 JUMP JUMPDEST PUSH1 0x0 DUP3 DUP2 MSTORE PUSH1 0xFF PUSH1 0x20 SWAP1 DUP2 MSTORE PUSH1 0x40 DUP1 DUP4 KECCAK256 PUSH1 0x1 PUSH1 0x1 PUSH1 0xA0 SHL SUB DUP15 AND DUP5 MSTORE SWAP1 SWAP2 MSTORE DUP2 KECCAK256 DUP1 SLOAD DUP4 SWAP3 SWAP1 PUSH2 0x1874 SWAP1 DUP5 SWAP1 PUSH2 0x2720 JUMP JUMPDEST SWAP1 SWAP2 SSTORE POP POP PUSH1 0x0 DUP3 DUP2 MSTORE PUSH2 0x100 PUSH1 0x20 MSTORE PUSH1 0x40 DUP2 KECCAK256 DUP1 SLOAD DUP4 SWAP3 SWAP1 PUSH2 0x1898 SWAP1 DUP5 SWAP1 PUSH2 0x2720 JUMP JUMPDEST SWAP3 POP POP DUP2 SWAP1 SSTORE POP POP POP DUP1 DUP1 PUSH2 0x18AC SWAP1 PUSH2 0x2907 JUMP JUMPDEST SWAP2 POP POP PUSH2 0x1776 JUMP JUMPDEST POP DUP7 PUSH1 0x1 PUSH1 0x1 PUSH1 0xA0 SHL SUB AND DUP3 PUSH1 0x1 PUSH1 0x1 PUSH1 0xA0 SHL SUB AND DUP3 PUSH1 0x1 PUSH1 0x1 PUSH1 0xA0 SHL SUB AND PUSH32 0x4A39DC06D4C0DBC64B70AF90FD698A233A518AA5D07E595D983B8C0526C8F7FB DUP10 DUP10 PUSH1 0x40 MLOAD PUSH2 0x1904 SWAP3 SWAP2 SWAP1 PUSH2 0x2920 JUMP JUMPDEST PUSH1 0x40 MLOAD DUP1 SWAP2 SUB SWAP1 LOG4 PUSH2 0xB90 DUP2 DUP4 DUP10 DUP10 DUP10 DUP10 PUSH2 0x1227 JUMP JUMPDEST PUSH1 0x40 DUP1 MLOAD PUSH1 0x1 DUP1 DUP3 MSTORE DUP2 DUP4 ADD SWAP1 SWAP3 MSTORE PUSH1 0x60 SWAP2 PUSH1 0x0 SWAP2 SWAP1 PUSH1 0x20 DUP1 DUP4 ADD SWAP1 DUP1 CALLDATASIZE DUP4 CALLDATACOPY ADD SWAP1 POP POP SWAP1 POP DUP3 DUP2 PUSH1 0x0 DUP2 MLOAD DUP2 LT PUSH2 0x1954 JUMPI PUSH2 0x1954 PUSH2 0x2894 JUMP JUMPDEST PUSH1 0x20 SWAP1 DUP2 MUL SWAP2 SWAP1 SWAP2 ADD ADD MSTORE SWAP3 SWAP2 POP POP JUMP JUMPDEST PUSH1 0x1 PUSH1 0x1 PUSH1 0xA0 SHL SUB DUP5 AND EXTCODESIZE ISZERO PUSH2 0x121F JUMPI PUSH1 0x40 MLOAD PUSH4 0xF23A6E61 PUSH1 0xE0 SHL DUP2 MSTORE PUSH1 0x1 PUSH1 0x1 PUSH1 0xA0 SHL SUB DUP6 AND SWAP1 PUSH4 0xF23A6E61 SWAP1 PUSH2 0x19A9 SWAP1 DUP10 SWAP1 DUP10 SWAP1 DUP9 SWAP1 DUP9 SWAP1 DUP9 SWAP1 PUSH1 0x4 ADD PUSH2 0x2AEF JUMP JUMPDEST PUSH1 0x20 PUSH1 0x40 MLOAD DUP1 DUP4 SUB DUP2 PUSH1 0x0 DUP8 GAS CALL SWAP3 POP POP POP DUP1 ISZERO PUSH2 0x19E4 JUMPI POP PUSH1 0x40 DUP1 MLOAD PUSH1 0x1F RETURNDATASIZE SWAP1 DUP2 ADD PUSH1 0x1F NOT AND DUP3 ADD SWAP1 SWAP3 MSTORE PUSH2 0x19E1 SWAP2 DUP2 ADD SWAP1 PUSH2 0x29E5 JUMP JUMPDEST PUSH1 0x1 JUMPDEST PUSH2 0x19F0 JUMPI PUSH2 0x12B2 PUSH2 0x2A02 JUMP JUMPDEST PUSH1 0x1 PUSH1 0x1 PUSH1 0xE0 SHL SUB NOT DUP2 AND PUSH4 0xF23A6E61 PUSH1 0xE0 SHL EQ PUSH2 0xB90 JUMPI PUSH1 0x40 MLOAD PUSH3 0x461BCD PUSH1 0xE5 SHL DUP2 MSTORE PUSH1 0x4 ADD PUSH2 0x5D2 SWAP1 PUSH2 0x2AA7 JUMP JUMPDEST PUSH2 0x1A28 PUSH2 0x11CA JUMP JUMPDEST PUSH1 0x1 PUSH1 0x1 PUSH1 0xA0 SHL SUB DUP4 AND PUSH2 0x1A8C JUMPI PUSH1 0x40 MLOAD PUSH3 0x461BCD PUSH1 0xE5 SHL DUP2 MSTORE PUSH1 0x20 PUSH1 0x4 DUP3 ADD MSTORE PUSH1 0x25 PUSH1 0x24 DUP3 ADD MSTORE PUSH32 0x45524331313535235F6275726E3A204255524E5F46524F4D5F5A45524F5F4144 PUSH1 0x44 DUP3 ADD MSTORE PUSH5 0x4452455353 PUSH1 0xD8 SHL PUSH1 0x64 DUP3 ADD MSTORE PUSH1 0x84 ADD PUSH2 0x5D2 JUMP JUMPDEST PUSH1 0x0 DUP2 GT PUSH2 0x1AE8 JUMPI PUSH1 0x40 MLOAD PUSH3 0x461BCD PUSH1 0xE5 SHL DUP2 MSTORE PUSH1 0x20 PUSH1 0x4 DUP3 ADD MSTORE PUSH1 0x23 PUSH1 0x24 DUP3 ADD MSTORE PUSH32 0x45524331313535235F6275726E3A20414D4F554E545F4C4553535F5448414E5F PUSH1 0x44 DUP3 ADD MSTORE PUSH3 0x4F4E45 PUSH1 0xE8 SHL PUSH1 0x64 DUP3 ADD MSTORE PUSH1 0x84 ADD PUSH2 0x5D2 JUMP JUMPDEST PUSH1 0x0 PUSH2 0x1AF2 PUSH2 0x1210 JUMP JUMPDEST SWAP1 POP PUSH2 0x1B23 DUP2 DUP6 PUSH1 0x0 PUSH2 0x1B04 DUP8 PUSH2 0x191A JUMP JUMPDEST PUSH2 0x1B0D DUP8 PUSH2 0x191A JUMP JUMPDEST POP POP PUSH1 0x40 DUP1 MLOAD PUSH1 0x20 DUP2 ADD SWAP1 SWAP2 MSTORE PUSH1 0x0 SWAP1 MSTORE POP POP POP JUMP JUMPDEST PUSH1 0x0 DUP4 DUP2 MSTORE PUSH1 0xFF PUSH1 0x20 SWAP1 DUP2 MSTORE PUSH1 0x40 DUP1 DUP4 KECCAK256 PUSH1 0x1 PUSH1 0x1 PUSH1 0xA0 SHL SUB DUP9 AND DUP5 MSTORE SWAP1 SWAP2 MSTORE SWAP1 KECCAK256 SLOAD DUP3 DUP2 LT ISZERO PUSH2 0x1BA4 JUMPI PUSH1 0x40 MLOAD PUSH3 0x461BCD PUSH1 0xE5 SHL DUP2 MSTORE PUSH1 0x20 PUSH1 0x4 DUP3 ADD MSTORE PUSH1 0x25 PUSH1 0x24 DUP3 ADD MSTORE PUSH32 0x45524331313535235F6275726E3A20414D4F554E545F455843454544535F4241 PUSH1 0x44 DUP3 ADD MSTORE PUSH5 0x4C414E4345 PUSH1 0xD8 SHL PUSH1 0x64 DUP3 ADD MSTORE PUSH1 0x84 ADD PUSH2 0x5D2 JUMP JUMPDEST PUSH2 0x1BAE DUP4 DUP3 PUSH2 0x28F4 JUMP JUMPDEST PUSH1 0x0 DUP6 DUP2 MSTORE PUSH1 0xFF PUSH1 0x20 SWAP1 DUP2 MSTORE PUSH1 0x40 DUP1 DUP4 KECCAK256 PUSH1 0x1 PUSH1 0x1 PUSH1 0xA0 SHL SUB DUP11 AND DUP5 MSTORE DUP3 MSTORE DUP1 DUP4 KECCAK256 SWAP4 SWAP1 SWAP4 SSTORE DUP7 DUP3 MSTORE PUSH2 0x100 SWAP1 MSTORE SWAP1 DUP2 KECCAK256 DUP1 SLOAD DUP6 SWAP3 SWAP1 PUSH2 0x1BEF SWAP1 DUP5 SWAP1 PUSH2 0x28F4 JUMP JUMPDEST SWAP1 SWAP2 SSTORE POP POP PUSH1 0x40 DUP1 MLOAD DUP6 DUP2 MSTORE PUSH1 0x20 DUP2 ADD DUP6 SWAP1 MSTORE PUSH1 0x0 SWAP2 PUSH1 0x1 PUSH1 0x1 PUSH1 0xA0 SHL SUB DUP9 DUP2 AND SWAP3 SWAP1 DUP7 AND SWAP2 PUSH32 0xC3D58168C5AE7397731D063D5BBF3D657854427343F4C083240F7AACAA2D0F62 SWAP2 ADD PUSH1 0x40 MLOAD DUP1 SWAP2 SUB SWAP1 LOG4 POP POP POP POP POP JUMP JUMPDEST PUSH2 0x1C4F PUSH2 0x11CA JUMP JUMPDEST PUSH1 0x1 PUSH1 0x1 PUSH1 0xA0 SHL SUB DUP4 AND PUSH2 0x1CA5 JUMPI PUSH1 0x40 MLOAD PUSH3 0x461BCD PUSH1 0xE5 SHL DUP2 MSTORE PUSH1 0x20 PUSH1 0x4 DUP3 ADD MSTORE PUSH1 0x1F PUSH1 0x24 DUP3 ADD MSTORE PUSH32 0x455243313135353A204255524E5F46524F4D5F5A45524F5F4144445245535300 PUSH1 0x44 DUP3 ADD MSTORE PUSH1 0x64 ADD PUSH2 0x5D2 JUMP JUMPDEST DUP1 MLOAD DUP3 MLOAD EQ PUSH2 0x1CC6 JUMPI PUSH1 0x40 MLOAD PUSH3 0x461BCD PUSH1 0xE5 SHL DUP2 MSTORE PUSH1 0x4 ADD PUSH2 0x5D2 SWAP1 PUSH2 0x280B JUMP JUMPDEST PUSH1 0x0 PUSH2 0x1CD0 PUSH2 0x1210 JUMP JUMPDEST PUSH1 0x40 DUP1 MLOAD PUSH1 0x20 DUP2 ADD SWAP1 SWAP2 MSTORE PUSH1 0x0 SWAP1 MSTORE SWAP1 POP PUSH1 0x0 JUMPDEST DUP4 MLOAD DUP2 LT ISZERO PUSH2 0x1E1B JUMPI PUSH1 0x0 DUP5 DUP3 DUP2 MLOAD DUP2 LT PUSH2 0x1D01 JUMPI PUSH2 0x1D01 PUSH2 0x2894 JUMP JUMPDEST PUSH1 0x20 MUL PUSH1 0x20 ADD ADD MLOAD SWAP1 POP PUSH1 0x0 DUP5 DUP4 DUP2 MLOAD DUP2 LT PUSH2 0x1D1F JUMPI PUSH2 0x1D1F PUSH2 0x2894 JUMP JUMPDEST PUSH1 0x20 SWAP1 DUP2 MUL SWAP2 SWAP1 SWAP2 ADD DUP2 ADD MLOAD PUSH1 0x0 DUP5 DUP2 MSTORE PUSH1 0xFF DUP4 MSTORE PUSH1 0x40 DUP1 DUP3 KECCAK256 PUSH1 0x1 PUSH1 0x1 PUSH1 0xA0 SHL SUB DUP13 AND DUP4 MSTORE SWAP1 SWAP4 MSTORE SWAP2 SWAP1 SWAP2 KECCAK256 SLOAD SWAP1 SWAP2 POP DUP2 DUP2 LT ISZERO PUSH2 0x1DB3 JUMPI PUSH1 0x40 MLOAD PUSH3 0x461BCD PUSH1 0xE5 SHL DUP2 MSTORE PUSH1 0x20 PUSH1 0x4 DUP3 ADD MSTORE PUSH1 0x2A PUSH1 0x24 DUP3 ADD MSTORE PUSH32 0x45524331313535235F6275726E42617463683A20414D4F554E545F4558434545 PUSH1 0x44 DUP3 ADD MSTORE PUSH10 0x44535F42414C414E4345 PUSH1 0xB0 SHL PUSH1 0x64 DUP3 ADD MSTORE PUSH1 0x84 ADD PUSH2 0x5D2 JUMP JUMPDEST PUSH2 0x1DBD DUP3 DUP3 PUSH2 0x28F4 JUMP JUMPDEST PUSH1 0x0 DUP5 DUP2 MSTORE PUSH1 0xFF PUSH1 0x20 SWAP1 DUP2 MSTORE PUSH1 0x40 DUP1 DUP4 KECCAK256 PUSH1 0x1 PUSH1 0x1 PUSH1 0xA0 SHL SUB DUP14 AND DUP5 MSTORE DUP3 MSTORE DUP1 DUP4 KECCAK256 SWAP4 SWAP1 SWAP4 SSTORE DUP6 DUP3 MSTORE PUSH2 0x100 SWAP1 MSTORE SWAP1 DUP2 KECCAK256 DUP1 SLOAD DUP5 SWAP3 SWAP1 PUSH2 0x1DFE SWAP1 DUP5 SWAP1 PUSH2 0x28F4 JUMP JUMPDEST SWAP3 POP POP DUP2 SWAP1 SSTORE POP POP POP POP DUP1 DUP1 PUSH2 0x1E13 SWAP1 PUSH2 0x2907 JUMP JUMPDEST SWAP2 POP POP PUSH2 0x1CE4 JUMP JUMPDEST POP PUSH1 0x0 PUSH1 0x1 PUSH1 0x1 PUSH1 0xA0 SHL SUB AND DUP5 PUSH1 0x1 PUSH1 0x1 PUSH1 0xA0 SHL SUB AND DUP3 PUSH1 0x1 PUSH1 0x1 PUSH1 0xA0 SHL SUB AND PUSH32 0x4A39DC06D4C0DBC64B70AF90FD698A233A518AA5D07E595D983B8C0526C8F7FB DUP7 DUP7 PUSH1 0x40 MLOAD PUSH2 0x1E6C SWAP3 SWAP2 SWAP1 PUSH2 0x2920 JUMP JUMPDEST PUSH1 0x40 MLOAD DUP1 SWAP2 SUB SWAP1 LOG4 POP POP POP POP JUMP JUMPDEST PUSH1 0x0 PUSH1 0x40 MLOAD DUP1 PUSH1 0x80 ADD PUSH1 0x40 MSTORE DUP1 PUSH1 0x43 DUP2 MSTORE PUSH1 0x20 ADD PUSH2 0x2B35 PUSH1 0x43 SWAP2 CODECOPY DUP1 MLOAD PUSH1 0x20 SWAP2 DUP3 ADD KECCAK256 DUP4 MLOAD DUP5 DUP4 ADD MLOAD PUSH1 0x40 DUP1 DUP8 ADD MLOAD DUP1 MLOAD SWAP1 DUP7 ADD KECCAK256 SWAP1 MLOAD PUSH2 0x1EDA SWAP6 ADD SWAP4 DUP5 MSTORE PUSH1 0x20 DUP5 ADD SWAP3 SWAP1 SWAP3 MSTORE PUSH1 0x1 PUSH1 0x1 PUSH1 0xA0 SHL SUB AND PUSH1 0x40 DUP4 ADD MSTORE PUSH1 0x60 DUP3 ADD MSTORE PUSH1 0x80 ADD SWAP1 JUMP JUMPDEST PUSH1 0x40 MLOAD PUSH1 0x20 DUP2 DUP4 SUB SUB DUP2 MSTORE SWAP1 PUSH1 0x40 MSTORE DUP1 MLOAD SWAP1 PUSH1 0x20 ADD KECCAK256 SWAP1 POP SWAP2 SWAP1 POP JUMP JUMPDEST PUSH1 0x0 PUSH2 0x1F02 PUSH1 0x97 SLOAD SWAP1 JUMP JUMPDEST PUSH1 0x40 MLOAD PUSH2 0x1901 PUSH1 0xF0 SHL PUSH1 0x20 DUP3 ADD MSTORE PUSH1 0x22 DUP2 ADD SWAP2 SWAP1 SWAP2 MSTORE PUSH1 0x42 DUP2 ADD DUP4 SWAP1 MSTORE PUSH1 0x62 ADD PUSH2 0x1EDA JUMP JUMPDEST PUSH1 0x0 ADDRESS CALLER SUB PUSH2 0x1F7D JUMPI PUSH1 0x0 DUP1 CALLDATASIZE DUP1 DUP1 PUSH1 0x1F ADD PUSH1 0x20 DUP1 SWAP2 DIV MUL PUSH1 0x20 ADD PUSH1 0x40 MLOAD SWAP1 DUP2 ADD PUSH1 0x40 MSTORE DUP1 SWAP4 SWAP3 SWAP2 SWAP1 DUP2 DUP2 MSTORE PUSH1 0x20 ADD DUP4 DUP4 DUP1 DUP3 DUP5 CALLDATACOPY PUSH1 0x0 SWAP3 ADD SWAP2 SWAP1 SWAP2 MSTORE POP POP POP POP CALLDATASIZE ADD MLOAD PUSH1 0x1 PUSH1 0x1 PUSH1 0xA0 SHL SUB AND SWAP2 POP PUSH2 0x1F80 SWAP1 POP JUMP JUMPDEST POP CALLER JUMPDEST SWAP1 JUMP JUMPDEST PUSH1 0xCB SLOAD PUSH1 0xFF AND PUSH2 0xBCD JUMPI PUSH1 0x40 MLOAD PUSH3 0x461BCD PUSH1 0xE5 SHL DUP2 MSTORE PUSH1 0x20 PUSH1 0x4 DUP3 ADD MSTORE PUSH1 0x14 PUSH1 0x24 DUP3 ADD MSTORE PUSH20 0x14185D5CD8589B194E881B9BDD081C185D5CD959 PUSH1 0x62 SHL PUSH1 0x44 DUP3 ADD MSTORE PUSH1 0x64 ADD PUSH2 0x5D2 JUMP JUMPDEST DUP1 CALLDATALOAD PUSH1 0x1 PUSH1 0x1 PUSH1 0xA0 SHL SUB DUP2 AND DUP2 EQ PUSH2 0x1FE3 JUMPI PUSH1 0x0 DUP1 REVERT JUMPDEST SWAP2 SWAP1 POP JUMP JUMPDEST PUSH1 0x0 DUP1 PUSH1 0x40 DUP4 DUP6 SUB SLT ISZERO PUSH2 0x1FFB JUMPI PUSH1 0x0 DUP1 REVERT JUMPDEST PUSH2 0x2004 DUP4 PUSH2 0x1FCC JUMP JUMPDEST SWAP5 PUSH1 0x20 SWAP4 SWAP1 SWAP4 ADD CALLDATALOAD SWAP4 POP POP POP JUMP JUMPDEST PUSH1 0x1 PUSH1 0x1 PUSH1 0xE0 SHL SUB NOT DUP2 AND DUP2 EQ PUSH2 0x102B JUMPI PUSH1 0x0 DUP1 REVERT JUMPDEST PUSH1 0x0 PUSH1 0x20 DUP3 DUP5 SUB SLT ISZERO PUSH2 0x203A JUMPI PUSH1 0x0 DUP1 REVERT JUMPDEST DUP2 CALLDATALOAD PUSH2 0xE15 DUP2 PUSH2 0x2012 JUMP JUMPDEST PUSH1 0x0 JUMPDEST DUP4 DUP2 LT ISZERO PUSH2 0x2060 JUMPI DUP2 DUP2 ADD MLOAD DUP4 DUP3 ADD MSTORE PUSH1 0x20 ADD PUSH2 0x2048 JUMP JUMPDEST POP POP PUSH1 0x0 SWAP2 ADD MSTORE JUMP JUMPDEST PUSH1 0x0 DUP2 MLOAD DUP1 DUP5 MSTORE PUSH2 0x2081 DUP2 PUSH1 0x20 DUP7 ADD PUSH1 0x20 DUP7 ADD PUSH2 0x2045 JUMP JUMPDEST PUSH1 0x1F ADD PUSH1 0x1F NOT AND SWAP3 SWAP1 SWAP3 ADD PUSH1 0x20 ADD SWAP3 SWAP2 POP POP JUMP JUMPDEST PUSH1 0x20 DUP2 MSTORE PUSH1 0x0 PUSH2 0xE15 PUSH1 0x20 DUP4 ADD DUP5 PUSH2 0x2069 JUMP JUMPDEST PUSH4 0x4E487B71 PUSH1 0xE0 SHL PUSH1 0x0 MSTORE PUSH1 0x41 PUSH1 0x4 MSTORE PUSH1 0x24 PUSH1 0x0 REVERT JUMPDEST PUSH1 0x1F DUP3 ADD PUSH1 0x1F NOT AND DUP2 ADD PUSH8 0xFFFFFFFFFFFFFFFF DUP2 GT DUP3 DUP3 LT OR ISZERO PUSH2 0x20E4 JUMPI PUSH2 0x20E4 PUSH2 0x20A8 JUMP JUMPDEST PUSH1 0x40 MSTORE POP POP JUMP JUMPDEST PUSH1 0x0 DUP3 PUSH1 0x1F DUP4 ADD SLT PUSH2 0x20FC JUMPI PUSH1 0x0 DUP1 REVERT JUMPDEST DUP2 CALLDATALOAD PUSH8 0xFFFFFFFFFFFFFFFF DUP2 GT ISZERO PUSH2 0x2116 JUMPI PUSH2 0x2116 PUSH2 0x20A8 JUMP JUMPDEST PUSH1 0x40 MLOAD PUSH2 0x212D PUSH1 0x1F DUP4 ADD PUSH1 0x1F NOT AND PUSH1 0x20 ADD DUP3 PUSH2 0x20BE JUMP JUMPDEST DUP2 DUP2 MSTORE DUP5 PUSH1 0x20 DUP4 DUP7 ADD ADD GT ISZERO PUSH2 0x2142 JUMPI PUSH1 0x0 DUP1 REVERT JUMPDEST DUP2 PUSH1 0x20 DUP6 ADD PUSH1 0x20 DUP4 ADD CALLDATACOPY PUSH1 0x0 SWAP2 DUP2 ADD PUSH1 0x20 ADD SWAP2 SWAP1 SWAP2 MSTORE SWAP4 SWAP3 POP POP POP JUMP JUMPDEST PUSH1 0x0 DUP1 PUSH1 0x0 DUP1 PUSH1 0x0 PUSH1 0xA0 DUP7 DUP9 SUB SLT ISZERO PUSH2 0x2177 JUMPI PUSH1 0x0 DUP1 REVERT JUMPDEST PUSH2 0x2180 DUP7 PUSH2 0x1FCC JUMP JUMPDEST SWAP5 POP PUSH1 0x20 DUP7 ADD CALLDATALOAD PUSH8 0xFFFFFFFFFFFFFFFF DUP2 GT ISZERO PUSH2 0x219C JUMPI PUSH1 0x0 DUP1 REVERT JUMPDEST PUSH2 0x21A8 DUP9 DUP3 DUP10 ADD PUSH2 0x20EB JUMP JUMPDEST SWAP5 POP POP PUSH1 0x40 DUP7 ADD CALLDATALOAD SWAP3 POP PUSH1 0x60 DUP7 ADD CALLDATALOAD SWAP2 POP PUSH1 0x80 DUP7 ADD CALLDATALOAD PUSH1 0xFF DUP2 AND DUP2 EQ PUSH2 0x21CD JUMPI PUSH1 0x0 DUP1 REVERT JUMPDEST DUP1 SWAP2 POP POP SWAP3 SWAP6 POP SWAP3 SWAP6 SWAP1 SWAP4 POP JUMP JUMPDEST PUSH1 0x0 PUSH1 0x20 DUP3 DUP5 SUB SLT ISZERO PUSH2 0x21ED JUMPI PUSH1 0x0 DUP1 REVERT JUMPDEST POP CALLDATALOAD SWAP2 SWAP1 POP JUMP JUMPDEST PUSH1 0x0 PUSH1 0x20 DUP3 DUP5 SUB SLT ISZERO PUSH2 0x2206 JUMPI PUSH1 0x0 DUP1 REVERT JUMPDEST PUSH2 0xE15 DUP3 PUSH2 0x1FCC JUMP JUMPDEST PUSH1 0x0 PUSH8 0xFFFFFFFFFFFFFFFF DUP3 GT ISZERO PUSH2 0x2229 JUMPI PUSH2 0x2229 PUSH2 0x20A8 JUMP JUMPDEST POP PUSH1 0x5 SHL PUSH1 0x20 ADD SWAP1 JUMP JUMPDEST PUSH1 0x0 DUP3 PUSH1 0x1F DUP4 ADD SLT PUSH2 0x2244 JUMPI PUSH1 0x0 DUP1 REVERT JUMPDEST DUP2 CALLDATALOAD PUSH1 0x20 PUSH2 0x2251 DUP3 PUSH2 0x220F JUMP JUMPDEST PUSH1 0x40 MLOAD PUSH2 0x225E DUP3 DUP3 PUSH2 0x20BE JUMP JUMPDEST DUP4 DUP2 MSTORE PUSH1 0x5 SWAP4 SWAP1 SWAP4 SHL DUP6 ADD DUP3 ADD SWAP3 DUP3 DUP2 ADD SWAP2 POP DUP7 DUP5 GT ISZERO PUSH2 0x227E JUMPI PUSH1 0x0 DUP1 REVERT JUMPDEST DUP3 DUP7 ADD JUMPDEST DUP5 DUP2 LT ISZERO PUSH2 0x2299 JUMPI DUP1 CALLDATALOAD DUP4 MSTORE SWAP2 DUP4 ADD SWAP2 DUP4 ADD PUSH2 0x2282 JUMP JUMPDEST POP SWAP7 SWAP6 POP POP POP POP POP POP JUMP JUMPDEST PUSH1 0x0 DUP1 PUSH1 0x0 DUP1 PUSH1 0x0 PUSH1 0xA0 DUP7 DUP9 SUB SLT ISZERO PUSH2 0x22BC JUMPI PUSH1 0x0 DUP1 REVERT JUMPDEST PUSH2 0x22C5 DUP7 PUSH2 0x1FCC JUMP JUMPDEST SWAP5 POP PUSH2 0x22D3 PUSH1 0x20 DUP8 ADD PUSH2 0x1FCC JUMP JUMPDEST SWAP4 POP PUSH1 0x40 DUP7 ADD CALLDATALOAD PUSH8 0xFFFFFFFFFFFFFFFF DUP1 DUP3 GT ISZERO PUSH2 0x22F0 JUMPI PUSH1 0x0 DUP1 REVERT JUMPDEST PUSH2 0x22FC DUP10 DUP4 DUP11 ADD PUSH2 0x2233 JUMP JUMPDEST SWAP5 POP PUSH1 0x60 DUP9 ADD CALLDATALOAD SWAP2 POP DUP1 DUP3 GT ISZERO PUSH2 0x2312 JUMPI PUSH1 0x0 DUP1 REVERT JUMPDEST PUSH2 0x231E DUP10 DUP4 DUP11 ADD PUSH2 0x2233 JUMP JUMPDEST SWAP4 POP PUSH1 0x80 DUP9 ADD CALLDATALOAD SWAP2 POP DUP1 DUP3 GT ISZERO PUSH2 0x2334 JUMPI PUSH1 0x0 DUP1 REVERT JUMPDEST POP PUSH2 0x2341 DUP9 DUP3 DUP10 ADD PUSH2 0x20EB JUMP JUMPDEST SWAP2 POP POP SWAP3 SWAP6 POP SWAP3 SWAP6 SWAP1 SWAP4 POP JUMP JUMPDEST PUSH1 0x0 DUP1 PUSH1 0x40 DUP4 DUP6 SUB SLT ISZERO PUSH2 0x2361 JUMPI PUSH1 0x0 DUP1 REVERT JUMPDEST DUP3 CALLDATALOAD PUSH8 0xFFFFFFFFFFFFFFFF DUP1 DUP3 GT ISZERO PUSH2 0x2379 JUMPI PUSH1 0x0 DUP1 REVERT JUMPDEST DUP2 DUP6 ADD SWAP2 POP DUP6 PUSH1 0x1F DUP4 ADD SLT PUSH2 0x238D JUMPI PUSH1 0x0 DUP1 REVERT JUMPDEST DUP2 CALLDATALOAD PUSH1 0x20 PUSH2 0x239A DUP3 PUSH2 0x220F JUMP JUMPDEST PUSH1 0x40 MLOAD PUSH2 0x23A7 DUP3 DUP3 PUSH2 0x20BE JUMP JUMPDEST DUP4 DUP2 MSTORE PUSH1 0x5 SWAP4 SWAP1 SWAP4 SHL DUP6 ADD DUP3 ADD SWAP3 DUP3 DUP2 ADD SWAP2 POP DUP10 DUP5 GT ISZERO PUSH2 0x23C7 JUMPI PUSH1 0x0 DUP1 REVERT JUMPDEST SWAP5 DUP3 ADD SWAP5 JUMPDEST DUP4 DUP7 LT ISZERO PUSH2 0x23EC JUMPI PUSH2 0x23DD DUP7 PUSH2 0x1FCC JUMP JUMPDEST DUP3 MSTORE SWAP5 DUP3 ADD SWAP5 SWAP1 DUP3 ADD SWAP1 PUSH2 0x23CC JUMP JUMPDEST SWAP7 POP POP DUP7 ADD CALLDATALOAD SWAP3 POP POP DUP1 DUP3 GT ISZERO PUSH2 0x2402 JUMPI PUSH1 0x0 DUP1 REVERT JUMPDEST POP PUSH2 0x240F DUP6 DUP3 DUP7 ADD PUSH2 0x2233 JUMP JUMPDEST SWAP2 POP POP SWAP3 POP SWAP3 SWAP1 POP JUMP JUMPDEST PUSH1 0x0 DUP2 MLOAD DUP1 DUP5 MSTORE PUSH1 0x20 DUP1 DUP6 ADD SWAP5 POP DUP1 DUP5 ADD PUSH1 0x0 JUMPDEST DUP4 DUP2 LT ISZERO PUSH2 0x2449 JUMPI DUP2 MLOAD DUP8 MSTORE SWAP6 DUP3 ADD SWAP6 SWAP1 DUP3 ADD SWAP1 PUSH1 0x1 ADD PUSH2 0x242D JUMP JUMPDEST POP SWAP5 SWAP6 SWAP5 POP POP POP POP POP JUMP JUMPDEST PUSH1 0x20 DUP2 MSTORE PUSH1 0x0 PUSH2 0xE15 PUSH1 0x20 DUP4 ADD DUP5 PUSH2 0x2419 JUMP JUMPDEST PUSH1 0x0 DUP1 PUSH1 0x0 DUP1 PUSH1 0x80 DUP6 DUP8 SUB SLT ISZERO PUSH2 0x247D JUMPI PUSH1 0x0 DUP1 REVERT JUMPDEST PUSH2 0x2486 DUP6 PUSH2 0x1FCC JUMP JUMPDEST SWAP4 POP PUSH1 0x20 DUP6 ADD CALLDATALOAD SWAP3 POP PUSH1 0x40 DUP6 ADD CALLDATALOAD SWAP2 POP PUSH1 0x60 DUP6 ADD CALLDATALOAD PUSH8 0xFFFFFFFFFFFFFFFF DUP2 GT ISZERO PUSH2 0x24B0 JUMPI PUSH1 0x0 DUP1 REVERT JUMPDEST PUSH2 0x24BC DUP8 DUP3 DUP9 ADD PUSH2 0x20EB JUMP JUMPDEST SWAP2 POP POP SWAP3 SWAP6 SWAP2 SWAP5 POP SWAP3 POP JUMP JUMPDEST PUSH1 0x0 DUP1 PUSH1 0x40 DUP4 DUP6 SUB SLT ISZERO PUSH2 0x24DB JUMPI PUSH1 0x0 DUP1 REVERT JUMPDEST PUSH2 0x24E4 DUP4 PUSH2 0x1FCC JUMP JUMPDEST SWAP2 POP PUSH1 0x20 DUP4 ADD CALLDATALOAD DUP1 ISZERO ISZERO DUP2 EQ PUSH2 0x24F9 JUMPI PUSH1 0x0 DUP1 REVERT JUMPDEST DUP1 SWAP2 POP POP SWAP3 POP SWAP3 SWAP1 POP JUMP JUMPDEST PUSH1 0x0 DUP1 PUSH1 0x0 DUP1 PUSH1 0x80 DUP6 DUP8 SUB SLT ISZERO PUSH2 0x251A JUMPI PUSH1 0x0 DUP1 REVERT JUMPDEST PUSH2 0x2523 DUP6 PUSH2 0x1FCC JUMP JUMPDEST SWAP4 POP PUSH1 0x20 DUP6 ADD CALLDATALOAD PUSH8 0xFFFFFFFFFFFFFFFF DUP1 DUP3 GT ISZERO PUSH2 0x2540 JUMPI PUSH1 0x0 DUP1 REVERT JUMPDEST PUSH2 0x254C DUP9 DUP4 DUP10 ADD PUSH2 0x2233 JUMP JUMPDEST SWAP5 POP PUSH1 0x40 DUP8 ADD CALLDATALOAD SWAP2 POP DUP1 DUP3 GT ISZERO PUSH2 0x2562 JUMPI PUSH1 0x0 DUP1 REVERT JUMPDEST PUSH2 0x256E DUP9 DUP4 DUP10 ADD PUSH2 0x2233 JUMP JUMPDEST SWAP4 POP PUSH1 0x60 DUP8 ADD CALLDATALOAD SWAP2 POP DUP1 DUP3 GT ISZERO PUSH2 0x2584 JUMPI PUSH1 0x0 DUP1 REVERT JUMPDEST POP PUSH2 0x24BC DUP8 DUP3 DUP9 ADD PUSH2 0x20EB JUMP JUMPDEST PUSH1 0x0 DUP1 PUSH1 0x40 DUP4 DUP6 SUB SLT ISZERO PUSH2 0x25A4 JUMPI PUSH1 0x0 DUP1 REVERT JUMPDEST PUSH2 0x25AD DUP4 PUSH2 0x1FCC JUMP JUMPDEST SWAP2 POP PUSH2 0x25BB PUSH1 0x20 DUP5 ADD PUSH2 0x1FCC JUMP JUMPDEST SWAP1 POP SWAP3 POP SWAP3 SWAP1 POP JUMP JUMPDEST PUSH1 0x0 DUP1 PUSH1 0x0 DUP1 PUSH1 0x0 PUSH1 0xA0 DUP7 DUP9 SUB SLT ISZERO PUSH2 0x25DC JUMPI PUSH1 0x0 DUP1 REVERT JUMPDEST PUSH2 0x25E5 DUP7 PUSH2 0x1FCC JUMP JUMPDEST SWAP5 POP PUSH2 0x25F3 PUSH1 0x20 DUP8 ADD PUSH2 0x1FCC JUMP JUMPDEST SWAP4 POP PUSH1 0x40 DUP7 ADD CALLDATALOAD SWAP3 POP PUSH1 0x60 DUP7 ADD CALLDATALOAD SWAP2 POP PUSH1 0x80 DUP7 ADD CALLDATALOAD PUSH8 0xFFFFFFFFFFFFFFFF DUP2 GT ISZERO PUSH2 0x261D JUMPI PUSH1 0x0 DUP1 REVERT JUMPDEST PUSH2 0x2341 DUP9 DUP3 DUP10 ADD PUSH2 0x20EB JUMP JUMPDEST PUSH1 0x0 DUP1 PUSH1 0x0 PUSH1 0x60 DUP5 DUP7 SUB SLT ISZERO PUSH2 0x263E JUMPI PUSH1 0x0 DUP1 REVERT JUMPDEST PUSH2 0x2647 DUP5 PUSH2 0x1FCC JUMP JUMPDEST SWAP6 PUSH1 0x20 DUP6 ADD CALLDATALOAD SWAP6 POP PUSH1 0x40 SWAP1 SWAP5 ADD CALLDATALOAD SWAP4 SWAP3 POP POP POP JUMP JUMPDEST PUSH1 0x0 DUP1 PUSH1 0x0 PUSH1 0x60 DUP5 DUP7 SUB SLT ISZERO PUSH2 0x2671 JUMPI PUSH1 0x0 DUP1 REVERT JUMPDEST PUSH2 0x267A DUP5 PUSH2 0x1FCC JUMP JUMPDEST SWAP3 POP PUSH1 0x20 DUP5 ADD CALLDATALOAD PUSH8 0xFFFFFFFFFFFFFFFF DUP1 DUP3 GT ISZERO PUSH2 0x2697 JUMPI PUSH1 0x0 DUP1 REVERT JUMPDEST PUSH2 0x26A3 DUP8 DUP4 DUP9 ADD PUSH2 0x2233 JUMP JUMPDEST SWAP4 POP PUSH1 0x40 DUP7 ADD CALLDATALOAD SWAP2 POP DUP1 DUP3 GT ISZERO PUSH2 0x26B9 JUMPI PUSH1 0x0 DUP1 REVERT JUMPDEST POP PUSH2 0x26C6 DUP7 DUP3 DUP8 ADD PUSH2 0x2233 JUMP JUMPDEST SWAP2 POP POP SWAP3 POP SWAP3 POP SWAP3 JUMP JUMPDEST PUSH1 0x1 DUP2 DUP2 SHR SWAP1 DUP3 AND DUP1 PUSH2 0x26E4 JUMPI PUSH1 0x7F DUP3 AND SWAP2 POP JUMPDEST PUSH1 0x20 DUP3 LT DUP2 SUB PUSH2 0x2704 JUMPI PUSH4 0x4E487B71 PUSH1 0xE0 SHL PUSH1 0x0 MSTORE PUSH1 0x22 PUSH1 0x4 MSTORE PUSH1 0x24 PUSH1 0x0 REVERT JUMPDEST POP SWAP2 SWAP1 POP JUMP JUMPDEST PUSH4 0x4E487B71 PUSH1 0xE0 SHL PUSH1 0x0 MSTORE PUSH1 0x11 PUSH1 0x4 MSTORE PUSH1 0x24 PUSH1 0x0 REVERT JUMPDEST DUP1 DUP3 ADD DUP1 DUP3 GT ISZERO PUSH2 0x600 JUMPI PUSH2 0x600 PUSH2 0x270A JUMP JUMPDEST PUSH1 0x1 PUSH1 0x1 PUSH1 0xA0 SHL SUB DUP5 DUP2 AND DUP3 MSTORE DUP4 AND PUSH1 0x20 DUP3 ADD MSTORE PUSH1 0x60 PUSH1 0x40 DUP3 ADD DUP2 SWAP1 MSTORE PUSH1 0x0 SWAP1 PUSH2 0x275F SWAP1 DUP4 ADD DUP5 PUSH2 0x2069 JUMP JUMPDEST SWAP6 SWAP5 POP POP POP POP POP JUMP JUMPDEST PUSH1 0x0 DUP4 MLOAD PUSH2 0x277A DUP2 DUP5 PUSH1 0x20 DUP9 ADD PUSH2 0x2045 JUMP JUMPDEST PUSH1 0x60 SWAP4 SWAP1 SWAP4 SHL PUSH12 0xFFFFFFFFFFFFFFFFFFFFFFFF NOT AND SWAP2 SWAP1 SWAP3 ADD SWAP1 DUP2 MSTORE PUSH1 0x14 ADD SWAP3 SWAP2 POP POP JUMP JUMPDEST PUSH1 0x0 DUP3 MLOAD PUSH2 0x27B1 DUP2 DUP5 PUSH1 0x20 DUP8 ADD PUSH2 0x2045 JUMP JUMPDEST SWAP2 SWAP1 SWAP2 ADD SWAP3 SWAP2 POP POP JUMP JUMPDEST PUSH1 0x20 DUP1 DUP3 MSTORE PUSH1 0x30 SWAP1 DUP3 ADD MSTORE PUSH32 0x455243313135355472616461626C65236F6E6C79417070726F7665643A204341 PUSH1 0x40 DUP3 ADD MSTORE PUSH16 0x1313115497D393D517D0531313D5D151 PUSH1 0x82 SHL PUSH1 0x60 DUP3 ADD MSTORE PUSH1 0x80 ADD SWAP1 JUMP JUMPDEST PUSH1 0x20 DUP1 DUP3 MSTORE PUSH1 0x24 SWAP1 DUP3 ADD MSTORE PUSH32 0x455243313135353A204944535F414D4F554E54535F4C454E4754485F4D49534D PUSH1 0x40 DUP3 ADD MSTORE PUSH4 0x82A8869 PUSH1 0xE3 SHL PUSH1 0x60 DUP3 ADD MSTORE PUSH1 0x80 ADD SWAP1 JUMP JUMPDEST PUSH1 0x20 DUP1 DUP3 MSTORE PUSH1 0x25 SWAP1 DUP3 ADD MSTORE PUSH32 0x455243313135353A207472616E7366657220746F20746865207A65726F206164 PUSH1 0x40 DUP3 ADD MSTORE PUSH5 0x6472657373 PUSH1 0xD8 SHL PUSH1 0x60 DUP3 ADD MSTORE PUSH1 0x80 ADD SWAP1 JUMP JUMPDEST PUSH4 0x4E487B71 PUSH1 0xE0 SHL PUSH1 0x0 MSTORE PUSH1 0x32 PUSH1 0x4 MSTORE PUSH1 0x24 PUSH1 0x0 REVERT JUMPDEST PUSH1 0x20 DUP1 DUP3 MSTORE PUSH1 0x2A SWAP1 DUP3 ADD MSTORE PUSH32 0x455243313135353A20696E73756666696369656E742062616C616E636520666F PUSH1 0x40 DUP3 ADD MSTORE PUSH10 0x39103A3930B739B332B9 PUSH1 0xB1 SHL PUSH1 0x60 DUP3 ADD MSTORE PUSH1 0x80 ADD SWAP1 JUMP JUMPDEST DUP2 DUP2 SUB DUP2 DUP2 GT ISZERO PUSH2 0x600 JUMPI PUSH2 0x600 PUSH2 0x270A JUMP JUMPDEST PUSH1 0x0 PUSH1 0x1 DUP3 ADD PUSH2 0x2919 JUMPI PUSH2 0x2919 PUSH2 0x270A JUMP JUMPDEST POP PUSH1 0x1 ADD SWAP1 JUMP JUMPDEST PUSH1 0x40 DUP2 MSTORE PUSH1 0x0 PUSH2 0x2933 PUSH1 0x40 DUP4 ADD DUP6 PUSH2 0x2419 JUMP JUMPDEST DUP3 DUP2 SUB PUSH1 0x20 DUP5 ADD MSTORE PUSH2 0x275F DUP2 DUP6 PUSH2 0x2419 JUMP JUMPDEST PUSH1 0x20 DUP1 DUP3 MSTORE PUSH1 0x2E SWAP1 DUP3 ADD MSTORE PUSH32 0x455243313135355472616461626C65236F6E6C794F776E65723A2043414C4C45 PUSH1 0x40 DUP3 ADD MSTORE PUSH14 0x292FA4A9AFA727AA2FA7ABA722A9 PUSH1 0x91 SHL PUSH1 0x60 DUP3 ADD MSTORE PUSH1 0x80 ADD SWAP1 JUMP JUMPDEST PUSH1 0x1 PUSH1 0x1 PUSH1 0xA0 SHL SUB DUP7 DUP2 AND DUP3 MSTORE DUP6 AND PUSH1 0x20 DUP3 ADD MSTORE PUSH1 0xA0 PUSH1 0x40 DUP3 ADD DUP2 SWAP1 MSTORE PUSH1 0x0 SWAP1 PUSH2 0x29BF SWAP1 DUP4 ADD DUP7 PUSH2 0x2419 JUMP JUMPDEST DUP3 DUP2 SUB PUSH1 0x60 DUP5 ADD MSTORE PUSH2 0x29D1 DUP2 DUP7 PUSH2 0x2419 JUMP JUMPDEST SWAP1 POP DUP3 DUP2 SUB PUSH1 0x80 DUP5 ADD MSTORE PUSH2 0x8B0 DUP2 DUP6 PUSH2 0x2069 JUMP JUMPDEST PUSH1 0x0 PUSH1 0x20 DUP3 DUP5 SUB SLT ISZERO PUSH2 0x29F7 JUMPI PUSH1 0x0 DUP1 REVERT JUMPDEST DUP2 MLOAD PUSH2 0xE15 DUP2 PUSH2 0x2012 JUMP JUMPDEST PUSH1 0x0 PUSH1 0x3 RETURNDATASIZE GT ISZERO PUSH2 0x1F80 JUMPI PUSH1 0x4 PUSH1 0x0 DUP1 RETURNDATACOPY POP PUSH1 0x0 MLOAD PUSH1 0xE0 SHR SWAP1 JUMP JUMPDEST PUSH1 0x0 PUSH1 0x44 RETURNDATASIZE LT ISZERO PUSH2 0x2A2B JUMPI SWAP1 JUMP JUMPDEST PUSH1 0x40 MLOAD PUSH1 0x3 NOT RETURNDATASIZE DUP2 ADD PUSH1 0x4 DUP4 RETURNDATACOPY DUP2 MLOAD RETURNDATASIZE PUSH8 0xFFFFFFFFFFFFFFFF DUP2 PUSH1 0x24 DUP5 ADD GT DUP2 DUP5 GT OR ISZERO PUSH2 0x2A5B JUMPI POP POP POP POP POP SWAP1 JUMP JUMPDEST DUP3 DUP6 ADD SWAP2 POP DUP2 MLOAD DUP2 DUP2 GT ISZERO PUSH2 0x2A73 JUMPI POP POP POP POP POP POP SWAP1 JUMP JUMPDEST DUP5 RETURNDATASIZE DUP8 ADD ADD PUSH1 0x20 DUP3 DUP6 ADD ADD GT ISZERO PUSH2 0x2A8D JUMPI POP POP POP POP POP POP SWAP1 JUMP JUMPDEST PUSH2 0x2A9C PUSH1 0x20 DUP3 DUP7 ADD ADD DUP8 PUSH2 0x20BE JUMP JUMPDEST POP SWAP1 SWAP6 SWAP5 POP POP POP POP POP JUMP JUMPDEST PUSH1 0x20 DUP1 DUP3 MSTORE PUSH1 0x28 SWAP1 DUP3 ADD MSTORE PUSH32 0x455243313135353A204552433131353552656365697665722072656A65637465 PUSH1 0x40 DUP3 ADD MSTORE PUSH8 0x6420746F6B656E73 PUSH1 0xC0 SHL PUSH1 0x60 DUP3 ADD MSTORE PUSH1 0x80 ADD SWAP1 JUMP JUMPDEST PUSH1 0x1 PUSH1 0x1 PUSH1 0xA0 SHL SUB DUP7 DUP2 AND DUP3 MSTORE DUP6 AND PUSH1 0x20 DUP3 ADD MSTORE PUSH1 0x40 DUP2 ADD DUP5 SWAP1 MSTORE PUSH1 0x60 DUP2 ADD DUP4 SWAP1 MSTORE PUSH1 0xA0 PUSH1 0x80 DUP3 ADD DUP2 SWAP1 MSTORE PUSH1 0x0 SWAP1 PUSH2 0x2B29 SWAP1 DUP4 ADD DUP5 PUSH2 0x2069 JUMP JUMPDEST SWAP8 SWAP7 POP POP POP POP POP POP POP JUMP INVALID 0x4D PUSH6 0x74615472616E PUSH20 0x616374696F6E2875696E74323536206E6F6E6365 0x2C PUSH2 0x6464 PUSH19 0x6573732066726F6D2C62797465732066756E63 PUSH21 0x696F6E5369676E617475726529A264697066735822 SLT KECCAK256 SWAP15 0xC5 DUP4 0xAD 0xC9 0xEB SWAP9 0xFB 0xC2 DUP13 0xE2 0xC8 SELFDESTRUCT 0xBC 0xB2 0xDF 0xC SHL 0xD3 DIFFICULTY 0x2D EXTCODECOPY DIFFICULTY 0xA5 CALL KECCAK256 PUSH27 0xC95F9DD04964736F6C634300081100330000000000000000000000 "},"methodIdentifiers":{"ERC712_VERSION()":"0f7e5970","balanceOf(address,uint256)":"00fdd58e","balanceOfBatch(address[],uint256[])":"4e1273f4","batchBurn(address,uint256[],uint256[])":"f6eb127a","batchMint(address,uint256[],uint256[],bytes)":"b48ab8b6","burn(address,uint256,uint256)":"f5298aca","executeMetaTransaction(address,bytes,bytes32,bytes32,uint8)":"0c53c51c","exists(uint256)":"4f558e79","getChainId()":"3408e470","getDomainSeperator()":"20379ee5","getNonce(address)":"2d0335ab","isApprovedForAll(address,address)":"e985e9c5","mint(address,uint256,uint256,bytes)":"731133e9","name()":"06fdde03","owner()":"8da5cb5b","pause()":"8456cb59","paused()":"5c975abb","proxyRegistryAddress()":"cd7c0326","renounceOwnership()":"715018a6","safeBatchTransferFrom(address,address,uint256[],uint256[],bytes)":"2eb2c2d6","safeTransferFrom(address,address,uint256,uint256,bytes)":"f242432a","setApprovalForAll(address,bool)":"a22cb465","supportsInterface(bytes4)":"01ffc9a7","symbol()":"95d89b41","totalSupply(uint256)":"bd85b039","transferOwnership(address)":"f2fde38b","unpause()":"3f4ba83a","uri(uint256)":"0e89341c"}},"storageLayout":{"storage":[{"astId":157,"contract":"contracts/ERC1155Tradable.sol:ERC1155Tradable","label":"_initialized","offset":0,"slot":"0","type":"t_uint8"},{"astId":160,"contract":"contracts/ERC1155Tradable.sol:ERC1155Tradable","label":"_initializing","offset":1,"slot":"0","type":"t_bool"},{"astId":2485,"contract":"contracts/ERC1155Tradable.sol:ERC1155Tradable","label":"__gap","offset":0,"slot":"1","type":"t_array(t_uint256)50_storage"},{"astId":2529,"contract":"contracts/ERC1155Tradable.sol:ERC1155Tradable","label":"__gap","offset":0,"slot":"51","type":"t_array(t_uint256)50_storage"},{"astId":548,"contract":"contracts/ERC1155Tradable.sol:ERC1155Tradable","label":"_balances","offset":0,"slot":"101","type":"t_mapping(t_uint256,t_mapping(t_address,t_uint256))"},{"astId":554,"contract":"contracts/ERC1155Tradable.sol:ERC1155Tradable","label":"_operatorApprovals","offset":0,"slot":"102","type":"t_mapping(t_address,t_mapping(t_address,t_bool))"},{"astId":556,"contract":"contracts/ERC1155Tradable.sol:ERC1155Tradable","label":"_uri","offset":0,"slot":"103","type":"t_string_storage"},{"astId":1763,"contract":"contracts/ERC1155Tradable.sol:ERC1155Tradable","label":"__gap","offset":0,"slot":"104","type":"t_array(t_uint256)47_storage"},{"astId":5288,"contract":"contracts/ERC1155Tradable.sol:ERC1155Tradable","label":"domainSeperator","offset":0,"slot":"151","type":"t_bytes32"},{"astId":5414,"contract":"contracts/ERC1155Tradable.sol:ERC1155Tradable","label":"nonces","offset":0,"slot":"152","type":"t_mapping(t_address,t_uint256)"},{"astId":10,"contract":"contracts/ERC1155Tradable.sol:ERC1155Tradable","label":"_owner","offset":0,"slot":"153","type":"t_address"},{"astId":130,"contract":"contracts/ERC1155Tradable.sol:ERC1155Tradable","label":"__gap","offset":0,"slot":"154","type":"t_array(t_uint256)49_storage"},{"astId":340,"contract":"contracts/ERC1155Tradable.sol:ERC1155Tradable","label":"_paused","offset":0,"slot":"203","type":"t_bool"},{"astId":445,"contract":"contracts/ERC1155Tradable.sol:ERC1155Tradable","label":"__gap","offset":0,"slot":"204","type":"t_array(t_uint256)49_storage"},{"astId":3931,"contract":"contracts/ERC1155Tradable.sol:ERC1155Tradable","label":"name","offset":0,"slot":"253","type":"t_string_storage"},{"astId":3933,"contract":"contracts/ERC1155Tradable.sol:ERC1155Tradable","label":"symbol","offset":0,"slot":"254","type":"t_string_storage"},{"astId":3939,"contract":"contracts/ERC1155Tradable.sol:ERC1155Tradable","label":"balances","offset":0,"slot":"255","type":"t_mapping(t_uint256,t_mapping(t_address,t_uint256))"},{"astId":3943,"contract":"contracts/ERC1155Tradable.sol:ERC1155Tradable","label":"_supply","offset":0,"slot":"256","type":"t_mapping(t_uint256,t_uint256)"},{"astId":3945,"contract":"contracts/ERC1155Tradable.sol:ERC1155Tradable","label":"proxyRegistryAddress","offset":0,"slot":"257","type":"t_address"}],"types":{"t_address":{"encoding":"inplace","label":"address","numberOfBytes":"20"},"t_array(t_uint256)47_storage":{"base":"t_uint256","encoding":"inplace","label":"uint256[47]","numberOfBytes":"1504"},"t_array(t_uint256)49_storage":{"base":"t_uint256","encoding":"inplace","label":"uint256[49]","numberOfBytes":"1568"},"t_array(t_uint256)50_storage":{"base":"t_uint256","encoding":"inplace","label":"uint256[50]","numberOfBytes":"1600"},"t_bool":{"encoding":"inplace","label":"bool","numberOfBytes":"1"},"t_bytes32":{"encoding":"inplace","label":"bytes32","numberOfBytes":"32"},"t_mapping(t_address,t_bool)":{"encoding":"mapping","key":"t_address","label":"mapping(address => bool)","numberOfBytes":"32","value":"t_bool"},"t_mapping(t_address,t_mapping(t_address,t_bool))":{"encoding":"mapping","key":"t_address","label":"mapping(address => mapping(address => bool))","numberOfBytes":"32","value":"t_mapping(t_address,t_bool)"},"t_mapping(t_address,t_uint256)":{"encoding":"mapping","key":"t_address","label":"mapping(address => uint256)","numberOfBytes":"32","value":"t_uint256"},"t_mapping(t_uint256,t_mapping(t_address,t_uint256))":{"encoding":"mapping","key":"t_uint256","label":"mapping(uint256 => mapping(address => uint256))","numberOfBytes":"32","value":"t_mapping(t_address,t_uint256)"},"t_mapping(t_uint256,t_uint256)":{"encoding":"mapping","key":"t_uint256","label":"mapping(uint256 => uint256)","numberOfBytes":"32","value":"t_uint256"},"t_string_storage":{"encoding":"bytes","label":"string","numberOfBytes":"32"},"t_uint256":{"encoding":"inplace","label":"uint256","numberOfBytes":"32"},"t_uint8":{"encoding":"inplace","label":"uint8","numberOfBytes":"1"}}}}}}