{"contracts/AssetContract.sol":{"AssetContract":{"abi":[{"inputs":[{"internalType":"string","name":"_name","type":"string"},{"internalType":"string","name":"_symbol","type":"string"},{"internalType":"string","name":"_templateURI","type":"string"},{"internalType":"address","name":"_proxyRegistryAddress","type":"address"}],"stateMutability":"nonpayable","type":"constructor"},{"anonymous":false,"inputs":[{"indexed":true,"internalType":"address","name":"account","type":"address"},{"indexed":true,"internalType":"address","name":"operator","type":"address"},{"indexed":false,"internalType":"bool","name":"approved","type":"bool"}],"name":"ApprovalForAll","type":"event"},{"anonymous":false,"inputs":[{"indexed":false,"internalType":"address","name":"userAddress","type":"address"},{"indexed":false,"internalType":"address payable","name":"relayerAddress","type":"address"},{"indexed":false,"internalType":"bytes","name":"functionSignature","type":"bytes"}],"name":"MetaTransactionExecuted","type":"event"},{"anonymous":false,"inputs":[{"indexed":true,"internalType":"address","name":"previousOwner","type":"address"},{"indexed":true,"internalType":"address","name":"newOwner","type":"address"}],"name":"OwnershipTransferred","type":"event"},{"anonymous":false,"inputs":[{"indexed":false,"internalType":"address","name":"account","type":"address"}],"name":"Paused","type":"event"},{"anonymous":false,"inputs":[{"indexed":false,"internalType":"string","name":"_value","type":"string"},{"indexed":true,"internalType":"uint256","name":"_id","type":"uint256"}],"name":"PermanentURI","type":"event"},{"anonymous":false,"inputs":[{"indexed":true,"internalType":"address","name":"operator","type":"address"},{"indexed":true,"internalType":"address","name":"from","type":"address"},{"indexed":true,"internalType":"address","name":"to","type":"address"},{"indexed":false,"internalType":"uint256[]","name":"ids","type":"uint256[]"},{"indexed":false,"internalType":"uint256[]","name":"values","type":"uint256[]"}],"name":"TransferBatch","type":"event"},{"anonymous":false,"inputs":[{"indexed":true,"internalType":"address","name":"operator","type":"address"},{"indexed":true,"internalType":"address","name":"from","type":"address"},{"indexed":true,"internalType":"address","name":"to","type":"address"},{"indexed":false,"internalType":"uint256","name":"id","type":"uint256"},{"indexed":false,"internalType":"uint256","name":"value","type":"uint256"}],"name":"TransferSingle","type":"event"},{"anonymous":false,"inputs":[{"indexed":false,"internalType":"string","name":"value","type":"string"},{"indexed":true,"internalType":"uint256","name":"id","type":"uint256"}],"name":"URI","type":"event"},{"anonymous":false,"inputs":[{"indexed":false,"internalType":"address","name":"account","type":"address"}],"name":"Unpaused","type":"event"},{"inputs":[],"name":"ERC712_VERSION","outputs":[{"internalType":"string","name":"","type":"string"}],"stateMutability":"view","type":"function"},{"inputs":[{"internalType":"address","name":"_owner","type":"address"},{"internalType":"uint256","name":"_id","type":"uint256"}],"name":"balanceOf","outputs":[{"internalType":"uint256","name":"","type":"uint256"}],"stateMutability":"view","type":"function"},{"inputs":[{"internalType":"address[]","name":"accounts","type":"address[]"},{"internalType":"uint256[]","name":"ids","type":"uint256[]"}],"name":"balanceOfBatch","outputs":[{"internalType":"uint256[]","name":"","type":"uint256[]"}],"stateMutability":"view","type":"function"},{"inputs":[{"internalType":"address","name":"_from","type":"address"},{"internalType":"uint256[]","name":"_ids","type":"uint256[]"},{"internalType":"uint256[]","name":"_quantities","type":"uint256[]"}],"name":"batchBurn","outputs":[],"stateMutability":"nonpayable","type":"function"},{"inputs":[{"internalType":"address","name":"_to","type":"address"},{"internalType":"uint256[]","name":"_ids","type":"uint256[]"},{"internalType":"uint256[]","name":"_quantities","type":"uint256[]"},{"internalType":"bytes","name":"_data","type":"bytes"}],"name":"batchMint","outputs":[],"stateMutability":"nonpayable","type":"function"},{"inputs":[{"internalType":"address","name":"_from","type":"address"},{"internalType":"uint256","name":"_id","type":"uint256"},{"internalType":"uint256","name":"_quantity","type":"uint256"}],"name":"burn","outputs":[],"stateMutability":"nonpayable","type":"function"},{"inputs":[{"internalType":"address","name":"userAddress","type":"address"},{"internalType":"bytes","name":"functionSignature","type":"bytes"},{"internalType":"bytes32","name":"sigR","type":"bytes32"},{"internalType":"bytes32","name":"sigS","type":"bytes32"},{"internalType":"uint8","name":"sigV","type":"uint8"}],"name":"executeMetaTransaction","outputs":[{"internalType":"bytes","name":"","type":"bytes"}],"stateMutability":"payable","type":"function"},{"inputs":[{"internalType":"uint256","name":"_id","type":"uint256"}],"name":"exists","outputs":[{"internalType":"bool","name":"","type":"bool"}],"stateMutability":"view","type":"function"},{"inputs":[],"name":"getChainId","outputs":[{"internalType":"uint256","name":"","type":"uint256"}],"stateMutability":"view","type":"function"},{"inputs":[],"name":"getDomainSeperator","outputs":[{"internalType":"bytes32","name":"","type":"bytes32"}],"stateMutability":"view","type":"function"},{"inputs":[{"internalType":"address","name":"user","type":"address"}],"name":"getNonce","outputs":[{"internalType":"uint256","name":"nonce","type":"uint256"}],"stateMutability":"view","type":"function"},{"inputs":[{"internalType":"address","name":"_owner","type":"address"},{"internalType":"address","name":"_operator","type":"address"}],"name":"isApprovedForAll","outputs":[{"internalType":"bool","name":"isOperator","type":"bool"}],"stateMutability":"view","type":"function"},{"inputs":[{"internalType":"uint256","name":"_id","type":"uint256"}],"name":"isPermanentURI","outputs":[{"internalType":"bool","name":"","type":"bool"}],"stateMutability":"view","type":"function"},{"inputs":[{"internalType":"address","name":"_to","type":"address"},{"internalType":"uint256","name":"_id","type":"uint256"},{"internalType":"uint256","name":"_quantity","type":"uint256"},{"internalType":"bytes","name":"_data","type":"bytes"}],"name":"mint","outputs":[],"stateMutability":"nonpayable","type":"function"},{"inputs":[],"name":"name","outputs":[{"internalType":"string","name":"","type":"string"}],"stateMutability":"view","type":"function"},{"inputs":[],"name":"owner","outputs":[{"internalType":"address","name":"","type":"address"}],"stateMutability":"view","type":"function"},{"inputs":[],"name":"pause","outputs":[],"stateMutability":"nonpayable","type":"function"},{"inputs":[],"name":"paused","outputs":[{"internalType":"bool","name":"","type":"bool"}],"stateMutability":"view","type":"function"},{"inputs":[],"name":"proxyRegistryAddress","outputs":[{"internalType":"address","name":"","type":"address"}],"stateMutability":"view","type":"function"},{"inputs":[],"name":"renounceOwnership","outputs":[],"stateMutability":"nonpayable","type":"function"},{"inputs":[{"internalType":"address","name":"_from","type":"address"},{"internalType":"address","name":"_to","type":"address"},{"internalType":"uint256[]","name":"_ids","type":"uint256[]"},{"internalType":"uint256[]","name":"_amounts","type":"uint256[]"},{"internalType":"bytes","name":"_data","type":"bytes"}],"name":"safeBatchTransferFrom","outputs":[],"stateMutability":"nonpayable","type":"function"},{"inputs":[{"internalType":"address","name":"_from","type":"address"},{"internalType":"address","name":"_to","type":"address"},{"internalType":"uint256","name":"_id","type":"uint256"},{"internalType":"uint256","name":"_amount","type":"uint256"},{"internalType":"bytes","name":"_data","type":"bytes"}],"name":"safeTransferFrom","outputs":[],"stateMutability":"nonpayable","type":"function"},{"inputs":[{"internalType":"address","name":"operator","type":"address"},{"internalType":"bool","name":"approved","type":"bool"}],"name":"setApprovalForAll","outputs":[],"stateMutability":"nonpayable","type":"function"},{"inputs":[{"internalType":"uint256","name":"_id","type":"uint256"},{"internalType":"string","name":"_uri","type":"string"}],"name":"setPermanentURI","outputs":[],"stateMutability":"nonpayable","type":"function"},{"inputs":[{"internalType":"string","name":"_uri","type":"string"}],"name":"setTemplateURI","outputs":[],"stateMutability":"nonpayable","type":"function"},{"inputs":[{"internalType":"uint256","name":"_id","type":"uint256"},{"internalType":"string","name":"_uri","type":"string"}],"name":"setURI","outputs":[],"stateMutability":"nonpayable","type":"function"},{"inputs":[],"name":"supportsFactoryInterface","outputs":[{"internalType":"bool","name":"","type":"bool"}],"stateMutability":"pure","type":"function"},{"inputs":[{"internalType":"bytes4","name":"interfaceId","type":"bytes4"}],"name":"supportsInterface","outputs":[{"internalType":"bool","name":"","type":"bool"}],"stateMutability":"view","type":"function"},{"inputs":[],"name":"symbol","outputs":[{"internalType":"string","name":"","type":"string"}],"stateMutability":"view","type":"function"},{"inputs":[],"name":"templateURI","outputs":[{"internalType":"string","name":"","type":"string"}],"stateMutability":"view","type":"function"},{"inputs":[{"internalType":"uint256","name":"_id","type":"uint256"}],"name":"totalSupply","outputs":[{"internalType":"uint256","name":"","type":"uint256"}],"stateMutability":"view","type":"function"},{"inputs":[{"internalType":"address","name":"newOwner","type":"address"}],"name":"transferOwnership","outputs":[],"stateMutability":"nonpayable","type":"function"},{"inputs":[],"name":"unpause","outputs":[],"stateMutability":"nonpayable","type":"function"},{"inputs":[{"internalType":"uint256","name":"_id","type":"uint256"}],"name":"uri","outputs":[{"internalType":"string","name":"","type":"string"}],"stateMutability":"view","type":"function"}],"evm":{"bytecode":{"linkReferences":{},"object":"60806040526003805460ff191690553480156200001b57600080fd5b5060405162003a9338038062003a938339810160408190526200003e91620004de565b8383826040518060200160405280600081525062000062816200017e60201b60201c565b50620000776200007162000190565b620001ac565b6006805460ff60a01b19169055600762000092848262000620565b506008620000a1838262000620565b50600b80546001600160a01b0319166001600160a01b038316179055600780546200015d9190620000d29062000591565b80601f0160208091040260200160405190810160405280929190818152602001828054620001009062000591565b8015620001515780601f10620001255761010080835404028352916020019162000151565b820191906000526020600020905b8154815290600101906020018083116200013357829003601f168201915b5050620001fe92505050565b505082511590506200017457620001748262000263565b50505050620006ec565b60026200018c828262000620565b5050565b6000620001a7620002ea60201b620011431760201c565b905090565b600680546001600160a01b038381166001600160a01b0319831681179093556040519116919082907f8be0079c531659141344cd1fd0a4f28419497f9722a3daafe3b4186f6b6457e090600090a35050565b60035460ff1615620002485760405162461bcd60e51b815260206004820152600e60248201526d185b1c9958591e481a5b9a5d195960921b60448201526064015b60405180910390fd5b620002538162000348565b506003805460ff19166001179055565b620002776200027162000190565b620003ea565b620002dc5760405162461bcd60e51b815260206004820152602e60248201527f455243313135355472616461626c65236f6e6c794f776e65723a2043414c4c4560448201526d292fa4a9afa727aa2fa7aba722a960911b60648201526084016200023f565b600c6200018c828262000620565b60003033036200034257600080368080601f0160208091040260200160405190810160405280939291908181526020018383808284376000920191909152505050503601516001600160a01b03169150620003459050565b50335b90565b6040518060800160405280604f815260200162003a44604f9139805160209182012082519282019290922060408051808201825260018152603160f81b90840152805180840194909452838101919091527fc89efdaa54c0f20c7adf612882df0950f5a951637e0307cdcb4c672f298b8bc660608401523060808401524660a0808501919091528151808503909101815260c090930190528151910120600455565b60006001600160a01b038216620004096006546001600160a01b031690565b6001600160a01b03161492915050565b634e487b7160e01b600052604160045260246000fd5b600082601f8301126200044157600080fd5b81516001600160401b03808211156200045e576200045e62000419565b604051601f8301601f19908116603f0116810190828211818310171562000489576200048962000419565b81604052838152602092508683858801011115620004a657600080fd5b600091505b83821015620004ca5785820183015181830184015290820190620004ab565b600093810190920192909252949350505050565b60008060008060808587031215620004f557600080fd5b84516001600160401b03808211156200050d57600080fd5b6200051b888389016200042f565b955060208701519150808211156200053257600080fd5b62000540888389016200042f565b945060408701519150808211156200055757600080fd5b5062000566878288016200042f565b606087015190935090506001600160a01b03811681146200058657600080fd5b939692955090935050565b600181811c90821680620005a657607f821691505b602082108103620005c757634e487b7160e01b600052602260045260246000fd5b50919050565b601f8211156200061b57600081815260208120601f850160051c81016020861015620005f65750805b601f850160051c820191505b81811015620006175782815560010162000602565b5050505b505050565b81516001600160401b038111156200063c576200063c62000419565b62000654816200064d845462000591565b84620005cd565b602080601f8311600181146200068c5760008415620006735750858301515b600019600386901b1c1916600185901b17855562000617565b600085815260208120601f198616915b82811015620006bd578886015182559484019460019091019084016200069c565b5085821015620006dc5787850151600019600388901b60f8161c191681555b5050505050600190811b01905550565b61334880620006fc6000396000f3fe6080604052600436106101f85760003560e01c8063715018a61161010d578063bd85b039116100a0578063f242432a1161006f578063f242432a146105d4578063f2fde38b146105f4578063f5298aca14610614578063f6eb127a14610634578063f923e8c31461065457600080fd5b8063bd85b03914610553578063c311c52314610580578063cd7c032614610594578063e985e9c5146105b457600080fd5b80638da5cb5b116100dc5780638da5cb5b146104cc57806395d89b41146104fe578063a22cb46514610513578063b48ab8b61461053357600080fd5b8063715018a614610462578063731133e9146104775780638456cb5914610497578063862440e2146104ac57600080fd5b806324d88785116101905780633588ad7c1161015f5780633588ad7c146103b25780633f4ba83a146103d25780634e1273f4146103e75780634f558e79146104145780635c975abb1461044357600080fd5b806324d88785146103275780632d0335ab146103495780632eb2c2d61461037f5780633408e4701461039f57600080fd5b80630e89341c116101cc5780630e89341c146102955780630f7e5970146102b55780631e7d9dbb146102e257806320379ee51461031257600080fd5b8062fdd58e146101fd57806301ffc9a71461023057806306fdde03146102605780630c53c51c14610282575b600080fd5b34801561020957600080fd5b5061021d61021836600461268f565b610669565b6040519081526020015b60405180910390f35b34801561023c57600080fd5b5061025061024b3660046126cf565b6106a9565b6040519015158152602001610227565b34801561026c57600080fd5b506102756106f9565b604051610227919061273c565b610275610290366004612804565b610787565b3480156102a157600080fd5b506102756102b036600461287f565b610964565b3480156102c157600080fd5b50610275604051806040016040528060018152602001603160f81b81525081565b3480156102ee57600080fd5b506102506102fd36600461287f565b6000908152600e602052604090205460ff1690565b34801561031e57600080fd5b5060045461021d565b34801561033357600080fd5b50610347610342366004612898565b610aa4565b005b34801561035557600080fd5b5061021d6103643660046128cc565b6001600160a01b031660009081526005602052604090205490565b34801561038b57600080fd5b5061034761039a36600461297b565b610ae0565b3480156103ab57600080fd5b504661021d565b3480156103be57600080fd5b506103476103cd366004612a24565b610bbc565b3480156103de57600080fd5b50610347610c23565b3480156103f357600080fd5b50610407610402366004612a6a565b610c54565b6040516102279190612b65565b34801561042057600080fd5b5061025061042f36600461287f565b6000908152600a6020526040902054151590565b34801561044f57600080fd5b50600654600160a01b900460ff16610250565b34801561046e57600080fd5b50610347610d7d565b34801561048357600080fd5b50610347610492366004612b78565b610d8f565b3480156104a357600080fd5b50610347610dc8565b3480156104b857600080fd5b506103476104c7366004612a24565b610df7565b3480156104d857600080fd5b506006546001600160a01b03165b6040516001600160a01b039091168152602001610227565b34801561050a57600080fd5b50610275610e59565b34801561051f57600080fd5b5061034761052e366004612bd8565b610e66565b34801561053f57600080fd5b5061034761054e366004612c14565b610e78565b34801561055f57600080fd5b5061021d61056e36600461287f565b6000908152600a602052604090205490565b34801561058c57600080fd5b506001610250565b3480156105a057600080fd5b50600b546104e6906001600160a01b031681565b3480156105c057600080fd5b506102506105cf366004612ca0565b610eab565b3480156105e057600080fd5b506103476105ef366004612cd3565b610efd565b34801561060057600080fd5b5061034761060f3660046128cc565b610f4d565b34801561062057600080fd5b5061034761062f366004612d37565b610fc6565b34801561064057600080fd5b5061034761064f366004612d6a565b61105d565b34801561066057600080fd5b50610275611136565b600080610676848461119f565b90506106828385611233565b61068c578061069f565b6106958361123e565b61069f9082612df3565b9150505b92915050565b60006001600160e01b03198216636cdb3d1360e11b14806106da57506001600160e01b031982166303a24d0760e21b145b806106a357506301ffc9a760e01b6001600160e01b03198316146106a3565b6007805461070690612e06565b80601f016020809104026020016040519081016040528092919081815260200182805461073290612e06565b801561077f5780601f106107545761010080835404028352916020019161077f565b820191906000526020600020905b81548152906001019060200180831161076257829003601f168201915b505050505081565b60408051606081810183526001600160a01b038816600081815260056020908152908590205484528301529181018690526107c58782878787611258565b6108205760405162461bcd60e51b815260206004820152602160248201527f5369676e657220616e64207369676e617475726520646f206e6f74206d6174636044820152600d60fb1b60648201526084015b60405180910390fd5b6001600160a01b0387166000908152600560205260408120805460019290610849908490612df3565b90915550506040517f5845892132946850460bff5a0083f71031bc5bf9aadcd40f1de79423eac9b10b9061088290899033908a90612e40565b60405180910390a1600080306001600160a01b0316888a6040516020016108aa929190612e75565b60408051601f19818403018152908290526108c491612eac565b6000604051808303816000865af19150503d8060008114610901576040519150601f19603f3d011682016040523d82523d6000602084013e610906565b606091505b5091509150816109585760405162461bcd60e51b815260206004820152601c60248201527f46756e6374696f6e2063616c6c206e6f74207375636365737366756c000000006044820152606401610817565b98975050505050505050565b6000818152600d602052604081208054606092919061098290612e06565b80601f01602080910402602001604051908101604052809291908181526020018280546109ae90612e06565b80156109fb5780601f106109d0576101008083540402835291602001916109fb565b820191906000526020600020905b8154815290600101906020018083116109de57829003601f168201915b505050505090508051600014610a115792915050565b600c8054610a1e90612e06565b80601f0160208091040260200160405190810160405280929190818152602001828054610a4a90612e06565b8015610a975780601f10610a6c57610100808354040283529160200191610a97565b820191906000526020600020905b815481529060010190602001808311610a7a57829003601f168201915b5050505050915050919050565b610ab4610aaf611348565b611357565b610ad05760405162461bcd60e51b815260040161081790612ec8565b600c610adc8282612f5c565b5050565b8151835114610b575760405162461bcd60e51b815260206004820152603a60248201527f4173736574436f6e7472616374237361666542617463685472616e736665724660448201527f726f6d3a20494e56414c49445f4152524159535f4c454e4754480000000000006064820152608401610817565b60005b8351811015610bb457610ba28686868481518110610b7a57610b7a61301b565b6020026020010151868581518110610b9457610b9461301b565b602002602001015186610efd565b80610bac81613031565b915050610b5a565b505050505050565b610bc7610aaf611348565b610be35760405162461bcd60e51b815260040161081790612ec8565b6000828152600e6020526040902054829060ff1615610c145760405162461bcd60e51b81526004016108179061304a565b610c1e8383611385565b505050565b610c2e610aaf611348565b610c4a5760405162461bcd60e51b815260040161081790612ec8565b610c5261144b565b565b60608151835114610cb95760405162461bcd60e51b815260206004820152602960248201527f455243313135353a206163636f756e747320616e6420696473206c656e677468604482015268040dad2e6dac2e8c6d60bb1b6064820152608401610817565b600083516001600160401b03811115610cd457610cd461274f565b604051908082528060200260200182016040528015610cfd578160200160208202803683370190505b50905060005b8451811015610d7557610d48858281518110610d2157610d2161301b565b6020026020010151858381518110610d3b57610d3b61301b565b6020026020010151610669565b828281518110610d5a57610d5a61301b565b6020908102919091010152610d6e81613031565b9050610d03565b509392505050565b610d856114a6565b610c52600061151f565b610d9a610aaf611348565b610db65760405162461bcd60e51b815260040161081790612ec8565b610dc284848484611571565b50505050565b610dd3610aaf611348565b610def5760405162461bcd60e51b815260040161081790612ec8565b610c52611591565b610e02610aaf611348565b610e1e5760405162461bcd60e51b815260040161081790612ec8565b6000828152600e6020526040902054829060ff1615610e4f5760405162461bcd60e51b81526004016108179061304a565b610c1e83836115d5565b6008805461070690612e06565b610adc610e71611348565b838361161e565b610e83610aaf611348565b610e9f5760405162461bcd60e51b815260040161081790612ec8565b610dc2848484846116fe565b600b546000906001600160a01b0390811690831603610ecc575060016106a3565b6001600160a01b0380841660009081526001602090815260408083209386168352929052205460ff165b9392505050565b6000610f09868561119f565b905082811015610f4057610f288585610f2284876130a7565b85610d8f565b8015610f3b57610f3b868686848661175c565b610bb4565b610bb4868686868661175c565b610f556114a6565b6001600160a01b038116610fba5760405162461bcd60e51b815260206004820152602660248201527f4f776e61626c653a206e6577206f776e657220697320746865207a65726f206160448201526564647265737360d01b6064820152608401610817565b610fc38161151f565b50565b828282610fd483838361196f565b6110525760405162461bcd60e51b815260206004820152604360248201527f4173736574436f6e7472616374236f6e6c79546f6b656e416d6f756e744f776e60448201527f65643a204f4e4c595f544f4b454e5f414d4f554e545f4f574e45445f414c4c4f60648201526215d15160ea1b608482015260a401610817565b610bb4868686611986565b60005b825181101561112a576110a68484838151811061107f5761107f61301b565b60200260200101518484815181106110995761109961301b565b602002602001015161196f565b6111185760405162461bcd60e51b815260206004820152603860248201527f4173736574436f6e74726163742362617463684275726e3a204f4e4c595f544f60448201527f4b454e5f414d4f554e545f4f574e45445f414c4c4f57454400000000000000006064820152608401610817565b8061112281613031565b915050611060565b50610c1e8383836119dc565b600c805461070690612e06565b600030330361119957600080368080601f0160208091040260200160405190810160405280939291908181526020018383808284376000920191909152505050503601516001600160a01b0316915061119c9050565b50335b90565b60006001600160a01b03831661120b5760405162461bcd60e51b815260206004820152602b60248201527f455243313135353a2062616c616e636520717565727920666f7220746865207a60448201526a65726f206164647265737360a81b6064820152608401610817565b5060009081526009602090815260408083206001600160a01b03949094168352929052205490565b6000610ef682611357565b6000818152600a60205260408120546106a39060016130a7565b60006001600160a01b0386166112be5760405162461bcd60e51b815260206004820152602560248201527f4e61746976654d6574615472616e73616374696f6e3a20494e56414c49445f5360448201526424a3a722a960d91b6064820152608401610817565b60016112d16112cc87611a32565b611aaf565b6040805160008152602081018083529290925260ff851690820152606081018690526080810185905260a0016020604051602081039080840390855afa15801561131f573d6000803e3d6000fd5b505050602060405103516001600160a01b0316866001600160a01b031614905095945050505050565b6000611352611143565b905090565b6000816001600160a01b03166113756006546001600160a01b031690565b6001600160a01b03161492915050565b60008151116113ec5760405162461bcd60e51b815260206004820152602d60248201527f4173736574436f6e7472616374237365745065726d616e656e745552493a204f60448201526c4e4c595f56414c49445f55524960981b6064820152608401610817565b6000828152600e60205260409020805460ff1916600117905561140f82826115d5565b817fa109ba539900bf1b633f956d63c96fc89b814c7287f7aa50a9216d0b556572078260405161143f919061273c565b60405180910390a25050565b611453611adf565b6006805460ff60a01b191690557f5db9ee0a495bf2e6ff9c91a7834c1ba4fdd244a5e8aa4e537bd38aeae4b073aa611489611348565b6040516001600160a01b03909116815260200160405180910390a1565b6114ae611348565b6001600160a01b03166114c96006546001600160a01b031690565b6001600160a01b031614610c525760405162461bcd60e51b815260206004820181905260248201527f4f776e61626c653a2063616c6c6572206973206e6f7420746865206f776e65726044820152606401610817565b600680546001600160a01b038381166001600160a01b0319831681179093556040519116919082907f8be0079c531659141344cd1fd0a4f28419497f9722a3daafe3b4186f6b6457e090600090a35050565b61157d84848484611b2f565b600181511115610dc257610dc28382610df7565b611599611c3c565b6006805460ff60a01b1916600160a01b1790557f62e78cea01bee320cd4e420270b5ea74000d11b0c9f74754ebdbfc544b05a258611489611348565b6000828152600d602052604090206115ed8282612f5c565b50817f6bb7ff708619ba0610cba295a58592e0451dee2622938c8755667688daf3529b8260405161143f919061273c565b816001600160a01b0316836001600160a01b0316036116915760405162461bcd60e51b815260206004820152602960248201527f455243313135353a2073657474696e6720617070726f76616c20737461747573604482015268103337b91039b2b63360b91b6064820152608401610817565b6001600160a01b03838116600081815260016020908152604080832094871680845294825291829020805460ff191686151590811790915591519182527f17307eab39ab6107e8899845ad3d59bd9653f200f220920489ca2b5937696c31910160405180910390a3505050565b61170a84848484611c89565b600181511115610dc25760005b8351811015611755576117438482815181106117355761173561301b565b602002602001015183610df7565b8061174d81613031565b915050611717565b5050505050565b611764611c3c565b8461176d611348565b6001600160a01b0316816001600160a01b031614806117935750611793816105cf611348565b6117af5760405162461bcd60e51b8152600401610817906130ba565b6001600160a01b0385166118135760405162461bcd60e51b815260206004820152602560248201527f455243313135353a207472616e7366657220746f20746865207a65726f206164604482015264647265737360d81b6064820152608401610817565b600061181d611348565b905061183781888861182e89611eec565b61175589611eec565b60008581526009602090815260408083206001600160a01b038b168452909152902054848110156118bd5760405162461bcd60e51b815260206004820152602a60248201527f455243313135353a20696e73756666696369656e742062616c616e636520666f60448201526939103a3930b739b332b960b11b6064820152608401610817565b6118c785826130a7565b60008781526009602090815260408083206001600160a01b038d81168552925280832093909355891681529081208054879290611905908490612df3565b909155505060408051878152602081018790526001600160a01b03808a16928b821692918616917fc3d58168c5ae7397731d063d5bbf3d657854427343f4c083240f7aacaa2d0f62910160405180910390a4611965828989898989611f37565b5050505050505050565b60008161197c8585610669565b1015949350505050565b8261198f611348565b6001600160a01b0316816001600160a01b031614806119b557506119b5816105cf611348565b6119d15760405162461bcd60e51b8152600401610817906130ba565b610dc2848484612092565b826119e5611348565b6001600160a01b0316816001600160a01b03161480611a0b5750611a0b816105cf611348565b611a275760405162461bcd60e51b8152600401610817906130ba565b610dc28484846122b8565b60006040518060800160405280604381526020016132d06043913980516020918201208351848301516040808701518051908601209051611a92950193845260208401929092526001600160a01b03166040830152606082015260800190565b604051602081830303815290604052805190602001209050919050565b6000611aba60045490565b60405161190160f01b6020820152602281019190915260428101839052606201611a92565b600654600160a01b900460ff16610c525760405162461bcd60e51b815260206004820152601460248201527314185d5cd8589b194e881b9bdd081c185d5cd95960621b6044820152606401610817565b611b37611c3c565b6000611b41611348565b9050611b5c81600087611b5388611eec565b61175588611eec565b611b668484612526565b60008481526009602090815260408083206001600160a01b038916845290915281208054859290611b98908490612df3565b90915550506000848152600a602052604081208054859290611bbb908490612df3565b9091555060009050611bcc856125a4565b9050856001600160a01b0316816001600160a01b0316836001600160a01b03167fc3d58168c5ae7397731d063d5bbf3d657854427343f4c083240f7aacaa2d0f628888604051611c26929190918252602082015260400190565b60405180910390a4610bb4828288888888611f37565b600654600160a01b900460ff1615610c525760405162461bcd60e51b815260206004820152601060248201526f14185d5cd8589b194e881c185d5cd95960821b6044820152606401610817565b611c91611c3c565b8151835114611cfb5760405162461bcd60e51b815260206004820152603060248201527f455243313135355472616461626c652362617463684d696e743a20494e56414c60448201526f09288be82a4a482b2a6be988a9c8ea8960831b6064820152608401610817565b82516000611d1e858284611d1157611d1161301b565b60200260200101516125a4565b90506000611d2a611348565b905060005b83811015611e7d576000878281518110611d4b57611d4b61301b565b602002602001015190506000878381518110611d6957611d6961301b565b60200260200101519050611d7d8282612526565b846001600160a01b0316611d90836125a4565b6001600160a01b031614611e0c5760405162461bcd60e51b815260206004820152603760248201527f455243313135355472616461626c652362617463684d696e743a204d554c544960448201527f504c455f4f524947494e535f4e4f545f414c4c4f5745440000000000000000006064820152608401610817565b60008281526009602090815260408083206001600160a01b038e16845290915281208054839290611e3e908490612df3565b90915550506000828152600a602052604081208054839290611e61908490612df3565b9250508190555050508080611e7590613031565b915050611d2f565b50866001600160a01b0316826001600160a01b0316826001600160a01b03167f4a39dc06d4c0dbc64b70af90fd698a233a518aa5d07e595d983b8c0526c8f7fb8989604051611ecd92919061310a565b60405180910390a4611ee38183898989896125b8565b50505050505050565b60408051600180825281830190925260609160009190602080830190803683370190505090508281600081518110611f2657611f2661301b565b602090810291909101015292915050565b6001600160a01b0384163b15610bb45760405163f23a6e6160e01b81526001600160a01b0385169063f23a6e6190611f7b908990899088908890889060040161312f565b6020604051808303816000875af1925050508015611fb6575060408051601f3d908101601f19168201909252611fb391810190613174565b60015b61206257611fc2613191565b806308c379a003611ffb5750611fd66131ac565b80611fe15750611ffd565b8060405162461bcd60e51b8152600401610817919061273c565b505b60405162461bcd60e51b815260206004820152603460248201527f455243313135353a207472616e7366657220746f206e6f6e20455243313135356044820152732932b1b2b4bb32b91034b6b83632b6b2b73a32b960611b6064820152608401610817565b6001600160e01b0319811663f23a6e6160e01b14611ee35760405162461bcd60e51b815260040161081790613235565b61209a611c3c565b6001600160a01b0383166120fe5760405162461bcd60e51b815260206004820152602560248201527f45524331313535235f6275726e3a204255524e5f46524f4d5f5a45524f5f4144604482015264445245535360d81b6064820152608401610817565b6000811161215a5760405162461bcd60e51b815260206004820152602360248201527f45524331313535235f6275726e3a20414d4f554e545f4c4553535f5448414e5f6044820152624f4e4560e81b6064820152608401610817565b6000612164611348565b90506121958185600061217687611eec565b61217f87611eec565b5050604080516020810190915260009052505050565b60008381526009602090815260408083206001600160a01b0388168452909152902054828110156122165760405162461bcd60e51b815260206004820152602560248201527f45524331313535235f6275726e3a20414d4f554e545f455843454544535f42416044820152644c414e434560d81b6064820152608401610817565b61222083826130a7565b60008581526009602090815260408083206001600160a01b038a168452825280832093909355868252600a905290812080548592906122609084906130a7565b909155505060408051858152602081018590526000916001600160a01b0388811692908616917fc3d58168c5ae7397731d063d5bbf3d657854427343f4c083240f7aacaa2d0f62910160405180910390a45050505050565b6122c0611c3c565b6001600160a01b0383166123165760405162461bcd60e51b815260206004820152601f60248201527f455243313135353a204255524e5f46524f4d5f5a45524f5f41444452455353006044820152606401610817565b80518251146123735760405162461bcd60e51b8152602060048201526024808201527f455243313135353a204944535f414d4f554e54535f4c454e4754485f4d49534d604482015263082a886960e31b6064820152608401610817565b600061237d611348565b604080516020810190915260009052905060005b83518110156124c75760008482815181106123ae576123ae61301b565b6020026020010151905060008483815181106123cc576123cc61301b565b60209081029190910181015160008481526009835260408082206001600160a01b038c1683529093529190912054909150818110156124605760405162461bcd60e51b815260206004820152602a60248201527f45524331313535235f6275726e42617463683a20414d4f554e545f455843454560448201526944535f42414c414e434560b01b6064820152608401610817565b61246a82826130a7565b60008481526009602090815260408083206001600160a01b038d168452825280832093909355858252600a905290812080548492906124aa9084906130a7565b9250508190555050505080806124bf90613031565b915050612391565b5060006001600160a01b0316846001600160a01b0316826001600160a01b03167f4a39dc06d4c0dbc64b70af90fd698a233a518aa5d07e595d983b8c0526c8f7fb868660405161251892919061310a565b60405180910390a450505050565b61252f8261123e565b811115610adc5760405162461bcd60e51b815260206004820152603c60248201527f4173736574436f6e7472616374235f6265666f72654d696e743a205155414e5460448201527f4954595f455843454544535f544f4b454e5f535550504c595f434150000000006064820152608401610817565b60006106a36006546001600160a01b031690565b6001600160a01b0384163b15610bb45760405163bc197c8160e01b81526001600160a01b0385169063bc197c81906125fc908990899088908890889060040161327d565b6020604051808303816000875af1925050508015612637575060408051601f3d908101601f1916820190925261263491810190613174565b60015b61264357611fc2613191565b6001600160e01b0319811663bc197c8160e01b14611ee35760405162461bcd60e51b815260040161081790613235565b80356001600160a01b038116811461268a57600080fd5b919050565b600080604083850312156126a257600080fd5b6126ab83612673565b946020939093013593505050565b6001600160e01b031981168114610fc357600080fd5b6000602082840312156126e157600080fd5b8135610ef6816126b9565b60005b838110156127075781810151838201526020016126ef565b50506000910152565b600081518084526127288160208601602086016126ec565b601f01601f19169290920160200192915050565b602081526000610ef66020830184612710565b634e487b7160e01b600052604160045260246000fd5b601f8201601f191681016001600160401b038111828210171561278a5761278a61274f565b6040525050565b600082601f8301126127a257600080fd5b81356001600160401b038111156127bb576127bb61274f565b6040516127d2601f8301601f191660200182612765565b8181528460208386010111156127e757600080fd5b816020850160208301376000918101602001919091529392505050565b600080600080600060a0868803121561281c57600080fd5b61282586612673565b945060208601356001600160401b0381111561284057600080fd5b61284c88828901612791565b9450506040860135925060608601359150608086013560ff8116811461287157600080fd5b809150509295509295909350565b60006020828403121561289157600080fd5b5035919050565b6000602082840312156128aa57600080fd5b81356001600160401b038111156128c057600080fd5b61069f84828501612791565b6000602082840312156128de57600080fd5b610ef682612673565b60006001600160401b038211156129005761290061274f565b5060051b60200190565b600082601f83011261291b57600080fd5b81356020612928826128e7565b6040516129358282612765565b83815260059390931b850182019282810191508684111561295557600080fd5b8286015b848110156129705780358352918301918301612959565b509695505050505050565b600080600080600060a0868803121561299357600080fd5b61299c86612673565b94506129aa60208701612673565b935060408601356001600160401b03808211156129c657600080fd5b6129d289838a0161290a565b945060608801359150808211156129e857600080fd5b6129f489838a0161290a565b93506080880135915080821115612a0a57600080fd5b50612a1788828901612791565b9150509295509295909350565b60008060408385031215612a3757600080fd5b8235915060208301356001600160401b03811115612a5457600080fd5b612a6085828601612791565b9150509250929050565b60008060408385031215612a7d57600080fd5b82356001600160401b0380821115612a9457600080fd5b818501915085601f830112612aa857600080fd5b81356020612ab5826128e7565b604051612ac28282612765565b83815260059390931b8501820192828101915089841115612ae257600080fd5b948201945b83861015612b0757612af886612673565b82529482019490820190612ae7565b96505086013592505080821115612b1d57600080fd5b50612a608582860161290a565b600081518084526020808501945080840160005b83811015612b5a57815187529582019590820190600101612b3e565b509495945050505050565b602081526000610ef66020830184612b2a565b60008060008060808587031215612b8e57600080fd5b612b9785612673565b9350602085013592506040850135915060608501356001600160401b03811115612bc057600080fd5b612bcc87828801612791565b91505092959194509250565b60008060408385031215612beb57600080fd5b612bf483612673565b915060208301358015158114612c0957600080fd5b809150509250929050565b60008060008060808587031215612c2a57600080fd5b612c3385612673565b935060208501356001600160401b0380821115612c4f57600080fd5b612c5b8883890161290a565b94506040870135915080821115612c7157600080fd5b612c7d8883890161290a565b93506060870135915080821115612c9357600080fd5b50612bcc87828801612791565b60008060408385031215612cb357600080fd5b612cbc83612673565b9150612cca60208401612673565b90509250929050565b600080600080600060a08688031215612ceb57600080fd5b612cf486612673565b9450612d0260208701612673565b9350604086013592506060860135915060808601356001600160401b03811115612d2b57600080fd5b612a1788828901612791565b600080600060608486031215612d4c57600080fd5b612d5584612673565b95602085013595506040909401359392505050565b600080600060608486031215612d7f57600080fd5b612d8884612673565b925060208401356001600160401b0380821115612da457600080fd5b612db08783880161290a565b93506040860135915080821115612dc657600080fd5b50612dd38682870161290a565b9150509250925092565b634e487b7160e01b600052601160045260246000fd5b808201808211156106a3576106a3612ddd565b600181811c90821680612e1a57607f821691505b602082108103612e3a57634e487b7160e01b600052602260045260246000fd5b50919050565b6001600160a01b03848116825283166020820152606060408201819052600090612e6c90830184612710565b95945050505050565b60008351612e878184602088016126ec565b60609390931b6bffffffffffffffffffffffff19169190920190815260140192915050565b60008251612ebe8184602087016126ec565b9190910192915050565b6020808252602e908201527f455243313135355472616461626c65236f6e6c794f776e65723a2043414c4c4560408201526d292fa4a9afa727aa2fa7aba722a960911b606082015260800190565b601f821115610c1e57600081815260208120601f850160051c81016020861015612f3d5750805b601f850160051c820191505b81811015610bb457828155600101612f49565b81516001600160401b03811115612f7557612f7561274f565b612f8981612f838454612e06565b84612f16565b602080601f831160018114612fbe5760008415612fa65750858301515b600019600386901b1c1916600185901b178555610bb4565b600085815260208120601f198616915b82811015612fed57888601518255948401946001909101908401612fce565b508582101561300b5787850151600019600388901b60f8161c191681555b5050505050600190811b01905550565b634e487b7160e01b600052603260045260246000fd5b60006001820161304357613043612ddd565b5060010190565b60208082526037908201527f4173736574436f6e7472616374236f6e6c79496d7065726d616e656e7455524960408201527f3a205552495f43414e4e4f545f42455f4348414e474544000000000000000000606082015260800190565b818103818111156106a3576106a3612ddd565b60208082526030908201527f455243313135355472616461626c65236f6e6c79417070726f7665643a20434160408201526f1313115497d393d517d0531313d5d15160821b606082015260800190565b60408152600061311d6040830185612b2a565b8281036020840152612e6c8185612b2a565b6001600160a01b03868116825285166020820152604081018490526060810183905260a06080820181905260009061316990830184612710565b979650505050505050565b60006020828403121561318657600080fd5b8151610ef6816126b9565b600060033d111561119c5760046000803e5060005160e01c90565b600060443d10156131ba5790565b6040516003193d81016004833e81513d6001600160401b0381602484011181841117156131e957505050505090565b82850191508151818111156132015750505050505090565b843d870101602082850101111561321b5750505050505090565b61322a60208286010187612765565b509095945050505050565b60208082526028908201527f455243313135353a204552433131353552656365697665722072656a656374656040820152676420746f6b656e7360c01b606082015260800190565b6001600160a01b0386811682528516602082015260a0604082018190526000906132a990830186612b2a565b82810360608401526132bb8186612b2a565b90508281036080840152610958818561271056fe4d6574615472616e73616374696f6e2875696e74323536206e6f6e63652c616464726573732066726f6d2c62797465732066756e6374696f6e5369676e617475726529a26469706673582212201fd39f9612b0cca28a5fba700c144cfd1acaaffed88ed1b1de52bbd1a040d32664736f6c63430008110033454950373132446f6d61696e28737472696e67206e616d652c737472696e672076657273696f6e2c6164647265737320766572696679696e67436f6e74726163742c627974657333322073616c7429","opcodes":"PUSH1 0x80 PUSH1 0x40 MSTORE PUSH1 0x3 DUP1 SLOAD PUSH1 0xFF NOT AND SWAP1 SSTORE CALLVALUE DUP1 ISZERO PUSH3 0x1B JUMPI PUSH1 0x0 DUP1 REVERT JUMPDEST POP PUSH1 0x40 MLOAD PUSH3 0x3A93 CODESIZE SUB DUP1 PUSH3 0x3A93 DUP4 CODECOPY DUP2 ADD PUSH1 0x40 DUP2 SWAP1 MSTORE PUSH3 0x3E SWAP2 PUSH3 0x4DE JUMP JUMPDEST DUP4 DUP4 DUP3 PUSH1 0x40 MLOAD DUP1 PUSH1 0x20 ADD PUSH1 0x40 MSTORE DUP1 PUSH1 0x0 DUP2 MSTORE POP PUSH3 0x62 DUP2 PUSH3 0x17E PUSH1 0x20 SHL PUSH1 0x20 SHR JUMP JUMPDEST POP PUSH3 0x77 PUSH3 0x71 PUSH3 0x190 JUMP JUMPDEST PUSH3 0x1AC JUMP JUMPDEST PUSH1 0x6 DUP1 SLOAD PUSH1 0xFF PUSH1 0xA0 SHL NOT AND SWAP1 SSTORE PUSH1 0x7 PUSH3 0x92 DUP5 DUP3 PUSH3 0x620 JUMP JUMPDEST POP PUSH1 0x8 PUSH3 0xA1 DUP4 DUP3 PUSH3 0x620 JUMP JUMPDEST POP PUSH1 0xB DUP1 SLOAD PUSH1 0x1 PUSH1 0x1 PUSH1 0xA0 SHL SUB NOT AND PUSH1 0x1 PUSH1 0x1 PUSH1 0xA0 SHL SUB DUP4 AND OR SWAP1 SSTORE PUSH1 0x7 DUP1 SLOAD PUSH3 0x15D SWAP2 SWAP1 PUSH3 0xD2 SWAP1 PUSH3 0x591 JUMP JUMPDEST DUP1 PUSH1 0x1F ADD PUSH1 0x20 DUP1 SWAP2 DIV MUL PUSH1 0x20 ADD PUSH1 0x40 MLOAD SWAP1 DUP2 ADD PUSH1 0x40 MSTORE DUP1 SWAP3 SWAP2 SWAP1 DUP2 DUP2 MSTORE PUSH1 0x20 ADD DUP3 DUP1 SLOAD PUSH3 0x100 SWAP1 PUSH3 0x591 JUMP JUMPDEST DUP1 ISZERO PUSH3 0x151 JUMPI DUP1 PUSH1 0x1F LT PUSH3 0x125 JUMPI PUSH2 0x100 DUP1 DUP4 SLOAD DIV MUL DUP4 MSTORE SWAP2 PUSH1 0x20 ADD SWAP2 PUSH3 0x151 JUMP JUMPDEST DUP3 ADD SWAP2 SWAP1 PUSH1 0x0 MSTORE PUSH1 0x20 PUSH1 0x0 KECCAK256 SWAP1 JUMPDEST DUP2 SLOAD DUP2 MSTORE SWAP1 PUSH1 0x1 ADD SWAP1 PUSH1 0x20 ADD DUP1 DUP4 GT PUSH3 0x133 JUMPI DUP3 SWAP1 SUB PUSH1 0x1F AND DUP3 ADD SWAP2 JUMPDEST POP POP PUSH3 0x1FE SWAP3 POP POP POP JUMP JUMPDEST POP POP DUP3 MLOAD ISZERO SWAP1 POP PUSH3 0x174 JUMPI PUSH3 0x174 DUP3 PUSH3 0x263 JUMP JUMPDEST POP POP POP POP PUSH3 0x6EC JUMP JUMPDEST PUSH1 0x2 PUSH3 0x18C DUP3 DUP3 PUSH3 0x620 JUMP JUMPDEST POP POP JUMP JUMPDEST PUSH1 0x0 PUSH3 0x1A7 PUSH3 0x2EA PUSH1 0x20 SHL PUSH3 0x1143 OR PUSH1 0x20 SHR JUMP JUMPDEST SWAP1 POP SWAP1 JUMP JUMPDEST PUSH1 0x6 DUP1 SLOAD PUSH1 0x1 PUSH1 0x1 PUSH1 0xA0 SHL SUB DUP4 DUP2 AND PUSH1 0x1 PUSH1 0x1 PUSH1 0xA0 SHL SUB NOT DUP4 AND DUP2 OR SWAP1 SWAP4 SSTORE PUSH1 0x40 MLOAD SWAP2 AND SWAP2 SWAP1 DUP3 SWAP1 PUSH32 0x8BE0079C531659141344CD1FD0A4F28419497F9722A3DAAFE3B4186F6B6457E0 SWAP1 PUSH1 0x0 SWAP1 LOG3 POP POP JUMP JUMPDEST PUSH1 0x3 SLOAD PUSH1 0xFF AND ISZERO PUSH3 0x248 JUMPI PUSH1 0x40 MLOAD PUSH3 0x461BCD PUSH1 0xE5 SHL DUP2 MSTORE PUSH1 0x20 PUSH1 0x4 DUP3 ADD MSTORE PUSH1 0xE PUSH1 0x24 DUP3 ADD MSTORE PUSH14 0x185B1C9958591E481A5B9A5D1959 PUSH1 0x92 SHL PUSH1 0x44 DUP3 ADD MSTORE PUSH1 0x64 ADD JUMPDEST PUSH1 0x40 MLOAD DUP1 SWAP2 SUB SWAP1 REVERT JUMPDEST PUSH3 0x253 DUP2 PUSH3 0x348 JUMP JUMPDEST POP PUSH1 0x3 DUP1 SLOAD PUSH1 0xFF NOT AND PUSH1 0x1 OR SWAP1 SSTORE JUMP JUMPDEST PUSH3 0x277 PUSH3 0x271 PUSH3 0x190 JUMP JUMPDEST PUSH3 0x3EA JUMP JUMPDEST PUSH3 0x2DC JUMPI PUSH1 0x40 MLOAD PUSH3 0x461BCD PUSH1 0xE5 SHL DUP2 MSTORE PUSH1 0x20 PUSH1 0x4 DUP3 ADD MSTORE PUSH1 0x2E PUSH1 0x24 DUP3 ADD MSTORE PUSH32 0x455243313135355472616461626C65236F6E6C794F776E65723A2043414C4C45 PUSH1 0x44 DUP3 ADD MSTORE PUSH14 0x292FA4A9AFA727AA2FA7ABA722A9 PUSH1 0x91 SHL PUSH1 0x64 DUP3 ADD MSTORE PUSH1 0x84 ADD PUSH3 0x23F JUMP JUMPDEST PUSH1 0xC PUSH3 0x18C DUP3 DUP3 PUSH3 0x620 JUMP JUMPDEST PUSH1 0x0 ADDRESS CALLER SUB PUSH3 0x342 JUMPI PUSH1 0x0 DUP1 CALLDATASIZE DUP1 DUP1 PUSH1 0x1F ADD PUSH1 0x20 DUP1 SWAP2 DIV MUL PUSH1 0x20 ADD PUSH1 0x40 MLOAD SWAP1 DUP2 ADD PUSH1 0x40 MSTORE DUP1 SWAP4 SWAP3 SWAP2 SWAP1 DUP2 DUP2 MSTORE PUSH1 0x20 ADD DUP4 DUP4 DUP1 DUP3 DUP5 CALLDATACOPY PUSH1 0x0 SWAP3 ADD SWAP2 SWAP1 SWAP2 MSTORE POP POP POP POP CALLDATASIZE ADD MLOAD PUSH1 0x1 PUSH1 0x1 PUSH1 0xA0 SHL SUB AND SWAP2 POP PUSH3 0x345 SWAP1 POP JUMP JUMPDEST POP CALLER JUMPDEST SWAP1 JUMP JUMPDEST PUSH1 0x40 MLOAD DUP1 PUSH1 0x80 ADD PUSH1 0x40 MSTORE DUP1 PUSH1 0x4F DUP2 MSTORE PUSH1 0x20 ADD PUSH3 0x3A44 PUSH1 0x4F SWAP2 CODECOPY DUP1 MLOAD PUSH1 0x20 SWAP2 DUP3 ADD KECCAK256 DUP3 MLOAD SWAP3 DUP3 ADD SWAP3 SWAP1 SWAP3 KECCAK256 PUSH1 0x40 DUP1 MLOAD DUP1 DUP3 ADD DUP3 MSTORE PUSH1 0x1 DUP2 MSTORE PUSH1 0x31 PUSH1 0xF8 SHL SWAP1 DUP5 ADD MSTORE DUP1 MLOAD DUP1 DUP5 ADD SWAP5 SWAP1 SWAP5 MSTORE DUP4 DUP2 ADD SWAP2 SWAP1 SWAP2 MSTORE PUSH32 0xC89EFDAA54C0F20C7ADF612882DF0950F5A951637E0307CDCB4C672F298B8BC6 PUSH1 0x60 DUP5 ADD MSTORE ADDRESS PUSH1 0x80 DUP5 ADD MSTORE CHAINID PUSH1 0xA0 DUP1 DUP6 ADD SWAP2 SWAP1 SWAP2 MSTORE DUP2 MLOAD DUP1 DUP6 SUB SWAP1 SWAP2 ADD DUP2 MSTORE PUSH1 0xC0 SWAP1 SWAP4 ADD SWAP1 MSTORE DUP2 MLOAD SWAP2 ADD KECCAK256 PUSH1 0x4 SSTORE JUMP JUMPDEST PUSH1 0x0 PUSH1 0x1 PUSH1 0x1 PUSH1 0xA0 SHL SUB DUP3 AND PUSH3 0x409 PUSH1 0x6 SLOAD PUSH1 0x1 PUSH1 0x1 PUSH1 0xA0 SHL SUB AND SWAP1 JUMP JUMPDEST PUSH1 0x1 PUSH1 0x1 PUSH1 0xA0 SHL SUB AND EQ SWAP3 SWAP2 POP POP JUMP JUMPDEST PUSH4 0x4E487B71 PUSH1 0xE0 SHL PUSH1 0x0 MSTORE PUSH1 0x41 PUSH1 0x4 MSTORE PUSH1 0x24 PUSH1 0x0 REVERT JUMPDEST PUSH1 0x0 DUP3 PUSH1 0x1F DUP4 ADD SLT PUSH3 0x441 JUMPI PUSH1 0x0 DUP1 REVERT JUMPDEST DUP2 MLOAD PUSH1 0x1 PUSH1 0x1 PUSH1 0x40 SHL SUB DUP1 DUP3 GT ISZERO PUSH3 0x45E JUMPI PUSH3 0x45E PUSH3 0x419 JUMP JUMPDEST PUSH1 0x40 MLOAD PUSH1 0x1F DUP4 ADD PUSH1 0x1F NOT SWAP1 DUP2 AND PUSH1 0x3F ADD AND DUP2 ADD SWAP1 DUP3 DUP3 GT DUP2 DUP4 LT OR ISZERO PUSH3 0x489 JUMPI PUSH3 0x489 PUSH3 0x419 JUMP JUMPDEST DUP2 PUSH1 0x40 MSTORE DUP4 DUP2 MSTORE PUSH1 0x20 SWAP3 POP DUP7 DUP4 DUP6 DUP9 ADD ADD GT ISZERO PUSH3 0x4A6 JUMPI PUSH1 0x0 DUP1 REVERT JUMPDEST PUSH1 0x0 SWAP2 POP JUMPDEST DUP4 DUP3 LT ISZERO PUSH3 0x4CA JUMPI DUP6 DUP3 ADD DUP4 ADD MLOAD DUP2 DUP4 ADD DUP5 ADD MSTORE SWAP1 DUP3 ADD SWAP1 PUSH3 0x4AB JUMP JUMPDEST PUSH1 0x0 SWAP4 DUP2 ADD SWAP1 SWAP3 ADD SWAP3 SWAP1 SWAP3 MSTORE SWAP5 SWAP4 POP POP POP POP JUMP JUMPDEST PUSH1 0x0 DUP1 PUSH1 0x0 DUP1 PUSH1 0x80 DUP6 DUP8 SUB SLT ISZERO PUSH3 0x4F5 JUMPI PUSH1 0x0 DUP1 REVERT JUMPDEST DUP5 MLOAD PUSH1 0x1 PUSH1 0x1 PUSH1 0x40 SHL SUB DUP1 DUP3 GT ISZERO PUSH3 0x50D JUMPI PUSH1 0x0 DUP1 REVERT JUMPDEST PUSH3 0x51B DUP9 DUP4 DUP10 ADD PUSH3 0x42F JUMP JUMPDEST SWAP6 POP PUSH1 0x20 DUP8 ADD MLOAD SWAP2 POP DUP1 DUP3 GT ISZERO PUSH3 0x532 JUMPI PUSH1 0x0 DUP1 REVERT JUMPDEST PUSH3 0x540 DUP9 DUP4 DUP10 ADD PUSH3 0x42F JUMP JUMPDEST SWAP5 POP PUSH1 0x40 DUP8 ADD MLOAD SWAP2 POP DUP1 DUP3 GT ISZERO PUSH3 0x557 JUMPI PUSH1 0x0 DUP1 REVERT JUMPDEST POP PUSH3 0x566 DUP8 DUP3 DUP9 ADD PUSH3 0x42F JUMP JUMPDEST PUSH1 0x60 DUP8 ADD MLOAD SWAP1 SWAP4 POP SWAP1 POP PUSH1 0x1 PUSH1 0x1 PUSH1 0xA0 SHL SUB DUP2 AND DUP2 EQ PUSH3 0x586 JUMPI PUSH1 0x0 DUP1 REVERT JUMPDEST SWAP4 SWAP7 SWAP3 SWAP6 POP SWAP1 SWAP4 POP POP JUMP JUMPDEST PUSH1 0x1 DUP2 DUP2 SHR SWAP1 DUP3 AND DUP1 PUSH3 0x5A6 JUMPI PUSH1 0x7F DUP3 AND SWAP2 POP JUMPDEST PUSH1 0x20 DUP3 LT DUP2 SUB PUSH3 0x5C7 JUMPI PUSH4 0x4E487B71 PUSH1 0xE0 SHL PUSH1 0x0 MSTORE PUSH1 0x22 PUSH1 0x4 MSTORE PUSH1 0x24 PUSH1 0x0 REVERT JUMPDEST POP SWAP2 SWAP1 POP JUMP JUMPDEST PUSH1 0x1F DUP3 GT ISZERO PUSH3 0x61B JUMPI PUSH1 0x0 DUP2 DUP2 MSTORE PUSH1 0x20 DUP2 KECCAK256 PUSH1 0x1F DUP6 ADD PUSH1 0x5 SHR DUP2 ADD PUSH1 0x20 DUP7 LT ISZERO PUSH3 0x5F6 JUMPI POP DUP1 JUMPDEST PUSH1 0x1F DUP6 ADD PUSH1 0x5 SHR DUP3 ADD SWAP2 POP JUMPDEST DUP2 DUP2 LT ISZERO PUSH3 0x617 JUMPI DUP3 DUP2 SSTORE PUSH1 0x1 ADD PUSH3 0x602 JUMP JUMPDEST POP POP POP JUMPDEST POP POP POP JUMP JUMPDEST DUP2 MLOAD PUSH1 0x1 PUSH1 0x1 PUSH1 0x40 SHL SUB DUP2 GT ISZERO PUSH3 0x63C JUMPI PUSH3 0x63C PUSH3 0x419 JUMP JUMPDEST PUSH3 0x654 DUP2 PUSH3 0x64D DUP5 SLOAD PUSH3 0x591 JUMP JUMPDEST DUP5 PUSH3 0x5CD JUMP JUMPDEST PUSH1 0x20 DUP1 PUSH1 0x1F DUP4 GT PUSH1 0x1 DUP2 EQ PUSH3 0x68C JUMPI PUSH1 0x0 DUP5 ISZERO PUSH3 0x673 JUMPI POP DUP6 DUP4 ADD MLOAD JUMPDEST PUSH1 0x0 NOT PUSH1 0x3 DUP7 SWAP1 SHL SHR NOT AND PUSH1 0x1 DUP6 SWAP1 SHL OR DUP6 SSTORE PUSH3 0x617 JUMP JUMPDEST PUSH1 0x0 DUP6 DUP2 MSTORE PUSH1 0x20 DUP2 KECCAK256 PUSH1 0x1F NOT DUP7 AND SWAP2 JUMPDEST DUP3 DUP2 LT ISZERO PUSH3 0x6BD JUMPI DUP9 DUP7 ADD MLOAD DUP3 SSTORE SWAP5 DUP5 ADD SWAP5 PUSH1 0x1 SWAP1 SWAP2 ADD SWAP1 DUP5 ADD PUSH3 0x69C JUMP JUMPDEST POP DUP6 DUP3 LT ISZERO PUSH3 0x6DC JUMPI DUP8 DUP6 ADD MLOAD PUSH1 0x0 NOT PUSH1 0x3 DUP9 SWAP1 SHL PUSH1 0xF8 AND SHR NOT AND DUP2 SSTORE JUMPDEST POP POP POP POP POP PUSH1 0x1 SWAP1 DUP2 SHL ADD SWAP1 SSTORE POP JUMP JUMPDEST PUSH2 0x3348 DUP1 PUSH3 0x6FC PUSH1 0x0 CODECOPY PUSH1 0x0 RETURN INVALID PUSH1 0x80 PUSH1 0x40 MSTORE PUSH1 0x4 CALLDATASIZE LT PUSH2 0x1F8 JUMPI PUSH1 0x0 CALLDATALOAD PUSH1 0xE0 SHR DUP1 PUSH4 0x715018A6 GT PUSH2 0x10D JUMPI DUP1 PUSH4 0xBD85B039 GT PUSH2 0xA0 JUMPI DUP1 PUSH4 0xF242432A GT PUSH2 0x6F JUMPI DUP1 PUSH4 0xF242432A EQ PUSH2 0x5D4 JUMPI DUP1 PUSH4 0xF2FDE38B EQ PUSH2 0x5F4 JUMPI DUP1 PUSH4 0xF5298ACA EQ PUSH2 0x614 JUMPI DUP1 PUSH4 0xF6EB127A EQ PUSH2 0x634 JUMPI DUP1 PUSH4 0xF923E8C3 EQ PUSH2 0x654 JUMPI PUSH1 0x0 DUP1 REVERT JUMPDEST DUP1 PUSH4 0xBD85B039 EQ PUSH2 0x553 JUMPI DUP1 PUSH4 0xC311C523 EQ PUSH2 0x580 JUMPI DUP1 PUSH4 0xCD7C0326 EQ PUSH2 0x594 JUMPI DUP1 PUSH4 0xE985E9C5 EQ PUSH2 0x5B4 JUMPI PUSH1 0x0 DUP1 REVERT JUMPDEST DUP1 PUSH4 0x8DA5CB5B GT PUSH2 0xDC JUMPI DUP1 PUSH4 0x8DA5CB5B EQ PUSH2 0x4CC JUMPI DUP1 PUSH4 0x95D89B41 EQ PUSH2 0x4FE JUMPI DUP1 PUSH4 0xA22CB465 EQ PUSH2 0x513 JUMPI DUP1 PUSH4 0xB48AB8B6 EQ PUSH2 0x533 JUMPI PUSH1 0x0 DUP1 REVERT JUMPDEST DUP1 PUSH4 0x715018A6 EQ PUSH2 0x462 JUMPI DUP1 PUSH4 0x731133E9 EQ PUSH2 0x477 JUMPI DUP1 PUSH4 0x8456CB59 EQ PUSH2 0x497 JUMPI DUP1 PUSH4 0x862440E2 EQ PUSH2 0x4AC JUMPI PUSH1 0x0 DUP1 REVERT JUMPDEST DUP1 PUSH4 0x24D88785 GT PUSH2 0x190 JUMPI DUP1 PUSH4 0x3588AD7C GT PUSH2 0x15F JUMPI DUP1 PUSH4 0x3588AD7C EQ PUSH2 0x3B2 JUMPI DUP1 PUSH4 0x3F4BA83A EQ PUSH2 0x3D2 JUMPI DUP1 PUSH4 0x4E1273F4 EQ PUSH2 0x3E7 JUMPI DUP1 PUSH4 0x4F558E79 EQ PUSH2 0x414 JUMPI DUP1 PUSH4 0x5C975ABB EQ PUSH2 0x443 JUMPI PUSH1 0x0 DUP1 REVERT JUMPDEST DUP1 PUSH4 0x24D88785 EQ PUSH2 0x327 JUMPI DUP1 PUSH4 0x2D0335AB EQ PUSH2 0x349 JUMPI DUP1 PUSH4 0x2EB2C2D6 EQ PUSH2 0x37F JUMPI DUP1 PUSH4 0x3408E470 EQ PUSH2 0x39F JUMPI PUSH1 0x0 DUP1 REVERT JUMPDEST DUP1 PUSH4 0xE89341C GT PUSH2 0x1CC JUMPI DUP1 PUSH4 0xE89341C EQ PUSH2 0x295 JUMPI DUP1 PUSH4 0xF7E5970 EQ PUSH2 0x2B5 JUMPI DUP1 PUSH4 0x1E7D9DBB EQ PUSH2 0x2E2 JUMPI DUP1 PUSH4 0x20379EE5 EQ PUSH2 0x312 JUMPI PUSH1 0x0 DUP1 REVERT JUMPDEST DUP1 PUSH3 0xFDD58E EQ PUSH2 0x1FD JUMPI DUP1 PUSH4 0x1FFC9A7 EQ PUSH2 0x230 JUMPI DUP1 PUSH4 0x6FDDE03 EQ PUSH2 0x260 JUMPI DUP1 PUSH4 0xC53C51C EQ PUSH2 0x282 JUMPI JUMPDEST PUSH1 0x0 DUP1 REVERT JUMPDEST CALLVALUE DUP1 ISZERO PUSH2 0x209 JUMPI PUSH1 0x0 DUP1 REVERT JUMPDEST POP PUSH2 0x21D PUSH2 0x218 CALLDATASIZE PUSH1 0x4 PUSH2 0x268F JUMP JUMPDEST PUSH2 0x669 JUMP JUMPDEST PUSH1 0x40 MLOAD SWAP1 DUP2 MSTORE PUSH1 0x20 ADD JUMPDEST PUSH1 0x40 MLOAD DUP1 SWAP2 SUB SWAP1 RETURN JUMPDEST CALLVALUE DUP1 ISZERO PUSH2 0x23C JUMPI PUSH1 0x0 DUP1 REVERT JUMPDEST POP PUSH2 0x250 PUSH2 0x24B CALLDATASIZE PUSH1 0x4 PUSH2 0x26CF JUMP JUMPDEST PUSH2 0x6A9 JUMP JUMPDEST PUSH1 0x40 MLOAD SWAP1 ISZERO ISZERO DUP2 MSTORE PUSH1 0x20 ADD PUSH2 0x227 JUMP JUMPDEST CALLVALUE DUP1 ISZERO PUSH2 0x26C JUMPI PUSH1 0x0 DUP1 REVERT JUMPDEST POP PUSH2 0x275 PUSH2 0x6F9 JUMP JUMPDEST PUSH1 0x40 MLOAD PUSH2 0x227 SWAP2 SWAP1 PUSH2 0x273C JUMP JUMPDEST PUSH2 0x275 PUSH2 0x290 CALLDATASIZE PUSH1 0x4 PUSH2 0x2804 JUMP JUMPDEST PUSH2 0x787 JUMP JUMPDEST CALLVALUE DUP1 ISZERO PUSH2 0x2A1 JUMPI PUSH1 0x0 DUP1 REVERT JUMPDEST POP PUSH2 0x275 PUSH2 0x2B0 CALLDATASIZE PUSH1 0x4 PUSH2 0x287F JUMP JUMPDEST PUSH2 0x964 JUMP JUMPDEST CALLVALUE DUP1 ISZERO PUSH2 0x2C1 JUMPI PUSH1 0x0 DUP1 REVERT JUMPDEST POP PUSH2 0x275 PUSH1 0x40 MLOAD DUP1 PUSH1 0x40 ADD PUSH1 0x40 MSTORE DUP1 PUSH1 0x1 DUP2 MSTORE PUSH1 0x20 ADD PUSH1 0x31 PUSH1 0xF8 SHL DUP2 MSTORE POP DUP2 JUMP JUMPDEST CALLVALUE DUP1 ISZERO PUSH2 0x2EE JUMPI PUSH1 0x0 DUP1 REVERT JUMPDEST POP PUSH2 0x250 PUSH2 0x2FD CALLDATASIZE PUSH1 0x4 PUSH2 0x287F JUMP JUMPDEST PUSH1 0x0 SWAP1 DUP2 MSTORE PUSH1 0xE PUSH1 0x20 MSTORE PUSH1 0x40 SWAP1 KECCAK256 SLOAD PUSH1 0xFF AND SWAP1 JUMP JUMPDEST CALLVALUE DUP1 ISZERO PUSH2 0x31E JUMPI PUSH1 0x0 DUP1 REVERT JUMPDEST POP PUSH1 0x4 SLOAD PUSH2 0x21D JUMP JUMPDEST CALLVALUE DUP1 ISZERO PUSH2 0x333 JUMPI PUSH1 0x0 DUP1 REVERT JUMPDEST POP PUSH2 0x347 PUSH2 0x342 CALLDATASIZE PUSH1 0x4 PUSH2 0x2898 JUMP JUMPDEST PUSH2 0xAA4 JUMP JUMPDEST STOP JUMPDEST CALLVALUE DUP1 ISZERO PUSH2 0x355 JUMPI PUSH1 0x0 DUP1 REVERT JUMPDEST POP PUSH2 0x21D PUSH2 0x364 CALLDATASIZE PUSH1 0x4 PUSH2 0x28CC JUMP JUMPDEST PUSH1 0x1 PUSH1 0x1 PUSH1 0xA0 SHL SUB AND PUSH1 0x0 SWAP1 DUP2 MSTORE PUSH1 0x5 PUSH1 0x20 MSTORE PUSH1 0x40 SWAP1 KECCAK256 SLOAD SWAP1 JUMP JUMPDEST CALLVALUE DUP1 ISZERO PUSH2 0x38B JUMPI PUSH1 0x0 DUP1 REVERT JUMPDEST POP PUSH2 0x347 PUSH2 0x39A CALLDATASIZE PUSH1 0x4 PUSH2 0x297B JUMP JUMPDEST PUSH2 0xAE0 JUMP JUMPDEST CALLVALUE DUP1 ISZERO PUSH2 0x3AB JUMPI PUSH1 0x0 DUP1 REVERT JUMPDEST POP CHAINID PUSH2 0x21D JUMP JUMPDEST CALLVALUE DUP1 ISZERO PUSH2 0x3BE JUMPI PUSH1 0x0 DUP1 REVERT JUMPDEST POP PUSH2 0x347 PUSH2 0x3CD CALLDATASIZE PUSH1 0x4 PUSH2 0x2A24 JUMP JUMPDEST PUSH2 0xBBC JUMP JUMPDEST CALLVALUE DUP1 ISZERO PUSH2 0x3DE JUMPI PUSH1 0x0 DUP1 REVERT JUMPDEST POP PUSH2 0x347 PUSH2 0xC23 JUMP JUMPDEST CALLVALUE DUP1 ISZERO PUSH2 0x3F3 JUMPI PUSH1 0x0 DUP1 REVERT JUMPDEST POP PUSH2 0x407 PUSH2 0x402 CALLDATASIZE PUSH1 0x4 PUSH2 0x2A6A JUMP JUMPDEST PUSH2 0xC54 JUMP JUMPDEST PUSH1 0x40 MLOAD PUSH2 0x227 SWAP2 SWAP1 PUSH2 0x2B65 JUMP JUMPDEST CALLVALUE DUP1 ISZERO PUSH2 0x420 JUMPI PUSH1 0x0 DUP1 REVERT JUMPDEST POP PUSH2 0x250 PUSH2 0x42F CALLDATASIZE PUSH1 0x4 PUSH2 0x287F JUMP JUMPDEST PUSH1 0x0 SWAP1 DUP2 MSTORE PUSH1 0xA PUSH1 0x20 MSTORE PUSH1 0x40 SWAP1 KECCAK256 SLOAD ISZERO ISZERO SWAP1 JUMP JUMPDEST CALLVALUE DUP1 ISZERO PUSH2 0x44F JUMPI PUSH1 0x0 DUP1 REVERT JUMPDEST POP PUSH1 0x6 SLOAD PUSH1 0x1 PUSH1 0xA0 SHL SWAP1 DIV PUSH1 0xFF AND PUSH2 0x250 JUMP JUMPDEST CALLVALUE DUP1 ISZERO PUSH2 0x46E JUMPI PUSH1 0x0 DUP1 REVERT JUMPDEST POP PUSH2 0x347 PUSH2 0xD7D JUMP JUMPDEST CALLVALUE DUP1 ISZERO PUSH2 0x483 JUMPI PUSH1 0x0 DUP1 REVERT JUMPDEST POP PUSH2 0x347 PUSH2 0x492 CALLDATASIZE PUSH1 0x4 PUSH2 0x2B78 JUMP JUMPDEST PUSH2 0xD8F JUMP JUMPDEST CALLVALUE DUP1 ISZERO PUSH2 0x4A3 JUMPI PUSH1 0x0 DUP1 REVERT JUMPDEST POP PUSH2 0x347 PUSH2 0xDC8 JUMP JUMPDEST CALLVALUE DUP1 ISZERO PUSH2 0x4B8 JUMPI PUSH1 0x0 DUP1 REVERT JUMPDEST POP PUSH2 0x347 PUSH2 0x4C7 CALLDATASIZE PUSH1 0x4 PUSH2 0x2A24 JUMP JUMPDEST PUSH2 0xDF7 JUMP JUMPDEST CALLVALUE DUP1 ISZERO PUSH2 0x4D8 JUMPI PUSH1 0x0 DUP1 REVERT JUMPDEST POP PUSH1 0x6 SLOAD PUSH1 0x1 PUSH1 0x1 PUSH1 0xA0 SHL SUB AND JUMPDEST PUSH1 0x40 MLOAD PUSH1 0x1 PUSH1 0x1 PUSH1 0xA0 SHL SUB SWAP1 SWAP2 AND DUP2 MSTORE PUSH1 0x20 ADD PUSH2 0x227 JUMP JUMPDEST CALLVALUE DUP1 ISZERO PUSH2 0x50A JUMPI PUSH1 0x0 DUP1 REVERT JUMPDEST POP PUSH2 0x275 PUSH2 0xE59 JUMP JUMPDEST CALLVALUE DUP1 ISZERO PUSH2 0x51F JUMPI PUSH1 0x0 DUP1 REVERT JUMPDEST POP PUSH2 0x347 PUSH2 0x52E CALLDATASIZE PUSH1 0x4 PUSH2 0x2BD8 JUMP JUMPDEST PUSH2 0xE66 JUMP JUMPDEST CALLVALUE DUP1 ISZERO PUSH2 0x53F JUMPI PUSH1 0x0 DUP1 REVERT JUMPDEST POP PUSH2 0x347 PUSH2 0x54E CALLDATASIZE PUSH1 0x4 PUSH2 0x2C14 JUMP JUMPDEST PUSH2 0xE78 JUMP JUMPDEST CALLVALUE DUP1 ISZERO PUSH2 0x55F JUMPI PUSH1 0x0 DUP1 REVERT JUMPDEST POP PUSH2 0x21D PUSH2 0x56E CALLDATASIZE PUSH1 0x4 PUSH2 0x287F JUMP JUMPDEST PUSH1 0x0 SWAP1 DUP2 MSTORE PUSH1 0xA PUSH1 0x20 MSTORE PUSH1 0x40 SWAP1 KECCAK256 SLOAD SWAP1 JUMP JUMPDEST CALLVALUE DUP1 ISZERO PUSH2 0x58C JUMPI PUSH1 0x0 DUP1 REVERT JUMPDEST POP PUSH1 0x1 PUSH2 0x250 JUMP JUMPDEST CALLVALUE DUP1 ISZERO PUSH2 0x5A0 JUMPI PUSH1 0x0 DUP1 REVERT JUMPDEST POP PUSH1 0xB SLOAD PUSH2 0x4E6 SWAP1 PUSH1 0x1 PUSH1 0x1 PUSH1 0xA0 SHL SUB AND DUP2 JUMP JUMPDEST CALLVALUE DUP1 ISZERO PUSH2 0x5C0 JUMPI PUSH1 0x0 DUP1 REVERT JUMPDEST POP PUSH2 0x250 PUSH2 0x5CF CALLDATASIZE PUSH1 0x4 PUSH2 0x2CA0 JUMP JUMPDEST PUSH2 0xEAB JUMP JUMPDEST CALLVALUE DUP1 ISZERO PUSH2 0x5E0 JUMPI PUSH1 0x0 DUP1 REVERT JUMPDEST POP PUSH2 0x347 PUSH2 0x5EF CALLDATASIZE PUSH1 0x4 PUSH2 0x2CD3 JUMP JUMPDEST PUSH2 0xEFD JUMP JUMPDEST CALLVALUE DUP1 ISZERO PUSH2 0x600 JUMPI PUSH1 0x0 DUP1 REVERT JUMPDEST POP PUSH2 0x347 PUSH2 0x60F CALLDATASIZE PUSH1 0x4 PUSH2 0x28CC JUMP JUMPDEST PUSH2 0xF4D JUMP JUMPDEST CALLVALUE DUP1 ISZERO PUSH2 0x620 JUMPI PUSH1 0x0 DUP1 REVERT JUMPDEST POP PUSH2 0x347 PUSH2 0x62F CALLDATASIZE PUSH1 0x4 PUSH2 0x2D37 JUMP JUMPDEST PUSH2 0xFC6 JUMP JUMPDEST CALLVALUE DUP1 ISZERO PUSH2 0x640 JUMPI PUSH1 0x0 DUP1 REVERT JUMPDEST POP PUSH2 0x347 PUSH2 0x64F CALLDATASIZE PUSH1 0x4 PUSH2 0x2D6A JUMP JUMPDEST PUSH2 0x105D JUMP JUMPDEST CALLVALUE DUP1 ISZERO PUSH2 0x660 JUMPI PUSH1 0x0 DUP1 REVERT JUMPDEST POP PUSH2 0x275 PUSH2 0x1136 JUMP JUMPDEST PUSH1 0x0 DUP1 PUSH2 0x676 DUP5 DUP5 PUSH2 0x119F JUMP JUMPDEST SWAP1 POP PUSH2 0x682 DUP4 DUP6 PUSH2 0x1233 JUMP JUMPDEST PUSH2 0x68C JUMPI DUP1 PUSH2 0x69F JUMP JUMPDEST PUSH2 0x695 DUP4 PUSH2 0x123E JUMP JUMPDEST PUSH2 0x69F SWAP1 DUP3 PUSH2 0x2DF3 JUMP JUMPDEST SWAP2 POP POP JUMPDEST SWAP3 SWAP2 POP POP JUMP JUMPDEST PUSH1 0x0 PUSH1 0x1 PUSH1 0x1 PUSH1 0xE0 SHL SUB NOT DUP3 AND PUSH4 0x6CDB3D13 PUSH1 0xE1 SHL EQ DUP1 PUSH2 0x6DA JUMPI POP PUSH1 0x1 PUSH1 0x1 PUSH1 0xE0 SHL SUB NOT DUP3 AND PUSH4 0x3A24D07 PUSH1 0xE2 SHL EQ JUMPDEST DUP1 PUSH2 0x6A3 JUMPI POP PUSH4 0x1FFC9A7 PUSH1 0xE0 SHL PUSH1 0x1 PUSH1 0x1 PUSH1 0xE0 SHL SUB NOT DUP4 AND EQ PUSH2 0x6A3 JUMP JUMPDEST PUSH1 0x7 DUP1 SLOAD PUSH2 0x706 SWAP1 PUSH2 0x2E06 JUMP JUMPDEST DUP1 PUSH1 0x1F ADD PUSH1 0x20 DUP1 SWAP2 DIV MUL PUSH1 0x20 ADD PUSH1 0x40 MLOAD SWAP1 DUP2 ADD PUSH1 0x40 MSTORE DUP1 SWAP3 SWAP2 SWAP1 DUP2 DUP2 MSTORE PUSH1 0x20 ADD DUP3 DUP1 SLOAD PUSH2 0x732 SWAP1 PUSH2 0x2E06 JUMP JUMPDEST DUP1 ISZERO PUSH2 0x77F JUMPI DUP1 PUSH1 0x1F LT PUSH2 0x754 JUMPI PUSH2 0x100 DUP1 DUP4 SLOAD DIV MUL DUP4 MSTORE SWAP2 PUSH1 0x20 ADD SWAP2 PUSH2 0x77F JUMP JUMPDEST DUP3 ADD SWAP2 SWAP1 PUSH1 0x0 MSTORE PUSH1 0x20 PUSH1 0x0 KECCAK256 SWAP1 JUMPDEST DUP2 SLOAD DUP2 MSTORE SWAP1 PUSH1 0x1 ADD SWAP1 PUSH1 0x20 ADD DUP1 DUP4 GT PUSH2 0x762 JUMPI DUP3 SWAP1 SUB PUSH1 0x1F AND DUP3 ADD SWAP2 JUMPDEST POP POP POP POP POP DUP2 JUMP JUMPDEST PUSH1 0x40 DUP1 MLOAD PUSH1 0x60 DUP2 DUP2 ADD DUP4 MSTORE PUSH1 0x1 PUSH1 0x1 PUSH1 0xA0 SHL SUB DUP9 AND PUSH1 0x0 DUP2 DUP2 MSTORE PUSH1 0x5 PUSH1 0x20 SWAP1 DUP2 MSTORE SWAP1 DUP6 SWAP1 KECCAK256 SLOAD DUP5 MSTORE DUP4 ADD MSTORE SWAP2 DUP2 ADD DUP7 SWAP1 MSTORE PUSH2 0x7C5 DUP8 DUP3 DUP8 DUP8 DUP8 PUSH2 0x1258 JUMP JUMPDEST PUSH2 0x820 JUMPI PUSH1 0x40 MLOAD PUSH3 0x461BCD PUSH1 0xE5 SHL DUP2 MSTORE PUSH1 0x20 PUSH1 0x4 DUP3 ADD MSTORE PUSH1 0x21 PUSH1 0x24 DUP3 ADD MSTORE PUSH32 0x5369676E657220616E64207369676E617475726520646F206E6F74206D617463 PUSH1 0x44 DUP3 ADD MSTORE PUSH1 0xD PUSH1 0xFB SHL PUSH1 0x64 DUP3 ADD MSTORE PUSH1 0x84 ADD JUMPDEST PUSH1 0x40 MLOAD DUP1 SWAP2 SUB SWAP1 REVERT JUMPDEST PUSH1 0x1 PUSH1 0x1 PUSH1 0xA0 SHL SUB DUP8 AND PUSH1 0x0 SWAP1 DUP2 MSTORE PUSH1 0x5 PUSH1 0x20 MSTORE PUSH1 0x40 DUP2 KECCAK256 DUP1 SLOAD PUSH1 0x1 SWAP3 SWAP1 PUSH2 0x849 SWAP1 DUP5 SWAP1 PUSH2 0x2DF3 JUMP JUMPDEST SWAP1 SWAP2 SSTORE POP POP PUSH1 0x40 MLOAD PUSH32 0x5845892132946850460BFF5A0083F71031BC5BF9AADCD40F1DE79423EAC9B10B SWAP1 PUSH2 0x882 SWAP1 DUP10 SWAP1 CALLER SWAP1 DUP11 SWAP1 PUSH2 0x2E40 JUMP JUMPDEST PUSH1 0x40 MLOAD DUP1 SWAP2 SUB SWAP1 LOG1 PUSH1 0x0 DUP1 ADDRESS PUSH1 0x1 PUSH1 0x1 PUSH1 0xA0 SHL SUB AND DUP9 DUP11 PUSH1 0x40 MLOAD PUSH1 0x20 ADD PUSH2 0x8AA SWAP3 SWAP2 SWAP1 PUSH2 0x2E75 JUMP JUMPDEST PUSH1 0x40 DUP1 MLOAD PUSH1 0x1F NOT DUP2 DUP5 SUB ADD DUP2 MSTORE SWAP1 DUP3 SWAP1 MSTORE PUSH2 0x8C4 SWAP2 PUSH2 0x2EAC JUMP JUMPDEST PUSH1 0x0 PUSH1 0x40 MLOAD DUP1 DUP4 SUB DUP2 PUSH1 0x0 DUP7 GAS CALL SWAP2 POP POP RETURNDATASIZE DUP1 PUSH1 0x0 DUP2 EQ PUSH2 0x901 JUMPI PUSH1 0x40 MLOAD SWAP2 POP PUSH1 0x1F NOT PUSH1 0x3F RETURNDATASIZE ADD AND DUP3 ADD PUSH1 0x40 MSTORE RETURNDATASIZE DUP3 MSTORE RETURNDATASIZE PUSH1 0x0 PUSH1 0x20 DUP5 ADD RETURNDATACOPY PUSH2 0x906 JUMP JUMPDEST PUSH1 0x60 SWAP2 POP JUMPDEST POP SWAP2 POP SWAP2 POP DUP2 PUSH2 0x958 JUMPI PUSH1 0x40 MLOAD PUSH3 0x461BCD PUSH1 0xE5 SHL DUP2 MSTORE PUSH1 0x20 PUSH1 0x4 DUP3 ADD MSTORE PUSH1 0x1C PUSH1 0x24 DUP3 ADD MSTORE PUSH32 0x46756E6374696F6E2063616C6C206E6F74207375636365737366756C00000000 PUSH1 0x44 DUP3 ADD MSTORE PUSH1 0x64 ADD PUSH2 0x817 JUMP JUMPDEST SWAP9 SWAP8 POP POP POP POP POP POP POP POP JUMP JUMPDEST PUSH1 0x0 DUP2 DUP2 MSTORE PUSH1 0xD PUSH1 0x20 MSTORE PUSH1 0x40 DUP2 KECCAK256 DUP1 SLOAD PUSH1 0x60 SWAP3 SWAP2 SWAP1 PUSH2 0x982 SWAP1 PUSH2 0x2E06 JUMP JUMPDEST DUP1 PUSH1 0x1F ADD PUSH1 0x20 DUP1 SWAP2 DIV MUL PUSH1 0x20 ADD PUSH1 0x40 MLOAD SWAP1 DUP2 ADD PUSH1 0x40 MSTORE DUP1 SWAP3 SWAP2 SWAP1 DUP2 DUP2 MSTORE PUSH1 0x20 ADD DUP3 DUP1 SLOAD PUSH2 0x9AE SWAP1 PUSH2 0x2E06 JUMP JUMPDEST DUP1 ISZERO PUSH2 0x9FB JUMPI DUP1 PUSH1 0x1F LT PUSH2 0x9D0 JUMPI PUSH2 0x100 DUP1 DUP4 SLOAD DIV MUL DUP4 MSTORE SWAP2 PUSH1 0x20 ADD SWAP2 PUSH2 0x9FB JUMP JUMPDEST DUP3 ADD SWAP2 SWAP1 PUSH1 0x0 MSTORE PUSH1 0x20 PUSH1 0x0 KECCAK256 SWAP1 JUMPDEST DUP2 SLOAD DUP2 MSTORE SWAP1 PUSH1 0x1 ADD SWAP1 PUSH1 0x20 ADD DUP1 DUP4 GT PUSH2 0x9DE JUMPI DUP3 SWAP1 SUB PUSH1 0x1F AND DUP3 ADD SWAP2 JUMPDEST POP POP POP POP POP SWAP1 POP DUP1 MLOAD PUSH1 0x0 EQ PUSH2 0xA11 JUMPI SWAP3 SWAP2 POP POP JUMP JUMPDEST PUSH1 0xC DUP1 SLOAD PUSH2 0xA1E SWAP1 PUSH2 0x2E06 JUMP JUMPDEST DUP1 PUSH1 0x1F ADD PUSH1 0x20 DUP1 SWAP2 DIV MUL PUSH1 0x20 ADD PUSH1 0x40 MLOAD SWAP1 DUP2 ADD PUSH1 0x40 MSTORE DUP1 SWAP3 SWAP2 SWAP1 DUP2 DUP2 MSTORE PUSH1 0x20 ADD DUP3 DUP1 SLOAD PUSH2 0xA4A SWAP1 PUSH2 0x2E06 JUMP JUMPDEST DUP1 ISZERO PUSH2 0xA97 JUMPI DUP1 PUSH1 0x1F LT PUSH2 0xA6C JUMPI PUSH2 0x100 DUP1 DUP4 SLOAD DIV MUL DUP4 MSTORE SWAP2 PUSH1 0x20 ADD SWAP2 PUSH2 0xA97 JUMP JUMPDEST DUP3 ADD SWAP2 SWAP1 PUSH1 0x0 MSTORE PUSH1 0x20 PUSH1 0x0 KECCAK256 SWAP1 JUMPDEST DUP2 SLOAD DUP2 MSTORE SWAP1 PUSH1 0x1 ADD SWAP1 PUSH1 0x20 ADD DUP1 DUP4 GT PUSH2 0xA7A JUMPI DUP3 SWAP1 SUB PUSH1 0x1F AND DUP3 ADD SWAP2 JUMPDEST POP POP POP POP POP SWAP2 POP POP SWAP2 SWAP1 POP JUMP JUMPDEST PUSH2 0xAB4 PUSH2 0xAAF PUSH2 0x1348 JUMP JUMPDEST PUSH2 0x1357 JUMP JUMPDEST PUSH2 0xAD0 JUMPI PUSH1 0x40 MLOAD PUSH3 0x461BCD PUSH1 0xE5 SHL DUP2 MSTORE PUSH1 0x4 ADD PUSH2 0x817 SWAP1 PUSH2 0x2EC8 JUMP JUMPDEST PUSH1 0xC PUSH2 0xADC DUP3 DUP3 PUSH2 0x2F5C JUMP JUMPDEST POP POP JUMP JUMPDEST DUP2 MLOAD DUP4 MLOAD EQ PUSH2 0xB57 JUMPI PUSH1 0x40 MLOAD PUSH3 0x461BCD PUSH1 0xE5 SHL DUP2 MSTORE PUSH1 0x20 PUSH1 0x4 DUP3 ADD MSTORE PUSH1 0x3A PUSH1 0x24 DUP3 ADD MSTORE PUSH32 0x4173736574436F6E7472616374237361666542617463685472616E7366657246 PUSH1 0x44 DUP3 ADD MSTORE PUSH32 0x726F6D3A20494E56414C49445F4152524159535F4C454E475448000000000000 PUSH1 0x64 DUP3 ADD MSTORE PUSH1 0x84 ADD PUSH2 0x817 JUMP JUMPDEST PUSH1 0x0 JUMPDEST DUP4 MLOAD DUP2 LT ISZERO PUSH2 0xBB4 JUMPI PUSH2 0xBA2 DUP7 DUP7 DUP7 DUP5 DUP2 MLOAD DUP2 LT PUSH2 0xB7A JUMPI PUSH2 0xB7A PUSH2 0x301B JUMP JUMPDEST PUSH1 0x20 MUL PUSH1 0x20 ADD ADD MLOAD DUP7 DUP6 DUP2 MLOAD DUP2 LT PUSH2 0xB94 JUMPI PUSH2 0xB94 PUSH2 0x301B JUMP JUMPDEST PUSH1 0x20 MUL PUSH1 0x20 ADD ADD MLOAD DUP7 PUSH2 0xEFD JUMP JUMPDEST DUP1 PUSH2 0xBAC DUP2 PUSH2 0x3031 JUMP JUMPDEST SWAP2 POP POP PUSH2 0xB5A JUMP JUMPDEST POP POP POP POP POP POP JUMP JUMPDEST PUSH2 0xBC7 PUSH2 0xAAF PUSH2 0x1348 JUMP JUMPDEST PUSH2 0xBE3 JUMPI PUSH1 0x40 MLOAD PUSH3 0x461BCD PUSH1 0xE5 SHL DUP2 MSTORE PUSH1 0x4 ADD PUSH2 0x817 SWAP1 PUSH2 0x2EC8 JUMP JUMPDEST PUSH1 0x0 DUP3 DUP2 MSTORE PUSH1 0xE PUSH1 0x20 MSTORE PUSH1 0x40 SWAP1 KECCAK256 SLOAD DUP3 SWAP1 PUSH1 0xFF AND ISZERO PUSH2 0xC14 JUMPI PUSH1 0x40 MLOAD PUSH3 0x461BCD PUSH1 0xE5 SHL DUP2 MSTORE PUSH1 0x4 ADD PUSH2 0x817 SWAP1 PUSH2 0x304A JUMP JUMPDEST PUSH2 0xC1E DUP4 DUP4 PUSH2 0x1385 JUMP JUMPDEST POP POP POP JUMP JUMPDEST PUSH2 0xC2E PUSH2 0xAAF PUSH2 0x1348 JUMP JUMPDEST PUSH2 0xC4A JUMPI PUSH1 0x40 MLOAD PUSH3 0x461BCD PUSH1 0xE5 SHL DUP2 MSTORE PUSH1 0x4 ADD PUSH2 0x817 SWAP1 PUSH2 0x2EC8 JUMP JUMPDEST PUSH2 0xC52 PUSH2 0x144B JUMP JUMPDEST JUMP JUMPDEST PUSH1 0x60 DUP2 MLOAD DUP4 MLOAD EQ PUSH2 0xCB9 JUMPI PUSH1 0x40 MLOAD PUSH3 0x461BCD PUSH1 0xE5 SHL DUP2 MSTORE PUSH1 0x20 PUSH1 0x4 DUP3 ADD MSTORE PUSH1 0x29 PUSH1 0x24 DUP3 ADD MSTORE PUSH32 0x455243313135353A206163636F756E747320616E6420696473206C656E677468 PUSH1 0x44 DUP3 ADD MSTORE PUSH9 0x40DAD2E6DAC2E8C6D PUSH1 0xBB SHL PUSH1 0x64 DUP3 ADD MSTORE PUSH1 0x84 ADD PUSH2 0x817 JUMP JUMPDEST PUSH1 0x0 DUP4 MLOAD PUSH1 0x1 PUSH1 0x1 PUSH1 0x40 SHL SUB DUP2 GT ISZERO PUSH2 0xCD4 JUMPI PUSH2 0xCD4 PUSH2 0x274F JUMP JUMPDEST PUSH1 0x40 MLOAD SWAP1 DUP1 DUP3 MSTORE DUP1 PUSH1 0x20 MUL PUSH1 0x20 ADD DUP3 ADD PUSH1 0x40 MSTORE DUP1 ISZERO PUSH2 0xCFD JUMPI DUP2 PUSH1 0x20 ADD PUSH1 0x20 DUP3 MUL DUP1 CALLDATASIZE DUP4 CALLDATACOPY ADD SWAP1 POP JUMPDEST POP SWAP1 POP PUSH1 0x0 JUMPDEST DUP5 MLOAD DUP2 LT ISZERO PUSH2 0xD75 JUMPI PUSH2 0xD48 DUP6 DUP3 DUP2 MLOAD DUP2 LT PUSH2 0xD21 JUMPI PUSH2 0xD21 PUSH2 0x301B JUMP JUMPDEST PUSH1 0x20 MUL PUSH1 0x20 ADD ADD MLOAD DUP6 DUP4 DUP2 MLOAD DUP2 LT PUSH2 0xD3B JUMPI PUSH2 0xD3B PUSH2 0x301B JUMP JUMPDEST PUSH1 0x20 MUL PUSH1 0x20 ADD ADD MLOAD PUSH2 0x669 JUMP JUMPDEST DUP3 DUP3 DUP2 MLOAD DUP2 LT PUSH2 0xD5A JUMPI PUSH2 0xD5A PUSH2 0x301B JUMP JUMPDEST PUSH1 0x20 SWAP1 DUP2 MUL SWAP2 SWAP1 SWAP2 ADD ADD MSTORE PUSH2 0xD6E DUP2 PUSH2 0x3031 JUMP JUMPDEST SWAP1 POP PUSH2 0xD03 JUMP JUMPDEST POP SWAP4 SWAP3 POP POP POP JUMP JUMPDEST PUSH2 0xD85 PUSH2 0x14A6 JUMP JUMPDEST PUSH2 0xC52 PUSH1 0x0 PUSH2 0x151F JUMP JUMPDEST PUSH2 0xD9A PUSH2 0xAAF PUSH2 0x1348 JUMP JUMPDEST PUSH2 0xDB6 JUMPI PUSH1 0x40 MLOAD PUSH3 0x461BCD PUSH1 0xE5 SHL DUP2 MSTORE PUSH1 0x4 ADD PUSH2 0x817 SWAP1 PUSH2 0x2EC8 JUMP JUMPDEST PUSH2 0xDC2 DUP5 DUP5 DUP5 DUP5 PUSH2 0x1571 JUMP JUMPDEST POP POP POP POP JUMP JUMPDEST PUSH2 0xDD3 PUSH2 0xAAF PUSH2 0x1348 JUMP JUMPDEST PUSH2 0xDEF JUMPI PUSH1 0x40 MLOAD PUSH3 0x461BCD PUSH1 0xE5 SHL DUP2 MSTORE PUSH1 0x4 ADD PUSH2 0x817 SWAP1 PUSH2 0x2EC8 JUMP JUMPDEST PUSH2 0xC52 PUSH2 0x1591 JUMP JUMPDEST PUSH2 0xE02 PUSH2 0xAAF PUSH2 0x1348 JUMP JUMPDEST PUSH2 0xE1E JUMPI PUSH1 0x40 MLOAD PUSH3 0x461BCD PUSH1 0xE5 SHL DUP2 MSTORE PUSH1 0x4 ADD PUSH2 0x817 SWAP1 PUSH2 0x2EC8 JUMP JUMPDEST PUSH1 0x0 DUP3 DUP2 MSTORE PUSH1 0xE PUSH1 0x20 MSTORE PUSH1 0x40 SWAP1 KECCAK256 SLOAD DUP3 SWAP1 PUSH1 0xFF AND ISZERO PUSH2 0xE4F JUMPI PUSH1 0x40 MLOAD PUSH3 0x461BCD PUSH1 0xE5 SHL DUP2 MSTORE PUSH1 0x4 ADD PUSH2 0x817 SWAP1 PUSH2 0x304A JUMP JUMPDEST PUSH2 0xC1E DUP4 DUP4 PUSH2 0x15D5 JUMP JUMPDEST PUSH1 0x8 DUP1 SLOAD PUSH2 0x706 SWAP1 PUSH2 0x2E06 JUMP JUMPDEST PUSH2 0xADC PUSH2 0xE71 PUSH2 0x1348 JUMP JUMPDEST DUP4 DUP4 PUSH2 0x161E JUMP JUMPDEST PUSH2 0xE83 PUSH2 0xAAF PUSH2 0x1348 JUMP JUMPDEST PUSH2 0xE9F JUMPI PUSH1 0x40 MLOAD PUSH3 0x461BCD PUSH1 0xE5 SHL DUP2 MSTORE PUSH1 0x4 ADD PUSH2 0x817 SWAP1 PUSH2 0x2EC8 JUMP JUMPDEST PUSH2 0xDC2 DUP5 DUP5 DUP5 DUP5 PUSH2 0x16FE JUMP JUMPDEST PUSH1 0xB SLOAD PUSH1 0x0 SWAP1 PUSH1 0x1 PUSH1 0x1 PUSH1 0xA0 SHL SUB SWAP1 DUP2 AND SWAP1 DUP4 AND SUB PUSH2 0xECC JUMPI POP PUSH1 0x1 PUSH2 0x6A3 JUMP JUMPDEST PUSH1 0x1 PUSH1 0x1 PUSH1 0xA0 SHL SUB DUP1 DUP5 AND PUSH1 0x0 SWAP1 DUP2 MSTORE PUSH1 0x1 PUSH1 0x20 SWAP1 DUP2 MSTORE PUSH1 0x40 DUP1 DUP4 KECCAK256 SWAP4 DUP7 AND DUP4 MSTORE SWAP3 SWAP1 MSTORE KECCAK256 SLOAD PUSH1 0xFF AND JUMPDEST SWAP4 SWAP3 POP POP POP JUMP JUMPDEST PUSH1 0x0 PUSH2 0xF09 DUP7 DUP6 PUSH2 0x119F JUMP JUMPDEST SWAP1 POP DUP3 DUP2 LT ISZERO PUSH2 0xF40 JUMPI PUSH2 0xF28 DUP6 DUP6 PUSH2 0xF22 DUP5 DUP8 PUSH2 0x30A7 JUMP JUMPDEST DUP6 PUSH2 0xD8F JUMP JUMPDEST DUP1 ISZERO PUSH2 0xF3B JUMPI PUSH2 0xF3B DUP7 DUP7 DUP7 DUP5 DUP7 PUSH2 0x175C JUMP JUMPDEST PUSH2 0xBB4 JUMP JUMPDEST PUSH2 0xBB4 DUP7 DUP7 DUP7 DUP7 DUP7 PUSH2 0x175C JUMP JUMPDEST PUSH2 0xF55 PUSH2 0x14A6 JUMP JUMPDEST PUSH1 0x1 PUSH1 0x1 PUSH1 0xA0 SHL SUB DUP2 AND PUSH2 0xFBA JUMPI PUSH1 0x40 MLOAD PUSH3 0x461BCD PUSH1 0xE5 SHL DUP2 MSTORE PUSH1 0x20 PUSH1 0x4 DUP3 ADD MSTORE PUSH1 0x26 PUSH1 0x24 DUP3 ADD MSTORE PUSH32 0x4F776E61626C653A206E6577206F776E657220697320746865207A65726F2061 PUSH1 0x44 DUP3 ADD MSTORE PUSH6 0x646472657373 PUSH1 0xD0 SHL PUSH1 0x64 DUP3 ADD MSTORE PUSH1 0x84 ADD PUSH2 0x817 JUMP JUMPDEST PUSH2 0xFC3 DUP2 PUSH2 0x151F JUMP JUMPDEST POP JUMP JUMPDEST DUP3 DUP3 DUP3 PUSH2 0xFD4 DUP4 DUP4 DUP4 PUSH2 0x196F JUMP JUMPDEST PUSH2 0x1052 JUMPI PUSH1 0x40 MLOAD PUSH3 0x461BCD PUSH1 0xE5 SHL DUP2 MSTORE PUSH1 0x20 PUSH1 0x4 DUP3 ADD MSTORE PUSH1 0x43 PUSH1 0x24 DUP3 ADD MSTORE PUSH32 0x4173736574436F6E7472616374236F6E6C79546F6B656E416D6F756E744F776E PUSH1 0x44 DUP3 ADD MSTORE PUSH32 0x65643A204F4E4C595F544F4B454E5F414D4F554E545F4F574E45445F414C4C4F PUSH1 0x64 DUP3 ADD MSTORE PUSH3 0x15D151 PUSH1 0xEA SHL PUSH1 0x84 DUP3 ADD MSTORE PUSH1 0xA4 ADD PUSH2 0x817 JUMP JUMPDEST PUSH2 0xBB4 DUP7 DUP7 DUP7 PUSH2 0x1986 JUMP JUMPDEST PUSH1 0x0 JUMPDEST DUP3 MLOAD DUP2 LT ISZERO PUSH2 0x112A JUMPI PUSH2 0x10A6 DUP5 DUP5 DUP4 DUP2 MLOAD DUP2 LT PUSH2 0x107F JUMPI PUSH2 0x107F PUSH2 0x301B JUMP JUMPDEST PUSH1 0x20 MUL PUSH1 0x20 ADD ADD MLOAD DUP5 DUP5 DUP2 MLOAD DUP2 LT PUSH2 0x1099 JUMPI PUSH2 0x1099 PUSH2 0x301B JUMP JUMPDEST PUSH1 0x20 MUL PUSH1 0x20 ADD ADD MLOAD PUSH2 0x196F JUMP JUMPDEST PUSH2 0x1118 JUMPI PUSH1 0x40 MLOAD PUSH3 0x461BCD PUSH1 0xE5 SHL DUP2 MSTORE PUSH1 0x20 PUSH1 0x4 DUP3 ADD MSTORE PUSH1 0x38 PUSH1 0x24 DUP3 ADD MSTORE PUSH32 0x4173736574436F6E74726163742362617463684275726E3A204F4E4C595F544F PUSH1 0x44 DUP3 ADD MSTORE PUSH32 0x4B454E5F414D4F554E545F4F574E45445F414C4C4F5745440000000000000000 PUSH1 0x64 DUP3 ADD MSTORE PUSH1 0x84 ADD PUSH2 0x817 JUMP JUMPDEST DUP1 PUSH2 0x1122 DUP2 PUSH2 0x3031 JUMP JUMPDEST SWAP2 POP POP PUSH2 0x1060 JUMP JUMPDEST POP PUSH2 0xC1E DUP4 DUP4 DUP4 PUSH2 0x19DC JUMP JUMPDEST PUSH1 0xC DUP1 SLOAD PUSH2 0x706 SWAP1 PUSH2 0x2E06 JUMP JUMPDEST PUSH1 0x0 ADDRESS CALLER SUB PUSH2 0x1199 JUMPI PUSH1 0x0 DUP1 CALLDATASIZE DUP1 DUP1 PUSH1 0x1F ADD PUSH1 0x20 DUP1 SWAP2 DIV MUL PUSH1 0x20 ADD PUSH1 0x40 MLOAD SWAP1 DUP2 ADD PUSH1 0x40 MSTORE DUP1 SWAP4 SWAP3 SWAP2 SWAP1 DUP2 DUP2 MSTORE PUSH1 0x20 ADD DUP4 DUP4 DUP1 DUP3 DUP5 CALLDATACOPY PUSH1 0x0 SWAP3 ADD SWAP2 SWAP1 SWAP2 MSTORE POP POP POP POP CALLDATASIZE ADD MLOAD PUSH1 0x1 PUSH1 0x1 PUSH1 0xA0 SHL SUB AND SWAP2 POP PUSH2 0x119C SWAP1 POP JUMP JUMPDEST POP CALLER JUMPDEST SWAP1 JUMP JUMPDEST PUSH1 0x0 PUSH1 0x1 PUSH1 0x1 PUSH1 0xA0 SHL SUB DUP4 AND PUSH2 0x120B JUMPI PUSH1 0x40 MLOAD PUSH3 0x461BCD PUSH1 0xE5 SHL DUP2 MSTORE PUSH1 0x20 PUSH1 0x4 DUP3 ADD MSTORE PUSH1 0x2B PUSH1 0x24 DUP3 ADD MSTORE PUSH32 0x455243313135353A2062616C616E636520717565727920666F7220746865207A PUSH1 0x44 DUP3 ADD MSTORE PUSH11 0x65726F2061646472657373 PUSH1 0xA8 SHL PUSH1 0x64 DUP3 ADD MSTORE PUSH1 0x84 ADD PUSH2 0x817 JUMP JUMPDEST POP PUSH1 0x0 SWAP1 DUP2 MSTORE PUSH1 0x9 PUSH1 0x20 SWAP1 DUP2 MSTORE PUSH1 0x40 DUP1 DUP4 KECCAK256 PUSH1 0x1 PUSH1 0x1 PUSH1 0xA0 SHL SUB SWAP5 SWAP1 SWAP5 AND DUP4 MSTORE SWAP3 SWAP1 MSTORE KECCAK256 SLOAD SWAP1 JUMP JUMPDEST PUSH1 0x0 PUSH2 0xEF6 DUP3 PUSH2 0x1357 JUMP JUMPDEST PUSH1 0x0 DUP2 DUP2 MSTORE PUSH1 0xA PUSH1 0x20 MSTORE PUSH1 0x40 DUP2 KECCAK256 SLOAD PUSH2 0x6A3 SWAP1 PUSH1 0x1 PUSH2 0x30A7 JUMP JUMPDEST PUSH1 0x0 PUSH1 0x1 PUSH1 0x1 PUSH1 0xA0 SHL SUB DUP7 AND PUSH2 0x12BE JUMPI PUSH1 0x40 MLOAD PUSH3 0x461BCD PUSH1 0xE5 SHL DUP2 MSTORE PUSH1 0x20 PUSH1 0x4 DUP3 ADD MSTORE PUSH1 0x25 PUSH1 0x24 DUP3 ADD MSTORE PUSH32 0x4E61746976654D6574615472616E73616374696F6E3A20494E56414C49445F53 PUSH1 0x44 DUP3 ADD MSTORE PUSH5 0x24A3A722A9 PUSH1 0xD9 SHL PUSH1 0x64 DUP3 ADD MSTORE PUSH1 0x84 ADD PUSH2 0x817 JUMP JUMPDEST PUSH1 0x1 PUSH2 0x12D1 PUSH2 0x12CC DUP8 PUSH2 0x1A32 JUMP JUMPDEST PUSH2 0x1AAF JUMP JUMPDEST PUSH1 0x40 DUP1 MLOAD PUSH1 0x0 DUP2 MSTORE PUSH1 0x20 DUP2 ADD DUP1 DUP4 MSTORE SWAP3 SWAP1 SWAP3 MSTORE PUSH1 0xFF DUP6 AND SWAP1 DUP3 ADD MSTORE PUSH1 0x60 DUP2 ADD DUP7 SWAP1 MSTORE PUSH1 0x80 DUP2 ADD DUP6 SWAP1 MSTORE PUSH1 0xA0 ADD PUSH1 0x20 PUSH1 0x40 MLOAD PUSH1 0x20 DUP2 SUB SWAP1 DUP1 DUP5 SUB SWAP1 DUP6 GAS STATICCALL ISZERO DUP1 ISZERO PUSH2 0x131F JUMPI RETURNDATASIZE PUSH1 0x0 DUP1 RETURNDATACOPY RETURNDATASIZE PUSH1 0x0 REVERT JUMPDEST POP POP POP PUSH1 0x20 PUSH1 0x40 MLOAD SUB MLOAD PUSH1 0x1 PUSH1 0x1 PUSH1 0xA0 SHL SUB AND DUP7 PUSH1 0x1 PUSH1 0x1 PUSH1 0xA0 SHL SUB AND EQ SWAP1 POP SWAP6 SWAP5 POP POP POP POP POP JUMP JUMPDEST PUSH1 0x0 PUSH2 0x1352 PUSH2 0x1143 JUMP JUMPDEST SWAP1 POP SWAP1 JUMP JUMPDEST PUSH1 0x0 DUP2 PUSH1 0x1 PUSH1 0x1 PUSH1 0xA0 SHL SUB AND PUSH2 0x1375 PUSH1 0x6 SLOAD PUSH1 0x1 PUSH1 0x1 PUSH1 0xA0 SHL SUB AND SWAP1 JUMP JUMPDEST PUSH1 0x1 PUSH1 0x1 PUSH1 0xA0 SHL SUB AND EQ SWAP3 SWAP2 POP POP JUMP JUMPDEST PUSH1 0x0 DUP2 MLOAD GT PUSH2 0x13EC JUMPI PUSH1 0x40 MLOAD PUSH3 0x461BCD PUSH1 0xE5 SHL DUP2 MSTORE PUSH1 0x20 PUSH1 0x4 DUP3 ADD MSTORE PUSH1 0x2D PUSH1 0x24 DUP3 ADD MSTORE PUSH32 0x4173736574436F6E7472616374237365745065726D616E656E745552493A204F PUSH1 0x44 DUP3 ADD MSTORE PUSH13 0x4E4C595F56414C49445F555249 PUSH1 0x98 SHL PUSH1 0x64 DUP3 ADD MSTORE PUSH1 0x84 ADD PUSH2 0x817 JUMP JUMPDEST PUSH1 0x0 DUP3 DUP2 MSTORE PUSH1 0xE PUSH1 0x20 MSTORE PUSH1 0x40 SWAP1 KECCAK256 DUP1 SLOAD PUSH1 0xFF NOT AND PUSH1 0x1 OR SWAP1 SSTORE PUSH2 0x140F DUP3 DUP3 PUSH2 0x15D5 JUMP JUMPDEST DUP2 PUSH32 0xA109BA539900BF1B633F956D63C96FC89B814C7287F7AA50A9216D0B55657207 DUP3 PUSH1 0x40 MLOAD PUSH2 0x143F SWAP2 SWAP1 PUSH2 0x273C JUMP JUMPDEST PUSH1 0x40 MLOAD DUP1 SWAP2 SUB SWAP1 LOG2 POP POP JUMP JUMPDEST PUSH2 0x1453 PUSH2 0x1ADF JUMP JUMPDEST PUSH1 0x6 DUP1 SLOAD PUSH1 0xFF PUSH1 0xA0 SHL NOT AND SWAP1 SSTORE PUSH32 0x5DB9EE0A495BF2E6FF9C91A7834C1BA4FDD244A5E8AA4E537BD38AEAE4B073AA PUSH2 0x1489 PUSH2 0x1348 JUMP JUMPDEST PUSH1 0x40 MLOAD PUSH1 0x1 PUSH1 0x1 PUSH1 0xA0 SHL SUB SWAP1 SWAP2 AND DUP2 MSTORE PUSH1 0x20 ADD PUSH1 0x40 MLOAD DUP1 SWAP2 SUB SWAP1 LOG1 JUMP JUMPDEST PUSH2 0x14AE PUSH2 0x1348 JUMP JUMPDEST PUSH1 0x1 PUSH1 0x1 PUSH1 0xA0 SHL SUB AND PUSH2 0x14C9 PUSH1 0x6 SLOAD PUSH1 0x1 PUSH1 0x1 PUSH1 0xA0 SHL SUB AND SWAP1 JUMP JUMPDEST PUSH1 0x1 PUSH1 0x1 PUSH1 0xA0 SHL SUB AND EQ PUSH2 0xC52 JUMPI PUSH1 0x40 MLOAD PUSH3 0x461BCD PUSH1 0xE5 SHL DUP2 MSTORE PUSH1 0x20 PUSH1 0x4 DUP3 ADD DUP2 SWAP1 MSTORE PUSH1 0x24 DUP3 ADD MSTORE PUSH32 0x4F776E61626C653A2063616C6C6572206973206E6F7420746865206F776E6572 PUSH1 0x44 DUP3 ADD MSTORE PUSH1 0x64 ADD PUSH2 0x817 JUMP JUMPDEST PUSH1 0x6 DUP1 SLOAD PUSH1 0x1 PUSH1 0x1 PUSH1 0xA0 SHL SUB DUP4 DUP2 AND PUSH1 0x1 PUSH1 0x1 PUSH1 0xA0 SHL SUB NOT DUP4 AND DUP2 OR SWAP1 SWAP4 SSTORE PUSH1 0x40 MLOAD SWAP2 AND SWAP2 SWAP1 DUP3 SWAP1 PUSH32 0x8BE0079C531659141344CD1FD0A4F28419497F9722A3DAAFE3B4186F6B6457E0 SWAP1 PUSH1 0x0 SWAP1 LOG3 POP POP JUMP JUMPDEST PUSH2 0x157D DUP5 DUP5 DUP5 DUP5 PUSH2 0x1B2F JUMP JUMPDEST PUSH1 0x1 DUP2 MLOAD GT ISZERO PUSH2 0xDC2 JUMPI PUSH2 0xDC2 DUP4 DUP3 PUSH2 0xDF7 JUMP JUMPDEST PUSH2 0x1599 PUSH2 0x1C3C JUMP JUMPDEST PUSH1 0x6 DUP1 SLOAD PUSH1 0xFF PUSH1 0xA0 SHL NOT AND PUSH1 0x1 PUSH1 0xA0 SHL OR SWAP1 SSTORE PUSH32 0x62E78CEA01BEE320CD4E420270B5EA74000D11B0C9F74754EBDBFC544B05A258 PUSH2 0x1489 PUSH2 0x1348 JUMP JUMPDEST PUSH1 0x0 DUP3 DUP2 MSTORE PUSH1 0xD PUSH1 0x20 MSTORE PUSH1 0x40 SWAP1 KECCAK256 PUSH2 0x15ED DUP3 DUP3 PUSH2 0x2F5C JUMP JUMPDEST POP DUP2 PUSH32 0x6BB7FF708619BA0610CBA295A58592E0451DEE2622938C8755667688DAF3529B DUP3 PUSH1 0x40 MLOAD PUSH2 0x143F SWAP2 SWAP1 PUSH2 0x273C JUMP JUMPDEST DUP2 PUSH1 0x1 PUSH1 0x1 PUSH1 0xA0 SHL SUB AND DUP4 PUSH1 0x1 PUSH1 0x1 PUSH1 0xA0 SHL SUB AND SUB PUSH2 0x1691 JUMPI PUSH1 0x40 MLOAD PUSH3 0x461BCD PUSH1 0xE5 SHL DUP2 MSTORE PUSH1 0x20 PUSH1 0x4 DUP3 ADD MSTORE PUSH1 0x29 PUSH1 0x24 DUP3 ADD MSTORE PUSH32 0x455243313135353A2073657474696E6720617070726F76616C20737461747573 PUSH1 0x44 DUP3 ADD MSTORE PUSH9 0x103337B91039B2B633 PUSH1 0xB9 SHL PUSH1 0x64 DUP3 ADD MSTORE PUSH1 0x84 ADD PUSH2 0x817 JUMP JUMPDEST PUSH1 0x1 PUSH1 0x1 PUSH1 0xA0 SHL SUB DUP4 DUP2 AND PUSH1 0x0 DUP2 DUP2 MSTORE PUSH1 0x1 PUSH1 0x20 SWAP1 DUP2 MSTORE PUSH1 0x40 DUP1 DUP4 KECCAK256 SWAP5 DUP8 AND DUP1 DUP5 MSTORE SWAP5 DUP3 MSTORE SWAP2 DUP3 SWAP1 KECCAK256 DUP1 SLOAD PUSH1 0xFF NOT AND DUP7 ISZERO ISZERO SWAP1 DUP2 OR SWAP1 SWAP2 SSTORE SWAP2 MLOAD SWAP2 DUP3 MSTORE PUSH32 0x17307EAB39AB6107E8899845AD3D59BD9653F200F220920489CA2B5937696C31 SWAP2 ADD PUSH1 0x40 MLOAD DUP1 SWAP2 SUB SWAP1 LOG3 POP POP POP JUMP JUMPDEST PUSH2 0x170A DUP5 DUP5 DUP5 DUP5 PUSH2 0x1C89 JUMP JUMPDEST PUSH1 0x1 DUP2 MLOAD GT ISZERO PUSH2 0xDC2 JUMPI PUSH1 0x0 JUMPDEST DUP4 MLOAD DUP2 LT ISZERO PUSH2 0x1755 JUMPI PUSH2 0x1743 DUP5 DUP3 DUP2 MLOAD DUP2 LT PUSH2 0x1735 JUMPI PUSH2 0x1735 PUSH2 0x301B JUMP JUMPDEST PUSH1 0x20 MUL PUSH1 0x20 ADD ADD MLOAD DUP4 PUSH2 0xDF7 JUMP JUMPDEST DUP1 PUSH2 0x174D DUP2 PUSH2 0x3031 JUMP JUMPDEST SWAP2 POP POP PUSH2 0x1717 JUMP JUMPDEST POP POP POP POP POP JUMP JUMPDEST PUSH2 0x1764 PUSH2 0x1C3C JUMP JUMPDEST DUP5 PUSH2 0x176D PUSH2 0x1348 JUMP JUMPDEST PUSH1 0x1 PUSH1 0x1 PUSH1 0xA0 SHL SUB AND DUP2 PUSH1 0x1 PUSH1 0x1 PUSH1 0xA0 SHL SUB AND EQ DUP1 PUSH2 0x1793 JUMPI POP PUSH2 0x1793 DUP2 PUSH2 0x5CF PUSH2 0x1348 JUMP JUMPDEST PUSH2 0x17AF JUMPI PUSH1 0x40 MLOAD PUSH3 0x461BCD PUSH1 0xE5 SHL DUP2 MSTORE PUSH1 0x4 ADD PUSH2 0x817 SWAP1 PUSH2 0x30BA JUMP JUMPDEST PUSH1 0x1 PUSH1 0x1 PUSH1 0xA0 SHL SUB DUP6 AND PUSH2 0x1813 JUMPI PUSH1 0x40 MLOAD PUSH3 0x461BCD PUSH1 0xE5 SHL DUP2 MSTORE PUSH1 0x20 PUSH1 0x4 DUP3 ADD MSTORE PUSH1 0x25 PUSH1 0x24 DUP3 ADD MSTORE PUSH32 0x455243313135353A207472616E7366657220746F20746865207A65726F206164 PUSH1 0x44 DUP3 ADD MSTORE PUSH5 0x6472657373 PUSH1 0xD8 SHL PUSH1 0x64 DUP3 ADD MSTORE PUSH1 0x84 ADD PUSH2 0x817 JUMP JUMPDEST PUSH1 0x0 PUSH2 0x181D PUSH2 0x1348 JUMP JUMPDEST SWAP1 POP PUSH2 0x1837 DUP2 DUP9 DUP9 PUSH2 0x182E DUP10 PUSH2 0x1EEC JUMP JUMPDEST PUSH2 0x1755 DUP10 PUSH2 0x1EEC JUMP JUMPDEST PUSH1 0x0 DUP6 DUP2 MSTORE PUSH1 0x9 PUSH1 0x20 SWAP1 DUP2 MSTORE PUSH1 0x40 DUP1 DUP4 KECCAK256 PUSH1 0x1 PUSH1 0x1 PUSH1 0xA0 SHL SUB DUP12 AND DUP5 MSTORE SWAP1 SWAP2 MSTORE SWAP1 KECCAK256 SLOAD DUP5 DUP2 LT ISZERO PUSH2 0x18BD JUMPI PUSH1 0x40 MLOAD PUSH3 0x461BCD PUSH1 0xE5 SHL DUP2 MSTORE PUSH1 0x20 PUSH1 0x4 DUP3 ADD MSTORE PUSH1 0x2A PUSH1 0x24 DUP3 ADD MSTORE PUSH32 0x455243313135353A20696E73756666696369656E742062616C616E636520666F PUSH1 0x44 DUP3 ADD MSTORE PUSH10 0x39103A3930B739B332B9 PUSH1 0xB1 SHL PUSH1 0x64 DUP3 ADD MSTORE PUSH1 0x84 ADD PUSH2 0x817 JUMP JUMPDEST PUSH2 0x18C7 DUP6 DUP3 PUSH2 0x30A7 JUMP JUMPDEST PUSH1 0x0 DUP8 DUP2 MSTORE PUSH1 0x9 PUSH1 0x20 SWAP1 DUP2 MSTORE PUSH1 0x40 DUP1 DUP4 KECCAK256 PUSH1 0x1 PUSH1 0x1 PUSH1 0xA0 SHL SUB DUP14 DUP2 AND DUP6 MSTORE SWAP3 MSTORE DUP1 DUP4 KECCAK256 SWAP4 SWAP1 SWAP4 SSTORE DUP10 AND DUP2 MSTORE SWAP1 DUP2 KECCAK256 DUP1 SLOAD DUP8 SWAP3 SWAP1 PUSH2 0x1905 SWAP1 DUP5 SWAP1 PUSH2 0x2DF3 JUMP JUMPDEST SWAP1 SWAP2 SSTORE POP POP PUSH1 0x40 DUP1 MLOAD DUP8 DUP2 MSTORE PUSH1 0x20 DUP2 ADD DUP8 SWAP1 MSTORE PUSH1 0x1 PUSH1 0x1 PUSH1 0xA0 SHL SUB DUP1 DUP11 AND SWAP3 DUP12 DUP3 AND SWAP3 SWAP2 DUP7 AND SWAP2 PUSH32 0xC3D58168C5AE7397731D063D5BBF3D657854427343F4C083240F7AACAA2D0F62 SWAP2 ADD PUSH1 0x40 MLOAD DUP1 SWAP2 SUB SWAP1 LOG4 PUSH2 0x1965 DUP3 DUP10 DUP10 DUP10 DUP10 DUP10 PUSH2 0x1F37 JUMP JUMPDEST POP POP POP POP POP POP POP POP JUMP JUMPDEST PUSH1 0x0 DUP2 PUSH2 0x197C DUP6 DUP6 PUSH2 0x669 JUMP JUMPDEST LT ISZERO SWAP5 SWAP4 POP POP POP POP JUMP JUMPDEST DUP3 PUSH2 0x198F PUSH2 0x1348 JUMP JUMPDEST PUSH1 0x1 PUSH1 0x1 PUSH1 0xA0 SHL SUB AND DUP2 PUSH1 0x1 PUSH1 0x1 PUSH1 0xA0 SHL SUB AND EQ DUP1 PUSH2 0x19B5 JUMPI POP PUSH2 0x19B5 DUP2 PUSH2 0x5CF PUSH2 0x1348 JUMP JUMPDEST PUSH2 0x19D1 JUMPI PUSH1 0x40 MLOAD PUSH3 0x461BCD PUSH1 0xE5 SHL DUP2 MSTORE PUSH1 0x4 ADD PUSH2 0x817 SWAP1 PUSH2 0x30BA JUMP JUMPDEST PUSH2 0xDC2 DUP5 DUP5 DUP5 PUSH2 0x2092 JUMP JUMPDEST DUP3 PUSH2 0x19E5 PUSH2 0x1348 JUMP JUMPDEST PUSH1 0x1 PUSH1 0x1 PUSH1 0xA0 SHL SUB AND DUP2 PUSH1 0x1 PUSH1 0x1 PUSH1 0xA0 SHL SUB AND EQ DUP1 PUSH2 0x1A0B JUMPI POP PUSH2 0x1A0B DUP2 PUSH2 0x5CF PUSH2 0x1348 JUMP JUMPDEST PUSH2 0x1A27 JUMPI PUSH1 0x40 MLOAD PUSH3 0x461BCD PUSH1 0xE5 SHL DUP2 MSTORE PUSH1 0x4 ADD PUSH2 0x817 SWAP1 PUSH2 0x30BA JUMP JUMPDEST PUSH2 0xDC2 DUP5 DUP5 DUP5 PUSH2 0x22B8 JUMP JUMPDEST PUSH1 0x0 PUSH1 0x40 MLOAD DUP1 PUSH1 0x80 ADD PUSH1 0x40 MSTORE DUP1 PUSH1 0x43 DUP2 MSTORE PUSH1 0x20 ADD PUSH2 0x32D0 PUSH1 0x43 SWAP2 CODECOPY DUP1 MLOAD PUSH1 0x20 SWAP2 DUP3 ADD KECCAK256 DUP4 MLOAD DUP5 DUP4 ADD MLOAD PUSH1 0x40 DUP1 DUP8 ADD MLOAD DUP1 MLOAD SWAP1 DUP7 ADD KECCAK256 SWAP1 MLOAD PUSH2 0x1A92 SWAP6 ADD SWAP4 DUP5 MSTORE PUSH1 0x20 DUP5 ADD SWAP3 SWAP1 SWAP3 MSTORE PUSH1 0x1 PUSH1 0x1 PUSH1 0xA0 SHL SUB AND PUSH1 0x40 DUP4 ADD MSTORE PUSH1 0x60 DUP3 ADD MSTORE PUSH1 0x80 ADD SWAP1 JUMP JUMPDEST PUSH1 0x40 MLOAD PUSH1 0x20 DUP2 DUP4 SUB SUB DUP2 MSTORE SWAP1 PUSH1 0x40 MSTORE DUP1 MLOAD SWAP1 PUSH1 0x20 ADD KECCAK256 SWAP1 POP SWAP2 SWAP1 POP JUMP JUMPDEST PUSH1 0x0 PUSH2 0x1ABA PUSH1 0x4 SLOAD SWAP1 JUMP JUMPDEST PUSH1 0x40 MLOAD PUSH2 0x1901 PUSH1 0xF0 SHL PUSH1 0x20 DUP3 ADD MSTORE PUSH1 0x22 DUP2 ADD SWAP2 SWAP1 SWAP2 MSTORE PUSH1 0x42 DUP2 ADD DUP4 SWAP1 MSTORE PUSH1 0x62 ADD PUSH2 0x1A92 JUMP JUMPDEST PUSH1 0x6 SLOAD PUSH1 0x1 PUSH1 0xA0 SHL SWAP1 DIV PUSH1 0xFF AND PUSH2 0xC52 JUMPI PUSH1 0x40 MLOAD PUSH3 0x461BCD PUSH1 0xE5 SHL DUP2 MSTORE PUSH1 0x20 PUSH1 0x4 DUP3 ADD MSTORE PUSH1 0x14 PUSH1 0x24 DUP3 ADD MSTORE PUSH20 0x14185D5CD8589B194E881B9BDD081C185D5CD959 PUSH1 0x62 SHL PUSH1 0x44 DUP3 ADD MSTORE PUSH1 0x64 ADD PUSH2 0x817 JUMP JUMPDEST PUSH2 0x1B37 PUSH2 0x1C3C JUMP JUMPDEST PUSH1 0x0 PUSH2 0x1B41 PUSH2 0x1348 JUMP JUMPDEST SWAP1 POP PUSH2 0x1B5C DUP2 PUSH1 0x0 DUP8 PUSH2 0x1B53 DUP9 PUSH2 0x1EEC JUMP JUMPDEST PUSH2 0x1755 DUP9 PUSH2 0x1EEC JUMP JUMPDEST PUSH2 0x1B66 DUP5 DUP5 PUSH2 0x2526 JUMP JUMPDEST PUSH1 0x0 DUP5 DUP2 MSTORE PUSH1 0x9 PUSH1 0x20 SWAP1 DUP2 MSTORE PUSH1 0x40 DUP1 DUP4 KECCAK256 PUSH1 0x1 PUSH1 0x1 PUSH1 0xA0 SHL SUB DUP10 AND DUP5 MSTORE SWAP1 SWAP2 MSTORE DUP2 KECCAK256 DUP1 SLOAD DUP6 SWAP3 SWAP1 PUSH2 0x1B98 SWAP1 DUP5 SWAP1 PUSH2 0x2DF3 JUMP JUMPDEST SWAP1 SWAP2 SSTORE POP POP PUSH1 0x0 DUP5 DUP2 MSTORE PUSH1 0xA PUSH1 0x20 MSTORE PUSH1 0x40 DUP2 KECCAK256 DUP1 SLOAD DUP6 SWAP3 SWAP1 PUSH2 0x1BBB SWAP1 DUP5 SWAP1 PUSH2 0x2DF3 JUMP JUMPDEST SWAP1 SWAP2 SSTORE POP PUSH1 0x0 SWAP1 POP PUSH2 0x1BCC DUP6 PUSH2 0x25A4 JUMP JUMPDEST SWAP1 POP DUP6 PUSH1 0x1 PUSH1 0x1 PUSH1 0xA0 SHL SUB AND DUP2 PUSH1 0x1 PUSH1 0x1 PUSH1 0xA0 SHL SUB AND DUP4 PUSH1 0x1 PUSH1 0x1 PUSH1 0xA0 SHL SUB AND PUSH32 0xC3D58168C5AE7397731D063D5BBF3D657854427343F4C083240F7AACAA2D0F62 DUP9 DUP9 PUSH1 0x40 MLOAD PUSH2 0x1C26 SWAP3 SWAP2 SWAP1 SWAP2 DUP3 MSTORE PUSH1 0x20 DUP3 ADD MSTORE PUSH1 0x40 ADD SWAP1 JUMP JUMPDEST PUSH1 0x40 MLOAD DUP1 SWAP2 SUB SWAP1 LOG4 PUSH2 0xBB4 DUP3 DUP3 DUP9 DUP9 DUP9 DUP9 PUSH2 0x1F37 JUMP JUMPDEST PUSH1 0x6 SLOAD PUSH1 0x1 PUSH1 0xA0 SHL SWAP1 DIV PUSH1 0xFF AND ISZERO PUSH2 0xC52 JUMPI PUSH1 0x40 MLOAD PUSH3 0x461BCD PUSH1 0xE5 SHL DUP2 MSTORE PUSH1 0x20 PUSH1 0x4 DUP3 ADD MSTORE PUSH1 0x10 PUSH1 0x24 DUP3 ADD MSTORE PUSH16 0x14185D5CD8589B194E881C185D5CD959 PUSH1 0x82 SHL PUSH1 0x44 DUP3 ADD MSTORE PUSH1 0x64 ADD PUSH2 0x817 JUMP JUMPDEST PUSH2 0x1C91 PUSH2 0x1C3C JUMP JUMPDEST DUP2 MLOAD DUP4 MLOAD EQ PUSH2 0x1CFB JUMPI PUSH1 0x40 MLOAD PUSH3 0x461BCD PUSH1 0xE5 SHL DUP2 MSTORE PUSH1 0x20 PUSH1 0x4 DUP3 ADD MSTORE PUSH1 0x30 PUSH1 0x24 DUP3 ADD MSTORE PUSH32 0x455243313135355472616461626C652362617463684D696E743A20494E56414C PUSH1 0x44 DUP3 ADD MSTORE PUSH16 0x9288BE82A4A482B2A6BE988A9C8EA89 PUSH1 0x83 SHL PUSH1 0x64 DUP3 ADD MSTORE PUSH1 0x84 ADD PUSH2 0x817 JUMP JUMPDEST DUP3 MLOAD PUSH1 0x0 PUSH2 0x1D1E DUP6 DUP3 DUP5 PUSH2 0x1D11 JUMPI PUSH2 0x1D11 PUSH2 0x301B JUMP JUMPDEST PUSH1 0x20 MUL PUSH1 0x20 ADD ADD MLOAD PUSH2 0x25A4 JUMP JUMPDEST SWAP1 POP PUSH1 0x0 PUSH2 0x1D2A PUSH2 0x1348 JUMP JUMPDEST SWAP1 POP PUSH1 0x0 JUMPDEST DUP4 DUP2 LT ISZERO PUSH2 0x1E7D JUMPI PUSH1 0x0 DUP8 DUP3 DUP2 MLOAD DUP2 LT PUSH2 0x1D4B JUMPI PUSH2 0x1D4B PUSH2 0x301B JUMP JUMPDEST PUSH1 0x20 MUL PUSH1 0x20 ADD ADD MLOAD SWAP1 POP PUSH1 0x0 DUP8 DUP4 DUP2 MLOAD DUP2 LT PUSH2 0x1D69 JUMPI PUSH2 0x1D69 PUSH2 0x301B JUMP JUMPDEST PUSH1 0x20 MUL PUSH1 0x20 ADD ADD MLOAD SWAP1 POP PUSH2 0x1D7D DUP3 DUP3 PUSH2 0x2526 JUMP JUMPDEST DUP5 PUSH1 0x1 PUSH1 0x1 PUSH1 0xA0 SHL SUB AND PUSH2 0x1D90 DUP4 PUSH2 0x25A4 JUMP JUMPDEST PUSH1 0x1 PUSH1 0x1 PUSH1 0xA0 SHL SUB AND EQ PUSH2 0x1E0C JUMPI PUSH1 0x40 MLOAD PUSH3 0x461BCD PUSH1 0xE5 SHL DUP2 MSTORE PUSH1 0x20 PUSH1 0x4 DUP3 ADD MSTORE PUSH1 0x37 PUSH1 0x24 DUP3 ADD MSTORE PUSH32 0x455243313135355472616461626C652362617463684D696E743A204D554C5449 PUSH1 0x44 DUP3 ADD MSTORE PUSH32 0x504C455F4F524947494E535F4E4F545F414C4C4F574544000000000000000000 PUSH1 0x64 DUP3 ADD MSTORE PUSH1 0x84 ADD PUSH2 0x817 JUMP JUMPDEST PUSH1 0x0 DUP3 DUP2 MSTORE PUSH1 0x9 PUSH1 0x20 SWAP1 DUP2 MSTORE PUSH1 0x40 DUP1 DUP4 KECCAK256 PUSH1 0x1 PUSH1 0x1 PUSH1 0xA0 SHL SUB DUP15 AND DUP5 MSTORE SWAP1 SWAP2 MSTORE DUP2 KECCAK256 DUP1 SLOAD DUP4 SWAP3 SWAP1 PUSH2 0x1E3E SWAP1 DUP5 SWAP1 PUSH2 0x2DF3 JUMP JUMPDEST SWAP1 SWAP2 SSTORE POP POP PUSH1 0x0 DUP3 DUP2 MSTORE PUSH1 0xA PUSH1 0x20 MSTORE PUSH1 0x40 DUP2 KECCAK256 DUP1 SLOAD DUP4 SWAP3 SWAP1 PUSH2 0x1E61 SWAP1 DUP5 SWAP1 PUSH2 0x2DF3 JUMP JUMPDEST SWAP3 POP POP DUP2 SWAP1 SSTORE POP POP POP DUP1 DUP1 PUSH2 0x1E75 SWAP1 PUSH2 0x3031 JUMP JUMPDEST SWAP2 POP POP PUSH2 0x1D2F JUMP JUMPDEST POP DUP7 PUSH1 0x1 PUSH1 0x1 PUSH1 0xA0 SHL SUB AND DUP3 PUSH1 0x1 PUSH1 0x1 PUSH1 0xA0 SHL SUB AND DUP3 PUSH1 0x1 PUSH1 0x1 PUSH1 0xA0 SHL SUB AND PUSH32 0x4A39DC06D4C0DBC64B70AF90FD698A233A518AA5D07E595D983B8C0526C8F7FB DUP10 DUP10 PUSH1 0x40 MLOAD PUSH2 0x1ECD SWAP3 SWAP2 SWAP1 PUSH2 0x310A JUMP JUMPDEST PUSH1 0x40 MLOAD DUP1 SWAP2 SUB SWAP1 LOG4 PUSH2 0x1EE3 DUP2 DUP4 DUP10 DUP10 DUP10 DUP10 PUSH2 0x25B8 JUMP JUMPDEST POP POP POP POP POP POP POP JUMP JUMPDEST PUSH1 0x40 DUP1 MLOAD PUSH1 0x1 DUP1 DUP3 MSTORE DUP2 DUP4 ADD SWAP1 SWAP3 MSTORE PUSH1 0x60 SWAP2 PUSH1 0x0 SWAP2 SWAP1 PUSH1 0x20 DUP1 DUP4 ADD SWAP1 DUP1 CALLDATASIZE DUP4 CALLDATACOPY ADD SWAP1 POP POP SWAP1 POP DUP3 DUP2 PUSH1 0x0 DUP2 MLOAD DUP2 LT PUSH2 0x1F26 JUMPI PUSH2 0x1F26 PUSH2 0x301B JUMP JUMPDEST PUSH1 0x20 SWAP1 DUP2 MUL SWAP2 SWAP1 SWAP2 ADD ADD MSTORE SWAP3 SWAP2 POP POP JUMP JUMPDEST PUSH1 0x1 PUSH1 0x1 PUSH1 0xA0 SHL SUB DUP5 AND EXTCODESIZE ISZERO PUSH2 0xBB4 JUMPI PUSH1 0x40 MLOAD PUSH4 0xF23A6E61 PUSH1 0xE0 SHL DUP2 MSTORE PUSH1 0x1 PUSH1 0x1 PUSH1 0xA0 SHL SUB DUP6 AND SWAP1 PUSH4 0xF23A6E61 SWAP1 PUSH2 0x1F7B SWAP1 DUP10 SWAP1 DUP10 SWAP1 DUP9 SWAP1 DUP9 SWAP1 DUP9 SWAP1 PUSH1 0x4 ADD PUSH2 0x312F JUMP JUMPDEST PUSH1 0x20 PUSH1 0x40 MLOAD DUP1 DUP4 SUB DUP2 PUSH1 0x0 DUP8 GAS CALL SWAP3 POP POP POP DUP1 ISZERO PUSH2 0x1FB6 JUMPI POP PUSH1 0x40 DUP1 MLOAD PUSH1 0x1F RETURNDATASIZE SWAP1 DUP2 ADD PUSH1 0x1F NOT AND DUP3 ADD SWAP1 SWAP3 MSTORE PUSH2 0x1FB3 SWAP2 DUP2 ADD SWAP1 PUSH2 0x3174 JUMP JUMPDEST PUSH1 0x1 JUMPDEST PUSH2 0x2062 JUMPI PUSH2 0x1FC2 PUSH2 0x3191 JUMP JUMPDEST DUP1 PUSH4 0x8C379A0 SUB PUSH2 0x1FFB JUMPI POP PUSH2 0x1FD6 PUSH2 0x31AC JUMP JUMPDEST DUP1 PUSH2 0x1FE1 JUMPI POP PUSH2 0x1FFD JUMP JUMPDEST DUP1 PUSH1 0x40 MLOAD PUSH3 0x461BCD PUSH1 0xE5 SHL DUP2 MSTORE PUSH1 0x4 ADD PUSH2 0x817 SWAP2 SWAP1 PUSH2 0x273C JUMP JUMPDEST POP JUMPDEST PUSH1 0x40 MLOAD PUSH3 0x461BCD PUSH1 0xE5 SHL DUP2 MSTORE PUSH1 0x20 PUSH1 0x4 DUP3 ADD MSTORE PUSH1 0x34 PUSH1 0x24 DUP3 ADD MSTORE PUSH32 0x455243313135353A207472616E7366657220746F206E6F6E2045524331313535 PUSH1 0x44 DUP3 ADD MSTORE PUSH20 0x2932B1B2B4BB32B91034B6B83632B6B2B73A32B9 PUSH1 0x61 SHL PUSH1 0x64 DUP3 ADD MSTORE PUSH1 0x84 ADD PUSH2 0x817 JUMP JUMPDEST PUSH1 0x1 PUSH1 0x1 PUSH1 0xE0 SHL SUB NOT DUP2 AND PUSH4 0xF23A6E61 PUSH1 0xE0 SHL EQ PUSH2 0x1EE3 JUMPI PUSH1 0x40 MLOAD PUSH3 0x461BCD PUSH1 0xE5 SHL DUP2 MSTORE PUSH1 0x4 ADD PUSH2 0x817 SWAP1 PUSH2 0x3235 JUMP JUMPDEST PUSH2 0x209A PUSH2 0x1C3C JUMP JUMPDEST PUSH1 0x1 PUSH1 0x1 PUSH1 0xA0 SHL SUB DUP4 AND PUSH2 0x20FE JUMPI PUSH1 0x40 MLOAD PUSH3 0x461BCD PUSH1 0xE5 SHL DUP2 MSTORE PUSH1 0x20 PUSH1 0x4 DUP3 ADD MSTORE PUSH1 0x25 PUSH1 0x24 DUP3 ADD MSTORE PUSH32 0x45524331313535235F6275726E3A204255524E5F46524F4D5F5A45524F5F4144 PUSH1 0x44 DUP3 ADD MSTORE PUSH5 0x4452455353 PUSH1 0xD8 SHL PUSH1 0x64 DUP3 ADD MSTORE PUSH1 0x84 ADD PUSH2 0x817 JUMP JUMPDEST PUSH1 0x0 DUP2 GT PUSH2 0x215A JUMPI PUSH1 0x40 MLOAD PUSH3 0x461BCD PUSH1 0xE5 SHL DUP2 MSTORE PUSH1 0x20 PUSH1 0x4 DUP3 ADD MSTORE PUSH1 0x23 PUSH1 0x24 DUP3 ADD MSTORE PUSH32 0x45524331313535235F6275726E3A20414D4F554E545F4C4553535F5448414E5F PUSH1 0x44 DUP3 ADD MSTORE PUSH3 0x4F4E45 PUSH1 0xE8 SHL PUSH1 0x64 DUP3 ADD MSTORE PUSH1 0x84 ADD PUSH2 0x817 JUMP JUMPDEST PUSH1 0x0 PUSH2 0x2164 PUSH2 0x1348 JUMP JUMPDEST SWAP1 POP PUSH2 0x2195 DUP2 DUP6 PUSH1 0x0 PUSH2 0x2176 DUP8 PUSH2 0x1EEC JUMP JUMPDEST PUSH2 0x217F DUP8 PUSH2 0x1EEC JUMP JUMPDEST POP POP PUSH1 0x40 DUP1 MLOAD PUSH1 0x20 DUP2 ADD SWAP1 SWAP2 MSTORE PUSH1 0x0 SWAP1 MSTORE POP POP POP JUMP JUMPDEST PUSH1 0x0 DUP4 DUP2 MSTORE PUSH1 0x9 PUSH1 0x20 SWAP1 DUP2 MSTORE PUSH1 0x40 DUP1 DUP4 KECCAK256 PUSH1 0x1 PUSH1 0x1 PUSH1 0xA0 SHL SUB DUP9 AND DUP5 MSTORE SWAP1 SWAP2 MSTORE SWAP1 KECCAK256 SLOAD DUP3 DUP2 LT ISZERO PUSH2 0x2216 JUMPI PUSH1 0x40 MLOAD PUSH3 0x461BCD PUSH1 0xE5 SHL DUP2 MSTORE PUSH1 0x20 PUSH1 0x4 DUP3 ADD MSTORE PUSH1 0x25 PUSH1 0x24 DUP3 ADD MSTORE PUSH32 0x45524331313535235F6275726E3A20414D4F554E545F455843454544535F4241 PUSH1 0x44 DUP3 ADD MSTORE PUSH5 0x4C414E4345 PUSH1 0xD8 SHL PUSH1 0x64 DUP3 ADD MSTORE PUSH1 0x84 ADD PUSH2 0x817 JUMP JUMPDEST PUSH2 0x2220 DUP4 DUP3 PUSH2 0x30A7 JUMP JUMPDEST PUSH1 0x0 DUP6 DUP2 MSTORE PUSH1 0x9 PUSH1 0x20 SWAP1 DUP2 MSTORE PUSH1 0x40 DUP1 DUP4 KECCAK256 PUSH1 0x1 PUSH1 0x1 PUSH1 0xA0 SHL SUB DUP11 AND DUP5 MSTORE DUP3 MSTORE DUP1 DUP4 KECCAK256 SWAP4 SWAP1 SWAP4 SSTORE DUP7 DUP3 MSTORE PUSH1 0xA SWAP1 MSTORE SWAP1 DUP2 KECCAK256 DUP1 SLOAD DUP6 SWAP3 SWAP1 PUSH2 0x2260 SWAP1 DUP5 SWAP1 PUSH2 0x30A7 JUMP JUMPDEST SWAP1 SWAP2 SSTORE POP POP PUSH1 0x40 DUP1 MLOAD DUP6 DUP2 MSTORE PUSH1 0x20 DUP2 ADD DUP6 SWAP1 MSTORE PUSH1 0x0 SWAP2 PUSH1 0x1 PUSH1 0x1 PUSH1 0xA0 SHL SUB DUP9 DUP2 AND SWAP3 SWAP1 DUP7 AND SWAP2 PUSH32 0xC3D58168C5AE7397731D063D5BBF3D657854427343F4C083240F7AACAA2D0F62 SWAP2 ADD PUSH1 0x40 MLOAD DUP1 SWAP2 SUB SWAP1 LOG4 POP POP POP POP POP JUMP JUMPDEST PUSH2 0x22C0 PUSH2 0x1C3C JUMP JUMPDEST PUSH1 0x1 PUSH1 0x1 PUSH1 0xA0 SHL SUB DUP4 AND PUSH2 0x2316 JUMPI PUSH1 0x40 MLOAD PUSH3 0x461BCD PUSH1 0xE5 SHL DUP2 MSTORE PUSH1 0x20 PUSH1 0x4 DUP3 ADD MSTORE PUSH1 0x1F PUSH1 0x24 DUP3 ADD MSTORE PUSH32 0x455243313135353A204255524E5F46524F4D5F5A45524F5F4144445245535300 PUSH1 0x44 DUP3 ADD MSTORE PUSH1 0x64 ADD PUSH2 0x817 JUMP JUMPDEST DUP1 MLOAD DUP3 MLOAD EQ PUSH2 0x2373 JUMPI PUSH1 0x40 MLOAD PUSH3 0x461BCD PUSH1 0xE5 SHL DUP2 MSTORE PUSH1 0x20 PUSH1 0x4 DUP3 ADD MSTORE PUSH1 0x24 DUP1 DUP3 ADD MSTORE PUSH32 0x455243313135353A204944535F414D4F554E54535F4C454E4754485F4D49534D PUSH1 0x44 DUP3 ADD MSTORE PUSH4 0x82A8869 PUSH1 0xE3 SHL PUSH1 0x64 DUP3 ADD MSTORE PUSH1 0x84 ADD PUSH2 0x817 JUMP JUMPDEST PUSH1 0x0 PUSH2 0x237D PUSH2 0x1348 JUMP JUMPDEST PUSH1 0x40 DUP1 MLOAD PUSH1 0x20 DUP2 ADD SWAP1 SWAP2 MSTORE PUSH1 0x0 SWAP1 MSTORE SWAP1 POP PUSH1 0x0 JUMPDEST DUP4 MLOAD DUP2 LT ISZERO PUSH2 0x24C7 JUMPI PUSH1 0x0 DUP5 DUP3 DUP2 MLOAD DUP2 LT PUSH2 0x23AE JUMPI PUSH2 0x23AE PUSH2 0x301B JUMP JUMPDEST PUSH1 0x20 MUL PUSH1 0x20 ADD ADD MLOAD SWAP1 POP PUSH1 0x0 DUP5 DUP4 DUP2 MLOAD DUP2 LT PUSH2 0x23CC JUMPI PUSH2 0x23CC PUSH2 0x301B JUMP JUMPDEST PUSH1 0x20 SWAP1 DUP2 MUL SWAP2 SWAP1 SWAP2 ADD DUP2 ADD MLOAD PUSH1 0x0 DUP5 DUP2 MSTORE PUSH1 0x9 DUP4 MSTORE PUSH1 0x40 DUP1 DUP3 KECCAK256 PUSH1 0x1 PUSH1 0x1 PUSH1 0xA0 SHL SUB DUP13 AND DUP4 MSTORE SWAP1 SWAP4 MSTORE SWAP2 SWAP1 SWAP2 KECCAK256 SLOAD SWAP1 SWAP2 POP DUP2 DUP2 LT ISZERO PUSH2 0x2460 JUMPI PUSH1 0x40 MLOAD PUSH3 0x461BCD PUSH1 0xE5 SHL DUP2 MSTORE PUSH1 0x20 PUSH1 0x4 DUP3 ADD MSTORE PUSH1 0x2A PUSH1 0x24 DUP3 ADD MSTORE PUSH32 0x45524331313535235F6275726E42617463683A20414D4F554E545F4558434545 PUSH1 0x44 DUP3 ADD MSTORE PUSH10 0x44535F42414C414E4345 PUSH1 0xB0 SHL PUSH1 0x64 DUP3 ADD MSTORE PUSH1 0x84 ADD PUSH2 0x817 JUMP JUMPDEST PUSH2 0x246A DUP3 DUP3 PUSH2 0x30A7 JUMP JUMPDEST PUSH1 0x0 DUP5 DUP2 MSTORE PUSH1 0x9 PUSH1 0x20 SWAP1 DUP2 MSTORE PUSH1 0x40 DUP1 DUP4 KECCAK256 PUSH1 0x1 PUSH1 0x1 PUSH1 0xA0 SHL SUB DUP14 AND DUP5 MSTORE DUP3 MSTORE DUP1 DUP4 KECCAK256 SWAP4 SWAP1 SWAP4 SSTORE DUP6 DUP3 MSTORE PUSH1 0xA SWAP1 MSTORE SWAP1 DUP2 KECCAK256 DUP1 SLOAD DUP5 SWAP3 SWAP1 PUSH2 0x24AA SWAP1 DUP5 SWAP1 PUSH2 0x30A7 JUMP JUMPDEST SWAP3 POP POP DUP2 SWAP1 SSTORE POP POP POP POP DUP1 DUP1 PUSH2 0x24BF SWAP1 PUSH2 0x3031 JUMP JUMPDEST SWAP2 POP POP PUSH2 0x2391 JUMP JUMPDEST POP PUSH1 0x0 PUSH1 0x1 PUSH1 0x1 PUSH1 0xA0 SHL SUB AND DUP5 PUSH1 0x1 PUSH1 0x1 PUSH1 0xA0 SHL SUB AND DUP3 PUSH1 0x1 PUSH1 0x1 PUSH1 0xA0 SHL SUB AND PUSH32 0x4A39DC06D4C0DBC64B70AF90FD698A233A518AA5D07E595D983B8C0526C8F7FB DUP7 DUP7 PUSH1 0x40 MLOAD PUSH2 0x2518 SWAP3 SWAP2 SWAP1 PUSH2 0x310A JUMP JUMPDEST PUSH1 0x40 MLOAD DUP1 SWAP2 SUB SWAP1 LOG4 POP POP POP POP JUMP JUMPDEST PUSH2 0x252F DUP3 PUSH2 0x123E JUMP JUMPDEST DUP2 GT ISZERO PUSH2 0xADC JUMPI PUSH1 0x40 MLOAD PUSH3 0x461BCD PUSH1 0xE5 SHL DUP2 MSTORE PUSH1 0x20 PUSH1 0x4 DUP3 ADD MSTORE PUSH1 0x3C PUSH1 0x24 DUP3 ADD MSTORE PUSH32 0x4173736574436F6E7472616374235F6265666F72654D696E743A205155414E54 PUSH1 0x44 DUP3 ADD MSTORE PUSH32 0x4954595F455843454544535F544F4B454E5F535550504C595F43415000000000 PUSH1 0x64 DUP3 ADD MSTORE PUSH1 0x84 ADD PUSH2 0x817 JUMP JUMPDEST PUSH1 0x0 PUSH2 0x6A3 PUSH1 0x6 SLOAD PUSH1 0x1 PUSH1 0x1 PUSH1 0xA0 SHL SUB AND SWAP1 JUMP JUMPDEST PUSH1 0x1 PUSH1 0x1 PUSH1 0xA0 SHL SUB DUP5 AND EXTCODESIZE ISZERO PUSH2 0xBB4 JUMPI PUSH1 0x40 MLOAD PUSH4 0xBC197C81 PUSH1 0xE0 SHL DUP2 MSTORE PUSH1 0x1 PUSH1 0x1 PUSH1 0xA0 SHL SUB DUP6 AND SWAP1 PUSH4 0xBC197C81 SWAP1 PUSH2 0x25FC SWAP1 DUP10 SWAP1 DUP10 SWAP1 DUP9 SWAP1 DUP9 SWAP1 DUP9 SWAP1 PUSH1 0x4 ADD PUSH2 0x327D JUMP JUMPDEST PUSH1 0x20 PUSH1 0x40 MLOAD DUP1 DUP4 SUB DUP2 PUSH1 0x0 DUP8 GAS CALL SWAP3 POP POP POP DUP1 ISZERO PUSH2 0x2637 JUMPI POP PUSH1 0x40 DUP1 MLOAD PUSH1 0x1F RETURNDATASIZE SWAP1 DUP2 ADD PUSH1 0x1F NOT AND DUP3 ADD SWAP1 SWAP3 MSTORE PUSH2 0x2634 SWAP2 DUP2 ADD SWAP1 PUSH2 0x3174 JUMP JUMPDEST PUSH1 0x1 JUMPDEST PUSH2 0x2643 JUMPI PUSH2 0x1FC2 PUSH2 0x3191 JUMP JUMPDEST PUSH1 0x1 PUSH1 0x1 PUSH1 0xE0 SHL SUB NOT DUP2 AND PUSH4 0xBC197C81 PUSH1 0xE0 SHL EQ PUSH2 0x1EE3 JUMPI PUSH1 0x40 MLOAD PUSH3 0x461BCD PUSH1 0xE5 SHL DUP2 MSTORE PUSH1 0x4 ADD PUSH2 0x817 SWAP1 PUSH2 0x3235 JUMP JUMPDEST DUP1 CALLDATALOAD PUSH1 0x1 PUSH1 0x1 PUSH1 0xA0 SHL SUB DUP2 AND DUP2 EQ PUSH2 0x268A JUMPI PUSH1 0x0 DUP1 REVERT JUMPDEST SWAP2 SWAP1 POP JUMP JUMPDEST PUSH1 0x0 DUP1 PUSH1 0x40 DUP4 DUP6 SUB SLT ISZERO PUSH2 0x26A2 JUMPI PUSH1 0x0 DUP1 REVERT JUMPDEST PUSH2 0x26AB DUP4 PUSH2 0x2673 JUMP JUMPDEST SWAP5 PUSH1 0x20 SWAP4 SWAP1 SWAP4 ADD CALLDATALOAD SWAP4 POP POP POP JUMP JUMPDEST PUSH1 0x1 PUSH1 0x1 PUSH1 0xE0 SHL SUB NOT DUP2 AND DUP2 EQ PUSH2 0xFC3 JUMPI PUSH1 0x0 DUP1 REVERT JUMPDEST PUSH1 0x0 PUSH1 0x20 DUP3 DUP5 SUB SLT ISZERO PUSH2 0x26E1 JUMPI PUSH1 0x0 DUP1 REVERT JUMPDEST DUP2 CALLDATALOAD PUSH2 0xEF6 DUP2 PUSH2 0x26B9 JUMP JUMPDEST PUSH1 0x0 JUMPDEST DUP4 DUP2 LT ISZERO PUSH2 0x2707 JUMPI DUP2 DUP2 ADD MLOAD DUP4 DUP3 ADD MSTORE PUSH1 0x20 ADD PUSH2 0x26EF JUMP JUMPDEST POP POP PUSH1 0x0 SWAP2 ADD MSTORE JUMP JUMPDEST PUSH1 0x0 DUP2 MLOAD DUP1 DUP5 MSTORE PUSH2 0x2728 DUP2 PUSH1 0x20 DUP7 ADD PUSH1 0x20 DUP7 ADD PUSH2 0x26EC JUMP JUMPDEST PUSH1 0x1F ADD PUSH1 0x1F NOT AND SWAP3 SWAP1 SWAP3 ADD PUSH1 0x20 ADD SWAP3 SWAP2 POP POP JUMP JUMPDEST PUSH1 0x20 DUP2 MSTORE PUSH1 0x0 PUSH2 0xEF6 PUSH1 0x20 DUP4 ADD DUP5 PUSH2 0x2710 JUMP JUMPDEST PUSH4 0x4E487B71 PUSH1 0xE0 SHL PUSH1 0x0 MSTORE PUSH1 0x41 PUSH1 0x4 MSTORE PUSH1 0x24 PUSH1 0x0 REVERT JUMPDEST PUSH1 0x1F DUP3 ADD PUSH1 0x1F NOT AND DUP2 ADD PUSH1 0x1 PUSH1 0x1 PUSH1 0x40 SHL SUB DUP2 GT DUP3 DUP3 LT OR ISZERO PUSH2 0x278A JUMPI PUSH2 0x278A PUSH2 0x274F JUMP JUMPDEST PUSH1 0x40 MSTORE POP POP JUMP JUMPDEST PUSH1 0x0 DUP3 PUSH1 0x1F DUP4 ADD SLT PUSH2 0x27A2 JUMPI PUSH1 0x0 DUP1 REVERT JUMPDEST DUP2 CALLDATALOAD PUSH1 0x1 PUSH1 0x1 PUSH1 0x40 SHL SUB DUP2 GT ISZERO PUSH2 0x27BB JUMPI PUSH2 0x27BB PUSH2 0x274F JUMP JUMPDEST PUSH1 0x40 MLOAD PUSH2 0x27D2 PUSH1 0x1F DUP4 ADD PUSH1 0x1F NOT AND PUSH1 0x20 ADD DUP3 PUSH2 0x2765 JUMP JUMPDEST DUP2 DUP2 MSTORE DUP5 PUSH1 0x20 DUP4 DUP7 ADD ADD GT ISZERO PUSH2 0x27E7 JUMPI PUSH1 0x0 DUP1 REVERT JUMPDEST DUP2 PUSH1 0x20 DUP6 ADD PUSH1 0x20 DUP4 ADD CALLDATACOPY PUSH1 0x0 SWAP2 DUP2 ADD PUSH1 0x20 ADD SWAP2 SWAP1 SWAP2 MSTORE SWAP4 SWAP3 POP POP POP JUMP JUMPDEST PUSH1 0x0 DUP1 PUSH1 0x0 DUP1 PUSH1 0x0 PUSH1 0xA0 DUP7 DUP9 SUB SLT ISZERO PUSH2 0x281C JUMPI PUSH1 0x0 DUP1 REVERT JUMPDEST PUSH2 0x2825 DUP7 PUSH2 0x2673 JUMP JUMPDEST SWAP5 POP PUSH1 0x20 DUP7 ADD CALLDATALOAD PUSH1 0x1 PUSH1 0x1 PUSH1 0x40 SHL SUB DUP2 GT ISZERO PUSH2 0x2840 JUMPI PUSH1 0x0 DUP1 REVERT JUMPDEST PUSH2 0x284C DUP9 DUP3 DUP10 ADD PUSH2 0x2791 JUMP JUMPDEST SWAP5 POP POP PUSH1 0x40 DUP7 ADD CALLDATALOAD SWAP3 POP PUSH1 0x60 DUP7 ADD CALLDATALOAD SWAP2 POP PUSH1 0x80 DUP7 ADD CALLDATALOAD PUSH1 0xFF DUP2 AND DUP2 EQ PUSH2 0x2871 JUMPI PUSH1 0x0 DUP1 REVERT JUMPDEST DUP1 SWAP2 POP POP SWAP3 SWAP6 POP SWAP3 SWAP6 SWAP1 SWAP4 POP JUMP JUMPDEST PUSH1 0x0 PUSH1 0x20 DUP3 DUP5 SUB SLT ISZERO PUSH2 0x2891 JUMPI PUSH1 0x0 DUP1 REVERT JUMPDEST POP CALLDATALOAD SWAP2 SWAP1 POP JUMP JUMPDEST PUSH1 0x0 PUSH1 0x20 DUP3 DUP5 SUB SLT ISZERO PUSH2 0x28AA JUMPI PUSH1 0x0 DUP1 REVERT JUMPDEST DUP2 CALLDATALOAD PUSH1 0x1 PUSH1 0x1 PUSH1 0x40 SHL SUB DUP2 GT ISZERO PUSH2 0x28C0 JUMPI PUSH1 0x0 DUP1 REVERT JUMPDEST PUSH2 0x69F DUP5 DUP3 DUP6 ADD PUSH2 0x2791 JUMP JUMPDEST PUSH1 0x0 PUSH1 0x20 DUP3 DUP5 SUB SLT ISZERO PUSH2 0x28DE JUMPI PUSH1 0x0 DUP1 REVERT JUMPDEST PUSH2 0xEF6 DUP3 PUSH2 0x2673 JUMP JUMPDEST PUSH1 0x0 PUSH1 0x1 PUSH1 0x1 PUSH1 0x40 SHL SUB DUP3 GT ISZERO PUSH2 0x2900 JUMPI PUSH2 0x2900 PUSH2 0x274F JUMP JUMPDEST POP PUSH1 0x5 SHL PUSH1 0x20 ADD SWAP1 JUMP JUMPDEST PUSH1 0x0 DUP3 PUSH1 0x1F DUP4 ADD SLT PUSH2 0x291B JUMPI PUSH1 0x0 DUP1 REVERT JUMPDEST DUP2 CALLDATALOAD PUSH1 0x20 PUSH2 0x2928 DUP3 PUSH2 0x28E7 JUMP JUMPDEST PUSH1 0x40 MLOAD PUSH2 0x2935 DUP3 DUP3 PUSH2 0x2765 JUMP JUMPDEST DUP4 DUP2 MSTORE PUSH1 0x5 SWAP4 SWAP1 SWAP4 SHL DUP6 ADD DUP3 ADD SWAP3 DUP3 DUP2 ADD SWAP2 POP DUP7 DUP5 GT ISZERO PUSH2 0x2955 JUMPI PUSH1 0x0 DUP1 REVERT JUMPDEST DUP3 DUP7 ADD JUMPDEST DUP5 DUP2 LT ISZERO PUSH2 0x2970 JUMPI DUP1 CALLDATALOAD DUP4 MSTORE SWAP2 DUP4 ADD SWAP2 DUP4 ADD PUSH2 0x2959 JUMP JUMPDEST POP SWAP7 SWAP6 POP POP POP POP POP POP JUMP JUMPDEST PUSH1 0x0 DUP1 PUSH1 0x0 DUP1 PUSH1 0x0 PUSH1 0xA0 DUP7 DUP9 SUB SLT ISZERO PUSH2 0x2993 JUMPI PUSH1 0x0 DUP1 REVERT JUMPDEST PUSH2 0x299C DUP7 PUSH2 0x2673 JUMP JUMPDEST SWAP5 POP PUSH2 0x29AA PUSH1 0x20 DUP8 ADD PUSH2 0x2673 JUMP JUMPDEST SWAP4 POP PUSH1 0x40 DUP7 ADD CALLDATALOAD PUSH1 0x1 PUSH1 0x1 PUSH1 0x40 SHL SUB DUP1 DUP3 GT ISZERO PUSH2 0x29C6 JUMPI PUSH1 0x0 DUP1 REVERT JUMPDEST PUSH2 0x29D2 DUP10 DUP4 DUP11 ADD PUSH2 0x290A JUMP JUMPDEST SWAP5 POP PUSH1 0x60 DUP9 ADD CALLDATALOAD SWAP2 POP DUP1 DUP3 GT ISZERO PUSH2 0x29E8 JUMPI PUSH1 0x0 DUP1 REVERT JUMPDEST PUSH2 0x29F4 DUP10 DUP4 DUP11 ADD PUSH2 0x290A JUMP JUMPDEST SWAP4 POP PUSH1 0x80 DUP9 ADD CALLDATALOAD SWAP2 POP DUP1 DUP3 GT ISZERO PUSH2 0x2A0A JUMPI PUSH1 0x0 DUP1 REVERT JUMPDEST POP PUSH2 0x2A17 DUP9 DUP3 DUP10 ADD PUSH2 0x2791 JUMP JUMPDEST SWAP2 POP POP SWAP3 SWAP6 POP SWAP3 SWAP6 SWAP1 SWAP4 POP JUMP JUMPDEST PUSH1 0x0 DUP1 PUSH1 0x40 DUP4 DUP6 SUB SLT ISZERO PUSH2 0x2A37 JUMPI PUSH1 0x0 DUP1 REVERT JUMPDEST DUP3 CALLDATALOAD SWAP2 POP PUSH1 0x20 DUP4 ADD CALLDATALOAD PUSH1 0x1 PUSH1 0x1 PUSH1 0x40 SHL SUB DUP2 GT ISZERO PUSH2 0x2A54 JUMPI PUSH1 0x0 DUP1 REVERT JUMPDEST PUSH2 0x2A60 DUP6 DUP3 DUP7 ADD PUSH2 0x2791 JUMP JUMPDEST SWAP2 POP POP SWAP3 POP SWAP3 SWAP1 POP JUMP JUMPDEST PUSH1 0x0 DUP1 PUSH1 0x40 DUP4 DUP6 SUB SLT ISZERO PUSH2 0x2A7D JUMPI PUSH1 0x0 DUP1 REVERT JUMPDEST DUP3 CALLDATALOAD PUSH1 0x1 PUSH1 0x1 PUSH1 0x40 SHL SUB DUP1 DUP3 GT ISZERO PUSH2 0x2A94 JUMPI PUSH1 0x0 DUP1 REVERT JUMPDEST DUP2 DUP6 ADD SWAP2 POP DUP6 PUSH1 0x1F DUP4 ADD SLT PUSH2 0x2AA8 JUMPI PUSH1 0x0 DUP1 REVERT JUMPDEST DUP2 CALLDATALOAD PUSH1 0x20 PUSH2 0x2AB5 DUP3 PUSH2 0x28E7 JUMP JUMPDEST PUSH1 0x40 MLOAD PUSH2 0x2AC2 DUP3 DUP3 PUSH2 0x2765 JUMP JUMPDEST DUP4 DUP2 MSTORE PUSH1 0x5 SWAP4 SWAP1 SWAP4 SHL DUP6 ADD DUP3 ADD SWAP3 DUP3 DUP2 ADD SWAP2 POP DUP10 DUP5 GT ISZERO PUSH2 0x2AE2 JUMPI PUSH1 0x0 DUP1 REVERT JUMPDEST SWAP5 DUP3 ADD SWAP5 JUMPDEST DUP4 DUP7 LT ISZERO PUSH2 0x2B07 JUMPI PUSH2 0x2AF8 DUP7 PUSH2 0x2673 JUMP JUMPDEST DUP3 MSTORE SWAP5 DUP3 ADD SWAP5 SWAP1 DUP3 ADD SWAP1 PUSH2 0x2AE7 JUMP JUMPDEST SWAP7 POP POP DUP7 ADD CALLDATALOAD SWAP3 POP POP DUP1 DUP3 GT ISZERO PUSH2 0x2B1D JUMPI PUSH1 0x0 DUP1 REVERT JUMPDEST POP PUSH2 0x2A60 DUP6 DUP3 DUP7 ADD PUSH2 0x290A JUMP JUMPDEST PUSH1 0x0 DUP2 MLOAD DUP1 DUP5 MSTORE PUSH1 0x20 DUP1 DUP6 ADD SWAP5 POP DUP1 DUP5 ADD PUSH1 0x0 JUMPDEST DUP4 DUP2 LT ISZERO PUSH2 0x2B5A JUMPI DUP2 MLOAD DUP8 MSTORE SWAP6 DUP3 ADD SWAP6 SWAP1 DUP3 ADD SWAP1 PUSH1 0x1 ADD PUSH2 0x2B3E JUMP JUMPDEST POP SWAP5 SWAP6 SWAP5 POP POP POP POP POP JUMP JUMPDEST PUSH1 0x20 DUP2 MSTORE PUSH1 0x0 PUSH2 0xEF6 PUSH1 0x20 DUP4 ADD DUP5 PUSH2 0x2B2A JUMP JUMPDEST PUSH1 0x0 DUP1 PUSH1 0x0 DUP1 PUSH1 0x80 DUP6 DUP8 SUB SLT ISZERO PUSH2 0x2B8E JUMPI PUSH1 0x0 DUP1 REVERT JUMPDEST PUSH2 0x2B97 DUP6 PUSH2 0x2673 JUMP JUMPDEST SWAP4 POP PUSH1 0x20 DUP6 ADD CALLDATALOAD SWAP3 POP PUSH1 0x40 DUP6 ADD CALLDATALOAD SWAP2 POP PUSH1 0x60 DUP6 ADD CALLDATALOAD PUSH1 0x1 PUSH1 0x1 PUSH1 0x40 SHL SUB DUP2 GT ISZERO PUSH2 0x2BC0 JUMPI PUSH1 0x0 DUP1 REVERT JUMPDEST PUSH2 0x2BCC DUP8 DUP3 DUP9 ADD PUSH2 0x2791 JUMP JUMPDEST SWAP2 POP POP SWAP3 SWAP6 SWAP2 SWAP5 POP SWAP3 POP JUMP JUMPDEST PUSH1 0x0 DUP1 PUSH1 0x40 DUP4 DUP6 SUB SLT ISZERO PUSH2 0x2BEB JUMPI PUSH1 0x0 DUP1 REVERT JUMPDEST PUSH2 0x2BF4 DUP4 PUSH2 0x2673 JUMP JUMPDEST SWAP2 POP PUSH1 0x20 DUP4 ADD CALLDATALOAD DUP1 ISZERO ISZERO DUP2 EQ PUSH2 0x2C09 JUMPI PUSH1 0x0 DUP1 REVERT JUMPDEST DUP1 SWAP2 POP POP SWAP3 POP SWAP3 SWAP1 POP JUMP JUMPDEST PUSH1 0x0 DUP1 PUSH1 0x0 DUP1 PUSH1 0x80 DUP6 DUP8 SUB SLT ISZERO PUSH2 0x2C2A JUMPI PUSH1 0x0 DUP1 REVERT JUMPDEST PUSH2 0x2C33 DUP6 PUSH2 0x2673 JUMP JUMPDEST SWAP4 POP PUSH1 0x20 DUP6 ADD CALLDATALOAD PUSH1 0x1 PUSH1 0x1 PUSH1 0x40 SHL SUB DUP1 DUP3 GT ISZERO PUSH2 0x2C4F JUMPI PUSH1 0x0 DUP1 REVERT JUMPDEST PUSH2 0x2C5B DUP9 DUP4 DUP10 ADD PUSH2 0x290A JUMP JUMPDEST SWAP5 POP PUSH1 0x40 DUP8 ADD CALLDATALOAD SWAP2 POP DUP1 DUP3 GT ISZERO PUSH2 0x2C71 JUMPI PUSH1 0x0 DUP1 REVERT JUMPDEST PUSH2 0x2C7D DUP9 DUP4 DUP10 ADD PUSH2 0x290A JUMP JUMPDEST SWAP4 POP PUSH1 0x60 DUP8 ADD CALLDATALOAD SWAP2 POP DUP1 DUP3 GT ISZERO PUSH2 0x2C93 JUMPI PUSH1 0x0 DUP1 REVERT JUMPDEST POP PUSH2 0x2BCC DUP8 DUP3 DUP9 ADD PUSH2 0x2791 JUMP JUMPDEST PUSH1 0x0 DUP1 PUSH1 0x40 DUP4 DUP6 SUB SLT ISZERO PUSH2 0x2CB3 JUMPI PUSH1 0x0 DUP1 REVERT JUMPDEST PUSH2 0x2CBC DUP4 PUSH2 0x2673 JUMP JUMPDEST SWAP2 POP PUSH2 0x2CCA PUSH1 0x20 DUP5 ADD PUSH2 0x2673 JUMP JUMPDEST SWAP1 POP SWAP3 POP SWAP3 SWAP1 POP JUMP JUMPDEST PUSH1 0x0 DUP1 PUSH1 0x0 DUP1 PUSH1 0x0 PUSH1 0xA0 DUP7 DUP9 SUB SLT ISZERO PUSH2 0x2CEB JUMPI PUSH1 0x0 DUP1 REVERT JUMPDEST PUSH2 0x2CF4 DUP7 PUSH2 0x2673 JUMP JUMPDEST SWAP5 POP PUSH2 0x2D02 PUSH1 0x20 DUP8 ADD PUSH2 0x2673 JUMP JUMPDEST SWAP4 POP PUSH1 0x40 DUP7 ADD CALLDATALOAD SWAP3 POP PUSH1 0x60 DUP7 ADD CALLDATALOAD SWAP2 POP PUSH1 0x80 DUP7 ADD CALLDATALOAD PUSH1 0x1 PUSH1 0x1 PUSH1 0x40 SHL SUB DUP2 GT ISZERO PUSH2 0x2D2B JUMPI PUSH1 0x0 DUP1 REVERT JUMPDEST PUSH2 0x2A17 DUP9 DUP3 DUP10 ADD PUSH2 0x2791 JUMP JUMPDEST PUSH1 0x0 DUP1 PUSH1 0x0 PUSH1 0x60 DUP5 DUP7 SUB SLT ISZERO PUSH2 0x2D4C JUMPI PUSH1 0x0 DUP1 REVERT JUMPDEST PUSH2 0x2D55 DUP5 PUSH2 0x2673 JUMP JUMPDEST SWAP6 PUSH1 0x20 DUP6 ADD CALLDATALOAD SWAP6 POP PUSH1 0x40 SWAP1 SWAP5 ADD CALLDATALOAD SWAP4 SWAP3 POP POP POP JUMP JUMPDEST PUSH1 0x0 DUP1 PUSH1 0x0 PUSH1 0x60 DUP5 DUP7 SUB SLT ISZERO PUSH2 0x2D7F JUMPI PUSH1 0x0 DUP1 REVERT JUMPDEST PUSH2 0x2D88 DUP5 PUSH2 0x2673 JUMP JUMPDEST SWAP3 POP PUSH1 0x20 DUP5 ADD CALLDATALOAD PUSH1 0x1 PUSH1 0x1 PUSH1 0x40 SHL SUB DUP1 DUP3 GT ISZERO PUSH2 0x2DA4 JUMPI PUSH1 0x0 DUP1 REVERT JUMPDEST PUSH2 0x2DB0 DUP8 DUP4 DUP9 ADD PUSH2 0x290A JUMP JUMPDEST SWAP4 POP PUSH1 0x40 DUP7 ADD CALLDATALOAD SWAP2 POP DUP1 DUP3 GT ISZERO PUSH2 0x2DC6 JUMPI PUSH1 0x0 DUP1 REVERT JUMPDEST POP PUSH2 0x2DD3 DUP7 DUP3 DUP8 ADD PUSH2 0x290A JUMP JUMPDEST SWAP2 POP POP SWAP3 POP SWAP3 POP SWAP3 JUMP JUMPDEST PUSH4 0x4E487B71 PUSH1 0xE0 SHL PUSH1 0x0 MSTORE PUSH1 0x11 PUSH1 0x4 MSTORE PUSH1 0x24 PUSH1 0x0 REVERT JUMPDEST DUP1 DUP3 ADD DUP1 DUP3 GT ISZERO PUSH2 0x6A3 JUMPI PUSH2 0x6A3 PUSH2 0x2DDD JUMP JUMPDEST PUSH1 0x1 DUP2 DUP2 SHR SWAP1 DUP3 AND DUP1 PUSH2 0x2E1A JUMPI PUSH1 0x7F DUP3 AND SWAP2 POP JUMPDEST PUSH1 0x20 DUP3 LT DUP2 SUB PUSH2 0x2E3A JUMPI PUSH4 0x4E487B71 PUSH1 0xE0 SHL PUSH1 0x0 MSTORE PUSH1 0x22 PUSH1 0x4 MSTORE PUSH1 0x24 PUSH1 0x0 REVERT JUMPDEST POP SWAP2 SWAP1 POP JUMP JUMPDEST PUSH1 0x1 PUSH1 0x1 PUSH1 0xA0 SHL SUB DUP5 DUP2 AND DUP3 MSTORE DUP4 AND PUSH1 0x20 DUP3 ADD MSTORE PUSH1 0x60 PUSH1 0x40 DUP3 ADD DUP2 SWAP1 MSTORE PUSH1 0x0 SWAP1 PUSH2 0x2E6C SWAP1 DUP4 ADD DUP5 PUSH2 0x2710 JUMP JUMPDEST SWAP6 SWAP5 POP POP POP POP POP JUMP JUMPDEST PUSH1 0x0 DUP4 MLOAD PUSH2 0x2E87 DUP2 DUP5 PUSH1 0x20 DUP9 ADD PUSH2 0x26EC JUMP JUMPDEST PUSH1 0x60 SWAP4 SWAP1 SWAP4 SHL PUSH12 0xFFFFFFFFFFFFFFFFFFFFFFFF NOT AND SWAP2 SWAP1 SWAP3 ADD SWAP1 DUP2 MSTORE PUSH1 0x14 ADD SWAP3 SWAP2 POP POP JUMP JUMPDEST PUSH1 0x0 DUP3 MLOAD PUSH2 0x2EBE DUP2 DUP5 PUSH1 0x20 DUP8 ADD PUSH2 0x26EC JUMP JUMPDEST SWAP2 SWAP1 SWAP2 ADD SWAP3 SWAP2 POP POP JUMP JUMPDEST PUSH1 0x20 DUP1 DUP3 MSTORE PUSH1 0x2E SWAP1 DUP3 ADD MSTORE PUSH32 0x455243313135355472616461626C65236F6E6C794F776E65723A2043414C4C45 PUSH1 0x40 DUP3 ADD MSTORE PUSH14 0x292FA4A9AFA727AA2FA7ABA722A9 PUSH1 0x91 SHL PUSH1 0x60 DUP3 ADD MSTORE PUSH1 0x80 ADD SWAP1 JUMP JUMPDEST PUSH1 0x1F DUP3 GT ISZERO PUSH2 0xC1E JUMPI PUSH1 0x0 DUP2 DUP2 MSTORE PUSH1 0x20 DUP2 KECCAK256 PUSH1 0x1F DUP6 ADD PUSH1 0x5 SHR DUP2 ADD PUSH1 0x20 DUP7 LT ISZERO PUSH2 0x2F3D JUMPI POP DUP1 JUMPDEST PUSH1 0x1F DUP6 ADD PUSH1 0x5 SHR DUP3 ADD SWAP2 POP JUMPDEST DUP2 DUP2 LT ISZERO PUSH2 0xBB4 JUMPI DUP3 DUP2 SSTORE PUSH1 0x1 ADD PUSH2 0x2F49 JUMP JUMPDEST DUP2 MLOAD PUSH1 0x1 PUSH1 0x1 PUSH1 0x40 SHL SUB DUP2 GT ISZERO PUSH2 0x2F75 JUMPI PUSH2 0x2F75 PUSH2 0x274F JUMP JUMPDEST PUSH2 0x2F89 DUP2 PUSH2 0x2F83 DUP5 SLOAD PUSH2 0x2E06 JUMP JUMPDEST DUP5 PUSH2 0x2F16 JUMP JUMPDEST PUSH1 0x20 DUP1 PUSH1 0x1F DUP4 GT PUSH1 0x1 DUP2 EQ PUSH2 0x2FBE JUMPI PUSH1 0x0 DUP5 ISZERO PUSH2 0x2FA6 JUMPI POP DUP6 DUP4 ADD MLOAD JUMPDEST PUSH1 0x0 NOT PUSH1 0x3 DUP7 SWAP1 SHL SHR NOT AND PUSH1 0x1 DUP6 SWAP1 SHL OR DUP6 SSTORE PUSH2 0xBB4 JUMP JUMPDEST PUSH1 0x0 DUP6 DUP2 MSTORE PUSH1 0x20 DUP2 KECCAK256 PUSH1 0x1F NOT DUP7 AND SWAP2 JUMPDEST DUP3 DUP2 LT ISZERO PUSH2 0x2FED JUMPI DUP9 DUP7 ADD MLOAD DUP3 SSTORE SWAP5 DUP5 ADD SWAP5 PUSH1 0x1 SWAP1 SWAP2 ADD SWAP1 DUP5 ADD PUSH2 0x2FCE JUMP JUMPDEST POP DUP6 DUP3 LT ISZERO PUSH2 0x300B JUMPI DUP8 DUP6 ADD MLOAD PUSH1 0x0 NOT PUSH1 0x3 DUP9 SWAP1 SHL PUSH1 0xF8 AND SHR NOT AND DUP2 SSTORE JUMPDEST POP POP POP POP POP PUSH1 0x1 SWAP1 DUP2 SHL ADD SWAP1 SSTORE POP JUMP JUMPDEST PUSH4 0x4E487B71 PUSH1 0xE0 SHL PUSH1 0x0 MSTORE PUSH1 0x32 PUSH1 0x4 MSTORE PUSH1 0x24 PUSH1 0x0 REVERT JUMPDEST PUSH1 0x0 PUSH1 0x1 DUP3 ADD PUSH2 0x3043 JUMPI PUSH2 0x3043 PUSH2 0x2DDD JUMP JUMPDEST POP PUSH1 0x1 ADD SWAP1 JUMP JUMPDEST PUSH1 0x20 DUP1 DUP3 MSTORE PUSH1 0x37 SWAP1 DUP3 ADD MSTORE PUSH32 0x4173736574436F6E7472616374236F6E6C79496D7065726D616E656E74555249 PUSH1 0x40 DUP3 ADD MSTORE PUSH32 0x3A205552495F43414E4E4F545F42455F4348414E474544000000000000000000 PUSH1 0x60 DUP3 ADD MSTORE PUSH1 0x80 ADD SWAP1 JUMP JUMPDEST DUP2 DUP2 SUB DUP2 DUP2 GT ISZERO PUSH2 0x6A3 JUMPI PUSH2 0x6A3 PUSH2 0x2DDD JUMP JUMPDEST PUSH1 0x20 DUP1 DUP3 MSTORE PUSH1 0x30 SWAP1 DUP3 ADD MSTORE PUSH32 0x455243313135355472616461626C65236F6E6C79417070726F7665643A204341 PUSH1 0x40 DUP3 ADD MSTORE PUSH16 0x1313115497D393D517D0531313D5D151 PUSH1 0x82 SHL PUSH1 0x60 DUP3 ADD MSTORE PUSH1 0x80 ADD SWAP1 JUMP JUMPDEST PUSH1 0x40 DUP2 MSTORE PUSH1 0x0 PUSH2 0x311D PUSH1 0x40 DUP4 ADD DUP6 PUSH2 0x2B2A JUMP JUMPDEST DUP3 DUP2 SUB PUSH1 0x20 DUP5 ADD MSTORE PUSH2 0x2E6C DUP2 DUP6 PUSH2 0x2B2A JUMP JUMPDEST PUSH1 0x1 PUSH1 0x1 PUSH1 0xA0 SHL SUB DUP7 DUP2 AND DUP3 MSTORE DUP6 AND PUSH1 0x20 DUP3 ADD MSTORE PUSH1 0x40 DUP2 ADD DUP5 SWAP1 MSTORE PUSH1 0x60 DUP2 ADD DUP4 SWAP1 MSTORE PUSH1 0xA0 PUSH1 0x80 DUP3 ADD DUP2 SWAP1 MSTORE PUSH1 0x0 SWAP1 PUSH2 0x3169 SWAP1 DUP4 ADD DUP5 PUSH2 0x2710 JUMP JUMPDEST SWAP8 SWAP7 POP POP POP POP POP POP POP JUMP JUMPDEST PUSH1 0x0 PUSH1 0x20 DUP3 DUP5 SUB SLT ISZERO PUSH2 0x3186 JUMPI PUSH1 0x0 DUP1 REVERT JUMPDEST DUP2 MLOAD PUSH2 0xEF6 DUP2 PUSH2 0x26B9 JUMP JUMPDEST PUSH1 0x0 PUSH1 0x3 RETURNDATASIZE GT ISZERO PUSH2 0x119C JUMPI PUSH1 0x4 PUSH1 0x0 DUP1 RETURNDATACOPY POP PUSH1 0x0 MLOAD PUSH1 0xE0 SHR SWAP1 JUMP JUMPDEST PUSH1 0x0 PUSH1 0x44 RETURNDATASIZE LT ISZERO PUSH2 0x31BA JUMPI SWAP1 JUMP JUMPDEST PUSH1 0x40 MLOAD PUSH1 0x3 NOT RETURNDATASIZE DUP2 ADD PUSH1 0x4 DUP4 RETURNDATACOPY DUP2 MLOAD RETURNDATASIZE PUSH1 0x1 PUSH1 0x1 PUSH1 0x40 SHL SUB DUP2 PUSH1 0x24 DUP5 ADD GT DUP2 DUP5 GT OR ISZERO PUSH2 0x31E9 JUMPI POP POP POP POP POP SWAP1 JUMP JUMPDEST DUP3 DUP6 ADD SWAP2 POP DUP2 MLOAD DUP2 DUP2 GT ISZERO PUSH2 0x3201 JUMPI POP POP POP POP POP POP SWAP1 JUMP JUMPDEST DUP5 RETURNDATASIZE DUP8 ADD ADD PUSH1 0x20 DUP3 DUP6 ADD ADD GT ISZERO PUSH2 0x321B JUMPI POP POP POP POP POP POP SWAP1 JUMP JUMPDEST PUSH2 0x322A PUSH1 0x20 DUP3 DUP7 ADD ADD DUP8 PUSH2 0x2765 JUMP JUMPDEST POP SWAP1 SWAP6 SWAP5 POP POP POP POP POP JUMP JUMPDEST PUSH1 0x20 DUP1 DUP3 MSTORE PUSH1 0x28 SWAP1 DUP3 ADD MSTORE PUSH32 0x455243313135353A204552433131353552656365697665722072656A65637465 PUSH1 0x40 DUP3 ADD MSTORE PUSH8 0x6420746F6B656E73 PUSH1 0xC0 SHL PUSH1 0x60 DUP3 ADD MSTORE PUSH1 0x80 ADD SWAP1 JUMP JUMPDEST PUSH1 0x1 PUSH1 0x1 PUSH1 0xA0 SHL SUB DUP7 DUP2 AND DUP3 MSTORE DUP6 AND PUSH1 0x20 DUP3 ADD MSTORE PUSH1 0xA0 PUSH1 0x40 DUP3 ADD DUP2 SWAP1 MSTORE PUSH1 0x0 SWAP1 PUSH2 0x32A9 SWAP1 DUP4 ADD DUP7 PUSH2 0x2B2A JUMP JUMPDEST DUP3 DUP2 SUB PUSH1 0x60 DUP5 ADD MSTORE PUSH2 0x32BB DUP2 DUP7 PUSH2 0x2B2A JUMP JUMPDEST SWAP1 POP DUP3 DUP2 SUB PUSH1 0x80 DUP5 ADD MSTORE PUSH2 0x958 DUP2 DUP6 PUSH2 0x2710 JUMP INVALID 0x4D PUSH6 0x74615472616E PUSH20 0x616374696F6E2875696E74323536206E6F6E6365 0x2C PUSH2 0x6464 PUSH19 0x6573732066726F6D2C62797465732066756E63 PUSH21 0x696F6E5369676E617475726529A264697066735822 SLT KECCAK256 0x1F 0xD3 SWAP16 SWAP7 SLT 0xB0 0xCC LOG2 DUP11 0x5F 0xBA PUSH17 0xC144CFD1ACAAFFED88ED1B1DE52BBD1A0 BLOCKHASH 0xD3 0x26 PUSH5 0x736F6C6343 STOP ADDMOD GT STOP CALLER GASLIMIT 0x49 POP CALLDATACOPY BALANCE ORIGIN DIFFICULTY PUSH16 0x6D61696E28737472696E67206E616D65 0x2C PUSH20 0x7472696E672076657273696F6E2C616464726573 PUSH20 0x20766572696679696E67436F6E74726163742C62 PUSH26 0x74657333322073616C7429000000000000000000000000000000 "},"methodIdentifiers":{"ERC712_VERSION()":"0f7e5970","balanceOf(address,uint256)":"00fdd58e","balanceOfBatch(address[],uint256[])":"4e1273f4","batchBurn(address,uint256[],uint256[])":"f6eb127a","batchMint(address,uint256[],uint256[],bytes)":"b48ab8b6","burn(address,uint256,uint256)":"f5298aca","executeMetaTransaction(address,bytes,bytes32,bytes32,uint8)":"0c53c51c","exists(uint256)":"4f558e79","getChainId()":"3408e470","getDomainSeperator()":"20379ee5","getNonce(address)":"2d0335ab","isApprovedForAll(address,address)":"e985e9c5","isPermanentURI(uint256)":"1e7d9dbb","mint(address,uint256,uint256,bytes)":"731133e9","name()":"06fdde03","owner()":"8da5cb5b","pause()":"8456cb59","paused()":"5c975abb","proxyRegistryAddress()":"cd7c0326","renounceOwnership()":"715018a6","safeBatchTransferFrom(address,address,uint256[],uint256[],bytes)":"2eb2c2d6","safeTransferFrom(address,address,uint256,uint256,bytes)":"f242432a","setApprovalForAll(address,bool)":"a22cb465","setPermanentURI(uint256,string)":"3588ad7c","setTemplateURI(string)":"24d88785","setURI(uint256,string)":"862440e2","supportsFactoryInterface()":"c311c523","supportsInterface(bytes4)":"01ffc9a7","symbol()":"95d89b41","templateURI()":"f923e8c3","totalSupply(uint256)":"bd85b039","transferOwnership(address)":"f2fde38b","unpause()":"3f4ba83a","uri(uint256)":"0e89341c"}}}}}