{
  "_format": "hh-sol-artifact-1",
  "contractName": "LazyMintWith712",
  "sourceName": "contracts/LazyMintWith712.sol",
  "abi": [
    {
      "anonymous": false,
      "inputs": [
        {
          "indexed": false,
          "internalType": "uint8",
          "name": "version",
          "type": "uint8"
        }
      ],
      "name": "Initialized",
      "type": "event"
    },
    {
      "anonymous": false,
      "inputs": [
        {
          "indexed": true,
          "internalType": "bytes32",
          "name": "role",
          "type": "bytes32"
        },
        {
          "indexed": true,
          "internalType": "bytes32",
          "name": "previousAdminRole",
          "type": "bytes32"
        },
        {
          "indexed": true,
          "internalType": "bytes32",
          "name": "newAdminRole",
          "type": "bytes32"
        }
      ],
      "name": "RoleAdminChanged",
      "type": "event"
    },
    {
      "anonymous": false,
      "inputs": [
        {
          "indexed": true,
          "internalType": "bytes32",
          "name": "role",
          "type": "bytes32"
        },
        {
          "indexed": true,
          "internalType": "address",
          "name": "account",
          "type": "address"
        },
        {
          "indexed": true,
          "internalType": "address",
          "name": "sender",
          "type": "address"
        }
      ],
      "name": "RoleGranted",
      "type": "event"
    },
    {
      "anonymous": false,
      "inputs": [
        {
          "indexed": true,
          "internalType": "bytes32",
          "name": "role",
          "type": "bytes32"
        },
        {
          "indexed": true,
          "internalType": "address",
          "name": "account",
          "type": "address"
        },
        {
          "indexed": true,
          "internalType": "address",
          "name": "sender",
          "type": "address"
        }
      ],
      "name": "RoleRevoked",
      "type": "event"
    },
    {
      "inputs": [],
      "name": "DEFAULT_ADMIN_ROLE",
      "outputs": [
        {
          "internalType": "bytes32",
          "name": "",
          "type": "bytes32"
        }
      ],
      "stateMutability": "view",
      "type": "function"
    },
    {
      "inputs": [
        {
          "internalType": "address",
          "name": "_nftAddress",
          "type": "address"
        }
      ],
      "name": "__LazyMintWith712_init_unchained",
      "outputs": [],
      "stateMutability": "nonpayable",
      "type": "function"
    },
    {
      "inputs": [
        {
          "internalType": "bytes32",
          "name": "role",
          "type": "bytes32"
        }
      ],
      "name": "getRoleAdmin",
      "outputs": [
        {
          "internalType": "bytes32",
          "name": "",
          "type": "bytes32"
        }
      ],
      "stateMutability": "view",
      "type": "function"
    },
    {
      "inputs": [
        {
          "internalType": "bytes32",
          "name": "role",
          "type": "bytes32"
        },
        {
          "internalType": "address",
          "name": "account",
          "type": "address"
        }
      ],
      "name": "grantRole",
      "outputs": [],
      "stateMutability": "nonpayable",
      "type": "function"
    },
    {
      "inputs": [
        {
          "internalType": "bytes32",
          "name": "role",
          "type": "bytes32"
        },
        {
          "internalType": "address",
          "name": "account",
          "type": "address"
        }
      ],
      "name": "hasRole",
      "outputs": [
        {
          "internalType": "bool",
          "name": "",
          "type": "bool"
        }
      ],
      "stateMutability": "view",
      "type": "function"
    },
    {
      "inputs": [
        {
          "internalType": "string",
          "name": "name",
          "type": "string"
        },
        {
          "internalType": "string",
          "name": "version",
          "type": "string"
        },
        {
          "internalType": "address",
          "name": "_nftAddress",
          "type": "address"
        }
      ],
      "name": "initialize",
      "outputs": [],
      "stateMutability": "nonpayable",
      "type": "function"
    },
    {
      "inputs": [
        {
          "internalType": "uint256",
          "name": "_tokenId",
          "type": "uint256"
        },
        {
          "internalType": "address",
          "name": "_contract",
          "type": "address"
        },
        {
          "internalType": "address",
          "name": "_creator",
          "type": "address"
        },
        {
          "internalType": "uint96",
          "name": "_royaltyFraction",
          "type": "uint96"
        },
        {
          "internalType": "address",
          "name": "_seller",
          "type": "address"
        },
        {
          "internalType": "address",
          "name": "_to",
          "type": "address"
        },
        {
          "internalType": "uint256",
          "name": "_quantity",
          "type": "uint256"
        },
        {
          "internalType": "bytes",
          "name": "_data",
          "type": "bytes"
        },
        {
          "internalType": "bytes",
          "name": "_signature",
          "type": "bytes"
        }
      ],
      "name": "mintNFT",
      "outputs": [],
      "stateMutability": "payable",
      "type": "function"
    },
    {
      "inputs": [],
      "name": "nftContract",
      "outputs": [
        {
          "internalType": "contract IAssetContractShared",
          "name": "",
          "type": "address"
        }
      ],
      "stateMutability": "view",
      "type": "function"
    },
    {
      "inputs": [
        {
          "internalType": "bytes32",
          "name": "role",
          "type": "bytes32"
        },
        {
          "internalType": "address",
          "name": "account",
          "type": "address"
        }
      ],
      "name": "renounceRole",
      "outputs": [],
      "stateMutability": "nonpayable",
      "type": "function"
    },
    {
      "inputs": [
        {
          "internalType": "bytes32",
          "name": "role",
          "type": "bytes32"
        },
        {
          "internalType": "address",
          "name": "account",
          "type": "address"
        }
      ],
      "name": "revokeRole",
      "outputs": [],
      "stateMutability": "nonpayable",
      "type": "function"
    },
    {
      "inputs": [
        {
          "internalType": "address",
          "name": "_platformAddress",
          "type": "address"
        }
      ],
      "name": "setPlatFormAddress",
      "outputs": [],
      "stateMutability": "nonpayable",
      "type": "function"
    },
    {
      "inputs": [
        {
          "internalType": "bytes4",
          "name": "interfaceId",
          "type": "bytes4"
        }
      ],
      "name": "supportsInterface",
      "outputs": [
        {
          "internalType": "bool",
          "name": "",
          "type": "bool"
        }
      ],
      "stateMutability": "view",
      "type": "function"
    },
    {
      "inputs": [
        {
          "internalType": "uint256",
          "name": "_tokenId",
          "type": "uint256"
        },
        {
          "internalType": "address",
          "name": "_contract",
          "type": "address"
        },
        {
          "internalType": "address",
          "name": "_creator",
          "type": "address"
        },
        {
          "internalType": "uint96",
          "name": "_royaltyFraction",
          "type": "uint96"
        },
        {
          "internalType": "address",
          "name": "_seller",
          "type": "address"
        },
        {
          "internalType": "address",
          "name": "_to",
          "type": "address"
        },
        {
          "internalType": "uint256",
          "name": "_amount",
          "type": "uint256"
        },
        {
          "internalType": "bytes",
          "name": "_data",
          "type": "bytes"
        },
        {
          "internalType": "bytes",
          "name": "_signature",
          "type": "bytes"
        }
      ],
      "name": "transferNFT",
      "outputs": [],
      "stateMutability": "payable",
      "type": "function"
    }
  ],
  "bytecode": "0x608060405234801561001057600080fd5b50611726806100206000396000f3fe6080604052600436106100c25760003560e01c80636dc2f2611161007f578063a217fddf11610059578063a217fddf1461020f578063bed79f1c14610224578063d547741f14610237578063d56d229d1461025757600080fd5b80636dc2f261146101af57806391d14854146101cf57806396327087146101ef57600080fd5b806301ffc9a7146100c7578063077f224a146100fc578063248a9ca31461011e5780632f2ff15d1461015c57806336568abe1461017c5780634f3f824f1461019c575b600080fd5b3480156100d357600080fd5b506100e76100e2366004611135565b61028f565b60405190151581526020015b60405180910390f35b34801561010857600080fd5b5061011c610117366004611227565b6102c6565b005b34801561012a57600080fd5b5061014e61013936600461129f565b60009081526099602052604090206001015490565b6040519081526020016100f3565b34801561016857600080fd5b5061011c6101773660046112b8565b6103e2565b34801561018857600080fd5b5061011c6101973660046112b8565b61040c565b61011c6101aa366004611341565b61048a565b3480156101bb57600080fd5b5061011c6101ca36600461141a565b61063d565b3480156101db57600080fd5b506100e76101ea3660046112b8565b610673565b3480156101fb57600080fd5b5061011c61020a36600461141a565b61069e565b34801561021b57600080fd5b5061014e600081565b61011c610232366004611341565b6106d4565b34801561024357600080fd5b5061011c6102523660046112b8565b6107f3565b34801561026357600080fd5b5060cb54610277906001600160a01b031681565b6040516001600160a01b0390911681526020016100f3565b60006001600160e01b03198216637965db0b60e01b14806102c057506301ffc9a760e01b6001600160e01b03198316145b92915050565b600054610100900460ff16158080156102e65750600054600160ff909116105b806103005750303b158015610300575060005460ff166001145b6103685760405162461bcd60e51b815260206004820152602e60248201527f496e697469616c697a61626c653a20636f6e747261637420697320616c72656160448201526d191e481a5b9a5d1a585b1a5e995960921b60648201526084015b60405180910390fd5b6000805460ff19166001179055801561038b576000805461ff0019166101001790555b610396848484610818565b80156103dc576000805461ff0019169055604051600181527f7f26b83ff96e1f2b6a682f133852f6798a09c465da95921460cefb38474024989060200160405180910390a15b50505050565b6000828152609960205260409020600101546103fd8161085d565b610407838361086a565b505050565b6001600160a01b038116331461047c5760405162461bcd60e51b815260206004820152602f60248201527f416363657373436f6e74726f6c3a2063616e206f6e6c792072656e6f756e636560448201526e103937b632b9903337b91039b2b63360891b606482015260840161035f565b61048682826108f0565b5050565b600061049a8b8b348c8c8c610957565b9050866001600160a01b03166104e68285858080601f0160208091040260200160405190810160405280939291908181526020018383808284376000920191909152506109ed92505050565b6001600160a01b0316146105305760405162461bcd60e51b8152602060048201526011602482015270496e76616c6964207369676e617475726560781b604482015260640161035f565b60cb60009054906101000a90046001600160a01b03166001600160a01b031663f242432a88888e89896040518663ffffffff1660e01b8152600401610579959493929190611487565b600060405180830381600087803b15801561059357600080fd5b505af11580156105a7573d6000803e3d6000fd5b505060cb5460405163152a902d60e11b8152600481018f9052346024820152600093506001600160a01b039091169150632a55205a906044016040805180830381865afa1580156105fc573d6000803e3d6000fd5b505050506040513d601f19601f8201168201806040525081019061062091906114c1565b91505061062f8834838d610a11565b505050505050505050505050565b610648600033610673565b61065157600080fd5b60cc80546001600160a01b0319166001600160a01b0392909216919091179055565b60009182526099602090815260408084206001600160a01b0393909316845291905290205460ff1690565b6106a9600033610673565b6106b257600080fd5b60cb80546001600160a01b0319166001600160a01b0392909216919091179055565b60006106e48b8b348c8c8c610957565b9050886001600160a01b03166107308285858080601f0160208091040260200160405190810160405280939291908181526020018383808284376000920191909152506109ed92505050565b6001600160a01b03161461077a5760405162461bcd60e51b8152602060048201526011602482015270496e76616c6964207369676e617475726560781b604482015260640161035f565b60cb5460405163d3b9ff7f60e01b81526001600160a01b039091169063d3b9ff7f906107b29089908f908a908a908f906004016114ef565b600060405180830381600087803b1580156107cc57600080fd5b505af11580156107e0573d6000803e3d6000fd5b50505050600061062f8a34836000610a11565b60008281526099602052604090206001015461080e8161085d565b61040783836108f0565b600054610100900460ff1661083f5760405162461bcd60e51b815260040161035f90611537565b61084a600033610bbb565b6108548383610bc5565b6104078161069e565b6108678133610c06565b50565b6108748282610673565b6104865760008281526099602090815260408083206001600160a01b03851684529091529020805460ff191660011790556108ac3390565b6001600160a01b0316816001600160a01b0316837f2f8788117e7eff1d82e926ec794901d17c78024a50270940304540a733656f0d60405160405180910390a45050565b6108fa8282610673565b156104865760008281526099602090815260408083206001600160a01b0385168085529252808320805460ff1916905551339285917ff6391f5c32d9c69d2a47ea670b442974b53935d1edc7fd64eb21e047a839171b9190a45050565b604080517f6697de68ba13acbc918df3edbe217031a9b63ef8d3466d3e33e0ed35dd96fb8d60208201529081018790526001600160a01b0380871660608301526080820186905280851660a08301526001600160601b03841660c0830152821660e08201526000906109e2906101000160405160208183030381529060405280519060200120610c5f565b979650505050505050565b60008060006109fc8585610cad565b91509150610a0981610cf2565b509392505050565b60006004610a20856001611598565b610a2a91906115af565b90506000610a3882866115d1565b905060008415610acc5782610a4d86886115d1565b610a5791906115d1565b9150836001600160a01b03168560405160006040518083038185875af1925050503d8060008114610aa4576040519150601f19603f3d011682016040523d82523d6000602084013e610aa9565b606091505b50508091505080610acc5760405162461bcd60e51b815260040161035f906115e4565b6040516001600160a01b038816908390600081818185875af1925050503d8060008114610b15576040519150601f19603f3d011682016040523d82523d6000602084013e610b1a565b606091505b50508091505080610b3d5760405162461bcd60e51b815260040161035f906115e4565b60cc546040516001600160a01b03909116908490600081818185875af1925050503d8060008114610b8a576040519150601f19603f3d011682016040523d82523d6000602084013e610b8f565b606091505b50508091505080610bb25760405162461bcd60e51b815260040161035f906115e4565b50505050505050565b610486828261086a565b600054610100900460ff16610bec5760405162461bcd60e51b815260040161035f90611537565b815160209283012081519190920120600191909155600255565b610c108282610673565b61048657610c1d81610e3c565b610c28836020610e4e565b604051602001610c39929190611612565b60408051601f198184030181529082905262461bcd60e51b825261035f91600401611687565b60006102c0610c6c610ff1565b8360405161190160f01b6020820152602281018390526042810182905260009060620160405160208183030381529060405280519060200120905092915050565b6000808251604103610ce35760208301516040840151606085015160001a610cd787828585611071565b94509450505050610ceb565b506000905060025b9250929050565b6000816004811115610d0657610d0661169a565b03610d0e5750565b6001816004811115610d2257610d2261169a565b03610d6f5760405162461bcd60e51b815260206004820152601860248201527f45434453413a20696e76616c6964207369676e61747572650000000000000000604482015260640161035f565b6002816004811115610d8357610d8361169a565b03610dd05760405162461bcd60e51b815260206004820152601f60248201527f45434453413a20696e76616c6964207369676e6174757265206c656e67746800604482015260640161035f565b6003816004811115610de457610de461169a565b036108675760405162461bcd60e51b815260206004820152602260248201527f45434453413a20696e76616c6964207369676e6174757265202773272076616c604482015261756560f01b606482015260840161035f565b60606102c06001600160a01b03831660145b60606000610e5d836002611598565b610e689060026116b0565b67ffffffffffffffff811115610e8057610e8061115f565b6040519080825280601f01601f191660200182016040528015610eaa576020820181803683370190505b509050600360fc1b81600081518110610ec557610ec56116c3565b60200101906001600160f81b031916908160001a905350600f60fb1b81600181518110610ef457610ef46116c3565b60200101906001600160f81b031916908160001a9053506000610f18846002611598565b610f239060016116b0565b90505b6001811115610f9b576f181899199a1a9b1b9c1cb0b131b232b360811b85600f1660108110610f5757610f576116c3565b1a60f81b828281518110610f6d57610f6d6116c3565b60200101906001600160f81b031916908160001a90535060049490941c93610f94816116d9565b9050610f26565b508315610fea5760405162461bcd60e51b815260206004820181905260248201527f537472696e67733a20686578206c656e67746820696e73756666696369656e74604482015260640161035f565b9392505050565b600061106c7f8b73c3c69bb8fe3d512ecc4cf759cc79239f7b179b0ffacaa9a75d522b39400f61102060015490565b6002546040805160208101859052908101839052606081018290524660808201523060a082015260009060c0016040516020818303038152906040528051906020012090509392505050565b905090565b6000807f7fffffffffffffffffffffffffffffff5d576e7357a4501ddfe92f46681b20a08311156110a8575060009050600361112c565b6040805160008082526020820180845289905260ff881692820192909252606081018690526080810185905260019060a0016020604051602081039080840390855afa1580156110fc573d6000803e3d6000fd5b5050604051601f1901519150506001600160a01b0381166111255760006001925092505061112c565b9150600090505b94509492505050565b60006020828403121561114757600080fd5b81356001600160e01b031981168114610fea57600080fd5b634e487b7160e01b600052604160045260246000fd5b600082601f83011261118657600080fd5b813567ffffffffffffffff808211156111a1576111a161115f565b604051601f8301601f19908116603f011681019082821181831017156111c9576111c961115f565b816040528381528660208588010111156111e257600080fd5b836020870160208301376000602085830101528094505050505092915050565b6001600160a01b038116811461086757600080fd5b803561122281611202565b919050565b60008060006060848603121561123c57600080fd5b833567ffffffffffffffff8082111561125457600080fd5b61126087838801611175565b9450602086013591508082111561127657600080fd5b5061128386828701611175565b925050604084013561129481611202565b809150509250925092565b6000602082840312156112b157600080fd5b5035919050565b600080604083850312156112cb57600080fd5b8235915060208301356112dd81611202565b809150509250929050565b80356001600160601b038116811461122257600080fd5b60008083601f84011261131157600080fd5b50813567ffffffffffffffff81111561132957600080fd5b602083019150836020828501011115610ceb57600080fd5b6000806000806000806000806000806101208b8d03121561136157600080fd5b8a35995060208b013561137381611202565b985060408b013561138381611202565b975061139160608c016112e8565b965061139f60808c01611217565b95506113ad60a08c01611217565b945060c08b0135935060e08b013567ffffffffffffffff808211156113d157600080fd5b6113dd8e838f01611175565b94506101008d01359150808211156113f457600080fd5b506114018d828e016112ff565b915080935050809150509295989b9194979a5092959850565b60006020828403121561142c57600080fd5b8135610fea81611202565b60005b8381101561145257818101518382015260200161143a565b50506000910152565b60008151808452611473816020860160208601611437565b601f01601f19169290920160200192915050565b6001600160a01b03868116825285166020820152604081018490526060810183905260a0608082018190526000906109e29083018461145b565b600080604083850312156114d457600080fd5b82516114df81611202565b6020939093015192949293505050565b60018060a01b038616815284602082015283604082015260a06060820152600061151c60a083018561145b565b90506001600160601b03831660808301529695505050505050565b6020808252602b908201527f496e697469616c697a61626c653a20636f6e7472616374206973206e6f74206960408201526a6e697469616c697a696e6760a81b606082015260800190565b634e487b7160e01b600052601160045260246000fd5b80820281158282048414176102c0576102c0611582565b6000826115cc57634e487b7160e01b600052601260045260246000fd5b500490565b818103818111156102c0576102c0611582565b6020808252601490820152734661696c656420746f2073656e64206d6f6e657960601b604082015260600190565b7f416363657373436f6e74726f6c3a206163636f756e742000000000000000000081526000835161164a816017850160208801611437565b7001034b99036b4b9b9b4b733903937b6329607d1b601791840191820152835161167b816028840160208801611437565b01602801949350505050565b602081526000610fea602083018461145b565b634e487b7160e01b600052602160045260246000fd5b808201808211156102c0576102c0611582565b634e487b7160e01b600052603260045260246000fd5b6000816116e8576116e8611582565b50600019019056fea264697066735822122011cd632a62cfac16b398a01cfb915e86995fffbb528ae4a24aabec730fcc97a564736f6c63430008110033",
  "linkReferences": {},
  "deployedLinkReferences": {}
}