{
  "_format": "hh-sol-artifact-1",
  "contractName": "LazyMintWith712",
  "sourceName": "contracts/LazyMintWith712.sol",
  "abi": [
    {
      "inputs": [
        {
          "internalType": "string",
          "name": "name",
          "type": "string"
        },
        {
          "internalType": "address",
          "name": "_nftAddress",
          "type": "address"
        }
      ],
      "stateMutability": "nonpayable",
      "type": "constructor"
    },
    {
      "anonymous": false,
      "inputs": [
        {
          "indexed": true,
          "internalType": "bytes32",
          "name": "role",
          "type": "bytes32"
        },
        {
          "indexed": true,
          "internalType": "bytes32",
          "name": "previousAdminRole",
          "type": "bytes32"
        },
        {
          "indexed": true,
          "internalType": "bytes32",
          "name": "newAdminRole",
          "type": "bytes32"
        }
      ],
      "name": "RoleAdminChanged",
      "type": "event"
    },
    {
      "anonymous": false,
      "inputs": [
        {
          "indexed": true,
          "internalType": "bytes32",
          "name": "role",
          "type": "bytes32"
        },
        {
          "indexed": true,
          "internalType": "address",
          "name": "account",
          "type": "address"
        },
        {
          "indexed": true,
          "internalType": "address",
          "name": "sender",
          "type": "address"
        }
      ],
      "name": "RoleGranted",
      "type": "event"
    },
    {
      "anonymous": false,
      "inputs": [
        {
          "indexed": true,
          "internalType": "bytes32",
          "name": "role",
          "type": "bytes32"
        },
        {
          "indexed": true,
          "internalType": "address",
          "name": "account",
          "type": "address"
        },
        {
          "indexed": true,
          "internalType": "address",
          "name": "sender",
          "type": "address"
        }
      ],
      "name": "RoleRevoked",
      "type": "event"
    },
    {
      "inputs": [],
      "name": "DEFAULT_ADMIN_ROLE",
      "outputs": [
        {
          "internalType": "bytes32",
          "name": "",
          "type": "bytes32"
        }
      ],
      "stateMutability": "view",
      "type": "function"
    },
    {
      "inputs": [
        {
          "internalType": "bytes32",
          "name": "role",
          "type": "bytes32"
        }
      ],
      "name": "getRoleAdmin",
      "outputs": [
        {
          "internalType": "bytes32",
          "name": "",
          "type": "bytes32"
        }
      ],
      "stateMutability": "view",
      "type": "function"
    },
    {
      "inputs": [
        {
          "internalType": "bytes32",
          "name": "role",
          "type": "bytes32"
        },
        {
          "internalType": "address",
          "name": "account",
          "type": "address"
        }
      ],
      "name": "grantRole",
      "outputs": [],
      "stateMutability": "nonpayable",
      "type": "function"
    },
    {
      "inputs": [
        {
          "internalType": "bytes32",
          "name": "role",
          "type": "bytes32"
        },
        {
          "internalType": "address",
          "name": "account",
          "type": "address"
        }
      ],
      "name": "hasRole",
      "outputs": [
        {
          "internalType": "bool",
          "name": "",
          "type": "bool"
        }
      ],
      "stateMutability": "view",
      "type": "function"
    },
    {
      "inputs": [
        {
          "components": [
            {
              "internalType": "uint256",
              "name": "_tokenId",
              "type": "uint256"
            },
            {
              "internalType": "address",
              "name": "_contract",
              "type": "address"
            },
            {
              "internalType": "uint256",
              "name": "_price",
              "type": "uint256"
            },
            {
              "internalType": "address",
              "name": "_creator",
              "type": "address"
            },
            {
              "internalType": "uint96",
              "name": "_royaltyFraction",
              "type": "uint96"
            },
            {
              "internalType": "address",
              "name": "_seller",
              "type": "address"
            }
          ],
          "internalType": "struct VerifyInfo",
          "name": "vinfo",
          "type": "tuple"
        },
        {
          "internalType": "address",
          "name": "_to",
          "type": "address"
        },
        {
          "internalType": "uint256",
          "name": "_quantity",
          "type": "uint256"
        },
        {
          "internalType": "bytes",
          "name": "_data",
          "type": "bytes"
        },
        {
          "internalType": "bytes",
          "name": "_signature",
          "type": "bytes"
        }
      ],
      "name": "mintNFT",
      "outputs": [],
      "stateMutability": "payable",
      "type": "function"
    },
    {
      "inputs": [
        {
          "internalType": "bytes32",
          "name": "role",
          "type": "bytes32"
        },
        {
          "internalType": "address",
          "name": "account",
          "type": "address"
        }
      ],
      "name": "renounceRole",
      "outputs": [],
      "stateMutability": "nonpayable",
      "type": "function"
    },
    {
      "inputs": [
        {
          "internalType": "bytes32",
          "name": "role",
          "type": "bytes32"
        },
        {
          "internalType": "address",
          "name": "account",
          "type": "address"
        }
      ],
      "name": "revokeRole",
      "outputs": [],
      "stateMutability": "nonpayable",
      "type": "function"
    },
    {
      "inputs": [
        {
          "internalType": "address",
          "name": "_platformAddress",
          "type": "address"
        }
      ],
      "name": "setPlatFormAddress",
      "outputs": [],
      "stateMutability": "nonpayable",
      "type": "function"
    },
    {
      "inputs": [
        {
          "internalType": "bytes4",
          "name": "interfaceId",
          "type": "bytes4"
        }
      ],
      "name": "supportsInterface",
      "outputs": [
        {
          "internalType": "bool",
          "name": "",
          "type": "bool"
        }
      ],
      "stateMutability": "view",
      "type": "function"
    },
    {
      "inputs": [
        {
          "components": [
            {
              "internalType": "uint256",
              "name": "_tokenId",
              "type": "uint256"
            },
            {
              "internalType": "address",
              "name": "_contract",
              "type": "address"
            },
            {
              "internalType": "uint256",
              "name": "_price",
              "type": "uint256"
            },
            {
              "internalType": "address",
              "name": "_creator",
              "type": "address"
            },
            {
              "internalType": "uint96",
              "name": "_royaltyFraction",
              "type": "uint96"
            },
            {
              "internalType": "address",
              "name": "_seller",
              "type": "address"
            }
          ],
          "internalType": "struct VerifyInfo",
          "name": "vinfo",
          "type": "tuple"
        },
        {
          "internalType": "address",
          "name": "_to",
          "type": "address"
        },
        {
          "internalType": "uint256",
          "name": "_amount",
          "type": "uint256"
        },
        {
          "internalType": "bytes",
          "name": "_data",
          "type": "bytes"
        },
        {
          "internalType": "bytes",
          "name": "_signature",
          "type": "bytes"
        }
      ],
      "name": "transferNFT",
      "outputs": [],
      "stateMutability": "payable",
      "type": "function"
    }
  ],
  "bytecode": "0x6101406040523480156200001257600080fd5b5060405162001a1f38038062001a1f83398101604081905262000035916200020c565b60408051808201825260058152640312e302e360dc1b60209182015283518482012060e08190527f06c015bd22b4c69690933c1058878ebdfef31f9aaae40bbe86d8a09fe1b2972c6101008190524660a081815285517f8b73c3c69bb8fe3d512ecc4cf759cc79239f7b179b0ffacaa9a75d522b39400f818701819052818801959095526060810193909352608080840192909252308382018190528651808503909201825260c09384019096528051940193909320909252919052610120526200010260003362000129565b600180546001600160a01b0319166001600160a01b039290921691909117905550620002f4565b62000135828262000139565b5050565b6000828152602081815260408083206001600160a01b038516845290915290205460ff1662000135576000828152602081815260408083206001600160a01b03851684529091529020805460ff19166001179055620001953390565b6001600160a01b0316816001600160a01b0316837f2f8788117e7eff1d82e926ec794901d17c78024a50270940304540a733656f0d60405160405180910390a45050565b634e487b7160e01b600052604160045260246000fd5b80516001600160a01b03811681146200020757600080fd5b919050565b600080604083850312156200022057600080fd5b82516001600160401b03808211156200023857600080fd5b818501915085601f8301126200024d57600080fd5b815181811115620002625762000262620001d9565b604051601f8201601f19908116603f011681019083821181831017156200028d576200028d620001d9565b81604052828152602093508884848701011115620002aa57600080fd5b600091505b82821015620002ce5784820184015181830185015290830190620002af565b6000848483010152809650505050620002e9818601620001ef565b925050509250929050565b60805160a05160c05160e05161010051610120516116db620003446000396000610f7501526000610fc401526000610f9f01526000610ef801526000610f2201526000610f4c01526116db6000f3fe6080604052600436106100915760003560e01c806391d148541161005957806391d148541461016b578063a217fddf1461018b578063d547741f146101a0578063ea66a328146101c0578063f741ae06146101d357600080fd5b806301ffc9a714610096578063248a9ca3146100cb5780632f2ff15d1461010957806336568abe1461012b5780636dc2f2611461014b575b600080fd5b3480156100a257600080fd5b506100b66100b13660046110ff565b6101e6565b60405190151581526020015b60405180910390f35b3480156100d757600080fd5b506100fb6100e6366004611129565b60009081526020819052604090206001015490565b6040519081526020016100c2565b34801561011557600080fd5b50610129610124366004611167565b61021d565b005b34801561013757600080fd5b50610129610146366004611167565b610247565b34801561015757600080fd5b50610129610166366004611197565b6102ca565b34801561017757600080fd5b506100b6610186366004611167565b610300565b34801561019757600080fd5b506100fb600081565b3480156101ac57600080fd5b506101296101bb366004611167565b610329565b6101296101ce3660046112d7565b61034e565b6101296101e13660046112d7565b6104fc565b60006001600160e01b03198216637965db0b60e01b148061021757506301ffc9a760e01b6001600160e01b03198316145b92915050565b60008281526020819052604090206001015461023881610723565b6102428383610730565b505050565b6001600160a01b03811633146102bc5760405162461bcd60e51b815260206004820152602f60248201527f416363657373436f6e74726f6c3a2063616e206f6e6c792072656e6f756e636560448201526e103937b632b9903337b91039b2b63360891b60648201526084015b60405180910390fd5b6102c682826107b4565b5050565b6102d5600033610300565b6102de57600080fd5b600280546001600160a01b0319166001600160a01b0392909216919091179055565b6000918252602082815260408084206001600160a01b0393909316845291905290205460ff1690565b60008281526020819052604090206001015461034481610723565b61024283836107b4565b600061035987610819565b90508660a001516001600160a01b03166103a98285858080601f0160208091040260200160405190810160405280939291908181526020018383808284376000920191909152506108cd92505050565b6001600160a01b0316146103f35760405162461bcd60e51b8152602060048201526011602482015270496e76616c6964207369676e617475726560781b60448201526064016102b3565b60015460a08801518851604051637921219560e11b81526001600160a01b039093169263f242432a926104319290918b91908b908b90600401611428565b600060405180830381600087803b15801561044b57600080fd5b505af115801561045f573d6000803e3d6000fd5b5050600154895160405163152a902d60e11b81526004810191909152346024820152600093506001600160a01b039091169150632a55205a906044016040805180830381865afa1580156104b7573d6000803e3d6000fd5b505050506040513d601f19601f820116820180604052508101906104db919061146d565b9150506104f28860a0015134838b606001516108f1565b5050505050505050565b600061050787610819565b905086606001516001600160a01b03166105578285858080601f0160208091040260200160405190810160405280939291908181526020018383808284376000920191909152506108cd92505050565b6001600160a01b0316146105a15760405162461bcd60e51b8152602060048201526011602482015270496e76616c6964207369676e617475726560781b60448201526064016102b3565b600160009054906101000a90046001600160a01b03166001600160a01b0316636d0042b86040518163ffffffff1660e01b8152600401602060405180830381865afa1580156105f4573d6000803e3d6000fd5b505050506040513d601f19601f82011682018060405250810190610618919061149b565b6001600160601b031687608001516001600160601b0316036106a257600154875160405163731133e960e01b81526001600160a01b039092169163731133e99161066b918a91908a908a906004016114b8565b600060405180830381600087803b15801561068557600080fd5b505af1158015610699573d6000803e3d6000fd5b50505050610710565b60015487516080890151604051630e020a5760e31b81526001600160a01b039093169263701052b8926106dd928b928b918b916004016114ef565b600060405180830381600087803b1580156106f757600080fd5b505af115801561070b573d6000803e3d6000fd5b505050505b60006104f28860600151348360006108f1565b61072d8133610a9b565b50565b61073a8282610300565b6102c6576000828152602081815260408083206001600160a01b03851684529091529020805460ff191660011790556107703390565b6001600160a01b0316816001600160a01b0316837f2f8788117e7eff1d82e926ec794901d17c78024a50270940304540a733656f0d60405160405180910390a45050565b6107be8282610300565b156102c6576000828152602081815260408083206001600160a01b0385168085529252808320805460ff1916905551339285917ff6391f5c32d9c69d2a47ea670b442974b53935d1edc7fd64eb21e047a839171b9190a45050565b60006102177f6697de68ba13acbc918df3edbe217031a9b63ef8d3466d3e33e0ed35dd96fb8d836000015184602001518560400151866060015187608001518860a001516040516020016108b2979695949392919096875260208701959095526001600160a01b0393841660408701526060860192909252821660808501526001600160601b031660a08401521660c082015260e00190565b60405160208183030381529060405280519060200120610aff565b60008060006108dc8585610b4d565b915091506108e981610b92565b509392505050565b6000600461090085600161154d565b61090a9190611564565b905060006109188286611586565b9050600084156109ac578261092d8688611586565b6109379190611586565b9150836001600160a01b03168560405160006040518083038185875af1925050503d8060008114610984576040519150601f19603f3d011682016040523d82523d6000602084013e610989565b606091505b505080915050806109ac5760405162461bcd60e51b81526004016102b390611599565b6040516001600160a01b038816908390600081818185875af1925050503d80600081146109f5576040519150601f19603f3d011682016040523d82523d6000602084013e6109fa565b606091505b50508091505080610a1d5760405162461bcd60e51b81526004016102b390611599565b6002546040516001600160a01b03909116908490600081818185875af1925050503d8060008114610a6a576040519150601f19603f3d011682016040523d82523d6000602084013e610a6f565b606091505b50508091505080610a925760405162461bcd60e51b81526004016102b390611599565b50505050505050565b610aa58282610300565b6102c657610abd816001600160a01b03166014610d48565b610ac8836020610d48565b604051602001610ad99291906115c7565b60408051601f198184030181529082905262461bcd60e51b82526102b39160040161163c565b6000610217610b0c610eeb565b8360405161190160f01b6020820152602281018390526042810182905260009060620160405160208183030381529060405280519060200120905092915050565b6000808251604103610b835760208301516040840151606085015160001a610b7787828585611012565b94509450505050610b8b565b506000905060025b9250929050565b6000816004811115610ba657610ba661164f565b03610bae5750565b6001816004811115610bc257610bc261164f565b03610c0f5760405162461bcd60e51b815260206004820152601860248201527f45434453413a20696e76616c6964207369676e6174757265000000000000000060448201526064016102b3565b6002816004811115610c2357610c2361164f565b03610c705760405162461bcd60e51b815260206004820152601f60248201527f45434453413a20696e76616c6964207369676e6174757265206c656e6774680060448201526064016102b3565b6003816004811115610c8457610c8461164f565b03610cdc5760405162461bcd60e51b815260206004820152602260248201527f45434453413a20696e76616c6964207369676e6174757265202773272076616c604482015261756560f01b60648201526084016102b3565b6004816004811115610cf057610cf061164f565b0361072d5760405162461bcd60e51b815260206004820152602260248201527f45434453413a20696e76616c6964207369676e6174757265202776272076616c604482015261756560f01b60648201526084016102b3565b60606000610d5783600261154d565b610d62906002611665565b67ffffffffffffffff811115610d7a57610d7a6111b4565b6040519080825280601f01601f191660200182016040528015610da4576020820181803683370190505b509050600360fc1b81600081518110610dbf57610dbf611678565b60200101906001600160f81b031916908160001a905350600f60fb1b81600181518110610dee57610dee611678565b60200101906001600160f81b031916908160001a9053506000610e1284600261154d565b610e1d906001611665565b90505b6001811115610e95576f181899199a1a9b1b9c1cb0b131b232b360811b85600f1660108110610e5157610e51611678565b1a60f81b828281518110610e6757610e67611678565b60200101906001600160f81b031916908160001a90535060049490941c93610e8e8161168e565b9050610e20565b508315610ee45760405162461bcd60e51b815260206004820181905260248201527f537472696e67733a20686578206c656e67746820696e73756666696369656e7460448201526064016102b3565b9392505050565b6000306001600160a01b037f000000000000000000000000000000000000000000000000000000000000000016148015610f4457507f000000000000000000000000000000000000000000000000000000000000000046145b15610f6e57507f000000000000000000000000000000000000000000000000000000000000000090565b50604080517f00000000000000000000000000000000000000000000000000000000000000006020808301919091527f0000000000000000000000000000000000000000000000000000000000000000828401527f000000000000000000000000000000000000000000000000000000000000000060608301524660808301523060a0808401919091528351808403909101815260c0909201909252805191012090565b6000807f7fffffffffffffffffffffffffffffff5d576e7357a4501ddfe92f46681b20a083111561104957506000905060036110f6565b8460ff16601b1415801561106157508460ff16601c14155b1561107257506000905060046110f6565b6040805160008082526020820180845289905260ff881692820192909252606081018690526080810185905260019060a0016020604051602081039080840390855afa1580156110c6573d6000803e3d6000fd5b5050604051601f1901519150506001600160a01b0381166110ef576000600192509250506110f6565b9150600090505b94509492505050565b60006020828403121561111157600080fd5b81356001600160e01b031981168114610ee457600080fd5b60006020828403121561113b57600080fd5b5035919050565b6001600160a01b038116811461072d57600080fd5b803561116281611142565b919050565b6000806040838503121561117a57600080fd5b82359150602083013561118c81611142565b809150509250929050565b6000602082840312156111a957600080fd5b8135610ee481611142565b634e487b7160e01b600052604160045260246000fd5b60405160c0810167ffffffffffffffff811182821017156111ed576111ed6111b4565b60405290565b6001600160601b038116811461072d57600080fd5b600082601f83011261121957600080fd5b813567ffffffffffffffff80821115611234576112346111b4565b604051601f8301601f19908116603f0116810190828211818310171561125c5761125c6111b4565b8160405283815286602085880101111561127557600080fd5b836020870160208301376000602085830101528094505050505092915050565b60008083601f8401126112a757600080fd5b50813567ffffffffffffffff8111156112bf57600080fd5b602083019150836020828501011115610b8b57600080fd5b6000806000806000808688036101408112156112f257600080fd5b60c081121561130057600080fd5b506113096111ca565b87358152602088013561131b81611142565b602082015260408881013590820152606088013561133881611142565b6060820152608088013561134b816111f3565b608082015260a088013561135e81611142565b60a0820152955061137160c08801611157565b945060e0870135935061010087013567ffffffffffffffff8082111561139657600080fd5b6113a28a838b01611208565b94506101208901359150808211156113b957600080fd5b506113c689828a01611295565b979a9699509497509295939492505050565b60005b838110156113f35781810151838201526020016113db565b50506000910152565b600081518084526114148160208601602086016113d8565b601f01601f19169290920160200192915050565b6001600160a01b03868116825285166020820152604081018490526060810183905260a060808201819052600090611462908301846113fc565b979650505050505050565b6000806040838503121561148057600080fd5b825161148b81611142565b6020939093015192949293505050565b6000602082840312156114ad57600080fd5b8151610ee4816111f3565b60018060a01b03851681528360208201528260408201526080606082015260006114e560808301846113fc565b9695505050505050565b60018060a01b038616815284602082015283604082015260a06060820152600061151c60a08301856113fc565b90506001600160601b03831660808301529695505050505050565b634e487b7160e01b600052601160045260246000fd5b808202811582820484141761021757610217611537565b60008261158157634e487b7160e01b600052601260045260246000fd5b500490565b8181038181111561021757610217611537565b6020808252601490820152734661696c656420746f2073656e64206d6f6e657960601b604082015260600190565b7f416363657373436f6e74726f6c3a206163636f756e74200000000000000000008152600083516115ff8160178501602088016113d8565b7001034b99036b4b9b9b4b733903937b6329607d1b60179184019182015283516116308160288401602088016113d8565b01602801949350505050565b602081526000610ee460208301846113fc565b634e487b7160e01b600052602160045260246000fd5b8082018082111561021757610217611537565b634e487b7160e01b600052603260045260246000fd5b60008161169d5761169d611537565b50600019019056fea2646970667358221220c76fed8a9b519d0834e0d42dcb6dba57c8192c32ffd73b016c55dad4b0bf0d4c64736f6c63430008110033",
  "linkReferences": {},
  "deployedLinkReferences": {}
}