{
  "_format": "hh-sol-artifact-1",
  "contractName": "ERC1155Tradable",
  "sourceName": "contracts/ERC1155Tradable.sol",
  "abi": [
    {
      "inputs": [
        {
          "internalType": "string",
          "name": "_name",
          "type": "string"
        },
        {
          "internalType": "string",
          "name": "_symbol",
          "type": "string"
        },
        {
          "internalType": "address",
          "name": "_proxyRegistryAddress",
          "type": "address"
        }
      ],
      "stateMutability": "nonpayable",
      "type": "constructor"
    },
    {
      "anonymous": false,
      "inputs": [
        {
          "indexed": true,
          "internalType": "address",
          "name": "account",
          "type": "address"
        },
        {
          "indexed": true,
          "internalType": "address",
          "name": "operator",
          "type": "address"
        },
        {
          "indexed": false,
          "internalType": "bool",
          "name": "approved",
          "type": "bool"
        }
      ],
      "name": "ApprovalForAll",
      "type": "event"
    },
    {
      "anonymous": false,
      "inputs": [
        {
          "indexed": false,
          "internalType": "address",
          "name": "userAddress",
          "type": "address"
        },
        {
          "indexed": false,
          "internalType": "address payable",
          "name": "relayerAddress",
          "type": "address"
        },
        {
          "indexed": false,
          "internalType": "bytes",
          "name": "functionSignature",
          "type": "bytes"
        }
      ],
      "name": "MetaTransactionExecuted",
      "type": "event"
    },
    {
      "anonymous": false,
      "inputs": [
        {
          "indexed": true,
          "internalType": "address",
          "name": "previousOwner",
          "type": "address"
        },
        {
          "indexed": true,
          "internalType": "address",
          "name": "newOwner",
          "type": "address"
        }
      ],
      "name": "OwnershipTransferred",
      "type": "event"
    },
    {
      "anonymous": false,
      "inputs": [
        {
          "indexed": false,
          "internalType": "address",
          "name": "account",
          "type": "address"
        }
      ],
      "name": "Paused",
      "type": "event"
    },
    {
      "anonymous": false,
      "inputs": [
        {
          "indexed": true,
          "internalType": "address",
          "name": "operator",
          "type": "address"
        },
        {
          "indexed": true,
          "internalType": "address",
          "name": "from",
          "type": "address"
        },
        {
          "indexed": true,
          "internalType": "address",
          "name": "to",
          "type": "address"
        },
        {
          "indexed": false,
          "internalType": "uint256[]",
          "name": "ids",
          "type": "uint256[]"
        },
        {
          "indexed": false,
          "internalType": "uint256[]",
          "name": "values",
          "type": "uint256[]"
        }
      ],
      "name": "TransferBatch",
      "type": "event"
    },
    {
      "anonymous": false,
      "inputs": [
        {
          "indexed": true,
          "internalType": "address",
          "name": "operator",
          "type": "address"
        },
        {
          "indexed": true,
          "internalType": "address",
          "name": "from",
          "type": "address"
        },
        {
          "indexed": true,
          "internalType": "address",
          "name": "to",
          "type": "address"
        },
        {
          "indexed": false,
          "internalType": "uint256",
          "name": "id",
          "type": "uint256"
        },
        {
          "indexed": false,
          "internalType": "uint256",
          "name": "value",
          "type": "uint256"
        }
      ],
      "name": "TransferSingle",
      "type": "event"
    },
    {
      "anonymous": false,
      "inputs": [
        {
          "indexed": false,
          "internalType": "string",
          "name": "value",
          "type": "string"
        },
        {
          "indexed": true,
          "internalType": "uint256",
          "name": "id",
          "type": "uint256"
        }
      ],
      "name": "URI",
      "type": "event"
    },
    {
      "anonymous": false,
      "inputs": [
        {
          "indexed": false,
          "internalType": "address",
          "name": "account",
          "type": "address"
        }
      ],
      "name": "Unpaused",
      "type": "event"
    },
    {
      "inputs": [],
      "name": "ERC712_VERSION",
      "outputs": [
        {
          "internalType": "string",
          "name": "",
          "type": "string"
        }
      ],
      "stateMutability": "view",
      "type": "function"
    },
    {
      "inputs": [
        {
          "internalType": "address",
          "name": "account",
          "type": "address"
        },
        {
          "internalType": "uint256",
          "name": "id",
          "type": "uint256"
        }
      ],
      "name": "balanceOf",
      "outputs": [
        {
          "internalType": "uint256",
          "name": "",
          "type": "uint256"
        }
      ],
      "stateMutability": "view",
      "type": "function"
    },
    {
      "inputs": [
        {
          "internalType": "address[]",
          "name": "accounts",
          "type": "address[]"
        },
        {
          "internalType": "uint256[]",
          "name": "ids",
          "type": "uint256[]"
        }
      ],
      "name": "balanceOfBatch",
      "outputs": [
        {
          "internalType": "uint256[]",
          "name": "",
          "type": "uint256[]"
        }
      ],
      "stateMutability": "view",
      "type": "function"
    },
    {
      "inputs": [
        {
          "internalType": "address",
          "name": "_from",
          "type": "address"
        },
        {
          "internalType": "uint256[]",
          "name": "_ids",
          "type": "uint256[]"
        },
        {
          "internalType": "uint256[]",
          "name": "_quantities",
          "type": "uint256[]"
        }
      ],
      "name": "batchBurn",
      "outputs": [],
      "stateMutability": "nonpayable",
      "type": "function"
    },
    {
      "inputs": [
        {
          "internalType": "address",
          "name": "_to",
          "type": "address"
        },
        {
          "internalType": "uint256[]",
          "name": "_ids",
          "type": "uint256[]"
        },
        {
          "internalType": "uint256[]",
          "name": "_quantities",
          "type": "uint256[]"
        },
        {
          "internalType": "bytes",
          "name": "_data",
          "type": "bytes"
        }
      ],
      "name": "batchMint",
      "outputs": [],
      "stateMutability": "nonpayable",
      "type": "function"
    },
    {
      "inputs": [
        {
          "internalType": "address",
          "name": "_from",
          "type": "address"
        },
        {
          "internalType": "uint256",
          "name": "_id",
          "type": "uint256"
        },
        {
          "internalType": "uint256",
          "name": "_quantity",
          "type": "uint256"
        }
      ],
      "name": "burn",
      "outputs": [],
      "stateMutability": "nonpayable",
      "type": "function"
    },
    {
      "inputs": [
        {
          "internalType": "address",
          "name": "userAddress",
          "type": "address"
        },
        {
          "internalType": "bytes",
          "name": "functionSignature",
          "type": "bytes"
        },
        {
          "internalType": "bytes32",
          "name": "sigR",
          "type": "bytes32"
        },
        {
          "internalType": "bytes32",
          "name": "sigS",
          "type": "bytes32"
        },
        {
          "internalType": "uint8",
          "name": "sigV",
          "type": "uint8"
        }
      ],
      "name": "executeMetaTransaction",
      "outputs": [
        {
          "internalType": "bytes",
          "name": "",
          "type": "bytes"
        }
      ],
      "stateMutability": "payable",
      "type": "function"
    },
    {
      "inputs": [
        {
          "internalType": "uint256",
          "name": "_id",
          "type": "uint256"
        }
      ],
      "name": "exists",
      "outputs": [
        {
          "internalType": "bool",
          "name": "",
          "type": "bool"
        }
      ],
      "stateMutability": "view",
      "type": "function"
    },
    {
      "inputs": [],
      "name": "getChainId",
      "outputs": [
        {
          "internalType": "uint256",
          "name": "",
          "type": "uint256"
        }
      ],
      "stateMutability": "view",
      "type": "function"
    },
    {
      "inputs": [],
      "name": "getDomainSeperator",
      "outputs": [
        {
          "internalType": "bytes32",
          "name": "",
          "type": "bytes32"
        }
      ],
      "stateMutability": "view",
      "type": "function"
    },
    {
      "inputs": [
        {
          "internalType": "address",
          "name": "user",
          "type": "address"
        }
      ],
      "name": "getNonce",
      "outputs": [
        {
          "internalType": "uint256",
          "name": "nonce",
          "type": "uint256"
        }
      ],
      "stateMutability": "view",
      "type": "function"
    },
    {
      "inputs": [
        {
          "internalType": "address",
          "name": "_owner",
          "type": "address"
        },
        {
          "internalType": "address",
          "name": "_operator",
          "type": "address"
        }
      ],
      "name": "isApprovedForAll",
      "outputs": [
        {
          "internalType": "bool",
          "name": "isOperator",
          "type": "bool"
        }
      ],
      "stateMutability": "view",
      "type": "function"
    },
    {
      "inputs": [
        {
          "internalType": "address",
          "name": "_to",
          "type": "address"
        },
        {
          "internalType": "uint256",
          "name": "_id",
          "type": "uint256"
        },
        {
          "internalType": "uint256",
          "name": "_quantity",
          "type": "uint256"
        },
        {
          "internalType": "bytes",
          "name": "_data",
          "type": "bytes"
        }
      ],
      "name": "mint",
      "outputs": [],
      "stateMutability": "nonpayable",
      "type": "function"
    },
    {
      "inputs": [],
      "name": "name",
      "outputs": [
        {
          "internalType": "string",
          "name": "",
          "type": "string"
        }
      ],
      "stateMutability": "view",
      "type": "function"
    },
    {
      "inputs": [],
      "name": "owner",
      "outputs": [
        {
          "internalType": "address",
          "name": "",
          "type": "address"
        }
      ],
      "stateMutability": "view",
      "type": "function"
    },
    {
      "inputs": [],
      "name": "pause",
      "outputs": [],
      "stateMutability": "nonpayable",
      "type": "function"
    },
    {
      "inputs": [],
      "name": "paused",
      "outputs": [
        {
          "internalType": "bool",
          "name": "",
          "type": "bool"
        }
      ],
      "stateMutability": "view",
      "type": "function"
    },
    {
      "inputs": [],
      "name": "proxyRegistryAddress",
      "outputs": [
        {
          "internalType": "address",
          "name": "",
          "type": "address"
        }
      ],
      "stateMutability": "view",
      "type": "function"
    },
    {
      "inputs": [],
      "name": "renounceOwnership",
      "outputs": [],
      "stateMutability": "nonpayable",
      "type": "function"
    },
    {
      "inputs": [
        {
          "internalType": "address",
          "name": "from",
          "type": "address"
        },
        {
          "internalType": "address",
          "name": "to",
          "type": "address"
        },
        {
          "internalType": "uint256[]",
          "name": "ids",
          "type": "uint256[]"
        },
        {
          "internalType": "uint256[]",
          "name": "amounts",
          "type": "uint256[]"
        },
        {
          "internalType": "bytes",
          "name": "data",
          "type": "bytes"
        }
      ],
      "name": "safeBatchTransferFrom",
      "outputs": [],
      "stateMutability": "nonpayable",
      "type": "function"
    },
    {
      "inputs": [
        {
          "internalType": "address",
          "name": "from",
          "type": "address"
        },
        {
          "internalType": "address",
          "name": "to",
          "type": "address"
        },
        {
          "internalType": "uint256",
          "name": "id",
          "type": "uint256"
        },
        {
          "internalType": "uint256",
          "name": "amount",
          "type": "uint256"
        },
        {
          "internalType": "bytes",
          "name": "data",
          "type": "bytes"
        }
      ],
      "name": "safeTransferFrom",
      "outputs": [],
      "stateMutability": "nonpayable",
      "type": "function"
    },
    {
      "inputs": [
        {
          "internalType": "address",
          "name": "operator",
          "type": "address"
        },
        {
          "internalType": "bool",
          "name": "approved",
          "type": "bool"
        }
      ],
      "name": "setApprovalForAll",
      "outputs": [],
      "stateMutability": "nonpayable",
      "type": "function"
    },
    {
      "inputs": [
        {
          "internalType": "bytes4",
          "name": "interfaceId",
          "type": "bytes4"
        }
      ],
      "name": "supportsInterface",
      "outputs": [
        {
          "internalType": "bool",
          "name": "",
          "type": "bool"
        }
      ],
      "stateMutability": "view",
      "type": "function"
    },
    {
      "inputs": [],
      "name": "symbol",
      "outputs": [
        {
          "internalType": "string",
          "name": "",
          "type": "string"
        }
      ],
      "stateMutability": "view",
      "type": "function"
    },
    {
      "inputs": [
        {
          "internalType": "uint256",
          "name": "_id",
          "type": "uint256"
        }
      ],
      "name": "totalSupply",
      "outputs": [
        {
          "internalType": "uint256",
          "name": "",
          "type": "uint256"
        }
      ],
      "stateMutability": "view",
      "type": "function"
    },
    {
      "inputs": [
        {
          "internalType": "address",
          "name": "newOwner",
          "type": "address"
        }
      ],
      "name": "transferOwnership",
      "outputs": [],
      "stateMutability": "nonpayable",
      "type": "function"
    },
    {
      "inputs": [],
      "name": "unpause",
      "outputs": [],
      "stateMutability": "nonpayable",
      "type": "function"
    },
    {
      "inputs": [
        {
          "internalType": "uint256",
          "name": "",
          "type": "uint256"
        }
      ],
      "name": "uri",
      "outputs": [
        {
          "internalType": "string",
          "name": "",
          "type": "string"
        }
      ],
      "stateMutability": "view",
      "type": "function"
    }
  ],
  "bytecode": "0x60806040526003805460ff191690553480156200001b57600080fd5b506040516200320f3803806200320f8339810160408190526200003e9162000405565b60408051602081019091526000815262000058816200015c565b506200006d620000676200016e565b6200018a565b6006805460ff60a01b19169055600762000088848262000521565b50600862000097838262000521565b50600b80546001600160a01b0319166001600160a01b03831617905560078054620001539190620000c89062000492565b80601f0160208091040260200160405190810160405280929190818152602001828054620000f69062000492565b8015620001475780601f106200011b5761010080835404028352916020019162000147565b820191906000526020600020905b8154815290600101906020018083116200012957829003601f168201915b5050620001dc92505050565b505050620005ed565b60026200016a828262000521565b5050565b6000620001856200024060201b620010dd1760201c565b905090565b600680546001600160a01b038381166001600160a01b0319831681179093556040519116919082907f8be0079c531659141344cd1fd0a4f28419497f9722a3daafe3b4186f6b6457e090600090a35050565b60035460ff1615620002255760405162461bcd60e51b815260206004820152600e60248201526d185b1c9958591e481a5b9a5d195960921b604482015260640160405180910390fd5b62000230816200029e565b506003805460ff19166001179055565b60003033036200029857600080368080601f0160208091040260200160405190810160405280939291908181526020018383808284376000920191909152505050503601516001600160a01b031691506200029b9050565b50335b90565b6040518060800160405280604f8152602001620031c0604f9139805160209182012082519282019290922060408051808201825260018152603160f81b90840152805180840194909452838101919091527fc89efdaa54c0f20c7adf612882df0950f5a951637e0307cdcb4c672f298b8bc660608401523060808401524660a0808501919091528151808503909101815260c090930190528151910120600455565b634e487b7160e01b600052604160045260246000fd5b600082601f8301126200036857600080fd5b81516001600160401b038082111562000385576200038562000340565b604051601f8301601f19908116603f01168101908282118183101715620003b057620003b062000340565b81604052838152602092508683858801011115620003cd57600080fd5b600091505b83821015620003f15785820183015181830184015290820190620003d2565b600093810190920192909252949350505050565b6000806000606084860312156200041b57600080fd5b83516001600160401b03808211156200043357600080fd5b620004418783880162000356565b945060208601519150808211156200045857600080fd5b50620004678682870162000356565b604086015190935090506001600160a01b03811681146200048757600080fd5b809150509250925092565b600181811c90821680620004a757607f821691505b602082108103620004c857634e487b7160e01b600052602260045260246000fd5b50919050565b601f8211156200051c57600081815260208120601f850160051c81016020861015620004f75750805b601f850160051c820191505b81811015620005185782815560010162000503565b5050505b505050565b81516001600160401b038111156200053d576200053d62000340565b62000555816200054e845462000492565b84620004ce565b602080601f8311600181146200058d5760008415620005745750858301515b600019600386901b1c1916600185901b17855562000518565b600085815260208120601f198616915b82811015620005be578886015182559484019460019091019084016200059d565b5085821015620005dd5787850151600019600388901b60f8161c191681555b5050505050600190811b01905550565b612bc380620005fd6000396000f3fe6080604052600436106101b65760003560e01c8063715018a6116100ec578063bd85b0391161008a578063f242432a11610064578063f242432a146104ee578063f2fde38b1461050e578063f5298aca1461052e578063f6eb127a1461054e57600080fd5b8063bd85b03914610481578063cd7c0326146104ae578063e985e9c5146104ce57600080fd5b80638da5cb5b116100c65780638da5cb5b146103fa57806395d89b411461042c578063a22cb46514610441578063b48ab8b61461046157600080fd5b8063715018a6146103b0578063731133e9146103c55780638456cb59146103e557600080fd5b80632d0335ab116101595780633f4ba83a116101335780633f4ba83a146103205780634e1273f4146103355780634f558e79146103625780635c975abb1461039157600080fd5b80632d0335ab146102b55780632eb2c2d6146102eb5780633408e4701461030d57600080fd5b80630c53c51c116101955780630c53c51c146102405780630e89341c146102535780630f7e59701461027357806320379ee5146102a057600080fd5b8062fdd58e146101bb57806301ffc9a7146101ee57806306fdde031461021e575b600080fd5b3480156101c757600080fd5b506101db6101d6366004611ffe565b61056e565b6040519081526020015b60405180910390f35b3480156101fa57600080fd5b5061020e61020936600461203e565b61060a565b60405190151581526020016101e5565b34801561022a57600080fd5b5061023361065a565b6040516101e591906120ab565b61023361024e366004612175565b6106e8565b34801561025f57600080fd5b5061023361026e3660046121f1565b6108c0565b34801561027f57600080fd5b50610233604051806040016040528060018152602001603160f81b81525081565b3480156102ac57600080fd5b506004546101db565b3480156102c157600080fd5b506101db6102d036600461220a565b6001600160a01b031660009081526005602052604090205490565b3480156102f757600080fd5b5061030b6103063660046122ba565b610954565b005b34801561031957600080fd5b50466101db565b34801561032c57600080fd5b5061030b610b9d565b34801561034157600080fd5b50610355610350366004612364565b610bd3565b6040516101e5919061246a565b34801561036e57600080fd5b5061020e61037d3660046121f1565b6000908152600a6020526040902054151590565b34801561039d57600080fd5b50600654600160a01b900460ff1661020e565b3480156103bc57600080fd5b5061030b610cfd565b3480156103d157600080fd5b5061030b6103e036600461247d565b610d0f565b3480156103f157600080fd5b5061030b610d48565b34801561040657600080fd5b506006546001600160a01b03165b6040516001600160a01b0390911681526020016101e5565b34801561043857600080fd5b50610233610d77565b34801561044d57600080fd5b5061030b61045c3660046124de565b610d84565b34801561046d57600080fd5b5061030b61047c36600461251a565b610d9a565b34801561048d57600080fd5b506101db61049c3660046121f1565b6000908152600a602052604090205490565b3480156104ba57600080fd5b50600b54610414906001600160a01b031681565b3480156104da57600080fd5b5061020e6104e93660046125a7565b610dcd565b3480156104fa57600080fd5b5061030b6105093660046125da565b610e1f565b34801561051a57600080fd5b5061030b61052936600461220a565b610fb8565b34801561053a57600080fd5b5061030b61054936600461263f565b611031565b34801561055a57600080fd5b5061030b610569366004612672565b611087565b60006001600160a01b0383166105df5760405162461bcd60e51b815260206004820152602b60248201527f455243313135353a2062616c616e636520717565727920666f7220746865207a60448201526a65726f206164647265737360a81b60648201526084015b60405180910390fd5b5060008181526009602090815260408083206001600160a01b03861684529091529020545b92915050565b60006001600160e01b03198216636cdb3d1360e11b148061063b57506001600160e01b031982166303a24d0760e21b145b8061060457506301ffc9a760e01b6001600160e01b0319831614610604565b60078054610667906126e6565b80601f0160208091040260200160405190810160405280929190818152602001828054610693906126e6565b80156106e05780601f106106b5576101008083540402835291602001916106e0565b820191906000526020600020905b8154815290600101906020018083116106c357829003601f168201915b505050505081565b60408051606081810183526001600160a01b038816600081815260056020908152908590205484528301529181018690526107268782878787611139565b61077c5760405162461bcd60e51b815260206004820152602160248201527f5369676e657220616e64207369676e617475726520646f206e6f74206d6174636044820152600d60fb1b60648201526084016105d6565b6001600160a01b03871660009081526005602052604081208054600192906107a5908490612736565b90915550506040517f5845892132946850460bff5a0083f71031bc5bf9aadcd40f1de79423eac9b10b906107de90899033908a90612749565b60405180910390a1600080306001600160a01b0316888a60405160200161080692919061277e565b60408051601f1981840301815290829052610820916127b5565b6000604051808303816000865af19150503d806000811461085d576040519150601f19603f3d011682016040523d82523d6000602084013e610862565b606091505b5091509150816108b45760405162461bcd60e51b815260206004820152601c60248201527f46756e6374696f6e2063616c6c206e6f74207375636365737366756c0000000060448201526064016105d6565b98975050505050505050565b6060600280546108cf906126e6565b80601f01602080910402602001604051908101604052809291908181526020018280546108fb906126e6565b80156109485780601f1061091d57610100808354040283529160200191610948565b820191906000526020600020905b81548152906001019060200180831161092b57829003601f168201915b50505050509050919050565b61095c611229565b84610965611276565b6001600160a01b0316816001600160a01b0316148061098b575061098b816104e9611276565b6109a75760405162461bcd60e51b81526004016105d6906127d1565b82518451146109c85760405162461bcd60e51b81526004016105d690612821565b6001600160a01b0385166109ee5760405162461bcd60e51b81526004016105d690612865565b60006109f8611276565b905060005b8551811015610b2e576000868281518110610a1a57610a1a6128aa565b602002602001015190506000868381518110610a3857610a386128aa565b60209081029190910181015160008481526009835260408082206001600160a01b038f168352909352919091205490915081811015610a895760405162461bcd60e51b81526004016105d6906128c0565b610a93828261290a565b6009600085815260200190815260200160002060008d6001600160a01b03166001600160a01b0316815260200190815260200160002081905550816009600085815260200190815260200160002060008c6001600160a01b03166001600160a01b031681526020019081526020016000206000828254610b139190612736565b9250508190555050505080610b279061291d565b90506109fd565b50856001600160a01b0316876001600160a01b0316826001600160a01b03167f4a39dc06d4c0dbc64b70af90fd698a233a518aa5d07e595d983b8c0526c8f7fb8888604051610b7e929190612936565b60405180910390a4610b9481888888888861128d565b50505050505050565b610bad610ba8611276565b6113e8565b610bc95760405162461bcd60e51b81526004016105d69061295b565b610bd1611416565b565b60608151835114610c385760405162461bcd60e51b815260206004820152602960248201527f455243313135353a206163636f756e747320616e6420696473206c656e677468604482015268040dad2e6dac2e8c6d60bb1b60648201526084016105d6565b6000835167ffffffffffffffff811115610c5457610c546120be565b604051908082528060200260200182016040528015610c7d578160200160208202803683370190505b50905060005b8451811015610cf557610cc8858281518110610ca157610ca16128aa565b6020026020010151858381518110610cbb57610cbb6128aa565b602002602001015161056e565b828281518110610cda57610cda6128aa565b6020908102919091010152610cee8161291d565b9050610c83565b509392505050565b610d05611471565b610bd160006114ea565b610d1a610ba8611276565b610d365760405162461bcd60e51b81526004016105d69061295b565b610d428484848461153c565b50505050565b610d53610ba8611276565b610d6f5760405162461bcd60e51b81526004016105d69061295b565b610bd161161f565b60088054610667906126e6565b610d96610d8f611276565b8383611663565b5050565b610da5610ba8611276565b610dc15760405162461bcd60e51b81526004016105d69061295b565b610d4284848484611743565b600b546000906001600160a01b0390811690831603610dee57506001610604565b6001600160a01b0380841660009081526001602090815260408083209386168352929052205460ff165b9392505050565b610e27611229565b84610e30611276565b6001600160a01b0316816001600160a01b03161480610e565750610e56816104e9611276565b610e725760405162461bcd60e51b81526004016105d6906127d1565b6001600160a01b038516610e985760405162461bcd60e51b81526004016105d690612865565b6000610ea2611276565b9050610ec3818888610eb389611987565b610ebc89611987565b5050505050565b60008581526009602090815260408083206001600160a01b038b16845290915290205484811015610f065760405162461bcd60e51b81526004016105d6906128c0565b610f10858261290a565b60008781526009602090815260408083206001600160a01b038d81168552925280832093909355891681529081208054879290610f4e908490612736565b909155505060408051878152602081018790526001600160a01b03808a16928b821692918616917fc3d58168c5ae7397731d063d5bbf3d657854427343f4c083240f7aacaa2d0f62910160405180910390a4610fae8289898989896119d2565b5050505050505050565b610fc0611471565b6001600160a01b0381166110255760405162461bcd60e51b815260206004820152602660248201527f4f776e61626c653a206e6577206f776e657220697320746865207a65726f206160448201526564647265737360d01b60648201526084016105d6565b61102e816114ea565b50565b8261103a611276565b6001600160a01b0316816001600160a01b031614806110605750611060816104e9611276565b61107c5760405162461bcd60e51b81526004016105d6906127d1565b610d42848484611a8d565b82611090611276565b6001600160a01b0316816001600160a01b031614806110b657506110b6816104e9611276565b6110d25760405162461bcd60e51b81526004016105d6906127d1565b610d42848484611cb3565b600030330361113357600080368080601f0160208091040260200160405190810160405280939291908181526020018383808284376000920191909152505050503601516001600160a01b031691506111369050565b50335b90565b60006001600160a01b03861661119f5760405162461bcd60e51b815260206004820152602560248201527f4e61746976654d6574615472616e73616374696f6e3a20494e56414c49445f5360448201526424a3a722a960d91b60648201526084016105d6565b60016111b26111ad87611ee5565b611f62565b6040805160008152602081018083529290925260ff851690820152606081018690526080810185905260a0016020604051602081039080840390855afa158015611200573d6000803e3d6000fd5b505050602060405103516001600160a01b0316866001600160a01b031614905095945050505050565b600654600160a01b900460ff1615610bd15760405162461bcd60e51b815260206004820152601060248201526f14185d5cd8589b194e881c185d5cd95960821b60448201526064016105d6565b60006112806110dd565b905090565b505050505050565b6001600160a01b0384163b156112855760405163bc197c8160e01b81526001600160a01b0385169063bc197c81906112d190899089908890889088906004016129a9565b6020604051808303816000875af192505050801561130c575060408051601f3d908101601f19168201909252611309918101906129fb565b60015b6113b857611318612a18565b806308c379a003611351575061132c612a33565b806113375750611353565b8060405162461bcd60e51b81526004016105d691906120ab565b505b60405162461bcd60e51b815260206004820152603460248201527f455243313135353a207472616e7366657220746f206e6f6e20455243313135356044820152732932b1b2b4bb32b91034b6b83632b6b2b73a32b960611b60648201526084016105d6565b6001600160e01b0319811663bc197c8160e01b14610b945760405162461bcd60e51b81526004016105d690612abd565b6000816001600160a01b03166114066006546001600160a01b031690565b6001600160a01b03161492915050565b61141e611f92565b6006805460ff60a01b191690557f5db9ee0a495bf2e6ff9c91a7834c1ba4fdd244a5e8aa4e537bd38aeae4b073aa611454611276565b6040516001600160a01b03909116815260200160405180910390a1565b611479611276565b6001600160a01b03166114946006546001600160a01b031690565b6001600160a01b031614610bd15760405162461bcd60e51b815260206004820181905260248201527f4f776e61626c653a2063616c6c6572206973206e6f7420746865206f776e657260448201526064016105d6565b600680546001600160a01b038381166001600160a01b0319831681179093556040519116919082907f8be0079c531659141344cd1fd0a4f28419497f9722a3daafe3b4186f6b6457e090600090a35050565b611544611229565b600061154e611276565b90506115698160008761156088611987565b610ebc88611987565b60008481526009602090815260408083206001600160a01b03891684529091528120805485929061159b908490612736565b90915550506000848152600a6020526040812080548592906115be908490612736565b909155505060408051858152602081018590526000916001600160a01b03808916928492918616917fc3d58168c5ae7397731d063d5bbf3d657854427343f4c083240f7aacaa2d0f62910160405180910390a46112858282888888886119d2565b611627611229565b6006805460ff60a01b1916600160a01b1790557f62e78cea01bee320cd4e420270b5ea74000d11b0c9f74754ebdbfc544b05a258611454611276565b816001600160a01b0316836001600160a01b0316036116d65760405162461bcd60e51b815260206004820152602960248201527f455243313135353a2073657474696e6720617070726f76616c20737461747573604482015268103337b91039b2b63360b91b60648201526084016105d6565b6001600160a01b03838116600081815260016020908152604080832094871680845294825291829020805460ff191686151590811790915591519182527f17307eab39ab6107e8899845ad3d59bd9653f200f220920489ca2b5937696c31910160405180910390a3505050565b61174b611229565b81518351146117b55760405162461bcd60e51b815260206004820152603060248201527f455243313135355472616461626c652362617463684d696e743a20494e56414c60448201526f09288be82a4a482b2a6be988a9c8ea8960831b60648201526084016105d6565b825160006117d38582846117cb576117cb6128aa565b506000919050565b905060006117df611276565b905060005b83811015611921576000878281518110611800576118006128aa565b60200260200101519050600087838151811061181e5761181e6128aa565b602002602001015190506001600160a01b03851660006001600160a01b0316146118b05760405162461bcd60e51b815260206004820152603760248201527f455243313135355472616461626c652362617463684d696e743a204d554c544960448201527f504c455f4f524947494e535f4e4f545f414c4c4f57454400000000000000000060648201526084016105d6565b60008281526009602090815260408083206001600160a01b038e168452909152812080548392906118e2908490612736565b90915550506000828152600a602052604081208054839290611905908490612736565b92505081905550505080806119199061291d565b9150506117e4565b50866001600160a01b0316826001600160a01b0316826001600160a01b03167f4a39dc06d4c0dbc64b70af90fd698a233a518aa5d07e595d983b8c0526c8f7fb8989604051611971929190612936565b60405180910390a4610b9481838989898961128d565b604080516001808252818301909252606091600091906020808301908036833701905050905082816000815181106119c1576119c16128aa565b602090810291909101015292915050565b6001600160a01b0384163b156112855760405163f23a6e6160e01b81526001600160a01b0385169063f23a6e6190611a169089908990889088908890600401612b05565b6020604051808303816000875af1925050508015611a51575060408051601f3d908101601f19168201909252611a4e918101906129fb565b60015b611a5d57611318612a18565b6001600160e01b0319811663f23a6e6160e01b14610b945760405162461bcd60e51b81526004016105d690612abd565b611a95611229565b6001600160a01b038316611af95760405162461bcd60e51b815260206004820152602560248201527f45524331313535235f6275726e3a204255524e5f46524f4d5f5a45524f5f4144604482015264445245535360d81b60648201526084016105d6565b60008111611b555760405162461bcd60e51b815260206004820152602360248201527f45524331313535235f6275726e3a20414d4f554e545f4c4553535f5448414e5f6044820152624f4e4560e81b60648201526084016105d6565b6000611b5f611276565b9050611b9081856000611b7187611987565b611b7a87611987565b5050604080516020810190915260009052505050565b60008381526009602090815260408083206001600160a01b038816845290915290205482811015611c115760405162461bcd60e51b815260206004820152602560248201527f45524331313535235f6275726e3a20414d4f554e545f455843454544535f42416044820152644c414e434560d81b60648201526084016105d6565b611c1b838261290a565b60008581526009602090815260408083206001600160a01b038a168452825280832093909355868252600a90529081208054859290611c5b90849061290a565b909155505060408051858152602081018590526000916001600160a01b0388811692908616917fc3d58168c5ae7397731d063d5bbf3d657854427343f4c083240f7aacaa2d0f62910160405180910390a45050505050565b611cbb611229565b6001600160a01b038316611d115760405162461bcd60e51b815260206004820152601f60248201527f455243313135353a204255524e5f46524f4d5f5a45524f5f414444524553530060448201526064016105d6565b8051825114611d325760405162461bcd60e51b81526004016105d690612821565b6000611d3c611276565b604080516020810190915260009052905060005b8351811015611e86576000848281518110611d6d57611d6d6128aa565b602002602001015190506000848381518110611d8b57611d8b6128aa565b60209081029190910181015160008481526009835260408082206001600160a01b038c168352909352919091205490915081811015611e1f5760405162461bcd60e51b815260206004820152602a60248201527f45524331313535235f6275726e42617463683a20414d4f554e545f455843454560448201526944535f42414c414e434560b01b60648201526084016105d6565b611e29828261290a565b60008481526009602090815260408083206001600160a01b038d168452825280832093909355858252600a90529081208054849290611e6990849061290a565b925050819055505050508080611e7e9061291d565b915050611d50565b5060006001600160a01b0316846001600160a01b0316826001600160a01b03167f4a39dc06d4c0dbc64b70af90fd698a233a518aa5d07e595d983b8c0526c8f7fb8686604051611ed7929190612936565b60405180910390a450505050565b6000604051806080016040528060438152602001612b4b6043913980516020918201208351848301516040808701518051908601209051611f45950193845260208401929092526001600160a01b03166040830152606082015260800190565b604051602081830303815290604052805190602001209050919050565b6000611f6d60045490565b60405161190160f01b6020820152602281019190915260428101839052606201611f45565b600654600160a01b900460ff16610bd15760405162461bcd60e51b815260206004820152601460248201527314185d5cd8589b194e881b9bdd081c185d5cd95960621b60448201526064016105d6565b80356001600160a01b0381168114611ff957600080fd5b919050565b6000806040838503121561201157600080fd5b61201a83611fe2565b946020939093013593505050565b6001600160e01b03198116811461102e57600080fd5b60006020828403121561205057600080fd5b8135610e1881612028565b60005b8381101561207657818101518382015260200161205e565b50506000910152565b6000815180845261209781602086016020860161205b565b601f01601f19169290920160200192915050565b602081526000610e18602083018461207f565b634e487b7160e01b600052604160045260246000fd5b601f8201601f1916810167ffffffffffffffff811182821017156120fa576120fa6120be565b6040525050565b600082601f83011261211257600080fd5b813567ffffffffffffffff81111561212c5761212c6120be565b604051612143601f8301601f1916602001826120d4565b81815284602083860101111561215857600080fd5b816020850160208301376000918101602001919091529392505050565b600080600080600060a0868803121561218d57600080fd5b61219686611fe2565b9450602086013567ffffffffffffffff8111156121b257600080fd5b6121be88828901612101565b9450506040860135925060608601359150608086013560ff811681146121e357600080fd5b809150509295509295909350565b60006020828403121561220357600080fd5b5035919050565b60006020828403121561221c57600080fd5b610e1882611fe2565b600067ffffffffffffffff82111561223f5761223f6120be565b5060051b60200190565b600082601f83011261225a57600080fd5b8135602061226782612225565b60405161227482826120d4565b83815260059390931b850182019282810191508684111561229457600080fd5b8286015b848110156122af5780358352918301918301612298565b509695505050505050565b600080600080600060a086880312156122d257600080fd5b6122db86611fe2565b94506122e960208701611fe2565b9350604086013567ffffffffffffffff8082111561230657600080fd5b61231289838a01612249565b9450606088013591508082111561232857600080fd5b61233489838a01612249565b9350608088013591508082111561234a57600080fd5b5061235788828901612101565b9150509295509295909350565b6000806040838503121561237757600080fd5b823567ffffffffffffffff8082111561238f57600080fd5b818501915085601f8301126123a357600080fd5b813560206123b082612225565b6040516123bd82826120d4565b83815260059390931b85018201928281019150898411156123dd57600080fd5b948201945b83861015612402576123f386611fe2565b825294820194908201906123e2565b9650508601359250508082111561241857600080fd5b5061242585828601612249565b9150509250929050565b600081518084526020808501945080840160005b8381101561245f57815187529582019590820190600101612443565b509495945050505050565b602081526000610e18602083018461242f565b6000806000806080858703121561249357600080fd5b61249c85611fe2565b93506020850135925060408501359150606085013567ffffffffffffffff8111156124c657600080fd5b6124d287828801612101565b91505092959194509250565b600080604083850312156124f157600080fd5b6124fa83611fe2565b91506020830135801515811461250f57600080fd5b809150509250929050565b6000806000806080858703121561253057600080fd5b61253985611fe2565b9350602085013567ffffffffffffffff8082111561255657600080fd5b61256288838901612249565b9450604087013591508082111561257857600080fd5b61258488838901612249565b9350606087013591508082111561259a57600080fd5b506124d287828801612101565b600080604083850312156125ba57600080fd5b6125c383611fe2565b91506125d160208401611fe2565b90509250929050565b600080600080600060a086880312156125f257600080fd5b6125fb86611fe2565b945061260960208701611fe2565b93506040860135925060608601359150608086013567ffffffffffffffff81111561263357600080fd5b61235788828901612101565b60008060006060848603121561265457600080fd5b61265d84611fe2565b95602085013595506040909401359392505050565b60008060006060848603121561268757600080fd5b61269084611fe2565b9250602084013567ffffffffffffffff808211156126ad57600080fd5b6126b987838801612249565b935060408601359150808211156126cf57600080fd5b506126dc86828701612249565b9150509250925092565b600181811c908216806126fa57607f821691505b60208210810361271a57634e487b7160e01b600052602260045260246000fd5b50919050565b634e487b7160e01b600052601160045260246000fd5b8082018082111561060457610604612720565b6001600160a01b038481168252831660208201526060604082018190526000906127759083018461207f565b95945050505050565b6000835161279081846020880161205b565b60609390931b6bffffffffffffffffffffffff19169190920190815260140192915050565b600082516127c781846020870161205b565b9190910192915050565b60208082526030908201527f455243313135355472616461626c65236f6e6c79417070726f7665643a20434160408201526f1313115497d393d517d0531313d5d15160821b606082015260800190565b60208082526024908201527f455243313135353a204944535f414d4f554e54535f4c454e4754485f4d49534d604082015263082a886960e31b606082015260800190565b60208082526025908201527f455243313135353a207472616e7366657220746f20746865207a65726f206164604082015264647265737360d81b606082015260800190565b634e487b7160e01b600052603260045260246000fd5b6020808252602a908201527f455243313135353a20696e73756666696369656e742062616c616e636520666f60408201526939103a3930b739b332b960b11b606082015260800190565b8181038181111561060457610604612720565b60006001820161292f5761292f612720565b5060010190565b604081526000612949604083018561242f565b8281036020840152612775818561242f565b6020808252602e908201527f455243313135355472616461626c65236f6e6c794f776e65723a2043414c4c4560408201526d292fa4a9afa727aa2fa7aba722a960911b606082015260800190565b6001600160a01b0386811682528516602082015260a0604082018190526000906129d59083018661242f565b82810360608401526129e7818661242f565b905082810360808401526108b4818561207f565b600060208284031215612a0d57600080fd5b8151610e1881612028565b600060033d11156111365760046000803e5060005160e01c90565b600060443d1015612a415790565b6040516003193d81016004833e81513d67ffffffffffffffff8160248401118184111715612a7157505050505090565b8285019150815181811115612a895750505050505090565b843d8701016020828501011115612aa35750505050505090565b612ab2602082860101876120d4565b509095945050505050565b60208082526028908201527f455243313135353a204552433131353552656365697665722072656a656374656040820152676420746f6b656e7360c01b606082015260800190565b6001600160a01b03868116825285166020820152604081018490526060810183905260a060808201819052600090612b3f9083018461207f565b97965050505050505056fe4d6574615472616e73616374696f6e2875696e74323536206e6f6e63652c616464726573732066726f6d2c62797465732066756e6374696f6e5369676e617475726529a26469706673582212207fe81df0a415d8ff000dbc85de13d50083a97410b504d53f065100cad7a9e59664736f6c63430008110033454950373132446f6d61696e28737472696e67206e616d652c737472696e672076657273696f6e2c6164647265737320766572696679696e67436f6e74726163742c627974657333322073616c7429",
  "linkReferences": {},
  "deployedLinkReferences": {}
}