{
  "_format": "hh-sol-artifact-1",
  "contractName": "ERC1155Tradable",
  "sourceName": "contracts/ERC1155Tradable.sol",
  "abi": [
    {
      "anonymous": false,
      "inputs": [
        {
          "indexed": true,
          "internalType": "address",
          "name": "account",
          "type": "address"
        },
        {
          "indexed": true,
          "internalType": "address",
          "name": "operator",
          "type": "address"
        },
        {
          "indexed": false,
          "internalType": "bool",
          "name": "approved",
          "type": "bool"
        }
      ],
      "name": "ApprovalForAll",
      "type": "event"
    },
    {
      "anonymous": false,
      "inputs": [
        {
          "indexed": false,
          "internalType": "uint8",
          "name": "version",
          "type": "uint8"
        }
      ],
      "name": "Initialized",
      "type": "event"
    },
    {
      "anonymous": false,
      "inputs": [
        {
          "indexed": false,
          "internalType": "address",
          "name": "userAddress",
          "type": "address"
        },
        {
          "indexed": false,
          "internalType": "address payable",
          "name": "relayerAddress",
          "type": "address"
        },
        {
          "indexed": false,
          "internalType": "bytes",
          "name": "functionSignature",
          "type": "bytes"
        }
      ],
      "name": "MetaTransactionExecuted",
      "type": "event"
    },
    {
      "anonymous": false,
      "inputs": [
        {
          "indexed": true,
          "internalType": "address",
          "name": "previousOwner",
          "type": "address"
        },
        {
          "indexed": true,
          "internalType": "address",
          "name": "newOwner",
          "type": "address"
        }
      ],
      "name": "OwnershipTransferred",
      "type": "event"
    },
    {
      "anonymous": false,
      "inputs": [
        {
          "indexed": false,
          "internalType": "address",
          "name": "account",
          "type": "address"
        }
      ],
      "name": "Paused",
      "type": "event"
    },
    {
      "anonymous": false,
      "inputs": [
        {
          "indexed": true,
          "internalType": "address",
          "name": "operator",
          "type": "address"
        },
        {
          "indexed": true,
          "internalType": "address",
          "name": "from",
          "type": "address"
        },
        {
          "indexed": true,
          "internalType": "address",
          "name": "to",
          "type": "address"
        },
        {
          "indexed": false,
          "internalType": "uint256[]",
          "name": "ids",
          "type": "uint256[]"
        },
        {
          "indexed": false,
          "internalType": "uint256[]",
          "name": "values",
          "type": "uint256[]"
        }
      ],
      "name": "TransferBatch",
      "type": "event"
    },
    {
      "anonymous": false,
      "inputs": [
        {
          "indexed": true,
          "internalType": "address",
          "name": "operator",
          "type": "address"
        },
        {
          "indexed": true,
          "internalType": "address",
          "name": "from",
          "type": "address"
        },
        {
          "indexed": true,
          "internalType": "address",
          "name": "to",
          "type": "address"
        },
        {
          "indexed": false,
          "internalType": "uint256",
          "name": "id",
          "type": "uint256"
        },
        {
          "indexed": false,
          "internalType": "uint256",
          "name": "value",
          "type": "uint256"
        }
      ],
      "name": "TransferSingle",
      "type": "event"
    },
    {
      "anonymous": false,
      "inputs": [
        {
          "indexed": false,
          "internalType": "string",
          "name": "value",
          "type": "string"
        },
        {
          "indexed": true,
          "internalType": "uint256",
          "name": "id",
          "type": "uint256"
        }
      ],
      "name": "URI",
      "type": "event"
    },
    {
      "anonymous": false,
      "inputs": [
        {
          "indexed": false,
          "internalType": "address",
          "name": "account",
          "type": "address"
        }
      ],
      "name": "Unpaused",
      "type": "event"
    },
    {
      "inputs": [],
      "name": "ERC712_VERSION",
      "outputs": [
        {
          "internalType": "string",
          "name": "",
          "type": "string"
        }
      ],
      "stateMutability": "view",
      "type": "function"
    },
    {
      "inputs": [
        {
          "internalType": "address",
          "name": "account",
          "type": "address"
        },
        {
          "internalType": "uint256",
          "name": "id",
          "type": "uint256"
        }
      ],
      "name": "balanceOf",
      "outputs": [
        {
          "internalType": "uint256",
          "name": "",
          "type": "uint256"
        }
      ],
      "stateMutability": "view",
      "type": "function"
    },
    {
      "inputs": [
        {
          "internalType": "address[]",
          "name": "accounts",
          "type": "address[]"
        },
        {
          "internalType": "uint256[]",
          "name": "ids",
          "type": "uint256[]"
        }
      ],
      "name": "balanceOfBatch",
      "outputs": [
        {
          "internalType": "uint256[]",
          "name": "",
          "type": "uint256[]"
        }
      ],
      "stateMutability": "view",
      "type": "function"
    },
    {
      "inputs": [
        {
          "internalType": "address",
          "name": "_from",
          "type": "address"
        },
        {
          "internalType": "uint256[]",
          "name": "_ids",
          "type": "uint256[]"
        },
        {
          "internalType": "uint256[]",
          "name": "_quantities",
          "type": "uint256[]"
        }
      ],
      "name": "batchBurn",
      "outputs": [],
      "stateMutability": "nonpayable",
      "type": "function"
    },
    {
      "inputs": [
        {
          "internalType": "address",
          "name": "_to",
          "type": "address"
        },
        {
          "internalType": "uint256[]",
          "name": "_ids",
          "type": "uint256[]"
        },
        {
          "internalType": "uint256[]",
          "name": "_quantities",
          "type": "uint256[]"
        },
        {
          "internalType": "bytes",
          "name": "_data",
          "type": "bytes"
        }
      ],
      "name": "batchMint",
      "outputs": [],
      "stateMutability": "nonpayable",
      "type": "function"
    },
    {
      "inputs": [
        {
          "internalType": "address",
          "name": "_from",
          "type": "address"
        },
        {
          "internalType": "uint256",
          "name": "_id",
          "type": "uint256"
        },
        {
          "internalType": "uint256",
          "name": "_quantity",
          "type": "uint256"
        }
      ],
      "name": "burn",
      "outputs": [],
      "stateMutability": "nonpayable",
      "type": "function"
    },
    {
      "inputs": [
        {
          "internalType": "address",
          "name": "userAddress",
          "type": "address"
        },
        {
          "internalType": "bytes",
          "name": "functionSignature",
          "type": "bytes"
        },
        {
          "internalType": "bytes32",
          "name": "sigR",
          "type": "bytes32"
        },
        {
          "internalType": "bytes32",
          "name": "sigS",
          "type": "bytes32"
        },
        {
          "internalType": "uint8",
          "name": "sigV",
          "type": "uint8"
        }
      ],
      "name": "executeMetaTransaction",
      "outputs": [
        {
          "internalType": "bytes",
          "name": "",
          "type": "bytes"
        }
      ],
      "stateMutability": "payable",
      "type": "function"
    },
    {
      "inputs": [
        {
          "internalType": "uint256",
          "name": "_id",
          "type": "uint256"
        }
      ],
      "name": "exists",
      "outputs": [
        {
          "internalType": "bool",
          "name": "",
          "type": "bool"
        }
      ],
      "stateMutability": "view",
      "type": "function"
    },
    {
      "inputs": [],
      "name": "getChainId",
      "outputs": [
        {
          "internalType": "uint256",
          "name": "",
          "type": "uint256"
        }
      ],
      "stateMutability": "view",
      "type": "function"
    },
    {
      "inputs": [],
      "name": "getDomainSeperator",
      "outputs": [
        {
          "internalType": "bytes32",
          "name": "",
          "type": "bytes32"
        }
      ],
      "stateMutability": "view",
      "type": "function"
    },
    {
      "inputs": [
        {
          "internalType": "address",
          "name": "user",
          "type": "address"
        }
      ],
      "name": "getNonce",
      "outputs": [
        {
          "internalType": "uint256",
          "name": "nonce",
          "type": "uint256"
        }
      ],
      "stateMutability": "view",
      "type": "function"
    },
    {
      "inputs": [
        {
          "internalType": "address",
          "name": "_owner",
          "type": "address"
        },
        {
          "internalType": "address",
          "name": "_operator",
          "type": "address"
        }
      ],
      "name": "isApprovedForAll",
      "outputs": [
        {
          "internalType": "bool",
          "name": "isOperator",
          "type": "bool"
        }
      ],
      "stateMutability": "view",
      "type": "function"
    },
    {
      "inputs": [
        {
          "internalType": "address",
          "name": "_to",
          "type": "address"
        },
        {
          "internalType": "uint256",
          "name": "_id",
          "type": "uint256"
        },
        {
          "internalType": "uint256",
          "name": "_quantity",
          "type": "uint256"
        },
        {
          "internalType": "bytes",
          "name": "_data",
          "type": "bytes"
        }
      ],
      "name": "mint",
      "outputs": [],
      "stateMutability": "nonpayable",
      "type": "function"
    },
    {
      "inputs": [],
      "name": "name",
      "outputs": [
        {
          "internalType": "string",
          "name": "",
          "type": "string"
        }
      ],
      "stateMutability": "view",
      "type": "function"
    },
    {
      "inputs": [],
      "name": "owner",
      "outputs": [
        {
          "internalType": "address",
          "name": "",
          "type": "address"
        }
      ],
      "stateMutability": "view",
      "type": "function"
    },
    {
      "inputs": [],
      "name": "pause",
      "outputs": [],
      "stateMutability": "nonpayable",
      "type": "function"
    },
    {
      "inputs": [],
      "name": "paused",
      "outputs": [
        {
          "internalType": "bool",
          "name": "",
          "type": "bool"
        }
      ],
      "stateMutability": "view",
      "type": "function"
    },
    {
      "inputs": [],
      "name": "proxyRegistryAddress",
      "outputs": [
        {
          "internalType": "address",
          "name": "",
          "type": "address"
        }
      ],
      "stateMutability": "view",
      "type": "function"
    },
    {
      "inputs": [],
      "name": "renounceOwnership",
      "outputs": [],
      "stateMutability": "nonpayable",
      "type": "function"
    },
    {
      "inputs": [
        {
          "internalType": "address",
          "name": "from",
          "type": "address"
        },
        {
          "internalType": "address",
          "name": "to",
          "type": "address"
        },
        {
          "internalType": "uint256[]",
          "name": "ids",
          "type": "uint256[]"
        },
        {
          "internalType": "uint256[]",
          "name": "amounts",
          "type": "uint256[]"
        },
        {
          "internalType": "bytes",
          "name": "data",
          "type": "bytes"
        }
      ],
      "name": "safeBatchTransferFrom",
      "outputs": [],
      "stateMutability": "nonpayable",
      "type": "function"
    },
    {
      "inputs": [
        {
          "internalType": "address",
          "name": "from",
          "type": "address"
        },
        {
          "internalType": "address",
          "name": "to",
          "type": "address"
        },
        {
          "internalType": "uint256",
          "name": "id",
          "type": "uint256"
        },
        {
          "internalType": "uint256",
          "name": "amount",
          "type": "uint256"
        },
        {
          "internalType": "bytes",
          "name": "data",
          "type": "bytes"
        }
      ],
      "name": "safeTransferFrom",
      "outputs": [],
      "stateMutability": "nonpayable",
      "type": "function"
    },
    {
      "inputs": [
        {
          "internalType": "address",
          "name": "operator",
          "type": "address"
        },
        {
          "internalType": "bool",
          "name": "approved",
          "type": "bool"
        }
      ],
      "name": "setApprovalForAll",
      "outputs": [],
      "stateMutability": "nonpayable",
      "type": "function"
    },
    {
      "inputs": [
        {
          "internalType": "bytes4",
          "name": "interfaceId",
          "type": "bytes4"
        }
      ],
      "name": "supportsInterface",
      "outputs": [
        {
          "internalType": "bool",
          "name": "",
          "type": "bool"
        }
      ],
      "stateMutability": "view",
      "type": "function"
    },
    {
      "inputs": [],
      "name": "symbol",
      "outputs": [
        {
          "internalType": "string",
          "name": "",
          "type": "string"
        }
      ],
      "stateMutability": "view",
      "type": "function"
    },
    {
      "inputs": [
        {
          "internalType": "uint256",
          "name": "_id",
          "type": "uint256"
        }
      ],
      "name": "totalSupply",
      "outputs": [
        {
          "internalType": "uint256",
          "name": "",
          "type": "uint256"
        }
      ],
      "stateMutability": "view",
      "type": "function"
    },
    {
      "inputs": [
        {
          "internalType": "address",
          "name": "newOwner",
          "type": "address"
        }
      ],
      "name": "transferOwnership",
      "outputs": [],
      "stateMutability": "nonpayable",
      "type": "function"
    },
    {
      "inputs": [],
      "name": "unpause",
      "outputs": [],
      "stateMutability": "nonpayable",
      "type": "function"
    },
    {
      "inputs": [
        {
          "internalType": "uint256",
          "name": "",
          "type": "uint256"
        }
      ],
      "name": "uri",
      "outputs": [
        {
          "internalType": "string",
          "name": "",
          "type": "string"
        }
      ],
      "stateMutability": "view",
      "type": "function"
    }
  ],
  "bytecode": "0x608060405234801561001057600080fd5b50612bad806100206000396000f3fe6080604052600436106101b65760003560e01c8063715018a6116100ec578063bd85b0391161008a578063f242432a11610064578063f242432a146104ea578063f2fde38b1461050a578063f5298aca1461052a578063f6eb127a1461054a57600080fd5b8063bd85b0391461047b578063cd7c0326146104a9578063e985e9c5146104ca57600080fd5b80638da5cb5b116100c65780638da5cb5b146103f457806395d89b4114610426578063a22cb4651461043b578063b48ab8b61461045b57600080fd5b8063715018a6146103aa578063731133e9146103bf5780638456cb59146103df57600080fd5b80632d0335ab116101595780633f4ba83a116101335780633f4ba83a146103205780634e1273f4146103355780634f558e79146103625780635c975abb1461039257600080fd5b80632d0335ab146102b55780632eb2c2d6146102eb5780633408e4701461030d57600080fd5b80630c53c51c116101955780630c53c51c146102405780630e89341c146102535780630f7e59701461027357806320379ee5146102a057600080fd5b8062fdd58e146101bb57806301ffc9a7146101ee57806306fdde031461021e575b600080fd5b3480156101c757600080fd5b506101db6101d6366004611fe8565b61056a565b6040519081526020015b60405180910390f35b3480156101fa57600080fd5b5061020e610209366004612028565b610606565b60405190151581526020016101e5565b34801561022a57600080fd5b50610233610656565b6040516101e59190612095565b61023361024e36600461215f565b6106e4565b34801561025f57600080fd5b5061023361026e3660046121db565b6108bc565b34801561027f57600080fd5b50610233604051806040016040528060018152602001603160f81b81525081565b3480156102ac57600080fd5b506097546101db565b3480156102c157600080fd5b506101db6102d03660046121f4565b6001600160a01b031660009081526098602052604090205490565b3480156102f757600080fd5b5061030b6103063660046122a4565b610950565b005b34801561031957600080fd5b50466101db565b34801561032c57600080fd5b5061030b610b99565b34801561034157600080fd5b5061035561035036600461234e565b610bcf565b6040516101e59190612454565b34801561036e57600080fd5b5061020e61037d3660046121db565b60009081526101006020526040902054151590565b34801561039e57600080fd5b5060cb5460ff1661020e565b3480156103b657600080fd5b5061030b610cf9565b3480156103cb57600080fd5b5061030b6103da366004612467565b610d0b565b3480156103eb57600080fd5b5061030b610d44565b34801561040057600080fd5b506099546001600160a01b03165b6040516001600160a01b0390911681526020016101e5565b34801561043257600080fd5b50610233610d73565b34801561044757600080fd5b5061030b6104563660046124c8565b610d80565b34801561046757600080fd5b5061030b610476366004612504565b610d96565b34801561048757600080fd5b506101db6104963660046121db565b6000908152610100602052604090205490565b3480156104b557600080fd5b506101015461040e906001600160a01b031681565b3480156104d657600080fd5b5061020e6104e5366004612591565b610dc9565b3480156104f657600080fd5b5061030b6105053660046125c4565b610e1c565b34801561051657600080fd5b5061030b6105253660046121f4565b610fb5565b34801561053657600080fd5b5061030b610545366004612629565b61102e565b34801561055657600080fd5b5061030b61056536600461265c565b611084565b60006001600160a01b0383166105db5760405162461bcd60e51b815260206004820152602b60248201527f455243313135353a2062616c616e636520717565727920666f7220746865207a60448201526a65726f206164647265737360a81b60648201526084015b60405180910390fd5b50600081815260ff602090815260408083206001600160a01b03861684529091529020545b92915050565b60006001600160e01b03198216636cdb3d1360e11b148061063757506001600160e01b031982166303a24d0760e21b145b8061060057506301ffc9a760e01b6001600160e01b0319831614610600565b60fd8054610663906126d0565b80601f016020809104026020016040519081016040528092919081815260200182805461068f906126d0565b80156106dc5780601f106106b1576101008083540402835291602001916106dc565b820191906000526020600020905b8154815290600101906020018083116106bf57829003601f168201915b505050505081565b60408051606081810183526001600160a01b0388166000818152609860209081529085902054845283015291810186905261072287828787876110da565b6107785760405162461bcd60e51b815260206004820152602160248201527f5369676e657220616e64207369676e617475726520646f206e6f74206d6174636044820152600d60fb1b60648201526084016105d2565b6001600160a01b03871660009081526098602052604081208054600192906107a1908490612720565b90915550506040517f5845892132946850460bff5a0083f71031bc5bf9aadcd40f1de79423eac9b10b906107da90899033908a90612733565b60405180910390a1600080306001600160a01b0316888a604051602001610802929190612768565b60408051601f198184030181529082905261081c9161279f565b6000604051808303816000865af19150503d8060008114610859576040519150601f19603f3d011682016040523d82523d6000602084013e61085e565b606091505b5091509150816108b05760405162461bcd60e51b815260206004820152601c60248201527f46756e6374696f6e2063616c6c206e6f74207375636365737366756c0000000060448201526064016105d2565b98975050505050505050565b6060606780546108cb906126d0565b80601f01602080910402602001604051908101604052809291908181526020018280546108f7906126d0565b80156109445780601f1061091957610100808354040283529160200191610944565b820191906000526020600020905b81548152906001019060200180831161092757829003601f168201915b50505050509050919050565b6109586111ca565b84610961611210565b6001600160a01b0316816001600160a01b031614806109875750610987816104e5611210565b6109a35760405162461bcd60e51b81526004016105d2906127bb565b82518451146109c45760405162461bcd60e51b81526004016105d29061280b565b6001600160a01b0385166109ea5760405162461bcd60e51b81526004016105d29061284f565b60006109f4611210565b905060005b8551811015610b2a576000868281518110610a1657610a16612894565b602002602001015190506000868381518110610a3457610a34612894565b602090810291909101810151600084815260ff835260408082206001600160a01b038f168352909352919091205490915081811015610a855760405162461bcd60e51b81526004016105d2906128aa565b610a8f82826128f4565b60ff600085815260200190815260200160002060008d6001600160a01b03166001600160a01b03168152602001908152602001600020819055508160ff600085815260200190815260200160002060008c6001600160a01b03166001600160a01b031681526020019081526020016000206000828254610b0f9190612720565b9250508190555050505080610b2390612907565b90506109f9565b50856001600160a01b0316876001600160a01b0316826001600160a01b03167f4a39dc06d4c0dbc64b70af90fd698a233a518aa5d07e595d983b8c0526c8f7fb8888604051610b7a929190612920565b60405180910390a4610b90818888888888611227565b50505050505050565b610ba9610ba4611210565b611382565b610bc55760405162461bcd60e51b81526004016105d290612945565b610bcd6113b0565b565b60608151835114610c345760405162461bcd60e51b815260206004820152602960248201527f455243313135353a206163636f756e747320616e6420696473206c656e677468604482015268040dad2e6dac2e8c6d60bb1b60648201526084016105d2565b6000835167ffffffffffffffff811115610c5057610c506120a8565b604051908082528060200260200182016040528015610c79578160200160208202803683370190505b50905060005b8451811015610cf157610cc4858281518110610c9d57610c9d612894565b6020026020010151858381518110610cb757610cb7612894565b602002602001015161056a565b828281518110610cd657610cd6612894565b6020908102919091010152610cea81612907565b9050610c7f565b509392505050565b610d01611408565b610bcd6000611481565b610d16610ba4611210565b610d325760405162461bcd60e51b81526004016105d290612945565b610d3e848484846114d3565b50505050565b610d4f610ba4611210565b610d6b5760405162461bcd60e51b81526004016105d290612945565b610bcd6115b7565b60fe8054610663906126d0565b610d92610d8b611210565b83836115f5565b5050565b610da1610ba4611210565b610dbd5760405162461bcd60e51b81526004016105d290612945565b610d3e848484846116d5565b610101546000906001600160a01b0390811690831603610deb57506001610600565b6001600160a01b0380841660009081526066602090815260408083209386168352929052205460ff165b9392505050565b610e246111ca565b84610e2d611210565b6001600160a01b0316816001600160a01b03161480610e535750610e53816104e5611210565b610e6f5760405162461bcd60e51b81526004016105d2906127bb565b6001600160a01b038516610e955760405162461bcd60e51b81526004016105d29061284f565b6000610e9f611210565b9050610ec0818888610eb08961191a565b610eb98961191a565b5050505050565b600085815260ff602090815260408083206001600160a01b038b16845290915290205484811015610f035760405162461bcd60e51b81526004016105d2906128aa565b610f0d85826128f4565b600087815260ff602090815260408083206001600160a01b038d81168552925280832093909355891681529081208054879290610f4b908490612720565b909155505060408051878152602081018790526001600160a01b03808a16928b821692918616917fc3d58168c5ae7397731d063d5bbf3d657854427343f4c083240f7aacaa2d0f62910160405180910390a4610fab828989898989611965565b5050505050505050565b610fbd611408565b6001600160a01b0381166110225760405162461bcd60e51b815260206004820152602660248201527f4f776e61626c653a206e6577206f776e657220697320746865207a65726f206160448201526564647265737360d01b60648201526084016105d2565b61102b81611481565b50565b82611037611210565b6001600160a01b0316816001600160a01b0316148061105d575061105d816104e5611210565b6110795760405162461bcd60e51b81526004016105d2906127bb565b610d3e848484611a20565b8261108d611210565b6001600160a01b0316816001600160a01b031614806110b357506110b3816104e5611210565b6110cf5760405162461bcd60e51b81526004016105d2906127bb565b610d3e848484611c47565b60006001600160a01b0386166111405760405162461bcd60e51b815260206004820152602560248201527f4e61746976654d6574615472616e73616374696f6e3a20494e56414c49445f5360448201526424a3a722a960d91b60648201526084016105d2565b600161115361114e87611e7a565b611ef7565b6040805160008152602081018083529290925260ff851690820152606081018690526080810185905260a0016020604051602081039080840390855afa1580156111a1573d6000803e3d6000fd5b505050602060405103516001600160a01b0316866001600160a01b031614905095945050505050565b60cb5460ff1615610bcd5760405162461bcd60e51b815260206004820152601060248201526f14185d5cd8589b194e881c185d5cd95960821b60448201526064016105d2565b600061121a611f27565b905090565b505050505050565b6001600160a01b0384163b1561121f5760405163bc197c8160e01b81526001600160a01b0385169063bc197c819061126b9089908990889088908890600401612993565b6020604051808303816000875af19250505080156112a6575060408051601f3d908101601f191682019092526112a3918101906129e5565b60015b611352576112b2612a02565b806308c379a0036112eb57506112c6612a1d565b806112d157506112ed565b8060405162461bcd60e51b81526004016105d29190612095565b505b60405162461bcd60e51b815260206004820152603460248201527f455243313135353a207472616e7366657220746f206e6f6e20455243313135356044820152732932b1b2b4bb32b91034b6b83632b6b2b73a32b960611b60648201526084016105d2565b6001600160e01b0319811663bc197c8160e01b14610b905760405162461bcd60e51b81526004016105d290612aa7565b6000816001600160a01b03166113a06099546001600160a01b031690565b6001600160a01b03161492915050565b6113b8611f83565b60cb805460ff191690557f5db9ee0a495bf2e6ff9c91a7834c1ba4fdd244a5e8aa4e537bd38aeae4b073aa6113eb611210565b6040516001600160a01b03909116815260200160405180910390a1565b611410611210565b6001600160a01b031661142b6099546001600160a01b031690565b6001600160a01b031614610bcd5760405162461bcd60e51b815260206004820181905260248201527f4f776e61626c653a2063616c6c6572206973206e6f7420746865206f776e657260448201526064016105d2565b609980546001600160a01b038381166001600160a01b0319831681179093556040519116919082907f8be0079c531659141344cd1fd0a4f28419497f9722a3daafe3b4186f6b6457e090600090a35050565b6114db6111ca565b60006114e5611210565b9050611500816000876114f78861191a565b610eb98861191a565b600084815260ff602090815260408083206001600160a01b038916845290915281208054859290611532908490612720565b90915550506000848152610100602052604081208054859290611556908490612720565b909155505060408051858152602081018590526000916001600160a01b03808916928492918616917fc3d58168c5ae7397731d063d5bbf3d657854427343f4c083240f7aacaa2d0f62910160405180910390a461121f828288888888611965565b6115bf6111ca565b60cb805460ff191660011790557f62e78cea01bee320cd4e420270b5ea74000d11b0c9f74754ebdbfc544b05a2586113eb611210565b816001600160a01b0316836001600160a01b0316036116685760405162461bcd60e51b815260206004820152602960248201527f455243313135353a2073657474696e6720617070726f76616c20737461747573604482015268103337b91039b2b63360b91b60648201526084016105d2565b6001600160a01b03838116600081815260666020908152604080832094871680845294825291829020805460ff191686151590811790915591519182527f17307eab39ab6107e8899845ad3d59bd9653f200f220920489ca2b5937696c31910160405180910390a3505050565b6116dd6111ca565b81518351146117475760405162461bcd60e51b815260206004820152603060248201527f455243313135355472616461626c652362617463684d696e743a20494e56414c60448201526f09288be82a4a482b2a6be988a9c8ea8960831b60648201526084016105d2565b8251600061176585828461175d5761175d612894565b506000919050565b90506000611771611210565b905060005b838110156118b457600087828151811061179257611792612894565b6020026020010151905060008783815181106117b0576117b0612894565b602002602001015190506001600160a01b03851660006001600160a01b0316146118425760405162461bcd60e51b815260206004820152603760248201527f455243313135355472616461626c652362617463684d696e743a204d554c544960448201527f504c455f4f524947494e535f4e4f545f414c4c4f57454400000000000000000060648201526084016105d2565b600082815260ff602090815260408083206001600160a01b038e16845290915281208054839290611874908490612720565b90915550506000828152610100602052604081208054839290611898908490612720565b92505081905550505080806118ac90612907565b915050611776565b50866001600160a01b0316826001600160a01b0316826001600160a01b03167f4a39dc06d4c0dbc64b70af90fd698a233a518aa5d07e595d983b8c0526c8f7fb8989604051611904929190612920565b60405180910390a4610b90818389898989611227565b6040805160018082528183019092526060916000919060208083019080368337019050509050828160008151811061195457611954612894565b602090810291909101015292915050565b6001600160a01b0384163b1561121f5760405163f23a6e6160e01b81526001600160a01b0385169063f23a6e61906119a99089908990889088908890600401612aef565b6020604051808303816000875af19250505080156119e4575060408051601f3d908101601f191682019092526119e1918101906129e5565b60015b6119f0576112b2612a02565b6001600160e01b0319811663f23a6e6160e01b14610b905760405162461bcd60e51b81526004016105d290612aa7565b611a286111ca565b6001600160a01b038316611a8c5760405162461bcd60e51b815260206004820152602560248201527f45524331313535235f6275726e3a204255524e5f46524f4d5f5a45524f5f4144604482015264445245535360d81b60648201526084016105d2565b60008111611ae85760405162461bcd60e51b815260206004820152602360248201527f45524331313535235f6275726e3a20414d4f554e545f4c4553535f5448414e5f6044820152624f4e4560e81b60648201526084016105d2565b6000611af2611210565b9050611b2381856000611b048761191a565b611b0d8761191a565b5050604080516020810190915260009052505050565b600083815260ff602090815260408083206001600160a01b038816845290915290205482811015611ba45760405162461bcd60e51b815260206004820152602560248201527f45524331313535235f6275726e3a20414d4f554e545f455843454544535f42416044820152644c414e434560d81b60648201526084016105d2565b611bae83826128f4565b600085815260ff602090815260408083206001600160a01b038a16845282528083209390935586825261010090529081208054859290611bef9084906128f4565b909155505060408051858152602081018590526000916001600160a01b0388811692908616917fc3d58168c5ae7397731d063d5bbf3d657854427343f4c083240f7aacaa2d0f62910160405180910390a45050505050565b611c4f6111ca565b6001600160a01b038316611ca55760405162461bcd60e51b815260206004820152601f60248201527f455243313135353a204255524e5f46524f4d5f5a45524f5f414444524553530060448201526064016105d2565b8051825114611cc65760405162461bcd60e51b81526004016105d29061280b565b6000611cd0611210565b604080516020810190915260009052905060005b8351811015611e1b576000848281518110611d0157611d01612894565b602002602001015190506000848381518110611d1f57611d1f612894565b602090810291909101810151600084815260ff835260408082206001600160a01b038c168352909352919091205490915081811015611db35760405162461bcd60e51b815260206004820152602a60248201527f45524331313535235f6275726e42617463683a20414d4f554e545f455843454560448201526944535f42414c414e434560b01b60648201526084016105d2565b611dbd82826128f4565b600084815260ff602090815260408083206001600160a01b038d16845282528083209390935585825261010090529081208054849290611dfe9084906128f4565b925050819055505050508080611e1390612907565b915050611ce4565b5060006001600160a01b0316846001600160a01b0316826001600160a01b03167f4a39dc06d4c0dbc64b70af90fd698a233a518aa5d07e595d983b8c0526c8f7fb8686604051611e6c929190612920565b60405180910390a450505050565b6000604051806080016040528060438152602001612b356043913980516020918201208351848301516040808701518051908601209051611eda950193845260208401929092526001600160a01b03166040830152606082015260800190565b604051602081830303815290604052805190602001209050919050565b6000611f0260975490565b60405161190160f01b6020820152602281019190915260428101839052606201611eda565b6000303303611f7d57600080368080601f0160208091040260200160405190810160405280939291908181526020018383808284376000920191909152505050503601516001600160a01b03169150611f809050565b50335b90565b60cb5460ff16610bcd5760405162461bcd60e51b815260206004820152601460248201527314185d5cd8589b194e881b9bdd081c185d5cd95960621b60448201526064016105d2565b80356001600160a01b0381168114611fe357600080fd5b919050565b60008060408385031215611ffb57600080fd5b61200483611fcc565b946020939093013593505050565b6001600160e01b03198116811461102b57600080fd5b60006020828403121561203a57600080fd5b8135610e1581612012565b60005b83811015612060578181015183820152602001612048565b50506000910152565b60008151808452612081816020860160208601612045565b601f01601f19169290920160200192915050565b602081526000610e156020830184612069565b634e487b7160e01b600052604160045260246000fd5b601f8201601f1916810167ffffffffffffffff811182821017156120e4576120e46120a8565b6040525050565b600082601f8301126120fc57600080fd5b813567ffffffffffffffff811115612116576121166120a8565b60405161212d601f8301601f1916602001826120be565b81815284602083860101111561214257600080fd5b816020850160208301376000918101602001919091529392505050565b600080600080600060a0868803121561217757600080fd5b61218086611fcc565b9450602086013567ffffffffffffffff81111561219c57600080fd5b6121a8888289016120eb565b9450506040860135925060608601359150608086013560ff811681146121cd57600080fd5b809150509295509295909350565b6000602082840312156121ed57600080fd5b5035919050565b60006020828403121561220657600080fd5b610e1582611fcc565b600067ffffffffffffffff821115612229576122296120a8565b5060051b60200190565b600082601f83011261224457600080fd5b813560206122518261220f565b60405161225e82826120be565b83815260059390931b850182019282810191508684111561227e57600080fd5b8286015b848110156122995780358352918301918301612282565b509695505050505050565b600080600080600060a086880312156122bc57600080fd5b6122c586611fcc565b94506122d360208701611fcc565b9350604086013567ffffffffffffffff808211156122f057600080fd5b6122fc89838a01612233565b9450606088013591508082111561231257600080fd5b61231e89838a01612233565b9350608088013591508082111561233457600080fd5b50612341888289016120eb565b9150509295509295909350565b6000806040838503121561236157600080fd5b823567ffffffffffffffff8082111561237957600080fd5b818501915085601f83011261238d57600080fd5b8135602061239a8261220f565b6040516123a782826120be565b83815260059390931b85018201928281019150898411156123c757600080fd5b948201945b838610156123ec576123dd86611fcc565b825294820194908201906123cc565b9650508601359250508082111561240257600080fd5b5061240f85828601612233565b9150509250929050565b600081518084526020808501945080840160005b838110156124495781518752958201959082019060010161242d565b509495945050505050565b602081526000610e156020830184612419565b6000806000806080858703121561247d57600080fd5b61248685611fcc565b93506020850135925060408501359150606085013567ffffffffffffffff8111156124b057600080fd5b6124bc878288016120eb565b91505092959194509250565b600080604083850312156124db57600080fd5b6124e483611fcc565b9150602083013580151581146124f957600080fd5b809150509250929050565b6000806000806080858703121561251a57600080fd5b61252385611fcc565b9350602085013567ffffffffffffffff8082111561254057600080fd5b61254c88838901612233565b9450604087013591508082111561256257600080fd5b61256e88838901612233565b9350606087013591508082111561258457600080fd5b506124bc878288016120eb565b600080604083850312156125a457600080fd5b6125ad83611fcc565b91506125bb60208401611fcc565b90509250929050565b600080600080600060a086880312156125dc57600080fd5b6125e586611fcc565b94506125f360208701611fcc565b93506040860135925060608601359150608086013567ffffffffffffffff81111561261d57600080fd5b612341888289016120eb565b60008060006060848603121561263e57600080fd5b61264784611fcc565b95602085013595506040909401359392505050565b60008060006060848603121561267157600080fd5b61267a84611fcc565b9250602084013567ffffffffffffffff8082111561269757600080fd5b6126a387838801612233565b935060408601359150808211156126b957600080fd5b506126c686828701612233565b9150509250925092565b600181811c908216806126e457607f821691505b60208210810361270457634e487b7160e01b600052602260045260246000fd5b50919050565b634e487b7160e01b600052601160045260246000fd5b808201808211156106005761060061270a565b6001600160a01b0384811682528316602082015260606040820181905260009061275f90830184612069565b95945050505050565b6000835161277a818460208801612045565b60609390931b6bffffffffffffffffffffffff19169190920190815260140192915050565b600082516127b1818460208701612045565b9190910192915050565b60208082526030908201527f455243313135355472616461626c65236f6e6c79417070726f7665643a20434160408201526f1313115497d393d517d0531313d5d15160821b606082015260800190565b60208082526024908201527f455243313135353a204944535f414d4f554e54535f4c454e4754485f4d49534d604082015263082a886960e31b606082015260800190565b60208082526025908201527f455243313135353a207472616e7366657220746f20746865207a65726f206164604082015264647265737360d81b606082015260800190565b634e487b7160e01b600052603260045260246000fd5b6020808252602a908201527f455243313135353a20696e73756666696369656e742062616c616e636520666f60408201526939103a3930b739b332b960b11b606082015260800190565b818103818111156106005761060061270a565b6000600182016129195761291961270a565b5060010190565b6040815260006129336040830185612419565b828103602084015261275f8185612419565b6020808252602e908201527f455243313135355472616461626c65236f6e6c794f776e65723a2043414c4c4560408201526d292fa4a9afa727aa2fa7aba722a960911b606082015260800190565b6001600160a01b0386811682528516602082015260a0604082018190526000906129bf90830186612419565b82810360608401526129d18186612419565b905082810360808401526108b08185612069565b6000602082840312156129f757600080fd5b8151610e1581612012565b600060033d1115611f805760046000803e5060005160e01c90565b600060443d1015612a2b5790565b6040516003193d81016004833e81513d67ffffffffffffffff8160248401118184111715612a5b57505050505090565b8285019150815181811115612a735750505050505090565b843d8701016020828501011115612a8d5750505050505090565b612a9c602082860101876120be565b509095945050505050565b60208082526028908201527f455243313135353a204552433131353552656365697665722072656a656374656040820152676420746f6b656e7360c01b606082015260800190565b6001600160a01b03868116825285166020820152604081018490526060810183905260a060808201819052600090612b2990830184612069565b97965050505050505056fe4d6574615472616e73616374696f6e2875696e74323536206e6f6e63652c616464726573732066726f6d2c62797465732066756e6374696f6e5369676e617475726529a26469706673582212209ec583adc9eb98fbc28ce2c8ffbcb2df0c1bd3442d3c44a5f1207ac95f9dd04964736f6c63430008110033",
  "linkReferences": {},
  "deployedLinkReferences": {}
}