{
  "_format": "hh-sol-artifact-1",
  "contractName": "AssetContractShared",
  "sourceName": "contracts/AssetContractShared.sol",
  "abi": [
    {
      "inputs": [
        {
          "internalType": "string",
          "name": "_name",
          "type": "string"
        },
        {
          "internalType": "string",
          "name": "_symbol",
          "type": "string"
        },
        {
          "internalType": "string",
          "name": "_templateURI",
          "type": "string"
        },
        {
          "internalType": "uint96",
          "name": "_royaltyFraction",
          "type": "uint96"
        },
        {
          "internalType": "address",
          "name": "_proxyRegistryAddress",
          "type": "address"
        }
      ],
      "stateMutability": "nonpayable",
      "type": "constructor"
    },
    {
      "anonymous": false,
      "inputs": [
        {
          "indexed": true,
          "internalType": "address",
          "name": "account",
          "type": "address"
        },
        {
          "indexed": true,
          "internalType": "address",
          "name": "operator",
          "type": "address"
        },
        {
          "indexed": false,
          "internalType": "bool",
          "name": "approved",
          "type": "bool"
        }
      ],
      "name": "ApprovalForAll",
      "type": "event"
    },
    {
      "anonymous": false,
      "inputs": [
        {
          "indexed": true,
          "internalType": "uint256",
          "name": "_id",
          "type": "uint256"
        },
        {
          "indexed": true,
          "internalType": "address",
          "name": "_creator",
          "type": "address"
        }
      ],
      "name": "CreatorChanged",
      "type": "event"
    },
    {
      "anonymous": false,
      "inputs": [
        {
          "indexed": false,
          "internalType": "address",
          "name": "userAddress",
          "type": "address"
        },
        {
          "indexed": false,
          "internalType": "address payable",
          "name": "relayerAddress",
          "type": "address"
        },
        {
          "indexed": false,
          "internalType": "bytes",
          "name": "functionSignature",
          "type": "bytes"
        }
      ],
      "name": "MetaTransactionExecuted",
      "type": "event"
    },
    {
      "anonymous": false,
      "inputs": [
        {
          "indexed": true,
          "internalType": "address",
          "name": "previousOwner",
          "type": "address"
        },
        {
          "indexed": true,
          "internalType": "address",
          "name": "newOwner",
          "type": "address"
        }
      ],
      "name": "OwnershipTransferred",
      "type": "event"
    },
    {
      "anonymous": false,
      "inputs": [
        {
          "indexed": false,
          "internalType": "address",
          "name": "account",
          "type": "address"
        }
      ],
      "name": "Paused",
      "type": "event"
    },
    {
      "anonymous": false,
      "inputs": [
        {
          "indexed": false,
          "internalType": "string",
          "name": "_value",
          "type": "string"
        },
        {
          "indexed": true,
          "internalType": "uint256",
          "name": "_id",
          "type": "uint256"
        }
      ],
      "name": "PermanentURI",
      "type": "event"
    },
    {
      "anonymous": false,
      "inputs": [
        {
          "indexed": true,
          "internalType": "address",
          "name": "operator",
          "type": "address"
        },
        {
          "indexed": true,
          "internalType": "address",
          "name": "from",
          "type": "address"
        },
        {
          "indexed": true,
          "internalType": "address",
          "name": "to",
          "type": "address"
        },
        {
          "indexed": false,
          "internalType": "uint256[]",
          "name": "ids",
          "type": "uint256[]"
        },
        {
          "indexed": false,
          "internalType": "uint256[]",
          "name": "values",
          "type": "uint256[]"
        }
      ],
      "name": "TransferBatch",
      "type": "event"
    },
    {
      "anonymous": false,
      "inputs": [
        {
          "indexed": true,
          "internalType": "address",
          "name": "operator",
          "type": "address"
        },
        {
          "indexed": true,
          "internalType": "address",
          "name": "from",
          "type": "address"
        },
        {
          "indexed": true,
          "internalType": "address",
          "name": "to",
          "type": "address"
        },
        {
          "indexed": false,
          "internalType": "uint256",
          "name": "id",
          "type": "uint256"
        },
        {
          "indexed": false,
          "internalType": "uint256",
          "name": "value",
          "type": "uint256"
        }
      ],
      "name": "TransferSingle",
      "type": "event"
    },
    {
      "anonymous": false,
      "inputs": [
        {
          "indexed": false,
          "internalType": "string",
          "name": "value",
          "type": "string"
        },
        {
          "indexed": true,
          "internalType": "uint256",
          "name": "id",
          "type": "uint256"
        }
      ],
      "name": "URI",
      "type": "event"
    },
    {
      "anonymous": false,
      "inputs": [
        {
          "indexed": false,
          "internalType": "address",
          "name": "account",
          "type": "address"
        }
      ],
      "name": "Unpaused",
      "type": "event"
    },
    {
      "inputs": [],
      "name": "ERC712_VERSION",
      "outputs": [
        {
          "internalType": "string",
          "name": "",
          "type": "string"
        }
      ],
      "stateMutability": "view",
      "type": "function"
    },
    {
      "inputs": [
        {
          "internalType": "address",
          "name": "_owner",
          "type": "address"
        },
        {
          "internalType": "uint256",
          "name": "_id",
          "type": "uint256"
        }
      ],
      "name": "balanceOf",
      "outputs": [
        {
          "internalType": "uint256",
          "name": "",
          "type": "uint256"
        }
      ],
      "stateMutability": "view",
      "type": "function"
    },
    {
      "inputs": [
        {
          "internalType": "address[]",
          "name": "accounts",
          "type": "address[]"
        },
        {
          "internalType": "uint256[]",
          "name": "ids",
          "type": "uint256[]"
        }
      ],
      "name": "balanceOfBatch",
      "outputs": [
        {
          "internalType": "uint256[]",
          "name": "",
          "type": "uint256[]"
        }
      ],
      "stateMutability": "view",
      "type": "function"
    },
    {
      "inputs": [
        {
          "internalType": "address",
          "name": "_from",
          "type": "address"
        },
        {
          "internalType": "uint256[]",
          "name": "_ids",
          "type": "uint256[]"
        },
        {
          "internalType": "uint256[]",
          "name": "_quantities",
          "type": "uint256[]"
        }
      ],
      "name": "batchBurn",
      "outputs": [],
      "stateMutability": "nonpayable",
      "type": "function"
    },
    {
      "inputs": [
        {
          "internalType": "address",
          "name": "_to",
          "type": "address"
        },
        {
          "internalType": "uint256[]",
          "name": "_ids",
          "type": "uint256[]"
        },
        {
          "internalType": "uint256[]",
          "name": "_quantities",
          "type": "uint256[]"
        },
        {
          "internalType": "bytes",
          "name": "_data",
          "type": "bytes"
        }
      ],
      "name": "batchMint",
      "outputs": [],
      "stateMutability": "nonpayable",
      "type": "function"
    },
    {
      "inputs": [
        {
          "internalType": "address",
          "name": "_from",
          "type": "address"
        },
        {
          "internalType": "uint256",
          "name": "_id",
          "type": "uint256"
        },
        {
          "internalType": "uint256",
          "name": "_quantity",
          "type": "uint256"
        }
      ],
      "name": "burn",
      "outputs": [],
      "stateMutability": "nonpayable",
      "type": "function"
    },
    {
      "inputs": [
        {
          "internalType": "uint256",
          "name": "_id",
          "type": "uint256"
        }
      ],
      "name": "createMintEvent",
      "outputs": [],
      "stateMutability": "nonpayable",
      "type": "function"
    },
    {
      "inputs": [
        {
          "internalType": "uint256",
          "name": "_id",
          "type": "uint256"
        }
      ],
      "name": "creator",
      "outputs": [
        {
          "internalType": "address",
          "name": "",
          "type": "address"
        }
      ],
      "stateMutability": "view",
      "type": "function"
    },
    {
      "inputs": [],
      "name": "defaultRoyaltyFraction",
      "outputs": [
        {
          "internalType": "uint96",
          "name": "",
          "type": "uint96"
        }
      ],
      "stateMutability": "view",
      "type": "function"
    },
    {
      "inputs": [
        {
          "internalType": "address",
          "name": "userAddress",
          "type": "address"
        },
        {
          "internalType": "bytes",
          "name": "functionSignature",
          "type": "bytes"
        },
        {
          "internalType": "bytes32",
          "name": "sigR",
          "type": "bytes32"
        },
        {
          "internalType": "bytes32",
          "name": "sigS",
          "type": "bytes32"
        },
        {
          "internalType": "uint8",
          "name": "sigV",
          "type": "uint8"
        }
      ],
      "name": "executeMetaTransaction",
      "outputs": [
        {
          "internalType": "bytes",
          "name": "",
          "type": "bytes"
        }
      ],
      "stateMutability": "payable",
      "type": "function"
    },
    {
      "inputs": [
        {
          "internalType": "uint256",
          "name": "_id",
          "type": "uint256"
        }
      ],
      "name": "exists",
      "outputs": [
        {
          "internalType": "bool",
          "name": "",
          "type": "bool"
        }
      ],
      "stateMutability": "view",
      "type": "function"
    },
    {
      "inputs": [],
      "name": "getChainId",
      "outputs": [
        {
          "internalType": "uint256",
          "name": "",
          "type": "uint256"
        }
      ],
      "stateMutability": "view",
      "type": "function"
    },
    {
      "inputs": [],
      "name": "getDomainSeperator",
      "outputs": [
        {
          "internalType": "bytes32",
          "name": "",
          "type": "bytes32"
        }
      ],
      "stateMutability": "view",
      "type": "function"
    },
    {
      "inputs": [
        {
          "internalType": "address",
          "name": "user",
          "type": "address"
        }
      ],
      "name": "getNonce",
      "outputs": [
        {
          "internalType": "uint256",
          "name": "nonce",
          "type": "uint256"
        }
      ],
      "stateMutability": "view",
      "type": "function"
    },
    {
      "inputs": [
        {
          "internalType": "address",
          "name": "_owner",
          "type": "address"
        },
        {
          "internalType": "address",
          "name": "_operator",
          "type": "address"
        }
      ],
      "name": "isApprovedForAll",
      "outputs": [
        {
          "internalType": "bool",
          "name": "isOperator",
          "type": "bool"
        }
      ],
      "stateMutability": "view",
      "type": "function"
    },
    {
      "inputs": [
        {
          "internalType": "uint256",
          "name": "_id",
          "type": "uint256"
        }
      ],
      "name": "isPermanentURI",
      "outputs": [
        {
          "internalType": "bool",
          "name": "",
          "type": "bool"
        }
      ],
      "stateMutability": "view",
      "type": "function"
    },
    {
      "inputs": [
        {
          "internalType": "uint256",
          "name": "_id",
          "type": "uint256"
        }
      ],
      "name": "maxSupply",
      "outputs": [
        {
          "internalType": "uint256",
          "name": "",
          "type": "uint256"
        }
      ],
      "stateMutability": "pure",
      "type": "function"
    },
    {
      "inputs": [
        {
          "internalType": "address",
          "name": "_to",
          "type": "address"
        },
        {
          "internalType": "uint256",
          "name": "_id",
          "type": "uint256"
        },
        {
          "internalType": "uint256",
          "name": "_quantity",
          "type": "uint256"
        },
        {
          "internalType": "bytes",
          "name": "_data",
          "type": "bytes"
        }
      ],
      "name": "mint",
      "outputs": [],
      "stateMutability": "nonpayable",
      "type": "function"
    },
    {
      "inputs": [
        {
          "internalType": "address",
          "name": "_to",
          "type": "address"
        },
        {
          "internalType": "uint256",
          "name": "_id",
          "type": "uint256"
        },
        {
          "internalType": "uint256",
          "name": "_quantity",
          "type": "uint256"
        },
        {
          "internalType": "bytes",
          "name": "_data",
          "type": "bytes"
        },
        {
          "internalType": "uint96",
          "name": "_feeNumerator",
          "type": "uint96"
        }
      ],
      "name": "mintWithRoyalty",
      "outputs": [],
      "stateMutability": "nonpayable",
      "type": "function"
    },
    {
      "inputs": [],
      "name": "name",
      "outputs": [
        {
          "internalType": "string",
          "name": "",
          "type": "string"
        }
      ],
      "stateMutability": "view",
      "type": "function"
    },
    {
      "inputs": [],
      "name": "owner",
      "outputs": [
        {
          "internalType": "address",
          "name": "",
          "type": "address"
        }
      ],
      "stateMutability": "view",
      "type": "function"
    },
    {
      "inputs": [],
      "name": "pause",
      "outputs": [],
      "stateMutability": "nonpayable",
      "type": "function"
    },
    {
      "inputs": [],
      "name": "paused",
      "outputs": [
        {
          "internalType": "bool",
          "name": "",
          "type": "bool"
        }
      ],
      "stateMutability": "view",
      "type": "function"
    },
    {
      "inputs": [],
      "name": "proxyRegistryAddress",
      "outputs": [
        {
          "internalType": "address",
          "name": "",
          "type": "address"
        }
      ],
      "stateMutability": "view",
      "type": "function"
    },
    {
      "inputs": [],
      "name": "renounceOwnership",
      "outputs": [],
      "stateMutability": "nonpayable",
      "type": "function"
    },
    {
      "inputs": [
        {
          "internalType": "uint256",
          "name": "_tokenId",
          "type": "uint256"
        },
        {
          "internalType": "uint256",
          "name": "_salePrice",
          "type": "uint256"
        }
      ],
      "name": "royaltyInfo",
      "outputs": [
        {
          "internalType": "address",
          "name": "",
          "type": "address"
        },
        {
          "internalType": "uint256",
          "name": "",
          "type": "uint256"
        }
      ],
      "stateMutability": "view",
      "type": "function"
    },
    {
      "inputs": [
        {
          "internalType": "address",
          "name": "_from",
          "type": "address"
        },
        {
          "internalType": "address",
          "name": "_to",
          "type": "address"
        },
        {
          "internalType": "uint256[]",
          "name": "_ids",
          "type": "uint256[]"
        },
        {
          "internalType": "uint256[]",
          "name": "_amounts",
          "type": "uint256[]"
        },
        {
          "internalType": "bytes",
          "name": "_data",
          "type": "bytes"
        }
      ],
      "name": "safeBatchTransferFrom",
      "outputs": [],
      "stateMutability": "nonpayable",
      "type": "function"
    },
    {
      "inputs": [
        {
          "internalType": "address",
          "name": "_from",
          "type": "address"
        },
        {
          "internalType": "address",
          "name": "_to",
          "type": "address"
        },
        {
          "internalType": "uint256",
          "name": "_id",
          "type": "uint256"
        },
        {
          "internalType": "uint256",
          "name": "_amount",
          "type": "uint256"
        },
        {
          "internalType": "bytes",
          "name": "_data",
          "type": "bytes"
        }
      ],
      "name": "safeTransferFrom",
      "outputs": [],
      "stateMutability": "nonpayable",
      "type": "function"
    },
    {
      "inputs": [
        {
          "internalType": "address",
          "name": "operator",
          "type": "address"
        },
        {
          "internalType": "bool",
          "name": "approved",
          "type": "bool"
        }
      ],
      "name": "setApprovalForAll",
      "outputs": [],
      "stateMutability": "nonpayable",
      "type": "function"
    },
    {
      "inputs": [
        {
          "internalType": "uint256",
          "name": "_id",
          "type": "uint256"
        },
        {
          "internalType": "address",
          "name": "_to",
          "type": "address"
        }
      ],
      "name": "setCreator",
      "outputs": [],
      "stateMutability": "nonpayable",
      "type": "function"
    },
    {
      "inputs": [
        {
          "internalType": "uint96",
          "name": "_royaltyFraction",
          "type": "uint96"
        }
      ],
      "name": "setDefaultRoyaltyFraciton",
      "outputs": [],
      "stateMutability": "nonpayable",
      "type": "function"
    },
    {
      "inputs": [
        {
          "internalType": "uint256",
          "name": "_id",
          "type": "uint256"
        },
        {
          "internalType": "string",
          "name": "_uri",
          "type": "string"
        }
      ],
      "name": "setPermanentURI",
      "outputs": [],
      "stateMutability": "nonpayable",
      "type": "function"
    },
    {
      "inputs": [
        {
          "internalType": "address",
          "name": "_address",
          "type": "address"
        }
      ],
      "name": "setProxyRegistryAddress",
      "outputs": [],
      "stateMutability": "nonpayable",
      "type": "function"
    },
    {
      "inputs": [
        {
          "internalType": "string",
          "name": "_uri",
          "type": "string"
        }
      ],
      "name": "setTemplateURI",
      "outputs": [],
      "stateMutability": "nonpayable",
      "type": "function"
    },
    {
      "inputs": [
        {
          "internalType": "uint256",
          "name": "_id",
          "type": "uint256"
        },
        {
          "internalType": "string",
          "name": "_uri",
          "type": "string"
        }
      ],
      "name": "setURI",
      "outputs": [],
      "stateMutability": "nonpayable",
      "type": "function"
    },
    {
      "inputs": [],
      "name": "supportsFactoryInterface",
      "outputs": [
        {
          "internalType": "bool",
          "name": "",
          "type": "bool"
        }
      ],
      "stateMutability": "pure",
      "type": "function"
    },
    {
      "inputs": [
        {
          "internalType": "bytes4",
          "name": "interfaceId",
          "type": "bytes4"
        }
      ],
      "name": "supportsInterface",
      "outputs": [
        {
          "internalType": "bool",
          "name": "",
          "type": "bool"
        }
      ],
      "stateMutability": "view",
      "type": "function"
    },
    {
      "inputs": [],
      "name": "symbol",
      "outputs": [
        {
          "internalType": "string",
          "name": "",
          "type": "string"
        }
      ],
      "stateMutability": "view",
      "type": "function"
    },
    {
      "inputs": [],
      "name": "templateURI",
      "outputs": [
        {
          "internalType": "string",
          "name": "",
          "type": "string"
        }
      ],
      "stateMutability": "view",
      "type": "function"
    },
    {
      "inputs": [
        {
          "internalType": "uint256",
          "name": "_id",
          "type": "uint256"
        }
      ],
      "name": "totalSupply",
      "outputs": [
        {
          "internalType": "uint256",
          "name": "",
          "type": "uint256"
        }
      ],
      "stateMutability": "view",
      "type": "function"
    },
    {
      "inputs": [
        {
          "internalType": "address",
          "name": "newOwner",
          "type": "address"
        }
      ],
      "name": "transferOwnership",
      "outputs": [],
      "stateMutability": "nonpayable",
      "type": "function"
    },
    {
      "inputs": [],
      "name": "unpause",
      "outputs": [],
      "stateMutability": "nonpayable",
      "type": "function"
    },
    {
      "inputs": [
        {
          "internalType": "uint256",
          "name": "_id",
          "type": "uint256"
        }
      ],
      "name": "uri",
      "outputs": [
        {
          "internalType": "string",
          "name": "",
          "type": "string"
        }
      ],
      "stateMutability": "view",
      "type": "function"
    }
  ],
  "bytecode": "0x60806040526003805460ff191690553480156200001b57600080fd5b5060405162004641380380620046418339810160408190526200003e916200050d565b84848483838382604051806020016040528060008152506200006681620001ad60201b60201c565b506200007b62000075620001bf565b620001db565b6006805460ff60a01b19169055600762000096848262000672565b506008620000a5838262000672565b50600b80546001600160a01b0319166001600160a01b03831617905560078054620001619190620000d690620005e3565b80601f01602080910402602001604051908101604052809291908181526020018280546200010490620005e3565b8015620001555780601f10620001295761010080835404028352916020019162000155565b820191906000526020600020905b8154815290600101906020018083116200013757829003601f168201915b50506200022d92505050565b505082511590506200017857620001788262000292565b50506001600f555050601380546001600160601b0319166001600160601b039390931692909217909155506200073e92505050565b6002620001bb828262000672565b5050565b6000620001d66200031960201b620018101760201c565b905090565b600680546001600160a01b038381166001600160a01b0319831681179093556040519116919082907f8be0079c531659141344cd1fd0a4f28419497f9722a3daafe3b4186f6b6457e090600090a35050565b60035460ff1615620002775760405162461bcd60e51b815260206004820152600e60248201526d185b1c9958591e481a5b9a5d195960921b60448201526064015b60405180910390fd5b620002828162000377565b506003805460ff19166001179055565b620002a6620002a0620001bf565b62000419565b6200030b5760405162461bcd60e51b815260206004820152602e60248201527f455243313135355472616461626c65236f6e6c794f776e65723a2043414c4c4560448201526d292fa4a9afa727aa2fa7aba722a960911b60648201526084016200026e565b600c620001bb828262000672565b60003033036200037157600080368080601f0160208091040260200160405190810160405280939291908181526020018383808284376000920191909152505050503601516001600160a01b03169150620003749050565b50335b90565b6040518060800160405280604f8152602001620045f2604f9139805160209182012082519282019290922060408051808201825260018152603160f81b90840152805180840194909452838101919091527fc89efdaa54c0f20c7adf612882df0950f5a951637e0307cdcb4c672f298b8bc660608401523060808401524660a0808501919091528151808503909101815260c090930190528151910120600455565b60006001600160a01b038216620004386006546001600160a01b031690565b6001600160a01b03161492915050565b634e487b7160e01b600052604160045260246000fd5b600082601f8301126200047057600080fd5b81516001600160401b03808211156200048d576200048d62000448565b604051601f8301601f19908116603f01168101908282118183101715620004b857620004b862000448565b81604052838152602092508683858801011115620004d557600080fd5b600091505b83821015620004f95785820183015181830184015290820190620004da565b600093810190920192909252949350505050565b600080600080600060a086880312156200052657600080fd5b85516001600160401b03808211156200053e57600080fd5b6200054c89838a016200045e565b965060208801519150808211156200056357600080fd5b6200057189838a016200045e565b955060408801519150808211156200058857600080fd5b5062000597888289016200045e565b606088015190945090506001600160601b0381168114620005b757600080fd5b60808701519092506001600160a01b0381168114620005d557600080fd5b809150509295509295909350565b600181811c90821680620005f857607f821691505b6020821081036200061957634e487b7160e01b600052602260045260246000fd5b50919050565b601f8211156200066d57600081815260208120601f850160051c81016020861015620006485750805b601f850160051c820191505b81811015620006695782815560010162000654565b5050505b505050565b81516001600160401b038111156200068e576200068e62000448565b620006a6816200069f8454620005e3565b846200061f565b602080601f831160018114620006de5760008415620006c55750858301515b600019600386901b1c1916600185901b17855562000669565b600085815260208120601f198616915b828110156200070f57888601518255948401946001909101908401620006ee565b50858210156200072e5787850151600019600388901b60f8161c191681555b5050505050600190811b01905550565b613ea4806200074e6000396000f3fe60806040526004361061025b5760003560e01c8063701052b811610144578063bd85b039116100b6578063e985e9c51161007a578063e985e9c514610772578063f242432a14610792578063f2fde38b146107b2578063f5298aca146107d2578063f6eb127a146107f2578063f923e8c31461081257600080fd5b8063bd85b039146106d1578063c06b91c3146106fe578063c311c5231461071e578063cd7c032614610732578063d26ea6c01461075257600080fd5b8063869f759411610108578063869f75941461061e5780638da5cb5b1461063e57806391686f531461065c57806395d89b411461067c578063a22cb46514610691578063b48ab8b6146106b157600080fd5b8063701052b814610594578063715018a6146105b4578063731133e9146105c95780638456cb59146105e9578063862440e2146105fe57600080fd5b80632a55205a116101dd5780633f4ba83a116101a15780633f4ba83a146104945780634e1273f4146104a95780634f558e79146104d6578063510b5158146105055780635c975abb1461053d5780636d0042b81461055c57600080fd5b80632a55205a146103cc5780632d0335ab1461040b5780632eb2c2d6146104415780633408e470146104615780633588ad7c1461047457600080fd5b80630e89341c116102245780630e89341c1461031a5780630f7e59701461033a5780631e7d9dbb1461036757806320379ee51461039757806324d88785146103ac57600080fd5b8062fdd58e1461026057806301ffc9a71461029357806306fdde03146102c357806307291f8f146102e55780630c53c51c14610307575b600080fd5b34801561026c57600080fd5b5061028061027b366004612f87565b610827565b6040519081526020015b60405180910390f35b34801561029f57600080fd5b506102b36102ae366004612fc7565b610867565b604051901515815260200161028a565b3480156102cf57600080fd5b506102d86108c2565b60405161028a9190613034565b3480156102f157600080fd5b50610305610300366004613047565b610950565b005b6102d8610315366004613115565b6109a9565b34801561032657600080fd5b506102d8610335366004613047565b610b86565b34801561034657600080fd5b506102d8604051806040016040528060018152602001603160f81b81525081565b34801561037357600080fd5b506102b3610382366004613047565b6000908152600e602052604090205460ff1690565b3480156103a357600080fd5b50600454610280565b3480156103b857600080fd5b506103056103c7366004613190565b610cc6565b3480156103d857600080fd5b506103ec6103e73660046131c4565b610d02565b604080516001600160a01b03909316835260208301919091520161028a565b34801561041757600080fd5b506102806104263660046131e6565b6001600160a01b031660009081526005602052604090205490565b34801561044d57600080fd5b5061030561045c366004613295565b610dae565b34801561046d57600080fd5b5046610280565b34801561048057600080fd5b5061030561048f36600461333e565b610e8a565b3480156104a057600080fd5b50610305610f31565b3480156104b557600080fd5b506104c96104c4366004613384565b610f62565b60405161028a919061347f565b3480156104e257600080fd5b506102b36104f1366004613047565b6000908152600a6020526040902054151590565b34801561051157600080fd5b50610525610520366004613047565b61108b565b6040516001600160a01b03909116815260200161028a565b34801561054957600080fd5b50600654600160a01b900460ff166102b3565b34801561056857600080fd5b5060135461057c906001600160601b031681565b6040516001600160601b03909116815260200161028a565b3480156105a057600080fd5b506103056105af3660046134a9565b6110d2565b3480156105c057600080fd5b50610305611104565b3480156105d557600080fd5b506103056105e436600461351a565b611116565b3480156105f557600080fd5b506103056111ea565b34801561060a57600080fd5b5061030561061936600461333e565b611219565b34801561062a57600080fd5b50610280610639366004613047565b6112a5565b34801561064a57600080fd5b506006546001600160a01b0316610525565b34801561066857600080fd5b5061030561067736600461357a565b6112b0565b34801561068857600080fd5b506102d86113a2565b34801561069d57600080fd5b506103056106ac3660046135a6565b6113af565b3480156106bd57600080fd5b506103056106cc3660046135e2565b6113c1565b3480156106dd57600080fd5b506102806106ec366004613047565b6000908152600a602052604090205490565b34801561070a57600080fd5b5061030561071936600461366e565b6114dc565b34801561072a57600080fd5b5060016102b3565b34801561073e57600080fd5b50600b54610525906001600160a01b031681565b34801561075e57600080fd5b5061030561076d3660046131e6565b61152a565b34801561077e57600080fd5b506102b361078d366004613689565b611573565b34801561079e57600080fd5b506103056107ad3660046136b3565b6115c5565b3480156107be57600080fd5b506103056107cd3660046131e6565b611615565b3480156107de57600080fd5b506103056107ed366004613717565b61168e565b3480156107fe57600080fd5b5061030561080d36600461374a565b611725565b34801561081e57600080fd5b506102d8611803565b600080610834848461186c565b90506108408385611900565b61084a578061085d565b61085383611944565b61085d90826137d3565b9150505b92915050565b60006001600160e01b03198216636cdb3d1360e11b148061089857506001600160e01b031982166303a24d0760e21b145b806108b357506001600160e01b0319821663152a902d60e11b145b80610861575061086182611966565b600780546108cf906137e6565b80601f01602080910402602001604051908101604052809291908181526020018280546108fb906137e6565b80156109485780601f1061091d57610100808354040283529160200191610948565b820191906000526020600020905b81548152906001019060200180831161092b57829003601f168201915b505050505081565b6109598161198b565b6001600160a01b0316600061096c6119a5565b6001600160a01b0316600080516020613e0c8339815191528461098e866119b4565b6040805192835260208301919091520160405180910390a450565b60408051606081810183526001600160a01b038816600081815260056020908152908590205484528301529181018690526109e787828787876119cf565b610a425760405162461bcd60e51b815260206004820152602160248201527f5369676e657220616e64207369676e617475726520646f206e6f74206d6174636044820152600d60fb1b60648201526084015b60405180910390fd5b6001600160a01b0387166000908152600560205260408120805460019290610a6b9084906137d3565b90915550506040517f5845892132946850460bff5a0083f71031bc5bf9aadcd40f1de79423eac9b10b90610aa490899033908a90613820565b60405180910390a1600080306001600160a01b0316888a604051602001610acc929190613855565b60408051601f1981840301815290829052610ae69161388c565b6000604051808303816000865af19150503d8060008114610b23576040519150601f19603f3d011682016040523d82523d6000602084013e610b28565b606091505b509150915081610b7a5760405162461bcd60e51b815260206004820152601c60248201527f46756e6374696f6e2063616c6c206e6f74207375636365737366756c000000006044820152606401610a39565b98975050505050505050565b6000818152600d6020526040812080546060929190610ba4906137e6565b80601f0160208091040260200160405190810160405280929190818152602001828054610bd0906137e6565b8015610c1d5780601f10610bf257610100808354040283529160200191610c1d565b820191906000526020600020905b815481529060010190602001808311610c0057829003601f168201915b505050505090508051600014610c335792915050565b600c8054610c40906137e6565b80601f0160208091040260200160405190810160405280929190818152602001828054610c6c906137e6565b8015610cb95780601f10610c8e57610100808354040283529160200191610cb9565b820191906000526020600020905b815481529060010190602001808311610c9c57829003601f168201915b5050505050915050919050565b610cd6610cd16119a5565b611abf565b610cf25760405162461bcd60e51b8152600401610a39906138a8565b600c610cfe828261393c565b5050565b60008281526011602090815260408083208151808301909252546001600160a01b038116808352600160a01b9091046001600160601b0316928201929092528291610d775750604080518082019091526010546001600160a01b0381168252600160a01b90046001600160601b031660208201525b602081015160009061271090610d96906001600160601b0316876139fb565b610da09190613a12565b915196919550909350505050565b8151835114610e255760405162461bcd60e51b815260206004820152603a60248201527f4173736574436f6e7472616374237361666542617463685472616e736665724660448201527f726f6d3a20494e56414c49445f4152524159535f4c454e4754480000000000006064820152608401610a39565b60005b8351811015610e8257610e708686868481518110610e4857610e48613a34565b6020026020010151868581518110610e6257610e62613a34565b6020026020010151866115c5565b80610e7a81613a4a565b915050610e28565b505050505050565b81610e9c81610e976119a5565b611900565b610eb85760405162461bcd60e51b8152600401610a3990613a63565b6000838152600e6020526040902054839060ff1615610ee95760405162461bcd60e51b8152600401610a3990613ab8565b83610f04610ef56119a5565b82610eff846119b4565b611aed565b610f205760405162461bcd60e51b8152600401610a3990613b15565b610f2a8585611b04565b5050505050565b610f3c610cd16119a5565b610f585760405162461bcd60e51b8152600401610a39906138a8565b610f60611bca565b565b60608151835114610fc75760405162461bcd60e51b815260206004820152602960248201527f455243313135353a206163636f756e747320616e6420696473206c656e677468604482015268040dad2e6dac2e8c6d60bb1b6064820152608401610a39565b600083516001600160401b03811115610fe257610fe2613060565b60405190808252806020026020018201604052801561100b578160200160208202803683370190505b50905060005b84518110156110835761105685828151811061102f5761102f613a34565b602002602001015185838151811061104957611049613a34565b6020026020010151610827565b82828151811061106857611068613a34565b602090810291909101015261107c81613a4a565b9050611011565b509392505050565b6000818152601260205260408120546001600160a01b0316156110c457506000908152601260205260409020546001600160a01b031690565b6108618261198b565b919050565b6000848152600a60205260409020546110f8576110f8846110f28661198b565b83611c25565b610f2a85858585611116565b61110c611cf0565b610f606000611d69565b6002600f54036111685760405162461bcd60e51b815260206004820152601f60248201527f5265656e7472616e637947756172643a207265656e7472616e742063616c6c006044820152606401610a39565b6002600f558261117a81610e976119a5565b6111965760405162461bcd60e51b8152600401610a3990613a63565b60006111a3856001610d02565b5090506001600160a01b0381166111d1576111d16111c08661198b565b6013546001600160601b0316611dbb565b6111dd86868686611e75565b50506001600f5550505050565b6111f5610cd16119a5565b6112115760405162461bcd60e51b8152600401610a39906138a8565b610f60611e9b565b8161122681610e976119a5565b6112425760405162461bcd60e51b8152600401610a3990613a63565b6000838152600e6020526040902054839060ff16156112735760405162461bcd60e51b8152600401610a3990613ab8565b8361127f610ef56119a5565b61129b5760405162461bcd60e51b8152600401610a3990613b15565b610f2a8585611edf565b6000610861826119b4565b816112bd81610e976119a5565b6112d95760405162461bcd60e51b8152600401610a3990613a63565b6001600160a01b0382166113485760405162461bcd60e51b815260206004820152603060248201527f4173736574436f6e74726163745368617265642373657443726561746f723a2060448201526f24a72b20a624a22fa0a2222922a9a99760811b6064820152608401610a39565b60008381526012602052604080822080546001600160a01b0319166001600160a01b0386169081179091559051909185917f39071c63e44267bfdefc7b625c0df99d3ce2e6ff98d9f5e9e8a7ab43cdf5000d9190a3505050565b600880546108cf906137e6565b610cfe6113ba6119a5565b8383611f28565b6002600f54036114135760405162461bcd60e51b815260206004820152601f60248201527f5265656e7472616e637947756172643a207265656e7472616e742063616c6c006044820152606401610a39565b6002600f5560005b83518110156114c45761144984828151811061143957611439613a34565b6020026020010151610e976119a5565b6114b25760405162461bcd60e51b815260206004820152603460248201527f4173736574436f6e7472616374536861726564235f62617463684d696e743a2060448201527313d3931657d0d491505513d497d0531313d5d15160621b6064820152608401610a39565b806114bc81613a4a565b91505061141b565b506114d184848484612008565b50506001600f555050565b6114e7610cd16119a5565b6115035760405162461bcd60e51b8152600401610a39906138a8565b601380546bffffffffffffffffffffffff19166001600160601b0392909216919091179055565b611535610cd16119a5565b6115515760405162461bcd60e51b8152600401610a39906138a8565b600b80546001600160a01b0319166001600160a01b0392909216919091179055565b600b546000906001600160a01b039081169083160361159457506001610861565b6001600160a01b0380841660009081526001602090815260408083209386168352929052205460ff165b9392505050565b60006115d1868561186c565b905082811015611608576115f085856115ea8487613b80565b85611116565b801561160357611603868686848661205f565b610e82565b610e82868686868661205f565b61161d611cf0565b6001600160a01b0381166116825760405162461bcd60e51b815260206004820152602660248201527f4f776e61626c653a206e6577206f776e657220697320746865207a65726f206160448201526564647265737360d01b6064820152608401610a39565b61168b81611d69565b50565b82828261169c838383611aed565b61171a5760405162461bcd60e51b815260206004820152604360248201527f4173736574436f6e7472616374236f6e6c79546f6b656e416d6f756e744f776e60448201527f65643a204f4e4c595f544f4b454e5f414d4f554e545f4f574e45445f414c4c4f60648201526215d15160ea1b608482015260a401610a39565b610e82868686612260565b60005b82518110156117f25761176e8484838151811061174757611747613a34565b602002602001015184848151811061176157611761613a34565b6020026020010151611aed565b6117e05760405162461bcd60e51b815260206004820152603860248201527f4173736574436f6e74726163742362617463684275726e3a204f4e4c595f544f60448201527f4b454e5f414d4f554e545f4f574e45445f414c4c4f57454400000000000000006064820152608401610a39565b806117ea81613a4a565b915050611728565b506117fe8383836122b6565b505050565b600c80546108cf906137e6565b600030330361186657600080368080601f0160208091040260200160405190810160405280939291908181526020018383808284376000920191909152505050503601516001600160a01b031691506118699050565b50335b90565b60006001600160a01b0383166118d85760405162461bcd60e51b815260206004820152602b60248201527f455243313135353a2062616c616e636520717565727920666f7220746865207a60448201526a65726f206164647265737360a81b6064820152608401610a39565b5060009081526009602090815260408083206001600160a01b03949094168352929052205490565b60008061190c8461108b565b9050826001600160a01b0316816001600160a01b0316148061085d5750600b546001600160a01b039081169084161491505092915050565b6000818152600a602052604081205461195c836112a5565b6108619190613b80565b60006001600160e01b0319821663152a902d60e11b148061086157506108618261230c565b600061199960286038613b93565b60ff169190911c919050565b60006119af611810565b905090565b60006119c7600165010000000000613b80565b909116919050565b60006001600160a01b038616611a355760405162461bcd60e51b815260206004820152602560248201527f4e61746976654d6574615472616e73616374696f6e3a20494e56414c49445f5360448201526424a3a722a960d91b6064820152608401610a39565b6001611a48611a438761235c565b6123d9565b6040805160008152602081018083529290925260ff851690820152606081018690526080810185905260a0016020604051602081039080840390855afa158015611a96573d6000803e3d6000fd5b505050602060405103516001600160a01b0316866001600160a01b031614905095945050505050565b6000816001600160a01b0316611add6006546001600160a01b031690565b6001600160a01b03161492915050565b600081611afa8585610827565b1015949350505050565b6000815111611b6b5760405162461bcd60e51b815260206004820152602d60248201527f4173736574436f6e7472616374237365745065726d616e656e745552493a204f60448201526c4e4c595f56414c49445f55524960981b6064820152608401610a39565b6000828152600e60205260409020805460ff19166001179055611b8e8282611edf565b817fa109ba539900bf1b633f956d63c96fc89b814c7287f7aa50a9216d0b5565720782604051611bbe9190613034565b60405180910390a25050565b611bd2612409565b6006805460ff60a01b191690557f5db9ee0a495bf2e6ff9c91a7834c1ba4fdd244a5e8aa4e537bd38aeae4b073aa611c086119a5565b6040516001600160a01b03909116815260200160405180910390a1565b6127106001600160601b0382161115611c505760405162461bcd60e51b8152600401610a3990613bac565b6001600160a01b038216611ca65760405162461bcd60e51b815260206004820152601b60248201527f455243323938313a20496e76616c696420706172616d657465727300000000006044820152606401610a39565b6040805180820182526001600160a01b0393841681526001600160601b0392831660208083019182526000968752601190529190942093519051909116600160a01b029116179055565b611cf86119a5565b6001600160a01b0316611d136006546001600160a01b031690565b6001600160a01b031614610f605760405162461bcd60e51b815260206004820181905260248201527f4f776e61626c653a2063616c6c6572206973206e6f7420746865206f776e65726044820152606401610a39565b600680546001600160a01b038381166001600160a01b0319831681179093556040519116919082907f8be0079c531659141344cd1fd0a4f28419497f9722a3daafe3b4186f6b6457e090600090a35050565b6127106001600160601b0382161115611de65760405162461bcd60e51b8152600401610a3990613bac565b6001600160a01b038216611e3c5760405162461bcd60e51b815260206004820152601960248201527f455243323938313a20696e76616c6964207265636569766572000000000000006044820152606401610a39565b604080518082019091526001600160a01b039092168083526001600160601b039091166020909201829052600160a01b90910217601055565b611e8184848484612459565b600181511115611e9557611e958382611219565b50505050565b611ea3612554565b6006805460ff60a01b1916600160a01b1790557f62e78cea01bee320cd4e420270b5ea74000d11b0c9f74754ebdbfc544b05a258611c086119a5565b6000828152600d60205260409020611ef7828261393c565b50817f6bb7ff708619ba0610cba295a58592e0451dee2622938c8755667688daf3529b82604051611bbe9190613034565b816001600160a01b0316836001600160a01b031603611f9b5760405162461bcd60e51b815260206004820152602960248201527f455243313135353a2073657474696e6720617070726f76616c20737461747573604482015268103337b91039b2b63360b91b6064820152608401610a39565b6001600160a01b03838116600081815260016020908152604080832094871680845294825291829020805460ff191686151590811790915591519182527f17307eab39ab6107e8899845ad3d59bd9653f200f220920489ca2b5937696c31910160405180910390a3505050565b612014848484846125a1565b600181511115611e955760005b8351811015610f2a5761204d84828151811061203f5761203f613a34565b602002602001015183611219565b8061205781613a4a565b915050612021565b612067612554565b846120706119a5565b6001600160a01b0316816001600160a01b0316148061209657506120968161078d6119a5565b6120b25760405162461bcd60e51b8152600401610a3990613bf6565b6001600160a01b0385166121165760405162461bcd60e51b815260206004820152602560248201527f455243313135353a207472616e7366657220746f20746865207a65726f206164604482015264647265737360d81b6064820152608401610a39565b60006121206119a5565b905061213a81888861213189612804565b610f2a89612804565b60008581526009602090815260408083206001600160a01b038b168452909152902054848110156121c05760405162461bcd60e51b815260206004820152602a60248201527f455243313135353a20696e73756666696369656e742062616c616e636520666f60448201526939103a3930b739b332b960b11b6064820152608401610a39565b6121ca8582613b80565b60008781526009602090815260408083206001600160a01b038d811685529252808320939093558916815290812080548792906122089084906137d3565b909155505060408051878152602081018790526001600160a01b03808a16928b82169291861691600080516020613e0c833981519152910160405180910390a461225682898989898961284f565b5050505050505050565b826122696119a5565b6001600160a01b0316816001600160a01b0316148061228f575061228f8161078d6119a5565b6122ab5760405162461bcd60e51b8152600401610a3990613bf6565b611e958484846129aa565b826122bf6119a5565b6001600160a01b0316816001600160a01b031614806122e557506122e58161078d6119a5565b6123015760405162461bcd60e51b8152600401610a3990613bf6565b611e95848484612bbe565b60006001600160e01b03198216636cdb3d1360e11b148061233d57506001600160e01b031982166303a24d0760e21b145b8061086157506301ffc9a760e01b6001600160e01b0319831614610861565b6000604051806080016040528060438152602001613e2c60439139805160209182012083518483015160408087015180519086012090516123bc950193845260208401929092526001600160a01b03166040830152606082015260800190565b604051602081830303815290604052805190602001209050919050565b60006123e460045490565b60405161190160f01b60208201526022810191909152604281018390526062016123bc565b600654600160a01b900460ff16610f605760405162461bcd60e51b815260206004820152601460248201527314185d5cd8589b194e881b9bdd081c185d5cd95960621b6044820152606401610a39565b612461612554565b600061246b6119a5565b90506124868160008761247d88612804565b610f2a88612804565b6124908484612e2c565b60008481526009602090815260408083206001600160a01b0389168452909152812080548592906124c29084906137d3565b90915550506000848152600a6020526040812080548592906124e59084906137d3565b90915550600090506124f685612eaa565b9050856001600160a01b0316816001600160a01b0316836001600160a01b0316600080516020613e0c833981519152888860405161253e929190918252602082015260400190565b60405180910390a4610e8282828888888861284f565b600654600160a01b900460ff1615610f605760405162461bcd60e51b815260206004820152601060248201526f14185d5cd8589b194e881c185d5cd95960821b6044820152606401610a39565b6125a9612554565b81518351146126135760405162461bcd60e51b815260206004820152603060248201527f455243313135355472616461626c652362617463684d696e743a20494e56414c60448201526f09288be82a4a482b2a6be988a9c8ea8960831b6064820152608401610a39565b8251600061263685828461262957612629613a34565b6020026020010151612eaa565b905060006126426119a5565b905060005b8381101561279557600087828151811061266357612663613a34565b60200260200101519050600087838151811061268157612681613a34565b602002602001015190506126958282612e2c565b846001600160a01b03166126a883612eaa565b6001600160a01b0316146127245760405162461bcd60e51b815260206004820152603760248201527f455243313135355472616461626c652362617463684d696e743a204d554c544960448201527f504c455f4f524947494e535f4e4f545f414c4c4f5745440000000000000000006064820152608401610a39565b60008281526009602090815260408083206001600160a01b038e168452909152812080548392906127569084906137d3565b90915550506000828152600a6020526040812080548392906127799084906137d3565b925050819055505050808061278d90613a4a565b915050612647565b50866001600160a01b0316826001600160a01b0316826001600160a01b03167f4a39dc06d4c0dbc64b70af90fd698a233a518aa5d07e595d983b8c0526c8f7fb89896040516127e5929190613c46565b60405180910390a46127fb818389898989612eb5565b50505050505050565b6040805160018082528183019092526060916000919060208083019080368337019050509050828160008151811061283e5761283e613a34565b602090810291909101015292915050565b6001600160a01b0384163b15610e825760405163f23a6e6160e01b81526001600160a01b0385169063f23a6e61906128939089908990889088908890600401613c6b565b6020604051808303816000875af19250505080156128ce575060408051601f3d908101601f191682019092526128cb91810190613cb0565b60015b61297a576128da613ccd565b806308c379a00361291357506128ee613ce8565b806128f95750612915565b8060405162461bcd60e51b8152600401610a399190613034565b505b60405162461bcd60e51b815260206004820152603460248201527f455243313135353a207472616e7366657220746f206e6f6e20455243313135356044820152732932b1b2b4bb32b91034b6b83632b6b2b73a32b960611b6064820152608401610a39565b6001600160e01b0319811663f23a6e6160e01b146127fb5760405162461bcd60e51b8152600401610a3990613d71565b6129b2612554565b6001600160a01b038316612a165760405162461bcd60e51b815260206004820152602560248201527f45524331313535235f6275726e3a204255524e5f46524f4d5f5a45524f5f4144604482015264445245535360d81b6064820152608401610a39565b60008111612a725760405162461bcd60e51b815260206004820152602360248201527f45524331313535235f6275726e3a20414d4f554e545f4c4553535f5448414e5f6044820152624f4e4560e81b6064820152608401610a39565b6000612a7c6119a5565b9050612aad81856000612a8e87612804565b612a9787612804565b5050604080516020810190915260009052505050565b60008381526009602090815260408083206001600160a01b038816845290915290205482811015612b2e5760405162461bcd60e51b815260206004820152602560248201527f45524331313535235f6275726e3a20414d4f554e545f455843454544535f42416044820152644c414e434560d81b6064820152608401610a39565b612b388382613b80565b60008581526009602090815260408083206001600160a01b038a168452825280832093909355868252600a90529081208054859290612b78908490613b80565b909155505060408051858152602081018590526000916001600160a01b038881169290861691600080516020613e0c833981519152910160405180910390a45050505050565b612bc6612554565b6001600160a01b038316612c1c5760405162461bcd60e51b815260206004820152601f60248201527f455243313135353a204255524e5f46524f4d5f5a45524f5f41444452455353006044820152606401610a39565b8051825114612c795760405162461bcd60e51b8152602060048201526024808201527f455243313135353a204944535f414d4f554e54535f4c454e4754485f4d49534d604482015263082a886960e31b6064820152608401610a39565b6000612c836119a5565b604080516020810190915260009052905060005b8351811015612dcd576000848281518110612cb457612cb4613a34565b602002602001015190506000848381518110612cd257612cd2613a34565b60209081029190910181015160008481526009835260408082206001600160a01b038c168352909352919091205490915081811015612d665760405162461bcd60e51b815260206004820152602a60248201527f45524331313535235f6275726e42617463683a20414d4f554e545f455843454560448201526944535f42414c414e434560b01b6064820152608401610a39565b612d708282613b80565b60008481526009602090815260408083206001600160a01b038d168452825280832093909355858252600a90529081208054849290612db0908490613b80565b925050819055505050508080612dc590613a4a565b915050612c97565b5060006001600160a01b0316846001600160a01b0316826001600160a01b03167f4a39dc06d4c0dbc64b70af90fd698a233a518aa5d07e595d983b8c0526c8f7fb8686604051612e1e929190613c46565b60405180910390a450505050565b612e3582611944565b811115610cfe5760405162461bcd60e51b815260206004820152603c60248201527f4173736574436f6e7472616374235f6265666f72654d696e743a205155414e5460448201527f4954595f455843454544535f544f4b454e5f535550504c595f434150000000006064820152608401610a39565b60006108618261198b565b6001600160a01b0384163b15610e825760405163bc197c8160e01b81526001600160a01b0385169063bc197c8190612ef99089908990889088908890600401613db9565b6020604051808303816000875af1925050508015612f34575060408051601f3d908101601f19168201909252612f3191810190613cb0565b60015b612f40576128da613ccd565b6001600160e01b0319811663bc197c8160e01b146127fb5760405162461bcd60e51b8152600401610a3990613d71565b80356001600160a01b03811681146110cd57600080fd5b60008060408385031215612f9a57600080fd5b612fa383612f70565b946020939093013593505050565b6001600160e01b03198116811461168b57600080fd5b600060208284031215612fd957600080fd5b81356115be81612fb1565b60005b83811015612fff578181015183820152602001612fe7565b50506000910152565b60008151808452613020816020860160208601612fe4565b601f01601f19169290920160200192915050565b6020815260006115be6020830184613008565b60006020828403121561305957600080fd5b5035919050565b634e487b7160e01b600052604160045260246000fd5b601f8201601f191681016001600160401b038111828210171561309b5761309b613060565b6040525050565b600082601f8301126130b357600080fd5b81356001600160401b038111156130cc576130cc613060565b6040516130e3601f8301601f191660200182613076565b8181528460208386010111156130f857600080fd5b816020850160208301376000918101602001919091529392505050565b600080600080600060a0868803121561312d57600080fd5b61313686612f70565b945060208601356001600160401b0381111561315157600080fd5b61315d888289016130a2565b9450506040860135925060608601359150608086013560ff8116811461318257600080fd5b809150509295509295909350565b6000602082840312156131a257600080fd5b81356001600160401b038111156131b857600080fd5b61085d848285016130a2565b600080604083850312156131d757600080fd5b50508035926020909101359150565b6000602082840312156131f857600080fd5b6115be82612f70565b60006001600160401b0382111561321a5761321a613060565b5060051b60200190565b600082601f83011261323557600080fd5b8135602061324282613201565b60405161324f8282613076565b83815260059390931b850182019282810191508684111561326f57600080fd5b8286015b8481101561328a5780358352918301918301613273565b509695505050505050565b600080600080600060a086880312156132ad57600080fd5b6132b686612f70565b94506132c460208701612f70565b935060408601356001600160401b03808211156132e057600080fd5b6132ec89838a01613224565b9450606088013591508082111561330257600080fd5b61330e89838a01613224565b9350608088013591508082111561332457600080fd5b50613331888289016130a2565b9150509295509295909350565b6000806040838503121561335157600080fd5b8235915060208301356001600160401b0381111561336e57600080fd5b61337a858286016130a2565b9150509250929050565b6000806040838503121561339757600080fd5b82356001600160401b03808211156133ae57600080fd5b818501915085601f8301126133c257600080fd5b813560206133cf82613201565b6040516133dc8282613076565b83815260059390931b85018201928281019150898411156133fc57600080fd5b948201945b838610156134215761341286612f70565b82529482019490820190613401565b9650508601359250508082111561343757600080fd5b5061337a85828601613224565b600081518084526020808501945080840160005b8381101561347457815187529582019590820190600101613458565b509495945050505050565b6020815260006115be6020830184613444565b80356001600160601b03811681146110cd57600080fd5b600080600080600060a086880312156134c157600080fd5b6134ca86612f70565b9450602086013593506040860135925060608601356001600160401b038111156134f357600080fd5b6134ff888289016130a2565b92505061350e60808701613492565b90509295509295909350565b6000806000806080858703121561353057600080fd5b61353985612f70565b9350602085013592506040850135915060608501356001600160401b0381111561356257600080fd5b61356e878288016130a2565b91505092959194509250565b6000806040838503121561358d57600080fd5b8235915061359d60208401612f70565b90509250929050565b600080604083850312156135b957600080fd5b6135c283612f70565b9150602083013580151581146135d757600080fd5b809150509250929050565b600080600080608085870312156135f857600080fd5b61360185612f70565b935060208501356001600160401b038082111561361d57600080fd5b61362988838901613224565b9450604087013591508082111561363f57600080fd5b61364b88838901613224565b9350606087013591508082111561366157600080fd5b5061356e878288016130a2565b60006020828403121561368057600080fd5b6115be82613492565b6000806040838503121561369c57600080fd5b6136a583612f70565b915061359d60208401612f70565b600080600080600060a086880312156136cb57600080fd5b6136d486612f70565b94506136e260208701612f70565b9350604086013592506060860135915060808601356001600160401b0381111561370b57600080fd5b613331888289016130a2565b60008060006060848603121561372c57600080fd5b61373584612f70565b95602085013595506040909401359392505050565b60008060006060848603121561375f57600080fd5b61376884612f70565b925060208401356001600160401b038082111561378457600080fd5b61379087838801613224565b935060408601359150808211156137a657600080fd5b506137b386828701613224565b9150509250925092565b634e487b7160e01b600052601160045260246000fd5b80820180821115610861576108616137bd565b600181811c908216806137fa57607f821691505b60208210810361381a57634e487b7160e01b600052602260045260246000fd5b50919050565b6001600160a01b0384811682528316602082015260606040820181905260009061384c90830184613008565b95945050505050565b60008351613867818460208801612fe4565b60609390931b6bffffffffffffffffffffffff19169190920190815260140192915050565b6000825161389e818460208701612fe4565b9190910192915050565b6020808252602e908201527f455243313135355472616461626c65236f6e6c794f776e65723a2043414c4c4560408201526d292fa4a9afa727aa2fa7aba722a960911b606082015260800190565b601f8211156117fe57600081815260208120601f850160051c8101602086101561391d5750805b601f850160051c820191505b81811015610e8257828155600101613929565b81516001600160401b0381111561395557613955613060565b6139698161396384546137e6565b846138f6565b602080601f83116001811461399e57600084156139865750858301515b600019600386901b1c1916600185901b178555610e82565b600085815260208120601f198616915b828110156139cd578886015182559484019460019091019084016139ae565b50858210156139eb5787850151600019600388901b60f8161c191681555b5050505050600190811b01905550565b8082028115828204841417610861576108616137bd565b600082613a2f57634e487b7160e01b600052601260045260246000fd5b500490565b634e487b7160e01b600052603260045260246000fd5b600060018201613a5c57613a5c6137bd565b5060010190565b60208082526035908201527f4173736574436f6e74726163745368617265642363726561746f724f6e6c793a6040820152740813d3931657d0d491505513d497d0531313d5d151605a1b606082015260800190565b60208082526037908201527f4173736574436f6e7472616374236f6e6c79496d7065726d616e656e7455524960408201527f3a205552495f43414e4e4f545f42455f4348414e474544000000000000000000606082015260800190565b60208082526045908201527f4173736574436f6e7472616374536861726564236f6e6c7946756c6c546f6b6560408201527f6e4f776e65723a204f4e4c595f46554c4c5f544f4b454e5f4f574e45525f414c6060820152641313d5d15160da1b608082015260a00190565b81810381811115610861576108616137bd565b60ff8181168382160190811115610861576108616137bd565b6020808252602a908201527f455243323938313a20726f79616c7479206665652077696c6c206578636565646040820152692073616c65507269636560b01b606082015260800190565b60208082526030908201527f455243313135355472616461626c65236f6e6c79417070726f7665643a20434160408201526f1313115497d393d517d0531313d5d15160821b606082015260800190565b604081526000613c596040830185613444565b828103602084015261384c8185613444565b6001600160a01b03868116825285166020820152604081018490526060810183905260a060808201819052600090613ca590830184613008565b979650505050505050565b600060208284031215613cc257600080fd5b81516115be81612fb1565b600060033d11156118695760046000803e5060005160e01c90565b600060443d1015613cf65790565b6040516003193d81016004833e81513d6001600160401b038160248401118184111715613d2557505050505090565b8285019150815181811115613d3d5750505050505090565b843d8701016020828501011115613d575750505050505090565b613d6660208286010187613076565b509095945050505050565b60208082526028908201527f455243313135353a204552433131353552656365697665722072656a656374656040820152676420746f6b656e7360c01b606082015260800190565b6001600160a01b0386811682528516602082015260a060408201819052600090613de590830186613444565b8281036060840152613df78186613444565b90508281036080840152610b7a818561300856fec3d58168c5ae7397731d063d5bbf3d657854427343f4c083240f7aacaa2d0f624d6574615472616e73616374696f6e2875696e74323536206e6f6e63652c616464726573732066726f6d2c62797465732066756e6374696f6e5369676e617475726529a26469706673582212206568818e33c0bc38b98902027355c5dcb6019a08f31433bb8a5b17bc52dcdd9c64736f6c63430008110033454950373132446f6d61696e28737472696e67206e616d652c737472696e672076657273696f6e2c6164647265737320766572696679696e67436f6e74726163742c627974657333322073616c7429",
  "linkReferences": {},
  "deployedLinkReferences": {}
}