{
  "_format": "hh-sol-artifact-1",
  "contractName": "AssetContractShared",
  "sourceName": "contracts/AssetContractShared.sol",
  "abi": [
    {
      "anonymous": false,
      "inputs": [
        {
          "indexed": true,
          "internalType": "address",
          "name": "account",
          "type": "address"
        },
        {
          "indexed": true,
          "internalType": "address",
          "name": "operator",
          "type": "address"
        },
        {
          "indexed": false,
          "internalType": "bool",
          "name": "approved",
          "type": "bool"
        }
      ],
      "name": "ApprovalForAll",
      "type": "event"
    },
    {
      "anonymous": false,
      "inputs": [
        {
          "indexed": true,
          "internalType": "uint256",
          "name": "_id",
          "type": "uint256"
        },
        {
          "indexed": true,
          "internalType": "address",
          "name": "_creator",
          "type": "address"
        }
      ],
      "name": "CreatorChanged",
      "type": "event"
    },
    {
      "anonymous": false,
      "inputs": [
        {
          "indexed": false,
          "internalType": "uint8",
          "name": "version",
          "type": "uint8"
        }
      ],
      "name": "Initialized",
      "type": "event"
    },
    {
      "anonymous": false,
      "inputs": [
        {
          "indexed": false,
          "internalType": "address",
          "name": "userAddress",
          "type": "address"
        },
        {
          "indexed": false,
          "internalType": "address payable",
          "name": "relayerAddress",
          "type": "address"
        },
        {
          "indexed": false,
          "internalType": "bytes",
          "name": "functionSignature",
          "type": "bytes"
        }
      ],
      "name": "MetaTransactionExecuted",
      "type": "event"
    },
    {
      "anonymous": false,
      "inputs": [
        {
          "indexed": true,
          "internalType": "address",
          "name": "previousOwner",
          "type": "address"
        },
        {
          "indexed": true,
          "internalType": "address",
          "name": "newOwner",
          "type": "address"
        }
      ],
      "name": "OwnershipTransferred",
      "type": "event"
    },
    {
      "anonymous": false,
      "inputs": [
        {
          "indexed": false,
          "internalType": "address",
          "name": "account",
          "type": "address"
        }
      ],
      "name": "Paused",
      "type": "event"
    },
    {
      "anonymous": false,
      "inputs": [
        {
          "indexed": false,
          "internalType": "string",
          "name": "_value",
          "type": "string"
        },
        {
          "indexed": true,
          "internalType": "uint256",
          "name": "_id",
          "type": "uint256"
        }
      ],
      "name": "PermanentURI",
      "type": "event"
    },
    {
      "anonymous": false,
      "inputs": [
        {
          "indexed": true,
          "internalType": "address",
          "name": "operator",
          "type": "address"
        },
        {
          "indexed": true,
          "internalType": "address",
          "name": "from",
          "type": "address"
        },
        {
          "indexed": true,
          "internalType": "address",
          "name": "to",
          "type": "address"
        },
        {
          "indexed": false,
          "internalType": "uint256[]",
          "name": "ids",
          "type": "uint256[]"
        },
        {
          "indexed": false,
          "internalType": "uint256[]",
          "name": "values",
          "type": "uint256[]"
        }
      ],
      "name": "TransferBatch",
      "type": "event"
    },
    {
      "anonymous": false,
      "inputs": [
        {
          "indexed": true,
          "internalType": "address",
          "name": "operator",
          "type": "address"
        },
        {
          "indexed": true,
          "internalType": "address",
          "name": "from",
          "type": "address"
        },
        {
          "indexed": true,
          "internalType": "address",
          "name": "to",
          "type": "address"
        },
        {
          "indexed": false,
          "internalType": "uint256",
          "name": "id",
          "type": "uint256"
        },
        {
          "indexed": false,
          "internalType": "uint256",
          "name": "value",
          "type": "uint256"
        }
      ],
      "name": "TransferSingle",
      "type": "event"
    },
    {
      "anonymous": false,
      "inputs": [
        {
          "indexed": false,
          "internalType": "string",
          "name": "value",
          "type": "string"
        },
        {
          "indexed": true,
          "internalType": "uint256",
          "name": "id",
          "type": "uint256"
        }
      ],
      "name": "URI",
      "type": "event"
    },
    {
      "anonymous": false,
      "inputs": [
        {
          "indexed": false,
          "internalType": "address",
          "name": "account",
          "type": "address"
        }
      ],
      "name": "Unpaused",
      "type": "event"
    },
    {
      "inputs": [],
      "name": "ERC712_VERSION",
      "outputs": [
        {
          "internalType": "string",
          "name": "",
          "type": "string"
        }
      ],
      "stateMutability": "view",
      "type": "function"
    },
    {
      "inputs": [
        {
          "internalType": "address",
          "name": "_owner",
          "type": "address"
        },
        {
          "internalType": "uint256",
          "name": "_id",
          "type": "uint256"
        }
      ],
      "name": "balanceOf",
      "outputs": [
        {
          "internalType": "uint256",
          "name": "",
          "type": "uint256"
        }
      ],
      "stateMutability": "view",
      "type": "function"
    },
    {
      "inputs": [
        {
          "internalType": "address[]",
          "name": "accounts",
          "type": "address[]"
        },
        {
          "internalType": "uint256[]",
          "name": "ids",
          "type": "uint256[]"
        }
      ],
      "name": "balanceOfBatch",
      "outputs": [
        {
          "internalType": "uint256[]",
          "name": "",
          "type": "uint256[]"
        }
      ],
      "stateMutability": "view",
      "type": "function"
    },
    {
      "inputs": [
        {
          "internalType": "address",
          "name": "_from",
          "type": "address"
        },
        {
          "internalType": "uint256[]",
          "name": "_ids",
          "type": "uint256[]"
        },
        {
          "internalType": "uint256[]",
          "name": "_quantities",
          "type": "uint256[]"
        }
      ],
      "name": "batchBurn",
      "outputs": [],
      "stateMutability": "nonpayable",
      "type": "function"
    },
    {
      "inputs": [
        {
          "internalType": "address",
          "name": "_to",
          "type": "address"
        },
        {
          "internalType": "uint256[]",
          "name": "_ids",
          "type": "uint256[]"
        },
        {
          "internalType": "uint256[]",
          "name": "_quantities",
          "type": "uint256[]"
        },
        {
          "internalType": "bytes",
          "name": "_data",
          "type": "bytes"
        }
      ],
      "name": "batchMint",
      "outputs": [],
      "stateMutability": "nonpayable",
      "type": "function"
    },
    {
      "inputs": [
        {
          "internalType": "address",
          "name": "_from",
          "type": "address"
        },
        {
          "internalType": "uint256",
          "name": "_id",
          "type": "uint256"
        },
        {
          "internalType": "uint256",
          "name": "_quantity",
          "type": "uint256"
        }
      ],
      "name": "burn",
      "outputs": [],
      "stateMutability": "nonpayable",
      "type": "function"
    },
    {
      "inputs": [
        {
          "internalType": "uint256",
          "name": "_id",
          "type": "uint256"
        }
      ],
      "name": "createMintEvent",
      "outputs": [],
      "stateMutability": "nonpayable",
      "type": "function"
    },
    {
      "inputs": [
        {
          "internalType": "uint256",
          "name": "_id",
          "type": "uint256"
        }
      ],
      "name": "creator",
      "outputs": [
        {
          "internalType": "address",
          "name": "",
          "type": "address"
        }
      ],
      "stateMutability": "view",
      "type": "function"
    },
    {
      "inputs": [],
      "name": "defaultRoyaltyFraction",
      "outputs": [
        {
          "internalType": "uint96",
          "name": "",
          "type": "uint96"
        }
      ],
      "stateMutability": "view",
      "type": "function"
    },
    {
      "inputs": [
        {
          "internalType": "address",
          "name": "userAddress",
          "type": "address"
        },
        {
          "internalType": "bytes",
          "name": "functionSignature",
          "type": "bytes"
        },
        {
          "internalType": "bytes32",
          "name": "sigR",
          "type": "bytes32"
        },
        {
          "internalType": "bytes32",
          "name": "sigS",
          "type": "bytes32"
        },
        {
          "internalType": "uint8",
          "name": "sigV",
          "type": "uint8"
        }
      ],
      "name": "executeMetaTransaction",
      "outputs": [
        {
          "internalType": "bytes",
          "name": "",
          "type": "bytes"
        }
      ],
      "stateMutability": "payable",
      "type": "function"
    },
    {
      "inputs": [
        {
          "internalType": "uint256",
          "name": "_id",
          "type": "uint256"
        }
      ],
      "name": "exists",
      "outputs": [
        {
          "internalType": "bool",
          "name": "",
          "type": "bool"
        }
      ],
      "stateMutability": "view",
      "type": "function"
    },
    {
      "inputs": [],
      "name": "getChainId",
      "outputs": [
        {
          "internalType": "uint256",
          "name": "",
          "type": "uint256"
        }
      ],
      "stateMutability": "view",
      "type": "function"
    },
    {
      "inputs": [],
      "name": "getDomainSeperator",
      "outputs": [
        {
          "internalType": "bytes32",
          "name": "",
          "type": "bytes32"
        }
      ],
      "stateMutability": "view",
      "type": "function"
    },
    {
      "inputs": [
        {
          "internalType": "address",
          "name": "user",
          "type": "address"
        }
      ],
      "name": "getNonce",
      "outputs": [
        {
          "internalType": "uint256",
          "name": "nonce",
          "type": "uint256"
        }
      ],
      "stateMutability": "view",
      "type": "function"
    },
    {
      "inputs": [
        {
          "internalType": "string",
          "name": "_name",
          "type": "string"
        },
        {
          "internalType": "string",
          "name": "_symbol",
          "type": "string"
        },
        {
          "internalType": "string",
          "name": "_templateURI",
          "type": "string"
        },
        {
          "internalType": "uint96",
          "name": "_royaltyFraction",
          "type": "uint96"
        },
        {
          "internalType": "address",
          "name": "_proxyRegistryAddress",
          "type": "address"
        }
      ],
      "name": "initialize",
      "outputs": [],
      "stateMutability": "nonpayable",
      "type": "function"
    },
    {
      "inputs": [
        {
          "internalType": "address",
          "name": "_owner",
          "type": "address"
        },
        {
          "internalType": "address",
          "name": "_operator",
          "type": "address"
        }
      ],
      "name": "isApprovedForAll",
      "outputs": [
        {
          "internalType": "bool",
          "name": "isOperator",
          "type": "bool"
        }
      ],
      "stateMutability": "view",
      "type": "function"
    },
    {
      "inputs": [
        {
          "internalType": "uint256",
          "name": "_id",
          "type": "uint256"
        }
      ],
      "name": "isPermanentURI",
      "outputs": [
        {
          "internalType": "bool",
          "name": "",
          "type": "bool"
        }
      ],
      "stateMutability": "view",
      "type": "function"
    },
    {
      "inputs": [
        {
          "internalType": "uint256",
          "name": "_id",
          "type": "uint256"
        }
      ],
      "name": "maxSupply",
      "outputs": [
        {
          "internalType": "uint256",
          "name": "",
          "type": "uint256"
        }
      ],
      "stateMutability": "pure",
      "type": "function"
    },
    {
      "inputs": [
        {
          "internalType": "address",
          "name": "_to",
          "type": "address"
        },
        {
          "internalType": "uint256",
          "name": "_id",
          "type": "uint256"
        },
        {
          "internalType": "uint256",
          "name": "_quantity",
          "type": "uint256"
        },
        {
          "internalType": "bytes",
          "name": "_data",
          "type": "bytes"
        }
      ],
      "name": "mint",
      "outputs": [],
      "stateMutability": "nonpayable",
      "type": "function"
    },
    {
      "inputs": [
        {
          "internalType": "address",
          "name": "_to",
          "type": "address"
        },
        {
          "internalType": "uint256",
          "name": "_id",
          "type": "uint256"
        },
        {
          "internalType": "uint256",
          "name": "_quantity",
          "type": "uint256"
        },
        {
          "internalType": "bytes",
          "name": "_data",
          "type": "bytes"
        },
        {
          "internalType": "uint96",
          "name": "_feeNumerator",
          "type": "uint96"
        }
      ],
      "name": "mint",
      "outputs": [],
      "stateMutability": "nonpayable",
      "type": "function"
    },
    {
      "inputs": [],
      "name": "name",
      "outputs": [
        {
          "internalType": "string",
          "name": "",
          "type": "string"
        }
      ],
      "stateMutability": "view",
      "type": "function"
    },
    {
      "inputs": [],
      "name": "owner",
      "outputs": [
        {
          "internalType": "address",
          "name": "",
          "type": "address"
        }
      ],
      "stateMutability": "view",
      "type": "function"
    },
    {
      "inputs": [],
      "name": "pause",
      "outputs": [],
      "stateMutability": "nonpayable",
      "type": "function"
    },
    {
      "inputs": [],
      "name": "paused",
      "outputs": [
        {
          "internalType": "bool",
          "name": "",
          "type": "bool"
        }
      ],
      "stateMutability": "view",
      "type": "function"
    },
    {
      "inputs": [],
      "name": "proxyRegistryAddress",
      "outputs": [
        {
          "internalType": "address",
          "name": "",
          "type": "address"
        }
      ],
      "stateMutability": "view",
      "type": "function"
    },
    {
      "inputs": [],
      "name": "renounceOwnership",
      "outputs": [],
      "stateMutability": "nonpayable",
      "type": "function"
    },
    {
      "inputs": [
        {
          "internalType": "uint256",
          "name": "_tokenId",
          "type": "uint256"
        },
        {
          "internalType": "uint256",
          "name": "_salePrice",
          "type": "uint256"
        }
      ],
      "name": "royaltyInfo",
      "outputs": [
        {
          "internalType": "address",
          "name": "",
          "type": "address"
        },
        {
          "internalType": "uint256",
          "name": "",
          "type": "uint256"
        }
      ],
      "stateMutability": "view",
      "type": "function"
    },
    {
      "inputs": [
        {
          "internalType": "address",
          "name": "_from",
          "type": "address"
        },
        {
          "internalType": "address",
          "name": "_to",
          "type": "address"
        },
        {
          "internalType": "uint256[]",
          "name": "_ids",
          "type": "uint256[]"
        },
        {
          "internalType": "uint256[]",
          "name": "_amounts",
          "type": "uint256[]"
        },
        {
          "internalType": "bytes",
          "name": "_data",
          "type": "bytes"
        }
      ],
      "name": "safeBatchTransferFrom",
      "outputs": [],
      "stateMutability": "nonpayable",
      "type": "function"
    },
    {
      "inputs": [
        {
          "internalType": "address",
          "name": "_from",
          "type": "address"
        },
        {
          "internalType": "address",
          "name": "_to",
          "type": "address"
        },
        {
          "internalType": "uint256",
          "name": "_id",
          "type": "uint256"
        },
        {
          "internalType": "uint256",
          "name": "_amount",
          "type": "uint256"
        },
        {
          "internalType": "bytes",
          "name": "_data",
          "type": "bytes"
        }
      ],
      "name": "safeTransferFrom",
      "outputs": [],
      "stateMutability": "nonpayable",
      "type": "function"
    },
    {
      "inputs": [
        {
          "internalType": "address",
          "name": "operator",
          "type": "address"
        },
        {
          "internalType": "bool",
          "name": "approved",
          "type": "bool"
        }
      ],
      "name": "setApprovalForAll",
      "outputs": [],
      "stateMutability": "nonpayable",
      "type": "function"
    },
    {
      "inputs": [
        {
          "internalType": "uint256",
          "name": "_id",
          "type": "uint256"
        },
        {
          "internalType": "address",
          "name": "_to",
          "type": "address"
        }
      ],
      "name": "setCreator",
      "outputs": [],
      "stateMutability": "nonpayable",
      "type": "function"
    },
    {
      "inputs": [
        {
          "internalType": "uint96",
          "name": "_royaltyFraction",
          "type": "uint96"
        }
      ],
      "name": "setDefaultRoyaltyFraciton",
      "outputs": [],
      "stateMutability": "nonpayable",
      "type": "function"
    },
    {
      "inputs": [
        {
          "internalType": "uint256",
          "name": "_id",
          "type": "uint256"
        },
        {
          "internalType": "string",
          "name": "_uri",
          "type": "string"
        }
      ],
      "name": "setPermanentURI",
      "outputs": [],
      "stateMutability": "nonpayable",
      "type": "function"
    },
    {
      "inputs": [
        {
          "internalType": "address",
          "name": "_address",
          "type": "address"
        }
      ],
      "name": "setProxyRegistryAddress",
      "outputs": [],
      "stateMutability": "nonpayable",
      "type": "function"
    },
    {
      "inputs": [
        {
          "internalType": "string",
          "name": "_uri",
          "type": "string"
        }
      ],
      "name": "setTemplateURI",
      "outputs": [],
      "stateMutability": "nonpayable",
      "type": "function"
    },
    {
      "inputs": [
        {
          "internalType": "uint256",
          "name": "_id",
          "type": "uint256"
        },
        {
          "internalType": "string",
          "name": "_uri",
          "type": "string"
        }
      ],
      "name": "setURI",
      "outputs": [],
      "stateMutability": "nonpayable",
      "type": "function"
    },
    {
      "inputs": [],
      "name": "supportsFactoryInterface",
      "outputs": [
        {
          "internalType": "bool",
          "name": "",
          "type": "bool"
        }
      ],
      "stateMutability": "pure",
      "type": "function"
    },
    {
      "inputs": [
        {
          "internalType": "bytes4",
          "name": "interfaceId",
          "type": "bytes4"
        }
      ],
      "name": "supportsInterface",
      "outputs": [
        {
          "internalType": "bool",
          "name": "",
          "type": "bool"
        }
      ],
      "stateMutability": "view",
      "type": "function"
    },
    {
      "inputs": [],
      "name": "symbol",
      "outputs": [
        {
          "internalType": "string",
          "name": "",
          "type": "string"
        }
      ],
      "stateMutability": "view",
      "type": "function"
    },
    {
      "inputs": [],
      "name": "templateURI",
      "outputs": [
        {
          "internalType": "string",
          "name": "",
          "type": "string"
        }
      ],
      "stateMutability": "view",
      "type": "function"
    },
    {
      "inputs": [
        {
          "internalType": "uint256",
          "name": "_id",
          "type": "uint256"
        }
      ],
      "name": "totalSupply",
      "outputs": [
        {
          "internalType": "uint256",
          "name": "",
          "type": "uint256"
        }
      ],
      "stateMutability": "view",
      "type": "function"
    },
    {
      "inputs": [
        {
          "internalType": "address",
          "name": "newOwner",
          "type": "address"
        }
      ],
      "name": "transferOwnership",
      "outputs": [],
      "stateMutability": "nonpayable",
      "type": "function"
    },
    {
      "inputs": [],
      "name": "unpause",
      "outputs": [],
      "stateMutability": "nonpayable",
      "type": "function"
    },
    {
      "inputs": [
        {
          "internalType": "uint256",
          "name": "_id",
          "type": "uint256"
        }
      ],
      "name": "uri",
      "outputs": [
        {
          "internalType": "string",
          "name": "",
          "type": "string"
        }
      ],
      "stateMutability": "view",
      "type": "function"
    },
    {
      "inputs": [],
      "name": "whosSender",
      "outputs": [
        {
          "internalType": "address",
          "name": "",
          "type": "address"
        }
      ],
      "stateMutability": "view",
      "type": "function"
    }
  ],
  "bytecode": "0x608060405234801561001057600080fd5b506143a4806100206000396000f3fe6080604052600436106102715760003560e01c8063715018a61161014f578063bd85b039116100c1578063e985e9c51161007a578063e985e9c5146107bb578063f242432a146107db578063f2fde38b146107fb578063f5298aca1461081b578063f6eb127a1461083b578063f923e8c31461085b57600080fd5b8063bd85b039146106f8578063c06b91c314610726578063c311c52314610746578063cd7c03261461075a578063d26ea6c01461077b578063d3b9ff7f1461079b57600080fd5b80638da5cb5b116101135780638da5cb5b1461065057806391686f531461066e57806395d89b411461068e578063a22cb465146106a3578063a9e4ac8e146106c3578063b48ab8b6146106d857600080fd5b8063715018a6146105c6578063731133e9146105db5780638456cb59146105fb578063862440e214610610578063869f75941461063057600080fd5b80632a55205a116101e85780633f4ba83a116101ac5780633f4ba83a146104cb5780634e1273f4146104e05780634f558e791461050d578063510b51581461053d5780635c975abb146105755780636d0042b81461058d57600080fd5b80632a55205a146104035780632d0335ab146104425780632eb2c2d6146104785780633408e470146104985780633588ad7c146104ab57600080fd5b80630e89341c1161023a5780630e89341c146103305780630f7e597014610350578063143045b51461037d5780631e7d9dbb1461039d57806320379ee5146103ce57806324d88785146103e357600080fd5b8062fdd58e1461027657806301ffc9a7146102a957806306fdde03146102d957806307291f8f146102fb5780630c53c51c1461031d575b600080fd5b34801561028257600080fd5b5061029661029136600461339f565b610870565b6040519081526020015b60405180910390f35b3480156102b557600080fd5b506102c96102c43660046133df565b6108b0565b60405190151581526020016102a0565b3480156102e557600080fd5b506102ee61090b565b6040516102a0919061344c565b34801561030757600080fd5b5061031b61031636600461345f565b610999565b005b6102ee61032b36600461352d565b6109f2565b34801561033c57600080fd5b506102ee61034b36600461345f565b610bcf565b34801561035c57600080fd5b506102ee604051806040016040528060018152602001603160f81b81525081565b34801561038957600080fd5b5061031b6103983660046135bf565b610d11565b3480156103a957600080fd5b506102c96103b836600461345f565b6000908152610104602052604090205460ff1690565b3480156103da57600080fd5b50609754610296565b3480156103ef57600080fd5b5061031b6103fe366004613668565b610e2c565b34801561040f57600080fd5b5061042361041e36600461369c565b610e69565b604080516001600160a01b0390931683526020830191909152016102a0565b34801561044e57600080fd5b5061029661045d3660046136be565b6001600160a01b031660009081526098602052604090205490565b34801561048457600080fd5b5061031b61049336600461376d565b610f17565b3480156104a457600080fd5b5046610296565b3480156104b757600080fd5b5061031b6104c6366004613816565b610feb565b3480156104d757600080fd5b5061031b611093565b3480156104ec57600080fd5b506105006104fb36600461385c565b6110c4565b6040516102a09190613957565b34801561051957600080fd5b506102c961052836600461345f565b60009081526101006020526040902054151590565b34801561054957600080fd5b5061055d61055836600461345f565b6111ed565b6040516001600160a01b0390911681526020016102a0565b34801561058157600080fd5b5060cb5460ff166102c9565b34801561059957600080fd5b5061016a546105ae906001600160601b031681565b6040516001600160601b0390911681526020016102a0565b3480156105d257600080fd5b5061031b611236565b3480156105e757600080fd5b5061031b6105f636600461396a565b611248565b34801561060757600080fd5b5061031b611281565b34801561061c57600080fd5b5061031b61062b366004613816565b6112b0565b34801561063c57600080fd5b5061029661064b36600461345f565b61133d565b34801561065c57600080fd5b506099546001600160a01b031661055d565b34801561067a57600080fd5b5061031b6106893660046139ca565b611348565b34801561069a57600080fd5b506102ee61143b565b3480156106af57600080fd5b5061031b6106be3660046139f6565b611448565b3480156106cf57600080fd5b5061055d61145a565b3480156106e457600080fd5b5061031b6106f3366004613a32565b611469565b34801561070457600080fd5b5061029661071336600461345f565b6000908152610100602052604090205490565b34801561073257600080fd5b5061031b610741366004613abe565b611535565b34801561075257600080fd5b5060016102c9565b34801561076657600080fd5b506101015461055d906001600160a01b031681565b34801561078757600080fd5b5061031b6107963660046136be565b61157f565b3480156107a757600080fd5b5061031b6107b6366004613ad9565b6115c9565b3480156107c757600080fd5b506102c96107d6366004613b3e565b611644565b3480156107e757600080fd5b5061031b6107f6366004613b68565b611697565b34801561080757600080fd5b5061031b6108163660046136be565b6116e7565b34801561082757600080fd5b5061031b610836366004613bcc565b611760565b34801561084757600080fd5b5061031b610856366004613bff565b6117f7565b34801561086757600080fd5b506102ee6118d5565b60008061087d84846118e3565b90506108898385611977565b61089357806108a6565b61089c836119bc565b6108a69082613c88565b9150505b92915050565b60006001600160e01b03198216636cdb3d1360e11b14806108e157506001600160e01b031982166303a24d0760e21b145b806108fc57506001600160e01b0319821663152a902d60e11b145b806108aa57506108aa826119df565b60fd805461091890613c9b565b80601f016020809104026020016040519081016040528092919081815260200182805461094490613c9b565b80156109915780601f1061096657610100808354040283529160200191610991565b820191906000526020600020905b81548152906001019060200180831161097457829003601f168201915b505050505081565b6109a281611a04565b6001600160a01b031660006109b5611a1e565b6001600160a01b03166000805160206142bd833981519152846109d786611a28565b6040805192835260208301919091520160405180910390a450565b60408051606081810183526001600160a01b03881660008181526098602090815290859020548452830152918101869052610a308782878787611a43565b610a8b5760405162461bcd60e51b815260206004820152602160248201527f5369676e657220616e64207369676e617475726520646f206e6f74206d6174636044820152600d60fb1b60648201526084015b60405180910390fd5b6001600160a01b0387166000908152609860205260408120805460019290610ab4908490613c88565b90915550506040517f5845892132946850460bff5a0083f71031bc5bf9aadcd40f1de79423eac9b10b90610aed90899033908a90613cd5565b60405180910390a1600080306001600160a01b0316888a604051602001610b15929190613d0a565b60408051601f1981840301815290829052610b2f91613d3c565b6000604051808303816000865af19150503d8060008114610b6c576040519150601f19603f3d011682016040523d82523d6000602084013e610b71565b606091505b509150915081610bc35760405162461bcd60e51b815260206004820152601c60248201527f46756e6374696f6e2063616c6c206e6f74207375636365737366756c000000006044820152606401610a82565b98975050505050505050565b60008181526101036020526040812080546060929190610bee90613c9b565b80601f0160208091040260200160405190810160405280929190818152602001828054610c1a90613c9b565b8015610c675780601f10610c3c57610100808354040283529160200191610c67565b820191906000526020600020905b815481529060010190602001808311610c4a57829003601f168201915b505050505090508051600014610c7d5792915050565b6101028054610c8b90613c9b565b80601f0160208091040260200160405190810160405280929190818152602001828054610cb790613c9b565b8015610d045780601f10610cd957610100808354040283529160200191610d04565b820191906000526020600020905b815481529060010190602001808311610ce757829003601f168201915b5050505050915050919050565b600054610100900460ff1615808015610d315750600054600160ff909116105b80610d4b5750303b158015610d4b575060005460ff166001145b610dae5760405162461bcd60e51b815260206004820152602e60248201527f496e697469616c697a61626c653a20636f6e747261637420697320616c72656160448201526d191e481a5b9a5d1a585b1a5e995960921b6064820152608401610a82565b6000805460ff191660011790558015610dd1576000805461ff0019166101001790555b610dde8686868686611b33565b8015610e24576000805461ff0019169055604051600181527f7f26b83ff96e1f2b6a682f133852f6798a09c465da95921460cefb38474024989060200160405180910390a15b505050505050565b610e3c610e37611a1e565b611b8d565b610e585760405162461bcd60e51b8152600401610a8290613d58565b610102610e658282613dec565b5050565b6000828152610138602090815260408083208151808301909252546001600160a01b038116808352600160a01b9091046001600160601b0316928201929092528291610ee0575060408051808201909152610137546001600160a01b0381168252600160a01b90046001600160601b031660208201525b602081015160009061271090610eff906001600160601b031687613eab565b610f099190613ec2565b915196919550909350505050565b8151835114610f8e5760405162461bcd60e51b815260206004820152603a60248201527f4173736574436f6e7472616374237361666542617463685472616e736665724660448201527f726f6d3a20494e56414c49445f4152524159535f4c454e4754480000000000006064820152608401610a82565b60005b8351811015610e2457610fd98686868481518110610fb157610fb1613ee4565b6020026020010151868581518110610fcb57610fcb613ee4565b602002602001015186611697565b80610fe381613efa565b915050610f91565b81610ffd81610ff8611a1e565b611977565b6110195760405162461bcd60e51b8152600401610a8290613f13565b60008381526101046020526040902054839060ff161561104b5760405162461bcd60e51b8152600401610a8290613f68565b83611066611057611a1e565b8261106184611a28565b611bbb565b6110825760405162461bcd60e51b8152600401610a8290613fc5565b61108c8585611bd2565b5050505050565b61109e610e37611a1e565b6110ba5760405162461bcd60e51b8152600401610a8290613d58565b6110c2611c99565b565b606081518351146111295760405162461bcd60e51b815260206004820152602960248201527f455243313135353a206163636f756e747320616e6420696473206c656e677468604482015268040dad2e6dac2e8c6d60bb1b6064820152608401610a82565b600083516001600160401b0381111561114457611144613478565b60405190808252806020026020018201604052801561116d578160200160208202803683370190505b50905060005b84518110156111e5576111b885828151811061119157611191613ee4565b60200260200101518583815181106111ab576111ab613ee4565b6020026020010151610870565b8282815181106111ca576111ca613ee4565b60209081029190910101526111de81613efa565b9050611173565b509392505050565b600081815261016960205260408120546001600160a01b0316156112285750600090815261016960205260409020546001600160a01b031690565b6108aa82611a04565b919050565b61123e611cf1565b6110c26000611d6a565b611253610e37611a1e565b61126f5760405162461bcd60e51b8152600401610a8290613d58565b61127b84848484611dbc565b50505050565b61128c610e37611a1e565b6112a85760405162461bcd60e51b8152600401610a8290613d58565b6110c2611ddc565b816112bd81610ff8611a1e565b6112d95760405162461bcd60e51b8152600401610a8290613f13565b60008381526101046020526040902054839060ff161561130b5760405162461bcd60e51b8152600401610a8290613f68565b83611317611057611a1e565b6113335760405162461bcd60e51b8152600401610a8290613fc5565b61108c8585611e1a565b60006108aa82611a28565b8161135581610ff8611a1e565b6113715760405162461bcd60e51b8152600401610a8290613f13565b6001600160a01b0382166113e05760405162461bcd60e51b815260206004820152603060248201527f4173736574436f6e74726163745368617265642373657443726561746f723a2060448201526f24a72b20a624a22fa0a2222922a9a99760811b6064820152608401610a82565b6000838152610169602052604080822080546001600160a01b0319166001600160a01b0386169081179091559051909185917f39071c63e44267bfdefc7b625c0df99d3ce2e6ff98d9f5e9e8a7ab43cdf5000d9190a3505050565b60fe805461091890613c9b565b610e65611453611a1e565b8383611e64565b6000611464611a1e565b905090565b611471611f44565b60005b835181101561151d576114a284828151811061149257611492613ee4565b6020026020010151610ff8611a1e565b61150b5760405162461bcd60e51b815260206004820152603460248201527f4173736574436f6e7472616374536861726564235f62617463684d696e743a2060448201527313d3931657d0d491505513d497d0531313d5d15160621b6064820152608401610a82565b8061151581613efa565b915050611474565b5061152a84848484611f9f565b61127b600161010555565b611540610e37611a1e565b61155c5760405162461bcd60e51b8152600401610a8290613d58565b61016a80546001600160601b0319166001600160601b0392909216919091179055565b61158a610e37611a1e565b6115a65760405162461bcd60e51b8152600401610a8290613d58565b61010180546001600160a01b0319166001600160a01b0392909216919091179055565b6115d1611f44565b836115de81610ff8611a1e565b6115fa5760405162461bcd60e51b8152600401610a8290613f13565b61160686868686611dbc565b6000611613866001610e69565b5090506001600160a01b038116611637576116378661163188611a04565b85611ff6565b505061108c600161010555565b610101546000906001600160a01b0390811690831603611666575060016108aa565b6001600160a01b0380841660009081526066602090815260408083209386168352929052205460ff165b9392505050565b60006116a386856118e3565b9050828110156116da576116c285856116bc8487614030565b85611248565b80156116d5576116d58686868486612105565b610e24565b610e248686868686612105565b6116ef611cf1565b6001600160a01b0381166117545760405162461bcd60e51b815260206004820152602660248201527f4f776e61626c653a206e6577206f776e657220697320746865207a65726f206160448201526564647265737360d01b6064820152608401610a82565b61175d81611d6a565b50565b82828261176e838383611bbb565b6117ec5760405162461bcd60e51b815260206004820152604360248201527f4173736574436f6e7472616374236f6e6c79546f6b656e416d6f756e744f776e60448201527f65643a204f4e4c595f544f4b454e5f414d4f554e545f4f574e45445f414c4c4f60648201526215d15160ea1b608482015260a401610a82565b610e24868686612306565b60005b82518110156118c4576118408484838151811061181957611819613ee4565b602002602001015184848151811061183357611833613ee4565b6020026020010151611bbb565b6118b25760405162461bcd60e51b815260206004820152603860248201527f4173736574436f6e74726163742362617463684275726e3a204f4e4c595f544f60448201527f4b454e5f414d4f554e545f4f574e45445f414c4c4f57454400000000000000006064820152608401610a82565b806118bc81613efa565b9150506117fa565b506118d083838361235c565b505050565b610102805461091890613c9b565b60006001600160a01b03831661194f5760405162461bcd60e51b815260206004820152602b60248201527f455243313135353a2062616c616e636520717565727920666f7220746865207a60448201526a65726f206164647265737360a81b6064820152608401610a82565b50600090815260ff602090815260408083206001600160a01b03949094168352929052205490565b600080611983846111ed565b9050826001600160a01b0316816001600160a01b031614806108a65750610101546001600160a01b039081169084161491505092915050565b600081815261010060205260408120546119d58361133d565b6108aa9190614030565b60006001600160e01b0319821663152a902d60e11b14806108aa57506108aa826123b2565b6000611a1260286038614043565b60ff169190911c919050565b6000611464612402565b6000611a3b600165010000000000614030565b909116919050565b60006001600160a01b038616611aa95760405162461bcd60e51b815260206004820152602560248201527f4e61746976654d6574615472616e73616374696f6e3a20494e56414c49445f5360448201526424a3a722a960d91b6064820152608401610a82565b6001611abc611ab78761245e565b6124db565b6040805160008152602081018083529290925260ff851690820152606081018690526080810185905260a0016020604051602081039080840390855afa158015611b0a573d6000803e3d6000fd5b505050602060405103516001600160a01b0316866001600160a01b031614905095945050505050565b600054610100900460ff16611b5a5760405162461bcd60e51b8152600401610a829061405c565b611b668585858461250b565b5061016a80546001600160601b0319166001600160601b0392909216919091179055505050565b6000816001600160a01b0316611bab6099546001600160a01b031690565b6001600160a01b03161492915050565b600081611bc88585610870565b1015949350505050565b6000815111611c395760405162461bcd60e51b815260206004820152602d60248201527f4173736574436f6e7472616374237365745065726d616e656e745552493a204f60448201526c4e4c595f56414c49445f55524960981b6064820152608401610a82565b600082815261010460205260409020805460ff19166001179055611c5d8282611e1a565b817fa109ba539900bf1b633f956d63c96fc89b814c7287f7aa50a9216d0b5565720782604051611c8d919061344c565b60405180910390a25050565b611ca1612546565b60cb805460ff191690557f5db9ee0a495bf2e6ff9c91a7834c1ba4fdd244a5e8aa4e537bd38aeae4b073aa611cd4611a1e565b6040516001600160a01b03909116815260200160405180910390a1565b611cf9611a1e565b6001600160a01b0316611d146099546001600160a01b031690565b6001600160a01b0316146110c25760405162461bcd60e51b815260206004820181905260248201527f4f776e61626c653a2063616c6c6572206973206e6f7420746865206f776e65726044820152606401610a82565b609980546001600160a01b038381166001600160a01b0319831681179093556040519116919082907f8be0079c531659141344cd1fd0a4f28419497f9722a3daafe3b4186f6b6457e090600090a35050565b611dc88484848461258f565b60018151111561127b5761127b83826112b0565b611de461268b565b60cb805460ff191660011790557f62e78cea01bee320cd4e420270b5ea74000d11b0c9f74754ebdbfc544b05a258611cd4611a1e565b600082815261010360205260409020611e338282613dec565b50817f6bb7ff708619ba0610cba295a58592e0451dee2622938c8755667688daf3529b82604051611c8d919061344c565b816001600160a01b0316836001600160a01b031603611ed75760405162461bcd60e51b815260206004820152602960248201527f455243313135353a2073657474696e6720617070726f76616c20737461747573604482015268103337b91039b2b63360b91b6064820152608401610a82565b6001600160a01b03838116600081815260666020908152604080832094871680845294825291829020805460ff191686151590811790915591519182527f17307eab39ab6107e8899845ad3d59bd9653f200f220920489ca2b5937696c31910160405180910390a3505050565b60026101055403611f975760405162461bcd60e51b815260206004820152601f60248201527f5265656e7472616e637947756172643a207265656e7472616e742063616c6c006044820152606401610a82565b600261010555565b611fab848484846126d1565b60018151111561127b5760005b835181101561108c57611fe4848281518110611fd657611fd6613ee4565b6020026020010151836112b0565b80611fee81613efa565b915050611fb8565b6127106001600160601b03821611156120645760405162461bcd60e51b815260206004820152602a60248201527f455243323938313a20726f79616c7479206665652077696c6c206578636565646044820152692073616c65507269636560b01b6064820152608401610a82565b6001600160a01b0382166120ba5760405162461bcd60e51b815260206004820152601b60248201527f455243323938313a20496e76616c696420706172616d657465727300000000006044820152606401610a82565b6040805180820182526001600160a01b0393841681526001600160601b039283166020808301918252600096875261013890529190942093519051909116600160a01b029116179055565b61210d61268b565b84612116611a1e565b6001600160a01b0316816001600160a01b0316148061213c575061213c816107d6611a1e565b6121585760405162461bcd60e51b8152600401610a82906140a7565b6001600160a01b0385166121bc5760405162461bcd60e51b815260206004820152602560248201527f455243313135353a207472616e7366657220746f20746865207a65726f206164604482015264647265737360d81b6064820152608401610a82565b60006121c6611a1e565b90506121e08188886121d789612935565b61108c89612935565b600085815260ff602090815260408083206001600160a01b038b168452909152902054848110156122665760405162461bcd60e51b815260206004820152602a60248201527f455243313135353a20696e73756666696369656e742062616c616e636520666f60448201526939103a3930b739b332b960b11b6064820152608401610a82565b6122708582614030565b600087815260ff602090815260408083206001600160a01b038d811685529252808320939093558916815290812080548792906122ae908490613c88565b909155505060408051878152602081018790526001600160a01b03808a16928b821692918616916000805160206142bd833981519152910160405180910390a46122fc828989898989612980565b5050505050505050565b8261230f611a1e565b6001600160a01b0316816001600160a01b031614806123355750612335816107d6611a1e565b6123515760405162461bcd60e51b8152600401610a82906140a7565b61127b848484612adb565b82612365611a1e565b6001600160a01b0316816001600160a01b0316148061238b575061238b816107d6611a1e565b6123a75760405162461bcd60e51b8152600401610a82906140a7565b61127b848484612cf0565b60006001600160e01b03198216636cdb3d1360e11b14806123e357506001600160e01b031982166303a24d0760e21b145b806108aa57506301ffc9a760e01b6001600160e01b03198316146108aa565b600030330361245857600080368080601f0160208091040260200160405190810160405280939291908181526020018383808284376000920191909152505050503601516001600160a01b0316915061245b9050565b50335b90565b60006040518060800160405280604381526020016142dd60439139805160209182012083518483015160408087015180519086012090516124be950193845260208401929092526001600160a01b03166040830152606082015260800190565b604051602081830303815290604052805190602001209050919050565b60006124e660975490565b60405161190160f01b60208201526022810191909152604281018390526062016124be565b600054610100900460ff166125325760405162461bcd60e51b8152600401610a829061405c565b61253d848483612f5f565b61127b82612fb1565b60cb5460ff166110c25760405162461bcd60e51b815260206004820152601460248201527314185d5cd8589b194e881b9bdd081c185d5cd95960621b6044820152606401610a82565b61259761268b565b60006125a1611a1e565b90506125bc816000876125b388612935565b61108c88612935565b6125c68484612fe8565b600084815260ff602090815260408083206001600160a01b0389168452909152812080548592906125f8908490613c88565b9091555050600084815261010060205260408120805485929061261c908490613c88565b909155506000905061262d85613066565b9050856001600160a01b0316816001600160a01b0316836001600160a01b03166000805160206142bd8339815191528888604051612675929190918252602082015260400190565b60405180910390a4610e24828288888888612980565b60cb5460ff16156110c25760405162461bcd60e51b815260206004820152601060248201526f14185d5cd8589b194e881c185d5cd95960821b6044820152606401610a82565b6126d961268b565b81518351146127435760405162461bcd60e51b815260206004820152603060248201527f455243313135355472616461626c652362617463684d696e743a20494e56414c60448201526f09288be82a4a482b2a6be988a9c8ea8960831b6064820152608401610a82565b8251600061276685828461275957612759613ee4565b6020026020010151613066565b90506000612772611a1e565b905060005b838110156128c657600087828151811061279357612793613ee4565b6020026020010151905060008783815181106127b1576127b1613ee4565b602002602001015190506127c58282612fe8565b846001600160a01b03166127d883613066565b6001600160a01b0316146128545760405162461bcd60e51b815260206004820152603760248201527f455243313135355472616461626c652362617463684d696e743a204d554c544960448201527f504c455f4f524947494e535f4e4f545f414c4c4f5745440000000000000000006064820152608401610a82565b600082815260ff602090815260408083206001600160a01b038e16845290915281208054839290612886908490613c88565b909155505060008281526101006020526040812080548392906128aa908490613c88565b92505081905550505080806128be90613efa565b915050612777565b50866001600160a01b0316826001600160a01b0316826001600160a01b03167f4a39dc06d4c0dbc64b70af90fd698a233a518aa5d07e595d983b8c0526c8f7fb89896040516129169291906140f7565b60405180910390a461292c818389898989613071565b50505050505050565b6040805160018082528183019092526060916000919060208083019080368337019050509050828160008151811061296f5761296f613ee4565b602090810291909101015292915050565b6001600160a01b0384163b15610e245760405163f23a6e6160e01b81526001600160a01b0385169063f23a6e61906129c4908990899088908890889060040161411c565b6020604051808303816000875af19250505080156129ff575060408051601f3d908101601f191682019092526129fc91810190614161565b60015b612aab57612a0b61417e565b806308c379a003612a445750612a1f614199565b80612a2a5750612a46565b8060405162461bcd60e51b8152600401610a82919061344c565b505b60405162461bcd60e51b815260206004820152603460248201527f455243313135353a207472616e7366657220746f206e6f6e20455243313135356044820152732932b1b2b4bb32b91034b6b83632b6b2b73a32b960611b6064820152608401610a82565b6001600160e01b0319811663f23a6e6160e01b1461292c5760405162461bcd60e51b8152600401610a8290614222565b612ae361268b565b6001600160a01b038316612b475760405162461bcd60e51b815260206004820152602560248201527f45524331313535235f6275726e3a204255524e5f46524f4d5f5a45524f5f4144604482015264445245535360d81b6064820152608401610a82565b60008111612ba35760405162461bcd60e51b815260206004820152602360248201527f45524331313535235f6275726e3a20414d4f554e545f4c4553535f5448414e5f6044820152624f4e4560e81b6064820152608401610a82565b6000612bad611a1e565b9050612bde81856000612bbf87612935565b612bc887612935565b5050604080516020810190915260009052505050565b600083815260ff602090815260408083206001600160a01b038816845290915290205482811015612c5f5760405162461bcd60e51b815260206004820152602560248201527f45524331313535235f6275726e3a20414d4f554e545f455843454544535f42416044820152644c414e434560d81b6064820152608401610a82565b612c698382614030565b600085815260ff602090815260408083206001600160a01b038a16845282528083209390935586825261010090529081208054859290612caa908490614030565b909155505060408051858152602081018590526000916001600160a01b0388811692908616916000805160206142bd833981519152910160405180910390a45050505050565b612cf861268b565b6001600160a01b038316612d4e5760405162461bcd60e51b815260206004820152601f60248201527f455243313135353a204255524e5f46524f4d5f5a45524f5f41444452455353006044820152606401610a82565b8051825114612dab5760405162461bcd60e51b8152602060048201526024808201527f455243313135353a204944535f414d4f554e54535f4c454e4754485f4d49534d604482015263082a886960e31b6064820152608401610a82565b6000612db5611a1e565b604080516020810190915260009052905060005b8351811015612f00576000848281518110612de657612de6613ee4565b602002602001015190506000848381518110612e0457612e04613ee4565b602090810291909101810151600084815260ff835260408082206001600160a01b038c168352909352919091205490915081811015612e985760405162461bcd60e51b815260206004820152602a60248201527f45524331313535235f6275726e42617463683a20414d4f554e545f455843454560448201526944535f42414c414e434560b01b6064820152608401610a82565b612ea28282614030565b600084815260ff602090815260408083206001600160a01b038d16845282528083209390935585825261010090529081208054849290612ee3908490614030565b925050819055505050508080612ef890613efa565b915050612dc9565b5060006001600160a01b0316846001600160a01b0316826001600160a01b03167f4a39dc06d4c0dbc64b70af90fd698a233a518aa5d07e595d983b8c0526c8f7fb8686604051612f519291906140f7565b60405180910390a450505050565b600054610100900460ff16612f865760405162461bcd60e51b8152600401610a829061405c565b612f8e61312c565b612fa660405180602001604052806000815250613163565b6118d0838383613193565b600054610100900460ff16612fd85760405162461bcd60e51b8152600401610a829061405c565b80511561175d5761175d81610e2c565b612ff1826119bc565b811115610e655760405162461bcd60e51b815260206004820152603c60248201527f4173736574436f6e7472616374235f6265666f72654d696e743a205155414e5460448201527f4954595f455843454544535f544f4b454e5f535550504c595f434150000000006064820152608401610a82565b60006108aa82611a04565b6001600160a01b0384163b15610e245760405163bc197c8160e01b81526001600160a01b0385169063bc197c81906130b5908990899088908890889060040161426a565b6020604051808303816000875af19250505080156130f0575060408051601f3d908101601f191682019092526130ed91810190614161565b60015b6130fc57612a0b61417e565b6001600160e01b0319811663bc197c8160e01b1461292c5760405162461bcd60e51b8152600401610a8290614222565b600054610100900460ff166131535760405162461bcd60e51b8152600401610a829061405c565b6110c261315e611a1e565b611d6a565b600054610100900460ff1661318a5760405162461bcd60e51b8152600401610a829061405c565b61175d81613285565b600054610100900460ff166131ba5760405162461bcd60e51b8152600401610a829061405c565b60fd6131c68482613dec565b5060fe6131d38382613dec565b5061010180546001600160a01b0319166001600160a01b03831617905560fd80546118d0919061320290613c9b565b80601f016020809104026020016040519081016040528092919081815260200182805461322e90613c9b565b801561327b5780601f106132505761010080835404028352916020019161327b565b820191906000526020600020905b81548152906001019060200180831161325e57829003601f168201915b5050505050613291565b6067610e658282613dec565b600054610100900460ff166132b85760405162461bcd60e51b8152600401610a829061405c565b61175d81600054610100900460ff166132e35760405162461bcd60e51b8152600401610a829061405c565b61175d816040518060800160405280604f8152602001614320604f9139805160209182012082519282019290922060408051808201825260018152603160f81b90840152805180840194909452838101919091527fc89efdaa54c0f20c7adf612882df0950f5a951637e0307cdcb4c672f298b8bc660608401523060808401524660a0808501919091528151808503909101815260c090930190528151910120609755565b80356001600160a01b038116811461123157600080fd5b600080604083850312156133b257600080fd5b6133bb83613388565b946020939093013593505050565b6001600160e01b03198116811461175d57600080fd5b6000602082840312156133f157600080fd5b8135611690816133c9565b60005b838110156134175781810151838201526020016133ff565b50506000910152565b600081518084526134388160208601602086016133fc565b601f01601f19169290920160200192915050565b6020815260006116906020830184613420565b60006020828403121561347157600080fd5b5035919050565b634e487b7160e01b600052604160045260246000fd5b601f8201601f191681016001600160401b03811182821017156134b3576134b3613478565b6040525050565b600082601f8301126134cb57600080fd5b81356001600160401b038111156134e4576134e4613478565b6040516134fb601f8301601f19166020018261348e565b81815284602083860101111561351057600080fd5b816020850160208301376000918101602001919091529392505050565b600080600080600060a0868803121561354557600080fd5b61354e86613388565b945060208601356001600160401b0381111561356957600080fd5b613575888289016134ba565b9450506040860135925060608601359150608086013560ff8116811461359a57600080fd5b809150509295509295909350565b80356001600160601b038116811461123157600080fd5b600080600080600060a086880312156135d757600080fd5b85356001600160401b03808211156135ee57600080fd5b6135fa89838a016134ba565b9650602088013591508082111561361057600080fd5b61361c89838a016134ba565b9550604088013591508082111561363257600080fd5b5061363f888289016134ba565b93505061364e606087016135a8565b915061365c60808701613388565b90509295509295909350565b60006020828403121561367a57600080fd5b81356001600160401b0381111561369057600080fd5b6108a6848285016134ba565b600080604083850312156136af57600080fd5b50508035926020909101359150565b6000602082840312156136d057600080fd5b61169082613388565b60006001600160401b038211156136f2576136f2613478565b5060051b60200190565b600082601f83011261370d57600080fd5b8135602061371a826136d9565b604051613727828261348e565b83815260059390931b850182019282810191508684111561374757600080fd5b8286015b84811015613762578035835291830191830161374b565b509695505050505050565b600080600080600060a0868803121561378557600080fd5b61378e86613388565b945061379c60208701613388565b935060408601356001600160401b03808211156137b857600080fd5b6137c489838a016136fc565b945060608801359150808211156137da57600080fd5b6137e689838a016136fc565b935060808801359150808211156137fc57600080fd5b50613809888289016134ba565b9150509295509295909350565b6000806040838503121561382957600080fd5b8235915060208301356001600160401b0381111561384657600080fd5b613852858286016134ba565b9150509250929050565b6000806040838503121561386f57600080fd5b82356001600160401b038082111561388657600080fd5b818501915085601f83011261389a57600080fd5b813560206138a7826136d9565b6040516138b4828261348e565b83815260059390931b85018201928281019150898411156138d457600080fd5b948201945b838610156138f9576138ea86613388565b825294820194908201906138d9565b9650508601359250508082111561390f57600080fd5b50613852858286016136fc565b600081518084526020808501945080840160005b8381101561394c57815187529582019590820190600101613930565b509495945050505050565b602081526000611690602083018461391c565b6000806000806080858703121561398057600080fd5b61398985613388565b9350602085013592506040850135915060608501356001600160401b038111156139b257600080fd5b6139be878288016134ba565b91505092959194509250565b600080604083850312156139dd57600080fd5b823591506139ed60208401613388565b90509250929050565b60008060408385031215613a0957600080fd5b613a1283613388565b915060208301358015158114613a2757600080fd5b809150509250929050565b60008060008060808587031215613a4857600080fd5b613a5185613388565b935060208501356001600160401b0380821115613a6d57600080fd5b613a79888389016136fc565b94506040870135915080821115613a8f57600080fd5b613a9b888389016136fc565b93506060870135915080821115613ab157600080fd5b506139be878288016134ba565b600060208284031215613ad057600080fd5b611690826135a8565b600080600080600060a08688031215613af157600080fd5b613afa86613388565b9450602086013593506040860135925060608601356001600160401b03811115613b2357600080fd5b613b2f888289016134ba565b92505061365c608087016135a8565b60008060408385031215613b5157600080fd5b613b5a83613388565b91506139ed60208401613388565b600080600080600060a08688031215613b8057600080fd5b613b8986613388565b9450613b9760208701613388565b9350604086013592506060860135915060808601356001600160401b03811115613bc057600080fd5b613809888289016134ba565b600080600060608486031215613be157600080fd5b613bea84613388565b95602085013595506040909401359392505050565b600080600060608486031215613c1457600080fd5b613c1d84613388565b925060208401356001600160401b0380821115613c3957600080fd5b613c45878388016136fc565b93506040860135915080821115613c5b57600080fd5b50613c68868287016136fc565b9150509250925092565b634e487b7160e01b600052601160045260246000fd5b808201808211156108aa576108aa613c72565b600181811c90821680613caf57607f821691505b602082108103613ccf57634e487b7160e01b600052602260045260246000fd5b50919050565b6001600160a01b03848116825283166020820152606060408201819052600090613d0190830184613420565b95945050505050565b60008351613d1c8184602088016133fc565b60609390931b6001600160601b0319169190920190815260140192915050565b60008251613d4e8184602087016133fc565b9190910192915050565b6020808252602e908201527f455243313135355472616461626c65236f6e6c794f776e65723a2043414c4c4560408201526d292fa4a9afa727aa2fa7aba722a960911b606082015260800190565b601f8211156118d057600081815260208120601f850160051c81016020861015613dcd5750805b601f850160051c820191505b81811015610e2457828155600101613dd9565b81516001600160401b03811115613e0557613e05613478565b613e1981613e138454613c9b565b84613da6565b602080601f831160018114613e4e5760008415613e365750858301515b600019600386901b1c1916600185901b178555610e24565b600085815260208120601f198616915b82811015613e7d57888601518255948401946001909101908401613e5e565b5085821015613e9b5787850151600019600388901b60f8161c191681555b5050505050600190811b01905550565b80820281158282048414176108aa576108aa613c72565b600082613edf57634e487b7160e01b600052601260045260246000fd5b500490565b634e487b7160e01b600052603260045260246000fd5b600060018201613f0c57613f0c613c72565b5060010190565b60208082526035908201527f4173736574436f6e74726163745368617265642363726561746f724f6e6c793a6040820152740813d3931657d0d491505513d497d0531313d5d151605a1b606082015260800190565b60208082526037908201527f4173736574436f6e7472616374236f6e6c79496d7065726d616e656e7455524960408201527f3a205552495f43414e4e4f545f42455f4348414e474544000000000000000000606082015260800190565b60208082526045908201527f4173736574436f6e7472616374536861726564236f6e6c7946756c6c546f6b6560408201527f6e4f776e65723a204f4e4c595f46554c4c5f544f4b454e5f4f574e45525f414c6060820152641313d5d15160da1b608082015260a00190565b818103818111156108aa576108aa613c72565b60ff81811683821601908111156108aa576108aa613c72565b6020808252602b908201527f496e697469616c697a61626c653a20636f6e7472616374206973206e6f74206960408201526a6e697469616c697a696e6760a81b606082015260800190565b60208082526030908201527f455243313135355472616461626c65236f6e6c79417070726f7665643a20434160408201526f1313115497d393d517d0531313d5d15160821b606082015260800190565b60408152600061410a604083018561391c565b8281036020840152613d01818561391c565b6001600160a01b03868116825285166020820152604081018490526060810183905260a06080820181905260009061415690830184613420565b979650505050505050565b60006020828403121561417357600080fd5b8151611690816133c9565b600060033d111561245b5760046000803e5060005160e01c90565b600060443d10156141a75790565b6040516003193d81016004833e81513d6001600160401b0381602484011181841117156141d657505050505090565b82850191508151818111156141ee5750505050505090565b843d87010160208285010111156142085750505050505090565b6142176020828601018761348e565b509095945050505050565b60208082526028908201527f455243313135353a204552433131353552656365697665722072656a656374656040820152676420746f6b656e7360c01b606082015260800190565b6001600160a01b0386811682528516602082015260a0604082018190526000906142969083018661391c565b82810360608401526142a8818661391c565b90508281036080840152610bc3818561342056fec3d58168c5ae7397731d063d5bbf3d657854427343f4c083240f7aacaa2d0f624d6574615472616e73616374696f6e2875696e74323536206e6f6e63652c616464726573732066726f6d2c62797465732066756e6374696f6e5369676e617475726529454950373132446f6d61696e28737472696e67206e616d652c737472696e672076657273696f6e2c6164647265737320766572696679696e67436f6e74726163742c627974657333322073616c7429a2646970667358221220b82878374c96000b92e62ece466eb8787ce9a2a64cd8589c02ff249af4620d8764736f6c63430008110033",
  "linkReferences": {},
  "deployedLinkReferences": {}
}