{
  "_format": "hh-sol-artifact-1",
  "contractName": "NativeMetaTransaction",
  "sourceName": "contracts/common/meta-transactions/NativeMetaTransaction.sol",
  "abi": [
    {
      "anonymous": false,
      "inputs": [
        {
          "indexed": false,
          "internalType": "uint8",
          "name": "version",
          "type": "uint8"
        }
      ],
      "name": "Initialized",
      "type": "event"
    },
    {
      "anonymous": false,
      "inputs": [
        {
          "indexed": false,
          "internalType": "address",
          "name": "userAddress",
          "type": "address"
        },
        {
          "indexed": false,
          "internalType": "address payable",
          "name": "relayerAddress",
          "type": "address"
        },
        {
          "indexed": false,
          "internalType": "bytes",
          "name": "functionSignature",
          "type": "bytes"
        }
      ],
      "name": "MetaTransactionExecuted",
      "type": "event"
    },
    {
      "inputs": [],
      "name": "ERC712_VERSION",
      "outputs": [
        {
          "internalType": "string",
          "name": "",
          "type": "string"
        }
      ],
      "stateMutability": "view",
      "type": "function"
    },
    {
      "inputs": [
        {
          "internalType": "address",
          "name": "userAddress",
          "type": "address"
        },
        {
          "internalType": "bytes",
          "name": "functionSignature",
          "type": "bytes"
        },
        {
          "internalType": "bytes32",
          "name": "sigR",
          "type": "bytes32"
        },
        {
          "internalType": "bytes32",
          "name": "sigS",
          "type": "bytes32"
        },
        {
          "internalType": "uint8",
          "name": "sigV",
          "type": "uint8"
        }
      ],
      "name": "executeMetaTransaction",
      "outputs": [
        {
          "internalType": "bytes",
          "name": "",
          "type": "bytes"
        }
      ],
      "stateMutability": "payable",
      "type": "function"
    },
    {
      "inputs": [],
      "name": "getChainId",
      "outputs": [
        {
          "internalType": "uint256",
          "name": "",
          "type": "uint256"
        }
      ],
      "stateMutability": "view",
      "type": "function"
    },
    {
      "inputs": [],
      "name": "getDomainSeperator",
      "outputs": [
        {
          "internalType": "bytes32",
          "name": "",
          "type": "bytes32"
        }
      ],
      "stateMutability": "view",
      "type": "function"
    },
    {
      "inputs": [
        {
          "internalType": "address",
          "name": "user",
          "type": "address"
        }
      ],
      "name": "getNonce",
      "outputs": [
        {
          "internalType": "uint256",
          "name": "nonce",
          "type": "uint256"
        }
      ],
      "stateMutability": "view",
      "type": "function"
    }
  ],
  "bytecode": "0x608060405234801561001057600080fd5b5061075d806100206000396000f3fe60806040526004361061004a5760003560e01c80630c53c51c1461004f5780630f7e59701461007857806320379ee5146100a55780632d0335ab146100c45780633408e470146100fa575b600080fd5b61006261005d3660046104ca565b61010d565b60405161006f9190610600565b60405180910390f35b34801561008457600080fd5b50610062604051806040016040528060018152602001603160f81b81525081565b3480156100b157600080fd5b506001545b60405190815260200161006f565b3480156100d057600080fd5b506100b66100df36600461061a565b6001600160a01b031660009081526002602052604090205490565b34801561010657600080fd5b50466100b6565b60408051606081810183526001600160a01b0388166000818152600260209081529085902054845283015291810186905261014b87828787876102ea565b6101a65760405162461bcd60e51b815260206004820152602160248201527f5369676e657220616e64207369676e617475726520646f206e6f74206d6174636044820152600d60fb1b60648201526084015b60405180910390fd5b6001600160a01b03871660009081526002602052604081208054600192906101cf908490610635565b90915550506040517f5845892132946850460bff5a0083f71031bc5bf9aadcd40f1de79423eac9b10b9061020890899033908a9061065c565b60405180910390a1600080306001600160a01b0316888a604051602001610230929190610691565b60408051601f198184030181529082905261024a916106c8565b6000604051808303816000865af19150503d8060008114610287576040519150601f19603f3d011682016040523d82523d6000602084013e61028c565b606091505b5091509150816102de5760405162461bcd60e51b815260206004820152601c60248201527f46756e6374696f6e2063616c6c206e6f74207375636365737366756c00000000604482015260640161019d565b98975050505050505050565b60006001600160a01b0386166103505760405162461bcd60e51b815260206004820152602560248201527f4e61746976654d6574615472616e73616374696f6e3a20494e56414c49445f5360448201526424a3a722a960d91b606482015260840161019d565b600161036361035e876103da565b610457565b6040805160008152602081018083529290925260ff851690820152606081018690526080810185905260a0016020604051602081039080840390855afa1580156103b1573d6000803e3d6000fd5b505050602060405103516001600160a01b0316866001600160a01b031614905095945050505050565b60006040518060800160405280604381526020016106e5604391398051602091820120835184830151604080870151805190860120905161043a950193845260208401929092526001600160a01b03166040830152606082015260800190565b604051602081830303815290604052805190602001209050919050565b600061046260015490565b60405161190160f01b602082015260228101919091526042810183905260620161043a565b80356001600160a01b038116811461049e57600080fd5b919050565b634e487b7160e01b600052604160045260246000fd5b803560ff8116811461049e57600080fd5b600080600080600060a086880312156104e257600080fd5b6104eb86610487565b9450602086013567ffffffffffffffff8082111561050857600080fd5b818801915088601f83011261051c57600080fd5b81358181111561052e5761052e6104a3565b604051601f8201601f19908116603f01168101908382118183101715610556576105566104a3565b816040528281528b602084870101111561056f57600080fd5b82602086016020830137600060208483010152809850505050505060408601359250606086013591506105a4608087016104b9565b90509295509295909350565b60005b838110156105cb5781810151838201526020016105b3565b50506000910152565b600081518084526105ec8160208601602086016105b0565b601f01601f19169290920160200192915050565b60208152600061061360208301846105d4565b9392505050565b60006020828403121561062c57600080fd5b61061382610487565b8082018082111561065657634e487b7160e01b600052601160045260246000fd5b92915050565b6001600160a01b03848116825283166020820152606060408201819052600090610688908301846105d4565b95945050505050565b600083516106a38184602088016105b0565b60609390931b6bffffffffffffffffffffffff19169190920190815260140192915050565b600082516106da8184602087016105b0565b919091019291505056fe4d6574615472616e73616374696f6e2875696e74323536206e6f6e63652c616464726573732066726f6d2c62797465732066756e6374696f6e5369676e617475726529a2646970667358221220d1be9f22ac54c965cde086b0613b67865e4fec038323048e7586383c4104362564736f6c63430008110033",
  "linkReferences": {},
  "deployedLinkReferences": {}
}